{
  "_format": "hh-sol-artifact-1",
  "contractName": "PadelConnect",
  "sourceName": "contracts/PadelConnect.sol",
  "abi": [
    {
      "inputs": [],
      "name": "CompleteTournament",
      "type": "error"
    },
    {
      "inputs": [],
      "name": "ErrorDuringPayment",
      "type": "error"
    },
    {
      "inputs": [],
      "name": "RegistrationEnded",
      "type": "error"
    },
    {
      "anonymous": false,
      "inputs": [
        {
          "indexed": true,
          "internalType": "address",
          "name": "owner",
          "type": "address"
        },
        {
          "indexed": true,
          "internalType": "address",
          "name": "approved",
          "type": "address"
        },
        {
          "indexed": true,
          "internalType": "uint256",
          "name": "tokenId",
          "type": "uint256"
        }
      ],
      "name": "Approval",
      "type": "event"
    },
    {
      "anonymous": false,
      "inputs": [
        {
          "indexed": true,
          "internalType": "address",
          "name": "owner",
          "type": "address"
        },
        {
          "indexed": true,
          "internalType": "address",
          "name": "operator",
          "type": "address"
        },
        {
          "indexed": false,
          "internalType": "bool",
          "name": "approved",
          "type": "bool"
        }
      ],
      "name": "ApprovalForAll",
      "type": "event"
    },
    {
      "anonymous": false,
      "inputs": [
        {
          "indexed": false,
          "internalType": "uint256",
          "name": "_fromTokenId",
          "type": "uint256"
        },
        {
          "indexed": false,
          "internalType": "uint256",
          "name": "_toTokenId",
          "type": "uint256"
        }
      ],
      "name": "BatchMetadataUpdate",
      "type": "event"
    },
    {
      "anonymous": false,
      "inputs": [
        {
          "indexed": false,
          "internalType": "address",
          "name": "_address",
          "type": "address"
        }
      ],
      "name": "ManagerAdded",
      "type": "event"
    },
    {
      "anonymous": false,
      "inputs": [
        {
          "indexed": false,
          "internalType": "uint256",
          "name": "_tokenId",
          "type": "uint256"
        }
      ],
      "name": "MetadataUpdate",
      "type": "event"
    },
    {
      "anonymous": false,
      "inputs": [
        {
          "indexed": true,
          "internalType": "address",
          "name": "previousOwner",
          "type": "address"
        },
        {
          "indexed": true,
          "internalType": "address",
          "name": "newOwner",
          "type": "address"
        }
      ],
      "name": "OwnershipTransferred",
      "type": "event"
    },
    {
      "anonymous": false,
      "inputs": [
        {
          "indexed": false,
          "internalType": "uint256",
          "name": "tournamentId",
          "type": "uint256"
        },
        {
          "indexed": false,
          "internalType": "address",
          "name": "player",
          "type": "address"
        }
      ],
      "name": "PrivateCommentAdded",
      "type": "event"
    },
    {
      "anonymous": false,
      "inputs": [
        {
          "indexed": false,
          "internalType": "uint256",
          "name": "tournamentId",
          "type": "uint256"
        },
        {
          "indexed": false,
          "internalType": "address",
          "name": "player",
          "type": "address"
        }
      ],
      "name": "PrivateResponseAdded",
      "type": "event"
    },
    {
      "anonymous": false,
      "inputs": [
        {
          "indexed": false,
          "internalType": "uint256",
          "name": "tournamentId",
          "type": "uint256"
        }
      ],
      "name": "TournamentCommentAdded",
      "type": "event"
    },
    {
      "anonymous": false,
      "inputs": [
        {
          "indexed": false,
          "internalType": "string",
          "name": "city",
          "type": "string"
        },
        {
          "indexed": false,
          "internalType": "uint256",
          "name": "date",
          "type": "uint256"
        }
      ],
      "name": "TournamentCreated",
      "type": "event"
    },
    {
      "anonymous": false,
      "inputs": [
        {
          "indexed": true,
          "internalType": "address",
          "name": "from",
          "type": "address"
        },
        {
          "indexed": true,
          "internalType": "address",
          "name": "to",
          "type": "address"
        },
        {
          "indexed": true,
          "internalType": "uint256",
          "name": "tokenId",
          "type": "uint256"
        }
      ],
      "name": "Transfer",
      "type": "event"
    },
    {
      "inputs": [
        {
          "internalType": "uint256",
          "name": "_id",
          "type": "uint256"
        },
        {
          "internalType": "string",
          "name": "_message",
          "type": "string"
        }
      ],
      "name": "addComment",
      "outputs": [],
      "stateMutability": "nonpayable",
      "type": "function"
    },
    {
      "inputs": [
        {
          "internalType": "address",
          "name": "_address",
          "type": "address"
        }
      ],
      "name": "addManager",
      "outputs": [],
      "stateMutability": "nonpayable",
      "type": "function"
    },
    {
      "inputs": [
        {
          "internalType": "uint256",
          "name": "_id",
          "type": "uint256"
        },
        {
          "internalType": "string",
          "name": "_message",
          "type": "string"
        }
      ],
      "name": "addPrivateCommentToManager",
      "outputs": [],
      "stateMutability": "nonpayable",
      "type": "function"
    },
    {
      "inputs": [
        {
          "internalType": "uint256",
          "name": "_id",
          "type": "uint256"
        },
        {
          "internalType": "address",
          "name": "_player",
          "type": "address"
        },
        {
          "internalType": "string",
          "name": "_message",
          "type": "string"
        }
      ],
      "name": "addPrivateResponseToPlayer",
      "outputs": [],
      "stateMutability": "nonpayable",
      "type": "function"
    },
    {
      "inputs": [
        {
          "internalType": "string",
          "name": "_city",
          "type": "string"
        },
        {
          "internalType": "uint256",
          "name": "_date",
          "type": "uint256"
        },
        {
          "internalType": "uint8",
          "name": "_diff",
          "type": "uint8"
        },
        {
          "internalType": "uint8",
          "name": "_maxPlayers",
          "type": "uint8"
        }
      ],
      "name": "addTournament",
      "outputs": [],
      "stateMutability": "nonpayable",
      "type": "function"
    },
    {
      "inputs": [
        {
          "internalType": "uint256",
          "name": "_id",
          "type": "uint256"
        },
        {
          "internalType": "address",
          "name": "_winner1",
          "type": "address"
        },
        {
          "internalType": "address",
          "name": "_winner2",
          "type": "address"
        }
      ],
      "name": "addWinners",
      "outputs": [],
      "stateMutability": "nonpayable",
      "type": "function"
    },
    {
      "inputs": [
        {
          "internalType": "address",
          "name": "to",
          "type": "address"
        },
        {
          "internalType": "uint256",
          "name": "tokenId",
          "type": "uint256"
        }
      ],
      "name": "approve",
      "outputs": [],
      "stateMutability": "nonpayable",
      "type": "function"
    },
    {
      "inputs": [
        {
          "internalType": "address",
          "name": "owner",
          "type": "address"
        }
      ],
      "name": "balanceOf",
      "outputs": [
        {
          "internalType": "uint256",
          "name": "",
          "type": "uint256"
        }
      ],
      "stateMutability": "view",
      "type": "function"
    },
    {
      "inputs": [
        {
          "internalType": "uint256",
          "name": "",
          "type": "uint256"
        },
        {
          "internalType": "uint256",
          "name": "",
          "type": "uint256"
        }
      ],
      "name": "comments",
      "outputs": [
        {
          "internalType": "string",
          "name": "message",
          "type": "string"
        },
        {
          "internalType": "address",
          "name": "author",
          "type": "address"
        }
      ],
      "stateMutability": "view",
      "type": "function"
    },
    {
      "inputs": [
        {
          "internalType": "uint256",
          "name": "_id",
          "type": "uint256"
        }
      ],
      "name": "followTournament",
      "outputs": [],
      "stateMutability": "nonpayable",
      "type": "function"
    },
    {
      "inputs": [
        {
          "internalType": "uint256",
          "name": "",
          "type": "uint256"
        },
        {
          "internalType": "address",
          "name": "",
          "type": "address"
        }
      ],
      "name": "followedTournaments",
      "outputs": [
        {
          "internalType": "bool",
          "name": "",
          "type": "bool"
        }
      ],
      "stateMutability": "view",
      "type": "function"
    },
    {
      "inputs": [
        {
          "internalType": "uint256",
          "name": "tokenId",
          "type": "uint256"
        }
      ],
      "name": "getApproved",
      "outputs": [
        {
          "internalType": "address",
          "name": "",
          "type": "address"
        }
      ],
      "stateMutability": "view",
      "type": "function"
    },
    {
      "inputs": [
        {
          "internalType": "uint256",
          "name": "",
          "type": "uint256"
        }
      ],
      "name": "idComments",
      "outputs": [
        {
          "internalType": "uint256",
          "name": "",
          "type": "uint256"
        }
      ],
      "stateMutability": "view",
      "type": "function"
    },
    {
      "inputs": [
        {
          "internalType": "address",
          "name": "owner",
          "type": "address"
        },
        {
          "internalType": "address",
          "name": "operator",
          "type": "address"
        }
      ],
      "name": "isApprovedForAll",
      "outputs": [
        {
          "internalType": "bool",
          "name": "",
          "type": "bool"
        }
      ],
      "stateMutability": "view",
      "type": "function"
    },
    {
      "inputs": [],
      "name": "name",
      "outputs": [
        {
          "internalType": "string",
          "name": "",
          "type": "string"
        }
      ],
      "stateMutability": "view",
      "type": "function"
    },
    {
      "inputs": [],
      "name": "owner",
      "outputs": [
        {
          "internalType": "address",
          "name": "",
          "type": "address"
        }
      ],
      "stateMutability": "view",
      "type": "function"
    },
    {
      "inputs": [
        {
          "internalType": "uint256",
          "name": "tokenId",
          "type": "uint256"
        }
      ],
      "name": "ownerOf",
      "outputs": [
        {
          "internalType": "address",
          "name": "",
          "type": "address"
        }
      ],
      "stateMutability": "view",
      "type": "function"
    },
    {
      "inputs": [
        {
          "internalType": "uint256",
          "name": "",
          "type": "uint256"
        },
        {
          "internalType": "address",
          "name": "",
          "type": "address"
        }
      ],
      "name": "playersRegistered",
      "outputs": [
        {
          "internalType": "bool",
          "name": "",
          "type": "bool"
        }
      ],
      "stateMutability": "view",
      "type": "function"
    },
    {
      "inputs": [
        {
          "internalType": "uint256",
          "name": "_id",
          "type": "uint256"
        },
        {
          "internalType": "string",
          "name": "_firstName",
          "type": "string"
        },
        {
          "internalType": "string",
          "name": "_lastName",
          "type": "string"
        }
      ],
      "name": "registerPlayer",
      "outputs": [],
      "stateMutability": "nonpayable",
      "type": "function"
    },
    {
      "inputs": [],
      "name": "renounceOwnership",
      "outputs": [],
      "stateMutability": "nonpayable",
      "type": "function"
    },
    {
      "inputs": [
        {
          "internalType": "address",
          "name": "from",
          "type": "address"
        },
        {
          "internalType": "address",
          "name": "to",
          "type": "address"
        },
        {
          "internalType": "uint256",
          "name": "tokenId",
          "type": "uint256"
        }
      ],
      "name": "safeTransferFrom",
      "outputs": [],
      "stateMutability": "nonpayable",
      "type": "function"
    },
    {
      "inputs": [
        {
          "internalType": "address",
          "name": "from",
          "type": "address"
        },
        {
          "internalType": "address",
          "name": "to",
          "type": "address"
        },
        {
          "internalType": "uint256",
          "name": "tokenId",
          "type": "uint256"
        },
        {
          "internalType": "bytes",
          "name": "data",
          "type": "bytes"
        }
      ],
      "name": "safeTransferFrom",
      "outputs": [],
      "stateMutability": "nonpayable",
      "type": "function"
    },
    {
      "inputs": [
        {
          "internalType": "address",
          "name": "operator",
          "type": "address"
        },
        {
          "internalType": "bool",
          "name": "approved",
          "type": "bool"
        }
      ],
      "name": "setApprovalForAll",
      "outputs": [],
      "stateMutability": "nonpayable",
      "type": "function"
    },
    {
      "inputs": [
        {
          "internalType": "bytes4",
          "name": "interfaceId",
          "type": "bytes4"
        }
      ],
      "name": "supportsInterface",
      "outputs": [
        {
          "internalType": "bool",
          "name": "",
          "type": "bool"
        }
      ],
      "stateMutability": "view",
      "type": "function"
    },
    {
      "inputs": [],
      "name": "symbol",
      "outputs": [
        {
          "internalType": "string",
          "name": "",
          "type": "string"
        }
      ],
      "stateMutability": "view",
      "type": "function"
    },
    {
      "inputs": [
        {
          "internalType": "uint256",
          "name": "tokenId",
          "type": "uint256"
        }
      ],
      "name": "tokenURI",
      "outputs": [
        {
          "internalType": "string",
          "name": "",
          "type": "string"
        }
      ],
      "stateMutability": "view",
      "type": "function"
    },
    {
      "inputs": [
        {
          "internalType": "uint256",
          "name": "",
          "type": "uint256"
        }
      ],
      "name": "tournaments",
      "outputs": [
        {
          "internalType": "uint256",
          "name": "id",
          "type": "uint256"
        },
        {
          "internalType": "string",
          "name": "city",
          "type": "string"
        },
        {
          "internalType": "uint256",
          "name": "date",
          "type": "uint256"
        },
        {
          "internalType": "enum IPadelConnect.Difficulty",
          "name": "difficulty",
          "type": "uint8"
        },
        {
          "internalType": "uint8",
          "name": "maxPlayers",
          "type": "uint8"
        },
        {
          "internalType": "uint8",
          "name": "registrationsAvailable",
          "type": "uint8"
        },
        {
          "internalType": "address",
          "name": "winner1",
          "type": "address"
        },
        {
          "internalType": "address",
          "name": "winner2",
          "type": "address"
        }
      ],
      "stateMutability": "view",
      "type": "function"
    },
    {
      "inputs": [
        {
          "internalType": "address",
          "name": "from",
          "type": "address"
        },
        {
          "internalType": "address",
          "name": "to",
          "type": "address"
        },
        {
          "internalType": "uint256",
          "name": "tokenId",
          "type": "uint256"
        }
      ],
      "name": "transferFrom",
      "outputs": [],
      "stateMutability": "nonpayable",
      "type": "function"
    },
    {
      "inputs": [
        {
          "internalType": "address",
          "name": "newOwner",
          "type": "address"
        }
      ],
      "name": "transferOwnership",
      "outputs": [],
      "stateMutability": "nonpayable",
      "type": "function"
    }
  ],
  "bytecode": "0x608060405234801562000010575f80fd5b506040518060400160405280600c81526020017f506164656c436f6e6e65637400000000000000000000000000000000000000008152506040518060400160405280600381526020017f50444c00000000000000000000000000000000000000000000000000000000008152506200009d62000091620000c960201b60201c565b620000d060201b60201c565b8160019081620000ae9190620003f5565b508060029081620000c09190620003f5565b505050620004d9565b5f33905090565b5f805f9054906101000a900473ffffffffffffffffffffffffffffffffffffffff169050815f806101000a81548173ffffffffffffffffffffffffffffffffffffffff021916908373ffffffffffffffffffffffffffffffffffffffff1602179055508173ffffffffffffffffffffffffffffffffffffffff168173ffffffffffffffffffffffffffffffffffffffff167f8be0079c531659141344cd1fd0a4f28419497f9722a3daafe3b4186f6b6457e060405160405180910390a35050565b5f81519050919050565b7f4e487b71000000000000000000000000000000000000000000000000000000005f52604160045260245ffd5b7f4e487b71000000000000000000000000000000000000000000000000000000005f52602260045260245ffd5b5f60028204905060018216806200020d57607f821691505b602082108103620002235762000222620001c8565b5b50919050565b5f819050815f5260205f209050919050565b5f6020601f8301049050919050565b5f82821b905092915050565b5f60088302620002877fffffffffffffffffffffffffffffffffffffffffffffffffffffffffffffffff826200024a565b6200029386836200024a565b95508019841693508086168417925050509392505050565b5f819050919050565b5f819050919050565b5f620002dd620002d7620002d184620002ab565b620002b4565b620002ab565b9050919050565b5f819050919050565b620002f883620002bd565b620003106200030782620002e4565b84845462000256565b825550505050565b5f90565b6200032662000318565b62000333818484620002ed565b505050565b5b818110156200035a576200034e5f826200031c565b60018101905062000339565b5050565b601f821115620003a957620003738162000229565b6200037e846200023b565b810160208510156200038e578190505b620003a66200039d856200023b565b83018262000338565b50505b505050565b5f82821c905092915050565b5f620003cb5f1984600802620003ae565b1980831691505092915050565b5f620003e58383620003ba565b9150826002028217905092915050565b620004008262000191565b67ffffffffffffffff8111156200041c576200041b6200019b565b5b620004288254620001f5565b620004358282856200035e565b5f60209050601f8311600181146200046b575f841562000456578287015190505b620004628582620003d8565b865550620004d1565b601f1984166200047b8662000229565b5f5b82811015620004a4578489015182556001820191506020850194506020810190506200047d565b86831015620004c45784890151620004c0601f891682620003ba565b8355505b6001600288020188555050505b505050505050565b615b1e80620004e75f395ff3fe608060405234801561000f575f80fd5b50600436106101cd575f3560e01c8063715018a611610102578063a22cb465116100a0578063e985e9c51161006f578063e985e9c51461053c578063f2fde38b1461056c578063f891e08b14610588578063fc6c776f146105a4576101cd565b8063a22cb465146104b8578063aa7e5683146104d4578063b88d4fde146104f0578063c87b56dd1461050c576101cd565b80638da5cb5b116100dc5780638da5cb5b1461043057806395d89b411461044e5780639b0404ca1461046c5780639b535ead14610488576101cd565b8063715018a6146103d35780637503e1b7146103dd5780638a8da1f714610414576101cd565b806325e2e5541161016f5780633ae48eb8116101495780633ae48eb81461032757806342842e0e146103575780636352211e1461037357806370a08231146103a3576101cd565b806325e2e554146102bf5780632d06177a146102db5780633682fd03146102f7576101cd565b8063095ea7b3116101ab578063095ea7b31461024f5780630b7bdd7f1461026b5780631d3f6c8a1461028757806323b872dd146102a3576101cd565b806301ffc9a7146101d157806306fdde0314610201578063081812fc1461021f575b5f80fd5b6101eb60048036038101906101e69190613fae565b6105d5565b6040516101f89190613ff3565b60405180910390f35b610209610635565b6040516102169190614096565b60405180910390f35b610239600480360381019061023491906140e9565b6106c5565b6040516102469190614153565b60405180910390f35b61026960048036038101906102649190614196565b610707565b005b610285600480360381019061028091906140e9565b61081d565b005b6102a1600480360381019061029c9190614235565b6108cd565b005b6102bd60048036038101906102b89190614292565b610be7565b005b6102d960048036038101906102d491906142e2565b610c47565b005b6102f560048036038101906102f09190614373565b611274565b005b610311600480360381019061030c91906140e9565b611405565b60405161031e91906143ad565b60405180910390f35b610341600480360381019061033c91906143c6565b61141a565b60405161034e9190613ff3565b60405180910390f35b610371600480360381019061036c9190614292565b611444565b005b61038d600480360381019061038891906140e9565b611463565b60405161039a9190614153565b60405180910390f35b6103bd60048036038101906103b89190614373565b6114e7565b6040516103ca91906143ad565b60405180910390f35b6103db61159b565b005b6103f760048036038101906103f291906140e9565b6115ae565b60405161040b989796959493929190614492565b60405180910390f35b61042e60048036038101906104299190614515565b6116ec565b005b610438611df6565b6040516104459190614153565b60405180910390f35b610456611e1d565b6040516104639190614096565b60405180910390f35b61048660048036038101906104819190614565565b611ead565b005b6104a2600480360381019061049d91906143c6565b6122c1565b6040516104af9190613ff3565b60405180910390f35b6104d260048036038101906104cd9190614600565b6122eb565b005b6104ee60048036038101906104e99190614235565b612301565b005b61050a60048036038101906105059190614766565b6125fd565b005b610526600480360381019061052191906140e9565b61265f565b6040516105339190614096565b60405180910390f35b610556600480360381019061055191906147e6565b612769565b6040516105639190613ff3565b60405180910390f35b61058660048036038101906105819190614373565b6127f7565b005b6105a2600480360381019061059d919061484e565b612879565b005b6105be60048036038101906105b991906148d2565b612d46565b6040516105cc929190614910565b60405180910390f35b5f634906490660e01b7bffffffffffffffffffffffffffffffffffffffffffffffffffffffff1916827bffffffffffffffffffffffffffffffffffffffffffffffffffffffff1916148061062e575061062d82612e16565b5b9050919050565b6060600180546106449061496b565b80601f01602080910402602001604051908101604052809291908181526020018280546106709061496b565b80156106bb5780601f10610692576101008083540402835291602001916106bb565b820191905f5260205f20905b81548152906001019060200180831161069e57829003601f168201915b5050505050905090565b5f6106cf82612ef7565b60055f8381526020019081526020015f205f9054906101000a900473ffffffffffffffffffffffffffffffffffffffff169050919050565b5f61071182611463565b90508073ffffffffffffffffffffffffffffffffffffffff168373ffffffffffffffffffffffffffffffffffffffff1603610781576040517f08c379a000000000000000000000000000000000000000000000000000000000815260040161077890614a0b565b60405180910390fd5b8073ffffffffffffffffffffffffffffffffffffffff166107a0612f42565b73ffffffffffffffffffffffffffffffffffffffff1614806107cf57506107ce816107c9612f42565b612769565b5b61080e576040517f08c379a000000000000000000000000000000000000000000000000000000000815260040161080590614a99565b60405180910390fd5b6108188383612f49565b505050565b80600c805490508110610865576040517f08c379a000000000000000000000000000000000000000000000000000000000815260040161085c90614b01565b60405180910390fd5b6001600f5f8481526020019081526020015f205f3373ffffffffffffffffffffffffffffffffffffffff1673ffffffffffffffffffffffffffffffffffffffff1681526020019081526020015f205f6101000a81548160ff0219169083151502179055505050565b82600c805490508110610915576040517f08c379a000000000000000000000000000000000000000000000000000000000815260040161090c90614b01565b60405180910390fd5b82828080601f0160208091040260200160405190810160405280939291908181526020018383808284375f81840152601f19601f820116905080830192505050505050505f81511161099c576040517f08c379a000000000000000000000000000000000000000000000000000000000815260040161099390614b69565b60405180910390fd5b33600a426109aa9190614bb4565b60135f3373ffffffffffffffffffffffffffffffffffffffff1673ffffffffffffffffffffffffffffffffffffffff1681526020019081526020015f205410610a28576040517f08c379a0000000000000000000000000000000000000000000000000000000008152600401610a1f90614c31565b60405180910390fd5b60125f8781526020019081526020015f205f3373ffffffffffffffffffffffffffffffffffffffff1673ffffffffffffffffffffffffffffffffffffffff1681526020019081526020015f20604051806040016040528087878080601f0160208091040260200160405190810160405280939291908181526020018383808284375f81840152601f19601f8201169050808301925050505050505081526020013373ffffffffffffffffffffffffffffffffffffffff16815250908060018154018082558091505060019003905f5260205f2090600202015f909190919091505f820151815f019081610b1b9190614dec565b506020820151816001015f6101000a81548173ffffffffffffffffffffffffffffffffffffffff021916908373ffffffffffffffffffffffffffffffffffffffff16021790555050504260135f3373ffffffffffffffffffffffffffffffffffffffff1673ffffffffffffffffffffffffffffffffffffffff1681526020019081526020015f20819055507fbfd6922fad2fc6dfcb1bf737a87580bdc38c8199bda4764006096c7ed70528168633604051610bd7929190614ebb565b60405180910390a1505050505050565b610bf8610bf2612f42565b82612fff565b610c37576040517f08c379a0000000000000000000000000000000000000000000000000000000008152600401610c2e90614f52565b60405180910390fd5b610c42838383613093565b505050565b84600c805490508110610c8f576040517f08c379a0000000000000000000000000000000000000000000000000000000008152600401610c8690614b01565b60405180910390fd5b84848080601f0160208091040260200160405190810160405280939291908181526020018383808284375f81840152601f19601f820116905080830192505050505050505f815111610d16576040517f08c379a0000000000000000000000000000000000000000000000000000000008152600401610d0d90614b69565b60405180910390fd5b83838080601f0160208091040260200160405190810160405280939291908181526020018383808284375f81840152601f19601f820116905080830192505050505050505f815111610d9d576040517f08c379a0000000000000000000000000000000000000000000000000000000008152600401610d9490614b69565b60405180910390fd5b600e5f8981526020019081526020015f205f3373ffffffffffffffffffffffffffffffffffffffff1673ffffffffffffffffffffffffffffffffffffffff1681526020019081526020015f205f9054906101000a900460ff1615610e36576040517f08c379a0000000000000000000000000000000000000000000000000000000008152600401610e2d90614fba565b60405180910390fd5b5f600c8981548110610e4b57610e4a614fd8565b5b905f5260205f209060050201604051806101000160405290815f8201548152602001600182018054610e7c9061496b565b80601f0160208091040260200160405190810160405280929190818152602001828054610ea89061496b565b8015610ef35780601f10610eca57610100808354040283529160200191610ef3565b820191905f5260205f20905b815481529060010190602001808311610ed657829003601f168201915b5050505050815260200160028201548152602001600382015f9054906101000a900460ff166005811115610f2a57610f29614404565b5b6005811115610f3c57610f3b614404565b5b81526020016003820160019054906101000a900460ff1660ff1660ff1681526020016003820160029054906101000a900460ff1660ff1660ff1681526020016003820160039054906101000a900473ffffffffffffffffffffffffffffffffffffffff1673ffffffffffffffffffffffffffffffffffffffff1673ffffffffffffffffffffffffffffffffffffffff168152602001600482015f9054906101000a900473ffffffffffffffffffffffffffffffffffffffff1673ffffffffffffffffffffffffffffffffffffffff1673ffffffffffffffffffffffffffffffffffffffff168152505090504281604001511015611065576040517f2ee88f5000000000000000000000000000000000000000000000000000000000815260040160405180910390fd5b5f8160a0015160ff16036110a5576040517f106e2afe00000000000000000000000000000000000000000000000000000000815260040160405180910390fd5b604051806040016040528087878080601f0160208091040260200160405190810160405280939291908181526020018383808284375f81840152601f19601f82011690508083019250505050505050815260200189898080601f0160208091040260200160405190810160405280939291908181526020018383808284375f81840152601f19601f82011690508083019250505050505050815250600d5f3373ffffffffffffffffffffffffffffffffffffffff1673ffffffffffffffffffffffffffffffffffffffff1681526020019081526020015f205f820151815f0190816111909190614dec565b5060208201518160010190816111a69190614dec565b509050506001600e5f8b81526020019081526020015f205f3373ffffffffffffffffffffffffffffffffffffffff1673ffffffffffffffffffffffffffffffffffffffff1681526020019081526020015f205f6101000a81548160ff0219169083151502179055508060a001805161121d90615005565b60ff16908160ff16815250508060a00151600c8a8154811061124257611241614fd8565b5b905f5260205f20906005020160030160026101000a81548160ff021916908360ff160217905550505050505050505050565b61127c61337f565b805f73ffffffffffffffffffffffffffffffffffffffff168173ffffffffffffffffffffffffffffffffffffffff16036112eb576040517f08c379a00000000000000000000000000000000000000000000000000000000081526004016112e290615076565b60405180910390fd5b600a5f8373ffffffffffffffffffffffffffffffffffffffff1673ffffffffffffffffffffffffffffffffffffffff1681526020019081526020015f205f9054906101000a900460ff1615611375576040517f08c379a000000000000000000000000000000000000000000000000000000000815260040161136c90614fba565b60405180910390fd5b6001600a5f8473ffffffffffffffffffffffffffffffffffffffff1673ffffffffffffffffffffffffffffffffffffffff1681526020019081526020015f205f6101000a81548160ff0219169083151502179055507f3b4a40cccf2058c593542587329dd385be4f0b588db5471fbd9598e56dd7093a826040516113f99190614153565b60405180910390a15050565b6011602052805f5260405f205f915090505481565b600f602052815f5260405f20602052805f5260405f205f915091509054906101000a900460ff1681565b61145e83838360405180602001604052805f8152506125fd565b505050565b5f8061146e836133fd565b90505f73ffffffffffffffffffffffffffffffffffffffff168173ffffffffffffffffffffffffffffffffffffffff16036114de576040517f08c379a00000000000000000000000000000000000000000000000000000000081526004016114d5906150de565b60405180910390fd5b80915050919050565b5f8073ffffffffffffffffffffffffffffffffffffffff168273ffffffffffffffffffffffffffffffffffffffff1603611556576040517f08c379a000000000000000000000000000000000000000000000000000000000815260040161154d9061516c565b60405180910390fd5b60045f8373ffffffffffffffffffffffffffffffffffffffff1673ffffffffffffffffffffffffffffffffffffffff1681526020019081526020015f20549050919050565b6115a361337f565b6115ac5f613436565b565b600c81815481106115bd575f80fd5b905f5260205f2090600502015f91509050805f0154908060010180546115e29061496b565b80601f016020809104026020016040519081016040528092919081815260200182805461160e9061496b565b80156116595780601f1061163057610100808354040283529160200191611659565b820191905f5260205f20905b81548152906001019060200180831161163c57829003601f168201915b505050505090806002015490806003015f9054906101000a900460ff16908060030160019054906101000a900460ff16908060030160029054906101000a900460ff16908060030160039054906101000a900473ffffffffffffffffffffffffffffffffffffffff1690806004015f9054906101000a900473ffffffffffffffffffffffffffffffffffffffff16905088565b6116f461337f565b82600c80549050811061173c576040517f08c379a000000000000000000000000000000000000000000000000000000000815260040161173390614b01565b60405180910390fd5b825f73ffffffffffffffffffffffffffffffffffffffff168173ffffffffffffffffffffffffffffffffffffffff16036117ab576040517f08c379a00000000000000000000000000000000000000000000000000000000081526004016117a290615076565b60405180910390fd5b825f73ffffffffffffffffffffffffffffffffffffffff168173ffffffffffffffffffffffffffffffffffffffff160361181a576040517f08c379a000000000000000000000000000000000000000000000000000000000815260040161181190615076565b60405180910390fd5b8373ffffffffffffffffffffffffffffffffffffffff168573ffffffffffffffffffffffffffffffffffffffff1603611888576040517f08c379a000000000000000000000000000000000000000000000000000000000815260040161187f906151d4565b60405180910390fd5b600e5f8781526020019081526020015f205f8673ffffffffffffffffffffffffffffffffffffffff1673ffffffffffffffffffffffffffffffffffffffff1681526020019081526020015f205f9054906101000a900460ff1680156119425750600e5f8781526020019081526020015f205f8573ffffffffffffffffffffffffffffffffffffffff1673ffffffffffffffffffffffffffffffffffffffff1681526020019081526020015f205f9054906101000a900460ff165b611981576040517f08c379a00000000000000000000000000000000000000000000000000000000081526004016119789061523c565b60405180910390fd5b84600c878154811061199657611995614fd8565b5b905f5260205f20906005020160030160036101000a81548173ffffffffffffffffffffffffffffffffffffffff021916908373ffffffffffffffffffffffffffffffffffffffff16021790555083600c87815481106119f8576119f7614fd8565b5b905f5260205f2090600502016004015f6101000a81548173ffffffffffffffffffffffffffffffffffffffff021916908373ffffffffffffffffffffffffffffffffffffffff1602179055505f600c8781548110611a5957611a58614fd8565b5b905f5260205f2090600502016001018054611a739061496b565b80601f0160208091040260200160405190810160405280929190818152602001828054611a9f9061496b565b8015611aea5780601f10611ac157610100808354040283529160200191611aea565b820191905f5260205f20905b815481529060010190602001808311611acd57829003601f168201915b505050505090505f600d5f8873ffffffffffffffffffffffffffffffffffffffff1673ffffffffffffffffffffffffffffffffffffffff1681526020019081526020015f206040518060400160405290815f82018054611b499061496b565b80601f0160208091040260200160405190810160405280929190818152602001828054611b759061496b565b8015611bc05780601f10611b9757610100808354040283529160200191611bc0565b820191905f5260205f20905b815481529060010190602001808311611ba357829003601f168201915b50505050508152602001600182018054611bd99061496b565b80601f0160208091040260200160405190810160405280929190818152602001828054611c059061496b565b8015611c505780601f10611c2757610100808354040283529160200191611c50565b820191905f5260205f20905b815481529060010190602001808311611c3357829003601f168201915b5050505050815250509050611c6f8789848460200151855f01516134f7565b600d5f8773ffffffffffffffffffffffffffffffffffffffff1673ffffffffffffffffffffffffffffffffffffffff1681526020019081526020015f206040518060400160405290815f82018054611cc69061496b565b80601f0160208091040260200160405190810160405280929190818152602001828054611cf29061496b565b8015611d3d5780601f10611d1457610100808354040283529160200191611d3d565b820191905f5260205f20905b815481529060010190602001808311611d2057829003601f168201915b50505050508152602001600182018054611d569061496b565b80601f0160208091040260200160405190810160405280929190818152602001828054611d829061496b565b8015611dcd5780601f10611da457610100808354040283529160200191611dcd565b820191905f5260205f20905b815481529060010190602001808311611db057829003601f168201915b5050505050815250509050611dec8689848460200151855f01516134f7565b5050505050505050565b5f805f9054906101000a900473ffffffffffffffffffffffffffffffffffffffff16905090565b606060028054611e2c9061496b565b80601f0160208091040260200160405190810160405280929190818152602001828054611e589061496b565b8015611ea35780601f10611e7a57610100808354040283529160200191611ea3565b820191905f5260205f20905b815481529060010190602001808311611e8657829003601f168201915b5050505050905090565b600a5f3373ffffffffffffffffffffffffffffffffffffffff1673ffffffffffffffffffffffffffffffffffffffff1681526020019081526020015f205f9054906101000a900460ff16611f36576040517f08c379a0000000000000000000000000000000000000000000000000000000008152600401611f2d906152a4565b60405180910390fd5b83600c805490508110611f7e576040517f08c379a0000000000000000000000000000000000000000000000000000000008152600401611f7590614b01565b60405180910390fd5b835f73ffffffffffffffffffffffffffffffffffffffff168173ffffffffffffffffffffffffffffffffffffffff1603611fed576040517f08c379a0000000000000000000000000000000000000000000000000000000008152600401611fe490615076565b60405180910390fd5b83838080601f0160208091040260200160405190810160405280939291908181526020018383808284375f81840152601f19601f820116905080830192505050505050505f815111612074576040517f08c379a000000000000000000000000000000000000000000000000000000000815260040161206b90614b69565b60405180910390fd5b33600a426120829190614bb4565b60135f3373ffffffffffffffffffffffffffffffffffffffff1673ffffffffffffffffffffffffffffffffffffffff1681526020019081526020015f205410612100576040517f08c379a00000000000000000000000000000000000000000000000000000000081526004016120f790614c31565b60405180910390fd5b60125f8981526020019081526020015f205f8873ffffffffffffffffffffffffffffffffffffffff1673ffffffffffffffffffffffffffffffffffffffff1681526020019081526020015f20604051806040016040528088888080601f0160208091040260200160405190810160405280939291908181526020018383808284375f81840152601f19601f8201169050808301925050505050505081526020013373ffffffffffffffffffffffffffffffffffffffff16815250908060018154018082558091505060019003905f5260205f2090600202015f909190919091505f820151815f0190816121f39190614dec565b506020820151816001015f6101000a81548173ffffffffffffffffffffffffffffffffffffffff021916908373ffffffffffffffffffffffffffffffffffffffff16021790555050504260135f3373ffffffffffffffffffffffffffffffffffffffff1673ffffffffffffffffffffffffffffffffffffffff1681526020019081526020015f20819055507f6c273d133e6c6367d40972f8ef51fc71789ea8bc667e662342cbecab4f46218c88886040516122af929190614ebb565b60405180910390a15050505050505050565b600e602052815f5260405f20602052805f5260405f205f915091509054906101000a900460ff1681565b6122fd6122f6612f42565b83836135c1565b5050565b82600c805490508110612349576040517f08c379a000000000000000000000000000000000000000000000000000000000815260040161234090614b01565b60405180910390fd5b82828080601f0160208091040260200160405190810160405280939291908181526020018383808284375f81840152601f19601f820116905080830192505050505050505f8151116123d0576040517f08c379a00000000000000000000000000000000000000000000000000000000081526004016123c790614b69565b60405180910390fd5b33600a426123de9190614bb4565b60135f3373ffffffffffffffffffffffffffffffffffffffff1673ffffffffffffffffffffffffffffffffffffffff1681526020019081526020015f20541061245c576040517f08c379a000000000000000000000000000000000000000000000000000000000815260040161245390614c31565b60405180910390fd5b604051806040016040528086868080601f0160208091040260200160405190810160405280939291908181526020018383808284375f81840152601f19601f8201169050808301925050505050505081526020013373ffffffffffffffffffffffffffffffffffffffff1681525060105f8881526020019081526020015f205f60115f8a81526020019081526020015f205481526020019081526020015f205f820151815f01908161250e9190614dec565b506020820151816001015f6101000a81548173ffffffffffffffffffffffffffffffffffffffff021916908373ffffffffffffffffffffffffffffffffffffffff16021790555090505060115f8781526020019081526020015f205f8154612575906152c2565b919050819055504260135f3373ffffffffffffffffffffffffffffffffffffffff1673ffffffffffffffffffffffffffffffffffffffff1681526020019081526020015f20819055507f3021694d1ef819d2b9bc13c595d4f75437b6bbbb2dd33e9f2a9df24534f6b559866040516125ed91906143ad565b60405180910390a1505050505050565b61260e612608612f42565b83612fff565b61264d576040517f08c379a000000000000000000000000000000000000000000000000000000000815260040161264490614f52565b60405180910390fd5b61265984848484613728565b50505050565b606061266a82612ef7565b5f60075f8481526020019081526020015f2080546126879061496b565b80601f01602080910402602001604051908101604052809291908181526020018280546126b39061496b565b80156126fe5780601f106126d5576101008083540402835291602001916126fe565b820191905f5260205f20905b8154815290600101906020018083116126e157829003601f168201915b505050505090505f61270e613784565b90505f815103612722578192505050612764565b5f8251111561275657808260405160200161273e929190615343565b60405160208183030381529060405292505050612764565b61275f8461379a565b925050505b919050565b5f60065f8473ffffffffffffffffffffffffffffffffffffffff1673ffffffffffffffffffffffffffffffffffffffff1681526020019081526020015f205f8373ffffffffffffffffffffffffffffffffffffffff1673ffffffffffffffffffffffffffffffffffffffff1681526020019081526020015f205f9054906101000a900460ff16905092915050565b6127ff61337f565b5f73ffffffffffffffffffffffffffffffffffffffff168173ffffffffffffffffffffffffffffffffffffffff160361286d576040517f08c379a0000000000000000000000000000000000000000000000000000000008152600401612864906153d6565b60405180910390fd5b61287681613436565b50565b600a5f3373ffffffffffffffffffffffffffffffffffffffff1673ffffffffffffffffffffffffffffffffffffffff1681526020019081526020015f205f9054906101000a900460ff16612902576040517f08c379a00000000000000000000000000000000000000000000000000000000081526004016128f9906152a4565b60405180910390fd5b84848080601f0160208091040260200160405190810160405280939291908181526020018383808284375f81840152601f19601f820116905080830192505050505050505f815111612989576040517f08c379a000000000000000000000000000000000000000000000000000000000815260040161298090614b69565b60405180910390fd5b4284116129cb576040517f08c379a00000000000000000000000000000000000000000000000000000000081526004016129c29061543e565b60405180910390fd5b5f8260ff161180156129eb57505f6002836129e69190615489565b60ff16145b612a2a576040517f08c379a0000000000000000000000000000000000000000000000000000000008152600401612a2190615503565b60405180910390fd5b600580811115612a3d57612a3c614404565b5b8360ff161115612a82576040517f08c379a0000000000000000000000000000000000000000000000000000000008152600401612a799061556b565b60405180910390fd5b5f600c8054905090505f600c6040518061010001604052808481526020018a8a8080601f0160208091040260200160405190810160405280939291908181526020018383808284375f81840152601f19601f8201169050808301925050505050505081526020018881526020018760ff166005811115612b0557612b04614404565b5b6005811115612b1757612b16614404565b5b81526020018660ff1681526020018660ff1681526020018373ffffffffffffffffffffffffffffffffffffffff1681526020018373ffffffffffffffffffffffffffffffffffffffff16815250908060018154018082558091505060019003905f5260205f2090600502015f909190919091505f820151815f01556020820151816001019081612ba79190614dec565b50604082015181600201556060820151816003015f6101000a81548160ff02191690836005811115612bdc57612bdb614404565b5b021790555060808201518160030160016101000a81548160ff021916908360ff16021790555060a08201518160030160026101000a81548160ff021916908360ff16021790555060c08201518160030160036101000a81548173ffffffffffffffffffffffffffffffffffffffff021916908373ffffffffffffffffffffffffffffffffffffffff16021790555060e0820151816004015f6101000a81548173ffffffffffffffffffffffffffffffffffffffff021916908373ffffffffffffffffffffffffffffffffffffffff160217905550505033600b5f8481526020019081526020015f205f6101000a81548173ffffffffffffffffffffffffffffffffffffffff021916908373ffffffffffffffffffffffffffffffffffffffff1602179055507f5cb500f8744f1621d860dcaace657a4ecbcbb48087f90591af44c745b46b1bc8888888604051612d34939291906155b5565b60405180910390a15050505050505050565b6010602052815f5260405f20602052805f5260405f205f9150915050805f018054612d709061496b565b80601f0160208091040260200160405190810160405280929190818152602001828054612d9c9061496b565b8015612de75780601f10612dbe57610100808354040283529160200191612de7565b820191905f5260205f20905b815481529060010190602001808311612dca57829003601f168201915b505050505090806001015f9054906101000a900473ffffffffffffffffffffffffffffffffffffffff16905082565b5f7f80ac58cd000000000000000000000000000000000000000000000000000000007bffffffffffffffffffffffffffffffffffffffffffffffffffffffff1916827bffffffffffffffffffffffffffffffffffffffffffffffffffffffff19161480612ee057507f5b5e139f000000000000000000000000000000000000000000000000000000007bffffffffffffffffffffffffffffffffffffffffffffffffffffffff1916827bffffffffffffffffffffffffffffffffffffffffffffffffffffffff1916145b80612ef05750612eef826137ff565b5b9050919050565b612f0081613868565b612f3f576040517f08c379a0000000000000000000000000000000000000000000000000000000008152600401612f36906150de565b60405180910390fd5b50565b5f33905090565b8160055f8381526020019081526020015f205f6101000a81548173ffffffffffffffffffffffffffffffffffffffff021916908373ffffffffffffffffffffffffffffffffffffffff160217905550808273ffffffffffffffffffffffffffffffffffffffff16612fb983611463565b73ffffffffffffffffffffffffffffffffffffffff167f8c5be1e5ebec7d5bd14f71427d1e84f3dd0314c0f7b2291e5b200ac8c7c3b92560405160405180910390a45050565b5f8061300a83611463565b90508073ffffffffffffffffffffffffffffffffffffffff168473ffffffffffffffffffffffffffffffffffffffff16148061304c575061304b8185612769565b5b8061308a57508373ffffffffffffffffffffffffffffffffffffffff16613072846106c5565b73ffffffffffffffffffffffffffffffffffffffff16145b91505092915050565b8273ffffffffffffffffffffffffffffffffffffffff166130b382611463565b73ffffffffffffffffffffffffffffffffffffffff1614613109576040517f08c379a000000000000000000000000000000000000000000000000000000000815260040161310090615655565b60405180910390fd5b5f73ffffffffffffffffffffffffffffffffffffffff168273ffffffffffffffffffffffffffffffffffffffff1603613177576040517f08c379a000000000000000000000000000000000000000000000000000000000815260040161316e906156e3565b60405180910390fd5b61318483838360016138a8565b8273ffffffffffffffffffffffffffffffffffffffff166131a482611463565b73ffffffffffffffffffffffffffffffffffffffff16146131fa576040517f08c379a00000000000000000000000000000000000000000000000000000000081526004016131f190615655565b60405180910390fd5b60055f8281526020019081526020015f205f6101000a81549073ffffffffffffffffffffffffffffffffffffffff0219169055600160045f8573ffffffffffffffffffffffffffffffffffffffff1673ffffffffffffffffffffffffffffffffffffffff1681526020019081526020015f205f8282540392505081905550600160045f8473ffffffffffffffffffffffffffffffffffffffff1673ffffffffffffffffffffffffffffffffffffffff1681526020019081526020015f205f82825401925050819055508160035f8381526020019081526020015f205f6101000a81548173ffffffffffffffffffffffffffffffffffffffff021916908373ffffffffffffffffffffffffffffffffffffffff160217905550808273ffffffffffffffffffffffffffffffffffffffff168473ffffffffffffffffffffffffffffffffffffffff167fddf252ad1be2c89b69c2b068fc378daa952ba7f163c4a11628f55a4df523b3ef60405160405180910390a461337a83838360016138ae565b505050565b613387612f42565b73ffffffffffffffffffffffffffffffffffffffff166133a5611df6565b73ffffffffffffffffffffffffffffffffffffffff16146133fb576040517f08c379a00000000000000000000000000000000000000000000000000000000081526004016133f29061574b565b60405180910390fd5b565b5f60035f8381526020019081526020015f205f9054906101000a900473ffffffffffffffffffffffffffffffffffffffff169050919050565b5f805f9054906101000a900473ffffffffffffffffffffffffffffffffffffffff169050815f806101000a81548173ffffffffffffffffffffffffffffffffffffffff021916908373ffffffffffffffffffffffffffffffffffffffff1602179055508173ffffffffffffffffffffffffffffffffffffffff168173ffffffffffffffffffffffffffffffffffffffff167f8be0079c531659141344cd1fd0a4f28419497f9722a3daafe3b4186f6b6457e060405160405180910390a35050565b61350160086138b4565b5f61350c60086138c8565b905060405180608001604052808681526020018581526020018481526020018381525060095f8381526020019081526020015f205f820151815f0155602082015181600101908161355d9190614dec565b5060408201518160020190816135739190614dec565b5060608201518160030190816135899190614dec565b5090505061359786826138d4565b6135b981604051806080016040528060508152602001615a9960509139613ae7565b505050505050565b8173ffffffffffffffffffffffffffffffffffffffff168373ffffffffffffffffffffffffffffffffffffffff160361362f576040517f08c379a0000000000000000000000000000000000000000000000000000000008152600401613626906157b3565b60405180910390fd5b8060065f8573ffffffffffffffffffffffffffffffffffffffff1673ffffffffffffffffffffffffffffffffffffffff1681526020019081526020015f205f8473ffffffffffffffffffffffffffffffffffffffff1673ffffffffffffffffffffffffffffffffffffffff1681526020019081526020015f205f6101000a81548160ff0219169083151502179055508173ffffffffffffffffffffffffffffffffffffffff168373ffffffffffffffffffffffffffffffffffffffff167f17307eab39ab6107e8899845ad3d59bd9653f200f220920489ca2b5937696c318360405161371b9190613ff3565b60405180910390a3505050565b613733848484613093565b61373f84848484613b89565b61377e576040517f08c379a000000000000000000000000000000000000000000000000000000000815260040161377590615841565b60405180910390fd5b50505050565b606060405180602001604052805f815250905090565b60606137a582612ef7565b5f6137ae613784565b90505f8151116137cc5760405180602001604052805f8152506137f7565b806137d684613d0b565b6040516020016137e7929190615343565b6040516020818303038152906040525b915050919050565b5f7f01ffc9a7000000000000000000000000000000000000000000000000000000007bffffffffffffffffffffffffffffffffffffffffffffffffffffffff1916827bffffffffffffffffffffffffffffffffffffffffffffffffffffffff1916149050919050565b5f8073ffffffffffffffffffffffffffffffffffffffff16613889836133fd565b73ffffffffffffffffffffffffffffffffffffffff1614159050919050565b50505050565b50505050565b6001815f015f828254019250508190555050565b5f815f01549050919050565b5f73ffffffffffffffffffffffffffffffffffffffff168273ffffffffffffffffffffffffffffffffffffffff1603613942576040517f08c379a0000000000000000000000000000000000000000000000000000000008152600401613939906158a9565b60405180910390fd5b61394b81613868565b1561398b576040517f08c379a000000000000000000000000000000000000000000000000000000000815260040161398290615911565b60405180910390fd5b6139985f838360016138a8565b6139a181613868565b156139e1576040517f08c379a00000000000000000000000000000000000000000000000000000000081526004016139d890615911565b60405180910390fd5b600160045f8473ffffffffffffffffffffffffffffffffffffffff1673ffffffffffffffffffffffffffffffffffffffff1681526020019081526020015f205f82825401925050819055508160035f8381526020019081526020015f205f6101000a81548173ffffffffffffffffffffffffffffffffffffffff021916908373ffffffffffffffffffffffffffffffffffffffff160217905550808273ffffffffffffffffffffffffffffffffffffffff165f73ffffffffffffffffffffffffffffffffffffffff167fddf252ad1be2c89b69c2b068fc378daa952ba7f163c4a11628f55a4df523b3ef60405160405180910390a4613ae35f838360016138ae565b5050565b613af082613868565b613b2f576040517f08c379a0000000000000000000000000000000000000000000000000000000008152600401613b269061599f565b60405180910390fd5b8060075f8481526020019081526020015f209081613b4d9190614dec565b507ff8e1a15aba9398e019f0b49df1a4fde98ee17ae345cb5f6b5e2c27f5033e8ce782604051613b7d91906143ad565b60405180910390a15050565b5f613ba98473ffffffffffffffffffffffffffffffffffffffff16613dd5565b15613cfe578373ffffffffffffffffffffffffffffffffffffffff1663150b7a02613bd2612f42565b8786866040518563ffffffff1660e01b8152600401613bf49493929190615a0f565b6020604051808303815f875af1925050508015613c2f57506040513d601f19601f82011682018060405250810190613c2c9190615a6d565b60015b613cae573d805f8114613c5d576040519150601f19603f3d011682016040523d82523d5f602084013e613c62565b606091505b505f815103613ca6576040517f08c379a0000000000000000000000000000000000000000000000000000000008152600401613c9d90615841565b60405180910390fd5b805181602001fd5b63150b7a0260e01b7bffffffffffffffffffffffffffffffffffffffffffffffffffffffff1916817bffffffffffffffffffffffffffffffffffffffffffffffffffffffff191614915050613d03565b600190505b949350505050565b60605f6001613d1984613df7565b0190505f8167ffffffffffffffff811115613d3757613d36614642565b5b6040519080825280601f01601f191660200182016040528015613d695781602001600182028036833780820191505090505b5090505f82602001820190505b600115613dca578080600190039150507f3031323334353637383961626364656600000000000000000000000000000000600a86061a8153600a8581613dbf57613dbe61545c565b5b0494505f8503613d76575b819350505050919050565b5f808273ffffffffffffffffffffffffffffffffffffffff163b119050919050565b5f805f90507a184f03e93ff9f4daa797ed6e38ed64bf6a1f0100000000000000008310613e53577a184f03e93ff9f4daa797ed6e38ed64bf6a1f0100000000000000008381613e4957613e4861545c565b5b0492506040810190505b6d04ee2d6d415b85acef81000000008310613e90576d04ee2d6d415b85acef81000000008381613e8657613e8561545c565b5b0492506020810190505b662386f26fc100008310613ebf57662386f26fc100008381613eb557613eb461545c565b5b0492506010810190505b6305f5e1008310613ee8576305f5e1008381613ede57613edd61545c565b5b0492506008810190505b6127108310613f0d576127108381613f0357613f0261545c565b5b0492506004810190505b60648310613f305760648381613f2657613f2561545c565b5b0492506002810190505b600a8310613f3f576001810190505b80915050919050565b5f604051905090565b5f80fd5b5f80fd5b5f7fffffffff0000000000000000000000000000000000000000000000000000000082169050919050565b613f8d81613f59565b8114613f97575f80fd5b50565b5f81359050613fa881613f84565b92915050565b5f60208284031215613fc357613fc2613f51565b5b5f613fd084828501613f9a565b91505092915050565b5f8115159050919050565b613fed81613fd9565b82525050565b5f6020820190506140065f830184613fe4565b92915050565b5f81519050919050565b5f82825260208201905092915050565b5f5b83811015614043578082015181840152602081019050614028565b5f8484015250505050565b5f601f19601f8301169050919050565b5f6140688261400c565b6140728185614016565b9350614082818560208601614026565b61408b8161404e565b840191505092915050565b5f6020820190508181035f8301526140ae818461405e565b905092915050565b5f819050919050565b6140c8816140b6565b81146140d2575f80fd5b50565b5f813590506140e3816140bf565b92915050565b5f602082840312156140fe576140fd613f51565b5b5f61410b848285016140d5565b91505092915050565b5f73ffffffffffffffffffffffffffffffffffffffff82169050919050565b5f61413d82614114565b9050919050565b61414d81614133565b82525050565b5f6020820190506141665f830184614144565b92915050565b61417581614133565b811461417f575f80fd5b50565b5f813590506141908161416c565b92915050565b5f80604083850312156141ac576141ab613f51565b5b5f6141b985828601614182565b92505060206141ca858286016140d5565b9150509250929050565b5f80fd5b5f80fd5b5f80fd5b5f8083601f8401126141f5576141f46141d4565b5b8235905067ffffffffffffffff811115614212576142116141d8565b5b60208301915083600182028301111561422e5761422d6141dc565b5b9250929050565b5f805f6040848603121561424c5761424b613f51565b5b5f614259868287016140d5565b935050602084013567ffffffffffffffff81111561427a57614279613f55565b5b614286868287016141e0565b92509250509250925092565b5f805f606084860312156142a9576142a8613f51565b5b5f6142b686828701614182565b93505060206142c786828701614182565b92505060406142d8868287016140d5565b9150509250925092565b5f805f805f606086880312156142fb576142fa613f51565b5b5f614308888289016140d5565b955050602086013567ffffffffffffffff81111561432957614328613f55565b5b614335888289016141e0565b9450945050604086013567ffffffffffffffff81111561435857614357613f55565b5b614364888289016141e0565b92509250509295509295909350565b5f6020828403121561438857614387613f51565b5b5f61439584828501614182565b91505092915050565b6143a7816140b6565b82525050565b5f6020820190506143c05f83018461439e565b92915050565b5f80604083850312156143dc576143db613f51565b5b5f6143e9858286016140d5565b92505060206143fa85828601614182565b9150509250929050565b7f4e487b71000000000000000000000000000000000000000000000000000000005f52602160045260245ffd5b6006811061444257614441614404565b5b50565b5f81905061445282614431565b919050565b5f61446182614445565b9050919050565b61447181614457565b82525050565b5f60ff82169050919050565b61448c81614477565b82525050565b5f610100820190506144a65f83018b61439e565b81810360208301526144b8818a61405e565b90506144c7604083018961439e565b6144d46060830188614468565b6144e16080830187614483565b6144ee60a0830186614483565b6144fb60c0830185614144565b61450860e0830184614144565b9998505050505050505050565b5f805f6060848603121561452c5761452b613f51565b5b5f614539868287016140d5565b935050602061454a86828701614182565b925050604061455b86828701614182565b9150509250925092565b5f805f806060858703121561457d5761457c613f51565b5b5f61458a878288016140d5565b945050602061459b87828801614182565b935050604085013567ffffffffffffffff8111156145bc576145bb613f55565b5b6145c8878288016141e0565b925092505092959194509250565b6145df81613fd9565b81146145e9575f80fd5b50565b5f813590506145fa816145d6565b92915050565b5f806040838503121561461657614615613f51565b5b5f61462385828601614182565b9250506020614634858286016145ec565b9150509250929050565b5f80fd5b7f4e487b71000000000000000000000000000000000000000000000000000000005f52604160045260245ffd5b6146788261404e565b810181811067ffffffffffffffff8211171561469757614696614642565b5b80604052505050565b5f6146a9613f48565b90506146b5828261466f565b919050565b5f67ffffffffffffffff8211156146d4576146d3614642565b5b6146dd8261404e565b9050602081019050919050565b828183375f83830152505050565b5f61470a614705846146ba565b6146a0565b9050828152602081018484840111156147265761472561463e565b5b6147318482856146ea565b509392505050565b5f82601f83011261474d5761474c6141d4565b5b813561475d8482602086016146f8565b91505092915050565b5f805f806080858703121561477e5761477d613f51565b5b5f61478b87828801614182565b945050602061479c87828801614182565b93505060406147ad878288016140d5565b925050606085013567ffffffffffffffff8111156147ce576147cd613f55565b5b6147da87828801614739565b91505092959194509250565b5f80604083850312156147fc576147fb613f51565b5b5f61480985828601614182565b925050602061481a85828601614182565b9150509250929050565b61482d81614477565b8114614837575f80fd5b50565b5f8135905061484881614824565b92915050565b5f805f805f6080868803121561486757614866613f51565b5b5f86013567ffffffffffffffff81111561488457614883613f55565b5b614890888289016141e0565b955095505060206148a3888289016140d5565b93505060406148b48882890161483a565b92505060606148c58882890161483a565b9150509295509295909350565b5f80604083850312156148e8576148e7613f51565b5b5f6148f5858286016140d5565b9250506020614906858286016140d5565b9150509250929050565b5f6040820190508181035f830152614928818561405e565b90506149376020830184614144565b9392505050565b7f4e487b71000000000000000000000000000000000000000000000000000000005f52602260045260245ffd5b5f600282049050600182168061498257607f821691505b6020821081036149955761499461493e565b5b50919050565b7f4552433732313a20617070726f76616c20746f2063757272656e74206f776e655f8201527f7200000000000000000000000000000000000000000000000000000000000000602082015250565b5f6149f5602183614016565b9150614a008261499b565b604082019050919050565b5f6020820190508181035f830152614a22816149e9565b9050919050565b7f4552433732313a20617070726f76652063616c6c6572206973206e6f7420746f5f8201527f6b656e206f776e6572206f7220617070726f76656420666f7220616c6c000000602082015250565b5f614a83603d83614016565b9150614a8e82614a29565b604082019050919050565b5f6020820190508181035f830152614ab081614a77565b9050919050565b7f57726f6e672069642073656e74000000000000000000000000000000000000005f82015250565b5f614aeb600d83614016565b9150614af682614ab7565b602082019050919050565b5f6020820190508181035f830152614b1881614adf565b9050919050565b7f43616e6e6f7420626520656d70747900000000000000000000000000000000005f82015250565b5f614b53600f83614016565b9150614b5e82614b1f565b602082019050919050565b5f6020820190508181035f830152614b8081614b47565b9050919050565b7f4e487b71000000000000000000000000000000000000000000000000000000005f52601160045260245ffd5b5f614bbe826140b6565b9150614bc9836140b6565b9250828203905081811115614be157614be0614b87565b5b92915050565b7f57616974203130730000000000000000000000000000000000000000000000005f82015250565b5f614c1b600883614016565b9150614c2682614be7565b602082019050919050565b5f6020820190508181035f830152614c4881614c0f565b9050919050565b5f819050815f5260205f209050919050565b5f6020601f8301049050919050565b5f82821b905092915050565b5f60088302614cab7fffffffffffffffffffffffffffffffffffffffffffffffffffffffffffffffff82614c70565b614cb58683614c70565b95508019841693508086168417925050509392505050565b5f819050919050565b5f614cf0614ceb614ce6846140b6565b614ccd565b6140b6565b9050919050565b5f819050919050565b614d0983614cd6565b614d1d614d1582614cf7565b848454614c7c565b825550505050565b5f90565b614d31614d25565b614d3c818484614d00565b505050565b5b81811015614d5f57614d545f82614d29565b600181019050614d42565b5050565b601f821115614da457614d7581614c4f565b614d7e84614c61565b81016020851015614d8d578190505b614da1614d9985614c61565b830182614d41565b50505b505050565b5f82821c905092915050565b5f614dc45f1984600802614da9565b1980831691505092915050565b5f614ddc8383614db5565b9150826002028217905092915050565b614df58261400c565b67ffffffffffffffff811115614e0e57614e0d614642565b5b614e18825461496b565b614e23828285614d63565b5f60209050601f831160018114614e54575f8415614e42578287015190505b614e4c8582614dd1565b865550614eb3565b601f198416614e6286614c4f565b5f5b82811015614e8957848901518255600182019150602085019450602081019050614e64565b86831015614ea65784890151614ea2601f891682614db5565b8355505b6001600288020188555050505b505050505050565b5f604082019050614ece5f83018561439e565b614edb6020830184614144565b9392505050565b7f4552433732313a2063616c6c6572206973206e6f7420746f6b656e206f776e655f8201527f72206f7220617070726f76656400000000000000000000000000000000000000602082015250565b5f614f3c602d83614016565b9150614f4782614ee2565b604082019050919050565b5f6020820190508181035f830152614f6981614f30565b9050919050565b7f416c7265616479207265676973746572656400000000000000000000000000005f82015250565b5f614fa4601283614016565b9150614faf82614f70565b602082019050919050565b5f6020820190508181035f830152614fd181614f98565b9050919050565b7f4e487b71000000000000000000000000000000000000000000000000000000005f52603260045260245ffd5b5f61500f82614477565b91505f820361502157615020614b87565b5b600182039050919050565b7f43616e6e6f7420626520746865207a65726f20616464726573730000000000005f82015250565b5f615060601a83614016565b915061506b8261502c565b602082019050919050565b5f6020820190508181035f83015261508d81615054565b9050919050565b7f4552433732313a20696e76616c696420746f6b656e20494400000000000000005f82015250565b5f6150c8601883614016565b91506150d382615094565b602082019050919050565b5f6020820190508181035f8301526150f5816150bc565b9050919050565b7f4552433732313a2061646472657373207a65726f206973206e6f7420612076615f8201527f6c6964206f776e65720000000000000000000000000000000000000000000000602082015250565b5f615156602983614016565b9150615161826150fc565b604082019050919050565b5f6020820190508181035f8301526151838161514a565b9050919050565b7f53616d65206164647265737300000000000000000000000000000000000000005f82015250565b5f6151be600c83614016565b91506151c98261518a565b602082019050919050565b5f6020820190508181035f8301526151eb816151b2565b9050919050565b7f4e6f7420726567697374657265640000000000000000000000000000000000005f82015250565b5f615226600e83614016565b9150615231826151f2565b602082019050919050565b5f6020820190508181035f8301526152538161521a565b9050919050565b7f466f7262696464656e00000000000000000000000000000000000000000000005f82015250565b5f61528e600983614016565b91506152998261525a565b602082019050919050565b5f6020820190508181035f8301526152bb81615282565b9050919050565b5f6152cc826140b6565b91507fffffffffffffffffffffffffffffffffffffffffffffffffffffffffffffffff82036152fe576152fd614b87565b5b600182019050919050565b5f81905092915050565b5f61531d8261400c565b6153278185615309565b9350615337818560208601614026565b80840191505092915050565b5f61534e8285615313565b915061535a8284615313565b91508190509392505050565b7f4f776e61626c653a206e6577206f776e657220697320746865207a65726f20615f8201527f6464726573730000000000000000000000000000000000000000000000000000602082015250565b5f6153c0602683614016565b91506153cb82615366565b604082019050919050565b5f6020820190508181035f8301526153ed816153b4565b9050919050565b7f496e636f727265637420646174650000000000000000000000000000000000005f82015250565b5f615428600e83614016565b9150615433826153f4565b602082019050919050565b5f6020820190508181035f8301526154558161541c565b9050919050565b7f4e487b71000000000000000000000000000000000000000000000000000000005f52601260045260245ffd5b5f61549382614477565b915061549e83614477565b9250826154ae576154ad61545c565b5b828206905092915050565b7f506c6179656420627920320000000000000000000000000000000000000000005f82015250565b5f6154ed600b83614016565b91506154f8826154b9565b602082019050919050565b5f6020820190508181035f83015261551a816154e1565b9050919050565b7f496e636f727265637420646966666963756c74790000000000000000000000005f82015250565b5f615555601483614016565b915061556082615521565b602082019050919050565b5f6020820190508181035f83015261558281615549565b9050919050565b5f6155948385614016565b93506155a18385846146ea565b6155aa8361404e565b840190509392505050565b5f6040820190508181035f8301526155ce818587615589565b90506155dd602083018461439e565b949350505050565b7f4552433732313a207472616e736665722066726f6d20696e636f7272656374205f8201527f6f776e6572000000000000000000000000000000000000000000000000000000602082015250565b5f61563f602583614016565b915061564a826155e5565b604082019050919050565b5f6020820190508181035f83015261566c81615633565b9050919050565b7f4552433732313a207472616e7366657220746f20746865207a65726f206164645f8201527f7265737300000000000000000000000000000000000000000000000000000000602082015250565b5f6156cd602483614016565b91506156d882615673565b604082019050919050565b5f6020820190508181035f8301526156fa816156c1565b9050919050565b7f4f776e61626c653a2063616c6c6572206973206e6f7420746865206f776e65725f82015250565b5f615735602083614016565b915061574082615701565b602082019050919050565b5f6020820190508181035f83015261576281615729565b9050919050565b7f4552433732313a20617070726f766520746f2063616c6c6572000000000000005f82015250565b5f61579d601983614016565b91506157a882615769565b602082019050919050565b5f6020820190508181035f8301526157ca81615791565b9050919050565b7f4552433732313a207472616e7366657220746f206e6f6e2045524337323152655f8201527f63656976657220696d706c656d656e7465720000000000000000000000000000602082015250565b5f61582b603283614016565b9150615836826157d1565b604082019050919050565b5f6020820190508181035f8301526158588161581f565b9050919050565b7f4552433732313a206d696e7420746f20746865207a65726f20616464726573735f82015250565b5f615893602083614016565b915061589e8261585f565b602082019050919050565b5f6020820190508181035f8301526158c081615887565b9050919050565b7f4552433732313a20746f6b656e20616c7265616479206d696e746564000000005f82015250565b5f6158fb601c83614016565b9150615906826158c7565b602082019050919050565b5f6020820190508181035f830152615928816158ef565b9050919050565b7f45524337323155524953746f726167653a2055524920736574206f66206e6f6e5f8201527f6578697374656e7420746f6b656e000000000000000000000000000000000000602082015250565b5f615989602e83614016565b91506159948261592f565b604082019050919050565b5f6020820190508181035f8301526159b68161597d565b9050919050565b5f81519050919050565b5f82825260208201905092915050565b5f6159e1826159bd565b6159eb81856159c7565b93506159fb818560208601614026565b615a048161404e565b840191505092915050565b5f608082019050615a225f830187614144565b615a2f6020830186614144565b615a3c604083018561439e565b8181036060830152615a4e81846159d7565b905095945050505050565b5f81519050615a6781613f84565b92915050565b5f60208284031215615a8257615a81613f51565b5b5f615a8f84828501615a59565b9150509291505056fe68747470733a2f2f676174657761792e70696e6174612e636c6f75642f697066732f516d657834754e376e6b586654365974325a71686d74636d5a4e6b536f44574a37534a56714a694d6156317a3479a26469706673582212208df0b866c841b4e11e33dfa8cb127b1cad45c07779b29ebb61fc7e996a7d41e964736f6c63430008140033",
  "linkReferences": {},
  "deployedLinkReferences": {}
}