{
  "_format": "hh-sol-artifact-1",
  "contractName": "PadelConnect",
  "sourceName": "contracts/PadelConnect.sol",
  "abi": [
    {
      "inputs": [],
      "name": "CompleteTournament",
      "type": "error"
    },
    {
      "inputs": [],
      "name": "ErrorDuringPayment",
      "type": "error"
    },
    {
      "inputs": [],
      "name": "RegistrationEnded",
      "type": "error"
    },
    {
      "anonymous": false,
      "inputs": [
        {
          "indexed": true,
          "internalType": "address",
          "name": "owner",
          "type": "address"
        },
        {
          "indexed": true,
          "internalType": "address",
          "name": "approved",
          "type": "address"
        },
        {
          "indexed": true,
          "internalType": "uint256",
          "name": "tokenId",
          "type": "uint256"
        }
      ],
      "name": "Approval",
      "type": "event"
    },
    {
      "anonymous": false,
      "inputs": [
        {
          "indexed": true,
          "internalType": "address",
          "name": "owner",
          "type": "address"
        },
        {
          "indexed": true,
          "internalType": "address",
          "name": "operator",
          "type": "address"
        },
        {
          "indexed": false,
          "internalType": "bool",
          "name": "approved",
          "type": "bool"
        }
      ],
      "name": "ApprovalForAll",
      "type": "event"
    },
    {
      "anonymous": false,
      "inputs": [
        {
          "indexed": false,
          "internalType": "uint256",
          "name": "_fromTokenId",
          "type": "uint256"
        },
        {
          "indexed": false,
          "internalType": "uint256",
          "name": "_toTokenId",
          "type": "uint256"
        }
      ],
      "name": "BatchMetadataUpdate",
      "type": "event"
    },
    {
      "anonymous": false,
      "inputs": [
        {
          "indexed": false,
          "internalType": "address",
          "name": "_address",
          "type": "address"
        }
      ],
      "name": "ManagerAdded",
      "type": "event"
    },
    {
      "anonymous": false,
      "inputs": [
        {
          "indexed": false,
          "internalType": "uint256",
          "name": "_tokenId",
          "type": "uint256"
        }
      ],
      "name": "MetadataUpdate",
      "type": "event"
    },
    {
      "anonymous": false,
      "inputs": [
        {
          "indexed": true,
          "internalType": "address",
          "name": "previousOwner",
          "type": "address"
        },
        {
          "indexed": true,
          "internalType": "address",
          "name": "newOwner",
          "type": "address"
        }
      ],
      "name": "OwnershipTransferred",
      "type": "event"
    },
    {
      "anonymous": false,
      "inputs": [
        {
          "indexed": false,
          "internalType": "uint256",
          "name": "tournamentId",
          "type": "uint256"
        },
        {
          "indexed": false,
          "internalType": "address",
          "name": "player",
          "type": "address"
        }
      ],
      "name": "PrivateCommentAdded",
      "type": "event"
    },
    {
      "anonymous": false,
      "inputs": [
        {
          "indexed": false,
          "internalType": "uint256",
          "name": "tournamentId",
          "type": "uint256"
        },
        {
          "indexed": false,
          "internalType": "address",
          "name": "player",
          "type": "address"
        }
      ],
      "name": "PrivateResponseAdded",
      "type": "event"
    },
    {
      "anonymous": false,
      "inputs": [
        {
          "indexed": false,
          "internalType": "uint256",
          "name": "tournamentId",
          "type": "uint256"
        }
      ],
      "name": "TournamentCommentAdded",
      "type": "event"
    },
    {
      "anonymous": false,
      "inputs": [
        {
          "indexed": false,
          "internalType": "uint256",
          "name": "id",
          "type": "uint256"
        }
      ],
      "name": "TournamentCreated",
      "type": "event"
    },
    {
      "anonymous": false,
      "inputs": [
        {
          "indexed": true,
          "internalType": "address",
          "name": "from",
          "type": "address"
        },
        {
          "indexed": true,
          "internalType": "address",
          "name": "to",
          "type": "address"
        },
        {
          "indexed": true,
          "internalType": "uint256",
          "name": "tokenId",
          "type": "uint256"
        }
      ],
      "name": "Transfer",
      "type": "event"
    },
    {
      "inputs": [
        {
          "internalType": "uint256",
          "name": "_id",
          "type": "uint256"
        },
        {
          "internalType": "string",
          "name": "_message",
          "type": "string"
        }
      ],
      "name": "addComment",
      "outputs": [],
      "stateMutability": "nonpayable",
      "type": "function"
    },
    {
      "inputs": [
        {
          "internalType": "address",
          "name": "_address",
          "type": "address"
        }
      ],
      "name": "addManager",
      "outputs": [],
      "stateMutability": "nonpayable",
      "type": "function"
    },
    {
      "inputs": [
        {
          "internalType": "uint256",
          "name": "_id",
          "type": "uint256"
        },
        {
          "internalType": "string",
          "name": "_message",
          "type": "string"
        }
      ],
      "name": "addPrivateCommentToManager",
      "outputs": [],
      "stateMutability": "nonpayable",
      "type": "function"
    },
    {
      "inputs": [
        {
          "internalType": "uint256",
          "name": "_id",
          "type": "uint256"
        },
        {
          "internalType": "address",
          "name": "_player",
          "type": "address"
        },
        {
          "internalType": "string",
          "name": "_message",
          "type": "string"
        }
      ],
      "name": "addPrivateResponseToPlayer",
      "outputs": [],
      "stateMutability": "nonpayable",
      "type": "function"
    },
    {
      "inputs": [
        {
          "internalType": "string",
          "name": "_city",
          "type": "string"
        },
        {
          "internalType": "uint256",
          "name": "_date",
          "type": "uint256"
        },
        {
          "internalType": "uint8",
          "name": "_diff",
          "type": "uint8"
        },
        {
          "internalType": "uint8",
          "name": "_maxPlayers",
          "type": "uint8"
        }
      ],
      "name": "addTournament",
      "outputs": [],
      "stateMutability": "nonpayable",
      "type": "function"
    },
    {
      "inputs": [
        {
          "internalType": "uint256",
          "name": "_id",
          "type": "uint256"
        },
        {
          "internalType": "address",
          "name": "_winner1",
          "type": "address"
        },
        {
          "internalType": "address",
          "name": "_winner2",
          "type": "address"
        }
      ],
      "name": "addWinners",
      "outputs": [],
      "stateMutability": "nonpayable",
      "type": "function"
    },
    {
      "inputs": [
        {
          "internalType": "address",
          "name": "to",
          "type": "address"
        },
        {
          "internalType": "uint256",
          "name": "tokenId",
          "type": "uint256"
        }
      ],
      "name": "approve",
      "outputs": [],
      "stateMutability": "nonpayable",
      "type": "function"
    },
    {
      "inputs": [
        {
          "internalType": "address",
          "name": "owner",
          "type": "address"
        }
      ],
      "name": "balanceOf",
      "outputs": [
        {
          "internalType": "uint256",
          "name": "",
          "type": "uint256"
        }
      ],
      "stateMutability": "view",
      "type": "function"
    },
    {
      "inputs": [
        {
          "internalType": "uint256",
          "name": "",
          "type": "uint256"
        },
        {
          "internalType": "uint256",
          "name": "",
          "type": "uint256"
        }
      ],
      "name": "comments",
      "outputs": [
        {
          "internalType": "string",
          "name": "message",
          "type": "string"
        },
        {
          "internalType": "address",
          "name": "author",
          "type": "address"
        }
      ],
      "stateMutability": "view",
      "type": "function"
    },
    {
      "inputs": [
        {
          "internalType": "uint256",
          "name": "_id",
          "type": "uint256"
        },
        {
          "internalType": "bool",
          "name": "_follow",
          "type": "bool"
        }
      ],
      "name": "followTournament",
      "outputs": [],
      "stateMutability": "nonpayable",
      "type": "function"
    },
    {
      "inputs": [
        {
          "internalType": "uint256",
          "name": "",
          "type": "uint256"
        },
        {
          "internalType": "address",
          "name": "",
          "type": "address"
        }
      ],
      "name": "followedTournaments",
      "outputs": [
        {
          "internalType": "bool",
          "name": "",
          "type": "bool"
        }
      ],
      "stateMutability": "view",
      "type": "function"
    },
    {
      "inputs": [
        {
          "internalType": "uint256",
          "name": "tokenId",
          "type": "uint256"
        }
      ],
      "name": "getApproved",
      "outputs": [
        {
          "internalType": "address",
          "name": "",
          "type": "address"
        }
      ],
      "stateMutability": "view",
      "type": "function"
    },
    {
      "inputs": [
        {
          "internalType": "uint256",
          "name": "",
          "type": "uint256"
        }
      ],
      "name": "idComments",
      "outputs": [
        {
          "internalType": "uint256",
          "name": "",
          "type": "uint256"
        }
      ],
      "stateMutability": "view",
      "type": "function"
    },
    {
      "inputs": [
        {
          "internalType": "address",
          "name": "owner",
          "type": "address"
        },
        {
          "internalType": "address",
          "name": "operator",
          "type": "address"
        }
      ],
      "name": "isApprovedForAll",
      "outputs": [
        {
          "internalType": "bool",
          "name": "",
          "type": "bool"
        }
      ],
      "stateMutability": "view",
      "type": "function"
    },
    {
      "inputs": [
        {
          "internalType": "uint256",
          "name": "",
          "type": "uint256"
        }
      ],
      "name": "linkManagerTournament",
      "outputs": [
        {
          "internalType": "address",
          "name": "",
          "type": "address"
        }
      ],
      "stateMutability": "view",
      "type": "function"
    },
    {
      "inputs": [
        {
          "internalType": "address",
          "name": "",
          "type": "address"
        }
      ],
      "name": "managers",
      "outputs": [
        {
          "internalType": "bool",
          "name": "",
          "type": "bool"
        }
      ],
      "stateMutability": "view",
      "type": "function"
    },
    {
      "inputs": [],
      "name": "name",
      "outputs": [
        {
          "internalType": "string",
          "name": "",
          "type": "string"
        }
      ],
      "stateMutability": "view",
      "type": "function"
    },
    {
      "inputs": [],
      "name": "owner",
      "outputs": [
        {
          "internalType": "address",
          "name": "",
          "type": "address"
        }
      ],
      "stateMutability": "view",
      "type": "function"
    },
    {
      "inputs": [
        {
          "internalType": "uint256",
          "name": "tokenId",
          "type": "uint256"
        }
      ],
      "name": "ownerOf",
      "outputs": [
        {
          "internalType": "address",
          "name": "",
          "type": "address"
        }
      ],
      "stateMutability": "view",
      "type": "function"
    },
    {
      "inputs": [
        {
          "internalType": "uint256",
          "name": "",
          "type": "uint256"
        },
        {
          "internalType": "address",
          "name": "",
          "type": "address"
        }
      ],
      "name": "playersRegistered",
      "outputs": [
        {
          "internalType": "bool",
          "name": "",
          "type": "bool"
        }
      ],
      "stateMutability": "view",
      "type": "function"
    },
    {
      "inputs": [
        {
          "internalType": "uint256",
          "name": "_id",
          "type": "uint256"
        }
      ],
      "name": "registerPlayer",
      "outputs": [],
      "stateMutability": "nonpayable",
      "type": "function"
    },
    {
      "inputs": [],
      "name": "renounceOwnership",
      "outputs": [],
      "stateMutability": "nonpayable",
      "type": "function"
    },
    {
      "inputs": [
        {
          "internalType": "address",
          "name": "from",
          "type": "address"
        },
        {
          "internalType": "address",
          "name": "to",
          "type": "address"
        },
        {
          "internalType": "uint256",
          "name": "tokenId",
          "type": "uint256"
        }
      ],
      "name": "safeTransferFrom",
      "outputs": [],
      "stateMutability": "nonpayable",
      "type": "function"
    },
    {
      "inputs": [
        {
          "internalType": "address",
          "name": "from",
          "type": "address"
        },
        {
          "internalType": "address",
          "name": "to",
          "type": "address"
        },
        {
          "internalType": "uint256",
          "name": "tokenId",
          "type": "uint256"
        },
        {
          "internalType": "bytes",
          "name": "data",
          "type": "bytes"
        }
      ],
      "name": "safeTransferFrom",
      "outputs": [],
      "stateMutability": "nonpayable",
      "type": "function"
    },
    {
      "inputs": [
        {
          "internalType": "address",
          "name": "operator",
          "type": "address"
        },
        {
          "internalType": "bool",
          "name": "approved",
          "type": "bool"
        }
      ],
      "name": "setApprovalForAll",
      "outputs": [],
      "stateMutability": "nonpayable",
      "type": "function"
    },
    {
      "inputs": [
        {
          "internalType": "bytes4",
          "name": "interfaceId",
          "type": "bytes4"
        }
      ],
      "name": "supportsInterface",
      "outputs": [
        {
          "internalType": "bool",
          "name": "",
          "type": "bool"
        }
      ],
      "stateMutability": "view",
      "type": "function"
    },
    {
      "inputs": [],
      "name": "symbol",
      "outputs": [
        {
          "internalType": "string",
          "name": "",
          "type": "string"
        }
      ],
      "stateMutability": "view",
      "type": "function"
    },
    {
      "inputs": [
        {
          "internalType": "uint256",
          "name": "tokenId",
          "type": "uint256"
        }
      ],
      "name": "tokenURI",
      "outputs": [
        {
          "internalType": "string",
          "name": "",
          "type": "string"
        }
      ],
      "stateMutability": "view",
      "type": "function"
    },
    {
      "inputs": [
        {
          "internalType": "uint256",
          "name": "",
          "type": "uint256"
        }
      ],
      "name": "tournaments",
      "outputs": [
        {
          "internalType": "uint256",
          "name": "id",
          "type": "uint256"
        },
        {
          "internalType": "string",
          "name": "city",
          "type": "string"
        },
        {
          "internalType": "uint256",
          "name": "date",
          "type": "uint256"
        },
        {
          "internalType": "enum IPadelConnect.Difficulty",
          "name": "difficulty",
          "type": "uint8"
        },
        {
          "internalType": "uint8",
          "name": "registrationsAvailable",
          "type": "uint8"
        },
        {
          "internalType": "address",
          "name": "winner1",
          "type": "address"
        },
        {
          "internalType": "address",
          "name": "winner2",
          "type": "address"
        }
      ],
      "stateMutability": "view",
      "type": "function"
    },
    {
      "inputs": [
        {
          "internalType": "address",
          "name": "from",
          "type": "address"
        },
        {
          "internalType": "address",
          "name": "to",
          "type": "address"
        },
        {
          "internalType": "uint256",
          "name": "tokenId",
          "type": "uint256"
        }
      ],
      "name": "transferFrom",
      "outputs": [],
      "stateMutability": "nonpayable",
      "type": "function"
    },
    {
      "inputs": [
        {
          "internalType": "address",
          "name": "newOwner",
          "type": "address"
        }
      ],
      "name": "transferOwnership",
      "outputs": [],
      "stateMutability": "nonpayable",
      "type": "function"
    }
  ],
  "bytecode": "0x608060405234801562000010575f80fd5b506040518060400160405280600c81526020017f506164656c436f6e6e65637400000000000000000000000000000000000000008152506040518060400160405280600381526020017f50444c00000000000000000000000000000000000000000000000000000000008152506200009d62000091620000c960201b60201c565b620000d060201b60201c565b8160019081620000ae9190620003f5565b508060029081620000c09190620003f5565b505050620004d9565b5f33905090565b5f805f9054906101000a900473ffffffffffffffffffffffffffffffffffffffff169050815f806101000a81548173ffffffffffffffffffffffffffffffffffffffff021916908373ffffffffffffffffffffffffffffffffffffffff1602179055508173ffffffffffffffffffffffffffffffffffffffff168173ffffffffffffffffffffffffffffffffffffffff167f8be0079c531659141344cd1fd0a4f28419497f9722a3daafe3b4186f6b6457e060405160405180910390a35050565b5f81519050919050565b7f4e487b71000000000000000000000000000000000000000000000000000000005f52604160045260245ffd5b7f4e487b71000000000000000000000000000000000000000000000000000000005f52602260045260245ffd5b5f60028204905060018216806200020d57607f821691505b602082108103620002235762000222620001c8565b5b50919050565b5f819050815f5260205f209050919050565b5f6020601f8301049050919050565b5f82821b905092915050565b5f60088302620002877fffffffffffffffffffffffffffffffffffffffffffffffffffffffffffffffff826200024a565b6200029386836200024a565b95508019841693508086168417925050509392505050565b5f819050919050565b5f819050919050565b5f620002dd620002d7620002d184620002ab565b620002b4565b620002ab565b9050919050565b5f819050919050565b620002f883620002bd565b620003106200030782620002e4565b84845462000256565b825550505050565b5f90565b6200032662000318565b62000333818484620002ed565b505050565b5b818110156200035a576200034e5f826200031c565b60018101905062000339565b5050565b601f821115620003a957620003738162000229565b6200037e846200023b565b810160208510156200038e578190505b620003a66200039d856200023b565b83018262000338565b50505b505050565b5f82821c905092915050565b5f620003cb5f1984600802620003ae565b1980831691505092915050565b5f620003e58383620003ba565b9150826002028217905092915050565b620004008262000191565b67ffffffffffffffff8111156200041c576200041b6200019b565b5b620004288254620001f5565b620004358282856200035e565b5f60209050601f8311600181146200046b575f841562000456578287015190505b620004628582620003d8565b865550620004d1565b601f1984166200047b8662000229565b5f5b82811015620004a4578489015182556001820191506020850194506020810190506200047d565b86831015620004c45784890151620004c0601f891682620003ba565b8355505b6001600288020188555050505b505050505050565b61570480620004e75f395ff3fe608060405234801561000f575f80fd5b50600436106101e3575f3560e01c8063821644e61161010d578063b88d4fde116100a0578063f52ec1cb1161006f578063f52ec1cb1461059d578063f891e08b146105cd578063fc6c776f146105e9578063fdff9b4d1461061a576101e3565b8063b88d4fde14610505578063c87b56dd14610521578063e985e9c514610551578063f2fde38b14610581576101e3565b80639b0404ca116100dc5780639b0404ca146104815780639b535ead1461049d578063a22cb465146104cd578063aa7e5683146104e9576101e3565b8063821644e61461040d5780638a8da1f7146104295780638da5cb5b1461044557806395d89b4114610463576101e3565b806332e9f509116101855780636352211e116101545780636352211e1461036d57806370a082311461039d578063715018a6146103cd5780637503e1b7146103d7576101e3565b806332e9f509146102d55780633682fd03146102f15780633ae48eb81461032157806342842e0e14610351576101e3565b8063095ea7b3116101c1578063095ea7b3146102655780631d3f6c8a1461028157806323b872dd1461029d5780632d06177a146102b9576101e3565b806301ffc9a7146101e757806306fdde0314610217578063081812fc14610235575b5f80fd5b61020160048036038101906101fc9190613bea565b61064a565b60405161020e9190613c2f565b60405180910390f35b61021f6106aa565b60405161022c9190613cd2565b60405180910390f35b61024f600480360381019061024a9190613d25565b61073a565b60405161025c9190613d8f565b60405180910390f35b61027f600480360381019061027a9190613dd2565b61077c565b005b61029b60048036038101906102969190613e71565b610892565b005b6102b760048036038101906102b29190613ece565b610bac565b005b6102d360048036038101906102ce9190613f1e565b610c0c565b005b6102ef60048036038101906102ea9190613f73565b610d9d565b005b61030b60048036038101906103069190613d25565b610e4d565b6040516103189190613fc0565b60405180910390f35b61033b60048036038101906103369190613fd9565b610e62565b6040516103489190613c2f565b60405180910390f35b61036b60048036038101906103669190613ece565b610e8c565b005b61038760048036038101906103829190613d25565b610eab565b6040516103949190613d8f565b60405180910390f35b6103b760048036038101906103b29190613f1e565b610f2f565b6040516103c49190613fc0565b60405180910390f35b6103d5610fe3565b005b6103f160048036038101906103ec9190613d25565b610ff6565b60405161040497969594939291906140a5565b60405180910390f35b61042760048036038101906104229190613d25565b611121565b005b610443600480360381019061043e9190614119565b611517565b005b61044d6119d5565b60405161045a9190613d8f565b60405180910390f35b61046b6119fc565b6040516104789190613cd2565b60405180910390f35b61049b60048036038101906104969190614169565b611a8c565b005b6104b760048036038101906104b29190613fd9565b611eb9565b6040516104c49190613c2f565b60405180910390f35b6104e760048036038101906104e291906141da565b611ee3565b005b61050360048036038101906104fe9190613e71565b611ef9565b005b61051f600480360381019061051a9190614340565b6121f5565b005b61053b60048036038101906105369190613d25565b612257565b6040516105489190613cd2565b60405180910390f35b61056b600480360381019061056691906143c0565b612361565b6040516105789190613c2f565b60405180910390f35b61059b60048036038101906105969190613f1e565b6123ef565b005b6105b760048036038101906105b29190613d25565b612471565b6040516105c49190613d8f565b60405180910390f35b6105e760048036038101906105e29190614428565b6124a1565b005b61060360048036038101906105fe91906144ac565b61293d565b6040516106119291906144ea565b60405180910390f35b610634600480360381019061062f9190613f1e565b612a0d565b6040516106419190613c2f565b60405180910390f35b5f634906490660e01b7bffffffffffffffffffffffffffffffffffffffffffffffffffffffff1916827bffffffffffffffffffffffffffffffffffffffffffffffffffffffff191614806106a357506106a282612a2a565b5b9050919050565b6060600180546106b990614545565b80601f01602080910402602001604051908101604052809291908181526020018280546106e590614545565b80156107305780601f1061070757610100808354040283529160200191610730565b820191905f5260205f20905b81548152906001019060200180831161071357829003601f168201915b5050505050905090565b5f61074482612b0b565b60055f8381526020019081526020015f205f9054906101000a900473ffffffffffffffffffffffffffffffffffffffff169050919050565b5f61078682610eab565b90508073ffffffffffffffffffffffffffffffffffffffff168373ffffffffffffffffffffffffffffffffffffffff16036107f6576040517f08c379a00000000000000000000000000000000000000000000000000000000081526004016107ed906145e5565b60405180910390fd5b8073ffffffffffffffffffffffffffffffffffffffff16610815612b56565b73ffffffffffffffffffffffffffffffffffffffff16148061084457506108438161083e612b56565b612361565b5b610883576040517f08c379a000000000000000000000000000000000000000000000000000000000815260040161087a90614673565b60405180910390fd5b61088d8383612b5d565b505050565b82600c8054905081106108da576040517f08c379a00000000000000000000000000000000000000000000000000000000081526004016108d1906146db565b60405180910390fd5b82828080601f0160208091040260200160405190810160405280939291908181526020018383808284375f81840152601f19601f820116905080830192505050505050505f815111610961576040517f08c379a000000000000000000000000000000000000000000000000000000000815260040161095890614743565b60405180910390fd5b33600a4261096f919061478e565b60125f3373ffffffffffffffffffffffffffffffffffffffff1673ffffffffffffffffffffffffffffffffffffffff1681526020019081526020015f2054106109ed576040517f08c379a00000000000000000000000000000000000000000000000000000000081526004016109e49061480b565b60405180910390fd5b60115f8781526020019081526020015f205f3373ffffffffffffffffffffffffffffffffffffffff1673ffffffffffffffffffffffffffffffffffffffff1681526020019081526020015f20604051806040016040528087878080601f0160208091040260200160405190810160405280939291908181526020018383808284375f81840152601f19601f8201169050808301925050505050505081526020013373ffffffffffffffffffffffffffffffffffffffff16815250908060018154018082558091505060019003905f5260205f2090600202015f909190919091505f820151815f019081610ae091906149c6565b506020820151816001015f6101000a81548173ffffffffffffffffffffffffffffffffffffffff021916908373ffffffffffffffffffffffffffffffffffffffff16021790555050504260125f3373ffffffffffffffffffffffffffffffffffffffff1673ffffffffffffffffffffffffffffffffffffffff1681526020019081526020015f20819055507fbfd6922fad2fc6dfcb1bf737a87580bdc38c8199bda4764006096c7ed70528168633604051610b9c929190614a95565b60405180910390a1505050505050565b610bbd610bb7612b56565b82612c13565b610bfc576040517f08c379a0000000000000000000000000000000000000000000000000000000008152600401610bf390614b2c565b60405180910390fd5b610c07838383612ca7565b505050565b610c14612f93565b805f73ffffffffffffffffffffffffffffffffffffffff168173ffffffffffffffffffffffffffffffffffffffff1603610c83576040517f08c379a0000000000000000000000000000000000000000000000000000000008152600401610c7a90614b94565b60405180910390fd5b600a5f8373ffffffffffffffffffffffffffffffffffffffff1673ffffffffffffffffffffffffffffffffffffffff1681526020019081526020015f205f9054906101000a900460ff1615610d0d576040517f08c379a0000000000000000000000000000000000000000000000000000000008152600401610d0490614bfc565b60405180910390fd5b6001600a5f8473ffffffffffffffffffffffffffffffffffffffff1673ffffffffffffffffffffffffffffffffffffffff1681526020019081526020015f205f6101000a81548160ff0219169083151502179055507f3b4a40cccf2058c593542587329dd385be4f0b588db5471fbd9598e56dd7093a82604051610d919190613d8f565b60405180910390a15050565b81600c805490508110610de5576040517f08c379a0000000000000000000000000000000000000000000000000000000008152600401610ddc906146db565b60405180910390fd5b81600e5f8581526020019081526020015f205f3373ffffffffffffffffffffffffffffffffffffffff1673ffffffffffffffffffffffffffffffffffffffff1681526020019081526020015f205f6101000a81548160ff021916908315150217905550505050565b6010602052805f5260405f205f915090505481565b600e602052815f5260405f20602052805f5260405f205f915091509054906101000a900460ff1681565b610ea683838360405180602001604052805f8152506121f5565b505050565b5f80610eb683613011565b90505f73ffffffffffffffffffffffffffffffffffffffff168173ffffffffffffffffffffffffffffffffffffffff1603610f26576040517f08c379a0000000000000000000000000000000000000000000000000000000008152600401610f1d90614c64565b60405180910390fd5b80915050919050565b5f8073ffffffffffffffffffffffffffffffffffffffff168273ffffffffffffffffffffffffffffffffffffffff1603610f9e576040517f08c379a0000000000000000000000000000000000000000000000000000000008152600401610f9590614cf2565b60405180910390fd5b60045f8373ffffffffffffffffffffffffffffffffffffffff1673ffffffffffffffffffffffffffffffffffffffff1681526020019081526020015f20549050919050565b610feb612f93565b610ff45f61304a565b565b600c8181548110611005575f80fd5b905f5260205f2090600502015f91509050805f01549080600101805461102a90614545565b80601f016020809104026020016040519081016040528092919081815260200182805461105690614545565b80156110a15780601f10611078576101008083540402835291602001916110a1565b820191905f5260205f20905b81548152906001019060200180831161108457829003601f168201915b505050505090806002015490806003015f9054906101000a900460ff16908060030160019054906101000a900460ff16908060030160029054906101000a900473ffffffffffffffffffffffffffffffffffffffff1690806004015f9054906101000a900473ffffffffffffffffffffffffffffffffffffffff16905087565b80600c805490508110611169576040517f08c379a0000000000000000000000000000000000000000000000000000000008152600401611160906146db565b60405180910390fd5b600d5f8381526020019081526020015f205f3373ffffffffffffffffffffffffffffffffffffffff1673ffffffffffffffffffffffffffffffffffffffff1681526020019081526020015f205f9054906101000a900460ff1615611202576040517f08c379a00000000000000000000000000000000000000000000000000000000081526004016111f990614bfc565b60405180910390fd5b5f600c838154811061121757611216614d10565b5b905f5260205f2090600502016040518060e00160405290815f820154815260200160018201805461124790614545565b80601f016020809104026020016040519081016040528092919081815260200182805461127390614545565b80156112be5780601f10611295576101008083540402835291602001916112be565b820191905f5260205f20905b8154815290600101906020018083116112a157829003601f168201915b5050505050815260200160028201548152602001600382015f9054906101000a900460ff1660058111156112f5576112f4614017565b5b600581111561130757611306614017565b5b81526020016003820160019054906101000a900460ff1660ff1660ff1681526020016003820160029054906101000a900473ffffffffffffffffffffffffffffffffffffffff1673ffffffffffffffffffffffffffffffffffffffff1673ffffffffffffffffffffffffffffffffffffffff168152602001600482015f9054906101000a900473ffffffffffffffffffffffffffffffffffffffff1673ffffffffffffffffffffffffffffffffffffffff1673ffffffffffffffffffffffffffffffffffffffff168152505090504281604001511015611413576040517f2ee88f5000000000000000000000000000000000000000000000000000000000815260040160405180910390fd5b5f816080015160ff1603611453576040517f106e2afe00000000000000000000000000000000000000000000000000000000815260040160405180910390fd5b6001600d5f8581526020019081526020015f205f3373ffffffffffffffffffffffffffffffffffffffff1673ffffffffffffffffffffffffffffffffffffffff1681526020019081526020015f205f6101000a81548160ff0219169083151502179055508060800180516114c690614d3d565b60ff16908160ff16815250508060800151600c84815481106114eb576114ea614d10565b5b905f5260205f20906005020160030160016101000a81548160ff021916908360ff160217905550505050565b82600c80549050811061155f576040517f08c379a0000000000000000000000000000000000000000000000000000000008152600401611556906146db565b60405180910390fd5b83338073ffffffffffffffffffffffffffffffffffffffff16600b5f8481526020019081526020015f205f9054906101000a900473ffffffffffffffffffffffffffffffffffffffff1673ffffffffffffffffffffffffffffffffffffffff16146115ff576040517f08c379a00000000000000000000000000000000000000000000000000000000081526004016115f690614dae565b60405180910390fd5b845f73ffffffffffffffffffffffffffffffffffffffff168173ffffffffffffffffffffffffffffffffffffffff160361166e576040517f08c379a000000000000000000000000000000000000000000000000000000000815260040161166590614b94565b60405180910390fd5b845f73ffffffffffffffffffffffffffffffffffffffff168173ffffffffffffffffffffffffffffffffffffffff16036116dd576040517f08c379a00000000000000000000000000000000000000000000000000000000081526004016116d490614b94565b60405180910390fd5b8573ffffffffffffffffffffffffffffffffffffffff168773ffffffffffffffffffffffffffffffffffffffff160361174b576040517f08c379a000000000000000000000000000000000000000000000000000000000815260040161174290614e16565b60405180910390fd5b600d5f8981526020019081526020015f205f8873ffffffffffffffffffffffffffffffffffffffff1673ffffffffffffffffffffffffffffffffffffffff1681526020019081526020015f205f9054906101000a900460ff1680156118055750600d5f8981526020019081526020015f205f8773ffffffffffffffffffffffffffffffffffffffff1673ffffffffffffffffffffffffffffffffffffffff1681526020019081526020015f205f9054906101000a900460ff165b611844576040517f08c379a000000000000000000000000000000000000000000000000000000000815260040161183b90614e7e565b60405180910390fd5b86600c898154811061185957611858614d10565b5b905f5260205f20906005020160030160026101000a81548173ffffffffffffffffffffffffffffffffffffffff021916908373ffffffffffffffffffffffffffffffffffffffff16021790555085600c89815481106118bb576118ba614d10565b5b905f5260205f2090600502016004015f6101000a81548173ffffffffffffffffffffffffffffffffffffffff021916908373ffffffffffffffffffffffffffffffffffffffff1602179055505f600c898154811061191c5761191b614d10565b5b905f5260205f209060050201600101805461193690614545565b80601f016020809104026020016040519081016040528092919081815260200182805461196290614545565b80156119ad5780601f10611984576101008083540402835291602001916119ad565b820191905f5260205f20905b81548152906001019060200180831161199057829003601f168201915b505050505090506119bf888a8361310b565b6119ca878a8361310b565b505050505050505050565b5f805f9054906101000a900473ffffffffffffffffffffffffffffffffffffffff16905090565b606060028054611a0b90614545565b80601f0160208091040260200160405190810160405280929190818152602001828054611a3790614545565b8015611a825780601f10611a5957610100808354040283529160200191611a82565b820191905f5260205f20905b815481529060010190602001808311611a6557829003601f168201915b5050505050905090565b83600c805490508110611ad4576040517f08c379a0000000000000000000000000000000000000000000000000000000008152600401611acb906146db565b60405180910390fd5b84338073ffffffffffffffffffffffffffffffffffffffff16600b5f8481526020019081526020015f205f9054906101000a900473ffffffffffffffffffffffffffffffffffffffff1673ffffffffffffffffffffffffffffffffffffffff1614611b74576040517f08c379a0000000000000000000000000000000000000000000000000000000008152600401611b6b90614dae565b60405180910390fd5b855f73ffffffffffffffffffffffffffffffffffffffff168173ffffffffffffffffffffffffffffffffffffffff1603611be3576040517f08c379a0000000000000000000000000000000000000000000000000000000008152600401611bda90614b94565b60405180910390fd5b85858080601f0160208091040260200160405190810160405280939291908181526020018383808284375f81840152601f19601f820116905080830192505050505050505f815111611c6a576040517f08c379a0000000000000000000000000000000000000000000000000000000008152600401611c6190614743565b60405180910390fd5b33600a42611c78919061478e565b60125f3373ffffffffffffffffffffffffffffffffffffffff1673ffffffffffffffffffffffffffffffffffffffff1681526020019081526020015f205410611cf6576040517f08c379a0000000000000000000000000000000000000000000000000000000008152600401611ced9061480b565b60405180910390fd5b60115f8b81526020019081526020015f205f8a73ffffffffffffffffffffffffffffffffffffffff1673ffffffffffffffffffffffffffffffffffffffff1681526020019081526020015f2060405180604001604052808a8a8080601f0160208091040260200160405190810160405280939291908181526020018383808284375f81840152601f19601f8201169050808301925050505050505081526020013373ffffffffffffffffffffffffffffffffffffffff16815250908060018154018082558091505060019003905f5260205f2090600202015f909190919091505f820151815f019081611de991906149c6565b506020820151816001015f6101000a81548173ffffffffffffffffffffffffffffffffffffffff021916908373ffffffffffffffffffffffffffffffffffffffff16021790555050504260125f3373ffffffffffffffffffffffffffffffffffffffff1673ffffffffffffffffffffffffffffffffffffffff1681526020019081526020015f20819055507f6c273d133e6c6367d40972f8ef51fc71789ea8bc667e662342cbecab4f46218c8a8a604051611ea5929190614a95565b60405180910390a150505050505050505050565b600d602052815f5260405f20602052805f5260405f205f915091509054906101000a900460ff1681565b611ef5611eee612b56565b83836131fd565b5050565b82600c805490508110611f41576040517f08c379a0000000000000000000000000000000000000000000000000000000008152600401611f38906146db565b60405180910390fd5b82828080601f0160208091040260200160405190810160405280939291908181526020018383808284375f81840152601f19601f820116905080830192505050505050505f815111611fc8576040517f08c379a0000000000000000000000000000000000000000000000000000000008152600401611fbf90614743565b60405180910390fd5b33600a42611fd6919061478e565b60125f3373ffffffffffffffffffffffffffffffffffffffff1673ffffffffffffffffffffffffffffffffffffffff1681526020019081526020015f205410612054576040517f08c379a000000000000000000000000000000000000000000000000000000000815260040161204b9061480b565b60405180910390fd5b604051806040016040528086868080601f0160208091040260200160405190810160405280939291908181526020018383808284375f81840152601f19601f8201169050808301925050505050505081526020013373ffffffffffffffffffffffffffffffffffffffff16815250600f5f8881526020019081526020015f205f60105f8a81526020019081526020015f205481526020019081526020015f205f820151815f01908161210691906149c6565b506020820151816001015f6101000a81548173ffffffffffffffffffffffffffffffffffffffff021916908373ffffffffffffffffffffffffffffffffffffffff16021790555090505060105f8781526020019081526020015f205f815461216d90614e9c565b919050819055504260125f3373ffffffffffffffffffffffffffffffffffffffff1673ffffffffffffffffffffffffffffffffffffffff1681526020019081526020015f20819055507f3021694d1ef819d2b9bc13c595d4f75437b6bbbb2dd33e9f2a9df24534f6b559866040516121e59190613fc0565b60405180910390a1505050505050565b612206612200612b56565b83612c13565b612245576040517f08c379a000000000000000000000000000000000000000000000000000000000815260040161223c90614b2c565b60405180910390fd5b61225184848484613364565b50505050565b606061226282612b0b565b5f60075f8481526020019081526020015f20805461227f90614545565b80601f01602080910402602001604051908101604052809291908181526020018280546122ab90614545565b80156122f65780601f106122cd576101008083540402835291602001916122f6565b820191905f5260205f20905b8154815290600101906020018083116122d957829003601f168201915b505050505090505f6123066133c0565b90505f81510361231a57819250505061235c565b5f8251111561234e578082604051602001612336929190614f1d565b6040516020818303038152906040529250505061235c565b612357846133d6565b925050505b919050565b5f60065f8473ffffffffffffffffffffffffffffffffffffffff1673ffffffffffffffffffffffffffffffffffffffff1681526020019081526020015f205f8373ffffffffffffffffffffffffffffffffffffffff1673ffffffffffffffffffffffffffffffffffffffff1681526020019081526020015f205f9054906101000a900460ff16905092915050565b6123f7612f93565b5f73ffffffffffffffffffffffffffffffffffffffff168173ffffffffffffffffffffffffffffffffffffffff1603612465576040517f08c379a000000000000000000000000000000000000000000000000000000000815260040161245c90614fb0565b60405180910390fd5b61246e8161304a565b50565b600b602052805f5260405f205f915054906101000a900473ffffffffffffffffffffffffffffffffffffffff1681565b600a5f3373ffffffffffffffffffffffffffffffffffffffff1673ffffffffffffffffffffffffffffffffffffffff1681526020019081526020015f205f9054906101000a900460ff1661252a576040517f08c379a000000000000000000000000000000000000000000000000000000000815260040161252190615018565b60405180910390fd5b84848080601f0160208091040260200160405190810160405280939291908181526020018383808284375f81840152601f19601f820116905080830192505050505050505f8151116125b1576040517f08c379a00000000000000000000000000000000000000000000000000000000081526004016125a890614743565b60405180910390fd5b4284116125f3576040517f08c379a00000000000000000000000000000000000000000000000000000000081526004016125ea90615080565b60405180910390fd5b5f8260ff1611801561261357505f60028361260e91906150cb565b60ff16145b612652576040517f08c379a000000000000000000000000000000000000000000000000000000000815260040161264990615145565b60405180910390fd5b60058081111561266557612664614017565b5b8360ff1611156126aa576040517f08c379a00000000000000000000000000000000000000000000000000000000081526004016126a1906151ad565b60405180910390fd5b5f600c805490509050600c6040518060e0016040528083815260200189898080601f0160208091040260200160405190810160405280939291908181526020018383808284375f81840152601f19601f8201169050808301925050505050505081526020018781526020018660ff16600581111561272b5761272a614017565b5b600581111561273d5761273c614017565b5b81526020018560ff1681526020015f73ffffffffffffffffffffffffffffffffffffffff1681526020015f73ffffffffffffffffffffffffffffffffffffffff16815250908060018154018082558091505060019003905f5260205f2090600502015f909190919091505f820151815f015560208201518160010190816127c491906149c6565b50604082015181600201556060820151816003015f6101000a81548160ff021916908360058111156127f9576127f8614017565b5b021790555060808201518160030160016101000a81548160ff021916908360ff16021790555060a08201518160030160026101000a81548173ffffffffffffffffffffffffffffffffffffffff021916908373ffffffffffffffffffffffffffffffffffffffff16021790555060c0820151816004015f6101000a81548173ffffffffffffffffffffffffffffffffffffffff021916908373ffffffffffffffffffffffffffffffffffffffff160217905550505033600b5f8381526020019081526020015f205f6101000a81548173ffffffffffffffffffffffffffffffffffffffff021916908373ffffffffffffffffffffffffffffffffffffffff1602179055507f113d32d0b7aec15a8c7f50af4cb42f4695e5b95524ed69519ac88d6c1f1f40f68160405161292c9190613fc0565b60405180910390a150505050505050565b600f602052815f5260405f20602052805f5260405f205f9150915050805f01805461296790614545565b80601f016020809104026020016040519081016040528092919081815260200182805461299390614545565b80156129de5780601f106129b5576101008083540402835291602001916129de565b820191905f5260205f20905b8154815290600101906020018083116129c157829003601f168201915b505050505090806001015f9054906101000a900473ffffffffffffffffffffffffffffffffffffffff16905082565b600a602052805f5260405f205f915054906101000a900460ff1681565b5f7f80ac58cd000000000000000000000000000000000000000000000000000000007bffffffffffffffffffffffffffffffffffffffffffffffffffffffff1916827bffffffffffffffffffffffffffffffffffffffffffffffffffffffff19161480612af457507f5b5e139f000000000000000000000000000000000000000000000000000000007bffffffffffffffffffffffffffffffffffffffffffffffffffffffff1916827bffffffffffffffffffffffffffffffffffffffffffffffffffffffff1916145b80612b045750612b038261343b565b5b9050919050565b612b14816134a4565b612b53576040517f08c379a0000000000000000000000000000000000000000000000000000000008152600401612b4a90614c64565b60405180910390fd5b50565b5f33905090565b8160055f8381526020019081526020015f205f6101000a81548173ffffffffffffffffffffffffffffffffffffffff021916908373ffffffffffffffffffffffffffffffffffffffff160217905550808273ffffffffffffffffffffffffffffffffffffffff16612bcd83610eab565b73ffffffffffffffffffffffffffffffffffffffff167f8c5be1e5ebec7d5bd14f71427d1e84f3dd0314c0f7b2291e5b200ac8c7c3b92560405160405180910390a45050565b5f80612c1e83610eab565b90508073ffffffffffffffffffffffffffffffffffffffff168473ffffffffffffffffffffffffffffffffffffffff161480612c605750612c5f8185612361565b5b80612c9e57508373ffffffffffffffffffffffffffffffffffffffff16612c868461073a565b73ffffffffffffffffffffffffffffffffffffffff16145b91505092915050565b8273ffffffffffffffffffffffffffffffffffffffff16612cc782610eab565b73ffffffffffffffffffffffffffffffffffffffff1614612d1d576040517f08c379a0000000000000000000000000000000000000000000000000000000008152600401612d149061523b565b60405180910390fd5b5f73ffffffffffffffffffffffffffffffffffffffff168273ffffffffffffffffffffffffffffffffffffffff1603612d8b576040517f08c379a0000000000000000000000000000000000000000000000000000000008152600401612d82906152c9565b60405180910390fd5b612d9883838360016134e4565b8273ffffffffffffffffffffffffffffffffffffffff16612db882610eab565b73ffffffffffffffffffffffffffffffffffffffff1614612e0e576040517f08c379a0000000000000000000000000000000000000000000000000000000008152600401612e059061523b565b60405180910390fd5b60055f8281526020019081526020015f205f6101000a81549073ffffffffffffffffffffffffffffffffffffffff0219169055600160045f8573ffffffffffffffffffffffffffffffffffffffff1673ffffffffffffffffffffffffffffffffffffffff1681526020019081526020015f205f8282540392505081905550600160045f8473ffffffffffffffffffffffffffffffffffffffff1673ffffffffffffffffffffffffffffffffffffffff1681526020019081526020015f205f82825401925050819055508160035f8381526020019081526020015f205f6101000a81548173ffffffffffffffffffffffffffffffffffffffff021916908373ffffffffffffffffffffffffffffffffffffffff160217905550808273ffffffffffffffffffffffffffffffffffffffff168473ffffffffffffffffffffffffffffffffffffffff167fddf252ad1be2c89b69c2b068fc378daa952ba7f163c4a11628f55a4df523b3ef60405160405180910390a4612f8e83838360016134ea565b505050565b612f9b612b56565b73ffffffffffffffffffffffffffffffffffffffff16612fb96119d5565b73ffffffffffffffffffffffffffffffffffffffff161461300f576040517f08c379a000000000000000000000000000000000000000000000000000000000815260040161300690615331565b60405180910390fd5b565b5f60035f8381526020019081526020015f205f9054906101000a900473ffffffffffffffffffffffffffffffffffffffff169050919050565b5f805f9054906101000a900473ffffffffffffffffffffffffffffffffffffffff169050815f806101000a81548173ffffffffffffffffffffffffffffffffffffffff021916908373ffffffffffffffffffffffffffffffffffffffff1602179055508173ffffffffffffffffffffffffffffffffffffffff168173ffffffffffffffffffffffffffffffffffffffff167f8be0079c531659141344cd1fd0a4f28419497f9722a3daafe3b4186f6b6457e060405160405180910390a35050565b61311560086134f0565b5f6131206008613504565b905060405180606001604052808481526020018381526020018573ffffffffffffffffffffffffffffffffffffffff1681525060095f8381526020019081526020015f205f820151815f0155602082015181600101908161318191906149c6565b506040820151816002015f6101000a81548173ffffffffffffffffffffffffffffffffffffffff021916908373ffffffffffffffffffffffffffffffffffffffff1602179055509050506131d58482613510565b6131f78160405180608001604052806050815260200161567f60509139613723565b50505050565b8173ffffffffffffffffffffffffffffffffffffffff168373ffffffffffffffffffffffffffffffffffffffff160361326b576040517f08c379a000000000000000000000000000000000000000000000000000000000815260040161326290615399565b60405180910390fd5b8060065f8573ffffffffffffffffffffffffffffffffffffffff1673ffffffffffffffffffffffffffffffffffffffff1681526020019081526020015f205f8473ffffffffffffffffffffffffffffffffffffffff1673ffffffffffffffffffffffffffffffffffffffff1681526020019081526020015f205f6101000a81548160ff0219169083151502179055508173ffffffffffffffffffffffffffffffffffffffff168373ffffffffffffffffffffffffffffffffffffffff167f17307eab39ab6107e8899845ad3d59bd9653f200f220920489ca2b5937696c31836040516133579190613c2f565b60405180910390a3505050565b61336f848484612ca7565b61337b848484846137c5565b6133ba576040517f08c379a00000000000000000000000000000000000000000000000000000000081526004016133b190615427565b60405180910390fd5b50505050565b606060405180602001604052805f815250905090565b60606133e182612b0b565b5f6133ea6133c0565b90505f8151116134085760405180602001604052805f815250613433565b8061341284613947565b604051602001613423929190614f1d565b6040516020818303038152906040525b915050919050565b5f7f01ffc9a7000000000000000000000000000000000000000000000000000000007bffffffffffffffffffffffffffffffffffffffffffffffffffffffff1916827bffffffffffffffffffffffffffffffffffffffffffffffffffffffff1916149050919050565b5f8073ffffffffffffffffffffffffffffffffffffffff166134c583613011565b73ffffffffffffffffffffffffffffffffffffffff1614159050919050565b50505050565b50505050565b6001815f015f828254019250508190555050565b5f815f01549050919050565b5f73ffffffffffffffffffffffffffffffffffffffff168273ffffffffffffffffffffffffffffffffffffffff160361357e576040517f08c379a00000000000000000000000000000000000000000000000000000000081526004016135759061548f565b60405180910390fd5b613587816134a4565b156135c7576040517f08c379a00000000000000000000000000000000000000000000000000000000081526004016135be906154f7565b60405180910390fd5b6135d45f838360016134e4565b6135dd816134a4565b1561361d576040517f08c379a0000000000000000000000000000000000000000000000000000000008152600401613614906154f7565b60405180910390fd5b600160045f8473ffffffffffffffffffffffffffffffffffffffff1673ffffffffffffffffffffffffffffffffffffffff1681526020019081526020015f205f82825401925050819055508160035f8381526020019081526020015f205f6101000a81548173ffffffffffffffffffffffffffffffffffffffff021916908373ffffffffffffffffffffffffffffffffffffffff160217905550808273ffffffffffffffffffffffffffffffffffffffff165f73ffffffffffffffffffffffffffffffffffffffff167fddf252ad1be2c89b69c2b068fc378daa952ba7f163c4a11628f55a4df523b3ef60405160405180910390a461371f5f838360016134ea565b5050565b61372c826134a4565b61376b576040517f08c379a000000000000000000000000000000000000000000000000000000000815260040161376290615585565b60405180910390fd5b8060075f8481526020019081526020015f20908161378991906149c6565b507ff8e1a15aba9398e019f0b49df1a4fde98ee17ae345cb5f6b5e2c27f5033e8ce7826040516137b99190613fc0565b60405180910390a15050565b5f6137e58473ffffffffffffffffffffffffffffffffffffffff16613a11565b1561393a578373ffffffffffffffffffffffffffffffffffffffff1663150b7a0261380e612b56565b8786866040518563ffffffff1660e01b815260040161383094939291906155f5565b6020604051808303815f875af192505050801561386b57506040513d601f19601f820116820180604052508101906138689190615653565b60015b6138ea573d805f8114613899576040519150601f19603f3d011682016040523d82523d5f602084013e61389e565b606091505b505f8151036138e2576040517f08c379a00000000000000000000000000000000000000000000000000000000081526004016138d990615427565b60405180910390fd5b805181602001fd5b63150b7a0260e01b7bffffffffffffffffffffffffffffffffffffffffffffffffffffffff1916817bffffffffffffffffffffffffffffffffffffffffffffffffffffffff19161491505061393f565b600190505b949350505050565b60605f600161395584613a33565b0190505f8167ffffffffffffffff8111156139735761397261421c565b5b6040519080825280601f01601f1916602001820160405280156139a55781602001600182028036833780820191505090505b5090505f82602001820190505b600115613a06578080600190039150507f3031323334353637383961626364656600000000000000000000000000000000600a86061a8153600a85816139fb576139fa61509e565b5b0494505f85036139b2575b819350505050919050565b5f808273ffffffffffffffffffffffffffffffffffffffff163b119050919050565b5f805f90507a184f03e93ff9f4daa797ed6e38ed64bf6a1f0100000000000000008310613a8f577a184f03e93ff9f4daa797ed6e38ed64bf6a1f0100000000000000008381613a8557613a8461509e565b5b0492506040810190505b6d04ee2d6d415b85acef81000000008310613acc576d04ee2d6d415b85acef81000000008381613ac257613ac161509e565b5b0492506020810190505b662386f26fc100008310613afb57662386f26fc100008381613af157613af061509e565b5b0492506010810190505b6305f5e1008310613b24576305f5e1008381613b1a57613b1961509e565b5b0492506008810190505b6127108310613b49576127108381613b3f57613b3e61509e565b5b0492506004810190505b60648310613b6c5760648381613b6257613b6161509e565b5b0492506002810190505b600a8310613b7b576001810190505b80915050919050565b5f604051905090565b5f80fd5b5f80fd5b5f7fffffffff0000000000000000000000000000000000000000000000000000000082169050919050565b613bc981613b95565b8114613bd3575f80fd5b50565b5f81359050613be481613bc0565b92915050565b5f60208284031215613bff57613bfe613b8d565b5b5f613c0c84828501613bd6565b91505092915050565b5f8115159050919050565b613c2981613c15565b82525050565b5f602082019050613c425f830184613c20565b92915050565b5f81519050919050565b5f82825260208201905092915050565b5f5b83811015613c7f578082015181840152602081019050613c64565b5f8484015250505050565b5f601f19601f8301169050919050565b5f613ca482613c48565b613cae8185613c52565b9350613cbe818560208601613c62565b613cc781613c8a565b840191505092915050565b5f6020820190508181035f830152613cea8184613c9a565b905092915050565b5f819050919050565b613d0481613cf2565b8114613d0e575f80fd5b50565b5f81359050613d1f81613cfb565b92915050565b5f60208284031215613d3a57613d39613b8d565b5b5f613d4784828501613d11565b91505092915050565b5f73ffffffffffffffffffffffffffffffffffffffff82169050919050565b5f613d7982613d50565b9050919050565b613d8981613d6f565b82525050565b5f602082019050613da25f830184613d80565b92915050565b613db181613d6f565b8114613dbb575f80fd5b50565b5f81359050613dcc81613da8565b92915050565b5f8060408385031215613de857613de7613b8d565b5b5f613df585828601613dbe565b9250506020613e0685828601613d11565b9150509250929050565b5f80fd5b5f80fd5b5f80fd5b5f8083601f840112613e3157613e30613e10565b5b8235905067ffffffffffffffff811115613e4e57613e4d613e14565b5b602083019150836001820283011115613e6a57613e69613e18565b5b9250929050565b5f805f60408486031215613e8857613e87613b8d565b5b5f613e9586828701613d11565b935050602084013567ffffffffffffffff811115613eb657613eb5613b91565b5b613ec286828701613e1c565b92509250509250925092565b5f805f60608486031215613ee557613ee4613b8d565b5b5f613ef286828701613dbe565b9350506020613f0386828701613dbe565b9250506040613f1486828701613d11565b9150509250925092565b5f60208284031215613f3357613f32613b8d565b5b5f613f4084828501613dbe565b91505092915050565b613f5281613c15565b8114613f5c575f80fd5b50565b5f81359050613f6d81613f49565b92915050565b5f8060408385031215613f8957613f88613b8d565b5b5f613f9685828601613d11565b9250506020613fa785828601613f5f565b9150509250929050565b613fba81613cf2565b82525050565b5f602082019050613fd35f830184613fb1565b92915050565b5f8060408385031215613fef57613fee613b8d565b5b5f613ffc85828601613d11565b925050602061400d85828601613dbe565b9150509250929050565b7f4e487b71000000000000000000000000000000000000000000000000000000005f52602160045260245ffd5b6006811061405557614054614017565b5b50565b5f81905061406582614044565b919050565b5f61407482614058565b9050919050565b6140848161406a565b82525050565b5f60ff82169050919050565b61409f8161408a565b82525050565b5f60e0820190506140b85f83018a613fb1565b81810360208301526140ca8189613c9a565b90506140d96040830188613fb1565b6140e6606083018761407b565b6140f36080830186614096565b61410060a0830185613d80565b61410d60c0830184613d80565b98975050505050505050565b5f805f606084860312156141305761412f613b8d565b5b5f61413d86828701613d11565b935050602061414e86828701613dbe565b925050604061415f86828701613dbe565b9150509250925092565b5f805f806060858703121561418157614180613b8d565b5b5f61418e87828801613d11565b945050602061419f87828801613dbe565b935050604085013567ffffffffffffffff8111156141c0576141bf613b91565b5b6141cc87828801613e1c565b925092505092959194509250565b5f80604083850312156141f0576141ef613b8d565b5b5f6141fd85828601613dbe565b925050602061420e85828601613f5f565b9150509250929050565b5f80fd5b7f4e487b71000000000000000000000000000000000000000000000000000000005f52604160045260245ffd5b61425282613c8a565b810181811067ffffffffffffffff821117156142715761427061421c565b5b80604052505050565b5f614283613b84565b905061428f8282614249565b919050565b5f67ffffffffffffffff8211156142ae576142ad61421c565b5b6142b782613c8a565b9050602081019050919050565b828183375f83830152505050565b5f6142e46142df84614294565b61427a565b905082815260208101848484011115614300576142ff614218565b5b61430b8482856142c4565b509392505050565b5f82601f83011261432757614326613e10565b5b81356143378482602086016142d2565b91505092915050565b5f805f806080858703121561435857614357613b8d565b5b5f61436587828801613dbe565b945050602061437687828801613dbe565b935050604061438787828801613d11565b925050606085013567ffffffffffffffff8111156143a8576143a7613b91565b5b6143b487828801614313565b91505092959194509250565b5f80604083850312156143d6576143d5613b8d565b5b5f6143e385828601613dbe565b92505060206143f485828601613dbe565b9150509250929050565b6144078161408a565b8114614411575f80fd5b50565b5f81359050614422816143fe565b92915050565b5f805f805f6080868803121561444157614440613b8d565b5b5f86013567ffffffffffffffff81111561445e5761445d613b91565b5b61446a88828901613e1c565b9550955050602061447d88828901613d11565b935050604061448e88828901614414565b925050606061449f88828901614414565b9150509295509295909350565b5f80604083850312156144c2576144c1613b8d565b5b5f6144cf85828601613d11565b92505060206144e085828601613d11565b9150509250929050565b5f6040820190508181035f8301526145028185613c9a565b90506145116020830184613d80565b9392505050565b7f4e487b71000000000000000000000000000000000000000000000000000000005f52602260045260245ffd5b5f600282049050600182168061455c57607f821691505b60208210810361456f5761456e614518565b5b50919050565b7f4552433732313a20617070726f76616c20746f2063757272656e74206f776e655f8201527f7200000000000000000000000000000000000000000000000000000000000000602082015250565b5f6145cf602183613c52565b91506145da82614575565b604082019050919050565b5f6020820190508181035f8301526145fc816145c3565b9050919050565b7f4552433732313a20617070726f76652063616c6c6572206973206e6f7420746f5f8201527f6b656e206f776e6572206f7220617070726f76656420666f7220616c6c000000602082015250565b5f61465d603d83613c52565b915061466882614603565b604082019050919050565b5f6020820190508181035f83015261468a81614651565b9050919050565b7f57726f6e672069642073656e74000000000000000000000000000000000000005f82015250565b5f6146c5600d83613c52565b91506146d082614691565b602082019050919050565b5f6020820190508181035f8301526146f2816146b9565b9050919050565b7f43616e6e6f7420626520656d70747900000000000000000000000000000000005f82015250565b5f61472d600f83613c52565b9150614738826146f9565b602082019050919050565b5f6020820190508181035f83015261475a81614721565b9050919050565b7f4e487b71000000000000000000000000000000000000000000000000000000005f52601160045260245ffd5b5f61479882613cf2565b91506147a383613cf2565b92508282039050818111156147bb576147ba614761565b5b92915050565b7f57616974203130730000000000000000000000000000000000000000000000005f82015250565b5f6147f5600883613c52565b9150614800826147c1565b602082019050919050565b5f6020820190508181035f830152614822816147e9565b9050919050565b5f819050815f5260205f209050919050565b5f6020601f8301049050919050565b5f82821b905092915050565b5f600883026148857fffffffffffffffffffffffffffffffffffffffffffffffffffffffffffffffff8261484a565b61488f868361484a565b95508019841693508086168417925050509392505050565b5f819050919050565b5f6148ca6148c56148c084613cf2565b6148a7565b613cf2565b9050919050565b5f819050919050565b6148e3836148b0565b6148f76148ef826148d1565b848454614856565b825550505050565b5f90565b61490b6148ff565b6149168184846148da565b505050565b5b818110156149395761492e5f82614903565b60018101905061491c565b5050565b601f82111561497e5761494f81614829565b6149588461483b565b81016020851015614967578190505b61497b6149738561483b565b83018261491b565b50505b505050565b5f82821c905092915050565b5f61499e5f1984600802614983565b1980831691505092915050565b5f6149b6838361498f565b9150826002028217905092915050565b6149cf82613c48565b67ffffffffffffffff8111156149e8576149e761421c565b5b6149f28254614545565b6149fd82828561493d565b5f60209050601f831160018114614a2e575f8415614a1c578287015190505b614a2685826149ab565b865550614a8d565b601f198416614a3c86614829565b5f5b82811015614a6357848901518255600182019150602085019450602081019050614a3e565b86831015614a805784890151614a7c601f89168261498f565b8355505b6001600288020188555050505b505050505050565b5f604082019050614aa85f830185613fb1565b614ab56020830184613d80565b9392505050565b7f4552433732313a2063616c6c6572206973206e6f7420746f6b656e206f776e655f8201527f72206f7220617070726f76656400000000000000000000000000000000000000602082015250565b5f614b16602d83613c52565b9150614b2182614abc565b604082019050919050565b5f6020820190508181035f830152614b4381614b0a565b9050919050565b7f43616e6e6f7420626520746865207a65726f20616464726573730000000000005f82015250565b5f614b7e601a83613c52565b9150614b8982614b4a565b602082019050919050565b5f6020820190508181035f830152614bab81614b72565b9050919050565b7f416c7265616479207265676973746572656400000000000000000000000000005f82015250565b5f614be6601283613c52565b9150614bf182614bb2565b602082019050919050565b5f6020820190508181035f830152614c1381614bda565b9050919050565b7f4552433732313a20696e76616c696420746f6b656e20494400000000000000005f82015250565b5f614c4e601883613c52565b9150614c5982614c1a565b602082019050919050565b5f6020820190508181035f830152614c7b81614c42565b9050919050565b7f4552433732313a2061646472657373207a65726f206973206e6f7420612076615f8201527f6c6964206f776e65720000000000000000000000000000000000000000000000602082015250565b5f614cdc602983613c52565b9150614ce782614c82565b604082019050919050565b5f6020820190508181035f830152614d0981614cd0565b9050919050565b7f4e487b71000000000000000000000000000000000000000000000000000000005f52603260045260245ffd5b5f614d478261408a565b91505f8203614d5957614d58614761565b5b600182039050919050565b7f4e6f7420746865206d616e6167657200000000000000000000000000000000005f82015250565b5f614d98600f83613c52565b9150614da382614d64565b602082019050919050565b5f6020820190508181035f830152614dc581614d8c565b9050919050565b7f53616d65206164647265737300000000000000000000000000000000000000005f82015250565b5f614e00600c83613c52565b9150614e0b82614dcc565b602082019050919050565b5f6020820190508181035f830152614e2d81614df4565b9050919050565b7f4e6f7420726567697374657265640000000000000000000000000000000000005f82015250565b5f614e68600e83613c52565b9150614e7382614e34565b602082019050919050565b5f6020820190508181035f830152614e9581614e5c565b9050919050565b5f614ea682613cf2565b91507fffffffffffffffffffffffffffffffffffffffffffffffffffffffffffffffff8203614ed857614ed7614761565b5b600182019050919050565b5f81905092915050565b5f614ef782613c48565b614f018185614ee3565b9350614f11818560208601613c62565b80840191505092915050565b5f614f288285614eed565b9150614f348284614eed565b91508190509392505050565b7f4f776e61626c653a206e6577206f776e657220697320746865207a65726f20615f8201527f6464726573730000000000000000000000000000000000000000000000000000602082015250565b5f614f9a602683613c52565b9150614fa582614f40565b604082019050919050565b5f6020820190508181035f830152614fc781614f8e565b9050919050565b7f466f7262696464656e00000000000000000000000000000000000000000000005f82015250565b5f615002600983613c52565b915061500d82614fce565b602082019050919050565b5f6020820190508181035f83015261502f81614ff6565b9050919050565b7f496e636f727265637420646174650000000000000000000000000000000000005f82015250565b5f61506a600e83613c52565b915061507582615036565b602082019050919050565b5f6020820190508181035f8301526150978161505e565b9050919050565b7f4e487b71000000000000000000000000000000000000000000000000000000005f52601260045260245ffd5b5f6150d58261408a565b91506150e08361408a565b9250826150f0576150ef61509e565b5b828206905092915050565b7f506c6179656420627920320000000000000000000000000000000000000000005f82015250565b5f61512f600b83613c52565b915061513a826150fb565b602082019050919050565b5f6020820190508181035f83015261515c81615123565b9050919050565b7f496e636f727265637420646966666963756c74790000000000000000000000005f82015250565b5f615197601483613c52565b91506151a282615163565b602082019050919050565b5f6020820190508181035f8301526151c48161518b565b9050919050565b7f4552433732313a207472616e736665722066726f6d20696e636f7272656374205f8201527f6f776e6572000000000000000000000000000000000000000000000000000000602082015250565b5f615225602583613c52565b9150615230826151cb565b604082019050919050565b5f6020820190508181035f83015261525281615219565b9050919050565b7f4552433732313a207472616e7366657220746f20746865207a65726f206164645f8201527f7265737300000000000000000000000000000000000000000000000000000000602082015250565b5f6152b3602483613c52565b91506152be82615259565b604082019050919050565b5f6020820190508181035f8301526152e0816152a7565b9050919050565b7f4f776e61626c653a2063616c6c6572206973206e6f7420746865206f776e65725f82015250565b5f61531b602083613c52565b9150615326826152e7565b602082019050919050565b5f6020820190508181035f8301526153488161530f565b9050919050565b7f4552433732313a20617070726f766520746f2063616c6c6572000000000000005f82015250565b5f615383601983613c52565b915061538e8261534f565b602082019050919050565b5f6020820190508181035f8301526153b081615377565b9050919050565b7f4552433732313a207472616e7366657220746f206e6f6e2045524337323152655f8201527f63656976657220696d706c656d656e7465720000000000000000000000000000602082015250565b5f615411603283613c52565b915061541c826153b7565b604082019050919050565b5f6020820190508181035f83015261543e81615405565b9050919050565b7f4552433732313a206d696e7420746f20746865207a65726f20616464726573735f82015250565b5f615479602083613c52565b915061548482615445565b602082019050919050565b5f6020820190508181035f8301526154a68161546d565b9050919050565b7f4552433732313a20746f6b656e20616c7265616479206d696e746564000000005f82015250565b5f6154e1601c83613c52565b91506154ec826154ad565b602082019050919050565b5f6020820190508181035f83015261550e816154d5565b9050919050565b7f45524337323155524953746f726167653a2055524920736574206f66206e6f6e5f8201527f6578697374656e7420746f6b656e000000000000000000000000000000000000602082015250565b5f61556f602e83613c52565b915061557a82615515565b604082019050919050565b5f6020820190508181035f83015261559c81615563565b9050919050565b5f81519050919050565b5f82825260208201905092915050565b5f6155c7826155a3565b6155d181856155ad565b93506155e1818560208601613c62565b6155ea81613c8a565b840191505092915050565b5f6080820190506156085f830187613d80565b6156156020830186613d80565b6156226040830185613fb1565b818103606083015261563481846155bd565b905095945050505050565b5f8151905061564d81613bc0565b92915050565b5f6020828403121561566857615667613b8d565b5b5f6156758482850161563f565b9150509291505056fe68747470733a2f2f676174657761792e70696e6174612e636c6f75642f697066732f516d657834754e376e6b586654365974325a71686d74636d5a4e6b536f44574a37534a56714a694d6156317a3479a2646970667358221220df128f20c99f8bbf7739543f92701ca94befdba6f2d28d490db67676a199c5fe64736f6c63430008140033",
  "linkReferences": {},
  "deployedLinkReferences": {}
}