{
  "_format": "hh-sol-artifact-1",
  "contractName": "PadelConnect",
  "sourceName": "contracts/PadelConnect.sol",
  "abi": [
    {
      "inputs": [],
      "name": "CompleteTournament",
      "type": "error"
    },
    {
      "inputs": [],
      "name": "ErrorDuringPayment",
      "type": "error"
    },
    {
      "inputs": [],
      "name": "RegistrationEnded",
      "type": "error"
    },
    {
      "anonymous": false,
      "inputs": [
        {
          "indexed": true,
          "internalType": "address",
          "name": "owner",
          "type": "address"
        },
        {
          "indexed": true,
          "internalType": "address",
          "name": "approved",
          "type": "address"
        },
        {
          "indexed": true,
          "internalType": "uint256",
          "name": "tokenId",
          "type": "uint256"
        }
      ],
      "name": "Approval",
      "type": "event"
    },
    {
      "anonymous": false,
      "inputs": [
        {
          "indexed": true,
          "internalType": "address",
          "name": "owner",
          "type": "address"
        },
        {
          "indexed": true,
          "internalType": "address",
          "name": "operator",
          "type": "address"
        },
        {
          "indexed": false,
          "internalType": "bool",
          "name": "approved",
          "type": "bool"
        }
      ],
      "name": "ApprovalForAll",
      "type": "event"
    },
    {
      "anonymous": false,
      "inputs": [
        {
          "indexed": false,
          "internalType": "uint256",
          "name": "_fromTokenId",
          "type": "uint256"
        },
        {
          "indexed": false,
          "internalType": "uint256",
          "name": "_toTokenId",
          "type": "uint256"
        }
      ],
      "name": "BatchMetadataUpdate",
      "type": "event"
    },
    {
      "anonymous": false,
      "inputs": [
        {
          "indexed": false,
          "internalType": "address",
          "name": "_address",
          "type": "address"
        }
      ],
      "name": "ManagerAdded",
      "type": "event"
    },
    {
      "anonymous": false,
      "inputs": [
        {
          "indexed": false,
          "internalType": "uint256",
          "name": "_tokenId",
          "type": "uint256"
        }
      ],
      "name": "MetadataUpdate",
      "type": "event"
    },
    {
      "anonymous": false,
      "inputs": [
        {
          "indexed": true,
          "internalType": "address",
          "name": "previousOwner",
          "type": "address"
        },
        {
          "indexed": true,
          "internalType": "address",
          "name": "newOwner",
          "type": "address"
        }
      ],
      "name": "OwnershipTransferred",
      "type": "event"
    },
    {
      "anonymous": false,
      "inputs": [
        {
          "indexed": false,
          "internalType": "uint256",
          "name": "tournamentId",
          "type": "uint256"
        },
        {
          "indexed": false,
          "internalType": "address",
          "name": "player",
          "type": "address"
        }
      ],
      "name": "PrivateCommentAdded",
      "type": "event"
    },
    {
      "anonymous": false,
      "inputs": [
        {
          "indexed": false,
          "internalType": "uint256",
          "name": "tournamentId",
          "type": "uint256"
        },
        {
          "indexed": false,
          "internalType": "address",
          "name": "player",
          "type": "address"
        }
      ],
      "name": "PrivateResponseAdded",
      "type": "event"
    },
    {
      "anonymous": false,
      "inputs": [
        {
          "indexed": false,
          "internalType": "uint256",
          "name": "tournamentId",
          "type": "uint256"
        }
      ],
      "name": "TournamentCommentAdded",
      "type": "event"
    },
    {
      "anonymous": false,
      "inputs": [
        {
          "indexed": false,
          "internalType": "uint256",
          "name": "id",
          "type": "uint256"
        }
      ],
      "name": "TournamentCreated",
      "type": "event"
    },
    {
      "anonymous": false,
      "inputs": [
        {
          "indexed": false,
          "internalType": "uint256",
          "name": "tournamentId",
          "type": "uint256"
        },
        {
          "indexed": false,
          "internalType": "address",
          "name": "player",
          "type": "address"
        }
      ],
      "name": "TournamentFollowed",
      "type": "event"
    },
    {
      "anonymous": false,
      "inputs": [
        {
          "indexed": true,
          "internalType": "address",
          "name": "from",
          "type": "address"
        },
        {
          "indexed": true,
          "internalType": "address",
          "name": "to",
          "type": "address"
        },
        {
          "indexed": true,
          "internalType": "uint256",
          "name": "tokenId",
          "type": "uint256"
        }
      ],
      "name": "Transfer",
      "type": "event"
    },
    {
      "inputs": [
        {
          "internalType": "uint256",
          "name": "_id",
          "type": "uint256"
        },
        {
          "internalType": "string",
          "name": "_message",
          "type": "string"
        }
      ],
      "name": "addComment",
      "outputs": [],
      "stateMutability": "nonpayable",
      "type": "function"
    },
    {
      "inputs": [
        {
          "internalType": "address",
          "name": "_address",
          "type": "address"
        }
      ],
      "name": "addManager",
      "outputs": [],
      "stateMutability": "nonpayable",
      "type": "function"
    },
    {
      "inputs": [
        {
          "internalType": "uint256",
          "name": "_id",
          "type": "uint256"
        },
        {
          "internalType": "string",
          "name": "_message",
          "type": "string"
        }
      ],
      "name": "addPrivateCommentToManager",
      "outputs": [],
      "stateMutability": "nonpayable",
      "type": "function"
    },
    {
      "inputs": [
        {
          "internalType": "uint256",
          "name": "_id",
          "type": "uint256"
        },
        {
          "internalType": "address",
          "name": "_player",
          "type": "address"
        },
        {
          "internalType": "string",
          "name": "_message",
          "type": "string"
        }
      ],
      "name": "addPrivateResponseToPlayer",
      "outputs": [],
      "stateMutability": "nonpayable",
      "type": "function"
    },
    {
      "inputs": [
        {
          "internalType": "string",
          "name": "_city",
          "type": "string"
        },
        {
          "internalType": "uint256",
          "name": "_date",
          "type": "uint256"
        },
        {
          "internalType": "uint8",
          "name": "_diff",
          "type": "uint8"
        },
        {
          "internalType": "uint8",
          "name": "_maxPlayers",
          "type": "uint8"
        }
      ],
      "name": "addTournament",
      "outputs": [],
      "stateMutability": "nonpayable",
      "type": "function"
    },
    {
      "inputs": [
        {
          "internalType": "uint256",
          "name": "_id",
          "type": "uint256"
        },
        {
          "internalType": "address",
          "name": "_winner1",
          "type": "address"
        },
        {
          "internalType": "address",
          "name": "_winner2",
          "type": "address"
        }
      ],
      "name": "addWinners",
      "outputs": [],
      "stateMutability": "nonpayable",
      "type": "function"
    },
    {
      "inputs": [
        {
          "internalType": "address",
          "name": "to",
          "type": "address"
        },
        {
          "internalType": "uint256",
          "name": "tokenId",
          "type": "uint256"
        }
      ],
      "name": "approve",
      "outputs": [],
      "stateMutability": "nonpayable",
      "type": "function"
    },
    {
      "inputs": [
        {
          "internalType": "address",
          "name": "owner",
          "type": "address"
        }
      ],
      "name": "balanceOf",
      "outputs": [
        {
          "internalType": "uint256",
          "name": "",
          "type": "uint256"
        }
      ],
      "stateMutability": "view",
      "type": "function"
    },
    {
      "inputs": [
        {
          "internalType": "uint256",
          "name": "",
          "type": "uint256"
        },
        {
          "internalType": "uint256",
          "name": "",
          "type": "uint256"
        }
      ],
      "name": "comments",
      "outputs": [
        {
          "internalType": "string",
          "name": "message",
          "type": "string"
        },
        {
          "internalType": "address",
          "name": "author",
          "type": "address"
        }
      ],
      "stateMutability": "view",
      "type": "function"
    },
    {
      "inputs": [
        {
          "internalType": "uint256",
          "name": "_id",
          "type": "uint256"
        },
        {
          "internalType": "bool",
          "name": "_follow",
          "type": "bool"
        }
      ],
      "name": "followTournament",
      "outputs": [],
      "stateMutability": "nonpayable",
      "type": "function"
    },
    {
      "inputs": [
        {
          "internalType": "uint256",
          "name": "",
          "type": "uint256"
        },
        {
          "internalType": "address",
          "name": "",
          "type": "address"
        }
      ],
      "name": "followedTournaments",
      "outputs": [
        {
          "internalType": "bool",
          "name": "",
          "type": "bool"
        }
      ],
      "stateMutability": "view",
      "type": "function"
    },
    {
      "inputs": [
        {
          "internalType": "uint256",
          "name": "tokenId",
          "type": "uint256"
        }
      ],
      "name": "getApproved",
      "outputs": [
        {
          "internalType": "address",
          "name": "",
          "type": "address"
        }
      ],
      "stateMutability": "view",
      "type": "function"
    },
    {
      "inputs": [
        {
          "internalType": "uint256",
          "name": "",
          "type": "uint256"
        }
      ],
      "name": "idComments",
      "outputs": [
        {
          "internalType": "uint256",
          "name": "",
          "type": "uint256"
        }
      ],
      "stateMutability": "view",
      "type": "function"
    },
    {
      "inputs": [
        {
          "internalType": "address",
          "name": "owner",
          "type": "address"
        },
        {
          "internalType": "address",
          "name": "operator",
          "type": "address"
        }
      ],
      "name": "isApprovedForAll",
      "outputs": [
        {
          "internalType": "bool",
          "name": "",
          "type": "bool"
        }
      ],
      "stateMutability": "view",
      "type": "function"
    },
    {
      "inputs": [
        {
          "internalType": "uint256",
          "name": "",
          "type": "uint256"
        }
      ],
      "name": "linkManagerTournament",
      "outputs": [
        {
          "internalType": "address",
          "name": "",
          "type": "address"
        }
      ],
      "stateMutability": "view",
      "type": "function"
    },
    {
      "inputs": [
        {
          "internalType": "address",
          "name": "",
          "type": "address"
        }
      ],
      "name": "managers",
      "outputs": [
        {
          "internalType": "bool",
          "name": "",
          "type": "bool"
        }
      ],
      "stateMutability": "view",
      "type": "function"
    },
    {
      "inputs": [],
      "name": "name",
      "outputs": [
        {
          "internalType": "string",
          "name": "",
          "type": "string"
        }
      ],
      "stateMutability": "view",
      "type": "function"
    },
    {
      "inputs": [],
      "name": "owner",
      "outputs": [
        {
          "internalType": "address",
          "name": "",
          "type": "address"
        }
      ],
      "stateMutability": "view",
      "type": "function"
    },
    {
      "inputs": [
        {
          "internalType": "uint256",
          "name": "tokenId",
          "type": "uint256"
        }
      ],
      "name": "ownerOf",
      "outputs": [
        {
          "internalType": "address",
          "name": "",
          "type": "address"
        }
      ],
      "stateMutability": "view",
      "type": "function"
    },
    {
      "inputs": [
        {
          "internalType": "uint256",
          "name": "",
          "type": "uint256"
        },
        {
          "internalType": "address",
          "name": "",
          "type": "address"
        }
      ],
      "name": "playersRegistered",
      "outputs": [
        {
          "internalType": "bool",
          "name": "",
          "type": "bool"
        }
      ],
      "stateMutability": "view",
      "type": "function"
    },
    {
      "inputs": [
        {
          "internalType": "uint256",
          "name": "_id",
          "type": "uint256"
        }
      ],
      "name": "registerPlayer",
      "outputs": [],
      "stateMutability": "nonpayable",
      "type": "function"
    },
    {
      "inputs": [],
      "name": "renounceOwnership",
      "outputs": [],
      "stateMutability": "nonpayable",
      "type": "function"
    },
    {
      "inputs": [
        {
          "internalType": "address",
          "name": "from",
          "type": "address"
        },
        {
          "internalType": "address",
          "name": "to",
          "type": "address"
        },
        {
          "internalType": "uint256",
          "name": "tokenId",
          "type": "uint256"
        }
      ],
      "name": "safeTransferFrom",
      "outputs": [],
      "stateMutability": "nonpayable",
      "type": "function"
    },
    {
      "inputs": [
        {
          "internalType": "address",
          "name": "from",
          "type": "address"
        },
        {
          "internalType": "address",
          "name": "to",
          "type": "address"
        },
        {
          "internalType": "uint256",
          "name": "tokenId",
          "type": "uint256"
        },
        {
          "internalType": "bytes",
          "name": "data",
          "type": "bytes"
        }
      ],
      "name": "safeTransferFrom",
      "outputs": [],
      "stateMutability": "nonpayable",
      "type": "function"
    },
    {
      "inputs": [
        {
          "internalType": "address",
          "name": "operator",
          "type": "address"
        },
        {
          "internalType": "bool",
          "name": "approved",
          "type": "bool"
        }
      ],
      "name": "setApprovalForAll",
      "outputs": [],
      "stateMutability": "nonpayable",
      "type": "function"
    },
    {
      "inputs": [
        {
          "internalType": "bytes4",
          "name": "interfaceId",
          "type": "bytes4"
        }
      ],
      "name": "supportsInterface",
      "outputs": [
        {
          "internalType": "bool",
          "name": "",
          "type": "bool"
        }
      ],
      "stateMutability": "view",
      "type": "function"
    },
    {
      "inputs": [],
      "name": "symbol",
      "outputs": [
        {
          "internalType": "string",
          "name": "",
          "type": "string"
        }
      ],
      "stateMutability": "view",
      "type": "function"
    },
    {
      "inputs": [
        {
          "internalType": "uint256",
          "name": "tokenId",
          "type": "uint256"
        }
      ],
      "name": "tokenURI",
      "outputs": [
        {
          "internalType": "string",
          "name": "",
          "type": "string"
        }
      ],
      "stateMutability": "view",
      "type": "function"
    },
    {
      "inputs": [
        {
          "internalType": "uint256",
          "name": "",
          "type": "uint256"
        }
      ],
      "name": "tournaments",
      "outputs": [
        {
          "internalType": "uint256",
          "name": "id",
          "type": "uint256"
        },
        {
          "internalType": "string",
          "name": "city",
          "type": "string"
        },
        {
          "internalType": "uint256",
          "name": "date",
          "type": "uint256"
        },
        {
          "internalType": "enum IPadelConnect.Difficulty",
          "name": "difficulty",
          "type": "uint8"
        },
        {
          "internalType": "uint8",
          "name": "registrationsAvailable",
          "type": "uint8"
        },
        {
          "internalType": "address",
          "name": "winner1",
          "type": "address"
        },
        {
          "internalType": "address",
          "name": "winner2",
          "type": "address"
        }
      ],
      "stateMutability": "view",
      "type": "function"
    },
    {
      "inputs": [
        {
          "internalType": "address",
          "name": "from",
          "type": "address"
        },
        {
          "internalType": "address",
          "name": "to",
          "type": "address"
        },
        {
          "internalType": "uint256",
          "name": "tokenId",
          "type": "uint256"
        }
      ],
      "name": "transferFrom",
      "outputs": [],
      "stateMutability": "nonpayable",
      "type": "function"
    },
    {
      "inputs": [
        {
          "internalType": "address",
          "name": "newOwner",
          "type": "address"
        }
      ],
      "name": "transferOwnership",
      "outputs": [],
      "stateMutability": "nonpayable",
      "type": "function"
    }
  ],
  "bytecode": "0x608060405234801562000010575f80fd5b506040518060400160405280600c81526020017f506164656c436f6e6e65637400000000000000000000000000000000000000008152506040518060400160405280600381526020017f50444c00000000000000000000000000000000000000000000000000000000008152506200009d62000091620000c960201b60201c565b620000d060201b60201c565b8160019081620000ae9190620003f5565b508060029081620000c09190620003f5565b505050620004d9565b5f33905090565b5f805f9054906101000a900473ffffffffffffffffffffffffffffffffffffffff169050815f806101000a81548173ffffffffffffffffffffffffffffffffffffffff021916908373ffffffffffffffffffffffffffffffffffffffff1602179055508173ffffffffffffffffffffffffffffffffffffffff168173ffffffffffffffffffffffffffffffffffffffff167f8be0079c531659141344cd1fd0a4f28419497f9722a3daafe3b4186f6b6457e060405160405180910390a35050565b5f81519050919050565b7f4e487b71000000000000000000000000000000000000000000000000000000005f52604160045260245ffd5b7f4e487b71000000000000000000000000000000000000000000000000000000005f52602260045260245ffd5b5f60028204905060018216806200020d57607f821691505b602082108103620002235762000222620001c8565b5b50919050565b5f819050815f5260205f209050919050565b5f6020601f8301049050919050565b5f82821b905092915050565b5f60088302620002877fffffffffffffffffffffffffffffffffffffffffffffffffffffffffffffffff826200024a565b6200029386836200024a565b95508019841693508086168417925050509392505050565b5f819050919050565b5f819050919050565b5f620002dd620002d7620002d184620002ab565b620002b4565b620002ab565b9050919050565b5f819050919050565b620002f883620002bd565b620003106200030782620002e4565b84845462000256565b825550505050565b5f90565b6200032662000318565b62000333818484620002ed565b505050565b5b818110156200035a576200034e5f826200031c565b60018101905062000339565b5050565b601f821115620003a957620003738162000229565b6200037e846200023b565b810160208510156200038e578190505b620003a66200039d856200023b565b83018262000338565b50505b505050565b5f82821c905092915050565b5f620003cb5f1984600802620003ae565b1980831691505092915050565b5f620003e58383620003ba565b9150826002028217905092915050565b620004008262000191565b67ffffffffffffffff8111156200041c576200041b6200019b565b5b620004288254620001f5565b620004358282856200035e565b5f60209050601f8311600181146200046b575f841562000456578287015190505b620004628582620003d8565b865550620004d1565b601f1984166200047b8662000229565b5f5b82811015620004a4578489015182556001820191506020850194506020810190506200047d565b86831015620004c45784890151620004c0601f891682620003ba565b8355505b6001600288020188555050505b505050505050565b61574480620004e75f395ff3fe608060405234801561000f575f80fd5b50600436106101e3575f3560e01c8063821644e61161010d578063b88d4fde116100a0578063f52ec1cb1161006f578063f52ec1cb1461059d578063f891e08b146105cd578063fc6c776f146105e9578063fdff9b4d1461061a576101e3565b8063b88d4fde14610505578063c87b56dd14610521578063e985e9c514610551578063f2fde38b14610581576101e3565b80639b0404ca116100dc5780639b0404ca146104815780639b535ead1461049d578063a22cb465146104cd578063aa7e5683146104e9576101e3565b8063821644e61461040d5780638a8da1f7146104295780638da5cb5b1461044557806395d89b4114610463576101e3565b806332e9f509116101855780636352211e116101545780636352211e1461036d57806370a082311461039d578063715018a6146103cd5780637503e1b7146103d7576101e3565b806332e9f509146102d55780633682fd03146102f15780633ae48eb81461032157806342842e0e14610351576101e3565b8063095ea7b3116101c1578063095ea7b3146102655780631d3f6c8a1461028157806323b872dd1461029d5780632d06177a146102b9576101e3565b806301ffc9a7146101e757806306fdde0314610217578063081812fc14610235575b5f80fd5b61020160048036038101906101fc9190613c2a565b61064a565b60405161020e9190613c6f565b60405180910390f35b61021f6106aa565b60405161022c9190613d12565b60405180910390f35b61024f600480360381019061024a9190613d65565b61073a565b60405161025c9190613dcf565b60405180910390f35b61027f600480360381019061027a9190613e12565b61077c565b005b61029b60048036038101906102969190613eb1565b610892565b005b6102b760048036038101906102b29190613f0e565b610bac565b005b6102d360048036038101906102ce9190613f5e565b610c0c565b005b6102ef60048036038101906102ea9190613fb3565b610d9d565b005b61030b60048036038101906103069190613d65565b610e8d565b6040516103189190614000565b60405180910390f35b61033b60048036038101906103369190614019565b610ea2565b6040516103489190613c6f565b60405180910390f35b61036b60048036038101906103669190613f0e565b610ecc565b005b61038760048036038101906103829190613d65565b610eeb565b6040516103949190613dcf565b60405180910390f35b6103b760048036038101906103b29190613f5e565b610f6f565b6040516103c49190614000565b60405180910390f35b6103d5611023565b005b6103f160048036038101906103ec9190613d65565b611036565b60405161040497969594939291906140e5565b60405180910390f35b61042760048036038101906104229190613d65565b611161565b005b610443600480360381019061043e9190614159565b611557565b005b61044d611a15565b60405161045a9190613dcf565b60405180910390f35b61046b611a3c565b6040516104789190613d12565b60405180910390f35b61049b600480360381019061049691906141a9565b611acc565b005b6104b760048036038101906104b29190614019565b611ef9565b6040516104c49190613c6f565b60405180910390f35b6104e760048036038101906104e2919061421a565b611f23565b005b61050360048036038101906104fe9190613eb1565b611f39565b005b61051f600480360381019061051a9190614380565b612235565b005b61053b60048036038101906105369190613d65565b612297565b6040516105489190613d12565b60405180910390f35b61056b60048036038101906105669190614400565b6123a1565b6040516105789190613c6f565b60405180910390f35b61059b60048036038101906105969190613f5e565b61242f565b005b6105b760048036038101906105b29190613d65565b6124b1565b6040516105c49190613dcf565b60405180910390f35b6105e760048036038101906105e29190614468565b6124e1565b005b61060360048036038101906105fe91906144ec565b61297d565b60405161061192919061452a565b60405180910390f35b610634600480360381019061062f9190613f5e565b612a4d565b6040516106419190613c6f565b60405180910390f35b5f634906490660e01b7bffffffffffffffffffffffffffffffffffffffffffffffffffffffff1916827bffffffffffffffffffffffffffffffffffffffffffffffffffffffff191614806106a357506106a282612a6a565b5b9050919050565b6060600180546106b990614585565b80601f01602080910402602001604051908101604052809291908181526020018280546106e590614585565b80156107305780601f1061070757610100808354040283529160200191610730565b820191905f5260205f20905b81548152906001019060200180831161071357829003601f168201915b5050505050905090565b5f61074482612b4b565b60055f8381526020019081526020015f205f9054906101000a900473ffffffffffffffffffffffffffffffffffffffff169050919050565b5f61078682610eeb565b90508073ffffffffffffffffffffffffffffffffffffffff168373ffffffffffffffffffffffffffffffffffffffff16036107f6576040517f08c379a00000000000000000000000000000000000000000000000000000000081526004016107ed90614625565b60405180910390fd5b8073ffffffffffffffffffffffffffffffffffffffff16610815612b96565b73ffffffffffffffffffffffffffffffffffffffff16148061084457506108438161083e612b96565b6123a1565b5b610883576040517f08c379a000000000000000000000000000000000000000000000000000000000815260040161087a906146b3565b60405180910390fd5b61088d8383612b9d565b505050565b82600c8054905081106108da576040517f08c379a00000000000000000000000000000000000000000000000000000000081526004016108d19061471b565b60405180910390fd5b82828080601f0160208091040260200160405190810160405280939291908181526020018383808284375f81840152601f19601f820116905080830192505050505050505f815111610961576040517f08c379a000000000000000000000000000000000000000000000000000000000815260040161095890614783565b60405180910390fd5b33600a4261096f91906147ce565b60125f3373ffffffffffffffffffffffffffffffffffffffff1673ffffffffffffffffffffffffffffffffffffffff1681526020019081526020015f2054106109ed576040517f08c379a00000000000000000000000000000000000000000000000000000000081526004016109e49061484b565b60405180910390fd5b60115f8781526020019081526020015f205f3373ffffffffffffffffffffffffffffffffffffffff1673ffffffffffffffffffffffffffffffffffffffff1681526020019081526020015f20604051806040016040528087878080601f0160208091040260200160405190810160405280939291908181526020018383808284375f81840152601f19601f8201169050808301925050505050505081526020013373ffffffffffffffffffffffffffffffffffffffff16815250908060018154018082558091505060019003905f5260205f2090600202015f909190919091505f820151815f019081610ae09190614a06565b506020820151816001015f6101000a81548173ffffffffffffffffffffffffffffffffffffffff021916908373ffffffffffffffffffffffffffffffffffffffff16021790555050504260125f3373ffffffffffffffffffffffffffffffffffffffff1673ffffffffffffffffffffffffffffffffffffffff1681526020019081526020015f20819055507fbfd6922fad2fc6dfcb1bf737a87580bdc38c8199bda4764006096c7ed70528168633604051610b9c929190614ad5565b60405180910390a1505050505050565b610bbd610bb7612b96565b82612c53565b610bfc576040517f08c379a0000000000000000000000000000000000000000000000000000000008152600401610bf390614b6c565b60405180910390fd5b610c07838383612ce7565b505050565b610c14612fd3565b805f73ffffffffffffffffffffffffffffffffffffffff168173ffffffffffffffffffffffffffffffffffffffff1603610c83576040517f08c379a0000000000000000000000000000000000000000000000000000000008152600401610c7a90614bd4565b60405180910390fd5b600a5f8373ffffffffffffffffffffffffffffffffffffffff1673ffffffffffffffffffffffffffffffffffffffff1681526020019081526020015f205f9054906101000a900460ff1615610d0d576040517f08c379a0000000000000000000000000000000000000000000000000000000008152600401610d0490614c3c565b60405180910390fd5b6001600a5f8473ffffffffffffffffffffffffffffffffffffffff1673ffffffffffffffffffffffffffffffffffffffff1681526020019081526020015f205f6101000a81548160ff0219169083151502179055507f3b4a40cccf2058c593542587329dd385be4f0b588db5471fbd9598e56dd7093a82604051610d919190613dcf565b60405180910390a15050565b81600c805490508110610de5576040517f08c379a0000000000000000000000000000000000000000000000000000000008152600401610ddc9061471b565b60405180910390fd5b81600e5f8581526020019081526020015f205f3373ffffffffffffffffffffffffffffffffffffffff1673ffffffffffffffffffffffffffffffffffffffff1681526020019081526020015f205f6101000a81548160ff0219169083151502179055508115610e88577fcebe1f0a5fde2bf224e75cda66447253a2b8003182e6074f2a65ec2b260080628333604051610e7f929190614ad5565b60405180910390a15b505050565b6010602052805f5260405f205f915090505481565b600e602052815f5260405f20602052805f5260405f205f915091509054906101000a900460ff1681565b610ee683838360405180602001604052805f815250612235565b505050565b5f80610ef683613051565b90505f73ffffffffffffffffffffffffffffffffffffffff168173ffffffffffffffffffffffffffffffffffffffff1603610f66576040517f08c379a0000000000000000000000000000000000000000000000000000000008152600401610f5d90614ca4565b60405180910390fd5b80915050919050565b5f8073ffffffffffffffffffffffffffffffffffffffff168273ffffffffffffffffffffffffffffffffffffffff1603610fde576040517f08c379a0000000000000000000000000000000000000000000000000000000008152600401610fd590614d32565b60405180910390fd5b60045f8373ffffffffffffffffffffffffffffffffffffffff1673ffffffffffffffffffffffffffffffffffffffff1681526020019081526020015f20549050919050565b61102b612fd3565b6110345f61308a565b565b600c8181548110611045575f80fd5b905f5260205f2090600502015f91509050805f01549080600101805461106a90614585565b80601f016020809104026020016040519081016040528092919081815260200182805461109690614585565b80156110e15780601f106110b8576101008083540402835291602001916110e1565b820191905f5260205f20905b8154815290600101906020018083116110c457829003601f168201915b505050505090806002015490806003015f9054906101000a900460ff16908060030160019054906101000a900460ff16908060030160029054906101000a900473ffffffffffffffffffffffffffffffffffffffff1690806004015f9054906101000a900473ffffffffffffffffffffffffffffffffffffffff16905087565b80600c8054905081106111a9576040517f08c379a00000000000000000000000000000000000000000000000000000000081526004016111a09061471b565b60405180910390fd5b600d5f8381526020019081526020015f205f3373ffffffffffffffffffffffffffffffffffffffff1673ffffffffffffffffffffffffffffffffffffffff1681526020019081526020015f205f9054906101000a900460ff1615611242576040517f08c379a000000000000000000000000000000000000000000000000000000000815260040161123990614c3c565b60405180910390fd5b5f600c838154811061125757611256614d50565b5b905f5260205f2090600502016040518060e00160405290815f820154815260200160018201805461128790614585565b80601f01602080910402602001604051908101604052809291908181526020018280546112b390614585565b80156112fe5780601f106112d5576101008083540402835291602001916112fe565b820191905f5260205f20905b8154815290600101906020018083116112e157829003601f168201915b5050505050815260200160028201548152602001600382015f9054906101000a900460ff16600581111561133557611334614057565b5b600581111561134757611346614057565b5b81526020016003820160019054906101000a900460ff1660ff1660ff1681526020016003820160029054906101000a900473ffffffffffffffffffffffffffffffffffffffff1673ffffffffffffffffffffffffffffffffffffffff1673ffffffffffffffffffffffffffffffffffffffff168152602001600482015f9054906101000a900473ffffffffffffffffffffffffffffffffffffffff1673ffffffffffffffffffffffffffffffffffffffff1673ffffffffffffffffffffffffffffffffffffffff168152505090504281604001511015611453576040517f2ee88f5000000000000000000000000000000000000000000000000000000000815260040160405180910390fd5b5f816080015160ff1603611493576040517f106e2afe00000000000000000000000000000000000000000000000000000000815260040160405180910390fd5b6001600d5f8581526020019081526020015f205f3373ffffffffffffffffffffffffffffffffffffffff1673ffffffffffffffffffffffffffffffffffffffff1681526020019081526020015f205f6101000a81548160ff02191690831515021790555080608001805161150690614d7d565b60ff16908160ff16815250508060800151600c848154811061152b5761152a614d50565b5b905f5260205f20906005020160030160016101000a81548160ff021916908360ff160217905550505050565b82600c80549050811061159f576040517f08c379a00000000000000000000000000000000000000000000000000000000081526004016115969061471b565b60405180910390fd5b83338073ffffffffffffffffffffffffffffffffffffffff16600b5f8481526020019081526020015f205f9054906101000a900473ffffffffffffffffffffffffffffffffffffffff1673ffffffffffffffffffffffffffffffffffffffff161461163f576040517f08c379a000000000000000000000000000000000000000000000000000000000815260040161163690614dee565b60405180910390fd5b845f73ffffffffffffffffffffffffffffffffffffffff168173ffffffffffffffffffffffffffffffffffffffff16036116ae576040517f08c379a00000000000000000000000000000000000000000000000000000000081526004016116a590614bd4565b60405180910390fd5b845f73ffffffffffffffffffffffffffffffffffffffff168173ffffffffffffffffffffffffffffffffffffffff160361171d576040517f08c379a000000000000000000000000000000000000000000000000000000000815260040161171490614bd4565b60405180910390fd5b8573ffffffffffffffffffffffffffffffffffffffff168773ffffffffffffffffffffffffffffffffffffffff160361178b576040517f08c379a000000000000000000000000000000000000000000000000000000000815260040161178290614e56565b60405180910390fd5b600d5f8981526020019081526020015f205f8873ffffffffffffffffffffffffffffffffffffffff1673ffffffffffffffffffffffffffffffffffffffff1681526020019081526020015f205f9054906101000a900460ff1680156118455750600d5f8981526020019081526020015f205f8773ffffffffffffffffffffffffffffffffffffffff1673ffffffffffffffffffffffffffffffffffffffff1681526020019081526020015f205f9054906101000a900460ff165b611884576040517f08c379a000000000000000000000000000000000000000000000000000000000815260040161187b90614ebe565b60405180910390fd5b86600c898154811061189957611898614d50565b5b905f5260205f20906005020160030160026101000a81548173ffffffffffffffffffffffffffffffffffffffff021916908373ffffffffffffffffffffffffffffffffffffffff16021790555085600c89815481106118fb576118fa614d50565b5b905f5260205f2090600502016004015f6101000a81548173ffffffffffffffffffffffffffffffffffffffff021916908373ffffffffffffffffffffffffffffffffffffffff1602179055505f600c898154811061195c5761195b614d50565b5b905f5260205f209060050201600101805461197690614585565b80601f01602080910402602001604051908101604052809291908181526020018280546119a290614585565b80156119ed5780601f106119c4576101008083540402835291602001916119ed565b820191905f5260205f20905b8154815290600101906020018083116119d057829003601f168201915b505050505090506119ff888a8361314b565b611a0a878a8361314b565b505050505050505050565b5f805f9054906101000a900473ffffffffffffffffffffffffffffffffffffffff16905090565b606060028054611a4b90614585565b80601f0160208091040260200160405190810160405280929190818152602001828054611a7790614585565b8015611ac25780601f10611a9957610100808354040283529160200191611ac2565b820191905f5260205f20905b815481529060010190602001808311611aa557829003601f168201915b5050505050905090565b83600c805490508110611b14576040517f08c379a0000000000000000000000000000000000000000000000000000000008152600401611b0b9061471b565b60405180910390fd5b84338073ffffffffffffffffffffffffffffffffffffffff16600b5f8481526020019081526020015f205f9054906101000a900473ffffffffffffffffffffffffffffffffffffffff1673ffffffffffffffffffffffffffffffffffffffff1614611bb4576040517f08c379a0000000000000000000000000000000000000000000000000000000008152600401611bab90614dee565b60405180910390fd5b855f73ffffffffffffffffffffffffffffffffffffffff168173ffffffffffffffffffffffffffffffffffffffff1603611c23576040517f08c379a0000000000000000000000000000000000000000000000000000000008152600401611c1a90614bd4565b60405180910390fd5b85858080601f0160208091040260200160405190810160405280939291908181526020018383808284375f81840152601f19601f820116905080830192505050505050505f815111611caa576040517f08c379a0000000000000000000000000000000000000000000000000000000008152600401611ca190614783565b60405180910390fd5b33600a42611cb891906147ce565b60125f3373ffffffffffffffffffffffffffffffffffffffff1673ffffffffffffffffffffffffffffffffffffffff1681526020019081526020015f205410611d36576040517f08c379a0000000000000000000000000000000000000000000000000000000008152600401611d2d9061484b565b60405180910390fd5b60115f8b81526020019081526020015f205f8a73ffffffffffffffffffffffffffffffffffffffff1673ffffffffffffffffffffffffffffffffffffffff1681526020019081526020015f2060405180604001604052808a8a8080601f0160208091040260200160405190810160405280939291908181526020018383808284375f81840152601f19601f8201169050808301925050505050505081526020013373ffffffffffffffffffffffffffffffffffffffff16815250908060018154018082558091505060019003905f5260205f2090600202015f909190919091505f820151815f019081611e299190614a06565b506020820151816001015f6101000a81548173ffffffffffffffffffffffffffffffffffffffff021916908373ffffffffffffffffffffffffffffffffffffffff16021790555050504260125f3373ffffffffffffffffffffffffffffffffffffffff1673ffffffffffffffffffffffffffffffffffffffff1681526020019081526020015f20819055507f6c273d133e6c6367d40972f8ef51fc71789ea8bc667e662342cbecab4f46218c8a8a604051611ee5929190614ad5565b60405180910390a150505050505050505050565b600d602052815f5260405f20602052805f5260405f205f915091509054906101000a900460ff1681565b611f35611f2e612b96565b838361323d565b5050565b82600c805490508110611f81576040517f08c379a0000000000000000000000000000000000000000000000000000000008152600401611f789061471b565b60405180910390fd5b82828080601f0160208091040260200160405190810160405280939291908181526020018383808284375f81840152601f19601f820116905080830192505050505050505f815111612008576040517f08c379a0000000000000000000000000000000000000000000000000000000008152600401611fff90614783565b60405180910390fd5b33600a4261201691906147ce565b60125f3373ffffffffffffffffffffffffffffffffffffffff1673ffffffffffffffffffffffffffffffffffffffff1681526020019081526020015f205410612094576040517f08c379a000000000000000000000000000000000000000000000000000000000815260040161208b9061484b565b60405180910390fd5b604051806040016040528086868080601f0160208091040260200160405190810160405280939291908181526020018383808284375f81840152601f19601f8201169050808301925050505050505081526020013373ffffffffffffffffffffffffffffffffffffffff16815250600f5f8881526020019081526020015f205f60105f8a81526020019081526020015f205481526020019081526020015f205f820151815f0190816121469190614a06565b506020820151816001015f6101000a81548173ffffffffffffffffffffffffffffffffffffffff021916908373ffffffffffffffffffffffffffffffffffffffff16021790555090505060105f8781526020019081526020015f205f81546121ad90614edc565b919050819055504260125f3373ffffffffffffffffffffffffffffffffffffffff1673ffffffffffffffffffffffffffffffffffffffff1681526020019081526020015f20819055507f3021694d1ef819d2b9bc13c595d4f75437b6bbbb2dd33e9f2a9df24534f6b559866040516122259190614000565b60405180910390a1505050505050565b612246612240612b96565b83612c53565b612285576040517f08c379a000000000000000000000000000000000000000000000000000000000815260040161227c90614b6c565b60405180910390fd5b612291848484846133a4565b50505050565b60606122a282612b4b565b5f60075f8481526020019081526020015f2080546122bf90614585565b80601f01602080910402602001604051908101604052809291908181526020018280546122eb90614585565b80156123365780601f1061230d57610100808354040283529160200191612336565b820191905f5260205f20905b81548152906001019060200180831161231957829003601f168201915b505050505090505f612346613400565b90505f81510361235a57819250505061239c565b5f8251111561238e578082604051602001612376929190614f5d565b6040516020818303038152906040529250505061239c565b61239784613416565b925050505b919050565b5f60065f8473ffffffffffffffffffffffffffffffffffffffff1673ffffffffffffffffffffffffffffffffffffffff1681526020019081526020015f205f8373ffffffffffffffffffffffffffffffffffffffff1673ffffffffffffffffffffffffffffffffffffffff1681526020019081526020015f205f9054906101000a900460ff16905092915050565b612437612fd3565b5f73ffffffffffffffffffffffffffffffffffffffff168173ffffffffffffffffffffffffffffffffffffffff16036124a5576040517f08c379a000000000000000000000000000000000000000000000000000000000815260040161249c90614ff0565b60405180910390fd5b6124ae8161308a565b50565b600b602052805f5260405f205f915054906101000a900473ffffffffffffffffffffffffffffffffffffffff1681565b600a5f3373ffffffffffffffffffffffffffffffffffffffff1673ffffffffffffffffffffffffffffffffffffffff1681526020019081526020015f205f9054906101000a900460ff1661256a576040517f08c379a000000000000000000000000000000000000000000000000000000000815260040161256190615058565b60405180910390fd5b84848080601f0160208091040260200160405190810160405280939291908181526020018383808284375f81840152601f19601f820116905080830192505050505050505f8151116125f1576040517f08c379a00000000000000000000000000000000000000000000000000000000081526004016125e890614783565b60405180910390fd5b428411612633576040517f08c379a000000000000000000000000000000000000000000000000000000000815260040161262a906150c0565b60405180910390fd5b5f8260ff1611801561265357505f60028361264e919061510b565b60ff16145b612692576040517f08c379a000000000000000000000000000000000000000000000000000000000815260040161268990615185565b60405180910390fd5b6005808111156126a5576126a4614057565b5b8360ff1611156126ea576040517f08c379a00000000000000000000000000000000000000000000000000000000081526004016126e1906151ed565b60405180910390fd5b5f600c805490509050600c6040518060e0016040528083815260200189898080601f0160208091040260200160405190810160405280939291908181526020018383808284375f81840152601f19601f8201169050808301925050505050505081526020018781526020018660ff16600581111561276b5761276a614057565b5b600581111561277d5761277c614057565b5b81526020018560ff1681526020015f73ffffffffffffffffffffffffffffffffffffffff1681526020015f73ffffffffffffffffffffffffffffffffffffffff16815250908060018154018082558091505060019003905f5260205f2090600502015f909190919091505f820151815f015560208201518160010190816128049190614a06565b50604082015181600201556060820151816003015f6101000a81548160ff0219169083600581111561283957612838614057565b5b021790555060808201518160030160016101000a81548160ff021916908360ff16021790555060a08201518160030160026101000a81548173ffffffffffffffffffffffffffffffffffffffff021916908373ffffffffffffffffffffffffffffffffffffffff16021790555060c0820151816004015f6101000a81548173ffffffffffffffffffffffffffffffffffffffff021916908373ffffffffffffffffffffffffffffffffffffffff160217905550505033600b5f8381526020019081526020015f205f6101000a81548173ffffffffffffffffffffffffffffffffffffffff021916908373ffffffffffffffffffffffffffffffffffffffff1602179055507f113d32d0b7aec15a8c7f50af4cb42f4695e5b95524ed69519ac88d6c1f1f40f68160405161296c9190614000565b60405180910390a150505050505050565b600f602052815f5260405f20602052805f5260405f205f9150915050805f0180546129a790614585565b80601f01602080910402602001604051908101604052809291908181526020018280546129d390614585565b8015612a1e5780601f106129f557610100808354040283529160200191612a1e565b820191905f5260205f20905b815481529060010190602001808311612a0157829003601f168201915b505050505090806001015f9054906101000a900473ffffffffffffffffffffffffffffffffffffffff16905082565b600a602052805f5260405f205f915054906101000a900460ff1681565b5f7f80ac58cd000000000000000000000000000000000000000000000000000000007bffffffffffffffffffffffffffffffffffffffffffffffffffffffff1916827bffffffffffffffffffffffffffffffffffffffffffffffffffffffff19161480612b3457507f5b5e139f000000000000000000000000000000000000000000000000000000007bffffffffffffffffffffffffffffffffffffffffffffffffffffffff1916827bffffffffffffffffffffffffffffffffffffffffffffffffffffffff1916145b80612b445750612b438261347b565b5b9050919050565b612b54816134e4565b612b93576040517f08c379a0000000000000000000000000000000000000000000000000000000008152600401612b8a90614ca4565b60405180910390fd5b50565b5f33905090565b8160055f8381526020019081526020015f205f6101000a81548173ffffffffffffffffffffffffffffffffffffffff021916908373ffffffffffffffffffffffffffffffffffffffff160217905550808273ffffffffffffffffffffffffffffffffffffffff16612c0d83610eeb565b73ffffffffffffffffffffffffffffffffffffffff167f8c5be1e5ebec7d5bd14f71427d1e84f3dd0314c0f7b2291e5b200ac8c7c3b92560405160405180910390a45050565b5f80612c5e83610eeb565b90508073ffffffffffffffffffffffffffffffffffffffff168473ffffffffffffffffffffffffffffffffffffffff161480612ca05750612c9f81856123a1565b5b80612cde57508373ffffffffffffffffffffffffffffffffffffffff16612cc68461073a565b73ffffffffffffffffffffffffffffffffffffffff16145b91505092915050565b8273ffffffffffffffffffffffffffffffffffffffff16612d0782610eeb565b73ffffffffffffffffffffffffffffffffffffffff1614612d5d576040517f08c379a0000000000000000000000000000000000000000000000000000000008152600401612d549061527b565b60405180910390fd5b5f73ffffffffffffffffffffffffffffffffffffffff168273ffffffffffffffffffffffffffffffffffffffff1603612dcb576040517f08c379a0000000000000000000000000000000000000000000000000000000008152600401612dc290615309565b60405180910390fd5b612dd88383836001613524565b8273ffffffffffffffffffffffffffffffffffffffff16612df882610eeb565b73ffffffffffffffffffffffffffffffffffffffff1614612e4e576040517f08c379a0000000000000000000000000000000000000000000000000000000008152600401612e459061527b565b60405180910390fd5b60055f8281526020019081526020015f205f6101000a81549073ffffffffffffffffffffffffffffffffffffffff0219169055600160045f8573ffffffffffffffffffffffffffffffffffffffff1673ffffffffffffffffffffffffffffffffffffffff1681526020019081526020015f205f8282540392505081905550600160045f8473ffffffffffffffffffffffffffffffffffffffff1673ffffffffffffffffffffffffffffffffffffffff1681526020019081526020015f205f82825401925050819055508160035f8381526020019081526020015f205f6101000a81548173ffffffffffffffffffffffffffffffffffffffff021916908373ffffffffffffffffffffffffffffffffffffffff160217905550808273ffffffffffffffffffffffffffffffffffffffff168473ffffffffffffffffffffffffffffffffffffffff167fddf252ad1be2c89b69c2b068fc378daa952ba7f163c4a11628f55a4df523b3ef60405160405180910390a4612fce838383600161352a565b505050565b612fdb612b96565b73ffffffffffffffffffffffffffffffffffffffff16612ff9611a15565b73ffffffffffffffffffffffffffffffffffffffff161461304f576040517f08c379a000000000000000000000000000000000000000000000000000000000815260040161304690615371565b60405180910390fd5b565b5f60035f8381526020019081526020015f205f9054906101000a900473ffffffffffffffffffffffffffffffffffffffff169050919050565b5f805f9054906101000a900473ffffffffffffffffffffffffffffffffffffffff169050815f806101000a81548173ffffffffffffffffffffffffffffffffffffffff021916908373ffffffffffffffffffffffffffffffffffffffff1602179055508173ffffffffffffffffffffffffffffffffffffffff168173ffffffffffffffffffffffffffffffffffffffff167f8be0079c531659141344cd1fd0a4f28419497f9722a3daafe3b4186f6b6457e060405160405180910390a35050565b6131556008613530565b5f6131606008613544565b905060405180606001604052808481526020018381526020018573ffffffffffffffffffffffffffffffffffffffff1681525060095f8381526020019081526020015f205f820151815f015560208201518160010190816131c19190614a06565b506040820151816002015f6101000a81548173ffffffffffffffffffffffffffffffffffffffff021916908373ffffffffffffffffffffffffffffffffffffffff1602179055509050506132158482613550565b613237816040518060800160405280605081526020016156bf60509139613763565b50505050565b8173ffffffffffffffffffffffffffffffffffffffff168373ffffffffffffffffffffffffffffffffffffffff16036132ab576040517f08c379a00000000000000000000000000000000000000000000000000000000081526004016132a2906153d9565b60405180910390fd5b8060065f8573ffffffffffffffffffffffffffffffffffffffff1673ffffffffffffffffffffffffffffffffffffffff1681526020019081526020015f205f8473ffffffffffffffffffffffffffffffffffffffff1673ffffffffffffffffffffffffffffffffffffffff1681526020019081526020015f205f6101000a81548160ff0219169083151502179055508173ffffffffffffffffffffffffffffffffffffffff168373ffffffffffffffffffffffffffffffffffffffff167f17307eab39ab6107e8899845ad3d59bd9653f200f220920489ca2b5937696c31836040516133979190613c6f565b60405180910390a3505050565b6133af848484612ce7565b6133bb84848484613805565b6133fa576040517f08c379a00000000000000000000000000000000000000000000000000000000081526004016133f190615467565b60405180910390fd5b50505050565b606060405180602001604052805f815250905090565b606061342182612b4b565b5f61342a613400565b90505f8151116134485760405180602001604052805f815250613473565b8061345284613987565b604051602001613463929190614f5d565b6040516020818303038152906040525b915050919050565b5f7f01ffc9a7000000000000000000000000000000000000000000000000000000007bffffffffffffffffffffffffffffffffffffffffffffffffffffffff1916827bffffffffffffffffffffffffffffffffffffffffffffffffffffffff1916149050919050565b5f8073ffffffffffffffffffffffffffffffffffffffff1661350583613051565b73ffffffffffffffffffffffffffffffffffffffff1614159050919050565b50505050565b50505050565b6001815f015f828254019250508190555050565b5f815f01549050919050565b5f73ffffffffffffffffffffffffffffffffffffffff168273ffffffffffffffffffffffffffffffffffffffff16036135be576040517f08c379a00000000000000000000000000000000000000000000000000000000081526004016135b5906154cf565b60405180910390fd5b6135c7816134e4565b15613607576040517f08c379a00000000000000000000000000000000000000000000000000000000081526004016135fe90615537565b60405180910390fd5b6136145f83836001613524565b61361d816134e4565b1561365d576040517f08c379a000000000000000000000000000000000000000000000000000000000815260040161365490615537565b60405180910390fd5b600160045f8473ffffffffffffffffffffffffffffffffffffffff1673ffffffffffffffffffffffffffffffffffffffff1681526020019081526020015f205f82825401925050819055508160035f8381526020019081526020015f205f6101000a81548173ffffffffffffffffffffffffffffffffffffffff021916908373ffffffffffffffffffffffffffffffffffffffff160217905550808273ffffffffffffffffffffffffffffffffffffffff165f73ffffffffffffffffffffffffffffffffffffffff167fddf252ad1be2c89b69c2b068fc378daa952ba7f163c4a11628f55a4df523b3ef60405160405180910390a461375f5f8383600161352a565b5050565b61376c826134e4565b6137ab576040517f08c379a00000000000000000000000000000000000000000000000000000000081526004016137a2906155c5565b60405180910390fd5b8060075f8481526020019081526020015f2090816137c99190614a06565b507ff8e1a15aba9398e019f0b49df1a4fde98ee17ae345cb5f6b5e2c27f5033e8ce7826040516137f99190614000565b60405180910390a15050565b5f6138258473ffffffffffffffffffffffffffffffffffffffff16613a51565b1561397a578373ffffffffffffffffffffffffffffffffffffffff1663150b7a0261384e612b96565b8786866040518563ffffffff1660e01b81526004016138709493929190615635565b6020604051808303815f875af19250505080156138ab57506040513d601f19601f820116820180604052508101906138a89190615693565b60015b61392a573d805f81146138d9576040519150601f19603f3d011682016040523d82523d5f602084013e6138de565b606091505b505f815103613922576040517f08c379a000000000000000000000000000000000000000000000000000000000815260040161391990615467565b60405180910390fd5b805181602001fd5b63150b7a0260e01b7bffffffffffffffffffffffffffffffffffffffffffffffffffffffff1916817bffffffffffffffffffffffffffffffffffffffffffffffffffffffff19161491505061397f565b600190505b949350505050565b60605f600161399584613a73565b0190505f8167ffffffffffffffff8111156139b3576139b261425c565b5b6040519080825280601f01601f1916602001820160405280156139e55781602001600182028036833780820191505090505b5090505f82602001820190505b600115613a46578080600190039150507f3031323334353637383961626364656600000000000000000000000000000000600a86061a8153600a8581613a3b57613a3a6150de565b5b0494505f85036139f2575b819350505050919050565b5f808273ffffffffffffffffffffffffffffffffffffffff163b119050919050565b5f805f90507a184f03e93ff9f4daa797ed6e38ed64bf6a1f0100000000000000008310613acf577a184f03e93ff9f4daa797ed6e38ed64bf6a1f0100000000000000008381613ac557613ac46150de565b5b0492506040810190505b6d04ee2d6d415b85acef81000000008310613b0c576d04ee2d6d415b85acef81000000008381613b0257613b016150de565b5b0492506020810190505b662386f26fc100008310613b3b57662386f26fc100008381613b3157613b306150de565b5b0492506010810190505b6305f5e1008310613b64576305f5e1008381613b5a57613b596150de565b5b0492506008810190505b6127108310613b89576127108381613b7f57613b7e6150de565b5b0492506004810190505b60648310613bac5760648381613ba257613ba16150de565b5b0492506002810190505b600a8310613bbb576001810190505b80915050919050565b5f604051905090565b5f80fd5b5f80fd5b5f7fffffffff0000000000000000000000000000000000000000000000000000000082169050919050565b613c0981613bd5565b8114613c13575f80fd5b50565b5f81359050613c2481613c00565b92915050565b5f60208284031215613c3f57613c3e613bcd565b5b5f613c4c84828501613c16565b91505092915050565b5f8115159050919050565b613c6981613c55565b82525050565b5f602082019050613c825f830184613c60565b92915050565b5f81519050919050565b5f82825260208201905092915050565b5f5b83811015613cbf578082015181840152602081019050613ca4565b5f8484015250505050565b5f601f19601f8301169050919050565b5f613ce482613c88565b613cee8185613c92565b9350613cfe818560208601613ca2565b613d0781613cca565b840191505092915050565b5f6020820190508181035f830152613d2a8184613cda565b905092915050565b5f819050919050565b613d4481613d32565b8114613d4e575f80fd5b50565b5f81359050613d5f81613d3b565b92915050565b5f60208284031215613d7a57613d79613bcd565b5b5f613d8784828501613d51565b91505092915050565b5f73ffffffffffffffffffffffffffffffffffffffff82169050919050565b5f613db982613d90565b9050919050565b613dc981613daf565b82525050565b5f602082019050613de25f830184613dc0565b92915050565b613df181613daf565b8114613dfb575f80fd5b50565b5f81359050613e0c81613de8565b92915050565b5f8060408385031215613e2857613e27613bcd565b5b5f613e3585828601613dfe565b9250506020613e4685828601613d51565b9150509250929050565b5f80fd5b5f80fd5b5f80fd5b5f8083601f840112613e7157613e70613e50565b5b8235905067ffffffffffffffff811115613e8e57613e8d613e54565b5b602083019150836001820283011115613eaa57613ea9613e58565b5b9250929050565b5f805f60408486031215613ec857613ec7613bcd565b5b5f613ed586828701613d51565b935050602084013567ffffffffffffffff811115613ef657613ef5613bd1565b5b613f0286828701613e5c565b92509250509250925092565b5f805f60608486031215613f2557613f24613bcd565b5b5f613f3286828701613dfe565b9350506020613f4386828701613dfe565b9250506040613f5486828701613d51565b9150509250925092565b5f60208284031215613f7357613f72613bcd565b5b5f613f8084828501613dfe565b91505092915050565b613f9281613c55565b8114613f9c575f80fd5b50565b5f81359050613fad81613f89565b92915050565b5f8060408385031215613fc957613fc8613bcd565b5b5f613fd685828601613d51565b9250506020613fe785828601613f9f565b9150509250929050565b613ffa81613d32565b82525050565b5f6020820190506140135f830184613ff1565b92915050565b5f806040838503121561402f5761402e613bcd565b5b5f61403c85828601613d51565b925050602061404d85828601613dfe565b9150509250929050565b7f4e487b71000000000000000000000000000000000000000000000000000000005f52602160045260245ffd5b6006811061409557614094614057565b5b50565b5f8190506140a582614084565b919050565b5f6140b482614098565b9050919050565b6140c4816140aa565b82525050565b5f60ff82169050919050565b6140df816140ca565b82525050565b5f60e0820190506140f85f83018a613ff1565b818103602083015261410a8189613cda565b90506141196040830188613ff1565b61412660608301876140bb565b61413360808301866140d6565b61414060a0830185613dc0565b61414d60c0830184613dc0565b98975050505050505050565b5f805f606084860312156141705761416f613bcd565b5b5f61417d86828701613d51565b935050602061418e86828701613dfe565b925050604061419f86828701613dfe565b9150509250925092565b5f805f80606085870312156141c1576141c0613bcd565b5b5f6141ce87828801613d51565b94505060206141df87828801613dfe565b935050604085013567ffffffffffffffff811115614200576141ff613bd1565b5b61420c87828801613e5c565b925092505092959194509250565b5f80604083850312156142305761422f613bcd565b5b5f61423d85828601613dfe565b925050602061424e85828601613f9f565b9150509250929050565b5f80fd5b7f4e487b71000000000000000000000000000000000000000000000000000000005f52604160045260245ffd5b61429282613cca565b810181811067ffffffffffffffff821117156142b1576142b061425c565b5b80604052505050565b5f6142c3613bc4565b90506142cf8282614289565b919050565b5f67ffffffffffffffff8211156142ee576142ed61425c565b5b6142f782613cca565b9050602081019050919050565b828183375f83830152505050565b5f61432461431f846142d4565b6142ba565b9050828152602081018484840111156143405761433f614258565b5b61434b848285614304565b509392505050565b5f82601f83011261436757614366613e50565b5b8135614377848260208601614312565b91505092915050565b5f805f806080858703121561439857614397613bcd565b5b5f6143a587828801613dfe565b94505060206143b687828801613dfe565b93505060406143c787828801613d51565b925050606085013567ffffffffffffffff8111156143e8576143e7613bd1565b5b6143f487828801614353565b91505092959194509250565b5f806040838503121561441657614415613bcd565b5b5f61442385828601613dfe565b925050602061443485828601613dfe565b9150509250929050565b614447816140ca565b8114614451575f80fd5b50565b5f813590506144628161443e565b92915050565b5f805f805f6080868803121561448157614480613bcd565b5b5f86013567ffffffffffffffff81111561449e5761449d613bd1565b5b6144aa88828901613e5c565b955095505060206144bd88828901613d51565b93505060406144ce88828901614454565b92505060606144df88828901614454565b9150509295509295909350565b5f806040838503121561450257614501613bcd565b5b5f61450f85828601613d51565b925050602061452085828601613d51565b9150509250929050565b5f6040820190508181035f8301526145428185613cda565b90506145516020830184613dc0565b9392505050565b7f4e487b71000000000000000000000000000000000000000000000000000000005f52602260045260245ffd5b5f600282049050600182168061459c57607f821691505b6020821081036145af576145ae614558565b5b50919050565b7f4552433732313a20617070726f76616c20746f2063757272656e74206f776e655f8201527f7200000000000000000000000000000000000000000000000000000000000000602082015250565b5f61460f602183613c92565b915061461a826145b5565b604082019050919050565b5f6020820190508181035f83015261463c81614603565b9050919050565b7f4552433732313a20617070726f76652063616c6c6572206973206e6f7420746f5f8201527f6b656e206f776e6572206f7220617070726f76656420666f7220616c6c000000602082015250565b5f61469d603d83613c92565b91506146a882614643565b604082019050919050565b5f6020820190508181035f8301526146ca81614691565b9050919050565b7f57726f6e672069642073656e74000000000000000000000000000000000000005f82015250565b5f614705600d83613c92565b9150614710826146d1565b602082019050919050565b5f6020820190508181035f830152614732816146f9565b9050919050565b7f43616e6e6f7420626520656d70747900000000000000000000000000000000005f82015250565b5f61476d600f83613c92565b915061477882614739565b602082019050919050565b5f6020820190508181035f83015261479a81614761565b9050919050565b7f4e487b71000000000000000000000000000000000000000000000000000000005f52601160045260245ffd5b5f6147d882613d32565b91506147e383613d32565b92508282039050818111156147fb576147fa6147a1565b5b92915050565b7f57616974203130730000000000000000000000000000000000000000000000005f82015250565b5f614835600883613c92565b915061484082614801565b602082019050919050565b5f6020820190508181035f83015261486281614829565b9050919050565b5f819050815f5260205f209050919050565b5f6020601f8301049050919050565b5f82821b905092915050565b5f600883026148c57fffffffffffffffffffffffffffffffffffffffffffffffffffffffffffffffff8261488a565b6148cf868361488a565b95508019841693508086168417925050509392505050565b5f819050919050565b5f61490a61490561490084613d32565b6148e7565b613d32565b9050919050565b5f819050919050565b614923836148f0565b61493761492f82614911565b848454614896565b825550505050565b5f90565b61494b61493f565b61495681848461491a565b505050565b5b818110156149795761496e5f82614943565b60018101905061495c565b5050565b601f8211156149be5761498f81614869565b6149988461487b565b810160208510156149a7578190505b6149bb6149b38561487b565b83018261495b565b50505b505050565b5f82821c905092915050565b5f6149de5f19846008026149c3565b1980831691505092915050565b5f6149f683836149cf565b9150826002028217905092915050565b614a0f82613c88565b67ffffffffffffffff811115614a2857614a2761425c565b5b614a328254614585565b614a3d82828561497d565b5f60209050601f831160018114614a6e575f8415614a5c578287015190505b614a6685826149eb565b865550614acd565b601f198416614a7c86614869565b5f5b82811015614aa357848901518255600182019150602085019450602081019050614a7e565b86831015614ac05784890151614abc601f8916826149cf565b8355505b6001600288020188555050505b505050505050565b5f604082019050614ae85f830185613ff1565b614af56020830184613dc0565b9392505050565b7f4552433732313a2063616c6c6572206973206e6f7420746f6b656e206f776e655f8201527f72206f7220617070726f76656400000000000000000000000000000000000000602082015250565b5f614b56602d83613c92565b9150614b6182614afc565b604082019050919050565b5f6020820190508181035f830152614b8381614b4a565b9050919050565b7f43616e6e6f7420626520746865207a65726f20616464726573730000000000005f82015250565b5f614bbe601a83613c92565b9150614bc982614b8a565b602082019050919050565b5f6020820190508181035f830152614beb81614bb2565b9050919050565b7f416c7265616479207265676973746572656400000000000000000000000000005f82015250565b5f614c26601283613c92565b9150614c3182614bf2565b602082019050919050565b5f6020820190508181035f830152614c5381614c1a565b9050919050565b7f4552433732313a20696e76616c696420746f6b656e20494400000000000000005f82015250565b5f614c8e601883613c92565b9150614c9982614c5a565b602082019050919050565b5f6020820190508181035f830152614cbb81614c82565b9050919050565b7f4552433732313a2061646472657373207a65726f206973206e6f7420612076615f8201527f6c6964206f776e65720000000000000000000000000000000000000000000000602082015250565b5f614d1c602983613c92565b9150614d2782614cc2565b604082019050919050565b5f6020820190508181035f830152614d4981614d10565b9050919050565b7f4e487b71000000000000000000000000000000000000000000000000000000005f52603260045260245ffd5b5f614d87826140ca565b91505f8203614d9957614d986147a1565b5b600182039050919050565b7f4e6f7420746865206d616e6167657200000000000000000000000000000000005f82015250565b5f614dd8600f83613c92565b9150614de382614da4565b602082019050919050565b5f6020820190508181035f830152614e0581614dcc565b9050919050565b7f53616d65206164647265737300000000000000000000000000000000000000005f82015250565b5f614e40600c83613c92565b9150614e4b82614e0c565b602082019050919050565b5f6020820190508181035f830152614e6d81614e34565b9050919050565b7f4e6f7420726567697374657265640000000000000000000000000000000000005f82015250565b5f614ea8600e83613c92565b9150614eb382614e74565b602082019050919050565b5f6020820190508181035f830152614ed581614e9c565b9050919050565b5f614ee682613d32565b91507fffffffffffffffffffffffffffffffffffffffffffffffffffffffffffffffff8203614f1857614f176147a1565b5b600182019050919050565b5f81905092915050565b5f614f3782613c88565b614f418185614f23565b9350614f51818560208601613ca2565b80840191505092915050565b5f614f688285614f2d565b9150614f748284614f2d565b91508190509392505050565b7f4f776e61626c653a206e6577206f776e657220697320746865207a65726f20615f8201527f6464726573730000000000000000000000000000000000000000000000000000602082015250565b5f614fda602683613c92565b9150614fe582614f80565b604082019050919050565b5f6020820190508181035f83015261500781614fce565b9050919050565b7f466f7262696464656e00000000000000000000000000000000000000000000005f82015250565b5f615042600983613c92565b915061504d8261500e565b602082019050919050565b5f6020820190508181035f83015261506f81615036565b9050919050565b7f496e636f727265637420646174650000000000000000000000000000000000005f82015250565b5f6150aa600e83613c92565b91506150b582615076565b602082019050919050565b5f6020820190508181035f8301526150d78161509e565b9050919050565b7f4e487b71000000000000000000000000000000000000000000000000000000005f52601260045260245ffd5b5f615115826140ca565b9150615120836140ca565b9250826151305761512f6150de565b5b828206905092915050565b7f506c6179656420627920320000000000000000000000000000000000000000005f82015250565b5f61516f600b83613c92565b915061517a8261513b565b602082019050919050565b5f6020820190508181035f83015261519c81615163565b9050919050565b7f496e636f727265637420646966666963756c74790000000000000000000000005f82015250565b5f6151d7601483613c92565b91506151e2826151a3565b602082019050919050565b5f6020820190508181035f830152615204816151cb565b9050919050565b7f4552433732313a207472616e736665722066726f6d20696e636f7272656374205f8201527f6f776e6572000000000000000000000000000000000000000000000000000000602082015250565b5f615265602583613c92565b91506152708261520b565b604082019050919050565b5f6020820190508181035f83015261529281615259565b9050919050565b7f4552433732313a207472616e7366657220746f20746865207a65726f206164645f8201527f7265737300000000000000000000000000000000000000000000000000000000602082015250565b5f6152f3602483613c92565b91506152fe82615299565b604082019050919050565b5f6020820190508181035f830152615320816152e7565b9050919050565b7f4f776e61626c653a2063616c6c6572206973206e6f7420746865206f776e65725f82015250565b5f61535b602083613c92565b915061536682615327565b602082019050919050565b5f6020820190508181035f8301526153888161534f565b9050919050565b7f4552433732313a20617070726f766520746f2063616c6c6572000000000000005f82015250565b5f6153c3601983613c92565b91506153ce8261538f565b602082019050919050565b5f6020820190508181035f8301526153f0816153b7565b9050919050565b7f4552433732313a207472616e7366657220746f206e6f6e2045524337323152655f8201527f63656976657220696d706c656d656e7465720000000000000000000000000000602082015250565b5f615451603283613c92565b915061545c826153f7565b604082019050919050565b5f6020820190508181035f83015261547e81615445565b9050919050565b7f4552433732313a206d696e7420746f20746865207a65726f20616464726573735f82015250565b5f6154b9602083613c92565b91506154c482615485565b602082019050919050565b5f6020820190508181035f8301526154e6816154ad565b9050919050565b7f4552433732313a20746f6b656e20616c7265616479206d696e746564000000005f82015250565b5f615521601c83613c92565b915061552c826154ed565b602082019050919050565b5f6020820190508181035f83015261554e81615515565b9050919050565b7f45524337323155524953746f726167653a2055524920736574206f66206e6f6e5f8201527f6578697374656e7420746f6b656e000000000000000000000000000000000000602082015250565b5f6155af602e83613c92565b91506155ba82615555565b604082019050919050565b5f6020820190508181035f8301526155dc816155a3565b9050919050565b5f81519050919050565b5f82825260208201905092915050565b5f615607826155e3565b61561181856155ed565b9350615621818560208601613ca2565b61562a81613cca565b840191505092915050565b5f6080820190506156485f830187613dc0565b6156556020830186613dc0565b6156626040830185613ff1565b818103606083015261567481846155fd565b905095945050505050565b5f8151905061568d81613c00565b92915050565b5f602082840312156156a8576156a7613bcd565b5b5f6156b58482850161567f565b9150509291505056fe68747470733a2f2f676174657761792e70696e6174612e636c6f75642f697066732f516d657834754e376e6b586654365974325a71686d74636d5a4e6b536f44574a37534a56714a694d6156317a3479a26469706673582212208928d4c477e5c48f40da78a3abb647e2d39287342a25b97a2d8330fe0cf73e9c64736f6c63430008140033",
  "linkReferences": {},
  "deployedLinkReferences": {}
}