{
  "_format": "hh-sol-artifact-1",
  "contractName": "PadelConnect",
  "sourceName": "contracts/PadelConnect.sol",
  "abi": [
    {
      "inputs": [],
      "name": "CompleteTournament",
      "type": "error"
    },
    {
      "inputs": [],
      "name": "ErrorDuringPayment",
      "type": "error"
    },
    {
      "inputs": [],
      "name": "RegistrationEnded",
      "type": "error"
    },
    {
      "anonymous": false,
      "inputs": [
        {
          "indexed": true,
          "internalType": "address",
          "name": "owner",
          "type": "address"
        },
        {
          "indexed": true,
          "internalType": "address",
          "name": "approved",
          "type": "address"
        },
        {
          "indexed": true,
          "internalType": "uint256",
          "name": "tokenId",
          "type": "uint256"
        }
      ],
      "name": "Approval",
      "type": "event"
    },
    {
      "anonymous": false,
      "inputs": [
        {
          "indexed": true,
          "internalType": "address",
          "name": "owner",
          "type": "address"
        },
        {
          "indexed": true,
          "internalType": "address",
          "name": "operator",
          "type": "address"
        },
        {
          "indexed": false,
          "internalType": "bool",
          "name": "approved",
          "type": "bool"
        }
      ],
      "name": "ApprovalForAll",
      "type": "event"
    },
    {
      "anonymous": false,
      "inputs": [
        {
          "indexed": false,
          "internalType": "uint256",
          "name": "_fromTokenId",
          "type": "uint256"
        },
        {
          "indexed": false,
          "internalType": "uint256",
          "name": "_toTokenId",
          "type": "uint256"
        }
      ],
      "name": "BatchMetadataUpdate",
      "type": "event"
    },
    {
      "anonymous": false,
      "inputs": [
        {
          "indexed": false,
          "internalType": "address",
          "name": "_address",
          "type": "address"
        }
      ],
      "name": "ManagerAdded",
      "type": "event"
    },
    {
      "anonymous": false,
      "inputs": [
        {
          "indexed": false,
          "internalType": "uint256",
          "name": "_tokenId",
          "type": "uint256"
        }
      ],
      "name": "MetadataUpdate",
      "type": "event"
    },
    {
      "anonymous": false,
      "inputs": [
        {
          "indexed": true,
          "internalType": "address",
          "name": "previousOwner",
          "type": "address"
        },
        {
          "indexed": true,
          "internalType": "address",
          "name": "newOwner",
          "type": "address"
        }
      ],
      "name": "OwnershipTransferred",
      "type": "event"
    },
    {
      "anonymous": false,
      "inputs": [
        {
          "indexed": false,
          "internalType": "uint256",
          "name": "tournamentId",
          "type": "uint256"
        },
        {
          "indexed": false,
          "internalType": "address",
          "name": "player",
          "type": "address"
        }
      ],
      "name": "PrivateCommentAdded",
      "type": "event"
    },
    {
      "anonymous": false,
      "inputs": [
        {
          "indexed": false,
          "internalType": "uint256",
          "name": "tournamentId",
          "type": "uint256"
        },
        {
          "indexed": false,
          "internalType": "address",
          "name": "player",
          "type": "address"
        }
      ],
      "name": "PrivateResponseAdded",
      "type": "event"
    },
    {
      "anonymous": false,
      "inputs": [
        {
          "indexed": false,
          "internalType": "uint256",
          "name": "tournamentId",
          "type": "uint256"
        }
      ],
      "name": "TournamentCommentAdded",
      "type": "event"
    },
    {
      "anonymous": false,
      "inputs": [
        {
          "indexed": false,
          "internalType": "string",
          "name": "city",
          "type": "string"
        },
        {
          "indexed": false,
          "internalType": "uint256",
          "name": "date",
          "type": "uint256"
        }
      ],
      "name": "TournamentCreated",
      "type": "event"
    },
    {
      "anonymous": false,
      "inputs": [
        {
          "indexed": true,
          "internalType": "address",
          "name": "from",
          "type": "address"
        },
        {
          "indexed": true,
          "internalType": "address",
          "name": "to",
          "type": "address"
        },
        {
          "indexed": true,
          "internalType": "uint256",
          "name": "tokenId",
          "type": "uint256"
        }
      ],
      "name": "Transfer",
      "type": "event"
    },
    {
      "inputs": [
        {
          "internalType": "uint256",
          "name": "_id",
          "type": "uint256"
        },
        {
          "internalType": "string",
          "name": "_message",
          "type": "string"
        }
      ],
      "name": "addComment",
      "outputs": [],
      "stateMutability": "nonpayable",
      "type": "function"
    },
    {
      "inputs": [
        {
          "internalType": "address",
          "name": "_address",
          "type": "address"
        }
      ],
      "name": "addManager",
      "outputs": [],
      "stateMutability": "nonpayable",
      "type": "function"
    },
    {
      "inputs": [
        {
          "internalType": "uint256",
          "name": "_id",
          "type": "uint256"
        },
        {
          "internalType": "string",
          "name": "_message",
          "type": "string"
        }
      ],
      "name": "addPrivateCommentToManager",
      "outputs": [],
      "stateMutability": "nonpayable",
      "type": "function"
    },
    {
      "inputs": [
        {
          "internalType": "uint256",
          "name": "_id",
          "type": "uint256"
        },
        {
          "internalType": "address",
          "name": "_player",
          "type": "address"
        },
        {
          "internalType": "string",
          "name": "_message",
          "type": "string"
        }
      ],
      "name": "addPrivateResponseToPlayer",
      "outputs": [],
      "stateMutability": "nonpayable",
      "type": "function"
    },
    {
      "inputs": [
        {
          "internalType": "string",
          "name": "_city",
          "type": "string"
        },
        {
          "internalType": "uint256",
          "name": "_date",
          "type": "uint256"
        },
        {
          "internalType": "uint8",
          "name": "_diff",
          "type": "uint8"
        },
        {
          "internalType": "uint8",
          "name": "_maxPlayers",
          "type": "uint8"
        }
      ],
      "name": "addTournament",
      "outputs": [],
      "stateMutability": "nonpayable",
      "type": "function"
    },
    {
      "inputs": [
        {
          "internalType": "uint256",
          "name": "_id",
          "type": "uint256"
        },
        {
          "internalType": "address",
          "name": "_winner1",
          "type": "address"
        },
        {
          "internalType": "address",
          "name": "_winner2",
          "type": "address"
        }
      ],
      "name": "addWinners",
      "outputs": [],
      "stateMutability": "nonpayable",
      "type": "function"
    },
    {
      "inputs": [
        {
          "internalType": "address",
          "name": "to",
          "type": "address"
        },
        {
          "internalType": "uint256",
          "name": "tokenId",
          "type": "uint256"
        }
      ],
      "name": "approve",
      "outputs": [],
      "stateMutability": "nonpayable",
      "type": "function"
    },
    {
      "inputs": [
        {
          "internalType": "address",
          "name": "owner",
          "type": "address"
        }
      ],
      "name": "balanceOf",
      "outputs": [
        {
          "internalType": "uint256",
          "name": "",
          "type": "uint256"
        }
      ],
      "stateMutability": "view",
      "type": "function"
    },
    {
      "inputs": [
        {
          "internalType": "uint256",
          "name": "",
          "type": "uint256"
        },
        {
          "internalType": "uint256",
          "name": "",
          "type": "uint256"
        }
      ],
      "name": "comments",
      "outputs": [
        {
          "internalType": "string",
          "name": "message",
          "type": "string"
        },
        {
          "internalType": "address",
          "name": "author",
          "type": "address"
        }
      ],
      "stateMutability": "view",
      "type": "function"
    },
    {
      "inputs": [
        {
          "internalType": "uint256",
          "name": "_id",
          "type": "uint256"
        }
      ],
      "name": "followTournament",
      "outputs": [],
      "stateMutability": "nonpayable",
      "type": "function"
    },
    {
      "inputs": [
        {
          "internalType": "uint256",
          "name": "",
          "type": "uint256"
        },
        {
          "internalType": "address",
          "name": "",
          "type": "address"
        }
      ],
      "name": "followedTournaments",
      "outputs": [
        {
          "internalType": "bool",
          "name": "",
          "type": "bool"
        }
      ],
      "stateMutability": "view",
      "type": "function"
    },
    {
      "inputs": [
        {
          "internalType": "uint256",
          "name": "tokenId",
          "type": "uint256"
        }
      ],
      "name": "getApproved",
      "outputs": [
        {
          "internalType": "address",
          "name": "",
          "type": "address"
        }
      ],
      "stateMutability": "view",
      "type": "function"
    },
    {
      "inputs": [
        {
          "internalType": "uint256",
          "name": "",
          "type": "uint256"
        }
      ],
      "name": "idComments",
      "outputs": [
        {
          "internalType": "uint256",
          "name": "",
          "type": "uint256"
        }
      ],
      "stateMutability": "view",
      "type": "function"
    },
    {
      "inputs": [
        {
          "internalType": "address",
          "name": "owner",
          "type": "address"
        },
        {
          "internalType": "address",
          "name": "operator",
          "type": "address"
        }
      ],
      "name": "isApprovedForAll",
      "outputs": [
        {
          "internalType": "bool",
          "name": "",
          "type": "bool"
        }
      ],
      "stateMutability": "view",
      "type": "function"
    },
    {
      "inputs": [],
      "name": "name",
      "outputs": [
        {
          "internalType": "string",
          "name": "",
          "type": "string"
        }
      ],
      "stateMutability": "view",
      "type": "function"
    },
    {
      "inputs": [],
      "name": "owner",
      "outputs": [
        {
          "internalType": "address",
          "name": "",
          "type": "address"
        }
      ],
      "stateMutability": "view",
      "type": "function"
    },
    {
      "inputs": [
        {
          "internalType": "uint256",
          "name": "tokenId",
          "type": "uint256"
        }
      ],
      "name": "ownerOf",
      "outputs": [
        {
          "internalType": "address",
          "name": "",
          "type": "address"
        }
      ],
      "stateMutability": "view",
      "type": "function"
    },
    {
      "inputs": [
        {
          "internalType": "uint256",
          "name": "",
          "type": "uint256"
        },
        {
          "internalType": "address",
          "name": "",
          "type": "address"
        }
      ],
      "name": "playersRegistered",
      "outputs": [
        {
          "internalType": "bool",
          "name": "",
          "type": "bool"
        }
      ],
      "stateMutability": "view",
      "type": "function"
    },
    {
      "inputs": [
        {
          "internalType": "uint256",
          "name": "_id",
          "type": "uint256"
        },
        {
          "internalType": "string",
          "name": "_firstName",
          "type": "string"
        },
        {
          "internalType": "string",
          "name": "_lastName",
          "type": "string"
        }
      ],
      "name": "registerPlayer",
      "outputs": [],
      "stateMutability": "nonpayable",
      "type": "function"
    },
    {
      "inputs": [],
      "name": "renounceOwnership",
      "outputs": [],
      "stateMutability": "nonpayable",
      "type": "function"
    },
    {
      "inputs": [
        {
          "internalType": "address",
          "name": "from",
          "type": "address"
        },
        {
          "internalType": "address",
          "name": "to",
          "type": "address"
        },
        {
          "internalType": "uint256",
          "name": "tokenId",
          "type": "uint256"
        }
      ],
      "name": "safeTransferFrom",
      "outputs": [],
      "stateMutability": "nonpayable",
      "type": "function"
    },
    {
      "inputs": [
        {
          "internalType": "address",
          "name": "from",
          "type": "address"
        },
        {
          "internalType": "address",
          "name": "to",
          "type": "address"
        },
        {
          "internalType": "uint256",
          "name": "tokenId",
          "type": "uint256"
        },
        {
          "internalType": "bytes",
          "name": "data",
          "type": "bytes"
        }
      ],
      "name": "safeTransferFrom",
      "outputs": [],
      "stateMutability": "nonpayable",
      "type": "function"
    },
    {
      "inputs": [
        {
          "internalType": "address",
          "name": "operator",
          "type": "address"
        },
        {
          "internalType": "bool",
          "name": "approved",
          "type": "bool"
        }
      ],
      "name": "setApprovalForAll",
      "outputs": [],
      "stateMutability": "nonpayable",
      "type": "function"
    },
    {
      "inputs": [
        {
          "internalType": "bytes4",
          "name": "interfaceId",
          "type": "bytes4"
        }
      ],
      "name": "supportsInterface",
      "outputs": [
        {
          "internalType": "bool",
          "name": "",
          "type": "bool"
        }
      ],
      "stateMutability": "view",
      "type": "function"
    },
    {
      "inputs": [],
      "name": "symbol",
      "outputs": [
        {
          "internalType": "string",
          "name": "",
          "type": "string"
        }
      ],
      "stateMutability": "view",
      "type": "function"
    },
    {
      "inputs": [
        {
          "internalType": "uint256",
          "name": "tokenId",
          "type": "uint256"
        }
      ],
      "name": "tokenURI",
      "outputs": [
        {
          "internalType": "string",
          "name": "",
          "type": "string"
        }
      ],
      "stateMutability": "view",
      "type": "function"
    },
    {
      "inputs": [
        {
          "internalType": "uint256",
          "name": "",
          "type": "uint256"
        }
      ],
      "name": "tournaments",
      "outputs": [
        {
          "internalType": "uint256",
          "name": "id",
          "type": "uint256"
        },
        {
          "internalType": "string",
          "name": "city",
          "type": "string"
        },
        {
          "internalType": "uint256",
          "name": "date",
          "type": "uint256"
        },
        {
          "internalType": "enum IPadelConnect.Difficulty",
          "name": "difficulty",
          "type": "uint8"
        },
        {
          "internalType": "uint8",
          "name": "maxPlayers",
          "type": "uint8"
        },
        {
          "internalType": "uint8",
          "name": "registrationsAvailable",
          "type": "uint8"
        },
        {
          "internalType": "address",
          "name": "winner1",
          "type": "address"
        },
        {
          "internalType": "address",
          "name": "winner2",
          "type": "address"
        }
      ],
      "stateMutability": "view",
      "type": "function"
    },
    {
      "inputs": [
        {
          "internalType": "address",
          "name": "from",
          "type": "address"
        },
        {
          "internalType": "address",
          "name": "to",
          "type": "address"
        },
        {
          "internalType": "uint256",
          "name": "tokenId",
          "type": "uint256"
        }
      ],
      "name": "transferFrom",
      "outputs": [],
      "stateMutability": "nonpayable",
      "type": "function"
    },
    {
      "inputs": [
        {
          "internalType": "address",
          "name": "newOwner",
          "type": "address"
        }
      ],
      "name": "transferOwnership",
      "outputs": [],
      "stateMutability": "nonpayable",
      "type": "function"
    }
  ],
  "bytecode": "0x608060405234801562000010575f80fd5b506040518060400160405280600c81526020017f506164656c436f6e6e65637400000000000000000000000000000000000000008152506040518060400160405280600381526020017f50444c00000000000000000000000000000000000000000000000000000000008152506200009d62000091620000c960201b60201c565b620000d060201b60201c565b8160019081620000ae9190620003f5565b508060029081620000c09190620003f5565b505050620004d9565b5f33905090565b5f805f9054906101000a900473ffffffffffffffffffffffffffffffffffffffff169050815f806101000a81548173ffffffffffffffffffffffffffffffffffffffff021916908373ffffffffffffffffffffffffffffffffffffffff1602179055508173ffffffffffffffffffffffffffffffffffffffff168173ffffffffffffffffffffffffffffffffffffffff167f8be0079c531659141344cd1fd0a4f28419497f9722a3daafe3b4186f6b6457e060405160405180910390a35050565b5f81519050919050565b7f4e487b71000000000000000000000000000000000000000000000000000000005f52604160045260245ffd5b7f4e487b71000000000000000000000000000000000000000000000000000000005f52602260045260245ffd5b5f60028204905060018216806200020d57607f821691505b602082108103620002235762000222620001c8565b5b50919050565b5f819050815f5260205f209050919050565b5f6020601f8301049050919050565b5f82821b905092915050565b5f60088302620002877fffffffffffffffffffffffffffffffffffffffffffffffffffffffffffffffff826200024a565b6200029386836200024a565b95508019841693508086168417925050509392505050565b5f819050919050565b5f819050919050565b5f620002dd620002d7620002d184620002ab565b620002b4565b620002ab565b9050919050565b5f819050919050565b620002f883620002bd565b620003106200030782620002e4565b84845462000256565b825550505050565b5f90565b6200032662000318565b62000333818484620002ed565b505050565b5b818110156200035a576200034e5f826200031c565b60018101905062000339565b5050565b601f821115620003a957620003738162000229565b6200037e846200023b565b810160208510156200038e578190505b620003a66200039d856200023b565b83018262000338565b50505b505050565b5f82821c905092915050565b5f620003cb5f1984600802620003ae565b1980831691505092915050565b5f620003e58383620003ba565b9150826002028217905092915050565b620004008262000191565b67ffffffffffffffff8111156200041c576200041b6200019b565b5b620004288254620001f5565b620004358282856200035e565b5f60209050601f8311600181146200046b575f841562000456578287015190505b620004628582620003d8565b865550620004d1565b601f1984166200047b8662000229565b5f5b82811015620004a4578489015182556001820191506020850194506020810190506200047d565b86831015620004c45784890151620004c0601f891682620003ba565b8355505b6001600288020188555050505b505050505050565b615b1c80620004e75f395ff3fe608060405234801561000f575f80fd5b50600436106101cd575f3560e01c8063715018a611610102578063a22cb465116100a0578063e985e9c51161006f578063e985e9c51461053c578063f2fde38b1461056c578063f891e08b14610588578063fc6c776f146105a4576101cd565b8063a22cb465146104b8578063aa7e5683146104d4578063b88d4fde146104f0578063c87b56dd1461050c576101cd565b80638da5cb5b116100dc5780638da5cb5b1461043057806395d89b411461044e5780639b0404ca1461046c5780639b535ead14610488576101cd565b8063715018a6146103d35780637503e1b7146103dd5780638a8da1f714610414576101cd565b806325e2e5541161016f5780633ae48eb8116101495780633ae48eb81461032757806342842e0e146103575780636352211e1461037357806370a08231146103a3576101cd565b806325e2e554146102bf5780632d06177a146102db5780633682fd03146102f7576101cd565b8063095ea7b3116101ab578063095ea7b31461024f5780630b7bdd7f1461026b5780631d3f6c8a1461028757806323b872dd146102a3576101cd565b806301ffc9a7146101d157806306fdde0314610201578063081812fc1461021f575b5f80fd5b6101eb60048036038101906101e69190613fac565b6105d5565b6040516101f89190613ff1565b60405180910390f35b610209610635565b6040516102169190614094565b60405180910390f35b610239600480360381019061023491906140e7565b6106c5565b6040516102469190614151565b60405180910390f35b61026960048036038101906102649190614194565b610707565b005b610285600480360381019061028091906140e7565b61081d565b005b6102a1600480360381019061029c9190614233565b6108cd565b005b6102bd60048036038101906102b89190614290565b610be7565b005b6102d960048036038101906102d491906142e0565b610c47565b005b6102f560048036038101906102f09190614371565b611274565b005b610311600480360381019061030c91906140e7565b611405565b60405161031e91906143ab565b60405180910390f35b610341600480360381019061033c91906143c4565b61141a565b60405161034e9190613ff1565b60405180910390f35b610371600480360381019061036c9190614290565b611444565b005b61038d600480360381019061038891906140e7565b611463565b60405161039a9190614151565b60405180910390f35b6103bd60048036038101906103b89190614371565b6114e7565b6040516103ca91906143ab565b60405180910390f35b6103db61159b565b005b6103f760048036038101906103f291906140e7565b6115ae565b60405161040b989796959493929190614490565b60405180910390f35b61042e60048036038101906104299190614513565b6116ec565b005b610438611df6565b6040516104459190614151565b60405180910390f35b610456611e1d565b6040516104639190614094565b60405180910390f35b61048660048036038101906104819190614563565b611ead565b005b6104a2600480360381019061049d91906143c4565b6122c1565b6040516104af9190613ff1565b60405180910390f35b6104d260048036038101906104cd91906145fe565b6122eb565b005b6104ee60048036038101906104e99190614233565b612301565b005b61050a60048036038101906105059190614764565b6125fd565b005b610526600480360381019061052191906140e7565b61265f565b6040516105339190614094565b60405180910390f35b610556600480360381019061055191906147e4565b612769565b6040516105639190613ff1565b60405180910390f35b61058660048036038101906105819190614371565b6127f7565b005b6105a2600480360381019061059d919061484c565b612879565b005b6105be60048036038101906105b991906148d0565b612d44565b6040516105cc92919061490e565b60405180910390f35b5f634906490660e01b7bffffffffffffffffffffffffffffffffffffffffffffffffffffffff1916827bffffffffffffffffffffffffffffffffffffffffffffffffffffffff1916148061062e575061062d82612e14565b5b9050919050565b60606001805461064490614969565b80601f016020809104026020016040519081016040528092919081815260200182805461067090614969565b80156106bb5780601f10610692576101008083540402835291602001916106bb565b820191905f5260205f20905b81548152906001019060200180831161069e57829003601f168201915b5050505050905090565b5f6106cf82612ef5565b60055f8381526020019081526020015f205f9054906101000a900473ffffffffffffffffffffffffffffffffffffffff169050919050565b5f61071182611463565b90508073ffffffffffffffffffffffffffffffffffffffff168373ffffffffffffffffffffffffffffffffffffffff1603610781576040517f08c379a000000000000000000000000000000000000000000000000000000000815260040161077890614a09565b60405180910390fd5b8073ffffffffffffffffffffffffffffffffffffffff166107a0612f40565b73ffffffffffffffffffffffffffffffffffffffff1614806107cf57506107ce816107c9612f40565b612769565b5b61080e576040517f08c379a000000000000000000000000000000000000000000000000000000000815260040161080590614a97565b60405180910390fd5b6108188383612f47565b505050565b80600c805490508110610865576040517f08c379a000000000000000000000000000000000000000000000000000000000815260040161085c90614aff565b60405180910390fd5b6001600f5f8481526020019081526020015f205f3373ffffffffffffffffffffffffffffffffffffffff1673ffffffffffffffffffffffffffffffffffffffff1681526020019081526020015f205f6101000a81548160ff0219169083151502179055505050565b82600c805490508110610915576040517f08c379a000000000000000000000000000000000000000000000000000000000815260040161090c90614aff565b60405180910390fd5b82828080601f0160208091040260200160405190810160405280939291908181526020018383808284375f81840152601f19601f820116905080830192505050505050505f81511161099c576040517f08c379a000000000000000000000000000000000000000000000000000000000815260040161099390614b67565b60405180910390fd5b33600a426109aa9190614bb2565b60135f3373ffffffffffffffffffffffffffffffffffffffff1673ffffffffffffffffffffffffffffffffffffffff1681526020019081526020015f205410610a28576040517f08c379a0000000000000000000000000000000000000000000000000000000008152600401610a1f90614c2f565b60405180910390fd5b60125f8781526020019081526020015f205f3373ffffffffffffffffffffffffffffffffffffffff1673ffffffffffffffffffffffffffffffffffffffff1681526020019081526020015f20604051806040016040528087878080601f0160208091040260200160405190810160405280939291908181526020018383808284375f81840152601f19601f8201169050808301925050505050505081526020013373ffffffffffffffffffffffffffffffffffffffff16815250908060018154018082558091505060019003905f5260205f2090600202015f909190919091505f820151815f019081610b1b9190614dea565b506020820151816001015f6101000a81548173ffffffffffffffffffffffffffffffffffffffff021916908373ffffffffffffffffffffffffffffffffffffffff16021790555050504260135f3373ffffffffffffffffffffffffffffffffffffffff1673ffffffffffffffffffffffffffffffffffffffff1681526020019081526020015f20819055507fbfd6922fad2fc6dfcb1bf737a87580bdc38c8199bda4764006096c7ed70528168633604051610bd7929190614eb9565b60405180910390a1505050505050565b610bf8610bf2612f40565b82612ffd565b610c37576040517f08c379a0000000000000000000000000000000000000000000000000000000008152600401610c2e90614f50565b60405180910390fd5b610c42838383613091565b505050565b84600c805490508110610c8f576040517f08c379a0000000000000000000000000000000000000000000000000000000008152600401610c8690614aff565b60405180910390fd5b84848080601f0160208091040260200160405190810160405280939291908181526020018383808284375f81840152601f19601f820116905080830192505050505050505f815111610d16576040517f08c379a0000000000000000000000000000000000000000000000000000000008152600401610d0d90614b67565b60405180910390fd5b83838080601f0160208091040260200160405190810160405280939291908181526020018383808284375f81840152601f19601f820116905080830192505050505050505f815111610d9d576040517f08c379a0000000000000000000000000000000000000000000000000000000008152600401610d9490614b67565b60405180910390fd5b600e5f8981526020019081526020015f205f3373ffffffffffffffffffffffffffffffffffffffff1673ffffffffffffffffffffffffffffffffffffffff1681526020019081526020015f205f9054906101000a900460ff1615610e36576040517f08c379a0000000000000000000000000000000000000000000000000000000008152600401610e2d90614fb8565b60405180910390fd5b5f600c8981548110610e4b57610e4a614fd6565b5b905f5260205f209060050201604051806101000160405290815f8201548152602001600182018054610e7c90614969565b80601f0160208091040260200160405190810160405280929190818152602001828054610ea890614969565b8015610ef35780601f10610eca57610100808354040283529160200191610ef3565b820191905f5260205f20905b815481529060010190602001808311610ed657829003601f168201915b5050505050815260200160028201548152602001600382015f9054906101000a900460ff166005811115610f2a57610f29614402565b5b6005811115610f3c57610f3b614402565b5b81526020016003820160019054906101000a900460ff1660ff1660ff1681526020016003820160029054906101000a900460ff1660ff1660ff1681526020016003820160039054906101000a900473ffffffffffffffffffffffffffffffffffffffff1673ffffffffffffffffffffffffffffffffffffffff1673ffffffffffffffffffffffffffffffffffffffff168152602001600482015f9054906101000a900473ffffffffffffffffffffffffffffffffffffffff1673ffffffffffffffffffffffffffffffffffffffff1673ffffffffffffffffffffffffffffffffffffffff168152505090504281604001511015611065576040517f2ee88f5000000000000000000000000000000000000000000000000000000000815260040160405180910390fd5b5f8160a0015160ff16036110a5576040517f106e2afe00000000000000000000000000000000000000000000000000000000815260040160405180910390fd5b604051806040016040528087878080601f0160208091040260200160405190810160405280939291908181526020018383808284375f81840152601f19601f82011690508083019250505050505050815260200189898080601f0160208091040260200160405190810160405280939291908181526020018383808284375f81840152601f19601f82011690508083019250505050505050815250600d5f3373ffffffffffffffffffffffffffffffffffffffff1673ffffffffffffffffffffffffffffffffffffffff1681526020019081526020015f205f820151815f0190816111909190614dea565b5060208201518160010190816111a69190614dea565b509050506001600e5f8b81526020019081526020015f205f3373ffffffffffffffffffffffffffffffffffffffff1673ffffffffffffffffffffffffffffffffffffffff1681526020019081526020015f205f6101000a81548160ff0219169083151502179055508060a001805161121d90615003565b60ff16908160ff16815250508060a00151600c8a8154811061124257611241614fd6565b5b905f5260205f20906005020160030160026101000a81548160ff021916908360ff160217905550505050505050505050565b61127c61337d565b805f73ffffffffffffffffffffffffffffffffffffffff168173ffffffffffffffffffffffffffffffffffffffff16036112eb576040517f08c379a00000000000000000000000000000000000000000000000000000000081526004016112e290615074565b60405180910390fd5b600a5f8373ffffffffffffffffffffffffffffffffffffffff1673ffffffffffffffffffffffffffffffffffffffff1681526020019081526020015f205f9054906101000a900460ff1615611375576040517f08c379a000000000000000000000000000000000000000000000000000000000815260040161136c90614fb8565b60405180910390fd5b6001600a5f8473ffffffffffffffffffffffffffffffffffffffff1673ffffffffffffffffffffffffffffffffffffffff1681526020019081526020015f205f6101000a81548160ff0219169083151502179055507f3b4a40cccf2058c593542587329dd385be4f0b588db5471fbd9598e56dd7093a826040516113f99190614151565b60405180910390a15050565b6011602052805f5260405f205f915090505481565b600f602052815f5260405f20602052805f5260405f205f915091509054906101000a900460ff1681565b61145e83838360405180602001604052805f8152506125fd565b505050565b5f8061146e836133fb565b90505f73ffffffffffffffffffffffffffffffffffffffff168173ffffffffffffffffffffffffffffffffffffffff16036114de576040517f08c379a00000000000000000000000000000000000000000000000000000000081526004016114d5906150dc565b60405180910390fd5b80915050919050565b5f8073ffffffffffffffffffffffffffffffffffffffff168273ffffffffffffffffffffffffffffffffffffffff1603611556576040517f08c379a000000000000000000000000000000000000000000000000000000000815260040161154d9061516a565b60405180910390fd5b60045f8373ffffffffffffffffffffffffffffffffffffffff1673ffffffffffffffffffffffffffffffffffffffff1681526020019081526020015f20549050919050565b6115a361337d565b6115ac5f613434565b565b600c81815481106115bd575f80fd5b905f5260205f2090600502015f91509050805f0154908060010180546115e290614969565b80601f016020809104026020016040519081016040528092919081815260200182805461160e90614969565b80156116595780601f1061163057610100808354040283529160200191611659565b820191905f5260205f20905b81548152906001019060200180831161163c57829003601f168201915b505050505090806002015490806003015f9054906101000a900460ff16908060030160019054906101000a900460ff16908060030160029054906101000a900460ff16908060030160039054906101000a900473ffffffffffffffffffffffffffffffffffffffff1690806004015f9054906101000a900473ffffffffffffffffffffffffffffffffffffffff16905088565b6116f461337d565b82600c80549050811061173c576040517f08c379a000000000000000000000000000000000000000000000000000000000815260040161173390614aff565b60405180910390fd5b825f73ffffffffffffffffffffffffffffffffffffffff168173ffffffffffffffffffffffffffffffffffffffff16036117ab576040517f08c379a00000000000000000000000000000000000000000000000000000000081526004016117a290615074565b60405180910390fd5b825f73ffffffffffffffffffffffffffffffffffffffff168173ffffffffffffffffffffffffffffffffffffffff160361181a576040517f08c379a000000000000000000000000000000000000000000000000000000000815260040161181190615074565b60405180910390fd5b8373ffffffffffffffffffffffffffffffffffffffff168573ffffffffffffffffffffffffffffffffffffffff1603611888576040517f08c379a000000000000000000000000000000000000000000000000000000000815260040161187f906151d2565b60405180910390fd5b600e5f8781526020019081526020015f205f8673ffffffffffffffffffffffffffffffffffffffff1673ffffffffffffffffffffffffffffffffffffffff1681526020019081526020015f205f9054906101000a900460ff1680156119425750600e5f8781526020019081526020015f205f8573ffffffffffffffffffffffffffffffffffffffff1673ffffffffffffffffffffffffffffffffffffffff1681526020019081526020015f205f9054906101000a900460ff165b611981576040517f08c379a00000000000000000000000000000000000000000000000000000000081526004016119789061523a565b60405180910390fd5b84600c878154811061199657611995614fd6565b5b905f5260205f20906005020160030160036101000a81548173ffffffffffffffffffffffffffffffffffffffff021916908373ffffffffffffffffffffffffffffffffffffffff16021790555083600c87815481106119f8576119f7614fd6565b5b905f5260205f2090600502016004015f6101000a81548173ffffffffffffffffffffffffffffffffffffffff021916908373ffffffffffffffffffffffffffffffffffffffff1602179055505f600c8781548110611a5957611a58614fd6565b5b905f5260205f2090600502016001018054611a7390614969565b80601f0160208091040260200160405190810160405280929190818152602001828054611a9f90614969565b8015611aea5780601f10611ac157610100808354040283529160200191611aea565b820191905f5260205f20905b815481529060010190602001808311611acd57829003601f168201915b505050505090505f600d5f8873ffffffffffffffffffffffffffffffffffffffff1673ffffffffffffffffffffffffffffffffffffffff1681526020019081526020015f206040518060400160405290815f82018054611b4990614969565b80601f0160208091040260200160405190810160405280929190818152602001828054611b7590614969565b8015611bc05780601f10611b9757610100808354040283529160200191611bc0565b820191905f5260205f20905b815481529060010190602001808311611ba357829003601f168201915b50505050508152602001600182018054611bd990614969565b80601f0160208091040260200160405190810160405280929190818152602001828054611c0590614969565b8015611c505780601f10611c2757610100808354040283529160200191611c50565b820191905f5260205f20905b815481529060010190602001808311611c3357829003601f168201915b5050505050815250509050611c6f8789848460200151855f01516134f5565b600d5f8773ffffffffffffffffffffffffffffffffffffffff1673ffffffffffffffffffffffffffffffffffffffff1681526020019081526020015f206040518060400160405290815f82018054611cc690614969565b80601f0160208091040260200160405190810160405280929190818152602001828054611cf290614969565b8015611d3d5780601f10611d1457610100808354040283529160200191611d3d565b820191905f5260205f20905b815481529060010190602001808311611d2057829003601f168201915b50505050508152602001600182018054611d5690614969565b80601f0160208091040260200160405190810160405280929190818152602001828054611d8290614969565b8015611dcd5780601f10611da457610100808354040283529160200191611dcd565b820191905f5260205f20905b815481529060010190602001808311611db057829003601f168201915b5050505050815250509050611dec8689848460200151855f01516134f5565b5050505050505050565b5f805f9054906101000a900473ffffffffffffffffffffffffffffffffffffffff16905090565b606060028054611e2c90614969565b80601f0160208091040260200160405190810160405280929190818152602001828054611e5890614969565b8015611ea35780601f10611e7a57610100808354040283529160200191611ea3565b820191905f5260205f20905b815481529060010190602001808311611e8657829003601f168201915b5050505050905090565b600a5f3373ffffffffffffffffffffffffffffffffffffffff1673ffffffffffffffffffffffffffffffffffffffff1681526020019081526020015f205f9054906101000a900460ff16611f36576040517f08c379a0000000000000000000000000000000000000000000000000000000008152600401611f2d906152a2565b60405180910390fd5b83600c805490508110611f7e576040517f08c379a0000000000000000000000000000000000000000000000000000000008152600401611f7590614aff565b60405180910390fd5b835f73ffffffffffffffffffffffffffffffffffffffff168173ffffffffffffffffffffffffffffffffffffffff1603611fed576040517f08c379a0000000000000000000000000000000000000000000000000000000008152600401611fe490615074565b60405180910390fd5b83838080601f0160208091040260200160405190810160405280939291908181526020018383808284375f81840152601f19601f820116905080830192505050505050505f815111612074576040517f08c379a000000000000000000000000000000000000000000000000000000000815260040161206b90614b67565b60405180910390fd5b33600a426120829190614bb2565b60135f3373ffffffffffffffffffffffffffffffffffffffff1673ffffffffffffffffffffffffffffffffffffffff1681526020019081526020015f205410612100576040517f08c379a00000000000000000000000000000000000000000000000000000000081526004016120f790614c2f565b60405180910390fd5b60125f8981526020019081526020015f205f8873ffffffffffffffffffffffffffffffffffffffff1673ffffffffffffffffffffffffffffffffffffffff1681526020019081526020015f20604051806040016040528088888080601f0160208091040260200160405190810160405280939291908181526020018383808284375f81840152601f19601f8201169050808301925050505050505081526020013373ffffffffffffffffffffffffffffffffffffffff16815250908060018154018082558091505060019003905f5260205f2090600202015f909190919091505f820151815f0190816121f39190614dea565b506020820151816001015f6101000a81548173ffffffffffffffffffffffffffffffffffffffff021916908373ffffffffffffffffffffffffffffffffffffffff16021790555050504260135f3373ffffffffffffffffffffffffffffffffffffffff1673ffffffffffffffffffffffffffffffffffffffff1681526020019081526020015f20819055507f6c273d133e6c6367d40972f8ef51fc71789ea8bc667e662342cbecab4f46218c88886040516122af929190614eb9565b60405180910390a15050505050505050565b600e602052815f5260405f20602052805f5260405f205f915091509054906101000a900460ff1681565b6122fd6122f6612f40565b83836135bf565b5050565b82600c805490508110612349576040517f08c379a000000000000000000000000000000000000000000000000000000000815260040161234090614aff565b60405180910390fd5b82828080601f0160208091040260200160405190810160405280939291908181526020018383808284375f81840152601f19601f820116905080830192505050505050505f8151116123d0576040517f08c379a00000000000000000000000000000000000000000000000000000000081526004016123c790614b67565b60405180910390fd5b33600a426123de9190614bb2565b60135f3373ffffffffffffffffffffffffffffffffffffffff1673ffffffffffffffffffffffffffffffffffffffff1681526020019081526020015f20541061245c576040517f08c379a000000000000000000000000000000000000000000000000000000000815260040161245390614c2f565b60405180910390fd5b604051806040016040528086868080601f0160208091040260200160405190810160405280939291908181526020018383808284375f81840152601f19601f8201169050808301925050505050505081526020013373ffffffffffffffffffffffffffffffffffffffff1681525060105f8881526020019081526020015f205f60115f8a81526020019081526020015f205481526020019081526020015f205f820151815f01908161250e9190614dea565b506020820151816001015f6101000a81548173ffffffffffffffffffffffffffffffffffffffff021916908373ffffffffffffffffffffffffffffffffffffffff16021790555090505060115f8781526020019081526020015f205f8154612575906152c0565b919050819055504260135f3373ffffffffffffffffffffffffffffffffffffffff1673ffffffffffffffffffffffffffffffffffffffff1681526020019081526020015f20819055507f3021694d1ef819d2b9bc13c595d4f75437b6bbbb2dd33e9f2a9df24534f6b559866040516125ed91906143ab565b60405180910390a1505050505050565b61260e612608612f40565b83612ffd565b61264d576040517f08c379a000000000000000000000000000000000000000000000000000000000815260040161264490614f50565b60405180910390fd5b61265984848484613726565b50505050565b606061266a82612ef5565b5f60075f8481526020019081526020015f20805461268790614969565b80601f01602080910402602001604051908101604052809291908181526020018280546126b390614969565b80156126fe5780601f106126d5576101008083540402835291602001916126fe565b820191905f5260205f20905b8154815290600101906020018083116126e157829003601f168201915b505050505090505f61270e613782565b90505f815103612722578192505050612764565b5f8251111561275657808260405160200161273e929190615341565b60405160208183030381529060405292505050612764565b61275f84613798565b925050505b919050565b5f60065f8473ffffffffffffffffffffffffffffffffffffffff1673ffffffffffffffffffffffffffffffffffffffff1681526020019081526020015f205f8373ffffffffffffffffffffffffffffffffffffffff1673ffffffffffffffffffffffffffffffffffffffff1681526020019081526020015f205f9054906101000a900460ff16905092915050565b6127ff61337d565b5f73ffffffffffffffffffffffffffffffffffffffff168173ffffffffffffffffffffffffffffffffffffffff160361286d576040517f08c379a0000000000000000000000000000000000000000000000000000000008152600401612864906153d4565b60405180910390fd5b61287681613434565b50565b600a5f3373ffffffffffffffffffffffffffffffffffffffff1673ffffffffffffffffffffffffffffffffffffffff1681526020019081526020015f205f9054906101000a900460ff16612902576040517f08c379a00000000000000000000000000000000000000000000000000000000081526004016128f9906152a2565b60405180910390fd5b84848080601f0160208091040260200160405190810160405280939291908181526020018383808284375f81840152601f19601f820116905080830192505050505050505f815111612989576040517f08c379a000000000000000000000000000000000000000000000000000000000815260040161298090614b67565b60405180910390fd5b4284116129cb576040517f08c379a00000000000000000000000000000000000000000000000000000000081526004016129c29061543c565b60405180910390fd5b5f8260ff161180156129eb57505f6002836129e69190615487565b60ff16145b612a2a576040517f08c379a0000000000000000000000000000000000000000000000000000000008152600401612a2190615501565b60405180910390fd5b600580811115612a3d57612a3c614402565b5b8360ff161115612a82576040517f08c379a0000000000000000000000000000000000000000000000000000000008152600401612a7990615569565b60405180910390fd5b5f600c805490509050600c60405180610100016040528083815260200189898080601f0160208091040260200160405190810160405280939291908181526020018383808284375f81840152601f19601f8201169050808301925050505050505081526020018781526020018660ff166005811115612b0457612b03614402565b5b6005811115612b1657612b15614402565b5b81526020018560ff1681526020018560ff1681526020015f73ffffffffffffffffffffffffffffffffffffffff1681526020015f73ffffffffffffffffffffffffffffffffffffffff16815250908060018154018082558091505060019003905f5260205f2090600502015f909190919091505f820151815f01556020820151816001019081612ba69190614dea565b50604082015181600201556060820151816003015f6101000a81548160ff02191690836005811115612bdb57612bda614402565b5b021790555060808201518160030160016101000a81548160ff021916908360ff16021790555060a08201518160030160026101000a81548160ff021916908360ff16021790555060c08201518160030160036101000a81548173ffffffffffffffffffffffffffffffffffffffff021916908373ffffffffffffffffffffffffffffffffffffffff16021790555060e0820151816004015f6101000a81548173ffffffffffffffffffffffffffffffffffffffff021916908373ffffffffffffffffffffffffffffffffffffffff160217905550505033600b5f8381526020019081526020015f205f6101000a81548173ffffffffffffffffffffffffffffffffffffffff021916908373ffffffffffffffffffffffffffffffffffffffff1602179055507f5cb500f8744f1621d860dcaace657a4ecbcbb48087f90591af44c745b46b1bc8878787604051612d33939291906155b3565b60405180910390a150505050505050565b6010602052815f5260405f20602052805f5260405f205f9150915050805f018054612d6e90614969565b80601f0160208091040260200160405190810160405280929190818152602001828054612d9a90614969565b8015612de55780601f10612dbc57610100808354040283529160200191612de5565b820191905f5260205f20905b815481529060010190602001808311612dc857829003601f168201915b505050505090806001015f9054906101000a900473ffffffffffffffffffffffffffffffffffffffff16905082565b5f7f80ac58cd000000000000000000000000000000000000000000000000000000007bffffffffffffffffffffffffffffffffffffffffffffffffffffffff1916827bffffffffffffffffffffffffffffffffffffffffffffffffffffffff19161480612ede57507f5b5e139f000000000000000000000000000000000000000000000000000000007bffffffffffffffffffffffffffffffffffffffffffffffffffffffff1916827bffffffffffffffffffffffffffffffffffffffffffffffffffffffff1916145b80612eee5750612eed826137fd565b5b9050919050565b612efe81613866565b612f3d576040517f08c379a0000000000000000000000000000000000000000000000000000000008152600401612f34906150dc565b60405180910390fd5b50565b5f33905090565b8160055f8381526020019081526020015f205f6101000a81548173ffffffffffffffffffffffffffffffffffffffff021916908373ffffffffffffffffffffffffffffffffffffffff160217905550808273ffffffffffffffffffffffffffffffffffffffff16612fb783611463565b73ffffffffffffffffffffffffffffffffffffffff167f8c5be1e5ebec7d5bd14f71427d1e84f3dd0314c0f7b2291e5b200ac8c7c3b92560405160405180910390a45050565b5f8061300883611463565b90508073ffffffffffffffffffffffffffffffffffffffff168473ffffffffffffffffffffffffffffffffffffffff16148061304a57506130498185612769565b5b8061308857508373ffffffffffffffffffffffffffffffffffffffff16613070846106c5565b73ffffffffffffffffffffffffffffffffffffffff16145b91505092915050565b8273ffffffffffffffffffffffffffffffffffffffff166130b182611463565b73ffffffffffffffffffffffffffffffffffffffff1614613107576040517f08c379a00000000000000000000000000000000000000000000000000000000081526004016130fe90615653565b60405180910390fd5b5f73ffffffffffffffffffffffffffffffffffffffff168273ffffffffffffffffffffffffffffffffffffffff1603613175576040517f08c379a000000000000000000000000000000000000000000000000000000000815260040161316c906156e1565b60405180910390fd5b61318283838360016138a6565b8273ffffffffffffffffffffffffffffffffffffffff166131a282611463565b73ffffffffffffffffffffffffffffffffffffffff16146131f8576040517f08c379a00000000000000000000000000000000000000000000000000000000081526004016131ef90615653565b60405180910390fd5b60055f8281526020019081526020015f205f6101000a81549073ffffffffffffffffffffffffffffffffffffffff0219169055600160045f8573ffffffffffffffffffffffffffffffffffffffff1673ffffffffffffffffffffffffffffffffffffffff1681526020019081526020015f205f8282540392505081905550600160045f8473ffffffffffffffffffffffffffffffffffffffff1673ffffffffffffffffffffffffffffffffffffffff1681526020019081526020015f205f82825401925050819055508160035f8381526020019081526020015f205f6101000a81548173ffffffffffffffffffffffffffffffffffffffff021916908373ffffffffffffffffffffffffffffffffffffffff160217905550808273ffffffffffffffffffffffffffffffffffffffff168473ffffffffffffffffffffffffffffffffffffffff167fddf252ad1be2c89b69c2b068fc378daa952ba7f163c4a11628f55a4df523b3ef60405160405180910390a461337883838360016138ac565b505050565b613385612f40565b73ffffffffffffffffffffffffffffffffffffffff166133a3611df6565b73ffffffffffffffffffffffffffffffffffffffff16146133f9576040517f08c379a00000000000000000000000000000000000000000000000000000000081526004016133f090615749565b60405180910390fd5b565b5f60035f8381526020019081526020015f205f9054906101000a900473ffffffffffffffffffffffffffffffffffffffff169050919050565b5f805f9054906101000a900473ffffffffffffffffffffffffffffffffffffffff169050815f806101000a81548173ffffffffffffffffffffffffffffffffffffffff021916908373ffffffffffffffffffffffffffffffffffffffff1602179055508173ffffffffffffffffffffffffffffffffffffffff168173ffffffffffffffffffffffffffffffffffffffff167f8be0079c531659141344cd1fd0a4f28419497f9722a3daafe3b4186f6b6457e060405160405180910390a35050565b6134ff60086138b2565b5f61350a60086138c6565b905060405180608001604052808681526020018581526020018481526020018381525060095f8381526020019081526020015f205f820151815f0155602082015181600101908161355b9190614dea565b5060408201518160020190816135719190614dea565b5060608201518160030190816135879190614dea565b5090505061359586826138d2565b6135b781604051806080016040528060508152602001615a9760509139613ae5565b505050505050565b8173ffffffffffffffffffffffffffffffffffffffff168373ffffffffffffffffffffffffffffffffffffffff160361362d576040517f08c379a0000000000000000000000000000000000000000000000000000000008152600401613624906157b1565b60405180910390fd5b8060065f8573ffffffffffffffffffffffffffffffffffffffff1673ffffffffffffffffffffffffffffffffffffffff1681526020019081526020015f205f8473ffffffffffffffffffffffffffffffffffffffff1673ffffffffffffffffffffffffffffffffffffffff1681526020019081526020015f205f6101000a81548160ff0219169083151502179055508173ffffffffffffffffffffffffffffffffffffffff168373ffffffffffffffffffffffffffffffffffffffff167f17307eab39ab6107e8899845ad3d59bd9653f200f220920489ca2b5937696c31836040516137199190613ff1565b60405180910390a3505050565b613731848484613091565b61373d84848484613b87565b61377c576040517f08c379a00000000000000000000000000000000000000000000000000000000081526004016137739061583f565b60405180910390fd5b50505050565b606060405180602001604052805f815250905090565b60606137a382612ef5565b5f6137ac613782565b90505f8151116137ca5760405180602001604052805f8152506137f5565b806137d484613d09565b6040516020016137e5929190615341565b6040516020818303038152906040525b915050919050565b5f7f01ffc9a7000000000000000000000000000000000000000000000000000000007bffffffffffffffffffffffffffffffffffffffffffffffffffffffff1916827bffffffffffffffffffffffffffffffffffffffffffffffffffffffff1916149050919050565b5f8073ffffffffffffffffffffffffffffffffffffffff16613887836133fb565b73ffffffffffffffffffffffffffffffffffffffff1614159050919050565b50505050565b50505050565b6001815f015f828254019250508190555050565b5f815f01549050919050565b5f73ffffffffffffffffffffffffffffffffffffffff168273ffffffffffffffffffffffffffffffffffffffff1603613940576040517f08c379a0000000000000000000000000000000000000000000000000000000008152600401613937906158a7565b60405180910390fd5b61394981613866565b15613989576040517f08c379a00000000000000000000000000000000000000000000000000000000081526004016139809061590f565b60405180910390fd5b6139965f838360016138a6565b61399f81613866565b156139df576040517f08c379a00000000000000000000000000000000000000000000000000000000081526004016139d69061590f565b60405180910390fd5b600160045f8473ffffffffffffffffffffffffffffffffffffffff1673ffffffffffffffffffffffffffffffffffffffff1681526020019081526020015f205f82825401925050819055508160035f8381526020019081526020015f205f6101000a81548173ffffffffffffffffffffffffffffffffffffffff021916908373ffffffffffffffffffffffffffffffffffffffff160217905550808273ffffffffffffffffffffffffffffffffffffffff165f73ffffffffffffffffffffffffffffffffffffffff167fddf252ad1be2c89b69c2b068fc378daa952ba7f163c4a11628f55a4df523b3ef60405160405180910390a4613ae15f838360016138ac565b5050565b613aee82613866565b613b2d576040517f08c379a0000000000000000000000000000000000000000000000000000000008152600401613b249061599d565b60405180910390fd5b8060075f8481526020019081526020015f209081613b4b9190614dea565b507ff8e1a15aba9398e019f0b49df1a4fde98ee17ae345cb5f6b5e2c27f5033e8ce782604051613b7b91906143ab565b60405180910390a15050565b5f613ba78473ffffffffffffffffffffffffffffffffffffffff16613dd3565b15613cfc578373ffffffffffffffffffffffffffffffffffffffff1663150b7a02613bd0612f40565b8786866040518563ffffffff1660e01b8152600401613bf29493929190615a0d565b6020604051808303815f875af1925050508015613c2d57506040513d601f19601f82011682018060405250810190613c2a9190615a6b565b60015b613cac573d805f8114613c5b576040519150601f19603f3d011682016040523d82523d5f602084013e613c60565b606091505b505f815103613ca4576040517f08c379a0000000000000000000000000000000000000000000000000000000008152600401613c9b9061583f565b60405180910390fd5b805181602001fd5b63150b7a0260e01b7bffffffffffffffffffffffffffffffffffffffffffffffffffffffff1916817bffffffffffffffffffffffffffffffffffffffffffffffffffffffff191614915050613d01565b600190505b949350505050565b60605f6001613d1784613df5565b0190505f8167ffffffffffffffff811115613d3557613d34614640565b5b6040519080825280601f01601f191660200182016040528015613d675781602001600182028036833780820191505090505b5090505f82602001820190505b600115613dc8578080600190039150507f3031323334353637383961626364656600000000000000000000000000000000600a86061a8153600a8581613dbd57613dbc61545a565b5b0494505f8503613d74575b819350505050919050565b5f808273ffffffffffffffffffffffffffffffffffffffff163b119050919050565b5f805f90507a184f03e93ff9f4daa797ed6e38ed64bf6a1f0100000000000000008310613e51577a184f03e93ff9f4daa797ed6e38ed64bf6a1f0100000000000000008381613e4757613e4661545a565b5b0492506040810190505b6d04ee2d6d415b85acef81000000008310613e8e576d04ee2d6d415b85acef81000000008381613e8457613e8361545a565b5b0492506020810190505b662386f26fc100008310613ebd57662386f26fc100008381613eb357613eb261545a565b5b0492506010810190505b6305f5e1008310613ee6576305f5e1008381613edc57613edb61545a565b5b0492506008810190505b6127108310613f0b576127108381613f0157613f0061545a565b5b0492506004810190505b60648310613f2e5760648381613f2457613f2361545a565b5b0492506002810190505b600a8310613f3d576001810190505b80915050919050565b5f604051905090565b5f80fd5b5f80fd5b5f7fffffffff0000000000000000000000000000000000000000000000000000000082169050919050565b613f8b81613f57565b8114613f95575f80fd5b50565b5f81359050613fa681613f82565b92915050565b5f60208284031215613fc157613fc0613f4f565b5b5f613fce84828501613f98565b91505092915050565b5f8115159050919050565b613feb81613fd7565b82525050565b5f6020820190506140045f830184613fe2565b92915050565b5f81519050919050565b5f82825260208201905092915050565b5f5b83811015614041578082015181840152602081019050614026565b5f8484015250505050565b5f601f19601f8301169050919050565b5f6140668261400a565b6140708185614014565b9350614080818560208601614024565b6140898161404c565b840191505092915050565b5f6020820190508181035f8301526140ac818461405c565b905092915050565b5f819050919050565b6140c6816140b4565b81146140d0575f80fd5b50565b5f813590506140e1816140bd565b92915050565b5f602082840312156140fc576140fb613f4f565b5b5f614109848285016140d3565b91505092915050565b5f73ffffffffffffffffffffffffffffffffffffffff82169050919050565b5f61413b82614112565b9050919050565b61414b81614131565b82525050565b5f6020820190506141645f830184614142565b92915050565b61417381614131565b811461417d575f80fd5b50565b5f8135905061418e8161416a565b92915050565b5f80604083850312156141aa576141a9613f4f565b5b5f6141b785828601614180565b92505060206141c8858286016140d3565b9150509250929050565b5f80fd5b5f80fd5b5f80fd5b5f8083601f8401126141f3576141f26141d2565b5b8235905067ffffffffffffffff8111156142105761420f6141d6565b5b60208301915083600182028301111561422c5761422b6141da565b5b9250929050565b5f805f6040848603121561424a57614249613f4f565b5b5f614257868287016140d3565b935050602084013567ffffffffffffffff81111561427857614277613f53565b5b614284868287016141de565b92509250509250925092565b5f805f606084860312156142a7576142a6613f4f565b5b5f6142b486828701614180565b93505060206142c586828701614180565b92505060406142d6868287016140d3565b9150509250925092565b5f805f805f606086880312156142f9576142f8613f4f565b5b5f614306888289016140d3565b955050602086013567ffffffffffffffff81111561432757614326613f53565b5b614333888289016141de565b9450945050604086013567ffffffffffffffff81111561435657614355613f53565b5b614362888289016141de565b92509250509295509295909350565b5f6020828403121561438657614385613f4f565b5b5f61439384828501614180565b91505092915050565b6143a5816140b4565b82525050565b5f6020820190506143be5f83018461439c565b92915050565b5f80604083850312156143da576143d9613f4f565b5b5f6143e7858286016140d3565b92505060206143f885828601614180565b9150509250929050565b7f4e487b71000000000000000000000000000000000000000000000000000000005f52602160045260245ffd5b600681106144405761443f614402565b5b50565b5f8190506144508261442f565b919050565b5f61445f82614443565b9050919050565b61446f81614455565b82525050565b5f60ff82169050919050565b61448a81614475565b82525050565b5f610100820190506144a45f83018b61439c565b81810360208301526144b6818a61405c565b90506144c5604083018961439c565b6144d26060830188614466565b6144df6080830187614481565b6144ec60a0830186614481565b6144f960c0830185614142565b61450660e0830184614142565b9998505050505050505050565b5f805f6060848603121561452a57614529613f4f565b5b5f614537868287016140d3565b935050602061454886828701614180565b925050604061455986828701614180565b9150509250925092565b5f805f806060858703121561457b5761457a613f4f565b5b5f614588878288016140d3565b945050602061459987828801614180565b935050604085013567ffffffffffffffff8111156145ba576145b9613f53565b5b6145c6878288016141de565b925092505092959194509250565b6145dd81613fd7565b81146145e7575f80fd5b50565b5f813590506145f8816145d4565b92915050565b5f806040838503121561461457614613613f4f565b5b5f61462185828601614180565b9250506020614632858286016145ea565b9150509250929050565b5f80fd5b7f4e487b71000000000000000000000000000000000000000000000000000000005f52604160045260245ffd5b6146768261404c565b810181811067ffffffffffffffff8211171561469557614694614640565b5b80604052505050565b5f6146a7613f46565b90506146b3828261466d565b919050565b5f67ffffffffffffffff8211156146d2576146d1614640565b5b6146db8261404c565b9050602081019050919050565b828183375f83830152505050565b5f614708614703846146b8565b61469e565b9050828152602081018484840111156147245761472361463c565b5b61472f8482856146e8565b509392505050565b5f82601f83011261474b5761474a6141d2565b5b813561475b8482602086016146f6565b91505092915050565b5f805f806080858703121561477c5761477b613f4f565b5b5f61478987828801614180565b945050602061479a87828801614180565b93505060406147ab878288016140d3565b925050606085013567ffffffffffffffff8111156147cc576147cb613f53565b5b6147d887828801614737565b91505092959194509250565b5f80604083850312156147fa576147f9613f4f565b5b5f61480785828601614180565b925050602061481885828601614180565b9150509250929050565b61482b81614475565b8114614835575f80fd5b50565b5f8135905061484681614822565b92915050565b5f805f805f6080868803121561486557614864613f4f565b5b5f86013567ffffffffffffffff81111561488257614881613f53565b5b61488e888289016141de565b955095505060206148a1888289016140d3565b93505060406148b288828901614838565b92505060606148c388828901614838565b9150509295509295909350565b5f80604083850312156148e6576148e5613f4f565b5b5f6148f3858286016140d3565b9250506020614904858286016140d3565b9150509250929050565b5f6040820190508181035f830152614926818561405c565b90506149356020830184614142565b9392505050565b7f4e487b71000000000000000000000000000000000000000000000000000000005f52602260045260245ffd5b5f600282049050600182168061498057607f821691505b6020821081036149935761499261493c565b5b50919050565b7f4552433732313a20617070726f76616c20746f2063757272656e74206f776e655f8201527f7200000000000000000000000000000000000000000000000000000000000000602082015250565b5f6149f3602183614014565b91506149fe82614999565b604082019050919050565b5f6020820190508181035f830152614a20816149e7565b9050919050565b7f4552433732313a20617070726f76652063616c6c6572206973206e6f7420746f5f8201527f6b656e206f776e6572206f7220617070726f76656420666f7220616c6c000000602082015250565b5f614a81603d83614014565b9150614a8c82614a27565b604082019050919050565b5f6020820190508181035f830152614aae81614a75565b9050919050565b7f57726f6e672069642073656e74000000000000000000000000000000000000005f82015250565b5f614ae9600d83614014565b9150614af482614ab5565b602082019050919050565b5f6020820190508181035f830152614b1681614add565b9050919050565b7f43616e6e6f7420626520656d70747900000000000000000000000000000000005f82015250565b5f614b51600f83614014565b9150614b5c82614b1d565b602082019050919050565b5f6020820190508181035f830152614b7e81614b45565b9050919050565b7f4e487b71000000000000000000000000000000000000000000000000000000005f52601160045260245ffd5b5f614bbc826140b4565b9150614bc7836140b4565b9250828203905081811115614bdf57614bde614b85565b5b92915050565b7f57616974203130730000000000000000000000000000000000000000000000005f82015250565b5f614c19600883614014565b9150614c2482614be5565b602082019050919050565b5f6020820190508181035f830152614c4681614c0d565b9050919050565b5f819050815f5260205f209050919050565b5f6020601f8301049050919050565b5f82821b905092915050565b5f60088302614ca97fffffffffffffffffffffffffffffffffffffffffffffffffffffffffffffffff82614c6e565b614cb38683614c6e565b95508019841693508086168417925050509392505050565b5f819050919050565b5f614cee614ce9614ce4846140b4565b614ccb565b6140b4565b9050919050565b5f819050919050565b614d0783614cd4565b614d1b614d1382614cf5565b848454614c7a565b825550505050565b5f90565b614d2f614d23565b614d3a818484614cfe565b505050565b5b81811015614d5d57614d525f82614d27565b600181019050614d40565b5050565b601f821115614da257614d7381614c4d565b614d7c84614c5f565b81016020851015614d8b578190505b614d9f614d9785614c5f565b830182614d3f565b50505b505050565b5f82821c905092915050565b5f614dc25f1984600802614da7565b1980831691505092915050565b5f614dda8383614db3565b9150826002028217905092915050565b614df38261400a565b67ffffffffffffffff811115614e0c57614e0b614640565b5b614e168254614969565b614e21828285614d61565b5f60209050601f831160018114614e52575f8415614e40578287015190505b614e4a8582614dcf565b865550614eb1565b601f198416614e6086614c4d565b5f5b82811015614e8757848901518255600182019150602085019450602081019050614e62565b86831015614ea45784890151614ea0601f891682614db3565b8355505b6001600288020188555050505b505050505050565b5f604082019050614ecc5f83018561439c565b614ed96020830184614142565b9392505050565b7f4552433732313a2063616c6c6572206973206e6f7420746f6b656e206f776e655f8201527f72206f7220617070726f76656400000000000000000000000000000000000000602082015250565b5f614f3a602d83614014565b9150614f4582614ee0565b604082019050919050565b5f6020820190508181035f830152614f6781614f2e565b9050919050565b7f416c7265616479207265676973746572656400000000000000000000000000005f82015250565b5f614fa2601283614014565b9150614fad82614f6e565b602082019050919050565b5f6020820190508181035f830152614fcf81614f96565b9050919050565b7f4e487b71000000000000000000000000000000000000000000000000000000005f52603260045260245ffd5b5f61500d82614475565b91505f820361501f5761501e614b85565b5b600182039050919050565b7f43616e6e6f7420626520746865207a65726f20616464726573730000000000005f82015250565b5f61505e601a83614014565b91506150698261502a565b602082019050919050565b5f6020820190508181035f83015261508b81615052565b9050919050565b7f4552433732313a20696e76616c696420746f6b656e20494400000000000000005f82015250565b5f6150c6601883614014565b91506150d182615092565b602082019050919050565b5f6020820190508181035f8301526150f3816150ba565b9050919050565b7f4552433732313a2061646472657373207a65726f206973206e6f7420612076615f8201527f6c6964206f776e65720000000000000000000000000000000000000000000000602082015250565b5f615154602983614014565b915061515f826150fa565b604082019050919050565b5f6020820190508181035f83015261518181615148565b9050919050565b7f53616d65206164647265737300000000000000000000000000000000000000005f82015250565b5f6151bc600c83614014565b91506151c782615188565b602082019050919050565b5f6020820190508181035f8301526151e9816151b0565b9050919050565b7f4e6f7420726567697374657265640000000000000000000000000000000000005f82015250565b5f615224600e83614014565b915061522f826151f0565b602082019050919050565b5f6020820190508181035f83015261525181615218565b9050919050565b7f466f7262696464656e00000000000000000000000000000000000000000000005f82015250565b5f61528c600983614014565b915061529782615258565b602082019050919050565b5f6020820190508181035f8301526152b981615280565b9050919050565b5f6152ca826140b4565b91507fffffffffffffffffffffffffffffffffffffffffffffffffffffffffffffffff82036152fc576152fb614b85565b5b600182019050919050565b5f81905092915050565b5f61531b8261400a565b6153258185615307565b9350615335818560208601614024565b80840191505092915050565b5f61534c8285615311565b91506153588284615311565b91508190509392505050565b7f4f776e61626c653a206e6577206f776e657220697320746865207a65726f20615f8201527f6464726573730000000000000000000000000000000000000000000000000000602082015250565b5f6153be602683614014565b91506153c982615364565b604082019050919050565b5f6020820190508181035f8301526153eb816153b2565b9050919050565b7f496e636f727265637420646174650000000000000000000000000000000000005f82015250565b5f615426600e83614014565b9150615431826153f2565b602082019050919050565b5f6020820190508181035f8301526154538161541a565b9050919050565b7f4e487b71000000000000000000000000000000000000000000000000000000005f52601260045260245ffd5b5f61549182614475565b915061549c83614475565b9250826154ac576154ab61545a565b5b828206905092915050565b7f506c6179656420627920320000000000000000000000000000000000000000005f82015250565b5f6154eb600b83614014565b91506154f6826154b7565b602082019050919050565b5f6020820190508181035f830152615518816154df565b9050919050565b7f496e636f727265637420646966666963756c74790000000000000000000000005f82015250565b5f615553601483614014565b915061555e8261551f565b602082019050919050565b5f6020820190508181035f83015261558081615547565b9050919050565b5f6155928385614014565b935061559f8385846146e8565b6155a88361404c565b840190509392505050565b5f6040820190508181035f8301526155cc818587615587565b90506155db602083018461439c565b949350505050565b7f4552433732313a207472616e736665722066726f6d20696e636f7272656374205f8201527f6f776e6572000000000000000000000000000000000000000000000000000000602082015250565b5f61563d602583614014565b9150615648826155e3565b604082019050919050565b5f6020820190508181035f83015261566a81615631565b9050919050565b7f4552433732313a207472616e7366657220746f20746865207a65726f206164645f8201527f7265737300000000000000000000000000000000000000000000000000000000602082015250565b5f6156cb602483614014565b91506156d682615671565b604082019050919050565b5f6020820190508181035f8301526156f8816156bf565b9050919050565b7f4f776e61626c653a2063616c6c6572206973206e6f7420746865206f776e65725f82015250565b5f615733602083614014565b915061573e826156ff565b602082019050919050565b5f6020820190508181035f83015261576081615727565b9050919050565b7f4552433732313a20617070726f766520746f2063616c6c6572000000000000005f82015250565b5f61579b601983614014565b91506157a682615767565b602082019050919050565b5f6020820190508181035f8301526157c88161578f565b9050919050565b7f4552433732313a207472616e7366657220746f206e6f6e2045524337323152655f8201527f63656976657220696d706c656d656e7465720000000000000000000000000000602082015250565b5f615829603283614014565b9150615834826157cf565b604082019050919050565b5f6020820190508181035f8301526158568161581d565b9050919050565b7f4552433732313a206d696e7420746f20746865207a65726f20616464726573735f82015250565b5f615891602083614014565b915061589c8261585d565b602082019050919050565b5f6020820190508181035f8301526158be81615885565b9050919050565b7f4552433732313a20746f6b656e20616c7265616479206d696e746564000000005f82015250565b5f6158f9601c83614014565b9150615904826158c5565b602082019050919050565b5f6020820190508181035f830152615926816158ed565b9050919050565b7f45524337323155524953746f726167653a2055524920736574206f66206e6f6e5f8201527f6578697374656e7420746f6b656e000000000000000000000000000000000000602082015250565b5f615987602e83614014565b91506159928261592d565b604082019050919050565b5f6020820190508181035f8301526159b48161597b565b9050919050565b5f81519050919050565b5f82825260208201905092915050565b5f6159df826159bb565b6159e981856159c5565b93506159f9818560208601614024565b615a028161404c565b840191505092915050565b5f608082019050615a205f830187614142565b615a2d6020830186614142565b615a3a604083018561439c565b8181036060830152615a4c81846159d5565b905095945050505050565b5f81519050615a6581613f82565b92915050565b5f60208284031215615a8057615a7f613f4f565b5b5f615a8d84828501615a57565b9150509291505056fe68747470733a2f2f676174657761792e70696e6174612e636c6f75642f697066732f516d657834754e376e6b586654365974325a71686d74636d5a4e6b536f44574a37534a56714a694d6156317a3479a2646970667358221220e0707414ff53672a4b7b8dc44362a8ba7661d6262baaf6976fd86a47decdf69564736f6c63430008140033",
  "linkReferences": {},
  "deployedLinkReferences": {}
}