{
  "_format": "hh-sol-artifact-1",
  "contractName": "PadelConnect",
  "sourceName": "contracts/PadelConnect.sol",
  "abi": [
    {
      "inputs": [],
      "name": "CompleteTournament",
      "type": "error"
    },
    {
      "inputs": [],
      "name": "ErrorDuringPayment",
      "type": "error"
    },
    {
      "inputs": [],
      "name": "RegistrationEnded",
      "type": "error"
    },
    {
      "anonymous": false,
      "inputs": [
        {
          "indexed": false,
          "internalType": "address",
          "name": "_address",
          "type": "address"
        }
      ],
      "name": "ManagerAdded",
      "type": "event"
    },
    {
      "anonymous": false,
      "inputs": [
        {
          "indexed": true,
          "internalType": "address",
          "name": "previousOwner",
          "type": "address"
        },
        {
          "indexed": true,
          "internalType": "address",
          "name": "newOwner",
          "type": "address"
        }
      ],
      "name": "OwnershipTransferred",
      "type": "event"
    },
    {
      "anonymous": false,
      "inputs": [
        {
          "indexed": false,
          "internalType": "uint256",
          "name": "tournamentId",
          "type": "uint256"
        }
      ],
      "name": "TournamentCommentAdded",
      "type": "event"
    },
    {
      "anonymous": false,
      "inputs": [
        {
          "indexed": false,
          "internalType": "uint256",
          "name": "id",
          "type": "uint256"
        }
      ],
      "name": "TournamentCreated",
      "type": "event"
    },
    {
      "anonymous": false,
      "inputs": [
        {
          "indexed": false,
          "internalType": "uint256",
          "name": "tournamentId",
          "type": "uint256"
        },
        {
          "indexed": false,
          "internalType": "address",
          "name": "player",
          "type": "address"
        }
      ],
      "name": "TournamentFollowed",
      "type": "event"
    },
    {
      "inputs": [
        {
          "internalType": "uint256",
          "name": "_id",
          "type": "uint256"
        },
        {
          "internalType": "string",
          "name": "_message",
          "type": "string"
        }
      ],
      "name": "addComment",
      "outputs": [],
      "stateMutability": "nonpayable",
      "type": "function"
    },
    {
      "inputs": [
        {
          "internalType": "address",
          "name": "_address",
          "type": "address"
        }
      ],
      "name": "addManager",
      "outputs": [],
      "stateMutability": "nonpayable",
      "type": "function"
    },
    {
      "inputs": [
        {
          "internalType": "uint256",
          "name": "_id",
          "type": "uint256"
        },
        {
          "internalType": "string",
          "name": "_message",
          "type": "string"
        }
      ],
      "name": "addMessageToManager",
      "outputs": [],
      "stateMutability": "nonpayable",
      "type": "function"
    },
    {
      "inputs": [
        {
          "internalType": "uint256",
          "name": "_id",
          "type": "uint256"
        },
        {
          "internalType": "address",
          "name": "_player",
          "type": "address"
        },
        {
          "internalType": "string",
          "name": "_message",
          "type": "string"
        }
      ],
      "name": "addResponseToPlayer",
      "outputs": [],
      "stateMutability": "nonpayable",
      "type": "function"
    },
    {
      "inputs": [
        {
          "internalType": "string",
          "name": "_city",
          "type": "string"
        },
        {
          "internalType": "uint256",
          "name": "_date",
          "type": "uint256"
        },
        {
          "internalType": "uint8",
          "name": "_diff",
          "type": "uint8"
        },
        {
          "internalType": "uint8",
          "name": "_maxPlayers",
          "type": "uint8"
        }
      ],
      "name": "addTournament",
      "outputs": [],
      "stateMutability": "nonpayable",
      "type": "function"
    },
    {
      "inputs": [
        {
          "internalType": "uint256",
          "name": "_id",
          "type": "uint256"
        },
        {
          "internalType": "address",
          "name": "_winner1",
          "type": "address"
        },
        {
          "internalType": "address",
          "name": "_winner2",
          "type": "address"
        }
      ],
      "name": "addWinners",
      "outputs": [],
      "stateMutability": "nonpayable",
      "type": "function"
    },
    {
      "inputs": [
        {
          "internalType": "uint256",
          "name": "",
          "type": "uint256"
        },
        {
          "internalType": "uint256",
          "name": "",
          "type": "uint256"
        }
      ],
      "name": "comments",
      "outputs": [
        {
          "internalType": "string",
          "name": "message",
          "type": "string"
        },
        {
          "internalType": "address",
          "name": "author",
          "type": "address"
        }
      ],
      "stateMutability": "view",
      "type": "function"
    },
    {
      "inputs": [
        {
          "internalType": "uint256",
          "name": "_id",
          "type": "uint256"
        },
        {
          "internalType": "bool",
          "name": "_follow",
          "type": "bool"
        }
      ],
      "name": "followTournament",
      "outputs": [],
      "stateMutability": "nonpayable",
      "type": "function"
    },
    {
      "inputs": [
        {
          "internalType": "uint256",
          "name": "",
          "type": "uint256"
        },
        {
          "internalType": "address",
          "name": "",
          "type": "address"
        }
      ],
      "name": "followedTournaments",
      "outputs": [
        {
          "internalType": "bool",
          "name": "",
          "type": "bool"
        }
      ],
      "stateMutability": "view",
      "type": "function"
    },
    {
      "inputs": [
        {
          "internalType": "uint256",
          "name": "_id",
          "type": "uint256"
        }
      ],
      "name": "getExchanges",
      "outputs": [
        {
          "internalType": "address[]",
          "name": "",
          "type": "address[]"
        }
      ],
      "stateMutability": "view",
      "type": "function"
    },
    {
      "inputs": [
        {
          "internalType": "uint256",
          "name": "_id",
          "type": "uint256"
        },
        {
          "internalType": "address",
          "name": "_player",
          "type": "address"
        }
      ],
      "name": "getMessagesManagerPlayer",
      "outputs": [
        {
          "components": [
            {
              "internalType": "string",
              "name": "message",
              "type": "string"
            },
            {
              "internalType": "address",
              "name": "author",
              "type": "address"
            }
          ],
          "internalType": "struct IPadelConnect.Comment[]",
          "name": "",
          "type": "tuple[]"
        }
      ],
      "stateMutability": "view",
      "type": "function"
    },
    {
      "inputs": [],
      "name": "getTournaments",
      "outputs": [
        {
          "internalType": "uint256[]",
          "name": "",
          "type": "uint256[]"
        }
      ],
      "stateMutability": "view",
      "type": "function"
    },
    {
      "inputs": [],
      "name": "getTournamentsByPlayer",
      "outputs": [
        {
          "internalType": "uint256[]",
          "name": "",
          "type": "uint256[]"
        }
      ],
      "stateMutability": "view",
      "type": "function"
    },
    {
      "inputs": [
        {
          "internalType": "uint256",
          "name": "",
          "type": "uint256"
        }
      ],
      "name": "idComments",
      "outputs": [
        {
          "internalType": "uint256",
          "name": "",
          "type": "uint256"
        }
      ],
      "stateMutability": "view",
      "type": "function"
    },
    {
      "inputs": [
        {
          "internalType": "uint256",
          "name": "",
          "type": "uint256"
        }
      ],
      "name": "linkManagerTournament",
      "outputs": [
        {
          "internalType": "address",
          "name": "",
          "type": "address"
        }
      ],
      "stateMutability": "view",
      "type": "function"
    },
    {
      "inputs": [
        {
          "internalType": "address",
          "name": "",
          "type": "address"
        }
      ],
      "name": "managers",
      "outputs": [
        {
          "internalType": "bool",
          "name": "",
          "type": "bool"
        }
      ],
      "stateMutability": "view",
      "type": "function"
    },
    {
      "inputs": [],
      "name": "owner",
      "outputs": [
        {
          "internalType": "address",
          "name": "",
          "type": "address"
        }
      ],
      "stateMutability": "view",
      "type": "function"
    },
    {
      "inputs": [
        {
          "internalType": "uint256",
          "name": "",
          "type": "uint256"
        },
        {
          "internalType": "address",
          "name": "",
          "type": "address"
        }
      ],
      "name": "playersRegistered",
      "outputs": [
        {
          "internalType": "bool",
          "name": "",
          "type": "bool"
        }
      ],
      "stateMutability": "view",
      "type": "function"
    },
    {
      "inputs": [
        {
          "internalType": "uint256",
          "name": "_id",
          "type": "uint256"
        }
      ],
      "name": "registerPlayer",
      "outputs": [],
      "stateMutability": "nonpayable",
      "type": "function"
    },
    {
      "inputs": [],
      "name": "renounceOwnership",
      "outputs": [],
      "stateMutability": "nonpayable",
      "type": "function"
    },
    {
      "inputs": [
        {
          "internalType": "uint256",
          "name": "",
          "type": "uint256"
        }
      ],
      "name": "tournaments",
      "outputs": [
        {
          "internalType": "uint256",
          "name": "id",
          "type": "uint256"
        },
        {
          "internalType": "string",
          "name": "city",
          "type": "string"
        },
        {
          "internalType": "uint256",
          "name": "date",
          "type": "uint256"
        },
        {
          "internalType": "enum IPadelConnect.Difficulty",
          "name": "difficulty",
          "type": "uint8"
        },
        {
          "internalType": "uint8",
          "name": "registrationsAvailable",
          "type": "uint8"
        },
        {
          "internalType": "address",
          "name": "winner1",
          "type": "address"
        },
        {
          "internalType": "address",
          "name": "winner2",
          "type": "address"
        }
      ],
      "stateMutability": "view",
      "type": "function"
    },
    {
      "inputs": [
        {
          "internalType": "address",
          "name": "newOwner",
          "type": "address"
        }
      ],
      "name": "transferOwnership",
      "outputs": [],
      "stateMutability": "nonpayable",
      "type": "function"
    }
  ],
  "bytecode": "0x608060405234801562000010575f80fd5b5062000031620000256200003760201b60201c565b6200003e60201b60201c565b620000ff565b5f33905090565b5f805f9054906101000a900473ffffffffffffffffffffffffffffffffffffffff169050815f806101000a81548173ffffffffffffffffffffffffffffffffffffffff021916908373ffffffffffffffffffffffffffffffffffffffff1602179055508173ffffffffffffffffffffffffffffffffffffffff168173ffffffffffffffffffffffffffffffffffffffff167f8be0079c531659141344cd1fd0a4f28419497f9722a3daafe3b4186f6b6457e060405160405180910390a35050565b61513e806200010d5f395ff3fe608060405234801561000f575f80fd5b5060043610610140575f3560e01c8063998ac197116100b6578063f2fde38b1161007a578063f2fde38b14610374578063f52ec1cb14610390578063f7f20cb3146103c0578063f891e08b146103de578063fc6c776f146103fa578063fdff9b4d1461042b57610140565b8063998ac197146102d25780639b535ead146102ee578063aa7e56831461031e578063bd83f6e31461033a578063d566a3821461035857610140565b8063715018a611610108578063715018a61461020c5780637503e1b71461021657806375843aba1461024c578063821644e61461027c5780638a8da1f7146102985780638da5cb5b146102b457610140565b80632d06177a1461014457806332e9f509146101605780633682fd031461017c5780633ae48eb8146101ac5780633b26f59c146101dc575b5f80fd5b61015e60048036038101906101599190613ddb565b61045b565b005b61017a60048036038101906101759190613e6e565b610753565b005b61019660048036038101906101919190613eac565b610988565b6040516101a39190613ee6565b60405180910390f35b6101c660048036038101906101c19190613eff565b61099d565b6040516101d39190613f4c565b60405180910390f35b6101f660048036038101906101f19190613eac565b6109c7565b604051610203919061401c565b60405180910390f35b610214610a9f565b005b610230600480360381019061022b9190613eac565b610ab2565b6040516102439796959493929190614163565b60405180910390f35b61026660048036038101906102619190613eff565b610bdd565b6040516102739190614314565b60405180910390f35b61029660048036038101906102919190613eac565b610f9f565b005b6102b260048036038101906102ad9190614334565b61164e565b005b6102bc611da4565b6040516102c99190614384565b60405180910390f35b6102ec60048036038101906102e791906143fe565b611dcb565b005b61030860048036038101906103039190613eff565b61252f565b6040516103159190613f4c565b60405180910390f35b6103386004803603810190610333919061446f565b612559565b005b610342612aad565b60405161034f9190614583565b60405180910390f35b610372600480360381019061036d919061446f565b612b7a565b005b61038e60048036038101906103899190613ddb565b6131cf565b005b6103aa60048036038101906103a59190613eac565b613251565b6040516103b79190614384565b60405180910390f35b6103c8613281565b6040516103d59190614583565b60405180910390f35b6103f860048036038101906103f391906145cd565b61334e565b005b610414600480360381019061040f9190614651565b613b43565b60405161042292919061468f565b60405180910390f35b61044560048036038101906104409190613ddb565b613c13565b6040516104529190613f4c565b60405180910390f35b61046f67dc10f580b49fcd1c60c01b613c30565b610477613c33565b61048b670a5a48c441efae5260c01b613c30565b61049f67c622b70d9a47c4fb60c01b613c30565b806104b467b11f4080883007ba60c01b613c30565b6104c867e80104790e0e51c060c01b613c30565b6104dc671a6fff257a44d79660c01b613c30565b6104f06731b9f9a63a68e10a60c01b613c30565b5f73ffffffffffffffffffffffffffffffffffffffff168173ffffffffffffffffffffffffffffffffffffffff160361055e576040517f08c379a000000000000000000000000000000000000000000000000000000000815260040161055590614707565b60405180910390fd5b61057267c5a4257b9cd48c5860c01b613c30565b610586670b2e3acb21715bbe60c01b613c30565b61059a67ab3f88e1066dd24c60c01b613c30565b6105ae67436fce33529549db60c01b613c30565b6105c2673745e35eabb5cc3f60c01b613c30565b6105d667f378f882744a0de160c01b613c30565b6105ea67a09f10cc5f6666af60c01b613c30565b60015f8373ffffffffffffffffffffffffffffffffffffffff1673ffffffffffffffffffffffffffffffffffffffff1681526020019081526020015f205f9054906101000a900460ff1615610674576040517f08c379a000000000000000000000000000000000000000000000000000000000815260040161066b9061476f565b60405180910390fd5b61068867a489048b33a9210860c01b613c30565b61069c67f0ae531d7a80338560c01b613c30565b6001805f8473ffffffffffffffffffffffffffffffffffffffff1673ffffffffffffffffffffffffffffffffffffffff1681526020019081526020015f205f6101000a81548160ff02191690831515021790555061070467f1661627e25ee40060c01b613c30565b6107186778614aaa5a034d9160c01b613c30565b7f3b4a40cccf2058c593542587329dd385be4f0b588db5471fbd9598e56dd7093a826040516107479190614384565b60405180910390a15050565b6107676771a530fa4bddaf3660c01b613c30565b8161077c6779e20414899381ea60c01b613c30565b61079067f7d3aa3db607396360c01b613c30565b6107a467ad44291b7ee41afc60c01b613c30565b6107b867939045f94a99d34360c01b613c30565b60048054905081106107ff576040517f08c379a00000000000000000000000000000000000000000000000000000000081526004016107f6906147d7565b60405180910390fd5b610813674e0e7e368a911a7e60c01b613c30565b610827671ba29d8eed77b1e060c01b613c30565b61083b67dbffd84282a02ce460c01b613c30565b61084f67608d8e65591115c560c01b613c30565b61086367e27f408880caa56160c01b613c30565b8160075f8581526020019081526020015f205f3373ffffffffffffffffffffffffffffffffffffffff1673ffffffffffffffffffffffffffffffffffffffff1681526020019081526020015f205f6101000a81548160ff0219169083151502179055506108da67ffd6cd46f0ab22ef60c01b613c30565b6108ee6741c34dc9a2f76b4660c01b613c30565b811561096e5761090867d6a32e78560e134960c01b613c30565b61091c67a95c04f421fd6b2960c01b613c30565b61093067e5b89a134a07ff2d60c01b613c30565b7fcebe1f0a5fde2bf224e75cda66447253a2b8003182e6074f2a65ec2b2600806283336040516109619291906147f5565b60405180910390a1610983565b6109826780e3bf37aff299d160c01b613c30565b5b505050565b6009602052805f5260405f205f915090505481565b6007602052815f5260405f20602052805f5260405f205f915091509054906101000a900460ff1681565b60606109dd67d7c1ca29e763e73e60c01b613c30565b6109f167038528e343103e6460c01b613c30565b610a0567031c02eac39ca4bd60c01b613c30565b600b5f8381526020019081526020015f20805480602002602001604051908101604052809291908181526020018280548015610a9357602002820191905f5260205f20905b815f9054906101000a900473ffffffffffffffffffffffffffffffffffffffff1673ffffffffffffffffffffffffffffffffffffffff1681526020019060010190808311610a4a575b50505050509050919050565b610aa7613c33565b610ab05f613cb1565b565b60048181548110610ac1575f80fd5b905f5260205f2090600502015f91509050805f015490806001018054610ae690614849565b80601f0160208091040260200160405190810160405280929190818152602001828054610b1290614849565b8015610b5d5780601f10610b3457610100808354040283529160200191610b5d565b820191905f5260205f20905b815481529060010190602001808311610b4057829003601f168201915b505050505090806002015490806003015f9054906101000a900460ff16908060030160019054906101000a900460ff16908060030160029054906101000a900473ffffffffffffffffffffffffffffffffffffffff1690806004015f9054906101000a900473ffffffffffffffffffffffffffffffffffffffff16905087565b6060610bf367079318c7f9e8f23660c01b613c30565b82610c086779e20414899381ea60c01b613c30565b610c1c67f7d3aa3db607396360c01b613c30565b610c3067ad44291b7ee41afc60c01b613c30565b610c4467939045f94a99d34360c01b613c30565b6004805490508110610c8b576040517f08c379a0000000000000000000000000000000000000000000000000000000008152600401610c82906147d7565b60405180910390fd5b610c9f674e0e7e368a911a7e60c01b613c30565b610cb3671ba29d8eed77b1e060c01b613c30565b610cc767d4bbf55e514283e260c01b613c30565b610cdb6724de8af4b2e79f3160c01b613c30565b82610cf067b11f4080883007ba60c01b613c30565b610d0467e80104790e0e51c060c01b613c30565b610d18671a6fff257a44d79660c01b613c30565b610d2c6731b9f9a63a68e10a60c01b613c30565b5f73ffffffffffffffffffffffffffffffffffffffff168173ffffffffffffffffffffffffffffffffffffffff1603610d9a576040517f08c379a0000000000000000000000000000000000000000000000000000000008152600401610d9190614707565b60405180910390fd5b610dae67c5a4257b9cd48c5860c01b613c30565b610dc2670b2e3acb21715bbe60c01b613c30565b610dd667b4c9614c715a7fc660c01b613c30565b610dea67cd0528fc23831cb060c01b613c30565b610dfe67f84d0d6c2bfbe04160c01b613c30565b610e12675afc53bc5793edd760c01b613c30565b600a5f8681526020019081526020015f205f8573ffffffffffffffffffffffffffffffffffffffff1673ffffffffffffffffffffffffffffffffffffffff1681526020019081526020015f20805480602002602001604051908101604052809291908181526020015f905b82821015610f91578382905f5260205f2090600202016040518060400160405290815f82018054610ead90614849565b80601f0160208091040260200160405190810160405280929190818152602001828054610ed990614849565b8015610f245780601f10610efb57610100808354040283529160200191610f24565b820191905f5260205f20905b815481529060010190602001808311610f0757829003601f168201915b50505050508152602001600182015f9054906101000a900473ffffffffffffffffffffffffffffffffffffffff1673ffffffffffffffffffffffffffffffffffffffff1673ffffffffffffffffffffffffffffffffffffffff168152505081526020019060010190610e7d565b505050509250505092915050565b610fb367a3165b9b1138a63f60c01b613c30565b80610fc86779e20414899381ea60c01b613c30565b610fdc67f7d3aa3db607396360c01b613c30565b610ff067ad44291b7ee41afc60c01b613c30565b61100467939045f94a99d34360c01b613c30565b600480549050811061104b576040517f08c379a0000000000000000000000000000000000000000000000000000000008152600401611042906147d7565b60405180910390fd5b61105f674e0e7e368a911a7e60c01b613c30565b611073671ba29d8eed77b1e060c01b613c30565b61108767aac32e4eb96fc66160c01b613c30565b61109b67bfdcf73043f6d74260c01b613c30565b6110af67c50ed91854f8deec60c01b613c30565b6110c367684490f89acb985160c01b613c30565b6110d76751ba4ec3d4b1f7dd60c01b613c30565b60055f8381526020019081526020015f205f3373ffffffffffffffffffffffffffffffffffffffff1673ffffffffffffffffffffffffffffffffffffffff1681526020019081526020015f205f9054906101000a900460ff1615611170576040517f08c379a00000000000000000000000000000000000000000000000000000000081526004016111679061476f565b60405180910390fd5b611184677a1217ef1db4f1e160c01b613c30565b61119867f6dd22801d5f4ecd60c01b613c30565b6111ac67447b4200e47a1a9160c01b613c30565b5f600483815481106111c1576111c0614879565b5b905f5260205f2090600502016040518060e00160405290815f82015481526020016001820180546111f190614849565b80601f016020809104026020016040519081016040528092919081815260200182805461121d90614849565b80156112685780601f1061123f57610100808354040283529160200191611268565b820191905f5260205f20905b81548152906001019060200180831161124b57829003601f168201915b5050505050815260200160028201548152602001600382015f9054906101000a900460ff16600581111561129f5761129e6140c6565b5b60058111156112b1576112b06140c6565b5b81526020016003820160019054906101000a900460ff1660ff1660ff1681526020016003820160029054906101000a900473ffffffffffffffffffffffffffffffffffffffff1673ffffffffffffffffffffffffffffffffffffffff1673ffffffffffffffffffffffffffffffffffffffff168152602001600482015f9054906101000a900473ffffffffffffffffffffffffffffffffffffffff1673ffffffffffffffffffffffffffffffffffffffff1673ffffffffffffffffffffffffffffffffffffffff16815250509050611393672d61d169bcafe39c60c01b613c30565b6113a76785bc71cfd31b46c960c01b613c30565b428160400151101561140d576113c7670486345d3023e19f60c01b613c30565b6113db67ac3cc86e6810295560c01b613c30565b6040517f2ee88f5000000000000000000000000000000000000000000000000000000000815260040160405180910390fd5b611421674aa7e7cc66eb3feb60c01b613c30565b61143567f0355a9f768f4e8c60c01b613c30565b61144967e833409f0260034960c01b613c30565b5f816080015160ff16036114b15761146b671523b4bcee435c6a60c01b613c30565b61147f6712c546456eb484ea60c01b613c30565b6040517f106e2afe00000000000000000000000000000000000000000000000000000000815260040160405180910390fd5b6114c5673f42c0500b59eee360c01b613c30565b6114d9671dd53c71f6f53aca60c01b613c30565b600160055f8581526020019081526020015f205f3373ffffffffffffffffffffffffffffffffffffffff1673ffffffffffffffffffffffffffffffffffffffff1681526020019081526020015f205f6101000a81548160ff02191690831515021790555061155167ad4978357a54add160c01b613c30565b611565674a20e84793b99ded60c01b613c30565b60065f3373ffffffffffffffffffffffffffffffffffffffff1673ffffffffffffffffffffffffffffffffffffffff1681526020019081526020015f2083908060018154018082558091505060019003905f5260205f20015f90919091909150556115da6763cdb287d0605eda60c01b613c30565b8060800180516115e9906148d3565b60ff16908160ff168152505061160967e1aa6b2daaebd6ad60c01b613c30565b80608001516004848154811061162257611621614879565b5b905f5260205f20906005020160030160016101000a81548160ff021916908360ff160217905550505050565b61166267918ecf25f8150c2160c01b613c30565b826116776779e20414899381ea60c01b613c30565b61168b67f7d3aa3db607396360c01b613c30565b61169f67ad44291b7ee41afc60c01b613c30565b6116b367939045f94a99d34360c01b613c30565b60048054905081106116fa576040517f08c379a00000000000000000000000000000000000000000000000000000000081526004016116f1906147d7565b60405180910390fd5b61170e674e0e7e368a911a7e60c01b613c30565b611722671ba29d8eed77b1e060c01b613c30565b61173667ae14e28b0a0872bf60c01b613c30565b61174a676e986c4f5457b9e760c01b613c30565b83336117606735550cfcc723e96e60c01b613c30565b61177467050dbb595625c39260c01b613c30565b61178867a9fc9a1aa2fe3b4c60c01b613c30565b61179c6792cfb29ad869f4d660c01b613c30565b8073ffffffffffffffffffffffffffffffffffffffff1660025f8481526020019081526020015f205f9054906101000a900473ffffffffffffffffffffffffffffffffffffffff1673ffffffffffffffffffffffffffffffffffffffff161461183a576040517f08c379a000000000000000000000000000000000000000000000000000000000815260040161183190614944565b60405180910390fd5b61184e677ba2005878455edf60c01b613c30565b6118626780ee4d136c13e15a60c01b613c30565b61187667cc400b1da246936e60c01b613c30565b61188a676c3fbc887a8d00f160c01b613c30565b8461189f67b11f4080883007ba60c01b613c30565b6118b367e80104790e0e51c060c01b613c30565b6118c7671a6fff257a44d79660c01b613c30565b6118db6731b9f9a63a68e10a60c01b613c30565b5f73ffffffffffffffffffffffffffffffffffffffff168173ffffffffffffffffffffffffffffffffffffffff1603611949576040517f08c379a000000000000000000000000000000000000000000000000000000000815260040161194090614707565b60405180910390fd5b61195d67c5a4257b9cd48c5860c01b613c30565b611971670b2e3acb21715bbe60c01b613c30565b611985671de38ae14bc978b960c01b613c30565b611999675c00cb50db176b5960c01b613c30565b846119ae67b11f4080883007ba60c01b613c30565b6119c267e80104790e0e51c060c01b613c30565b6119d6671a6fff257a44d79660c01b613c30565b6119ea6731b9f9a63a68e10a60c01b613c30565b5f73ffffffffffffffffffffffffffffffffffffffff168173ffffffffffffffffffffffffffffffffffffffff1603611a58576040517f08c379a0000000000000000000000000000000000000000000000000000000008152600401611a4f90614707565b60405180910390fd5b611a6c67c5a4257b9cd48c5860c01b613c30565b611a80670b2e3acb21715bbe60c01b613c30565b611a9467430c000bc6b7ad3c60c01b613c30565b611aa867e0ce92bbc1eb5aa960c01b613c30565b611abc67fb45952b07f8317460c01b613c30565b611ad067dd13a8f4dda0165f60c01b613c30565b611ae4676ded64f56118314560c01b613c30565b8573ffffffffffffffffffffffffffffffffffffffff168773ffffffffffffffffffffffffffffffffffffffff1603611b52576040517f08c379a0000000000000000000000000000000000000000000000000000000008152600401611b49906149ac565b60405180910390fd5b611b6667ce8d6d047f6c499560c01b613c30565b611b7a67080337767f3a8c5160c01b613c30565b611b8e67e5513536f79c600360c01b613c30565b611ba26723b7f49c13d1553660c01b613c30565b60055f8981526020019081526020015f205f8873ffffffffffffffffffffffffffffffffffffffff1673ffffffffffffffffffffffffffffffffffffffff1681526020019081526020015f205f9054906101000a900460ff168015611c5c575060055f8981526020019081526020015f205f8773ffffffffffffffffffffffffffffffffffffffff1673ffffffffffffffffffffffffffffffffffffffff1681526020019081526020015f205f9054906101000a900460ff165b611c9b576040517f08c379a0000000000000000000000000000000000000000000000000000000008152600401611c9290614a14565b60405180910390fd5b611caf67f5009432778e762e60c01b613c30565b611cc367dfcbc83d97cc07e660c01b613c30565b8660048981548110611cd857611cd7614879565b5b905f5260205f20906005020160030160026101000a81548173ffffffffffffffffffffffffffffffffffffffff021916908373ffffffffffffffffffffffffffffffffffffffff160217905550611d3967e162619d25464dde60c01b613c30565b8560048981548110611d4e57611d4d614879565b5b905f5260205f2090600502016004015f6101000a81548173ffffffffffffffffffffffffffffffffffffffff021916908373ffffffffffffffffffffffffffffffffffffffff1602179055505050505050505050565b5f805f9054906101000a900473ffffffffffffffffffffffffffffffffffffffff16905090565b611ddf6751c8ffa22636eeba60c01b613c30565b83611df46779e20414899381ea60c01b613c30565b611e0867f7d3aa3db607396360c01b613c30565b611e1c67ad44291b7ee41afc60c01b613c30565b611e3067939045f94a99d34360c01b613c30565b6004805490508110611e77576040517f08c379a0000000000000000000000000000000000000000000000000000000008152600401611e6e906147d7565b60405180910390fd5b611e8b674e0e7e368a911a7e60c01b613c30565b611e9f671ba29d8eed77b1e060c01b613c30565b611eb36769fb2c39afe1a83760c01b613c30565b611ec7671690ac6932bf679f60c01b613c30565b8433611edd6735550cfcc723e96e60c01b613c30565b611ef167050dbb595625c39260c01b613c30565b611f0567a9fc9a1aa2fe3b4c60c01b613c30565b611f196792cfb29ad869f4d660c01b613c30565b8073ffffffffffffffffffffffffffffffffffffffff1660025f8481526020019081526020015f205f9054906101000a900473ffffffffffffffffffffffffffffffffffffffff1673ffffffffffffffffffffffffffffffffffffffff1614611fb7576040517f08c379a0000000000000000000000000000000000000000000000000000000008152600401611fae90614944565b60405180910390fd5b611fcb677ba2005878455edf60c01b613c30565b611fdf6780ee4d136c13e15a60c01b613c30565b611ff3679af29b37871d07d060c01b613c30565b61200767634e6623ea6e22c560c01b613c30565b8561201c67b11f4080883007ba60c01b613c30565b61203067e80104790e0e51c060c01b613c30565b612044671a6fff257a44d79660c01b613c30565b6120586731b9f9a63a68e10a60c01b613c30565b5f73ffffffffffffffffffffffffffffffffffffffff168173ffffffffffffffffffffffffffffffffffffffff16036120c6576040517f08c379a00000000000000000000000000000000000000000000000000000000081526004016120bd90614707565b60405180910390fd5b6120da67c5a4257b9cd48c5860c01b613c30565b6120ee670b2e3acb21715bbe60c01b613c30565b612102677bd421ad28d8924660c01b613c30565b61211667852f2a71660da32760c01b613c30565b85858080601f0160208091040260200160405190810160405280939291908181526020018383808284375f81840152601f19601f8201169050808301925050505050505061216e67ea7d12f063fb722660c01b613c30565b61218267e83f89c4f6e16ee560c01b613c30565b61219667024f5aae4fe51b2360c01b613c30565b6121aa67169ddc1d15d0261b60c01b613c30565b5f8151116121ed576040517f08c379a00000000000000000000000000000000000000000000000000000000081526004016121e490614a7c565b60405180910390fd5b612201672e372e7bc3fa8bca60c01b613c30565b61221567534646307bdf4a8160c01b613c30565b61222967d0ca7a64edba9e9360c01b613c30565b61223d67be0ae2a9e00adf7c60c01b613c30565b3361225267cac778f577a97c1260c01b613c30565b61226667f1d88e229385115d60c01b613c30565b61227a6786026ed335a0a6a560c01b613c30565b61228e67bc821ac6ffc9e29760c01b613c30565b60024261229b9190614a9a565b600c5f3373ffffffffffffffffffffffffffffffffffffffff1673ffffffffffffffffffffffffffffffffffffffff1681526020019081526020015f205410612319576040517f08c379a000000000000000000000000000000000000000000000000000000000815260040161231090614b17565b60405180910390fd5b61232d6716e1665dbd85d4a960c01b613c30565b61234167b5656abd29e474ca60c01b613c30565b61235567739a8e551f292ef260c01b613c30565b612369678b35a3a7449e014060c01b613c30565b61237d673c227404b28c8c3360c01b613c30565b6123916737fa2199c6aeac7b60c01b613c30565b600a5f8b81526020019081526020015f205f8a73ffffffffffffffffffffffffffffffffffffffff1673ffffffffffffffffffffffffffffffffffffffff1681526020019081526020015f2060405180604001604052808a8a8080601f0160208091040260200160405190810160405280939291908181526020018383808284375f81840152601f19601f8201169050808301925050505050505081526020013373ffffffffffffffffffffffffffffffffffffffff16815250908060018154018082558091505060019003905f5260205f2090600202015f909190919091505f820151815f0190816124849190614cff565b506020820151816001015f6101000a81548173ffffffffffffffffffffffffffffffffffffffff021916908373ffffffffffffffffffffffffffffffffffffffff16021790555050506124e1677fd927cd700b487460c01b613c30565b42600c5f3373ffffffffffffffffffffffffffffffffffffffff1673ffffffffffffffffffffffffffffffffffffffff1681526020019081526020015f208190555050505050505050505050565b6005602052815f5260405f20602052805f5260405f205f915091509054906101000a900460ff1681565b61256d67d021d6a639a30f2160c01b613c30565b826125826779e20414899381ea60c01b613c30565b61259667f7d3aa3db607396360c01b613c30565b6125aa67ad44291b7ee41afc60c01b613c30565b6125be67939045f94a99d34360c01b613c30565b6004805490508110612605576040517f08c379a00000000000000000000000000000000000000000000000000000000081526004016125fc906147d7565b60405180910390fd5b612619674e0e7e368a911a7e60c01b613c30565b61262d671ba29d8eed77b1e060c01b613c30565b61264167eafaa9263d8f413160c01b613c30565b612655676d7ca9e2a71fdbbc60c01b613c30565b82828080601f0160208091040260200160405190810160405280939291908181526020018383808284375f81840152601f19601f820116905080830192505050505050506126ad67ea7d12f063fb722660c01b613c30565b6126c167e83f89c4f6e16ee560c01b613c30565b6126d567024f5aae4fe51b2360c01b613c30565b6126e967169ddc1d15d0261b60c01b613c30565b5f81511161272c576040517f08c379a000000000000000000000000000000000000000000000000000000000815260040161272390614a7c565b60405180910390fd5b612740672e372e7bc3fa8bca60c01b613c30565b61275467534646307bdf4a8160c01b613c30565b61276867e1b9047dc9e665e260c01b613c30565b61277c679e43ab48d087a67460c01b613c30565b3361279167cac778f577a97c1260c01b613c30565b6127a567f1d88e229385115d60c01b613c30565b6127b96786026ed335a0a6a560c01b613c30565b6127cd67bc821ac6ffc9e29760c01b613c30565b6002426127da9190614a9a565b600c5f3373ffffffffffffffffffffffffffffffffffffffff1673ffffffffffffffffffffffffffffffffffffffff1681526020019081526020015f205410612858576040517f08c379a000000000000000000000000000000000000000000000000000000000815260040161284f90614b17565b60405180910390fd5b61286c6716e1665dbd85d4a960c01b613c30565b61288067b5656abd29e474ca60c01b613c30565b612894671eff5bf3f732e1e860c01b613c30565b6128a8674527e2fd8b90453360c01b613c30565b6128bc675bae4ce2a89b31bd60c01b613c30565b604051806040016040528086868080601f0160208091040260200160405190810160405280939291908181526020018383808284375f81840152601f19601f8201169050808301925050505050505081526020013373ffffffffffffffffffffffffffffffffffffffff1681525060085f8881526020019081526020015f205f60095f8a81526020019081526020015f205481526020019081526020015f205f820151815f01908161296e9190614cff565b506020820151816001015f6101000a81548173ffffffffffffffffffffffffffffffffffffffff021916908373ffffffffffffffffffffffffffffffffffffffff1602179055509050506129cc6737642f3319b6275560c01b613c30565b60095f8781526020019081526020015f205f81546129e990614dce565b91905081905550612a04673f860a40858c2eaa60c01b613c30565b42600c5f3373ffffffffffffffffffffffffffffffffffffffff1673ffffffffffffffffffffffffffffffffffffffff1681526020019081526020015f2081905550612a5a677d1184ce5113ef8760c01b613c30565b612a6e676ce697a65ed87c7560c01b613c30565b7f3021694d1ef819d2b9bc13c595d4f75437b6bbbb2dd33e9f2a9df24534f6b55986604051612a9d9190613ee6565b60405180910390a1505050505050565b6060612ac367b46c7b4d7ca9d50c60c01b613c30565b612ad767c56decd4d191dd7e60c01b613c30565b612aeb67e9b7d6260dd978c860c01b613c30565b60065f3373ffffffffffffffffffffffffffffffffffffffff1673ffffffffffffffffffffffffffffffffffffffff1681526020019081526020015f20805480602002602001604051908101604052809291908181526020018280548015612b7057602002820191905f5260205f20905b815481526020019060010190808311612b5c575b5050505050905090565b612b8e675d5c4a04dd291b6e60c01b613c30565b82612ba36779e20414899381ea60c01b613c30565b612bb767f7d3aa3db607396360c01b613c30565b612bcb67ad44291b7ee41afc60c01b613c30565b612bdf67939045f94a99d34360c01b613c30565b6004805490508110612c26576040517f08c379a0000000000000000000000000000000000000000000000000000000008152600401612c1d906147d7565b60405180910390fd5b612c3a674e0e7e368a911a7e60c01b613c30565b612c4e671ba29d8eed77b1e060c01b613c30565b612c626767626470e4eb63eb60c01b613c30565b612c766705c094b8376026fc60c01b613c30565b82828080601f0160208091040260200160405190810160405280939291908181526020018383808284375f81840152601f19601f82011690508083019250505050505050612cce67ea7d12f063fb722660c01b613c30565b612ce267e83f89c4f6e16ee560c01b613c30565b612cf667024f5aae4fe51b2360c01b613c30565b612d0a67169ddc1d15d0261b60c01b613c30565b5f815111612d4d576040517f08c379a0000000000000000000000000000000000000000000000000000000008152600401612d4490614a7c565b60405180910390fd5b612d61672e372e7bc3fa8bca60c01b613c30565b612d7567534646307bdf4a8160c01b613c30565b612d8967cd04fd57da00a18d60c01b613c30565b612d9d674e9b5625c2df4e4560c01b613c30565b33612db267cac778f577a97c1260c01b613c30565b612dc667f1d88e229385115d60c01b613c30565b612dda6786026ed335a0a6a560c01b613c30565b612dee67bc821ac6ffc9e29760c01b613c30565b600242612dfb9190614a9a565b600c5f3373ffffffffffffffffffffffffffffffffffffffff1673ffffffffffffffffffffffffffffffffffffffff1681526020019081526020015f205410612e79576040517f08c379a0000000000000000000000000000000000000000000000000000000008152600401612e7090614b17565b60405180910390fd5b612e8d6716e1665dbd85d4a960c01b613c30565b612ea167b5656abd29e474ca60c01b613c30565b612eb567765f1d3fb1627b9960c01b613c30565b612ec9672fe132506cc0a6a960c01b613c30565b612edd67ec6de968745e66be60c01b613c30565b612ef167fcec784388dafd2b60c01b613c30565b600a5f8781526020019081526020015f205f3373ffffffffffffffffffffffffffffffffffffffff1673ffffffffffffffffffffffffffffffffffffffff1681526020019081526020015f20604051806040016040528087878080601f0160208091040260200160405190810160405280939291908181526020018383808284375f81840152601f19601f8201169050808301925050505050505081526020013373ffffffffffffffffffffffffffffffffffffffff16815250908060018154018082558091505060019003905f5260205f2090600202015f909190919091505f820151815f019081612fe49190614cff565b506020820151816001015f6101000a81548173ffffffffffffffffffffffffffffffffffffffff021916908373ffffffffffffffffffffffffffffffffffffffff1602179055505050613041676a6dfab48d04974760c01b613c30565b42600c5f3373ffffffffffffffffffffffffffffffffffffffff1673ffffffffffffffffffffffffffffffffffffffff1681526020019081526020015f208190555061309767405b52bec2fa3ce860c01b613c30565b6130ab677f207324d5a225f860c01b613c30565b6001600a5f8881526020019081526020015f205f3373ffffffffffffffffffffffffffffffffffffffff1673ffffffffffffffffffffffffffffffffffffffff1681526020019081526020015f2080549050036131b25761311667b0a28e2338b0c79a60c01b613c30565b61312a67a433f95be653046960c01b613c30565b61313e6727e46b860771e6ab60c01b613c30565b600b5f8781526020019081526020015f2033908060018154018082558091505060019003905f5260205f20015f9091909190916101000a81548173ffffffffffffffffffffffffffffffffffffffff021916908373ffffffffffffffffffffffffffffffffffffffff1602179055506131c7565b6131c667167da6f0fa915c3160c01b613c30565b5b505050505050565b6131d7613c33565b5f73ffffffffffffffffffffffffffffffffffffffff168173ffffffffffffffffffffffffffffffffffffffff1603613245576040517f08c379a000000000000000000000000000000000000000000000000000000000815260040161323c90614e85565b60405180910390fd5b61324e81613cb1565b50565b6002602052805f5260405f205f915054906101000a900473ffffffffffffffffffffffffffffffffffffffff1681565b606061329767770119844f62f0b560c01b613c30565b6132ab671fd15717e27ac43e60c01b613c30565b6132bf67537282f20804809260c01b613c30565b60035f3373ffffffffffffffffffffffffffffffffffffffff1673ffffffffffffffffffffffffffffffffffffffff1681526020019081526020015f2080548060200260200160405190810160405280929190818152602001828054801561334457602002820191905f5260205f20905b815481526020019060010190808311613330575b5050505050905090565b6133626712b3bc1e762b4ada60c01b613c30565b61337667b31802986ce3d8bf60c01b613c30565b61338a675a3aac5f6336af5460c01b613c30565b61339e6760983474f3ed42c560c01b613c30565b6133b2678c7ca8853caf6d7d60c01b613c30565b60015f3373ffffffffffffffffffffffffffffffffffffffff1673ffffffffffffffffffffffffffffffffffffffff1681526020019081526020015f205f9054906101000a900460ff1661343b576040517f08c379a000000000000000000000000000000000000000000000000000000000815260040161343290614eed565b60405180910390fd5b61344f677a12bffa2779179e60c01b613c30565b613463678b556308549c917660c01b613c30565b613477678f7f85d524da76b260c01b613c30565b61348b676b2e4ec87b9780ee60c01b613c30565b84848080601f0160208091040260200160405190810160405280939291908181526020018383808284375f81840152601f19601f820116905080830192505050505050506134e367ea7d12f063fb722660c01b613c30565b6134f767e83f89c4f6e16ee560c01b613c30565b61350b67024f5aae4fe51b2360c01b613c30565b61351f67169ddc1d15d0261b60c01b613c30565b5f815111613562576040517f08c379a000000000000000000000000000000000000000000000000000000000815260040161355990614a7c565b60405180910390fd5b613576672e372e7bc3fa8bca60c01b613c30565b61358a67534646307bdf4a8160c01b613c30565b61359e67208dddd6b4e4de7360c01b613c30565b6135b2675afa78e913041c8560c01b613c30565b6135c6679caa2ae9494902c460c01b613c30565b6135da6797feab883f094fa360c01b613c30565b6135ee67db9015f62ee1575c60c01b613c30565b428411613630576040517f08c379a000000000000000000000000000000000000000000000000000000000815260040161362790614f55565b60405180910390fd5b61364467f9b166f53092420060c01b613c30565b613658674c932a98db8769d760c01b613c30565b61366c67992550c663104b1160c01b613c30565b61368067d7d5e35e96b2af7060c01b613c30565b5f8260ff161180156136a057505f60028361369b9190614fa0565b60ff16145b6136df576040517f08c379a00000000000000000000000000000000000000000000000000000000081526004016136d69061501a565b60405180910390fd5b6136f3679c3ec0d89db42fcf60c01b613c30565b61370767285e0f8f02f98fe960c01b613c30565b61371b675ebaa6fbd236d72f60c01b613c30565b61372f679e0f407d67bae71260c01b613c30565b600580811115613742576137416140c6565b5b8360ff161115613787576040517f08c379a000000000000000000000000000000000000000000000000000000000815260040161377e90615082565b60405180910390fd5b61379b67c264aa29afa4007860c01b613c30565b6137af6775c933371c2ae7cf60c01b613c30565b6137c367e822dd1ac0fdbf6760c01b613c30565b5f60048054905090506137e067919ca10884fb879160c01b613c30565b6137f467022af9a369c1302160c01b613c30565b60046040518060e0016040528083815260200189898080601f0160208091040260200160405190810160405280939291908181526020018383808284375f81840152601f19601f8201169050808301925050505050505081526020018781526020018660ff16600581111561386c5761386b6140c6565b5b600581111561387e5761387d6140c6565b5b81526020018560ff1681526020015f73ffffffffffffffffffffffffffffffffffffffff1681526020015f73ffffffffffffffffffffffffffffffffffffffff16815250908060018154018082558091505060019003905f5260205f2090600502015f909190919091505f820151815f015560208201518160010190816139059190614cff565b50604082015181600201556060820151816003015f6101000a81548160ff0219169083600581111561393a576139396140c6565b5b021790555060808201518160030160016101000a81548160ff021916908360ff16021790555060a08201518160030160026101000a81548173ffffffffffffffffffffffffffffffffffffffff021916908373ffffffffffffffffffffffffffffffffffffffff16021790555060c0820151816004015f6101000a81548173ffffffffffffffffffffffffffffffffffffffff021916908373ffffffffffffffffffffffffffffffffffffffff1602179055505050613a0367eee5e586ec85419c60c01b613c30565b3360025f8381526020019081526020015f205f6101000a81548173ffffffffffffffffffffffffffffffffffffffff021916908373ffffffffffffffffffffffffffffffffffffffff160217905550613a6667c193eb482248e4ea60c01b613c30565b613a7a674df230151f34e51a60c01b613c30565b60035f3373ffffffffffffffffffffffffffffffffffffffff1673ffffffffffffffffffffffffffffffffffffffff1681526020019081526020015f2081908060018154018082558091505060019003905f5260205f20015f9091909190915055613aef6760a0782ae40c726360c01b613c30565b613b03674d4645adc300b90960c01b613c30565b7f113d32d0b7aec15a8c7f50af4cb42f4695e5b95524ed69519ac88d6c1f1f40f681604051613b329190613ee6565b60405180910390a150505050505050565b6008602052815f5260405f20602052805f5260405f205f9150915050805f018054613b6d90614849565b80601f0160208091040260200160405190810160405280929190818152602001828054613b9990614849565b8015613be45780601f10613bbb57610100808354040283529160200191613be4565b820191905f5260205f20905b815481529060010190602001808311613bc757829003601f168201915b505050505090806001015f9054906101000a900473ffffffffffffffffffffffffffffffffffffffff16905082565b6001602052805f5260405f205f915054906101000a900460ff1681565b50565b613c3b613d72565b73ffffffffffffffffffffffffffffffffffffffff16613c59611da4565b73ffffffffffffffffffffffffffffffffffffffff1614613caf576040517f08c379a0000000000000000000000000000000000000000000000000000000008152600401613ca6906150ea565b60405180910390fd5b565b5f805f9054906101000a900473ffffffffffffffffffffffffffffffffffffffff169050815f806101000a81548173ffffffffffffffffffffffffffffffffffffffff021916908373ffffffffffffffffffffffffffffffffffffffff1602179055508173ffffffffffffffffffffffffffffffffffffffff168173ffffffffffffffffffffffffffffffffffffffff167f8be0079c531659141344cd1fd0a4f28419497f9722a3daafe3b4186f6b6457e060405160405180910390a35050565b5f33905090565b5f80fd5b5f80fd5b5f73ffffffffffffffffffffffffffffffffffffffff82169050919050565b5f613daa82613d81565b9050919050565b613dba81613da0565b8114613dc4575f80fd5b50565b5f81359050613dd581613db1565b92915050565b5f60208284031215613df057613def613d79565b5b5f613dfd84828501613dc7565b91505092915050565b5f819050919050565b613e1881613e06565b8114613e22575f80fd5b50565b5f81359050613e3381613e0f565b92915050565b5f8115159050919050565b613e4d81613e39565b8114613e57575f80fd5b50565b5f81359050613e6881613e44565b92915050565b5f8060408385031215613e8457613e83613d79565b5b5f613e9185828601613e25565b9250506020613ea285828601613e5a565b9150509250929050565b5f60208284031215613ec157613ec0613d79565b5b5f613ece84828501613e25565b91505092915050565b613ee081613e06565b82525050565b5f602082019050613ef95f830184613ed7565b92915050565b5f8060408385031215613f1557613f14613d79565b5b5f613f2285828601613e25565b9250506020613f3385828601613dc7565b9150509250929050565b613f4681613e39565b82525050565b5f602082019050613f5f5f830184613f3d565b92915050565b5f81519050919050565b5f82825260208201905092915050565b5f819050602082019050919050565b613f9781613da0565b82525050565b5f613fa88383613f8e565b60208301905092915050565b5f602082019050919050565b5f613fca82613f65565b613fd48185613f6f565b9350613fdf83613f7f565b805f5b8381101561400f578151613ff68882613f9d565b975061400183613fb4565b925050600181019050613fe2565b5085935050505092915050565b5f6020820190508181035f8301526140348184613fc0565b905092915050565b5f81519050919050565b5f82825260208201905092915050565b5f5b83811015614073578082015181840152602081019050614058565b5f8484015250505050565b5f601f19601f8301169050919050565b5f6140988261403c565b6140a28185614046565b93506140b2818560208601614056565b6140bb8161407e565b840191505092915050565b7f4e487b71000000000000000000000000000000000000000000000000000000005f52602160045260245ffd5b60068110614104576141036140c6565b5b50565b5f819050614114826140f3565b919050565b5f61412382614107565b9050919050565b61413381614119565b82525050565b5f60ff82169050919050565b61414e81614139565b82525050565b61415d81613da0565b82525050565b5f60e0820190506141765f83018a613ed7565b8181036020830152614188818961408e565b90506141976040830188613ed7565b6141a4606083018761412a565b6141b16080830186614145565b6141be60a0830185614154565b6141cb60c0830184614154565b98975050505050505050565b5f81519050919050565b5f82825260208201905092915050565b5f819050602082019050919050565b5f82825260208201905092915050565b5f61421a8261403c565b6142248185614200565b9350614234818560208601614056565b61423d8161407e565b840191505092915050565b5f604083015f8301518482035f8601526142628282614210565b91505060208301516142776020860182613f8e565b508091505092915050565b5f61428d8383614248565b905092915050565b5f602082019050919050565b5f6142ab826141d7565b6142b581856141e1565b9350836020820285016142c7856141f1565b805f5b8581101561430257848403895281516142e38582614282565b94506142ee83614295565b925060208a019950506001810190506142ca565b50829750879550505050505092915050565b5f6020820190508181035f83015261432c81846142a1565b905092915050565b5f805f6060848603121561434b5761434a613d79565b5b5f61435886828701613e25565b935050602061436986828701613dc7565b925050604061437a86828701613dc7565b9150509250925092565b5f6020820190506143975f830184614154565b92915050565b5f80fd5b5f80fd5b5f80fd5b5f8083601f8401126143be576143bd61439d565b5b8235905067ffffffffffffffff8111156143db576143da6143a1565b5b6020830191508360018202830111156143f7576143f66143a5565b5b9250929050565b5f805f806060858703121561441657614415613d79565b5b5f61442387828801613e25565b945050602061443487828801613dc7565b935050604085013567ffffffffffffffff81111561445557614454613d7d565b5b614461878288016143a9565b925092505092959194509250565b5f805f6040848603121561448657614485613d79565b5b5f61449386828701613e25565b935050602084013567ffffffffffffffff8111156144b4576144b3613d7d565b5b6144c0868287016143a9565b92509250509250925092565b5f81519050919050565b5f82825260208201905092915050565b5f819050602082019050919050565b6144fe81613e06565b82525050565b5f61450f83836144f5565b60208301905092915050565b5f602082019050919050565b5f614531826144cc565b61453b81856144d6565b9350614546836144e6565b805f5b8381101561457657815161455d8882614504565b97506145688361451b565b925050600181019050614549565b5085935050505092915050565b5f6020820190508181035f83015261459b8184614527565b905092915050565b6145ac81614139565b81146145b6575f80fd5b50565b5f813590506145c7816145a3565b92915050565b5f805f805f608086880312156145e6576145e5613d79565b5b5f86013567ffffffffffffffff81111561460357614602613d7d565b5b61460f888289016143a9565b9550955050602061462288828901613e25565b9350506040614633888289016145b9565b9250506060614644888289016145b9565b9150509295509295909350565b5f806040838503121561466757614666613d79565b5b5f61467485828601613e25565b925050602061468585828601613e25565b9150509250929050565b5f6040820190508181035f8301526146a7818561408e565b90506146b66020830184614154565b9392505050565b7f43616e6e6f7420626520746865207a65726f20616464726573730000000000005f82015250565b5f6146f1601a83614046565b91506146fc826146bd565b602082019050919050565b5f6020820190508181035f83015261471e816146e5565b9050919050565b7f416c7265616479207265676973746572656400000000000000000000000000005f82015250565b5f614759601283614046565b915061476482614725565b602082019050919050565b5f6020820190508181035f8301526147868161474d565b9050919050565b7f57726f6e672069642073656e74000000000000000000000000000000000000005f82015250565b5f6147c1600d83614046565b91506147cc8261478d565b602082019050919050565b5f6020820190508181035f8301526147ee816147b5565b9050919050565b5f6040820190506148085f830185613ed7565b6148156020830184614154565b9392505050565b7f4e487b71000000000000000000000000000000000000000000000000000000005f52602260045260245ffd5b5f600282049050600182168061486057607f821691505b6020821081036148735761487261481c565b5b50919050565b7f4e487b71000000000000000000000000000000000000000000000000000000005f52603260045260245ffd5b7f4e487b71000000000000000000000000000000000000000000000000000000005f52601160045260245ffd5b5f6148dd82614139565b91505f82036148ef576148ee6148a6565b5b600182039050919050565b7f4e6f7420746865206d616e6167657200000000000000000000000000000000005f82015250565b5f61492e600f83614046565b9150614939826148fa565b602082019050919050565b5f6020820190508181035f83015261495b81614922565b9050919050565b7f53616d65206164647265737300000000000000000000000000000000000000005f82015250565b5f614996600c83614046565b91506149a182614962565b602082019050919050565b5f6020820190508181035f8301526149c38161498a565b9050919050565b7f4e6f7420726567697374657265640000000000000000000000000000000000005f82015250565b5f6149fe600e83614046565b9150614a09826149ca565b602082019050919050565b5f6020820190508181035f830152614a2b816149f2565b9050919050565b7f43616e6e6f7420626520656d70747900000000000000000000000000000000005f82015250565b5f614a66600f83614046565b9150614a7182614a32565b602082019050919050565b5f6020820190508181035f830152614a9381614a5a565b9050919050565b5f614aa482613e06565b9150614aaf83613e06565b9250828203905081811115614ac757614ac66148a6565b5b92915050565b7f57616974203273000000000000000000000000000000000000000000000000005f82015250565b5f614b01600783614046565b9150614b0c82614acd565b602082019050919050565b5f6020820190508181035f830152614b2e81614af5565b9050919050565b7f4e487b71000000000000000000000000000000000000000000000000000000005f52604160045260245ffd5b5f819050815f5260205f209050919050565b5f6020601f8301049050919050565b5f82821b905092915050565b5f60088302614bbe7fffffffffffffffffffffffffffffffffffffffffffffffffffffffffffffffff82614b83565b614bc88683614b83565b95508019841693508086168417925050509392505050565b5f819050919050565b5f614c03614bfe614bf984613e06565b614be0565b613e06565b9050919050565b5f819050919050565b614c1c83614be9565b614c30614c2882614c0a565b848454614b8f565b825550505050565b5f90565b614c44614c38565b614c4f818484614c13565b505050565b5b81811015614c7257614c675f82614c3c565b600181019050614c55565b5050565b601f821115614cb757614c8881614b62565b614c9184614b74565b81016020851015614ca0578190505b614cb4614cac85614b74565b830182614c54565b50505b505050565b5f82821c905092915050565b5f614cd75f1984600802614cbc565b1980831691505092915050565b5f614cef8383614cc8565b9150826002028217905092915050565b614d088261403c565b67ffffffffffffffff811115614d2157614d20614b35565b5b614d2b8254614849565b614d36828285614c76565b5f60209050601f831160018114614d67575f8415614d55578287015190505b614d5f8582614ce4565b865550614dc6565b601f198416614d7586614b62565b5f5b82811015614d9c57848901518255600182019150602085019450602081019050614d77565b86831015614db95784890151614db5601f891682614cc8565b8355505b6001600288020188555050505b505050505050565b5f614dd882613e06565b91507fffffffffffffffffffffffffffffffffffffffffffffffffffffffffffffffff8203614e0a57614e096148a6565b5b600182019050919050565b7f4f776e61626c653a206e6577206f776e657220697320746865207a65726f20615f8201527f6464726573730000000000000000000000000000000000000000000000000000602082015250565b5f614e6f602683614046565b9150614e7a82614e15565b604082019050919050565b5f6020820190508181035f830152614e9c81614e63565b9050919050565b7f466f7262696464656e00000000000000000000000000000000000000000000005f82015250565b5f614ed7600983614046565b9150614ee282614ea3565b602082019050919050565b5f6020820190508181035f830152614f0481614ecb565b9050919050565b7f496e636f727265637420646174650000000000000000000000000000000000005f82015250565b5f614f3f600e83614046565b9150614f4a82614f0b565b602082019050919050565b5f6020820190508181035f830152614f6c81614f33565b9050919050565b7f4e487b71000000000000000000000000000000000000000000000000000000005f52601260045260245ffd5b5f614faa82614139565b9150614fb583614139565b925082614fc557614fc4614f73565b5b828206905092915050565b7f506c6179656420627920320000000000000000000000000000000000000000005f82015250565b5f615004600b83614046565b915061500f82614fd0565b602082019050919050565b5f6020820190508181035f83015261503181614ff8565b9050919050565b7f496e636f727265637420646966666963756c74790000000000000000000000005f82015250565b5f61506c601483614046565b915061507782615038565b602082019050919050565b5f6020820190508181035f83015261509981615060565b9050919050565b7f4f776e61626c653a2063616c6c6572206973206e6f7420746865206f776e65725f82015250565b5f6150d4602083614046565b91506150df826150a0565b602082019050919050565b5f6020820190508181035f830152615101816150c8565b905091905056fea26469706673582212204f1be7441216e965151e389f0ab72456e15ad3afc6296c0fc41aad404acff0f164736f6c63430008140033",
  "linkReferences": {},
  "deployedLinkReferences": {}
}