{
  "_format": "hh-sol-artifact-1",
  "contractName": "PadelConnect",
  "sourceName": "contracts/PadelConnect.sol",
  "abi": [
    {
      "inputs": [],
      "name": "CompleteTournament",
      "type": "error"
    },
    {
      "inputs": [],
      "name": "ErrorDuringPayment",
      "type": "error"
    },
    {
      "inputs": [],
      "name": "RegistrationEnded",
      "type": "error"
    },
    {
      "anonymous": false,
      "inputs": [
        {
          "indexed": false,
          "internalType": "address",
          "name": "_address",
          "type": "address"
        }
      ],
      "name": "ManagerAdded",
      "type": "event"
    },
    {
      "anonymous": false,
      "inputs": [
        {
          "indexed": true,
          "internalType": "address",
          "name": "previousOwner",
          "type": "address"
        },
        {
          "indexed": true,
          "internalType": "address",
          "name": "newOwner",
          "type": "address"
        }
      ],
      "name": "OwnershipTransferred",
      "type": "event"
    },
    {
      "anonymous": false,
      "inputs": [
        {
          "indexed": false,
          "internalType": "uint256",
          "name": "tournamentId",
          "type": "uint256"
        }
      ],
      "name": "TournamentCommentAdded",
      "type": "event"
    },
    {
      "anonymous": false,
      "inputs": [
        {
          "indexed": false,
          "internalType": "uint256",
          "name": "id",
          "type": "uint256"
        }
      ],
      "name": "TournamentCreated",
      "type": "event"
    },
    {
      "anonymous": false,
      "inputs": [
        {
          "indexed": false,
          "internalType": "uint256",
          "name": "tournamentId",
          "type": "uint256"
        },
        {
          "indexed": false,
          "internalType": "address",
          "name": "player",
          "type": "address"
        }
      ],
      "name": "TournamentFollowed",
      "type": "event"
    },
    {
      "inputs": [
        {
          "internalType": "uint256",
          "name": "_id",
          "type": "uint256"
        },
        {
          "internalType": "string",
          "name": "_message",
          "type": "string"
        }
      ],
      "name": "addComment",
      "outputs": [],
      "stateMutability": "nonpayable",
      "type": "function"
    },
    {
      "inputs": [
        {
          "internalType": "address",
          "name": "_address",
          "type": "address"
        }
      ],
      "name": "addManager",
      "outputs": [],
      "stateMutability": "nonpayable",
      "type": "function"
    },
    {
      "inputs": [
        {
          "internalType": "uint256",
          "name": "_id",
          "type": "uint256"
        },
        {
          "internalType": "string",
          "name": "_message",
          "type": "string"
        }
      ],
      "name": "addMessageToManager",
      "outputs": [],
      "stateMutability": "nonpayable",
      "type": "function"
    },
    {
      "inputs": [
        {
          "internalType": "uint256",
          "name": "_id",
          "type": "uint256"
        },
        {
          "internalType": "address",
          "name": "_player",
          "type": "address"
        },
        {
          "internalType": "string",
          "name": "_message",
          "type": "string"
        }
      ],
      "name": "addResponseToPlayer",
      "outputs": [],
      "stateMutability": "nonpayable",
      "type": "function"
    },
    {
      "inputs": [
        {
          "internalType": "string",
          "name": "_city",
          "type": "string"
        },
        {
          "internalType": "uint256",
          "name": "_date",
          "type": "uint256"
        },
        {
          "internalType": "uint8",
          "name": "_diff",
          "type": "uint8"
        },
        {
          "internalType": "uint8",
          "name": "_maxPlayers",
          "type": "uint8"
        }
      ],
      "name": "addTournament",
      "outputs": [],
      "stateMutability": "nonpayable",
      "type": "function"
    },
    {
      "inputs": [
        {
          "internalType": "uint256",
          "name": "_id",
          "type": "uint256"
        },
        {
          "internalType": "address",
          "name": "_winner1",
          "type": "address"
        },
        {
          "internalType": "address",
          "name": "_winner2",
          "type": "address"
        }
      ],
      "name": "addWinners",
      "outputs": [],
      "stateMutability": "nonpayable",
      "type": "function"
    },
    {
      "inputs": [
        {
          "internalType": "uint256",
          "name": "",
          "type": "uint256"
        },
        {
          "internalType": "uint256",
          "name": "",
          "type": "uint256"
        }
      ],
      "name": "comments",
      "outputs": [
        {
          "internalType": "string",
          "name": "message",
          "type": "string"
        },
        {
          "internalType": "address",
          "name": "author",
          "type": "address"
        }
      ],
      "stateMutability": "view",
      "type": "function"
    },
    {
      "inputs": [
        {
          "internalType": "uint256",
          "name": "_id",
          "type": "uint256"
        },
        {
          "internalType": "bool",
          "name": "_follow",
          "type": "bool"
        }
      ],
      "name": "followTournament",
      "outputs": [],
      "stateMutability": "nonpayable",
      "type": "function"
    },
    {
      "inputs": [
        {
          "internalType": "uint256",
          "name": "",
          "type": "uint256"
        },
        {
          "internalType": "address",
          "name": "",
          "type": "address"
        }
      ],
      "name": "followedTournaments",
      "outputs": [
        {
          "internalType": "bool",
          "name": "",
          "type": "bool"
        }
      ],
      "stateMutability": "view",
      "type": "function"
    },
    {
      "inputs": [
        {
          "internalType": "uint256",
          "name": "_id",
          "type": "uint256"
        }
      ],
      "name": "getExchanges",
      "outputs": [
        {
          "internalType": "address[]",
          "name": "",
          "type": "address[]"
        }
      ],
      "stateMutability": "view",
      "type": "function"
    },
    {
      "inputs": [
        {
          "internalType": "uint256",
          "name": "_id",
          "type": "uint256"
        },
        {
          "internalType": "address",
          "name": "_player",
          "type": "address"
        }
      ],
      "name": "getMessagesManagerPlayer",
      "outputs": [
        {
          "components": [
            {
              "internalType": "string",
              "name": "message",
              "type": "string"
            },
            {
              "internalType": "address",
              "name": "author",
              "type": "address"
            }
          ],
          "internalType": "struct IPadelConnect.Comment[]",
          "name": "",
          "type": "tuple[]"
        }
      ],
      "stateMutability": "view",
      "type": "function"
    },
    {
      "inputs": [],
      "name": "getTournaments",
      "outputs": [
        {
          "internalType": "uint256[]",
          "name": "",
          "type": "uint256[]"
        }
      ],
      "stateMutability": "view",
      "type": "function"
    },
    {
      "inputs": [],
      "name": "getTournamentsByPlayer",
      "outputs": [
        {
          "internalType": "uint256[]",
          "name": "",
          "type": "uint256[]"
        }
      ],
      "stateMutability": "view",
      "type": "function"
    },
    {
      "inputs": [
        {
          "internalType": "uint256",
          "name": "",
          "type": "uint256"
        }
      ],
      "name": "idComments",
      "outputs": [
        {
          "internalType": "uint256",
          "name": "",
          "type": "uint256"
        }
      ],
      "stateMutability": "view",
      "type": "function"
    },
    {
      "inputs": [
        {
          "internalType": "uint256",
          "name": "",
          "type": "uint256"
        }
      ],
      "name": "linkManagerTournament",
      "outputs": [
        {
          "internalType": "address",
          "name": "",
          "type": "address"
        }
      ],
      "stateMutability": "view",
      "type": "function"
    },
    {
      "inputs": [
        {
          "internalType": "address",
          "name": "",
          "type": "address"
        }
      ],
      "name": "managers",
      "outputs": [
        {
          "internalType": "bool",
          "name": "",
          "type": "bool"
        }
      ],
      "stateMutability": "view",
      "type": "function"
    },
    {
      "inputs": [],
      "name": "owner",
      "outputs": [
        {
          "internalType": "address",
          "name": "",
          "type": "address"
        }
      ],
      "stateMutability": "view",
      "type": "function"
    },
    {
      "inputs": [
        {
          "internalType": "uint256",
          "name": "",
          "type": "uint256"
        },
        {
          "internalType": "address",
          "name": "",
          "type": "address"
        }
      ],
      "name": "playersRegistered",
      "outputs": [
        {
          "internalType": "bool",
          "name": "",
          "type": "bool"
        }
      ],
      "stateMutability": "view",
      "type": "function"
    },
    {
      "inputs": [
        {
          "internalType": "uint256",
          "name": "_id",
          "type": "uint256"
        }
      ],
      "name": "registerPlayer",
      "outputs": [],
      "stateMutability": "nonpayable",
      "type": "function"
    },
    {
      "inputs": [],
      "name": "renounceOwnership",
      "outputs": [],
      "stateMutability": "nonpayable",
      "type": "function"
    },
    {
      "inputs": [
        {
          "internalType": "uint256",
          "name": "",
          "type": "uint256"
        }
      ],
      "name": "tournaments",
      "outputs": [
        {
          "internalType": "uint256",
          "name": "id",
          "type": "uint256"
        },
        {
          "internalType": "string",
          "name": "city",
          "type": "string"
        },
        {
          "internalType": "uint256",
          "name": "date",
          "type": "uint256"
        },
        {
          "internalType": "enum IPadelConnect.Difficulty",
          "name": "difficulty",
          "type": "uint8"
        },
        {
          "internalType": "uint8",
          "name": "registrationsAvailable",
          "type": "uint8"
        },
        {
          "internalType": "address",
          "name": "winner1",
          "type": "address"
        },
        {
          "internalType": "address",
          "name": "winner2",
          "type": "address"
        }
      ],
      "stateMutability": "view",
      "type": "function"
    },
    {
      "inputs": [
        {
          "internalType": "address",
          "name": "newOwner",
          "type": "address"
        }
      ],
      "name": "transferOwnership",
      "outputs": [],
      "stateMutability": "nonpayable",
      "type": "function"
    }
  ],
  "bytecode": "0x608060405234801562000010575f80fd5b5062000031620000256200003760201b60201c565b6200003e60201b60201c565b620000ff565b5f33905090565b5f805f9054906101000a900473ffffffffffffffffffffffffffffffffffffffff169050815f806101000a81548173ffffffffffffffffffffffffffffffffffffffff021916908373ffffffffffffffffffffffffffffffffffffffff1602179055508173ffffffffffffffffffffffffffffffffffffffff168173ffffffffffffffffffffffffffffffffffffffff167f8be0079c531659141344cd1fd0a4f28419497f9722a3daafe3b4186f6b6457e060405160405180910390a35050565b613b3d806200010d5f395ff3fe608060405234801561000f575f80fd5b5060043610610140575f3560e01c8063998ac197116100b6578063f2fde38b1161007a578063f2fde38b14610374578063f52ec1cb14610390578063f7f20cb3146103c0578063f891e08b146103de578063fc6c776f146103fa578063fdff9b4d1461042b57610140565b8063998ac197146102d25780639b535ead146102ee578063aa7e56831461031e578063bd83f6e31461033a578063d566a3821461035857610140565b8063715018a611610108578063715018a61461020c5780637503e1b71461021657806375843aba1461024c578063821644e61461027c5780638a8da1f7146102985780638da5cb5b146102b457610140565b80632d06177a1461014457806332e9f509146101605780633682fd031461017c5780633ae48eb8146101ac5780633b26f59c146101dc575b5f80fd5b61015e600480360381019061015991906127da565b61045b565b005b61017a6004803603810190610175919061286d565b6105eb565b005b610196600480360381019061019191906128ab565b6106db565b6040516101a391906128e5565b60405180910390f35b6101c660048036038101906101c191906128fe565b6106f0565b6040516101d3919061294b565b60405180910390f35b6101f660048036038101906101f191906128ab565b61071a565b6040516102039190612a1b565b60405180910390f35b6102146107b6565b005b610230600480360381019061022b91906128ab565b6107c9565b6040516102439796959493929190612b62565b60405180910390f35b610266600480360381019061026191906128fe565b6108f4565b6040516102739190612d13565b60405180910390f35b610296600480360381019061029191906128ab565b610b3a565b005b6102b260048036038101906102ad9190612d33565b610f91565b005b6102bc61138b565b6040516102c99190612d83565b60405180910390f35b6102ec60048036038101906102e79190612dfd565b6113b2565b005b610308600480360381019061030391906128fe565b6117a6565b604051610315919061294b565b60405180910390f35b61033860048036038101906103339190612e6e565b6117d0565b005b610342611acc565b60405161034f9190612f82565b60405180910390f35b610372600480360381019061036d9190612e6e565b611b5d565b005b61038e600480360381019061038991906127da565b611f05565b005b6103aa60048036038101906103a591906128ab565b611f87565b6040516103b79190612d83565b60405180910390f35b6103c8611fb7565b6040516103d59190612f82565b60405180910390f35b6103f860048036038101906103f39190612fcc565b612048565b005b610414600480360381019061040f9190613050565b612545565b60405161042292919061308e565b60405180910390f35b610445600480360381019061044091906127da565b612615565b604051610452919061294b565b60405180910390f35b610463612632565b805f73ffffffffffffffffffffffffffffffffffffffff168173ffffffffffffffffffffffffffffffffffffffff16036104d2576040517f08c379a00000000000000000000000000000000000000000000000000000000081526004016104c990613106565b60405180910390fd5b60015f8373ffffffffffffffffffffffffffffffffffffffff1673ffffffffffffffffffffffffffffffffffffffff1681526020019081526020015f205f9054906101000a900460ff161561055c576040517f08c379a00000000000000000000000000000000000000000000000000000000081526004016105539061316e565b60405180910390fd5b6001805f8473ffffffffffffffffffffffffffffffffffffffff1673ffffffffffffffffffffffffffffffffffffffff1681526020019081526020015f205f6101000a81548160ff0219169083151502179055507f3b4a40cccf2058c593542587329dd385be4f0b588db5471fbd9598e56dd7093a826040516105df9190612d83565b60405180910390a15050565b816004805490508110610633576040517f08c379a000000000000000000000000000000000000000000000000000000000815260040161062a906131d6565b60405180910390fd5b8160075f8581526020019081526020015f205f3373ffffffffffffffffffffffffffffffffffffffff1673ffffffffffffffffffffffffffffffffffffffff1681526020019081526020015f205f6101000a81548160ff02191690831515021790555081156106d6577fcebe1f0a5fde2bf224e75cda66447253a2b8003182e6074f2a65ec2b2600806283336040516106cd9291906131f4565b60405180910390a15b505050565b6009602052805f5260405f205f915090505481565b6007602052815f5260405f20602052805f5260405f205f915091509054906101000a900460ff1681565b6060600b5f8381526020019081526020015f208054806020026020016040519081016040528092919081815260200182805480156107aa57602002820191905f5260205f20905b815f9054906101000a900473ffffffffffffffffffffffffffffffffffffffff1673ffffffffffffffffffffffffffffffffffffffff1681526020019060010190808311610761575b50505050509050919050565b6107be612632565b6107c75f6126b0565b565b600481815481106107d8575f80fd5b905f5260205f2090600502015f91509050805f0154908060010180546107fd90613248565b80601f016020809104026020016040519081016040528092919081815260200182805461082990613248565b80156108745780601f1061084b57610100808354040283529160200191610874565b820191905f5260205f20905b81548152906001019060200180831161085757829003601f168201915b505050505090806002015490806003015f9054906101000a900460ff16908060030160019054906101000a900460ff16908060030160029054906101000a900473ffffffffffffffffffffffffffffffffffffffff1690806004015f9054906101000a900473ffffffffffffffffffffffffffffffffffffffff16905087565b606082600480549050811061093e576040517f08c379a0000000000000000000000000000000000000000000000000000000008152600401610935906131d6565b60405180910390fd5b825f73ffffffffffffffffffffffffffffffffffffffff168173ffffffffffffffffffffffffffffffffffffffff16036109ad576040517f08c379a00000000000000000000000000000000000000000000000000000000081526004016109a490613106565b60405180910390fd5b600a5f8681526020019081526020015f205f8573ffffffffffffffffffffffffffffffffffffffff1673ffffffffffffffffffffffffffffffffffffffff1681526020019081526020015f20805480602002602001604051908101604052809291908181526020015f905b82821015610b2c578382905f5260205f2090600202016040518060400160405290815f82018054610a4890613248565b80601f0160208091040260200160405190810160405280929190818152602001828054610a7490613248565b8015610abf5780601f10610a9657610100808354040283529160200191610abf565b820191905f5260205f20905b815481529060010190602001808311610aa257829003601f168201915b50505050508152602001600182015f9054906101000a900473ffffffffffffffffffffffffffffffffffffffff1673ffffffffffffffffffffffffffffffffffffffff1673ffffffffffffffffffffffffffffffffffffffff168152505081526020019060010190610a18565b505050509250505092915050565b806004805490508110610b82576040517f08c379a0000000000000000000000000000000000000000000000000000000008152600401610b79906131d6565b60405180910390fd5b60055f8381526020019081526020015f205f3373ffffffffffffffffffffffffffffffffffffffff1673ffffffffffffffffffffffffffffffffffffffff1681526020019081526020015f205f9054906101000a900460ff1615610c1b576040517f08c379a0000000000000000000000000000000000000000000000000000000008152600401610c129061316e565b60405180910390fd5b5f60048381548110610c3057610c2f613278565b5b905f5260205f2090600502016040518060e00160405290815f8201548152602001600182018054610c6090613248565b80601f0160208091040260200160405190810160405280929190818152602001828054610c8c90613248565b8015610cd75780601f10610cae57610100808354040283529160200191610cd7565b820191905f5260205f20905b815481529060010190602001808311610cba57829003601f168201915b5050505050815260200160028201548152602001600382015f9054906101000a900460ff166005811115610d0e57610d0d612ac5565b5b6005811115610d2057610d1f612ac5565b5b81526020016003820160019054906101000a900460ff1660ff1660ff1681526020016003820160029054906101000a900473ffffffffffffffffffffffffffffffffffffffff1673ffffffffffffffffffffffffffffffffffffffff1673ffffffffffffffffffffffffffffffffffffffff168152602001600482015f9054906101000a900473ffffffffffffffffffffffffffffffffffffffff1673ffffffffffffffffffffffffffffffffffffffff1673ffffffffffffffffffffffffffffffffffffffff168152505090504281604001511015610e2c576040517f2ee88f5000000000000000000000000000000000000000000000000000000000815260040160405180910390fd5b5f816080015160ff1603610e6c576040517f106e2afe00000000000000000000000000000000000000000000000000000000815260040160405180910390fd5b600160055f8581526020019081526020015f205f3373ffffffffffffffffffffffffffffffffffffffff1673ffffffffffffffffffffffffffffffffffffffff1681526020019081526020015f205f6101000a81548160ff02191690831515021790555060065f3373ffffffffffffffffffffffffffffffffffffffff1673ffffffffffffffffffffffffffffffffffffffff1681526020019081526020015f2083908060018154018082558091505060019003905f5260205f20015f9091909190915055806080018051610f40906132d2565b60ff16908160ff1681525050806080015160048481548110610f6557610f64613278565b5b905f5260205f20906005020160030160016101000a81548160ff021916908360ff160217905550505050565b826004805490508110610fd9576040517f08c379a0000000000000000000000000000000000000000000000000000000008152600401610fd0906131d6565b60405180910390fd5b83338073ffffffffffffffffffffffffffffffffffffffff1660025f8481526020019081526020015f205f9054906101000a900473ffffffffffffffffffffffffffffffffffffffff1673ffffffffffffffffffffffffffffffffffffffff1614611079576040517f08c379a000000000000000000000000000000000000000000000000000000000815260040161107090613343565b60405180910390fd5b845f73ffffffffffffffffffffffffffffffffffffffff168173ffffffffffffffffffffffffffffffffffffffff16036110e8576040517f08c379a00000000000000000000000000000000000000000000000000000000081526004016110df90613106565b60405180910390fd5b845f73ffffffffffffffffffffffffffffffffffffffff168173ffffffffffffffffffffffffffffffffffffffff1603611157576040517f08c379a000000000000000000000000000000000000000000000000000000000815260040161114e90613106565b60405180910390fd5b8573ffffffffffffffffffffffffffffffffffffffff168773ffffffffffffffffffffffffffffffffffffffff16036111c5576040517f08c379a00000000000000000000000000000000000000000000000000000000081526004016111bc906133ab565b60405180910390fd5b60055f8981526020019081526020015f205f8873ffffffffffffffffffffffffffffffffffffffff1673ffffffffffffffffffffffffffffffffffffffff1681526020019081526020015f205f9054906101000a900460ff16801561127f575060055f8981526020019081526020015f205f8773ffffffffffffffffffffffffffffffffffffffff1673ffffffffffffffffffffffffffffffffffffffff1681526020019081526020015f205f9054906101000a900460ff165b6112be576040517f08c379a00000000000000000000000000000000000000000000000000000000081526004016112b590613413565b60405180910390fd5b86600489815481106112d3576112d2613278565b5b905f5260205f20906005020160030160026101000a81548173ffffffffffffffffffffffffffffffffffffffff021916908373ffffffffffffffffffffffffffffffffffffffff160217905550856004898154811061133557611334613278565b5b905f5260205f2090600502016004015f6101000a81548173ffffffffffffffffffffffffffffffffffffffff021916908373ffffffffffffffffffffffffffffffffffffffff1602179055505050505050505050565b5f805f9054906101000a900473ffffffffffffffffffffffffffffffffffffffff16905090565b8360048054905081106113fa576040517f08c379a00000000000000000000000000000000000000000000000000000000081526004016113f1906131d6565b60405180910390fd5b84338073ffffffffffffffffffffffffffffffffffffffff1660025f8481526020019081526020015f205f9054906101000a900473ffffffffffffffffffffffffffffffffffffffff1673ffffffffffffffffffffffffffffffffffffffff161461149a576040517f08c379a000000000000000000000000000000000000000000000000000000000815260040161149190613343565b60405180910390fd5b855f73ffffffffffffffffffffffffffffffffffffffff168173ffffffffffffffffffffffffffffffffffffffff1603611509576040517f08c379a000000000000000000000000000000000000000000000000000000000815260040161150090613106565b60405180910390fd5b85858080601f0160208091040260200160405190810160405280939291908181526020018383808284375f81840152601f19601f820116905080830192505050505050505f815111611590576040517f08c379a00000000000000000000000000000000000000000000000000000000081526004016115879061347b565b60405180910390fd5b3360024261159e9190613499565b600c5f3373ffffffffffffffffffffffffffffffffffffffff1673ffffffffffffffffffffffffffffffffffffffff1681526020019081526020015f20541061161c576040517f08c379a000000000000000000000000000000000000000000000000000000000815260040161161390613516565b60405180910390fd5b600a5f8b81526020019081526020015f205f8a73ffffffffffffffffffffffffffffffffffffffff1673ffffffffffffffffffffffffffffffffffffffff1681526020019081526020015f2060405180604001604052808a8a8080601f0160208091040260200160405190810160405280939291908181526020018383808284375f81840152601f19601f8201169050808301925050505050505081526020013373ffffffffffffffffffffffffffffffffffffffff16815250908060018154018082558091505060019003905f5260205f2090600202015f909190919091505f820151815f01908161170f91906136fe565b506020820151816001015f6101000a81548173ffffffffffffffffffffffffffffffffffffffff021916908373ffffffffffffffffffffffffffffffffffffffff160217905550505042600c5f3373ffffffffffffffffffffffffffffffffffffffff1673ffffffffffffffffffffffffffffffffffffffff1681526020019081526020015f208190555050505050505050505050565b6005602052815f5260405f20602052805f5260405f205f915091509054906101000a900460ff1681565b826004805490508110611818576040517f08c379a000000000000000000000000000000000000000000000000000000000815260040161180f906131d6565b60405180910390fd5b82828080601f0160208091040260200160405190810160405280939291908181526020018383808284375f81840152601f19601f820116905080830192505050505050505f81511161189f576040517f08c379a00000000000000000000000000000000000000000000000000000000081526004016118969061347b565b60405180910390fd5b336002426118ad9190613499565b600c5f3373ffffffffffffffffffffffffffffffffffffffff1673ffffffffffffffffffffffffffffffffffffffff1681526020019081526020015f20541061192b576040517f08c379a000000000000000000000000000000000000000000000000000000000815260040161192290613516565b60405180910390fd5b604051806040016040528086868080601f0160208091040260200160405190810160405280939291908181526020018383808284375f81840152601f19601f8201169050808301925050505050505081526020013373ffffffffffffffffffffffffffffffffffffffff1681525060085f8881526020019081526020015f205f60095f8a81526020019081526020015f205481526020019081526020015f205f820151815f0190816119dd91906136fe565b506020820151816001015f6101000a81548173ffffffffffffffffffffffffffffffffffffffff021916908373ffffffffffffffffffffffffffffffffffffffff16021790555090505060095f8781526020019081526020015f205f8154611a44906137cd565b9190508190555042600c5f3373ffffffffffffffffffffffffffffffffffffffff1673ffffffffffffffffffffffffffffffffffffffff1681526020019081526020015f20819055507f3021694d1ef819d2b9bc13c595d4f75437b6bbbb2dd33e9f2a9df24534f6b55986604051611abc91906128e5565b60405180910390a1505050505050565b606060065f3373ffffffffffffffffffffffffffffffffffffffff1673ffffffffffffffffffffffffffffffffffffffff1681526020019081526020015f20805480602002602001604051908101604052809291908181526020018280548015611b5357602002820191905f5260205f20905b815481526020019060010190808311611b3f575b5050505050905090565b826004805490508110611ba5576040517f08c379a0000000000000000000000000000000000000000000000000000000008152600401611b9c906131d6565b60405180910390fd5b82828080601f0160208091040260200160405190810160405280939291908181526020018383808284375f81840152601f19601f820116905080830192505050505050505f815111611c2c576040517f08c379a0000000000000000000000000000000000000000000000000000000008152600401611c239061347b565b60405180910390fd5b33600242611c3a9190613499565b600c5f3373ffffffffffffffffffffffffffffffffffffffff1673ffffffffffffffffffffffffffffffffffffffff1681526020019081526020015f205410611cb8576040517f08c379a0000000000000000000000000000000000000000000000000000000008152600401611caf90613516565b60405180910390fd5b600a5f8781526020019081526020015f205f3373ffffffffffffffffffffffffffffffffffffffff1673ffffffffffffffffffffffffffffffffffffffff1681526020019081526020015f20604051806040016040528087878080601f0160208091040260200160405190810160405280939291908181526020018383808284375f81840152601f19601f8201169050808301925050505050505081526020013373ffffffffffffffffffffffffffffffffffffffff16815250908060018154018082558091505060019003905f5260205f2090600202015f909190919091505f820151815f019081611dab91906136fe565b506020820151816001015f6101000a81548173ffffffffffffffffffffffffffffffffffffffff021916908373ffffffffffffffffffffffffffffffffffffffff160217905550505042600c5f3373ffffffffffffffffffffffffffffffffffffffff1673ffffffffffffffffffffffffffffffffffffffff1681526020019081526020015f20819055506001600a5f8881526020019081526020015f205f3373ffffffffffffffffffffffffffffffffffffffff1673ffffffffffffffffffffffffffffffffffffffff1681526020019081526020015f208054905003611efd57600b5f8781526020019081526020015f2033908060018154018082558091505060019003905f5260205f20015f9091909190916101000a81548173ffffffffffffffffffffffffffffffffffffffff021916908373ffffffffffffffffffffffffffffffffffffffff1602179055505b505050505050565b611f0d612632565b5f73ffffffffffffffffffffffffffffffffffffffff168173ffffffffffffffffffffffffffffffffffffffff1603611f7b576040517f08c379a0000000000000000000000000000000000000000000000000000000008152600401611f7290613884565b60405180910390fd5b611f84816126b0565b50565b6002602052805f5260405f205f915054906101000a900473ffffffffffffffffffffffffffffffffffffffff1681565b606060035f3373ffffffffffffffffffffffffffffffffffffffff1673ffffffffffffffffffffffffffffffffffffffff1681526020019081526020015f2080548060200260200160405190810160405280929190818152602001828054801561203e57602002820191905f5260205f20905b81548152602001906001019080831161202a575b5050505050905090565b60015f3373ffffffffffffffffffffffffffffffffffffffff1673ffffffffffffffffffffffffffffffffffffffff1681526020019081526020015f205f9054906101000a900460ff166120d1576040517f08c379a00000000000000000000000000000000000000000000000000000000081526004016120c8906138ec565b60405180910390fd5b84848080601f0160208091040260200160405190810160405280939291908181526020018383808284375f81840152601f19601f820116905080830192505050505050505f815111612158576040517f08c379a000000000000000000000000000000000000000000000000000000000815260040161214f9061347b565b60405180910390fd5b42841161219a576040517f08c379a000000000000000000000000000000000000000000000000000000000815260040161219190613954565b60405180910390fd5b5f8260ff161180156121ba57505f6002836121b5919061399f565b60ff16145b6121f9576040517f08c379a00000000000000000000000000000000000000000000000000000000081526004016121f090613a19565b60405180910390fd5b60058081111561220c5761220b612ac5565b5b8360ff161115612251576040517f08c379a000000000000000000000000000000000000000000000000000000000815260040161224890613a81565b60405180910390fd5b5f600480549050905060046040518060e0016040528083815260200189898080601f0160208091040260200160405190810160405280939291908181526020018383808284375f81840152601f19601f8201169050808301925050505050505081526020018781526020018660ff1660058111156122d2576122d1612ac5565b5b60058111156122e4576122e3612ac5565b5b81526020018560ff1681526020015f73ffffffffffffffffffffffffffffffffffffffff1681526020015f73ffffffffffffffffffffffffffffffffffffffff16815250908060018154018082558091505060019003905f5260205f2090600502015f909190919091505f820151815f0155602082015181600101908161236b91906136fe565b50604082015181600201556060820151816003015f6101000a81548160ff021916908360058111156123a05761239f612ac5565b5b021790555060808201518160030160016101000a81548160ff021916908360ff16021790555060a08201518160030160026101000a81548173ffffffffffffffffffffffffffffffffffffffff021916908373ffffffffffffffffffffffffffffffffffffffff16021790555060c0820151816004015f6101000a81548173ffffffffffffffffffffffffffffffffffffffff021916908373ffffffffffffffffffffffffffffffffffffffff16021790555050503360025f8381526020019081526020015f205f6101000a81548173ffffffffffffffffffffffffffffffffffffffff021916908373ffffffffffffffffffffffffffffffffffffffff16021790555060035f3373ffffffffffffffffffffffffffffffffffffffff1673ffffffffffffffffffffffffffffffffffffffff1681526020019081526020015f2081908060018154018082558091505060019003905f5260205f20015f90919091909150557f113d32d0b7aec15a8c7f50af4cb42f4695e5b95524ed69519ac88d6c1f1f40f68160405161253491906128e5565b60405180910390a150505050505050565b6008602052815f5260405f20602052805f5260405f205f9150915050805f01805461256f90613248565b80601f016020809104026020016040519081016040528092919081815260200182805461259b90613248565b80156125e65780601f106125bd576101008083540402835291602001916125e6565b820191905f5260205f20905b8154815290600101906020018083116125c957829003601f168201915b505050505090806001015f9054906101000a900473ffffffffffffffffffffffffffffffffffffffff16905082565b6001602052805f5260405f205f915054906101000a900460ff1681565b61263a612771565b73ffffffffffffffffffffffffffffffffffffffff1661265861138b565b73ffffffffffffffffffffffffffffffffffffffff16146126ae576040517f08c379a00000000000000000000000000000000000000000000000000000000081526004016126a590613ae9565b60405180910390fd5b565b5f805f9054906101000a900473ffffffffffffffffffffffffffffffffffffffff169050815f806101000a81548173ffffffffffffffffffffffffffffffffffffffff021916908373ffffffffffffffffffffffffffffffffffffffff1602179055508173ffffffffffffffffffffffffffffffffffffffff168173ffffffffffffffffffffffffffffffffffffffff167f8be0079c531659141344cd1fd0a4f28419497f9722a3daafe3b4186f6b6457e060405160405180910390a35050565b5f33905090565b5f80fd5b5f80fd5b5f73ffffffffffffffffffffffffffffffffffffffff82169050919050565b5f6127a982612780565b9050919050565b6127b98161279f565b81146127c3575f80fd5b50565b5f813590506127d4816127b0565b92915050565b5f602082840312156127ef576127ee612778565b5b5f6127fc848285016127c6565b91505092915050565b5f819050919050565b61281781612805565b8114612821575f80fd5b50565b5f813590506128328161280e565b92915050565b5f8115159050919050565b61284c81612838565b8114612856575f80fd5b50565b5f8135905061286781612843565b92915050565b5f806040838503121561288357612882612778565b5b5f61289085828601612824565b92505060206128a185828601612859565b9150509250929050565b5f602082840312156128c0576128bf612778565b5b5f6128cd84828501612824565b91505092915050565b6128df81612805565b82525050565b5f6020820190506128f85f8301846128d6565b92915050565b5f806040838503121561291457612913612778565b5b5f61292185828601612824565b9250506020612932858286016127c6565b9150509250929050565b61294581612838565b82525050565b5f60208201905061295e5f83018461293c565b92915050565b5f81519050919050565b5f82825260208201905092915050565b5f819050602082019050919050565b6129968161279f565b82525050565b5f6129a7838361298d565b60208301905092915050565b5f602082019050919050565b5f6129c982612964565b6129d3818561296e565b93506129de8361297e565b805f5b83811015612a0e5781516129f5888261299c565b9750612a00836129b3565b9250506001810190506129e1565b5085935050505092915050565b5f6020820190508181035f830152612a3381846129bf565b905092915050565b5f81519050919050565b5f82825260208201905092915050565b5f5b83811015612a72578082015181840152602081019050612a57565b5f8484015250505050565b5f601f19601f8301169050919050565b5f612a9782612a3b565b612aa18185612a45565b9350612ab1818560208601612a55565b612aba81612a7d565b840191505092915050565b7f4e487b71000000000000000000000000000000000000000000000000000000005f52602160045260245ffd5b60068110612b0357612b02612ac5565b5b50565b5f819050612b1382612af2565b919050565b5f612b2282612b06565b9050919050565b612b3281612b18565b82525050565b5f60ff82169050919050565b612b4d81612b38565b82525050565b612b5c8161279f565b82525050565b5f60e082019050612b755f83018a6128d6565b8181036020830152612b878189612a8d565b9050612b9660408301886128d6565b612ba36060830187612b29565b612bb06080830186612b44565b612bbd60a0830185612b53565b612bca60c0830184612b53565b98975050505050505050565b5f81519050919050565b5f82825260208201905092915050565b5f819050602082019050919050565b5f82825260208201905092915050565b5f612c1982612a3b565b612c238185612bff565b9350612c33818560208601612a55565b612c3c81612a7d565b840191505092915050565b5f604083015f8301518482035f860152612c618282612c0f565b9150506020830151612c76602086018261298d565b508091505092915050565b5f612c8c8383612c47565b905092915050565b5f602082019050919050565b5f612caa82612bd6565b612cb48185612be0565b935083602082028501612cc685612bf0565b805f5b85811015612d015784840389528151612ce28582612c81565b9450612ced83612c94565b925060208a01995050600181019050612cc9565b50829750879550505050505092915050565b5f6020820190508181035f830152612d2b8184612ca0565b905092915050565b5f805f60608486031215612d4a57612d49612778565b5b5f612d5786828701612824565b9350506020612d68868287016127c6565b9250506040612d79868287016127c6565b9150509250925092565b5f602082019050612d965f830184612b53565b92915050565b5f80fd5b5f80fd5b5f80fd5b5f8083601f840112612dbd57612dbc612d9c565b5b8235905067ffffffffffffffff811115612dda57612dd9612da0565b5b602083019150836001820283011115612df657612df5612da4565b5b9250929050565b5f805f8060608587031215612e1557612e14612778565b5b5f612e2287828801612824565b9450506020612e33878288016127c6565b935050604085013567ffffffffffffffff811115612e5457612e5361277c565b5b612e6087828801612da8565b925092505092959194509250565b5f805f60408486031215612e8557612e84612778565b5b5f612e9286828701612824565b935050602084013567ffffffffffffffff811115612eb357612eb261277c565b5b612ebf86828701612da8565b92509250509250925092565b5f81519050919050565b5f82825260208201905092915050565b5f819050602082019050919050565b612efd81612805565b82525050565b5f612f0e8383612ef4565b60208301905092915050565b5f602082019050919050565b5f612f3082612ecb565b612f3a8185612ed5565b9350612f4583612ee5565b805f5b83811015612f75578151612f5c8882612f03565b9750612f6783612f1a565b925050600181019050612f48565b5085935050505092915050565b5f6020820190508181035f830152612f9a8184612f26565b905092915050565b612fab81612b38565b8114612fb5575f80fd5b50565b5f81359050612fc681612fa2565b92915050565b5f805f805f60808688031215612fe557612fe4612778565b5b5f86013567ffffffffffffffff8111156130025761300161277c565b5b61300e88828901612da8565b9550955050602061302188828901612824565b935050604061303288828901612fb8565b925050606061304388828901612fb8565b9150509295509295909350565b5f806040838503121561306657613065612778565b5b5f61307385828601612824565b925050602061308485828601612824565b9150509250929050565b5f6040820190508181035f8301526130a68185612a8d565b90506130b56020830184612b53565b9392505050565b7f43616e6e6f7420626520746865207a65726f20616464726573730000000000005f82015250565b5f6130f0601a83612a45565b91506130fb826130bc565b602082019050919050565b5f6020820190508181035f83015261311d816130e4565b9050919050565b7f416c7265616479207265676973746572656400000000000000000000000000005f82015250565b5f613158601283612a45565b915061316382613124565b602082019050919050565b5f6020820190508181035f8301526131858161314c565b9050919050565b7f57726f6e672069642073656e74000000000000000000000000000000000000005f82015250565b5f6131c0600d83612a45565b91506131cb8261318c565b602082019050919050565b5f6020820190508181035f8301526131ed816131b4565b9050919050565b5f6040820190506132075f8301856128d6565b6132146020830184612b53565b9392505050565b7f4e487b71000000000000000000000000000000000000000000000000000000005f52602260045260245ffd5b5f600282049050600182168061325f57607f821691505b6020821081036132725761327161321b565b5b50919050565b7f4e487b71000000000000000000000000000000000000000000000000000000005f52603260045260245ffd5b7f4e487b71000000000000000000000000000000000000000000000000000000005f52601160045260245ffd5b5f6132dc82612b38565b91505f82036132ee576132ed6132a5565b5b600182039050919050565b7f4e6f7420746865206d616e6167657200000000000000000000000000000000005f82015250565b5f61332d600f83612a45565b9150613338826132f9565b602082019050919050565b5f6020820190508181035f83015261335a81613321565b9050919050565b7f53616d65206164647265737300000000000000000000000000000000000000005f82015250565b5f613395600c83612a45565b91506133a082613361565b602082019050919050565b5f6020820190508181035f8301526133c281613389565b9050919050565b7f4e6f7420726567697374657265640000000000000000000000000000000000005f82015250565b5f6133fd600e83612a45565b9150613408826133c9565b602082019050919050565b5f6020820190508181035f83015261342a816133f1565b9050919050565b7f43616e6e6f7420626520656d70747900000000000000000000000000000000005f82015250565b5f613465600f83612a45565b915061347082613431565b602082019050919050565b5f6020820190508181035f83015261349281613459565b9050919050565b5f6134a382612805565b91506134ae83612805565b92508282039050818111156134c6576134c56132a5565b5b92915050565b7f57616974203273000000000000000000000000000000000000000000000000005f82015250565b5f613500600783612a45565b915061350b826134cc565b602082019050919050565b5f6020820190508181035f83015261352d816134f4565b9050919050565b7f4e487b71000000000000000000000000000000000000000000000000000000005f52604160045260245ffd5b5f819050815f5260205f209050919050565b5f6020601f8301049050919050565b5f82821b905092915050565b5f600883026135bd7fffffffffffffffffffffffffffffffffffffffffffffffffffffffffffffffff82613582565b6135c78683613582565b95508019841693508086168417925050509392505050565b5f819050919050565b5f6136026135fd6135f884612805565b6135df565b612805565b9050919050565b5f819050919050565b61361b836135e8565b61362f61362782613609565b84845461358e565b825550505050565b5f90565b613643613637565b61364e818484613612565b505050565b5b81811015613671576136665f8261363b565b600181019050613654565b5050565b601f8211156136b65761368781613561565b61369084613573565b8101602085101561369f578190505b6136b36136ab85613573565b830182613653565b50505b505050565b5f82821c905092915050565b5f6136d65f19846008026136bb565b1980831691505092915050565b5f6136ee83836136c7565b9150826002028217905092915050565b61370782612a3b565b67ffffffffffffffff8111156137205761371f613534565b5b61372a8254613248565b613735828285613675565b5f60209050601f831160018114613766575f8415613754578287015190505b61375e85826136e3565b8655506137c5565b601f19841661377486613561565b5f5b8281101561379b57848901518255600182019150602085019450602081019050613776565b868310156137b857848901516137b4601f8916826136c7565b8355505b6001600288020188555050505b505050505050565b5f6137d782612805565b91507fffffffffffffffffffffffffffffffffffffffffffffffffffffffffffffffff8203613809576138086132a5565b5b600182019050919050565b7f4f776e61626c653a206e6577206f776e657220697320746865207a65726f20615f8201527f6464726573730000000000000000000000000000000000000000000000000000602082015250565b5f61386e602683612a45565b915061387982613814565b604082019050919050565b5f6020820190508181035f83015261389b81613862565b9050919050565b7f466f7262696464656e00000000000000000000000000000000000000000000005f82015250565b5f6138d6600983612a45565b91506138e1826138a2565b602082019050919050565b5f6020820190508181035f830152613903816138ca565b9050919050565b7f496e636f727265637420646174650000000000000000000000000000000000005f82015250565b5f61393e600e83612a45565b91506139498261390a565b602082019050919050565b5f6020820190508181035f83015261396b81613932565b9050919050565b7f4e487b71000000000000000000000000000000000000000000000000000000005f52601260045260245ffd5b5f6139a982612b38565b91506139b483612b38565b9250826139c4576139c3613972565b5b828206905092915050565b7f506c6179656420627920320000000000000000000000000000000000000000005f82015250565b5f613a03600b83612a45565b9150613a0e826139cf565b602082019050919050565b5f6020820190508181035f830152613a30816139f7565b9050919050565b7f496e636f727265637420646966666963756c74790000000000000000000000005f82015250565b5f613a6b601483612a45565b9150613a7682613a37565b602082019050919050565b5f6020820190508181035f830152613a9881613a5f565b9050919050565b7f4f776e61626c653a2063616c6c6572206973206e6f7420746865206f776e65725f82015250565b5f613ad3602083612a45565b9150613ade82613a9f565b602082019050919050565b5f6020820190508181035f830152613b0081613ac7565b905091905056fea26469706673582212203db9ba6da52e7526dfadba14a497fd988aff499e0c368338064a64185d89d5f864736f6c63430008140033",
  "linkReferences": {},
  "deployedLinkReferences": {}
}