{
  "_format": "hh-sol-artifact-1",
  "contractName": "PadelConnect",
  "sourceName": "contracts/PadelConnect.sol",
  "abi": [
    {
      "inputs": [],
      "name": "CompleteTournament",
      "type": "error"
    },
    {
      "inputs": [],
      "name": "ErrorDuringPayment",
      "type": "error"
    },
    {
      "inputs": [],
      "name": "RegistrationEnded",
      "type": "error"
    },
    {
      "anonymous": false,
      "inputs": [
        {
          "indexed": true,
          "internalType": "address",
          "name": "owner",
          "type": "address"
        },
        {
          "indexed": true,
          "internalType": "address",
          "name": "approved",
          "type": "address"
        },
        {
          "indexed": true,
          "internalType": "uint256",
          "name": "tokenId",
          "type": "uint256"
        }
      ],
      "name": "Approval",
      "type": "event"
    },
    {
      "anonymous": false,
      "inputs": [
        {
          "indexed": true,
          "internalType": "address",
          "name": "owner",
          "type": "address"
        },
        {
          "indexed": true,
          "internalType": "address",
          "name": "operator",
          "type": "address"
        },
        {
          "indexed": false,
          "internalType": "bool",
          "name": "approved",
          "type": "bool"
        }
      ],
      "name": "ApprovalForAll",
      "type": "event"
    },
    {
      "anonymous": false,
      "inputs": [
        {
          "indexed": false,
          "internalType": "uint256",
          "name": "_fromTokenId",
          "type": "uint256"
        },
        {
          "indexed": false,
          "internalType": "uint256",
          "name": "_toTokenId",
          "type": "uint256"
        }
      ],
      "name": "BatchMetadataUpdate",
      "type": "event"
    },
    {
      "anonymous": false,
      "inputs": [
        {
          "indexed": false,
          "internalType": "address",
          "name": "_address",
          "type": "address"
        }
      ],
      "name": "ManagerAdded",
      "type": "event"
    },
    {
      "anonymous": false,
      "inputs": [
        {
          "indexed": false,
          "internalType": "uint256",
          "name": "_tokenId",
          "type": "uint256"
        }
      ],
      "name": "MetadataUpdate",
      "type": "event"
    },
    {
      "anonymous": false,
      "inputs": [
        {
          "indexed": true,
          "internalType": "address",
          "name": "previousOwner",
          "type": "address"
        },
        {
          "indexed": true,
          "internalType": "address",
          "name": "newOwner",
          "type": "address"
        }
      ],
      "name": "OwnershipTransferred",
      "type": "event"
    },
    {
      "anonymous": false,
      "inputs": [
        {
          "indexed": false,
          "internalType": "uint256",
          "name": "tournamentId",
          "type": "uint256"
        },
        {
          "indexed": false,
          "internalType": "address",
          "name": "player",
          "type": "address"
        }
      ],
      "name": "PrivateCommentAdded",
      "type": "event"
    },
    {
      "anonymous": false,
      "inputs": [
        {
          "indexed": false,
          "internalType": "uint256",
          "name": "tournamentId",
          "type": "uint256"
        },
        {
          "indexed": false,
          "internalType": "address",
          "name": "player",
          "type": "address"
        }
      ],
      "name": "PrivateResponseAdded",
      "type": "event"
    },
    {
      "anonymous": false,
      "inputs": [
        {
          "indexed": false,
          "internalType": "uint256",
          "name": "tournamentId",
          "type": "uint256"
        }
      ],
      "name": "TournamentCommentAdded",
      "type": "event"
    },
    {
      "anonymous": false,
      "inputs": [
        {
          "indexed": false,
          "internalType": "uint256",
          "name": "id",
          "type": "uint256"
        }
      ],
      "name": "TournamentCreated",
      "type": "event"
    },
    {
      "anonymous": false,
      "inputs": [
        {
          "indexed": true,
          "internalType": "address",
          "name": "from",
          "type": "address"
        },
        {
          "indexed": true,
          "internalType": "address",
          "name": "to",
          "type": "address"
        },
        {
          "indexed": true,
          "internalType": "uint256",
          "name": "tokenId",
          "type": "uint256"
        }
      ],
      "name": "Transfer",
      "type": "event"
    },
    {
      "inputs": [
        {
          "internalType": "uint256",
          "name": "_id",
          "type": "uint256"
        },
        {
          "internalType": "string",
          "name": "_message",
          "type": "string"
        }
      ],
      "name": "addComment",
      "outputs": [],
      "stateMutability": "nonpayable",
      "type": "function"
    },
    {
      "inputs": [
        {
          "internalType": "address",
          "name": "_address",
          "type": "address"
        }
      ],
      "name": "addManager",
      "outputs": [],
      "stateMutability": "nonpayable",
      "type": "function"
    },
    {
      "inputs": [
        {
          "internalType": "uint256",
          "name": "_id",
          "type": "uint256"
        },
        {
          "internalType": "string",
          "name": "_message",
          "type": "string"
        }
      ],
      "name": "addPrivateCommentToManager",
      "outputs": [],
      "stateMutability": "nonpayable",
      "type": "function"
    },
    {
      "inputs": [
        {
          "internalType": "uint256",
          "name": "_id",
          "type": "uint256"
        },
        {
          "internalType": "address",
          "name": "_player",
          "type": "address"
        },
        {
          "internalType": "string",
          "name": "_message",
          "type": "string"
        }
      ],
      "name": "addPrivateResponseToPlayer",
      "outputs": [],
      "stateMutability": "nonpayable",
      "type": "function"
    },
    {
      "inputs": [
        {
          "internalType": "string",
          "name": "_city",
          "type": "string"
        },
        {
          "internalType": "uint256",
          "name": "_date",
          "type": "uint256"
        },
        {
          "internalType": "uint8",
          "name": "_diff",
          "type": "uint8"
        },
        {
          "internalType": "uint8",
          "name": "_maxPlayers",
          "type": "uint8"
        }
      ],
      "name": "addTournament",
      "outputs": [],
      "stateMutability": "nonpayable",
      "type": "function"
    },
    {
      "inputs": [
        {
          "internalType": "uint256",
          "name": "_id",
          "type": "uint256"
        },
        {
          "internalType": "address",
          "name": "_winner1",
          "type": "address"
        },
        {
          "internalType": "address",
          "name": "_winner2",
          "type": "address"
        }
      ],
      "name": "addWinners",
      "outputs": [],
      "stateMutability": "nonpayable",
      "type": "function"
    },
    {
      "inputs": [
        {
          "internalType": "address",
          "name": "to",
          "type": "address"
        },
        {
          "internalType": "uint256",
          "name": "tokenId",
          "type": "uint256"
        }
      ],
      "name": "approve",
      "outputs": [],
      "stateMutability": "nonpayable",
      "type": "function"
    },
    {
      "inputs": [
        {
          "internalType": "address",
          "name": "owner",
          "type": "address"
        }
      ],
      "name": "balanceOf",
      "outputs": [
        {
          "internalType": "uint256",
          "name": "",
          "type": "uint256"
        }
      ],
      "stateMutability": "view",
      "type": "function"
    },
    {
      "inputs": [
        {
          "internalType": "uint256",
          "name": "",
          "type": "uint256"
        },
        {
          "internalType": "uint256",
          "name": "",
          "type": "uint256"
        }
      ],
      "name": "comments",
      "outputs": [
        {
          "internalType": "string",
          "name": "message",
          "type": "string"
        },
        {
          "internalType": "address",
          "name": "author",
          "type": "address"
        }
      ],
      "stateMutability": "view",
      "type": "function"
    },
    {
      "inputs": [
        {
          "internalType": "uint256",
          "name": "_id",
          "type": "uint256"
        }
      ],
      "name": "followTournament",
      "outputs": [],
      "stateMutability": "nonpayable",
      "type": "function"
    },
    {
      "inputs": [
        {
          "internalType": "uint256",
          "name": "",
          "type": "uint256"
        },
        {
          "internalType": "address",
          "name": "",
          "type": "address"
        }
      ],
      "name": "followedTournaments",
      "outputs": [
        {
          "internalType": "bool",
          "name": "",
          "type": "bool"
        }
      ],
      "stateMutability": "view",
      "type": "function"
    },
    {
      "inputs": [
        {
          "internalType": "uint256",
          "name": "tokenId",
          "type": "uint256"
        }
      ],
      "name": "getApproved",
      "outputs": [
        {
          "internalType": "address",
          "name": "",
          "type": "address"
        }
      ],
      "stateMutability": "view",
      "type": "function"
    },
    {
      "inputs": [
        {
          "internalType": "uint256",
          "name": "",
          "type": "uint256"
        }
      ],
      "name": "idComments",
      "outputs": [
        {
          "internalType": "uint256",
          "name": "",
          "type": "uint256"
        }
      ],
      "stateMutability": "view",
      "type": "function"
    },
    {
      "inputs": [
        {
          "internalType": "address",
          "name": "owner",
          "type": "address"
        },
        {
          "internalType": "address",
          "name": "operator",
          "type": "address"
        }
      ],
      "name": "isApprovedForAll",
      "outputs": [
        {
          "internalType": "bool",
          "name": "",
          "type": "bool"
        }
      ],
      "stateMutability": "view",
      "type": "function"
    },
    {
      "inputs": [
        {
          "internalType": "address",
          "name": "",
          "type": "address"
        }
      ],
      "name": "managers",
      "outputs": [
        {
          "internalType": "bool",
          "name": "",
          "type": "bool"
        }
      ],
      "stateMutability": "view",
      "type": "function"
    },
    {
      "inputs": [],
      "name": "name",
      "outputs": [
        {
          "internalType": "string",
          "name": "",
          "type": "string"
        }
      ],
      "stateMutability": "view",
      "type": "function"
    },
    {
      "inputs": [],
      "name": "owner",
      "outputs": [
        {
          "internalType": "address",
          "name": "",
          "type": "address"
        }
      ],
      "stateMutability": "view",
      "type": "function"
    },
    {
      "inputs": [
        {
          "internalType": "uint256",
          "name": "tokenId",
          "type": "uint256"
        }
      ],
      "name": "ownerOf",
      "outputs": [
        {
          "internalType": "address",
          "name": "",
          "type": "address"
        }
      ],
      "stateMutability": "view",
      "type": "function"
    },
    {
      "inputs": [
        {
          "internalType": "uint256",
          "name": "",
          "type": "uint256"
        },
        {
          "internalType": "address",
          "name": "",
          "type": "address"
        }
      ],
      "name": "playersRegistered",
      "outputs": [
        {
          "internalType": "bool",
          "name": "",
          "type": "bool"
        }
      ],
      "stateMutability": "view",
      "type": "function"
    },
    {
      "inputs": [
        {
          "internalType": "uint256",
          "name": "_id",
          "type": "uint256"
        },
        {
          "internalType": "string",
          "name": "_firstName",
          "type": "string"
        },
        {
          "internalType": "string",
          "name": "_lastName",
          "type": "string"
        }
      ],
      "name": "registerPlayer",
      "outputs": [],
      "stateMutability": "nonpayable",
      "type": "function"
    },
    {
      "inputs": [],
      "name": "renounceOwnership",
      "outputs": [],
      "stateMutability": "nonpayable",
      "type": "function"
    },
    {
      "inputs": [
        {
          "internalType": "address",
          "name": "from",
          "type": "address"
        },
        {
          "internalType": "address",
          "name": "to",
          "type": "address"
        },
        {
          "internalType": "uint256",
          "name": "tokenId",
          "type": "uint256"
        }
      ],
      "name": "safeTransferFrom",
      "outputs": [],
      "stateMutability": "nonpayable",
      "type": "function"
    },
    {
      "inputs": [
        {
          "internalType": "address",
          "name": "from",
          "type": "address"
        },
        {
          "internalType": "address",
          "name": "to",
          "type": "address"
        },
        {
          "internalType": "uint256",
          "name": "tokenId",
          "type": "uint256"
        },
        {
          "internalType": "bytes",
          "name": "data",
          "type": "bytes"
        }
      ],
      "name": "safeTransferFrom",
      "outputs": [],
      "stateMutability": "nonpayable",
      "type": "function"
    },
    {
      "inputs": [
        {
          "internalType": "address",
          "name": "operator",
          "type": "address"
        },
        {
          "internalType": "bool",
          "name": "approved",
          "type": "bool"
        }
      ],
      "name": "setApprovalForAll",
      "outputs": [],
      "stateMutability": "nonpayable",
      "type": "function"
    },
    {
      "inputs": [
        {
          "internalType": "bytes4",
          "name": "interfaceId",
          "type": "bytes4"
        }
      ],
      "name": "supportsInterface",
      "outputs": [
        {
          "internalType": "bool",
          "name": "",
          "type": "bool"
        }
      ],
      "stateMutability": "view",
      "type": "function"
    },
    {
      "inputs": [],
      "name": "symbol",
      "outputs": [
        {
          "internalType": "string",
          "name": "",
          "type": "string"
        }
      ],
      "stateMutability": "view",
      "type": "function"
    },
    {
      "inputs": [
        {
          "internalType": "uint256",
          "name": "tokenId",
          "type": "uint256"
        }
      ],
      "name": "tokenURI",
      "outputs": [
        {
          "internalType": "string",
          "name": "",
          "type": "string"
        }
      ],
      "stateMutability": "view",
      "type": "function"
    },
    {
      "inputs": [
        {
          "internalType": "uint256",
          "name": "",
          "type": "uint256"
        }
      ],
      "name": "tournaments",
      "outputs": [
        {
          "internalType": "uint256",
          "name": "id",
          "type": "uint256"
        },
        {
          "internalType": "string",
          "name": "city",
          "type": "string"
        },
        {
          "internalType": "uint256",
          "name": "date",
          "type": "uint256"
        },
        {
          "internalType": "enum IPadelConnect.Difficulty",
          "name": "difficulty",
          "type": "uint8"
        },
        {
          "internalType": "uint8",
          "name": "maxPlayers",
          "type": "uint8"
        },
        {
          "internalType": "uint8",
          "name": "registrationsAvailable",
          "type": "uint8"
        },
        {
          "internalType": "address",
          "name": "winner1",
          "type": "address"
        },
        {
          "internalType": "address",
          "name": "winner2",
          "type": "address"
        }
      ],
      "stateMutability": "view",
      "type": "function"
    },
    {
      "inputs": [
        {
          "internalType": "address",
          "name": "from",
          "type": "address"
        },
        {
          "internalType": "address",
          "name": "to",
          "type": "address"
        },
        {
          "internalType": "uint256",
          "name": "tokenId",
          "type": "uint256"
        }
      ],
      "name": "transferFrom",
      "outputs": [],
      "stateMutability": "nonpayable",
      "type": "function"
    },
    {
      "inputs": [
        {
          "internalType": "address",
          "name": "newOwner",
          "type": "address"
        }
      ],
      "name": "transferOwnership",
      "outputs": [],
      "stateMutability": "nonpayable",
      "type": "function"
    }
  ],
  "bytecode": "0x608060405234801562000010575f80fd5b506040518060400160405280600c81526020017f506164656c436f6e6e65637400000000000000000000000000000000000000008152506040518060400160405280600381526020017f50444c00000000000000000000000000000000000000000000000000000000008152506200009d62000091620000c960201b60201c565b620000d060201b60201c565b8160019081620000ae9190620003f5565b508060029081620000c09190620003f5565b505050620004d9565b5f33905090565b5f805f9054906101000a900473ffffffffffffffffffffffffffffffffffffffff169050815f806101000a81548173ffffffffffffffffffffffffffffffffffffffff021916908373ffffffffffffffffffffffffffffffffffffffff1602179055508173ffffffffffffffffffffffffffffffffffffffff168173ffffffffffffffffffffffffffffffffffffffff167f8be0079c531659141344cd1fd0a4f28419497f9722a3daafe3b4186f6b6457e060405160405180910390a35050565b5f81519050919050565b7f4e487b71000000000000000000000000000000000000000000000000000000005f52604160045260245ffd5b7f4e487b71000000000000000000000000000000000000000000000000000000005f52602260045260245ffd5b5f60028204905060018216806200020d57607f821691505b602082108103620002235762000222620001c8565b5b50919050565b5f819050815f5260205f209050919050565b5f6020601f8301049050919050565b5f82821b905092915050565b5f60088302620002877fffffffffffffffffffffffffffffffffffffffffffffffffffffffffffffffff826200024a565b6200029386836200024a565b95508019841693508086168417925050509392505050565b5f819050919050565b5f819050919050565b5f620002dd620002d7620002d184620002ab565b620002b4565b620002ab565b9050919050565b5f819050919050565b620002f883620002bd565b620003106200030782620002e4565b84845462000256565b825550505050565b5f90565b6200032662000318565b62000333818484620002ed565b505050565b5b818110156200035a576200034e5f826200031c565b60018101905062000339565b5050565b601f821115620003a957620003738162000229565b6200037e846200023b565b810160208510156200038e578190505b620003a66200039d856200023b565b83018262000338565b50505b505050565b5f82821c905092915050565b5f620003cb5f1984600802620003ae565b1980831691505092915050565b5f620003e58383620003ba565b9150826002028217905092915050565b620004008262000191565b67ffffffffffffffff8111156200041c576200041b6200019b565b5b620004288254620001f5565b620004358282856200035e565b5f60209050601f8311600181146200046b575f841562000456578287015190505b620004628582620003d8565b865550620004d1565b601f1984166200047b8662000229565b5f5b82811015620004a4578489015182556001820191506020850194506020810190506200047d565b86831015620004c45784890151620004c0601f891682620003ba565b8355505b6001600288020188555050505b505050505050565b615b1480620004e75f395ff3fe608060405234801561000f575f80fd5b50600436106101d8575f3560e01c80637503e1b711610102578063aa7e5683116100a0578063f2fde38b1161006f578063f2fde38b14610577578063f891e08b14610593578063fc6c776f146105af578063fdff9b4d146105e0576101d8565b8063aa7e5683146104df578063b88d4fde146104fb578063c87b56dd14610517578063e985e9c514610547576101d8565b806395d89b41116100dc57806395d89b41146104595780639b0404ca146104775780639b535ead14610493578063a22cb465146104c3576101d8565b80637503e1b7146103e85780638a8da1f71461041f5780638da5cb5b1461043b576101d8565b806325e2e5541161017a57806342842e0e1161014957806342842e0e146103625780636352211e1461037e57806370a08231146103ae578063715018a6146103de576101d8565b806325e2e554146102ca5780632d06177a146102e65780633682fd03146103025780633ae48eb814610332576101d8565b8063095ea7b3116101b6578063095ea7b31461025a5780630b7bdd7f146102765780631d3f6c8a1461029257806323b872dd146102ae576101d8565b806301ffc9a7146101dc57806306fdde031461020c578063081812fc1461022a575b5f80fd5b6101f660048036038101906101f19190614000565b610610565b6040516102039190614045565b60405180910390f35b610214610670565b60405161022191906140e8565b60405180910390f35b610244600480360381019061023f919061413b565b610700565b60405161025191906141a5565b60405180910390f35b610274600480360381019061026f91906141e8565b610742565b005b610290600480360381019061028b919061413b565b610858565b005b6102ac60048036038101906102a79190614287565b610908565b005b6102c860048036038101906102c391906142e4565b610c22565b005b6102e460048036038101906102df9190614334565b610c82565b005b61030060048036038101906102fb91906143c5565b6112af565b005b61031c6004803603810190610317919061413b565b611440565b60405161032991906143ff565b60405180910390f35b61034c60048036038101906103479190614418565b611455565b6040516103599190614045565b60405180910390f35b61037c600480360381019061037791906142e4565b61147f565b005b6103986004803603810190610393919061413b565b61149e565b6040516103a591906141a5565b60405180910390f35b6103c860048036038101906103c391906143c5565b611522565b6040516103d591906143ff565b60405180910390f35b6103e66115d6565b005b61040260048036038101906103fd919061413b565b6115e9565b6040516104169897969594939291906144e4565b60405180910390f35b61043960048036038101906104349190614567565b611727565b005b610443611e31565b60405161045091906141a5565b60405180910390f35b610461611e58565b60405161046e91906140e8565b60405180910390f35b610491600480360381019061048c91906145b7565b611ee8565b005b6104ad60048036038101906104a89190614418565b6122fc565b6040516104ba9190614045565b60405180910390f35b6104dd60048036038101906104d89190614652565b612326565b005b6104f960048036038101906104f49190614287565b61233c565b005b610515600480360381019061051091906147b8565b612638565b005b610531600480360381019061052c919061413b565b61269a565b60405161053e91906140e8565b60405180910390f35b610561600480360381019061055c9190614838565b6127a4565b60405161056e9190614045565b60405180910390f35b610591600480360381019061058c91906143c5565b612832565b005b6105ad60048036038101906105a891906148a0565b6128b4565b005b6105c960048036038101906105c49190614924565b612d7b565b6040516105d7929190614962565b60405180910390f35b6105fa60048036038101906105f591906143c5565b612e4b565b6040516106079190614045565b60405180910390f35b5f634906490660e01b7bffffffffffffffffffffffffffffffffffffffffffffffffffffffff1916827bffffffffffffffffffffffffffffffffffffffffffffffffffffffff19161480610669575061066882612e68565b5b9050919050565b60606001805461067f906149bd565b80601f01602080910402602001604051908101604052809291908181526020018280546106ab906149bd565b80156106f65780601f106106cd576101008083540402835291602001916106f6565b820191905f5260205f20905b8154815290600101906020018083116106d957829003601f168201915b5050505050905090565b5f61070a82612f49565b60055f8381526020019081526020015f205f9054906101000a900473ffffffffffffffffffffffffffffffffffffffff169050919050565b5f61074c8261149e565b90508073ffffffffffffffffffffffffffffffffffffffff168373ffffffffffffffffffffffffffffffffffffffff16036107bc576040517f08c379a00000000000000000000000000000000000000000000000000000000081526004016107b390614a5d565b60405180910390fd5b8073ffffffffffffffffffffffffffffffffffffffff166107db612f94565b73ffffffffffffffffffffffffffffffffffffffff16148061080a575061080981610804612f94565b6127a4565b5b610849576040517f08c379a000000000000000000000000000000000000000000000000000000000815260040161084090614aeb565b60405180910390fd5b6108538383612f9b565b505050565b80600c8054905081106108a0576040517f08c379a000000000000000000000000000000000000000000000000000000000815260040161089790614b53565b60405180910390fd5b6001600f5f8481526020019081526020015f205f3373ffffffffffffffffffffffffffffffffffffffff1673ffffffffffffffffffffffffffffffffffffffff1681526020019081526020015f205f6101000a81548160ff0219169083151502179055505050565b82600c805490508110610950576040517f08c379a000000000000000000000000000000000000000000000000000000000815260040161094790614b53565b60405180910390fd5b82828080601f0160208091040260200160405190810160405280939291908181526020018383808284375f81840152601f19601f820116905080830192505050505050505f8151116109d7576040517f08c379a00000000000000000000000000000000000000000000000000000000081526004016109ce90614bbb565b60405180910390fd5b33600a426109e59190614c06565b60135f3373ffffffffffffffffffffffffffffffffffffffff1673ffffffffffffffffffffffffffffffffffffffff1681526020019081526020015f205410610a63576040517f08c379a0000000000000000000000000000000000000000000000000000000008152600401610a5a90614c83565b60405180910390fd5b60125f8781526020019081526020015f205f3373ffffffffffffffffffffffffffffffffffffffff1673ffffffffffffffffffffffffffffffffffffffff1681526020019081526020015f20604051806040016040528087878080601f0160208091040260200160405190810160405280939291908181526020018383808284375f81840152601f19601f8201169050808301925050505050505081526020013373ffffffffffffffffffffffffffffffffffffffff16815250908060018154018082558091505060019003905f5260205f2090600202015f909190919091505f820151815f019081610b569190614e3e565b506020820151816001015f6101000a81548173ffffffffffffffffffffffffffffffffffffffff021916908373ffffffffffffffffffffffffffffffffffffffff16021790555050504260135f3373ffffffffffffffffffffffffffffffffffffffff1673ffffffffffffffffffffffffffffffffffffffff1681526020019081526020015f20819055507fbfd6922fad2fc6dfcb1bf737a87580bdc38c8199bda4764006096c7ed70528168633604051610c12929190614f0d565b60405180910390a1505050505050565b610c33610c2d612f94565b82613051565b610c72576040517f08c379a0000000000000000000000000000000000000000000000000000000008152600401610c6990614fa4565b60405180910390fd5b610c7d8383836130e5565b505050565b84600c805490508110610cca576040517f08c379a0000000000000000000000000000000000000000000000000000000008152600401610cc190614b53565b60405180910390fd5b84848080601f0160208091040260200160405190810160405280939291908181526020018383808284375f81840152601f19601f820116905080830192505050505050505f815111610d51576040517f08c379a0000000000000000000000000000000000000000000000000000000008152600401610d4890614bbb565b60405180910390fd5b83838080601f0160208091040260200160405190810160405280939291908181526020018383808284375f81840152601f19601f820116905080830192505050505050505f815111610dd8576040517f08c379a0000000000000000000000000000000000000000000000000000000008152600401610dcf90614bbb565b60405180910390fd5b600e5f8981526020019081526020015f205f3373ffffffffffffffffffffffffffffffffffffffff1673ffffffffffffffffffffffffffffffffffffffff1681526020019081526020015f205f9054906101000a900460ff1615610e71576040517f08c379a0000000000000000000000000000000000000000000000000000000008152600401610e689061500c565b60405180910390fd5b5f600c8981548110610e8657610e8561502a565b5b905f5260205f209060050201604051806101000160405290815f8201548152602001600182018054610eb7906149bd565b80601f0160208091040260200160405190810160405280929190818152602001828054610ee3906149bd565b8015610f2e5780601f10610f0557610100808354040283529160200191610f2e565b820191905f5260205f20905b815481529060010190602001808311610f1157829003601f168201915b5050505050815260200160028201548152602001600382015f9054906101000a900460ff166005811115610f6557610f64614456565b5b6005811115610f7757610f76614456565b5b81526020016003820160019054906101000a900460ff1660ff1660ff1681526020016003820160029054906101000a900460ff1660ff1660ff1681526020016003820160039054906101000a900473ffffffffffffffffffffffffffffffffffffffff1673ffffffffffffffffffffffffffffffffffffffff1673ffffffffffffffffffffffffffffffffffffffff168152602001600482015f9054906101000a900473ffffffffffffffffffffffffffffffffffffffff1673ffffffffffffffffffffffffffffffffffffffff1673ffffffffffffffffffffffffffffffffffffffff1681525050905042816040015110156110a0576040517f2ee88f5000000000000000000000000000000000000000000000000000000000815260040160405180910390fd5b5f8160a0015160ff16036110e0576040517f106e2afe00000000000000000000000000000000000000000000000000000000815260040160405180910390fd5b604051806040016040528087878080601f0160208091040260200160405190810160405280939291908181526020018383808284375f81840152601f19601f82011690508083019250505050505050815260200189898080601f0160208091040260200160405190810160405280939291908181526020018383808284375f81840152601f19601f82011690508083019250505050505050815250600d5f3373ffffffffffffffffffffffffffffffffffffffff1673ffffffffffffffffffffffffffffffffffffffff1681526020019081526020015f205f820151815f0190816111cb9190614e3e565b5060208201518160010190816111e19190614e3e565b509050506001600e5f8b81526020019081526020015f205f3373ffffffffffffffffffffffffffffffffffffffff1673ffffffffffffffffffffffffffffffffffffffff1681526020019081526020015f205f6101000a81548160ff0219169083151502179055508060a001805161125890615057565b60ff16908160ff16815250508060a00151600c8a8154811061127d5761127c61502a565b5b905f5260205f20906005020160030160026101000a81548160ff021916908360ff160217905550505050505050505050565b6112b76133d1565b805f73ffffffffffffffffffffffffffffffffffffffff168173ffffffffffffffffffffffffffffffffffffffff1603611326576040517f08c379a000000000000000000000000000000000000000000000000000000000815260040161131d906150c8565b60405180910390fd5b600a5f8373ffffffffffffffffffffffffffffffffffffffff1673ffffffffffffffffffffffffffffffffffffffff1681526020019081526020015f205f9054906101000a900460ff16156113b0576040517f08c379a00000000000000000000000000000000000000000000000000000000081526004016113a79061500c565b60405180910390fd5b6001600a5f8473ffffffffffffffffffffffffffffffffffffffff1673ffffffffffffffffffffffffffffffffffffffff1681526020019081526020015f205f6101000a81548160ff0219169083151502179055507f3b4a40cccf2058c593542587329dd385be4f0b588db5471fbd9598e56dd7093a8260405161143491906141a5565b60405180910390a15050565b6011602052805f5260405f205f915090505481565b600f602052815f5260405f20602052805f5260405f205f915091509054906101000a900460ff1681565b61149983838360405180602001604052805f815250612638565b505050565b5f806114a98361344f565b90505f73ffffffffffffffffffffffffffffffffffffffff168173ffffffffffffffffffffffffffffffffffffffff1603611519576040517f08c379a000000000000000000000000000000000000000000000000000000000815260040161151090615130565b60405180910390fd5b80915050919050565b5f8073ffffffffffffffffffffffffffffffffffffffff168273ffffffffffffffffffffffffffffffffffffffff1603611591576040517f08c379a0000000000000000000000000000000000000000000000000000000008152600401611588906151be565b60405180910390fd5b60045f8373ffffffffffffffffffffffffffffffffffffffff1673ffffffffffffffffffffffffffffffffffffffff1681526020019081526020015f20549050919050565b6115de6133d1565b6115e75f613488565b565b600c81815481106115f8575f80fd5b905f5260205f2090600502015f91509050805f01549080600101805461161d906149bd565b80601f0160208091040260200160405190810160405280929190818152602001828054611649906149bd565b80156116945780601f1061166b57610100808354040283529160200191611694565b820191905f5260205f20905b81548152906001019060200180831161167757829003601f168201915b505050505090806002015490806003015f9054906101000a900460ff16908060030160019054906101000a900460ff16908060030160029054906101000a900460ff16908060030160039054906101000a900473ffffffffffffffffffffffffffffffffffffffff1690806004015f9054906101000a900473ffffffffffffffffffffffffffffffffffffffff16905088565b61172f6133d1565b82600c805490508110611777576040517f08c379a000000000000000000000000000000000000000000000000000000000815260040161176e90614b53565b60405180910390fd5b825f73ffffffffffffffffffffffffffffffffffffffff168173ffffffffffffffffffffffffffffffffffffffff16036117e6576040517f08c379a00000000000000000000000000000000000000000000000000000000081526004016117dd906150c8565b60405180910390fd5b825f73ffffffffffffffffffffffffffffffffffffffff168173ffffffffffffffffffffffffffffffffffffffff1603611855576040517f08c379a000000000000000000000000000000000000000000000000000000000815260040161184c906150c8565b60405180910390fd5b8373ffffffffffffffffffffffffffffffffffffffff168573ffffffffffffffffffffffffffffffffffffffff16036118c3576040517f08c379a00000000000000000000000000000000000000000000000000000000081526004016118ba90615226565b60405180910390fd5b600e5f8781526020019081526020015f205f8673ffffffffffffffffffffffffffffffffffffffff1673ffffffffffffffffffffffffffffffffffffffff1681526020019081526020015f205f9054906101000a900460ff16801561197d5750600e5f8781526020019081526020015f205f8573ffffffffffffffffffffffffffffffffffffffff1673ffffffffffffffffffffffffffffffffffffffff1681526020019081526020015f205f9054906101000a900460ff165b6119bc576040517f08c379a00000000000000000000000000000000000000000000000000000000081526004016119b39061528e565b60405180910390fd5b84600c87815481106119d1576119d061502a565b5b905f5260205f20906005020160030160036101000a81548173ffffffffffffffffffffffffffffffffffffffff021916908373ffffffffffffffffffffffffffffffffffffffff16021790555083600c8781548110611a3357611a3261502a565b5b905f5260205f2090600502016004015f6101000a81548173ffffffffffffffffffffffffffffffffffffffff021916908373ffffffffffffffffffffffffffffffffffffffff1602179055505f600c8781548110611a9457611a9361502a565b5b905f5260205f2090600502016001018054611aae906149bd565b80601f0160208091040260200160405190810160405280929190818152602001828054611ada906149bd565b8015611b255780601f10611afc57610100808354040283529160200191611b25565b820191905f5260205f20905b815481529060010190602001808311611b0857829003601f168201915b505050505090505f600d5f8873ffffffffffffffffffffffffffffffffffffffff1673ffffffffffffffffffffffffffffffffffffffff1681526020019081526020015f206040518060400160405290815f82018054611b84906149bd565b80601f0160208091040260200160405190810160405280929190818152602001828054611bb0906149bd565b8015611bfb5780601f10611bd257610100808354040283529160200191611bfb565b820191905f5260205f20905b815481529060010190602001808311611bde57829003601f168201915b50505050508152602001600182018054611c14906149bd565b80601f0160208091040260200160405190810160405280929190818152602001828054611c40906149bd565b8015611c8b5780601f10611c6257610100808354040283529160200191611c8b565b820191905f5260205f20905b815481529060010190602001808311611c6e57829003601f168201915b5050505050815250509050611caa8789848460200151855f0151613549565b600d5f8773ffffffffffffffffffffffffffffffffffffffff1673ffffffffffffffffffffffffffffffffffffffff1681526020019081526020015f206040518060400160405290815f82018054611d01906149bd565b80601f0160208091040260200160405190810160405280929190818152602001828054611d2d906149bd565b8015611d785780601f10611d4f57610100808354040283529160200191611d78565b820191905f5260205f20905b815481529060010190602001808311611d5b57829003601f168201915b50505050508152602001600182018054611d91906149bd565b80601f0160208091040260200160405190810160405280929190818152602001828054611dbd906149bd565b8015611e085780601f10611ddf57610100808354040283529160200191611e08565b820191905f5260205f20905b815481529060010190602001808311611deb57829003601f168201915b5050505050815250509050611e278689848460200151855f0151613549565b5050505050505050565b5f805f9054906101000a900473ffffffffffffffffffffffffffffffffffffffff16905090565b606060028054611e67906149bd565b80601f0160208091040260200160405190810160405280929190818152602001828054611e93906149bd565b8015611ede5780601f10611eb557610100808354040283529160200191611ede565b820191905f5260205f20905b815481529060010190602001808311611ec157829003601f168201915b5050505050905090565b600a5f3373ffffffffffffffffffffffffffffffffffffffff1673ffffffffffffffffffffffffffffffffffffffff1681526020019081526020015f205f9054906101000a900460ff16611f71576040517f08c379a0000000000000000000000000000000000000000000000000000000008152600401611f68906152f6565b60405180910390fd5b83600c805490508110611fb9576040517f08c379a0000000000000000000000000000000000000000000000000000000008152600401611fb090614b53565b60405180910390fd5b835f73ffffffffffffffffffffffffffffffffffffffff168173ffffffffffffffffffffffffffffffffffffffff1603612028576040517f08c379a000000000000000000000000000000000000000000000000000000000815260040161201f906150c8565b60405180910390fd5b83838080601f0160208091040260200160405190810160405280939291908181526020018383808284375f81840152601f19601f820116905080830192505050505050505f8151116120af576040517f08c379a00000000000000000000000000000000000000000000000000000000081526004016120a690614bbb565b60405180910390fd5b33600a426120bd9190614c06565b60135f3373ffffffffffffffffffffffffffffffffffffffff1673ffffffffffffffffffffffffffffffffffffffff1681526020019081526020015f20541061213b576040517f08c379a000000000000000000000000000000000000000000000000000000000815260040161213290614c83565b60405180910390fd5b60125f8981526020019081526020015f205f8873ffffffffffffffffffffffffffffffffffffffff1673ffffffffffffffffffffffffffffffffffffffff1681526020019081526020015f20604051806040016040528088888080601f0160208091040260200160405190810160405280939291908181526020018383808284375f81840152601f19601f8201169050808301925050505050505081526020013373ffffffffffffffffffffffffffffffffffffffff16815250908060018154018082558091505060019003905f5260205f2090600202015f909190919091505f820151815f01908161222e9190614e3e565b506020820151816001015f6101000a81548173ffffffffffffffffffffffffffffffffffffffff021916908373ffffffffffffffffffffffffffffffffffffffff16021790555050504260135f3373ffffffffffffffffffffffffffffffffffffffff1673ffffffffffffffffffffffffffffffffffffffff1681526020019081526020015f20819055507f6c273d133e6c6367d40972f8ef51fc71789ea8bc667e662342cbecab4f46218c88886040516122ea929190614f0d565b60405180910390a15050505050505050565b600e602052815f5260405f20602052805f5260405f205f915091509054906101000a900460ff1681565b612338612331612f94565b8383613613565b5050565b82600c805490508110612384576040517f08c379a000000000000000000000000000000000000000000000000000000000815260040161237b90614b53565b60405180910390fd5b82828080601f0160208091040260200160405190810160405280939291908181526020018383808284375f81840152601f19601f820116905080830192505050505050505f81511161240b576040517f08c379a000000000000000000000000000000000000000000000000000000000815260040161240290614bbb565b60405180910390fd5b33600a426124199190614c06565b60135f3373ffffffffffffffffffffffffffffffffffffffff1673ffffffffffffffffffffffffffffffffffffffff1681526020019081526020015f205410612497576040517f08c379a000000000000000000000000000000000000000000000000000000000815260040161248e90614c83565b60405180910390fd5b604051806040016040528086868080601f0160208091040260200160405190810160405280939291908181526020018383808284375f81840152601f19601f8201169050808301925050505050505081526020013373ffffffffffffffffffffffffffffffffffffffff1681525060105f8881526020019081526020015f205f60115f8a81526020019081526020015f205481526020019081526020015f205f820151815f0190816125499190614e3e565b506020820151816001015f6101000a81548173ffffffffffffffffffffffffffffffffffffffff021916908373ffffffffffffffffffffffffffffffffffffffff16021790555090505060115f8781526020019081526020015f205f81546125b090615314565b919050819055504260135f3373ffffffffffffffffffffffffffffffffffffffff1673ffffffffffffffffffffffffffffffffffffffff1681526020019081526020015f20819055507f3021694d1ef819d2b9bc13c595d4f75437b6bbbb2dd33e9f2a9df24534f6b5598660405161262891906143ff565b60405180910390a1505050505050565b612649612643612f94565b83613051565b612688576040517f08c379a000000000000000000000000000000000000000000000000000000000815260040161267f90614fa4565b60405180910390fd5b6126948484848461377a565b50505050565b60606126a582612f49565b5f60075f8481526020019081526020015f2080546126c2906149bd565b80601f01602080910402602001604051908101604052809291908181526020018280546126ee906149bd565b80156127395780601f1061271057610100808354040283529160200191612739565b820191905f5260205f20905b81548152906001019060200180831161271c57829003601f168201915b505050505090505f6127496137d6565b90505f81510361275d57819250505061279f565b5f82511115612791578082604051602001612779929190615395565b6040516020818303038152906040529250505061279f565b61279a846137ec565b925050505b919050565b5f60065f8473ffffffffffffffffffffffffffffffffffffffff1673ffffffffffffffffffffffffffffffffffffffff1681526020019081526020015f205f8373ffffffffffffffffffffffffffffffffffffffff1673ffffffffffffffffffffffffffffffffffffffff1681526020019081526020015f205f9054906101000a900460ff16905092915050565b61283a6133d1565b5f73ffffffffffffffffffffffffffffffffffffffff168173ffffffffffffffffffffffffffffffffffffffff16036128a8576040517f08c379a000000000000000000000000000000000000000000000000000000000815260040161289f90615428565b60405180910390fd5b6128b181613488565b50565b600a5f3373ffffffffffffffffffffffffffffffffffffffff1673ffffffffffffffffffffffffffffffffffffffff1681526020019081526020015f205f9054906101000a900460ff1661293d576040517f08c379a0000000000000000000000000000000000000000000000000000000008152600401612934906152f6565b60405180910390fd5b84848080601f0160208091040260200160405190810160405280939291908181526020018383808284375f81840152601f19601f820116905080830192505050505050505f8151116129c4576040517f08c379a00000000000000000000000000000000000000000000000000000000081526004016129bb90614bbb565b60405180910390fd5b428411612a06576040517f08c379a00000000000000000000000000000000000000000000000000000000081526004016129fd90615490565b60405180910390fd5b5f8260ff16118015612a2657505f600283612a2191906154db565b60ff16145b612a65576040517f08c379a0000000000000000000000000000000000000000000000000000000008152600401612a5c90615555565b60405180910390fd5b600580811115612a7857612a77614456565b5b8360ff161115612abd576040517f08c379a0000000000000000000000000000000000000000000000000000000008152600401612ab4906155bd565b60405180910390fd5b5f600c805490509050600c60405180610100016040528083815260200189898080601f0160208091040260200160405190810160405280939291908181526020018383808284375f81840152601f19601f8201169050808301925050505050505081526020018781526020018660ff166005811115612b3f57612b3e614456565b5b6005811115612b5157612b50614456565b5b81526020018560ff1681526020018560ff1681526020015f73ffffffffffffffffffffffffffffffffffffffff1681526020015f73ffffffffffffffffffffffffffffffffffffffff16815250908060018154018082558091505060019003905f5260205f2090600502015f909190919091505f820151815f01556020820151816001019081612be19190614e3e565b50604082015181600201556060820151816003015f6101000a81548160ff02191690836005811115612c1657612c15614456565b5b021790555060808201518160030160016101000a81548160ff021916908360ff16021790555060a08201518160030160026101000a81548160ff021916908360ff16021790555060c08201518160030160036101000a81548173ffffffffffffffffffffffffffffffffffffffff021916908373ffffffffffffffffffffffffffffffffffffffff16021790555060e0820151816004015f6101000a81548173ffffffffffffffffffffffffffffffffffffffff021916908373ffffffffffffffffffffffffffffffffffffffff160217905550505033600b5f8381526020019081526020015f205f6101000a81548173ffffffffffffffffffffffffffffffffffffffff021916908373ffffffffffffffffffffffffffffffffffffffff1602179055507f113d32d0b7aec15a8c7f50af4cb42f4695e5b95524ed69519ac88d6c1f1f40f681604051612d6a91906143ff565b60405180910390a150505050505050565b6010602052815f5260405f20602052805f5260405f205f9150915050805f018054612da5906149bd565b80601f0160208091040260200160405190810160405280929190818152602001828054612dd1906149bd565b8015612e1c5780601f10612df357610100808354040283529160200191612e1c565b820191905f5260205f20905b815481529060010190602001808311612dff57829003601f168201915b505050505090806001015f9054906101000a900473ffffffffffffffffffffffffffffffffffffffff16905082565b600a602052805f5260405f205f915054906101000a900460ff1681565b5f7f80ac58cd000000000000000000000000000000000000000000000000000000007bffffffffffffffffffffffffffffffffffffffffffffffffffffffff1916827bffffffffffffffffffffffffffffffffffffffffffffffffffffffff19161480612f3257507f5b5e139f000000000000000000000000000000000000000000000000000000007bffffffffffffffffffffffffffffffffffffffffffffffffffffffff1916827bffffffffffffffffffffffffffffffffffffffffffffffffffffffff1916145b80612f425750612f4182613851565b5b9050919050565b612f52816138ba565b612f91576040517f08c379a0000000000000000000000000000000000000000000000000000000008152600401612f8890615130565b60405180910390fd5b50565b5f33905090565b8160055f8381526020019081526020015f205f6101000a81548173ffffffffffffffffffffffffffffffffffffffff021916908373ffffffffffffffffffffffffffffffffffffffff160217905550808273ffffffffffffffffffffffffffffffffffffffff1661300b8361149e565b73ffffffffffffffffffffffffffffffffffffffff167f8c5be1e5ebec7d5bd14f71427d1e84f3dd0314c0f7b2291e5b200ac8c7c3b92560405160405180910390a45050565b5f8061305c8361149e565b90508073ffffffffffffffffffffffffffffffffffffffff168473ffffffffffffffffffffffffffffffffffffffff16148061309e575061309d81856127a4565b5b806130dc57508373ffffffffffffffffffffffffffffffffffffffff166130c484610700565b73ffffffffffffffffffffffffffffffffffffffff16145b91505092915050565b8273ffffffffffffffffffffffffffffffffffffffff166131058261149e565b73ffffffffffffffffffffffffffffffffffffffff161461315b576040517f08c379a00000000000000000000000000000000000000000000000000000000081526004016131529061564b565b60405180910390fd5b5f73ffffffffffffffffffffffffffffffffffffffff168273ffffffffffffffffffffffffffffffffffffffff16036131c9576040517f08c379a00000000000000000000000000000000000000000000000000000000081526004016131c0906156d9565b60405180910390fd5b6131d683838360016138fa565b8273ffffffffffffffffffffffffffffffffffffffff166131f68261149e565b73ffffffffffffffffffffffffffffffffffffffff161461324c576040517f08c379a00000000000000000000000000000000000000000000000000000000081526004016132439061564b565b60405180910390fd5b60055f8281526020019081526020015f205f6101000a81549073ffffffffffffffffffffffffffffffffffffffff0219169055600160045f8573ffffffffffffffffffffffffffffffffffffffff1673ffffffffffffffffffffffffffffffffffffffff1681526020019081526020015f205f8282540392505081905550600160045f8473ffffffffffffffffffffffffffffffffffffffff1673ffffffffffffffffffffffffffffffffffffffff1681526020019081526020015f205f82825401925050819055508160035f8381526020019081526020015f205f6101000a81548173ffffffffffffffffffffffffffffffffffffffff021916908373ffffffffffffffffffffffffffffffffffffffff160217905550808273ffffffffffffffffffffffffffffffffffffffff168473ffffffffffffffffffffffffffffffffffffffff167fddf252ad1be2c89b69c2b068fc378daa952ba7f163c4a11628f55a4df523b3ef60405160405180910390a46133cc8383836001613900565b505050565b6133d9612f94565b73ffffffffffffffffffffffffffffffffffffffff166133f7611e31565b73ffffffffffffffffffffffffffffffffffffffff161461344d576040517f08c379a000000000000000000000000000000000000000000000000000000000815260040161344490615741565b60405180910390fd5b565b5f60035f8381526020019081526020015f205f9054906101000a900473ffffffffffffffffffffffffffffffffffffffff169050919050565b5f805f9054906101000a900473ffffffffffffffffffffffffffffffffffffffff169050815f806101000a81548173ffffffffffffffffffffffffffffffffffffffff021916908373ffffffffffffffffffffffffffffffffffffffff1602179055508173ffffffffffffffffffffffffffffffffffffffff168173ffffffffffffffffffffffffffffffffffffffff167f8be0079c531659141344cd1fd0a4f28419497f9722a3daafe3b4186f6b6457e060405160405180910390a35050565b6135536008613906565b5f61355e600861391a565b905060405180608001604052808681526020018581526020018481526020018381525060095f8381526020019081526020015f205f820151815f015560208201518160010190816135af9190614e3e565b5060408201518160020190816135c59190614e3e565b5060608201518160030190816135db9190614e3e565b509050506135e98682613926565b61360b81604051806080016040528060508152602001615a8f60509139613b39565b505050505050565b8173ffffffffffffffffffffffffffffffffffffffff168373ffffffffffffffffffffffffffffffffffffffff1603613681576040517f08c379a0000000000000000000000000000000000000000000000000000000008152600401613678906157a9565b60405180910390fd5b8060065f8573ffffffffffffffffffffffffffffffffffffffff1673ffffffffffffffffffffffffffffffffffffffff1681526020019081526020015f205f8473ffffffffffffffffffffffffffffffffffffffff1673ffffffffffffffffffffffffffffffffffffffff1681526020019081526020015f205f6101000a81548160ff0219169083151502179055508173ffffffffffffffffffffffffffffffffffffffff168373ffffffffffffffffffffffffffffffffffffffff167f17307eab39ab6107e8899845ad3d59bd9653f200f220920489ca2b5937696c318360405161376d9190614045565b60405180910390a3505050565b6137858484846130e5565b61379184848484613bdb565b6137d0576040517f08c379a00000000000000000000000000000000000000000000000000000000081526004016137c790615837565b60405180910390fd5b50505050565b606060405180602001604052805f815250905090565b60606137f782612f49565b5f6138006137d6565b90505f81511161381e5760405180602001604052805f815250613849565b8061382884613d5d565b604051602001613839929190615395565b6040516020818303038152906040525b915050919050565b5f7f01ffc9a7000000000000000000000000000000000000000000000000000000007bffffffffffffffffffffffffffffffffffffffffffffffffffffffff1916827bffffffffffffffffffffffffffffffffffffffffffffffffffffffff1916149050919050565b5f8073ffffffffffffffffffffffffffffffffffffffff166138db8361344f565b73ffffffffffffffffffffffffffffffffffffffff1614159050919050565b50505050565b50505050565b6001815f015f828254019250508190555050565b5f815f01549050919050565b5f73ffffffffffffffffffffffffffffffffffffffff168273ffffffffffffffffffffffffffffffffffffffff1603613994576040517f08c379a000000000000000000000000000000000000000000000000000000000815260040161398b9061589f565b60405180910390fd5b61399d816138ba565b156139dd576040517f08c379a00000000000000000000000000000000000000000000000000000000081526004016139d490615907565b60405180910390fd5b6139ea5f838360016138fa565b6139f3816138ba565b15613a33576040517f08c379a0000000000000000000000000000000000000000000000000000000008152600401613a2a90615907565b60405180910390fd5b600160045f8473ffffffffffffffffffffffffffffffffffffffff1673ffffffffffffffffffffffffffffffffffffffff1681526020019081526020015f205f82825401925050819055508160035f8381526020019081526020015f205f6101000a81548173ffffffffffffffffffffffffffffffffffffffff021916908373ffffffffffffffffffffffffffffffffffffffff160217905550808273ffffffffffffffffffffffffffffffffffffffff165f73ffffffffffffffffffffffffffffffffffffffff167fddf252ad1be2c89b69c2b068fc378daa952ba7f163c4a11628f55a4df523b3ef60405160405180910390a4613b355f83836001613900565b5050565b613b42826138ba565b613b81576040517f08c379a0000000000000000000000000000000000000000000000000000000008152600401613b7890615995565b60405180910390fd5b8060075f8481526020019081526020015f209081613b9f9190614e3e565b507ff8e1a15aba9398e019f0b49df1a4fde98ee17ae345cb5f6b5e2c27f5033e8ce782604051613bcf91906143ff565b60405180910390a15050565b5f613bfb8473ffffffffffffffffffffffffffffffffffffffff16613e27565b15613d50578373ffffffffffffffffffffffffffffffffffffffff1663150b7a02613c24612f94565b8786866040518563ffffffff1660e01b8152600401613c469493929190615a05565b6020604051808303815f875af1925050508015613c8157506040513d601f19601f82011682018060405250810190613c7e9190615a63565b60015b613d00573d805f8114613caf576040519150601f19603f3d011682016040523d82523d5f602084013e613cb4565b606091505b505f815103613cf8576040517f08c379a0000000000000000000000000000000000000000000000000000000008152600401613cef90615837565b60405180910390fd5b805181602001fd5b63150b7a0260e01b7bffffffffffffffffffffffffffffffffffffffffffffffffffffffff1916817bffffffffffffffffffffffffffffffffffffffffffffffffffffffff191614915050613d55565b600190505b949350505050565b60605f6001613d6b84613e49565b0190505f8167ffffffffffffffff811115613d8957613d88614694565b5b6040519080825280601f01601f191660200182016040528015613dbb5781602001600182028036833780820191505090505b5090505f82602001820190505b600115613e1c578080600190039150507f3031323334353637383961626364656600000000000000000000000000000000600a86061a8153600a8581613e1157613e106154ae565b5b0494505f8503613dc8575b819350505050919050565b5f808273ffffffffffffffffffffffffffffffffffffffff163b119050919050565b5f805f90507a184f03e93ff9f4daa797ed6e38ed64bf6a1f0100000000000000008310613ea5577a184f03e93ff9f4daa797ed6e38ed64bf6a1f0100000000000000008381613e9b57613e9a6154ae565b5b0492506040810190505b6d04ee2d6d415b85acef81000000008310613ee2576d04ee2d6d415b85acef81000000008381613ed857613ed76154ae565b5b0492506020810190505b662386f26fc100008310613f1157662386f26fc100008381613f0757613f066154ae565b5b0492506010810190505b6305f5e1008310613f3a576305f5e1008381613f3057613f2f6154ae565b5b0492506008810190505b6127108310613f5f576127108381613f5557613f546154ae565b5b0492506004810190505b60648310613f825760648381613f7857613f776154ae565b5b0492506002810190505b600a8310613f91576001810190505b80915050919050565b5f604051905090565b5f80fd5b5f80fd5b5f7fffffffff0000000000000000000000000000000000000000000000000000000082169050919050565b613fdf81613fab565b8114613fe9575f80fd5b50565b5f81359050613ffa81613fd6565b92915050565b5f6020828403121561401557614014613fa3565b5b5f61402284828501613fec565b91505092915050565b5f8115159050919050565b61403f8161402b565b82525050565b5f6020820190506140585f830184614036565b92915050565b5f81519050919050565b5f82825260208201905092915050565b5f5b8381101561409557808201518184015260208101905061407a565b5f8484015250505050565b5f601f19601f8301169050919050565b5f6140ba8261405e565b6140c48185614068565b93506140d4818560208601614078565b6140dd816140a0565b840191505092915050565b5f6020820190508181035f83015261410081846140b0565b905092915050565b5f819050919050565b61411a81614108565b8114614124575f80fd5b50565b5f8135905061413581614111565b92915050565b5f602082840312156141505761414f613fa3565b5b5f61415d84828501614127565b91505092915050565b5f73ffffffffffffffffffffffffffffffffffffffff82169050919050565b5f61418f82614166565b9050919050565b61419f81614185565b82525050565b5f6020820190506141b85f830184614196565b92915050565b6141c781614185565b81146141d1575f80fd5b50565b5f813590506141e2816141be565b92915050565b5f80604083850312156141fe576141fd613fa3565b5b5f61420b858286016141d4565b925050602061421c85828601614127565b9150509250929050565b5f80fd5b5f80fd5b5f80fd5b5f8083601f84011261424757614246614226565b5b8235905067ffffffffffffffff8111156142645761426361422a565b5b6020830191508360018202830111156142805761427f61422e565b5b9250929050565b5f805f6040848603121561429e5761429d613fa3565b5b5f6142ab86828701614127565b935050602084013567ffffffffffffffff8111156142cc576142cb613fa7565b5b6142d886828701614232565b92509250509250925092565b5f805f606084860312156142fb576142fa613fa3565b5b5f614308868287016141d4565b9350506020614319868287016141d4565b925050604061432a86828701614127565b9150509250925092565b5f805f805f6060868803121561434d5761434c613fa3565b5b5f61435a88828901614127565b955050602086013567ffffffffffffffff81111561437b5761437a613fa7565b5b61438788828901614232565b9450945050604086013567ffffffffffffffff8111156143aa576143a9613fa7565b5b6143b688828901614232565b92509250509295509295909350565b5f602082840312156143da576143d9613fa3565b5b5f6143e7848285016141d4565b91505092915050565b6143f981614108565b82525050565b5f6020820190506144125f8301846143f0565b92915050565b5f806040838503121561442e5761442d613fa3565b5b5f61443b85828601614127565b925050602061444c858286016141d4565b9150509250929050565b7f4e487b71000000000000000000000000000000000000000000000000000000005f52602160045260245ffd5b6006811061449457614493614456565b5b50565b5f8190506144a482614483565b919050565b5f6144b382614497565b9050919050565b6144c3816144a9565b82525050565b5f60ff82169050919050565b6144de816144c9565b82525050565b5f610100820190506144f85f83018b6143f0565b818103602083015261450a818a6140b0565b905061451960408301896143f0565b61452660608301886144ba565b61453360808301876144d5565b61454060a08301866144d5565b61454d60c0830185614196565b61455a60e0830184614196565b9998505050505050505050565b5f805f6060848603121561457e5761457d613fa3565b5b5f61458b86828701614127565b935050602061459c868287016141d4565b92505060406145ad868287016141d4565b9150509250925092565b5f805f80606085870312156145cf576145ce613fa3565b5b5f6145dc87828801614127565b94505060206145ed878288016141d4565b935050604085013567ffffffffffffffff81111561460e5761460d613fa7565b5b61461a87828801614232565b925092505092959194509250565b6146318161402b565b811461463b575f80fd5b50565b5f8135905061464c81614628565b92915050565b5f806040838503121561466857614667613fa3565b5b5f614675858286016141d4565b92505060206146868582860161463e565b9150509250929050565b5f80fd5b7f4e487b71000000000000000000000000000000000000000000000000000000005f52604160045260245ffd5b6146ca826140a0565b810181811067ffffffffffffffff821117156146e9576146e8614694565b5b80604052505050565b5f6146fb613f9a565b905061470782826146c1565b919050565b5f67ffffffffffffffff82111561472657614725614694565b5b61472f826140a0565b9050602081019050919050565b828183375f83830152505050565b5f61475c6147578461470c565b6146f2565b90508281526020810184848401111561477857614777614690565b5b61478384828561473c565b509392505050565b5f82601f83011261479f5761479e614226565b5b81356147af84826020860161474a565b91505092915050565b5f805f80608085870312156147d0576147cf613fa3565b5b5f6147dd878288016141d4565b94505060206147ee878288016141d4565b93505060406147ff87828801614127565b925050606085013567ffffffffffffffff8111156148205761481f613fa7565b5b61482c8782880161478b565b91505092959194509250565b5f806040838503121561484e5761484d613fa3565b5b5f61485b858286016141d4565b925050602061486c858286016141d4565b9150509250929050565b61487f816144c9565b8114614889575f80fd5b50565b5f8135905061489a81614876565b92915050565b5f805f805f608086880312156148b9576148b8613fa3565b5b5f86013567ffffffffffffffff8111156148d6576148d5613fa7565b5b6148e288828901614232565b955095505060206148f588828901614127565b93505060406149068882890161488c565b92505060606149178882890161488c565b9150509295509295909350565b5f806040838503121561493a57614939613fa3565b5b5f61494785828601614127565b925050602061495885828601614127565b9150509250929050565b5f6040820190508181035f83015261497a81856140b0565b90506149896020830184614196565b9392505050565b7f4e487b71000000000000000000000000000000000000000000000000000000005f52602260045260245ffd5b5f60028204905060018216806149d457607f821691505b6020821081036149e7576149e6614990565b5b50919050565b7f4552433732313a20617070726f76616c20746f2063757272656e74206f776e655f8201527f7200000000000000000000000000000000000000000000000000000000000000602082015250565b5f614a47602183614068565b9150614a52826149ed565b604082019050919050565b5f6020820190508181035f830152614a7481614a3b565b9050919050565b7f4552433732313a20617070726f76652063616c6c6572206973206e6f7420746f5f8201527f6b656e206f776e6572206f7220617070726f76656420666f7220616c6c000000602082015250565b5f614ad5603d83614068565b9150614ae082614a7b565b604082019050919050565b5f6020820190508181035f830152614b0281614ac9565b9050919050565b7f57726f6e672069642073656e74000000000000000000000000000000000000005f82015250565b5f614b3d600d83614068565b9150614b4882614b09565b602082019050919050565b5f6020820190508181035f830152614b6a81614b31565b9050919050565b7f43616e6e6f7420626520656d70747900000000000000000000000000000000005f82015250565b5f614ba5600f83614068565b9150614bb082614b71565b602082019050919050565b5f6020820190508181035f830152614bd281614b99565b9050919050565b7f4e487b71000000000000000000000000000000000000000000000000000000005f52601160045260245ffd5b5f614c1082614108565b9150614c1b83614108565b9250828203905081811115614c3357614c32614bd9565b5b92915050565b7f57616974203130730000000000000000000000000000000000000000000000005f82015250565b5f614c6d600883614068565b9150614c7882614c39565b602082019050919050565b5f6020820190508181035f830152614c9a81614c61565b9050919050565b5f819050815f5260205f209050919050565b5f6020601f8301049050919050565b5f82821b905092915050565b5f60088302614cfd7fffffffffffffffffffffffffffffffffffffffffffffffffffffffffffffffff82614cc2565b614d078683614cc2565b95508019841693508086168417925050509392505050565b5f819050919050565b5f614d42614d3d614d3884614108565b614d1f565b614108565b9050919050565b5f819050919050565b614d5b83614d28565b614d6f614d6782614d49565b848454614cce565b825550505050565b5f90565b614d83614d77565b614d8e818484614d52565b505050565b5b81811015614db157614da65f82614d7b565b600181019050614d94565b5050565b601f821115614df657614dc781614ca1565b614dd084614cb3565b81016020851015614ddf578190505b614df3614deb85614cb3565b830182614d93565b50505b505050565b5f82821c905092915050565b5f614e165f1984600802614dfb565b1980831691505092915050565b5f614e2e8383614e07565b9150826002028217905092915050565b614e478261405e565b67ffffffffffffffff811115614e6057614e5f614694565b5b614e6a82546149bd565b614e75828285614db5565b5f60209050601f831160018114614ea6575f8415614e94578287015190505b614e9e8582614e23565b865550614f05565b601f198416614eb486614ca1565b5f5b82811015614edb57848901518255600182019150602085019450602081019050614eb6565b86831015614ef85784890151614ef4601f891682614e07565b8355505b6001600288020188555050505b505050505050565b5f604082019050614f205f8301856143f0565b614f2d6020830184614196565b9392505050565b7f4552433732313a2063616c6c6572206973206e6f7420746f6b656e206f776e655f8201527f72206f7220617070726f76656400000000000000000000000000000000000000602082015250565b5f614f8e602d83614068565b9150614f9982614f34565b604082019050919050565b5f6020820190508181035f830152614fbb81614f82565b9050919050565b7f416c7265616479207265676973746572656400000000000000000000000000005f82015250565b5f614ff6601283614068565b915061500182614fc2565b602082019050919050565b5f6020820190508181035f83015261502381614fea565b9050919050565b7f4e487b71000000000000000000000000000000000000000000000000000000005f52603260045260245ffd5b5f615061826144c9565b91505f820361507357615072614bd9565b5b600182039050919050565b7f43616e6e6f7420626520746865207a65726f20616464726573730000000000005f82015250565b5f6150b2601a83614068565b91506150bd8261507e565b602082019050919050565b5f6020820190508181035f8301526150df816150a6565b9050919050565b7f4552433732313a20696e76616c696420746f6b656e20494400000000000000005f82015250565b5f61511a601883614068565b9150615125826150e6565b602082019050919050565b5f6020820190508181035f8301526151478161510e565b9050919050565b7f4552433732313a2061646472657373207a65726f206973206e6f7420612076615f8201527f6c6964206f776e65720000000000000000000000000000000000000000000000602082015250565b5f6151a8602983614068565b91506151b38261514e565b604082019050919050565b5f6020820190508181035f8301526151d58161519c565b9050919050565b7f53616d65206164647265737300000000000000000000000000000000000000005f82015250565b5f615210600c83614068565b915061521b826151dc565b602082019050919050565b5f6020820190508181035f83015261523d81615204565b9050919050565b7f4e6f7420726567697374657265640000000000000000000000000000000000005f82015250565b5f615278600e83614068565b915061528382615244565b602082019050919050565b5f6020820190508181035f8301526152a58161526c565b9050919050565b7f466f7262696464656e00000000000000000000000000000000000000000000005f82015250565b5f6152e0600983614068565b91506152eb826152ac565b602082019050919050565b5f6020820190508181035f83015261530d816152d4565b9050919050565b5f61531e82614108565b91507fffffffffffffffffffffffffffffffffffffffffffffffffffffffffffffffff82036153505761534f614bd9565b5b600182019050919050565b5f81905092915050565b5f61536f8261405e565b615379818561535b565b9350615389818560208601614078565b80840191505092915050565b5f6153a08285615365565b91506153ac8284615365565b91508190509392505050565b7f4f776e61626c653a206e6577206f776e657220697320746865207a65726f20615f8201527f6464726573730000000000000000000000000000000000000000000000000000602082015250565b5f615412602683614068565b915061541d826153b8565b604082019050919050565b5f6020820190508181035f83015261543f81615406565b9050919050565b7f496e636f727265637420646174650000000000000000000000000000000000005f82015250565b5f61547a600e83614068565b915061548582615446565b602082019050919050565b5f6020820190508181035f8301526154a78161546e565b9050919050565b7f4e487b71000000000000000000000000000000000000000000000000000000005f52601260045260245ffd5b5f6154e5826144c9565b91506154f0836144c9565b925082615500576154ff6154ae565b5b828206905092915050565b7f506c6179656420627920320000000000000000000000000000000000000000005f82015250565b5f61553f600b83614068565b915061554a8261550b565b602082019050919050565b5f6020820190508181035f83015261556c81615533565b9050919050565b7f496e636f727265637420646966666963756c74790000000000000000000000005f82015250565b5f6155a7601483614068565b91506155b282615573565b602082019050919050565b5f6020820190508181035f8301526155d48161559b565b9050919050565b7f4552433732313a207472616e736665722066726f6d20696e636f7272656374205f8201527f6f776e6572000000000000000000000000000000000000000000000000000000602082015250565b5f615635602583614068565b9150615640826155db565b604082019050919050565b5f6020820190508181035f83015261566281615629565b9050919050565b7f4552433732313a207472616e7366657220746f20746865207a65726f206164645f8201527f7265737300000000000000000000000000000000000000000000000000000000602082015250565b5f6156c3602483614068565b91506156ce82615669565b604082019050919050565b5f6020820190508181035f8301526156f0816156b7565b9050919050565b7f4f776e61626c653a2063616c6c6572206973206e6f7420746865206f776e65725f82015250565b5f61572b602083614068565b9150615736826156f7565b602082019050919050565b5f6020820190508181035f8301526157588161571f565b9050919050565b7f4552433732313a20617070726f766520746f2063616c6c6572000000000000005f82015250565b5f615793601983614068565b915061579e8261575f565b602082019050919050565b5f6020820190508181035f8301526157c081615787565b9050919050565b7f4552433732313a207472616e7366657220746f206e6f6e2045524337323152655f8201527f63656976657220696d706c656d656e7465720000000000000000000000000000602082015250565b5f615821603283614068565b915061582c826157c7565b604082019050919050565b5f6020820190508181035f83015261584e81615815565b9050919050565b7f4552433732313a206d696e7420746f20746865207a65726f20616464726573735f82015250565b5f615889602083614068565b915061589482615855565b602082019050919050565b5f6020820190508181035f8301526158b68161587d565b9050919050565b7f4552433732313a20746f6b656e20616c7265616479206d696e746564000000005f82015250565b5f6158f1601c83614068565b91506158fc826158bd565b602082019050919050565b5f6020820190508181035f83015261591e816158e5565b9050919050565b7f45524337323155524953746f726167653a2055524920736574206f66206e6f6e5f8201527f6578697374656e7420746f6b656e000000000000000000000000000000000000602082015250565b5f61597f602e83614068565b915061598a82615925565b604082019050919050565b5f6020820190508181035f8301526159ac81615973565b9050919050565b5f81519050919050565b5f82825260208201905092915050565b5f6159d7826159b3565b6159e181856159bd565b93506159f1818560208601614078565b6159fa816140a0565b840191505092915050565b5f608082019050615a185f830187614196565b615a256020830186614196565b615a3260408301856143f0565b8181036060830152615a4481846159cd565b905095945050505050565b5f81519050615a5d81613fd6565b92915050565b5f60208284031215615a7857615a77613fa3565b5b5f615a8584828501615a4f565b9150509291505056fe68747470733a2f2f676174657761792e70696e6174612e636c6f75642f697066732f516d657834754e376e6b586654365974325a71686d74636d5a4e6b536f44574a37534a56714a694d6156317a3479a26469706673582212201b5e6996062d90ff873cfcec6bfb71aaead9253d3ee792b7f3c12ea27ad9a82364736f6c63430008140033",
  "linkReferences": {},
  "deployedLinkReferences": {}
}