{
  "_format": "hh-sol-artifact-1",
  "contractName": "PadelConnect",
  "sourceName": "contracts/PadelConnect.sol",
  "abi": [
    {
      "inputs": [],
      "name": "CompleteTournament",
      "type": "error"
    },
    {
      "inputs": [],
      "name": "ErrorDuringPayment",
      "type": "error"
    },
    {
      "inputs": [],
      "name": "RegistrationEnded",
      "type": "error"
    },
    {
      "anonymous": false,
      "inputs": [
        {
          "indexed": true,
          "internalType": "address",
          "name": "owner",
          "type": "address"
        },
        {
          "indexed": true,
          "internalType": "address",
          "name": "approved",
          "type": "address"
        },
        {
          "indexed": true,
          "internalType": "uint256",
          "name": "tokenId",
          "type": "uint256"
        }
      ],
      "name": "Approval",
      "type": "event"
    },
    {
      "anonymous": false,
      "inputs": [
        {
          "indexed": true,
          "internalType": "address",
          "name": "owner",
          "type": "address"
        },
        {
          "indexed": true,
          "internalType": "address",
          "name": "operator",
          "type": "address"
        },
        {
          "indexed": false,
          "internalType": "bool",
          "name": "approved",
          "type": "bool"
        }
      ],
      "name": "ApprovalForAll",
      "type": "event"
    },
    {
      "anonymous": false,
      "inputs": [
        {
          "indexed": false,
          "internalType": "uint256",
          "name": "_fromTokenId",
          "type": "uint256"
        },
        {
          "indexed": false,
          "internalType": "uint256",
          "name": "_toTokenId",
          "type": "uint256"
        }
      ],
      "name": "BatchMetadataUpdate",
      "type": "event"
    },
    {
      "anonymous": false,
      "inputs": [
        {
          "indexed": false,
          "internalType": "address",
          "name": "_address",
          "type": "address"
        }
      ],
      "name": "ManagerAdded",
      "type": "event"
    },
    {
      "anonymous": false,
      "inputs": [
        {
          "indexed": false,
          "internalType": "uint256",
          "name": "_tokenId",
          "type": "uint256"
        }
      ],
      "name": "MetadataUpdate",
      "type": "event"
    },
    {
      "anonymous": false,
      "inputs": [
        {
          "indexed": true,
          "internalType": "address",
          "name": "previousOwner",
          "type": "address"
        },
        {
          "indexed": true,
          "internalType": "address",
          "name": "newOwner",
          "type": "address"
        }
      ],
      "name": "OwnershipTransferred",
      "type": "event"
    },
    {
      "anonymous": false,
      "inputs": [
        {
          "indexed": false,
          "internalType": "uint256",
          "name": "tournamentId",
          "type": "uint256"
        },
        {
          "indexed": false,
          "internalType": "address",
          "name": "player",
          "type": "address"
        }
      ],
      "name": "PrivateCommentAdded",
      "type": "event"
    },
    {
      "anonymous": false,
      "inputs": [
        {
          "indexed": false,
          "internalType": "uint256",
          "name": "tournamentId",
          "type": "uint256"
        },
        {
          "indexed": false,
          "internalType": "address",
          "name": "player",
          "type": "address"
        }
      ],
      "name": "PrivateResponseAdded",
      "type": "event"
    },
    {
      "anonymous": false,
      "inputs": [
        {
          "indexed": false,
          "internalType": "uint256",
          "name": "tournamentId",
          "type": "uint256"
        }
      ],
      "name": "TournamentCommentAdded",
      "type": "event"
    },
    {
      "anonymous": false,
      "inputs": [
        {
          "indexed": false,
          "internalType": "string",
          "name": "city",
          "type": "string"
        },
        {
          "indexed": false,
          "internalType": "uint256",
          "name": "date",
          "type": "uint256"
        }
      ],
      "name": "TournamentCreated",
      "type": "event"
    },
    {
      "anonymous": false,
      "inputs": [
        {
          "indexed": true,
          "internalType": "address",
          "name": "from",
          "type": "address"
        },
        {
          "indexed": true,
          "internalType": "address",
          "name": "to",
          "type": "address"
        },
        {
          "indexed": true,
          "internalType": "uint256",
          "name": "tokenId",
          "type": "uint256"
        }
      ],
      "name": "Transfer",
      "type": "event"
    },
    {
      "inputs": [
        {
          "internalType": "uint256",
          "name": "_id",
          "type": "uint256"
        },
        {
          "internalType": "string",
          "name": "_message",
          "type": "string"
        }
      ],
      "name": "addComment",
      "outputs": [],
      "stateMutability": "nonpayable",
      "type": "function"
    },
    {
      "inputs": [
        {
          "internalType": "address",
          "name": "_address",
          "type": "address"
        }
      ],
      "name": "addManager",
      "outputs": [],
      "stateMutability": "nonpayable",
      "type": "function"
    },
    {
      "inputs": [
        {
          "internalType": "uint256",
          "name": "_id",
          "type": "uint256"
        },
        {
          "internalType": "string",
          "name": "_message",
          "type": "string"
        }
      ],
      "name": "addPrivateCommentToManager",
      "outputs": [],
      "stateMutability": "nonpayable",
      "type": "function"
    },
    {
      "inputs": [
        {
          "internalType": "uint256",
          "name": "_id",
          "type": "uint256"
        },
        {
          "internalType": "address",
          "name": "_player",
          "type": "address"
        },
        {
          "internalType": "string",
          "name": "_message",
          "type": "string"
        }
      ],
      "name": "addPrivateResponseToPlayer",
      "outputs": [],
      "stateMutability": "nonpayable",
      "type": "function"
    },
    {
      "inputs": [
        {
          "internalType": "string",
          "name": "_city",
          "type": "string"
        },
        {
          "internalType": "uint256",
          "name": "_date",
          "type": "uint256"
        },
        {
          "internalType": "uint8",
          "name": "_diff",
          "type": "uint8"
        },
        {
          "internalType": "uint8",
          "name": "_maxPlayers",
          "type": "uint8"
        }
      ],
      "name": "addTournament",
      "outputs": [],
      "stateMutability": "nonpayable",
      "type": "function"
    },
    {
      "inputs": [
        {
          "internalType": "uint256",
          "name": "_id",
          "type": "uint256"
        },
        {
          "internalType": "address",
          "name": "_winner1",
          "type": "address"
        },
        {
          "internalType": "address",
          "name": "_winner2",
          "type": "address"
        }
      ],
      "name": "addWinners",
      "outputs": [],
      "stateMutability": "nonpayable",
      "type": "function"
    },
    {
      "inputs": [
        {
          "internalType": "address",
          "name": "to",
          "type": "address"
        },
        {
          "internalType": "uint256",
          "name": "tokenId",
          "type": "uint256"
        }
      ],
      "name": "approve",
      "outputs": [],
      "stateMutability": "nonpayable",
      "type": "function"
    },
    {
      "inputs": [
        {
          "internalType": "address",
          "name": "owner",
          "type": "address"
        }
      ],
      "name": "balanceOf",
      "outputs": [
        {
          "internalType": "uint256",
          "name": "",
          "type": "uint256"
        }
      ],
      "stateMutability": "view",
      "type": "function"
    },
    {
      "inputs": [
        {
          "internalType": "uint256",
          "name": "",
          "type": "uint256"
        },
        {
          "internalType": "uint256",
          "name": "",
          "type": "uint256"
        }
      ],
      "name": "comments",
      "outputs": [
        {
          "internalType": "string",
          "name": "message",
          "type": "string"
        },
        {
          "internalType": "address",
          "name": "author",
          "type": "address"
        }
      ],
      "stateMutability": "view",
      "type": "function"
    },
    {
      "inputs": [
        {
          "internalType": "uint256",
          "name": "_id",
          "type": "uint256"
        }
      ],
      "name": "followTournament",
      "outputs": [],
      "stateMutability": "nonpayable",
      "type": "function"
    },
    {
      "inputs": [
        {
          "internalType": "uint256",
          "name": "",
          "type": "uint256"
        },
        {
          "internalType": "address",
          "name": "",
          "type": "address"
        }
      ],
      "name": "followedTournaments",
      "outputs": [
        {
          "internalType": "bool",
          "name": "",
          "type": "bool"
        }
      ],
      "stateMutability": "view",
      "type": "function"
    },
    {
      "inputs": [
        {
          "internalType": "uint256",
          "name": "tokenId",
          "type": "uint256"
        }
      ],
      "name": "getApproved",
      "outputs": [
        {
          "internalType": "address",
          "name": "",
          "type": "address"
        }
      ],
      "stateMutability": "view",
      "type": "function"
    },
    {
      "inputs": [
        {
          "internalType": "uint256",
          "name": "",
          "type": "uint256"
        }
      ],
      "name": "idComments",
      "outputs": [
        {
          "internalType": "uint256",
          "name": "",
          "type": "uint256"
        }
      ],
      "stateMutability": "view",
      "type": "function"
    },
    {
      "inputs": [
        {
          "internalType": "address",
          "name": "owner",
          "type": "address"
        },
        {
          "internalType": "address",
          "name": "operator",
          "type": "address"
        }
      ],
      "name": "isApprovedForAll",
      "outputs": [
        {
          "internalType": "bool",
          "name": "",
          "type": "bool"
        }
      ],
      "stateMutability": "view",
      "type": "function"
    },
    {
      "inputs": [
        {
          "internalType": "address",
          "name": "",
          "type": "address"
        }
      ],
      "name": "managers",
      "outputs": [
        {
          "internalType": "bool",
          "name": "",
          "type": "bool"
        }
      ],
      "stateMutability": "view",
      "type": "function"
    },
    {
      "inputs": [],
      "name": "name",
      "outputs": [
        {
          "internalType": "string",
          "name": "",
          "type": "string"
        }
      ],
      "stateMutability": "view",
      "type": "function"
    },
    {
      "inputs": [],
      "name": "owner",
      "outputs": [
        {
          "internalType": "address",
          "name": "",
          "type": "address"
        }
      ],
      "stateMutability": "view",
      "type": "function"
    },
    {
      "inputs": [
        {
          "internalType": "uint256",
          "name": "tokenId",
          "type": "uint256"
        }
      ],
      "name": "ownerOf",
      "outputs": [
        {
          "internalType": "address",
          "name": "",
          "type": "address"
        }
      ],
      "stateMutability": "view",
      "type": "function"
    },
    {
      "inputs": [
        {
          "internalType": "uint256",
          "name": "",
          "type": "uint256"
        },
        {
          "internalType": "address",
          "name": "",
          "type": "address"
        }
      ],
      "name": "playersRegistered",
      "outputs": [
        {
          "internalType": "bool",
          "name": "",
          "type": "bool"
        }
      ],
      "stateMutability": "view",
      "type": "function"
    },
    {
      "inputs": [
        {
          "internalType": "uint256",
          "name": "_id",
          "type": "uint256"
        },
        {
          "internalType": "string",
          "name": "_firstName",
          "type": "string"
        },
        {
          "internalType": "string",
          "name": "_lastName",
          "type": "string"
        }
      ],
      "name": "registerPlayer",
      "outputs": [],
      "stateMutability": "nonpayable",
      "type": "function"
    },
    {
      "inputs": [],
      "name": "renounceOwnership",
      "outputs": [],
      "stateMutability": "nonpayable",
      "type": "function"
    },
    {
      "inputs": [
        {
          "internalType": "address",
          "name": "from",
          "type": "address"
        },
        {
          "internalType": "address",
          "name": "to",
          "type": "address"
        },
        {
          "internalType": "uint256",
          "name": "tokenId",
          "type": "uint256"
        }
      ],
      "name": "safeTransferFrom",
      "outputs": [],
      "stateMutability": "nonpayable",
      "type": "function"
    },
    {
      "inputs": [
        {
          "internalType": "address",
          "name": "from",
          "type": "address"
        },
        {
          "internalType": "address",
          "name": "to",
          "type": "address"
        },
        {
          "internalType": "uint256",
          "name": "tokenId",
          "type": "uint256"
        },
        {
          "internalType": "bytes",
          "name": "data",
          "type": "bytes"
        }
      ],
      "name": "safeTransferFrom",
      "outputs": [],
      "stateMutability": "nonpayable",
      "type": "function"
    },
    {
      "inputs": [
        {
          "internalType": "address",
          "name": "operator",
          "type": "address"
        },
        {
          "internalType": "bool",
          "name": "approved",
          "type": "bool"
        }
      ],
      "name": "setApprovalForAll",
      "outputs": [],
      "stateMutability": "nonpayable",
      "type": "function"
    },
    {
      "inputs": [
        {
          "internalType": "bytes4",
          "name": "interfaceId",
          "type": "bytes4"
        }
      ],
      "name": "supportsInterface",
      "outputs": [
        {
          "internalType": "bool",
          "name": "",
          "type": "bool"
        }
      ],
      "stateMutability": "view",
      "type": "function"
    },
    {
      "inputs": [],
      "name": "symbol",
      "outputs": [
        {
          "internalType": "string",
          "name": "",
          "type": "string"
        }
      ],
      "stateMutability": "view",
      "type": "function"
    },
    {
      "inputs": [
        {
          "internalType": "uint256",
          "name": "tokenId",
          "type": "uint256"
        }
      ],
      "name": "tokenURI",
      "outputs": [
        {
          "internalType": "string",
          "name": "",
          "type": "string"
        }
      ],
      "stateMutability": "view",
      "type": "function"
    },
    {
      "inputs": [
        {
          "internalType": "uint256",
          "name": "",
          "type": "uint256"
        }
      ],
      "name": "tournaments",
      "outputs": [
        {
          "internalType": "uint256",
          "name": "id",
          "type": "uint256"
        },
        {
          "internalType": "string",
          "name": "city",
          "type": "string"
        },
        {
          "internalType": "uint256",
          "name": "date",
          "type": "uint256"
        },
        {
          "internalType": "enum IPadelConnect.Difficulty",
          "name": "difficulty",
          "type": "uint8"
        },
        {
          "internalType": "uint8",
          "name": "maxPlayers",
          "type": "uint8"
        },
        {
          "internalType": "uint8",
          "name": "registrationsAvailable",
          "type": "uint8"
        },
        {
          "internalType": "address",
          "name": "winner1",
          "type": "address"
        },
        {
          "internalType": "address",
          "name": "winner2",
          "type": "address"
        }
      ],
      "stateMutability": "view",
      "type": "function"
    },
    {
      "inputs": [
        {
          "internalType": "address",
          "name": "from",
          "type": "address"
        },
        {
          "internalType": "address",
          "name": "to",
          "type": "address"
        },
        {
          "internalType": "uint256",
          "name": "tokenId",
          "type": "uint256"
        }
      ],
      "name": "transferFrom",
      "outputs": [],
      "stateMutability": "nonpayable",
      "type": "function"
    },
    {
      "inputs": [
        {
          "internalType": "address",
          "name": "newOwner",
          "type": "address"
        }
      ],
      "name": "transferOwnership",
      "outputs": [],
      "stateMutability": "nonpayable",
      "type": "function"
    }
  ],
  "bytecode": "0x608060405234801562000010575f80fd5b506040518060400160405280600c81526020017f506164656c436f6e6e65637400000000000000000000000000000000000000008152506040518060400160405280600381526020017f50444c00000000000000000000000000000000000000000000000000000000008152506200009d62000091620000c960201b60201c565b620000d060201b60201c565b8160019081620000ae9190620003f5565b508060029081620000c09190620003f5565b505050620004d9565b5f33905090565b5f805f9054906101000a900473ffffffffffffffffffffffffffffffffffffffff169050815f806101000a81548173ffffffffffffffffffffffffffffffffffffffff021916908373ffffffffffffffffffffffffffffffffffffffff1602179055508173ffffffffffffffffffffffffffffffffffffffff168173ffffffffffffffffffffffffffffffffffffffff167f8be0079c531659141344cd1fd0a4f28419497f9722a3daafe3b4186f6b6457e060405160405180910390a35050565b5f81519050919050565b7f4e487b71000000000000000000000000000000000000000000000000000000005f52604160045260245ffd5b7f4e487b71000000000000000000000000000000000000000000000000000000005f52602260045260245ffd5b5f60028204905060018216806200020d57607f821691505b602082108103620002235762000222620001c8565b5b50919050565b5f819050815f5260205f209050919050565b5f6020601f8301049050919050565b5f82821b905092915050565b5f60088302620002877fffffffffffffffffffffffffffffffffffffffffffffffffffffffffffffffff826200024a565b6200029386836200024a565b95508019841693508086168417925050509392505050565b5f819050919050565b5f819050919050565b5f620002dd620002d7620002d184620002ab565b620002b4565b620002ab565b9050919050565b5f819050919050565b620002f883620002bd565b620003106200030782620002e4565b84845462000256565b825550505050565b5f90565b6200032662000318565b62000333818484620002ed565b505050565b5b818110156200035a576200034e5f826200031c565b60018101905062000339565b5050565b601f821115620003a957620003738162000229565b6200037e846200023b565b810160208510156200038e578190505b620003a66200039d856200023b565b83018262000338565b50505b505050565b5f82821c905092915050565b5f620003cb5f1984600802620003ae565b1980831691505092915050565b5f620003e58383620003ba565b9150826002028217905092915050565b620004008262000191565b67ffffffffffffffff8111156200041c576200041b6200019b565b5b620004288254620001f5565b620004358282856200035e565b5f60209050601f8311600181146200046b575f841562000456578287015190505b620004628582620003d8565b865550620004d1565b601f1984166200047b8662000229565b5f5b82811015620004a4578489015182556001820191506020850194506020810190506200047d565b86831015620004c45784890151620004c0601f891682620003ba565b8355505b6001600288020188555050505b505050505050565b615b7480620004e75f395ff3fe608060405234801561000f575f80fd5b50600436106101d8575f3560e01c80637503e1b711610102578063aa7e5683116100a0578063f2fde38b1161006f578063f2fde38b14610577578063f891e08b14610593578063fc6c776f146105af578063fdff9b4d146105e0576101d8565b8063aa7e5683146104df578063b88d4fde146104fb578063c87b56dd14610517578063e985e9c514610547576101d8565b806395d89b41116100dc57806395d89b41146104595780639b0404ca146104775780639b535ead14610493578063a22cb465146104c3576101d8565b80637503e1b7146103e85780638a8da1f71461041f5780638da5cb5b1461043b576101d8565b806325e2e5541161017a57806342842e0e1161014957806342842e0e146103625780636352211e1461037e57806370a08231146103ae578063715018a6146103de576101d8565b806325e2e554146102ca5780632d06177a146102e65780633682fd03146103025780633ae48eb814610332576101d8565b8063095ea7b3116101b6578063095ea7b31461025a5780630b7bdd7f146102765780631d3f6c8a1461029257806323b872dd146102ae576101d8565b806301ffc9a7146101dc57806306fdde031461020c578063081812fc1461022a575b5f80fd5b6101f660048036038101906101f19190614004565b610610565b6040516102039190614049565b60405180910390f35b610214610670565b60405161022191906140ec565b60405180910390f35b610244600480360381019061023f919061413f565b610700565b60405161025191906141a9565b60405180910390f35b610274600480360381019061026f91906141ec565b610742565b005b610290600480360381019061028b919061413f565b610858565b005b6102ac60048036038101906102a7919061428b565b610908565b005b6102c860048036038101906102c391906142e8565b610c22565b005b6102e460048036038101906102df9190614338565b610c82565b005b61030060048036038101906102fb91906143c9565b6112af565b005b61031c6004803603810190610317919061413f565b611440565b6040516103299190614403565b60405180910390f35b61034c6004803603810190610347919061441c565b611455565b6040516103599190614049565b60405180910390f35b61037c600480360381019061037791906142e8565b61147f565b005b6103986004803603810190610393919061413f565b61149e565b6040516103a591906141a9565b60405180910390f35b6103c860048036038101906103c391906143c9565b611522565b6040516103d59190614403565b60405180910390f35b6103e66115d6565b005b61040260048036038101906103fd919061413f565b6115e9565b6040516104169897969594939291906144e8565b60405180910390f35b6104396004803603810190610434919061456b565b611727565b005b610443611e31565b60405161045091906141a9565b60405180910390f35b610461611e58565b60405161046e91906140ec565b60405180910390f35b610491600480360381019061048c91906145bb565b611ee8565b005b6104ad60048036038101906104a8919061441c565b6122fc565b6040516104ba9190614049565b60405180910390f35b6104dd60048036038101906104d89190614656565b612326565b005b6104f960048036038101906104f4919061428b565b61233c565b005b610515600480360381019061051091906147bc565b612638565b005b610531600480360381019061052c919061413f565b61269a565b60405161053e91906140ec565b60405180910390f35b610561600480360381019061055c919061483c565b6127a4565b60405161056e9190614049565b60405180910390f35b610591600480360381019061058c91906143c9565b612832565b005b6105ad60048036038101906105a891906148a4565b6128b4565b005b6105c960048036038101906105c49190614928565b612d7f565b6040516105d7929190614966565b60405180910390f35b6105fa60048036038101906105f591906143c9565b612e4f565b6040516106079190614049565b60405180910390f35b5f634906490660e01b7bffffffffffffffffffffffffffffffffffffffffffffffffffffffff1916827bffffffffffffffffffffffffffffffffffffffffffffffffffffffff19161480610669575061066882612e6c565b5b9050919050565b60606001805461067f906149c1565b80601f01602080910402602001604051908101604052809291908181526020018280546106ab906149c1565b80156106f65780601f106106cd576101008083540402835291602001916106f6565b820191905f5260205f20905b8154815290600101906020018083116106d957829003601f168201915b5050505050905090565b5f61070a82612f4d565b60055f8381526020019081526020015f205f9054906101000a900473ffffffffffffffffffffffffffffffffffffffff169050919050565b5f61074c8261149e565b90508073ffffffffffffffffffffffffffffffffffffffff168373ffffffffffffffffffffffffffffffffffffffff16036107bc576040517f08c379a00000000000000000000000000000000000000000000000000000000081526004016107b390614a61565b60405180910390fd5b8073ffffffffffffffffffffffffffffffffffffffff166107db612f98565b73ffffffffffffffffffffffffffffffffffffffff16148061080a575061080981610804612f98565b6127a4565b5b610849576040517f08c379a000000000000000000000000000000000000000000000000000000000815260040161084090614aef565b60405180910390fd5b6108538383612f9f565b505050565b80600c8054905081106108a0576040517f08c379a000000000000000000000000000000000000000000000000000000000815260040161089790614b57565b60405180910390fd5b6001600f5f8481526020019081526020015f205f3373ffffffffffffffffffffffffffffffffffffffff1673ffffffffffffffffffffffffffffffffffffffff1681526020019081526020015f205f6101000a81548160ff0219169083151502179055505050565b82600c805490508110610950576040517f08c379a000000000000000000000000000000000000000000000000000000000815260040161094790614b57565b60405180910390fd5b82828080601f0160208091040260200160405190810160405280939291908181526020018383808284375f81840152601f19601f820116905080830192505050505050505f8151116109d7576040517f08c379a00000000000000000000000000000000000000000000000000000000081526004016109ce90614bbf565b60405180910390fd5b33600a426109e59190614c0a565b60135f3373ffffffffffffffffffffffffffffffffffffffff1673ffffffffffffffffffffffffffffffffffffffff1681526020019081526020015f205410610a63576040517f08c379a0000000000000000000000000000000000000000000000000000000008152600401610a5a90614c87565b60405180910390fd5b60125f8781526020019081526020015f205f3373ffffffffffffffffffffffffffffffffffffffff1673ffffffffffffffffffffffffffffffffffffffff1681526020019081526020015f20604051806040016040528087878080601f0160208091040260200160405190810160405280939291908181526020018383808284375f81840152601f19601f8201169050808301925050505050505081526020013373ffffffffffffffffffffffffffffffffffffffff16815250908060018154018082558091505060019003905f5260205f2090600202015f909190919091505f820151815f019081610b569190614e42565b506020820151816001015f6101000a81548173ffffffffffffffffffffffffffffffffffffffff021916908373ffffffffffffffffffffffffffffffffffffffff16021790555050504260135f3373ffffffffffffffffffffffffffffffffffffffff1673ffffffffffffffffffffffffffffffffffffffff1681526020019081526020015f20819055507fbfd6922fad2fc6dfcb1bf737a87580bdc38c8199bda4764006096c7ed70528168633604051610c12929190614f11565b60405180910390a1505050505050565b610c33610c2d612f98565b82613055565b610c72576040517f08c379a0000000000000000000000000000000000000000000000000000000008152600401610c6990614fa8565b60405180910390fd5b610c7d8383836130e9565b505050565b84600c805490508110610cca576040517f08c379a0000000000000000000000000000000000000000000000000000000008152600401610cc190614b57565b60405180910390fd5b84848080601f0160208091040260200160405190810160405280939291908181526020018383808284375f81840152601f19601f820116905080830192505050505050505f815111610d51576040517f08c379a0000000000000000000000000000000000000000000000000000000008152600401610d4890614bbf565b60405180910390fd5b83838080601f0160208091040260200160405190810160405280939291908181526020018383808284375f81840152601f19601f820116905080830192505050505050505f815111610dd8576040517f08c379a0000000000000000000000000000000000000000000000000000000008152600401610dcf90614bbf565b60405180910390fd5b600e5f8981526020019081526020015f205f3373ffffffffffffffffffffffffffffffffffffffff1673ffffffffffffffffffffffffffffffffffffffff1681526020019081526020015f205f9054906101000a900460ff1615610e71576040517f08c379a0000000000000000000000000000000000000000000000000000000008152600401610e6890615010565b60405180910390fd5b5f600c8981548110610e8657610e8561502e565b5b905f5260205f209060050201604051806101000160405290815f8201548152602001600182018054610eb7906149c1565b80601f0160208091040260200160405190810160405280929190818152602001828054610ee3906149c1565b8015610f2e5780601f10610f0557610100808354040283529160200191610f2e565b820191905f5260205f20905b815481529060010190602001808311610f1157829003601f168201915b5050505050815260200160028201548152602001600382015f9054906101000a900460ff166005811115610f6557610f6461445a565b5b6005811115610f7757610f7661445a565b5b81526020016003820160019054906101000a900460ff1660ff1660ff1681526020016003820160029054906101000a900460ff1660ff1660ff1681526020016003820160039054906101000a900473ffffffffffffffffffffffffffffffffffffffff1673ffffffffffffffffffffffffffffffffffffffff1673ffffffffffffffffffffffffffffffffffffffff168152602001600482015f9054906101000a900473ffffffffffffffffffffffffffffffffffffffff1673ffffffffffffffffffffffffffffffffffffffff1673ffffffffffffffffffffffffffffffffffffffff1681525050905042816040015110156110a0576040517f2ee88f5000000000000000000000000000000000000000000000000000000000815260040160405180910390fd5b5f8160a0015160ff16036110e0576040517f106e2afe00000000000000000000000000000000000000000000000000000000815260040160405180910390fd5b604051806040016040528087878080601f0160208091040260200160405190810160405280939291908181526020018383808284375f81840152601f19601f82011690508083019250505050505050815260200189898080601f0160208091040260200160405190810160405280939291908181526020018383808284375f81840152601f19601f82011690508083019250505050505050815250600d5f3373ffffffffffffffffffffffffffffffffffffffff1673ffffffffffffffffffffffffffffffffffffffff1681526020019081526020015f205f820151815f0190816111cb9190614e42565b5060208201518160010190816111e19190614e42565b509050506001600e5f8b81526020019081526020015f205f3373ffffffffffffffffffffffffffffffffffffffff1673ffffffffffffffffffffffffffffffffffffffff1681526020019081526020015f205f6101000a81548160ff0219169083151502179055508060a00180516112589061505b565b60ff16908160ff16815250508060a00151600c8a8154811061127d5761127c61502e565b5b905f5260205f20906005020160030160026101000a81548160ff021916908360ff160217905550505050505050505050565b6112b76133d5565b805f73ffffffffffffffffffffffffffffffffffffffff168173ffffffffffffffffffffffffffffffffffffffff1603611326576040517f08c379a000000000000000000000000000000000000000000000000000000000815260040161131d906150cc565b60405180910390fd5b600a5f8373ffffffffffffffffffffffffffffffffffffffff1673ffffffffffffffffffffffffffffffffffffffff1681526020019081526020015f205f9054906101000a900460ff16156113b0576040517f08c379a00000000000000000000000000000000000000000000000000000000081526004016113a790615010565b60405180910390fd5b6001600a5f8473ffffffffffffffffffffffffffffffffffffffff1673ffffffffffffffffffffffffffffffffffffffff1681526020019081526020015f205f6101000a81548160ff0219169083151502179055507f3b4a40cccf2058c593542587329dd385be4f0b588db5471fbd9598e56dd7093a8260405161143491906141a9565b60405180910390a15050565b6011602052805f5260405f205f915090505481565b600f602052815f5260405f20602052805f5260405f205f915091509054906101000a900460ff1681565b61149983838360405180602001604052805f815250612638565b505050565b5f806114a983613453565b90505f73ffffffffffffffffffffffffffffffffffffffff168173ffffffffffffffffffffffffffffffffffffffff1603611519576040517f08c379a000000000000000000000000000000000000000000000000000000000815260040161151090615134565b60405180910390fd5b80915050919050565b5f8073ffffffffffffffffffffffffffffffffffffffff168273ffffffffffffffffffffffffffffffffffffffff1603611591576040517f08c379a0000000000000000000000000000000000000000000000000000000008152600401611588906151c2565b60405180910390fd5b60045f8373ffffffffffffffffffffffffffffffffffffffff1673ffffffffffffffffffffffffffffffffffffffff1681526020019081526020015f20549050919050565b6115de6133d5565b6115e75f61348c565b565b600c81815481106115f8575f80fd5b905f5260205f2090600502015f91509050805f01549080600101805461161d906149c1565b80601f0160208091040260200160405190810160405280929190818152602001828054611649906149c1565b80156116945780601f1061166b57610100808354040283529160200191611694565b820191905f5260205f20905b81548152906001019060200180831161167757829003601f168201915b505050505090806002015490806003015f9054906101000a900460ff16908060030160019054906101000a900460ff16908060030160029054906101000a900460ff16908060030160039054906101000a900473ffffffffffffffffffffffffffffffffffffffff1690806004015f9054906101000a900473ffffffffffffffffffffffffffffffffffffffff16905088565b61172f6133d5565b82600c805490508110611777576040517f08c379a000000000000000000000000000000000000000000000000000000000815260040161176e90614b57565b60405180910390fd5b825f73ffffffffffffffffffffffffffffffffffffffff168173ffffffffffffffffffffffffffffffffffffffff16036117e6576040517f08c379a00000000000000000000000000000000000000000000000000000000081526004016117dd906150cc565b60405180910390fd5b825f73ffffffffffffffffffffffffffffffffffffffff168173ffffffffffffffffffffffffffffffffffffffff1603611855576040517f08c379a000000000000000000000000000000000000000000000000000000000815260040161184c906150cc565b60405180910390fd5b8373ffffffffffffffffffffffffffffffffffffffff168573ffffffffffffffffffffffffffffffffffffffff16036118c3576040517f08c379a00000000000000000000000000000000000000000000000000000000081526004016118ba9061522a565b60405180910390fd5b600e5f8781526020019081526020015f205f8673ffffffffffffffffffffffffffffffffffffffff1673ffffffffffffffffffffffffffffffffffffffff1681526020019081526020015f205f9054906101000a900460ff16801561197d5750600e5f8781526020019081526020015f205f8573ffffffffffffffffffffffffffffffffffffffff1673ffffffffffffffffffffffffffffffffffffffff1681526020019081526020015f205f9054906101000a900460ff165b6119bc576040517f08c379a00000000000000000000000000000000000000000000000000000000081526004016119b390615292565b60405180910390fd5b84600c87815481106119d1576119d061502e565b5b905f5260205f20906005020160030160036101000a81548173ffffffffffffffffffffffffffffffffffffffff021916908373ffffffffffffffffffffffffffffffffffffffff16021790555083600c8781548110611a3357611a3261502e565b5b905f5260205f2090600502016004015f6101000a81548173ffffffffffffffffffffffffffffffffffffffff021916908373ffffffffffffffffffffffffffffffffffffffff1602179055505f600c8781548110611a9457611a9361502e565b5b905f5260205f2090600502016001018054611aae906149c1565b80601f0160208091040260200160405190810160405280929190818152602001828054611ada906149c1565b8015611b255780601f10611afc57610100808354040283529160200191611b25565b820191905f5260205f20905b815481529060010190602001808311611b0857829003601f168201915b505050505090505f600d5f8873ffffffffffffffffffffffffffffffffffffffff1673ffffffffffffffffffffffffffffffffffffffff1681526020019081526020015f206040518060400160405290815f82018054611b84906149c1565b80601f0160208091040260200160405190810160405280929190818152602001828054611bb0906149c1565b8015611bfb5780601f10611bd257610100808354040283529160200191611bfb565b820191905f5260205f20905b815481529060010190602001808311611bde57829003601f168201915b50505050508152602001600182018054611c14906149c1565b80601f0160208091040260200160405190810160405280929190818152602001828054611c40906149c1565b8015611c8b5780601f10611c6257610100808354040283529160200191611c8b565b820191905f5260205f20905b815481529060010190602001808311611c6e57829003601f168201915b5050505050815250509050611caa8789848460200151855f015161354d565b600d5f8773ffffffffffffffffffffffffffffffffffffffff1673ffffffffffffffffffffffffffffffffffffffff1681526020019081526020015f206040518060400160405290815f82018054611d01906149c1565b80601f0160208091040260200160405190810160405280929190818152602001828054611d2d906149c1565b8015611d785780601f10611d4f57610100808354040283529160200191611d78565b820191905f5260205f20905b815481529060010190602001808311611d5b57829003601f168201915b50505050508152602001600182018054611d91906149c1565b80601f0160208091040260200160405190810160405280929190818152602001828054611dbd906149c1565b8015611e085780601f10611ddf57610100808354040283529160200191611e08565b820191905f5260205f20905b815481529060010190602001808311611deb57829003601f168201915b5050505050815250509050611e278689848460200151855f015161354d565b5050505050505050565b5f805f9054906101000a900473ffffffffffffffffffffffffffffffffffffffff16905090565b606060028054611e67906149c1565b80601f0160208091040260200160405190810160405280929190818152602001828054611e93906149c1565b8015611ede5780601f10611eb557610100808354040283529160200191611ede565b820191905f5260205f20905b815481529060010190602001808311611ec157829003601f168201915b5050505050905090565b600a5f3373ffffffffffffffffffffffffffffffffffffffff1673ffffffffffffffffffffffffffffffffffffffff1681526020019081526020015f205f9054906101000a900460ff16611f71576040517f08c379a0000000000000000000000000000000000000000000000000000000008152600401611f68906152fa565b60405180910390fd5b83600c805490508110611fb9576040517f08c379a0000000000000000000000000000000000000000000000000000000008152600401611fb090614b57565b60405180910390fd5b835f73ffffffffffffffffffffffffffffffffffffffff168173ffffffffffffffffffffffffffffffffffffffff1603612028576040517f08c379a000000000000000000000000000000000000000000000000000000000815260040161201f906150cc565b60405180910390fd5b83838080601f0160208091040260200160405190810160405280939291908181526020018383808284375f81840152601f19601f820116905080830192505050505050505f8151116120af576040517f08c379a00000000000000000000000000000000000000000000000000000000081526004016120a690614bbf565b60405180910390fd5b33600a426120bd9190614c0a565b60135f3373ffffffffffffffffffffffffffffffffffffffff1673ffffffffffffffffffffffffffffffffffffffff1681526020019081526020015f20541061213b576040517f08c379a000000000000000000000000000000000000000000000000000000000815260040161213290614c87565b60405180910390fd5b60125f8981526020019081526020015f205f8873ffffffffffffffffffffffffffffffffffffffff1673ffffffffffffffffffffffffffffffffffffffff1681526020019081526020015f20604051806040016040528088888080601f0160208091040260200160405190810160405280939291908181526020018383808284375f81840152601f19601f8201169050808301925050505050505081526020013373ffffffffffffffffffffffffffffffffffffffff16815250908060018154018082558091505060019003905f5260205f2090600202015f909190919091505f820151815f01908161222e9190614e42565b506020820151816001015f6101000a81548173ffffffffffffffffffffffffffffffffffffffff021916908373ffffffffffffffffffffffffffffffffffffffff16021790555050504260135f3373ffffffffffffffffffffffffffffffffffffffff1673ffffffffffffffffffffffffffffffffffffffff1681526020019081526020015f20819055507f6c273d133e6c6367d40972f8ef51fc71789ea8bc667e662342cbecab4f46218c88886040516122ea929190614f11565b60405180910390a15050505050505050565b600e602052815f5260405f20602052805f5260405f205f915091509054906101000a900460ff1681565b612338612331612f98565b8383613617565b5050565b82600c805490508110612384576040517f08c379a000000000000000000000000000000000000000000000000000000000815260040161237b90614b57565b60405180910390fd5b82828080601f0160208091040260200160405190810160405280939291908181526020018383808284375f81840152601f19601f820116905080830192505050505050505f81511161240b576040517f08c379a000000000000000000000000000000000000000000000000000000000815260040161240290614bbf565b60405180910390fd5b33600a426124199190614c0a565b60135f3373ffffffffffffffffffffffffffffffffffffffff1673ffffffffffffffffffffffffffffffffffffffff1681526020019081526020015f205410612497576040517f08c379a000000000000000000000000000000000000000000000000000000000815260040161248e90614c87565b60405180910390fd5b604051806040016040528086868080601f0160208091040260200160405190810160405280939291908181526020018383808284375f81840152601f19601f8201169050808301925050505050505081526020013373ffffffffffffffffffffffffffffffffffffffff1681525060105f8881526020019081526020015f205f60115f8a81526020019081526020015f205481526020019081526020015f205f820151815f0190816125499190614e42565b506020820151816001015f6101000a81548173ffffffffffffffffffffffffffffffffffffffff021916908373ffffffffffffffffffffffffffffffffffffffff16021790555090505060115f8781526020019081526020015f205f81546125b090615318565b919050819055504260135f3373ffffffffffffffffffffffffffffffffffffffff1673ffffffffffffffffffffffffffffffffffffffff1681526020019081526020015f20819055507f3021694d1ef819d2b9bc13c595d4f75437b6bbbb2dd33e9f2a9df24534f6b559866040516126289190614403565b60405180910390a1505050505050565b612649612643612f98565b83613055565b612688576040517f08c379a000000000000000000000000000000000000000000000000000000000815260040161267f90614fa8565b60405180910390fd5b6126948484848461377e565b50505050565b60606126a582612f4d565b5f60075f8481526020019081526020015f2080546126c2906149c1565b80601f01602080910402602001604051908101604052809291908181526020018280546126ee906149c1565b80156127395780601f1061271057610100808354040283529160200191612739565b820191905f5260205f20905b81548152906001019060200180831161271c57829003601f168201915b505050505090505f6127496137da565b90505f81510361275d57819250505061279f565b5f82511115612791578082604051602001612779929190615399565b6040516020818303038152906040529250505061279f565b61279a846137f0565b925050505b919050565b5f60065f8473ffffffffffffffffffffffffffffffffffffffff1673ffffffffffffffffffffffffffffffffffffffff1681526020019081526020015f205f8373ffffffffffffffffffffffffffffffffffffffff1673ffffffffffffffffffffffffffffffffffffffff1681526020019081526020015f205f9054906101000a900460ff16905092915050565b61283a6133d5565b5f73ffffffffffffffffffffffffffffffffffffffff168173ffffffffffffffffffffffffffffffffffffffff16036128a8576040517f08c379a000000000000000000000000000000000000000000000000000000000815260040161289f9061542c565b60405180910390fd5b6128b18161348c565b50565b600a5f3373ffffffffffffffffffffffffffffffffffffffff1673ffffffffffffffffffffffffffffffffffffffff1681526020019081526020015f205f9054906101000a900460ff1661293d576040517f08c379a0000000000000000000000000000000000000000000000000000000008152600401612934906152fa565b60405180910390fd5b84848080601f0160208091040260200160405190810160405280939291908181526020018383808284375f81840152601f19601f820116905080830192505050505050505f8151116129c4576040517f08c379a00000000000000000000000000000000000000000000000000000000081526004016129bb90614bbf565b60405180910390fd5b428411612a06576040517f08c379a00000000000000000000000000000000000000000000000000000000081526004016129fd90615494565b60405180910390fd5b5f8260ff16118015612a2657505f600283612a2191906154df565b60ff16145b612a65576040517f08c379a0000000000000000000000000000000000000000000000000000000008152600401612a5c90615559565b60405180910390fd5b600580811115612a7857612a7761445a565b5b8360ff161115612abd576040517f08c379a0000000000000000000000000000000000000000000000000000000008152600401612ab4906155c1565b60405180910390fd5b5f600c805490509050600c60405180610100016040528083815260200189898080601f0160208091040260200160405190810160405280939291908181526020018383808284375f81840152601f19601f8201169050808301925050505050505081526020018781526020018660ff166005811115612b3f57612b3e61445a565b5b6005811115612b5157612b5061445a565b5b81526020018560ff1681526020018560ff1681526020015f73ffffffffffffffffffffffffffffffffffffffff1681526020015f73ffffffffffffffffffffffffffffffffffffffff16815250908060018154018082558091505060019003905f5260205f2090600502015f909190919091505f820151815f01556020820151816001019081612be19190614e42565b50604082015181600201556060820151816003015f6101000a81548160ff02191690836005811115612c1657612c1561445a565b5b021790555060808201518160030160016101000a81548160ff021916908360ff16021790555060a08201518160030160026101000a81548160ff021916908360ff16021790555060c08201518160030160036101000a81548173ffffffffffffffffffffffffffffffffffffffff021916908373ffffffffffffffffffffffffffffffffffffffff16021790555060e0820151816004015f6101000a81548173ffffffffffffffffffffffffffffffffffffffff021916908373ffffffffffffffffffffffffffffffffffffffff160217905550505033600b5f8381526020019081526020015f205f6101000a81548173ffffffffffffffffffffffffffffffffffffffff021916908373ffffffffffffffffffffffffffffffffffffffff1602179055507f5cb500f8744f1621d860dcaace657a4ecbcbb48087f90591af44c745b46b1bc8878787604051612d6e9392919061560b565b60405180910390a150505050505050565b6010602052815f5260405f20602052805f5260405f205f9150915050805f018054612da9906149c1565b80601f0160208091040260200160405190810160405280929190818152602001828054612dd5906149c1565b8015612e205780601f10612df757610100808354040283529160200191612e20565b820191905f5260205f20905b815481529060010190602001808311612e0357829003601f168201915b505050505090806001015f9054906101000a900473ffffffffffffffffffffffffffffffffffffffff16905082565b600a602052805f5260405f205f915054906101000a900460ff1681565b5f7f80ac58cd000000000000000000000000000000000000000000000000000000007bffffffffffffffffffffffffffffffffffffffffffffffffffffffff1916827bffffffffffffffffffffffffffffffffffffffffffffffffffffffff19161480612f3657507f5b5e139f000000000000000000000000000000000000000000000000000000007bffffffffffffffffffffffffffffffffffffffffffffffffffffffff1916827bffffffffffffffffffffffffffffffffffffffffffffffffffffffff1916145b80612f465750612f4582613855565b5b9050919050565b612f56816138be565b612f95576040517f08c379a0000000000000000000000000000000000000000000000000000000008152600401612f8c90615134565b60405180910390fd5b50565b5f33905090565b8160055f8381526020019081526020015f205f6101000a81548173ffffffffffffffffffffffffffffffffffffffff021916908373ffffffffffffffffffffffffffffffffffffffff160217905550808273ffffffffffffffffffffffffffffffffffffffff1661300f8361149e565b73ffffffffffffffffffffffffffffffffffffffff167f8c5be1e5ebec7d5bd14f71427d1e84f3dd0314c0f7b2291e5b200ac8c7c3b92560405160405180910390a45050565b5f806130608361149e565b90508073ffffffffffffffffffffffffffffffffffffffff168473ffffffffffffffffffffffffffffffffffffffff1614806130a257506130a181856127a4565b5b806130e057508373ffffffffffffffffffffffffffffffffffffffff166130c884610700565b73ffffffffffffffffffffffffffffffffffffffff16145b91505092915050565b8273ffffffffffffffffffffffffffffffffffffffff166131098261149e565b73ffffffffffffffffffffffffffffffffffffffff161461315f576040517f08c379a0000000000000000000000000000000000000000000000000000000008152600401613156906156ab565b60405180910390fd5b5f73ffffffffffffffffffffffffffffffffffffffff168273ffffffffffffffffffffffffffffffffffffffff16036131cd576040517f08c379a00000000000000000000000000000000000000000000000000000000081526004016131c490615739565b60405180910390fd5b6131da83838360016138fe565b8273ffffffffffffffffffffffffffffffffffffffff166131fa8261149e565b73ffffffffffffffffffffffffffffffffffffffff1614613250576040517f08c379a0000000000000000000000000000000000000000000000000000000008152600401613247906156ab565b60405180910390fd5b60055f8281526020019081526020015f205f6101000a81549073ffffffffffffffffffffffffffffffffffffffff0219169055600160045f8573ffffffffffffffffffffffffffffffffffffffff1673ffffffffffffffffffffffffffffffffffffffff1681526020019081526020015f205f8282540392505081905550600160045f8473ffffffffffffffffffffffffffffffffffffffff1673ffffffffffffffffffffffffffffffffffffffff1681526020019081526020015f205f82825401925050819055508160035f8381526020019081526020015f205f6101000a81548173ffffffffffffffffffffffffffffffffffffffff021916908373ffffffffffffffffffffffffffffffffffffffff160217905550808273ffffffffffffffffffffffffffffffffffffffff168473ffffffffffffffffffffffffffffffffffffffff167fddf252ad1be2c89b69c2b068fc378daa952ba7f163c4a11628f55a4df523b3ef60405160405180910390a46133d08383836001613904565b505050565b6133dd612f98565b73ffffffffffffffffffffffffffffffffffffffff166133fb611e31565b73ffffffffffffffffffffffffffffffffffffffff1614613451576040517f08c379a0000000000000000000000000000000000000000000000000000000008152600401613448906157a1565b60405180910390fd5b565b5f60035f8381526020019081526020015f205f9054906101000a900473ffffffffffffffffffffffffffffffffffffffff169050919050565b5f805f9054906101000a900473ffffffffffffffffffffffffffffffffffffffff169050815f806101000a81548173ffffffffffffffffffffffffffffffffffffffff021916908373ffffffffffffffffffffffffffffffffffffffff1602179055508173ffffffffffffffffffffffffffffffffffffffff168173ffffffffffffffffffffffffffffffffffffffff167f8be0079c531659141344cd1fd0a4f28419497f9722a3daafe3b4186f6b6457e060405160405180910390a35050565b613557600861390a565b5f613562600861391e565b905060405180608001604052808681526020018581526020018481526020018381525060095f8381526020019081526020015f205f820151815f015560208201518160010190816135b39190614e42565b5060408201518160020190816135c99190614e42565b5060608201518160030190816135df9190614e42565b509050506135ed868261392a565b61360f81604051806080016040528060508152602001615aef60509139613b3d565b505050505050565b8173ffffffffffffffffffffffffffffffffffffffff168373ffffffffffffffffffffffffffffffffffffffff1603613685576040517f08c379a000000000000000000000000000000000000000000000000000000000815260040161367c90615809565b60405180910390fd5b8060065f8573ffffffffffffffffffffffffffffffffffffffff1673ffffffffffffffffffffffffffffffffffffffff1681526020019081526020015f205f8473ffffffffffffffffffffffffffffffffffffffff1673ffffffffffffffffffffffffffffffffffffffff1681526020019081526020015f205f6101000a81548160ff0219169083151502179055508173ffffffffffffffffffffffffffffffffffffffff168373ffffffffffffffffffffffffffffffffffffffff167f17307eab39ab6107e8899845ad3d59bd9653f200f220920489ca2b5937696c31836040516137719190614049565b60405180910390a3505050565b6137898484846130e9565b61379584848484613bdf565b6137d4576040517f08c379a00000000000000000000000000000000000000000000000000000000081526004016137cb90615897565b60405180910390fd5b50505050565b606060405180602001604052805f815250905090565b60606137fb82612f4d565b5f6138046137da565b90505f8151116138225760405180602001604052805f81525061384d565b8061382c84613d61565b60405160200161383d929190615399565b6040516020818303038152906040525b915050919050565b5f7f01ffc9a7000000000000000000000000000000000000000000000000000000007bffffffffffffffffffffffffffffffffffffffffffffffffffffffff1916827bffffffffffffffffffffffffffffffffffffffffffffffffffffffff1916149050919050565b5f8073ffffffffffffffffffffffffffffffffffffffff166138df83613453565b73ffffffffffffffffffffffffffffffffffffffff1614159050919050565b50505050565b50505050565b6001815f015f828254019250508190555050565b5f815f01549050919050565b5f73ffffffffffffffffffffffffffffffffffffffff168273ffffffffffffffffffffffffffffffffffffffff1603613998576040517f08c379a000000000000000000000000000000000000000000000000000000000815260040161398f906158ff565b60405180910390fd5b6139a1816138be565b156139e1576040517f08c379a00000000000000000000000000000000000000000000000000000000081526004016139d890615967565b60405180910390fd5b6139ee5f838360016138fe565b6139f7816138be565b15613a37576040517f08c379a0000000000000000000000000000000000000000000000000000000008152600401613a2e90615967565b60405180910390fd5b600160045f8473ffffffffffffffffffffffffffffffffffffffff1673ffffffffffffffffffffffffffffffffffffffff1681526020019081526020015f205f82825401925050819055508160035f8381526020019081526020015f205f6101000a81548173ffffffffffffffffffffffffffffffffffffffff021916908373ffffffffffffffffffffffffffffffffffffffff160217905550808273ffffffffffffffffffffffffffffffffffffffff165f73ffffffffffffffffffffffffffffffffffffffff167fddf252ad1be2c89b69c2b068fc378daa952ba7f163c4a11628f55a4df523b3ef60405160405180910390a4613b395f83836001613904565b5050565b613b46826138be565b613b85576040517f08c379a0000000000000000000000000000000000000000000000000000000008152600401613b7c906159f5565b60405180910390fd5b8060075f8481526020019081526020015f209081613ba39190614e42565b507ff8e1a15aba9398e019f0b49df1a4fde98ee17ae345cb5f6b5e2c27f5033e8ce782604051613bd39190614403565b60405180910390a15050565b5f613bff8473ffffffffffffffffffffffffffffffffffffffff16613e2b565b15613d54578373ffffffffffffffffffffffffffffffffffffffff1663150b7a02613c28612f98565b8786866040518563ffffffff1660e01b8152600401613c4a9493929190615a65565b6020604051808303815f875af1925050508015613c8557506040513d601f19601f82011682018060405250810190613c829190615ac3565b60015b613d04573d805f8114613cb3576040519150601f19603f3d011682016040523d82523d5f602084013e613cb8565b606091505b505f815103613cfc576040517f08c379a0000000000000000000000000000000000000000000000000000000008152600401613cf390615897565b60405180910390fd5b805181602001fd5b63150b7a0260e01b7bffffffffffffffffffffffffffffffffffffffffffffffffffffffff1916817bffffffffffffffffffffffffffffffffffffffffffffffffffffffff191614915050613d59565b600190505b949350505050565b60605f6001613d6f84613e4d565b0190505f8167ffffffffffffffff811115613d8d57613d8c614698565b5b6040519080825280601f01601f191660200182016040528015613dbf5781602001600182028036833780820191505090505b5090505f82602001820190505b600115613e20578080600190039150507f3031323334353637383961626364656600000000000000000000000000000000600a86061a8153600a8581613e1557613e146154b2565b5b0494505f8503613dcc575b819350505050919050565b5f808273ffffffffffffffffffffffffffffffffffffffff163b119050919050565b5f805f90507a184f03e93ff9f4daa797ed6e38ed64bf6a1f0100000000000000008310613ea9577a184f03e93ff9f4daa797ed6e38ed64bf6a1f0100000000000000008381613e9f57613e9e6154b2565b5b0492506040810190505b6d04ee2d6d415b85acef81000000008310613ee6576d04ee2d6d415b85acef81000000008381613edc57613edb6154b2565b5b0492506020810190505b662386f26fc100008310613f1557662386f26fc100008381613f0b57613f0a6154b2565b5b0492506010810190505b6305f5e1008310613f3e576305f5e1008381613f3457613f336154b2565b5b0492506008810190505b6127108310613f63576127108381613f5957613f586154b2565b5b0492506004810190505b60648310613f865760648381613f7c57613f7b6154b2565b5b0492506002810190505b600a8310613f95576001810190505b80915050919050565b5f604051905090565b5f80fd5b5f80fd5b5f7fffffffff0000000000000000000000000000000000000000000000000000000082169050919050565b613fe381613faf565b8114613fed575f80fd5b50565b5f81359050613ffe81613fda565b92915050565b5f6020828403121561401957614018613fa7565b5b5f61402684828501613ff0565b91505092915050565b5f8115159050919050565b6140438161402f565b82525050565b5f60208201905061405c5f83018461403a565b92915050565b5f81519050919050565b5f82825260208201905092915050565b5f5b8381101561409957808201518184015260208101905061407e565b5f8484015250505050565b5f601f19601f8301169050919050565b5f6140be82614062565b6140c8818561406c565b93506140d881856020860161407c565b6140e1816140a4565b840191505092915050565b5f6020820190508181035f83015261410481846140b4565b905092915050565b5f819050919050565b61411e8161410c565b8114614128575f80fd5b50565b5f8135905061413981614115565b92915050565b5f6020828403121561415457614153613fa7565b5b5f6141618482850161412b565b91505092915050565b5f73ffffffffffffffffffffffffffffffffffffffff82169050919050565b5f6141938261416a565b9050919050565b6141a381614189565b82525050565b5f6020820190506141bc5f83018461419a565b92915050565b6141cb81614189565b81146141d5575f80fd5b50565b5f813590506141e6816141c2565b92915050565b5f806040838503121561420257614201613fa7565b5b5f61420f858286016141d8565b92505060206142208582860161412b565b9150509250929050565b5f80fd5b5f80fd5b5f80fd5b5f8083601f84011261424b5761424a61422a565b5b8235905067ffffffffffffffff8111156142685761426761422e565b5b60208301915083600182028301111561428457614283614232565b5b9250929050565b5f805f604084860312156142a2576142a1613fa7565b5b5f6142af8682870161412b565b935050602084013567ffffffffffffffff8111156142d0576142cf613fab565b5b6142dc86828701614236565b92509250509250925092565b5f805f606084860312156142ff576142fe613fa7565b5b5f61430c868287016141d8565b935050602061431d868287016141d8565b925050604061432e8682870161412b565b9150509250925092565b5f805f805f6060868803121561435157614350613fa7565b5b5f61435e8882890161412b565b955050602086013567ffffffffffffffff81111561437f5761437e613fab565b5b61438b88828901614236565b9450945050604086013567ffffffffffffffff8111156143ae576143ad613fab565b5b6143ba88828901614236565b92509250509295509295909350565b5f602082840312156143de576143dd613fa7565b5b5f6143eb848285016141d8565b91505092915050565b6143fd8161410c565b82525050565b5f6020820190506144165f8301846143f4565b92915050565b5f806040838503121561443257614431613fa7565b5b5f61443f8582860161412b565b9250506020614450858286016141d8565b9150509250929050565b7f4e487b71000000000000000000000000000000000000000000000000000000005f52602160045260245ffd5b600681106144985761449761445a565b5b50565b5f8190506144a882614487565b919050565b5f6144b78261449b565b9050919050565b6144c7816144ad565b82525050565b5f60ff82169050919050565b6144e2816144cd565b82525050565b5f610100820190506144fc5f83018b6143f4565b818103602083015261450e818a6140b4565b905061451d60408301896143f4565b61452a60608301886144be565b61453760808301876144d9565b61454460a08301866144d9565b61455160c083018561419a565b61455e60e083018461419a565b9998505050505050505050565b5f805f6060848603121561458257614581613fa7565b5b5f61458f8682870161412b565b93505060206145a0868287016141d8565b92505060406145b1868287016141d8565b9150509250925092565b5f805f80606085870312156145d3576145d2613fa7565b5b5f6145e08782880161412b565b94505060206145f1878288016141d8565b935050604085013567ffffffffffffffff81111561461257614611613fab565b5b61461e87828801614236565b925092505092959194509250565b6146358161402f565b811461463f575f80fd5b50565b5f813590506146508161462c565b92915050565b5f806040838503121561466c5761466b613fa7565b5b5f614679858286016141d8565b925050602061468a85828601614642565b9150509250929050565b5f80fd5b7f4e487b71000000000000000000000000000000000000000000000000000000005f52604160045260245ffd5b6146ce826140a4565b810181811067ffffffffffffffff821117156146ed576146ec614698565b5b80604052505050565b5f6146ff613f9e565b905061470b82826146c5565b919050565b5f67ffffffffffffffff82111561472a57614729614698565b5b614733826140a4565b9050602081019050919050565b828183375f83830152505050565b5f61476061475b84614710565b6146f6565b90508281526020810184848401111561477c5761477b614694565b5b614787848285614740565b509392505050565b5f82601f8301126147a3576147a261422a565b5b81356147b384826020860161474e565b91505092915050565b5f805f80608085870312156147d4576147d3613fa7565b5b5f6147e1878288016141d8565b94505060206147f2878288016141d8565b93505060406148038782880161412b565b925050606085013567ffffffffffffffff81111561482457614823613fab565b5b6148308782880161478f565b91505092959194509250565b5f806040838503121561485257614851613fa7565b5b5f61485f858286016141d8565b9250506020614870858286016141d8565b9150509250929050565b614883816144cd565b811461488d575f80fd5b50565b5f8135905061489e8161487a565b92915050565b5f805f805f608086880312156148bd576148bc613fa7565b5b5f86013567ffffffffffffffff8111156148da576148d9613fab565b5b6148e688828901614236565b955095505060206148f98882890161412b565b935050604061490a88828901614890565b925050606061491b88828901614890565b9150509295509295909350565b5f806040838503121561493e5761493d613fa7565b5b5f61494b8582860161412b565b925050602061495c8582860161412b565b9150509250929050565b5f6040820190508181035f83015261497e81856140b4565b905061498d602083018461419a565b9392505050565b7f4e487b71000000000000000000000000000000000000000000000000000000005f52602260045260245ffd5b5f60028204905060018216806149d857607f821691505b6020821081036149eb576149ea614994565b5b50919050565b7f4552433732313a20617070726f76616c20746f2063757272656e74206f776e655f8201527f7200000000000000000000000000000000000000000000000000000000000000602082015250565b5f614a4b60218361406c565b9150614a56826149f1565b604082019050919050565b5f6020820190508181035f830152614a7881614a3f565b9050919050565b7f4552433732313a20617070726f76652063616c6c6572206973206e6f7420746f5f8201527f6b656e206f776e6572206f7220617070726f76656420666f7220616c6c000000602082015250565b5f614ad9603d8361406c565b9150614ae482614a7f565b604082019050919050565b5f6020820190508181035f830152614b0681614acd565b9050919050565b7f57726f6e672069642073656e74000000000000000000000000000000000000005f82015250565b5f614b41600d8361406c565b9150614b4c82614b0d565b602082019050919050565b5f6020820190508181035f830152614b6e81614b35565b9050919050565b7f43616e6e6f7420626520656d70747900000000000000000000000000000000005f82015250565b5f614ba9600f8361406c565b9150614bb482614b75565b602082019050919050565b5f6020820190508181035f830152614bd681614b9d565b9050919050565b7f4e487b71000000000000000000000000000000000000000000000000000000005f52601160045260245ffd5b5f614c148261410c565b9150614c1f8361410c565b9250828203905081811115614c3757614c36614bdd565b5b92915050565b7f57616974203130730000000000000000000000000000000000000000000000005f82015250565b5f614c7160088361406c565b9150614c7c82614c3d565b602082019050919050565b5f6020820190508181035f830152614c9e81614c65565b9050919050565b5f819050815f5260205f209050919050565b5f6020601f8301049050919050565b5f82821b905092915050565b5f60088302614d017fffffffffffffffffffffffffffffffffffffffffffffffffffffffffffffffff82614cc6565b614d0b8683614cc6565b95508019841693508086168417925050509392505050565b5f819050919050565b5f614d46614d41614d3c8461410c565b614d23565b61410c565b9050919050565b5f819050919050565b614d5f83614d2c565b614d73614d6b82614d4d565b848454614cd2565b825550505050565b5f90565b614d87614d7b565b614d92818484614d56565b505050565b5b81811015614db557614daa5f82614d7f565b600181019050614d98565b5050565b601f821115614dfa57614dcb81614ca5565b614dd484614cb7565b81016020851015614de3578190505b614df7614def85614cb7565b830182614d97565b50505b505050565b5f82821c905092915050565b5f614e1a5f1984600802614dff565b1980831691505092915050565b5f614e328383614e0b565b9150826002028217905092915050565b614e4b82614062565b67ffffffffffffffff811115614e6457614e63614698565b5b614e6e82546149c1565b614e79828285614db9565b5f60209050601f831160018114614eaa575f8415614e98578287015190505b614ea28582614e27565b865550614f09565b601f198416614eb886614ca5565b5f5b82811015614edf57848901518255600182019150602085019450602081019050614eba565b86831015614efc5784890151614ef8601f891682614e0b565b8355505b6001600288020188555050505b505050505050565b5f604082019050614f245f8301856143f4565b614f31602083018461419a565b9392505050565b7f4552433732313a2063616c6c6572206973206e6f7420746f6b656e206f776e655f8201527f72206f7220617070726f76656400000000000000000000000000000000000000602082015250565b5f614f92602d8361406c565b9150614f9d82614f38565b604082019050919050565b5f6020820190508181035f830152614fbf81614f86565b9050919050565b7f416c7265616479207265676973746572656400000000000000000000000000005f82015250565b5f614ffa60128361406c565b915061500582614fc6565b602082019050919050565b5f6020820190508181035f83015261502781614fee565b9050919050565b7f4e487b71000000000000000000000000000000000000000000000000000000005f52603260045260245ffd5b5f615065826144cd565b91505f820361507757615076614bdd565b5b600182039050919050565b7f43616e6e6f7420626520746865207a65726f20616464726573730000000000005f82015250565b5f6150b6601a8361406c565b91506150c182615082565b602082019050919050565b5f6020820190508181035f8301526150e3816150aa565b9050919050565b7f4552433732313a20696e76616c696420746f6b656e20494400000000000000005f82015250565b5f61511e60188361406c565b9150615129826150ea565b602082019050919050565b5f6020820190508181035f83015261514b81615112565b9050919050565b7f4552433732313a2061646472657373207a65726f206973206e6f7420612076615f8201527f6c6964206f776e65720000000000000000000000000000000000000000000000602082015250565b5f6151ac60298361406c565b91506151b782615152565b604082019050919050565b5f6020820190508181035f8301526151d9816151a0565b9050919050565b7f53616d65206164647265737300000000000000000000000000000000000000005f82015250565b5f615214600c8361406c565b915061521f826151e0565b602082019050919050565b5f6020820190508181035f83015261524181615208565b9050919050565b7f4e6f7420726567697374657265640000000000000000000000000000000000005f82015250565b5f61527c600e8361406c565b915061528782615248565b602082019050919050565b5f6020820190508181035f8301526152a981615270565b9050919050565b7f466f7262696464656e00000000000000000000000000000000000000000000005f82015250565b5f6152e460098361406c565b91506152ef826152b0565b602082019050919050565b5f6020820190508181035f830152615311816152d8565b9050919050565b5f6153228261410c565b91507fffffffffffffffffffffffffffffffffffffffffffffffffffffffffffffffff820361535457615353614bdd565b5b600182019050919050565b5f81905092915050565b5f61537382614062565b61537d818561535f565b935061538d81856020860161407c565b80840191505092915050565b5f6153a48285615369565b91506153b08284615369565b91508190509392505050565b7f4f776e61626c653a206e6577206f776e657220697320746865207a65726f20615f8201527f6464726573730000000000000000000000000000000000000000000000000000602082015250565b5f61541660268361406c565b9150615421826153bc565b604082019050919050565b5f6020820190508181035f8301526154438161540a565b9050919050565b7f496e636f727265637420646174650000000000000000000000000000000000005f82015250565b5f61547e600e8361406c565b91506154898261544a565b602082019050919050565b5f6020820190508181035f8301526154ab81615472565b9050919050565b7f4e487b71000000000000000000000000000000000000000000000000000000005f52601260045260245ffd5b5f6154e9826144cd565b91506154f4836144cd565b925082615504576155036154b2565b5b828206905092915050565b7f506c6179656420627920320000000000000000000000000000000000000000005f82015250565b5f615543600b8361406c565b915061554e8261550f565b602082019050919050565b5f6020820190508181035f83015261557081615537565b9050919050565b7f496e636f727265637420646966666963756c74790000000000000000000000005f82015250565b5f6155ab60148361406c565b91506155b682615577565b602082019050919050565b5f6020820190508181035f8301526155d88161559f565b9050919050565b5f6155ea838561406c565b93506155f7838584614740565b615600836140a4565b840190509392505050565b5f6040820190508181035f8301526156248185876155df565b905061563360208301846143f4565b949350505050565b7f4552433732313a207472616e736665722066726f6d20696e636f7272656374205f8201527f6f776e6572000000000000000000000000000000000000000000000000000000602082015250565b5f61569560258361406c565b91506156a08261563b565b604082019050919050565b5f6020820190508181035f8301526156c281615689565b9050919050565b7f4552433732313a207472616e7366657220746f20746865207a65726f206164645f8201527f7265737300000000000000000000000000000000000000000000000000000000602082015250565b5f61572360248361406c565b915061572e826156c9565b604082019050919050565b5f6020820190508181035f83015261575081615717565b9050919050565b7f4f776e61626c653a2063616c6c6572206973206e6f7420746865206f776e65725f82015250565b5f61578b60208361406c565b915061579682615757565b602082019050919050565b5f6020820190508181035f8301526157b88161577f565b9050919050565b7f4552433732313a20617070726f766520746f2063616c6c6572000000000000005f82015250565b5f6157f360198361406c565b91506157fe826157bf565b602082019050919050565b5f6020820190508181035f830152615820816157e7565b9050919050565b7f4552433732313a207472616e7366657220746f206e6f6e2045524337323152655f8201527f63656976657220696d706c656d656e7465720000000000000000000000000000602082015250565b5f61588160328361406c565b915061588c82615827565b604082019050919050565b5f6020820190508181035f8301526158ae81615875565b9050919050565b7f4552433732313a206d696e7420746f20746865207a65726f20616464726573735f82015250565b5f6158e960208361406c565b91506158f4826158b5565b602082019050919050565b5f6020820190508181035f830152615916816158dd565b9050919050565b7f4552433732313a20746f6b656e20616c7265616479206d696e746564000000005f82015250565b5f615951601c8361406c565b915061595c8261591d565b602082019050919050565b5f6020820190508181035f83015261597e81615945565b9050919050565b7f45524337323155524953746f726167653a2055524920736574206f66206e6f6e5f8201527f6578697374656e7420746f6b656e000000000000000000000000000000000000602082015250565b5f6159df602e8361406c565b91506159ea82615985565b604082019050919050565b5f6020820190508181035f830152615a0c816159d3565b9050919050565b5f81519050919050565b5f82825260208201905092915050565b5f615a3782615a13565b615a418185615a1d565b9350615a5181856020860161407c565b615a5a816140a4565b840191505092915050565b5f608082019050615a785f83018761419a565b615a85602083018661419a565b615a9260408301856143f4565b8181036060830152615aa48184615a2d565b905095945050505050565b5f81519050615abd81613fda565b92915050565b5f60208284031215615ad857615ad7613fa7565b5b5f615ae584828501615aaf565b9150509291505056fe68747470733a2f2f676174657761792e70696e6174612e636c6f75642f697066732f516d657834754e376e6b586654365974325a71686d74636d5a4e6b536f44574a37534a56714a694d6156317a3479a2646970667358221220bbe2ef7847d89e1445e1bfa7251dab4d0d4ff6a7efbdf0cc450524ae8f4e9d8264736f6c63430008140033",
  "linkReferences": {},
  "deployedLinkReferences": {}
}