{"contracts/PadelConnect.sol":{"PadelConnect":{"abi":[{"inputs":[],"name":"CompleteTournament","type":"error"},{"inputs":[],"name":"ErrorDuringPayment","type":"error"},{"inputs":[],"name":"RegistrationEnded","type":"error"},{"anonymous":false,"inputs":[{"indexed":false,"internalType":"address","name":"_address","type":"address"}],"name":"ManagerAdded","type":"event"},{"anonymous":false,"inputs":[{"indexed":true,"internalType":"address","name":"previousOwner","type":"address"},{"indexed":true,"internalType":"address","name":"newOwner","type":"address"}],"name":"OwnershipTransferred","type":"event"},{"anonymous":false,"inputs":[{"indexed":false,"internalType":"uint256","name":"tournamentId","type":"uint256"}],"name":"TournamentCommentAdded","type":"event"},{"anonymous":false,"inputs":[{"indexed":false,"internalType":"uint256","name":"id","type":"uint256"}],"name":"TournamentCreated","type":"event"},{"anonymous":false,"inputs":[{"indexed":false,"internalType":"uint256","name":"tournamentId","type":"uint256"},{"indexed":false,"internalType":"address","name":"player","type":"address"}],"name":"TournamentFollowed","type":"event"},{"inputs":[{"internalType":"uint256","name":"_id","type":"uint256"},{"internalType":"string","name":"_message","type":"string"}],"name":"addComment","outputs":[],"stateMutability":"nonpayable","type":"function"},{"inputs":[{"internalType":"address","name":"_address","type":"address"}],"name":"addManager","outputs":[],"stateMutability":"nonpayable","type":"function"},{"inputs":[{"internalType":"uint256","name":"_id","type":"uint256"},{"internalType":"string","name":"_message","type":"string"}],"name":"addMessageToManager","outputs":[],"stateMutability":"nonpayable","type":"function"},{"inputs":[{"internalType":"uint256","name":"_id","type":"uint256"},{"internalType":"address","name":"_player","type":"address"},{"internalType":"string","name":"_message","type":"string"}],"name":"addResponseToPlayer","outputs":[],"stateMutability":"nonpayable","type":"function"},{"inputs":[{"internalType":"string","name":"_city","type":"string"},{"internalType":"uint256","name":"_date","type":"uint256"},{"internalType":"uint8","name":"_diff","type":"uint8"},{"internalType":"uint8","name":"_maxPlayers","type":"uint8"}],"name":"addTournament","outputs":[],"stateMutability":"nonpayable","type":"function"},{"inputs":[{"internalType":"uint256","name":"_id","type":"uint256"},{"internalType":"address","name":"_winner1","type":"address"},{"internalType":"address","name":"_winner2","type":"address"}],"name":"addWinners","outputs":[],"stateMutability":"nonpayable","type":"function"},{"inputs":[{"internalType":"uint256","name":"","type":"uint256"},{"internalType":"uint256","name":"","type":"uint256"}],"name":"comments","outputs":[{"internalType":"string","name":"message","type":"string"},{"internalType":"address","name":"author","type":"address"}],"stateMutability":"view","type":"function"},{"inputs":[{"internalType":"uint256","name":"_id","type":"uint256"},{"internalType":"bool","name":"_follow","type":"bool"}],"name":"followTournament","outputs":[],"stateMutability":"nonpayable","type":"function"},{"inputs":[{"internalType":"uint256","name":"","type":"uint256"},{"internalType":"address","name":"","type":"address"}],"name":"followedTournaments","outputs":[{"internalType":"bool","name":"","type":"bool"}],"stateMutability":"view","type":"function"},{"inputs":[{"internalType":"uint256","name":"_id","type":"uint256"}],"name":"getExchanges","outputs":[{"internalType":"address[]","name":"","type":"address[]"}],"stateMutability":"view","type":"function"},{"inputs":[{"internalType":"uint256","name":"_id","type":"uint256"},{"internalType":"address","name":"_player","type":"address"}],"name":"getMessagesManagerPlayer","outputs":[{"components":[{"internalType":"string","name":"message","type":"string"},{"internalType":"address","name":"author","type":"address"}],"internalType":"struct IPadelConnect.Comment[]","name":"","type":"tuple[]"}],"stateMutability":"view","type":"function"},{"inputs":[],"name":"getTournaments","outputs":[{"internalType":"uint256[]","name":"","type":"uint256[]"}],"stateMutability":"view","type":"function"},{"inputs":[{"internalType":"uint256","name":"","type":"uint256"}],"name":"idComments","outputs":[{"internalType":"uint256","name":"","type":"uint256"}],"stateMutability":"view","type":"function"},{"inputs":[{"internalType":"uint256","name":"","type":"uint256"}],"name":"linkManagerTournament","outputs":[{"internalType":"address","name":"","type":"address"}],"stateMutability":"view","type":"function"},{"inputs":[{"internalType":"address","name":"","type":"address"}],"name":"managers","outputs":[{"internalType":"bool","name":"","type":"bool"}],"stateMutability":"view","type":"function"},{"inputs":[],"name":"owner","outputs":[{"internalType":"address","name":"","type":"address"}],"stateMutability":"view","type":"function"},{"inputs":[{"internalType":"uint256","name":"","type":"uint256"},{"internalType":"address","name":"","type":"address"}],"name":"playersRegistered","outputs":[{"internalType":"bool","name":"","type":"bool"}],"stateMutability":"view","type":"function"},{"inputs":[{"internalType":"uint256","name":"_id","type":"uint256"}],"name":"registerPlayer","outputs":[],"stateMutability":"nonpayable","type":"function"},{"inputs":[],"name":"renounceOwnership","outputs":[],"stateMutability":"nonpayable","type":"function"},{"inputs":[{"internalType":"uint256","name":"","type":"uint256"}],"name":"tournaments","outputs":[{"internalType":"uint256","name":"id","type":"uint256"},{"internalType":"string","name":"city","type":"string"},{"internalType":"uint256","name":"date","type":"uint256"},{"internalType":"enum IPadelConnect.Difficulty","name":"difficulty","type":"uint8"},{"internalType":"uint8","name":"registrationsAvailable","type":"uint8"},{"internalType":"address","name":"winner1","type":"address"},{"internalType":"address","name":"winner2","type":"address"}],"stateMutability":"view","type":"function"},{"inputs":[{"internalType":"address","name":"newOwner","type":"address"}],"name":"transferOwnership","outputs":[],"stateMutability":"nonpayable","type":"function"}],"evm":{"bytecode":{"linkReferences":{},"object":"608060405234801562000010575f80fd5b5062000031620000256200003760201b60201c565b6200003e60201b60201c565b620000ff565b5f33905090565b5f805f9054906101000a900473ffffffffffffffffffffffffffffffffffffffff169050815f806101000a81548173ffffffffffffffffffffffffffffffffffffffff021916908373ffffffffffffffffffffffffffffffffffffffff1602179055508173ffffffffffffffffffffffffffffffffffffffff168173ffffffffffffffffffffffffffffffffffffffff167f8be0079c531659141344cd1fd0a4f28419497f9722a3daafe3b4186f6b6457e060405160405180910390a35050565b614fbf806200010d5f395ff3fe608060405234801561000f575f80fd5b5060043610610135575f3560e01c80638da5cb5b116100b6578063f2fde38b1161007a578063f2fde38b1461034b578063f52ec1cb14610367578063f7f20cb314610397578063f891e08b146103b5578063fc6c776f146103d1578063fdff9b4d1461040257610135565b80638da5cb5b146102a9578063998ac197146102c75780639b535ead146102e3578063aa7e568314610313578063d566a3821461032f57610135565b8063715018a6116100fd578063715018a6146102015780637503e1b71461020b57806375843aba14610241578063821644e6146102715780638a8da1f71461028d57610135565b80632d06177a1461013957806332e9f509146101555780633682fd03146101715780633ae48eb8146101a15780633b26f59c146101d1575b5f80fd5b610153600480360381019061014e9190613c5c565b610432565b005b61016f600480360381019061016a9190613cef565b61072a565b005b61018b60048036038101906101869190613d2d565b61095f565b6040516101989190613d67565b60405180910390f35b6101bb60048036038101906101b69190613d80565b610974565b6040516101c89190613dcd565b60405180910390f35b6101eb60048036038101906101e69190613d2d565b61099e565b6040516101f89190613e9d565b60405180910390f35b610209610a76565b005b61022560048036038101906102209190613d2d565b610a89565b6040516102389796959493929190613fe4565b60405180910390f35b61025b60048036038101906102569190613d80565b610bb4565b6040516102689190614195565b60405180910390f35b61028b60048036038101906102869190613d2d565b610f76565b005b6102a760048036038101906102a291906141b5565b61159c565b005b6102b1611cf2565b6040516102be9190614205565b60405180910390f35b6102e160048036038101906102dc919061427f565b611d19565b005b6102fd60048036038101906102f89190613d80565b61247d565b60405161030a9190613dcd565b60405180910390f35b61032d600480360381019061032891906142f0565b6124a7565b005b610349600480360381019061034491906142f0565b6129fb565b005b61036560048036038101906103609190613c5c565b613050565b005b610381600480360381019061037c9190613d2d565b6130d2565b60405161038e9190614205565b60405180910390f35b61039f613102565b6040516103ac9190614404565b60405180910390f35b6103cf60048036038101906103ca919061444e565b6131cf565b005b6103eb60048036038101906103e691906144d2565b6139c4565b6040516103f9929190614510565b60405180910390f35b61041c60048036038101906104179190613c5c565b613a94565b6040516104299190613dcd565b60405180910390f35b61044667689f4cde209a497360c01b613ab1565b61044e613ab4565b61046267ab10c85f25c98f2e60c01b613ab1565b61047667b4a811b2ac759c4260c01b613ab1565b8061048b670b2e3acb21715bbe60c01b613ab1565b61049f67ea7d12f063fb722660c01b613ab1565b6104b367e83f89c4f6e16ee560c01b613ab1565b6104c767024f5aae4fe51b2360c01b613ab1565b5f73ffffffffffffffffffffffffffffffffffffffff168173ffffffffffffffffffffffffffffffffffffffff1603610535576040517f08c379a000000000000000000000000000000000000000000000000000000000815260040161052c90614588565b60405180910390fd5b61054967169ddc1d15d0261b60c01b613ab1565b61055d672e372e7bc3fa8bca60c01b613ab1565b61057167d0e9744da12f202460c01b613ab1565b61058567f0ae531d7a80338560c01b613ab1565b61059967f1661627e25ee40060c01b613ab1565b6105ad6778614aaa5a034d9160c01b613ab1565b6105c167011e58451028586e60c01b613ab1565b60015f8373ffffffffffffffffffffffffffffffffffffffff1673ffffffffffffffffffffffffffffffffffffffff1681526020019081526020015f205f9054906101000a900460ff161561064b576040517f08c379a0000000000000000000000000000000000000000000000000000000008152600401610642906145f0565b60405180910390fd5b61065f6734ff631cae1e86e060c01b613ab1565b61067367c044a50b253da38960c01b613ab1565b6001805f8473ffffffffffffffffffffffffffffffffffffffff1673ffffffffffffffffffffffffffffffffffffffff1681526020019081526020015f205f6101000a81548160ff0219169083151502179055506106db674be5b7353a1a4ef560c01b613ab1565b6106ef675afa78e913041c8560c01b613ab1565b7f3b4a40cccf2058c593542587329dd385be4f0b588db5471fbd9598e56dd7093a8260405161071e9190614205565b60405180910390a15050565b61073e678e1d5fb0982bd7a960c01b613ab1565b81610753671ba29d8eed77b1e060c01b613ab1565b61076767b11f4080883007ba60c01b613ab1565b61077b67e80104790e0e51c060c01b613ab1565b61078f671a6fff257a44d79660c01b613ab1565b60048054905081106107d6576040517f08c379a00000000000000000000000000000000000000000000000000000000081526004016107cd90614658565b60405180910390fd5b6107ea6731b9f9a63a68e10a60c01b613ab1565b6107fe67c5a4257b9cd48c5860c01b613ab1565b61081267218294ec5025b41c60c01b613ab1565b61082667608d8e65591115c560c01b613ab1565b61083a67e27f408880caa56160c01b613ab1565b8160065f8581526020019081526020015f205f3373ffffffffffffffffffffffffffffffffffffffff1673ffffffffffffffffffffffffffffffffffffffff1681526020019081526020015f205f6101000a81548160ff0219169083151502179055506108b167ffd6cd46f0ab22ef60c01b613ab1565b6108c56741c34dc9a2f76b4660c01b613ab1565b8115610945576108df67d6a32e78560e134960c01b613ab1565b6108f367a95c04f421fd6b2960c01b613ab1565b61090767e5b89a134a07ff2d60c01b613ab1565b7fcebe1f0a5fde2bf224e75cda66447253a2b8003182e6074f2a65ec2b260080628333604051610938929190614676565b60405180910390a161095a565b6109596780e3bf37aff299d160c01b613ab1565b5b505050565b6008602052805f5260405f205f915090505481565b6006602052815f5260405f20602052805f5260405f205f915091509054906101000a900460ff1681565b60606109b467d7c1ca29e763e73e60c01b613ab1565b6109c867038528e343103e6460c01b613ab1565b6109dc67031c02eac39ca4bd60c01b613ab1565b600a5f8381526020019081526020015f20805480602002602001604051908101604052809291908181526020018280548015610a6a57602002820191905f5260205f20905b815f9054906101000a900473ffffffffffffffffffffffffffffffffffffffff1673ffffffffffffffffffffffffffffffffffffffff1681526020019060010190808311610a21575b50505050509050919050565b610a7e613ab4565b610a875f613b32565b565b60048181548110610a98575f80fd5b905f5260205f2090600502015f91509050805f015490806001018054610abd906146ca565b80601f0160208091040260200160405190810160405280929190818152602001828054610ae9906146ca565b8015610b345780601f10610b0b57610100808354040283529160200191610b34565b820191905f5260205f20905b815481529060010190602001808311610b1757829003601f168201915b505050505090806002015490806003015f9054906101000a900460ff16908060030160019054906101000a900460ff16908060030160029054906101000a900473ffffffffffffffffffffffffffffffffffffffff1690806004015f9054906101000a900473ffffffffffffffffffffffffffffffffffffffff16905087565b6060610bca67fcef2bd38135b5c060c01b613ab1565b82610bdf671ba29d8eed77b1e060c01b613ab1565b610bf367b11f4080883007ba60c01b613ab1565b610c0767e80104790e0e51c060c01b613ab1565b610c1b671a6fff257a44d79660c01b613ab1565b6004805490508110610c62576040517f08c379a0000000000000000000000000000000000000000000000000000000008152600401610c5990614658565b60405180910390fd5b610c766731b9f9a63a68e10a60c01b613ab1565b610c8a67c5a4257b9cd48c5860c01b613ab1565b610c9e671c09088c100c5bb860c01b613ab1565b610cb267d8f5c777e50d17e860c01b613ab1565b82610cc7670b2e3acb21715bbe60c01b613ab1565b610cdb67ea7d12f063fb722660c01b613ab1565b610cef67e83f89c4f6e16ee560c01b613ab1565b610d0367024f5aae4fe51b2360c01b613ab1565b5f73ffffffffffffffffffffffffffffffffffffffff168173ffffffffffffffffffffffffffffffffffffffff1603610d71576040517f08c379a0000000000000000000000000000000000000000000000000000000008152600401610d6890614588565b60405180910390fd5b610d8567169ddc1d15d0261b60c01b613ab1565b610d99672e372e7bc3fa8bca60c01b613ab1565b610dad673cc55aae5d4e776060c01b613ab1565b610dc167cd0528fc23831cb060c01b613ab1565b610dd567f84d0d6c2bfbe04160c01b613ab1565b610de9675afc53bc5793edd760c01b613ab1565b60095f8681526020019081526020015f205f8573ffffffffffffffffffffffffffffffffffffffff1673ffffffffffffffffffffffffffffffffffffffff1681526020019081526020015f20805480602002602001604051908101604052809291908181526020015f905b82821015610f68578382905f5260205f2090600202016040518060400160405290815f82018054610e84906146ca565b80601f0160208091040260200160405190810160405280929190818152602001828054610eb0906146ca565b8015610efb5780601f10610ed257610100808354040283529160200191610efb565b820191905f5260205f20905b815481529060010190602001808311610ede57829003601f168201915b50505050508152602001600182015f9054906101000a900473ffffffffffffffffffffffffffffffffffffffff1673ffffffffffffffffffffffffffffffffffffffff1673ffffffffffffffffffffffffffffffffffffffff168152505081526020019060010190610e54565b505050509250505092915050565b610f8a67cad2398320dffc2b60c01b613ab1565b80610f9f671ba29d8eed77b1e060c01b613ab1565b610fb367b11f4080883007ba60c01b613ab1565b610fc767e80104790e0e51c060c01b613ab1565b610fdb671a6fff257a44d79660c01b613ab1565b6004805490508110611022576040517f08c379a000000000000000000000000000000000000000000000000000000000815260040161101990614658565b60405180910390fd5b6110366731b9f9a63a68e10a60c01b613ab1565b61104a67c5a4257b9cd48c5860c01b613ab1565b61105e67da3f443c535732bf60c01b613ab1565b61107267f6dd22801d5f4ecd60c01b613ab1565b61108667447b4200e47a1a9160c01b613ab1565b61109a672d61d169bcafe39c60c01b613ab1565b6110ae6785bc71cfd31b46c960c01b613ab1565b60055f8381526020019081526020015f205f3373ffffffffffffffffffffffffffffffffffffffff1673ffffffffffffffffffffffffffffffffffffffff1681526020019081526020015f205f9054906101000a900460ff1615611147576040517f08c379a000000000000000000000000000000000000000000000000000000000815260040161113e906145f0565b60405180910390fd5b61115b670486345d3023e19f60c01b613ab1565b61116f67ac3cc86e6810295560c01b613ab1565b611183674aa7e7cc66eb3feb60c01b613ab1565b5f60048381548110611198576111976146fa565b5b905f5260205f2090600502016040518060e00160405290815f82015481526020016001820180546111c8906146ca565b80601f01602080910402602001604051908101604052809291908181526020018280546111f4906146ca565b801561123f5780601f106112165761010080835404028352916020019161123f565b820191905f5260205f20905b81548152906001019060200180831161122257829003601f168201915b5050505050815260200160028201548152602001600382015f9054906101000a900460ff16600581111561127657611275613f47565b5b600581111561128857611287613f47565b5b81526020016003820160019054906101000a900460ff1660ff1660ff1681526020016003820160029054906101000a900473ffffffffffffffffffffffffffffffffffffffff1673ffffffffffffffffffffffffffffffffffffffff1673ffffffffffffffffffffffffffffffffffffffff168152602001600482015f9054906101000a900473ffffffffffffffffffffffffffffffffffffffff1673ffffffffffffffffffffffffffffffffffffffff1673ffffffffffffffffffffffffffffffffffffffff1681525050905061136a67f0355a9f768f4e8c60c01b613ab1565b61137e67e833409f0260034960c01b613ab1565b42816040015110156113e45761139e671523b4bcee435c6a60c01b613ab1565b6113b26712c546456eb484ea60c01b613ab1565b6040517f2ee88f5000000000000000000000000000000000000000000000000000000000815260040160405180910390fd5b6113f8673f42c0500b59eee360c01b613ab1565b61140c671dd53c71f6f53aca60c01b613ab1565b61142067ad4978357a54add160c01b613ab1565b5f816080015160ff160361148857611442674a20e84793b99ded60c01b613ab1565b6114566763cdb287d0605eda60c01b613ab1565b6040517f106e2afe00000000000000000000000000000000000000000000000000000000815260040160405180910390fd5b61149c67e1aa6b2daaebd6ad60c01b613ab1565b6114b067b46c7b4d7ca9d50c60c01b613ab1565b600160055f8581526020019081526020015f205f3373ffffffffffffffffffffffffffffffffffffffff1673ffffffffffffffffffffffffffffffffffffffff1681526020019081526020015f205f6101000a81548160ff02191690831515021790555061152867c56decd4d191dd7e60c01b613ab1565b80608001805161153790614754565b60ff16908160ff168152505061155767e9b7d6260dd978c860c01b613ab1565b8060800151600484815481106115705761156f6146fa565b5b905f5260205f20906005020160030160016101000a81548160ff021916908360ff160217905550505050565b6115b067ae4f5163b6dc404260c01b613ab1565b826115c5671ba29d8eed77b1e060c01b613ab1565b6115d967b11f4080883007ba60c01b613ab1565b6115ed67e80104790e0e51c060c01b613ab1565b611601671a6fff257a44d79660c01b613ab1565b6004805490508110611648576040517f08c379a000000000000000000000000000000000000000000000000000000000815260040161163f90614658565b60405180910390fd5b61165c6731b9f9a63a68e10a60c01b613ab1565b61167067c5a4257b9cd48c5860c01b613ab1565b61168467c402ed7a1f89539e60c01b613ab1565b611698673da10a4deabede0760c01b613ab1565b83336116ae6780ee4d136c13e15a60c01b613ab1565b6116c26779e20414899381ea60c01b613ab1565b6116d667f7d3aa3db607396360c01b613ab1565b6116ea67ad44291b7ee41afc60c01b613ab1565b8073ffffffffffffffffffffffffffffffffffffffff1660025f8481526020019081526020015f205f9054906101000a900473ffffffffffffffffffffffffffffffffffffffff1673ffffffffffffffffffffffffffffffffffffffff1614611788576040517f08c379a000000000000000000000000000000000000000000000000000000000815260040161177f906147c5565b60405180910390fd5b61179c67939045f94a99d34360c01b613ab1565b6117b0674e0e7e368a911a7e60c01b613ab1565b6117c467e16584fa309253d060c01b613ab1565b6117d8678f02e6dc19fc2eb460c01b613ab1565b846117ed670b2e3acb21715bbe60c01b613ab1565b61180167ea7d12f063fb722660c01b613ab1565b61181567e83f89c4f6e16ee560c01b613ab1565b61182967024f5aae4fe51b2360c01b613ab1565b5f73ffffffffffffffffffffffffffffffffffffffff168173ffffffffffffffffffffffffffffffffffffffff1603611897576040517f08c379a000000000000000000000000000000000000000000000000000000000815260040161188e90614588565b60405180910390fd5b6118ab67169ddc1d15d0261b60c01b613ab1565b6118bf672e372e7bc3fa8bca60c01b613ab1565b6118d367b3ba48be81d3f23360c01b613ab1565b6118e7670139a444a72ce34260c01b613ab1565b846118fc670b2e3acb21715bbe60c01b613ab1565b61191067ea7d12f063fb722660c01b613ab1565b61192467e83f89c4f6e16ee560c01b613ab1565b61193867024f5aae4fe51b2360c01b613ab1565b5f73ffffffffffffffffffffffffffffffffffffffff168173ffffffffffffffffffffffffffffffffffffffff16036119a6576040517f08c379a000000000000000000000000000000000000000000000000000000000815260040161199d90614588565b60405180910390fd5b6119ba67169ddc1d15d0261b60c01b613ab1565b6119ce672e372e7bc3fa8bca60c01b613ab1565b6119e2674974ca0c608bcc8760c01b613ab1565b6119f667e0ce92bbc1eb5aa960c01b613ab1565b611a0a67fb45952b07f8317460c01b613ab1565b611a1e67dd13a8f4dda0165f60c01b613ab1565b611a32676ded64f56118314560c01b613ab1565b8573ffffffffffffffffffffffffffffffffffffffff168773ffffffffffffffffffffffffffffffffffffffff1603611aa0576040517f08c379a0000000000000000000000000000000000000000000000000000000008152600401611a979061482d565b60405180910390fd5b611ab467ce8d6d047f6c499560c01b613ab1565b611ac867080337767f3a8c5160c01b613ab1565b611adc67e5513536f79c600360c01b613ab1565b611af06723b7f49c13d1553660c01b613ab1565b60055f8981526020019081526020015f205f8873ffffffffffffffffffffffffffffffffffffffff1673ffffffffffffffffffffffffffffffffffffffff1681526020019081526020015f205f9054906101000a900460ff168015611baa575060055f8981526020019081526020015f205f8773ffffffffffffffffffffffffffffffffffffffff1673ffffffffffffffffffffffffffffffffffffffff1681526020019081526020015f205f9054906101000a900460ff165b611be9576040517f08c379a0000000000000000000000000000000000000000000000000000000008152600401611be090614895565b60405180910390fd5b611bfd67f5009432778e762e60c01b613ab1565b611c1167dfcbc83d97cc07e660c01b613ab1565b8660048981548110611c2657611c256146fa565b5b905f5260205f20906005020160030160026101000a81548173ffffffffffffffffffffffffffffffffffffffff021916908373ffffffffffffffffffffffffffffffffffffffff160217905550611c8767e162619d25464dde60c01b613ab1565b8560048981548110611c9c57611c9b6146fa565b5b905f5260205f2090600502016004015f6101000a81548173ffffffffffffffffffffffffffffffffffffffff021916908373ffffffffffffffffffffffffffffffffffffffff1602179055505050505050505050565b5f805f9054906101000a900473ffffffffffffffffffffffffffffffffffffffff16905090565b611d2d67417b467af684f5de60c01b613ab1565b83611d42671ba29d8eed77b1e060c01b613ab1565b611d5667b11f4080883007ba60c01b613ab1565b611d6a67e80104790e0e51c060c01b613ab1565b611d7e671a6fff257a44d79660c01b613ab1565b6004805490508110611dc5576040517f08c379a0000000000000000000000000000000000000000000000000000000008152600401611dbc90614658565b60405180910390fd5b611dd96731b9f9a63a68e10a60c01b613ab1565b611ded67c5a4257b9cd48c5860c01b613ab1565b611e0167b86177c80999835360c01b613ab1565b611e1567dd9b42dd88836b7260c01b613ab1565b8433611e2b6780ee4d136c13e15a60c01b613ab1565b611e3f6779e20414899381ea60c01b613ab1565b611e5367f7d3aa3db607396360c01b613ab1565b611e6767ad44291b7ee41afc60c01b613ab1565b8073ffffffffffffffffffffffffffffffffffffffff1660025f8481526020019081526020015f205f9054906101000a900473ffffffffffffffffffffffffffffffffffffffff1673ffffffffffffffffffffffffffffffffffffffff1614611f05576040517f08c379a0000000000000000000000000000000000000000000000000000000008152600401611efc906147c5565b60405180910390fd5b611f1967939045f94a99d34360c01b613ab1565b611f2d674e0e7e368a911a7e60c01b613ab1565b611f4167db53cdd1cab509be60c01b613ab1565b611f55674afd5506273d90d560c01b613ab1565b85611f6a670b2e3acb21715bbe60c01b613ab1565b611f7e67ea7d12f063fb722660c01b613ab1565b611f9267e83f89c4f6e16ee560c01b613ab1565b611fa667024f5aae4fe51b2360c01b613ab1565b5f73ffffffffffffffffffffffffffffffffffffffff168173ffffffffffffffffffffffffffffffffffffffff1603612014576040517f08c379a000000000000000000000000000000000000000000000000000000000815260040161200b90614588565b60405180910390fd5b61202867169ddc1d15d0261b60c01b613ab1565b61203c672e372e7bc3fa8bca60c01b613ab1565b6120506729dd5aec82638d2660c01b613ab1565b61206467e4fc23367d430da760c01b613ab1565b85858080601f0160208091040260200160405190810160405280939291908181526020018383808284375f81840152601f19601f820116905080830192505050505050506120bc67534646307bdf4a8160c01b613ab1565b6120d067cac778f577a97c1260c01b613ab1565b6120e467f1d88e229385115d60c01b613ab1565b6120f86786026ed335a0a6a560c01b613ab1565b5f81511161213b576040517f08c379a0000000000000000000000000000000000000000000000000000000008152600401612132906148fd565b60405180910390fd5b61214f67bc821ac6ffc9e29760c01b613ab1565b6121636716e1665dbd85d4a960c01b613ab1565b61217767fc361372daa7a7f760c01b613ab1565b61218b678737d875f26eb51460c01b613ab1565b336121a067b5656abd29e474ca60c01b613ab1565b6121b46741a323ef344d4cc260c01b613ab1565b6121c867ddbc0eb3a56a9fb860c01b613ab1565b6121dc670929ae5df5d5d6a860c01b613ab1565b6002426121e9919061491b565b600b5f3373ffffffffffffffffffffffffffffffffffffffff1673ffffffffffffffffffffffffffffffffffffffff1681526020019081526020015f205410612267576040517f08c379a000000000000000000000000000000000000000000000000000000000815260040161225e90614998565b60405180910390fd5b61227b6715b3bb904d3e19bd60c01b613ab1565b61228f67436fce33529549db60c01b613ab1565b6122a367b90f5aa95537bb9c60c01b613ab1565b6122b7678b35a3a7449e014060c01b613ab1565b6122cb673c227404b28c8c3360c01b613ab1565b6122df6737fa2199c6aeac7b60c01b613ab1565b60095f8b81526020019081526020015f205f8a73ffffffffffffffffffffffffffffffffffffffff1673ffffffffffffffffffffffffffffffffffffffff1681526020019081526020015f2060405180604001604052808a8a8080601f0160208091040260200160405190810160405280939291908181526020018383808284375f81840152601f19601f8201169050808301925050505050505081526020013373ffffffffffffffffffffffffffffffffffffffff16815250908060018154018082558091505060019003905f5260205f2090600202015f909190919091505f820151815f0190816123d29190614b80565b506020820151816001015f6101000a81548173ffffffffffffffffffffffffffffffffffffffff021916908373ffffffffffffffffffffffffffffffffffffffff160217905550505061242f677fd927cd700b487460c01b613ab1565b42600b5f3373ffffffffffffffffffffffffffffffffffffffff1673ffffffffffffffffffffffffffffffffffffffff1681526020019081526020015f208190555050505050505050505050565b6005602052815f5260405f20602052805f5260405f205f915091509054906101000a900460ff1681565b6124bb67348b96d5473b77df60c01b613ab1565b826124d0671ba29d8eed77b1e060c01b613ab1565b6124e467b11f4080883007ba60c01b613ab1565b6124f867e80104790e0e51c060c01b613ab1565b61250c671a6fff257a44d79660c01b613ab1565b6004805490508110612553576040517f08c379a000000000000000000000000000000000000000000000000000000000815260040161254a90614658565b60405180910390fd5b6125676731b9f9a63a68e10a60c01b613ab1565b61257b67c5a4257b9cd48c5860c01b613ab1565b61258f675176c636220a411560c01b613ab1565b6125a367cbe4a78de443b92260c01b613ab1565b82828080601f0160208091040260200160405190810160405280939291908181526020018383808284375f81840152601f19601f820116905080830192505050505050506125fb67534646307bdf4a8160c01b613ab1565b61260f67cac778f577a97c1260c01b613ab1565b61262367f1d88e229385115d60c01b613ab1565b6126376786026ed335a0a6a560c01b613ab1565b5f81511161267a576040517f08c379a0000000000000000000000000000000000000000000000000000000008152600401612671906148fd565b60405180910390fd5b61268e67bc821ac6ffc9e29760c01b613ab1565b6126a26716e1665dbd85d4a960c01b613ab1565b6126b66739c3b2106424a8b560c01b613ab1565b6126ca67483e2202178e5db960c01b613ab1565b336126df67b5656abd29e474ca60c01b613ab1565b6126f36741a323ef344d4cc260c01b613ab1565b61270767ddbc0eb3a56a9fb860c01b613ab1565b61271b670929ae5df5d5d6a860c01b613ab1565b600242612728919061491b565b600b5f3373ffffffffffffffffffffffffffffffffffffffff1673ffffffffffffffffffffffffffffffffffffffff1681526020019081526020015f2054106127a6576040517f08c379a000000000000000000000000000000000000000000000000000000000815260040161279d90614998565b60405180910390fd5b6127ba6715b3bb904d3e19bd60c01b613ab1565b6127ce67436fce33529549db60c01b613ab1565b6127e267edc281167afead0c60c01b613ab1565b6127f6674527e2fd8b90453360c01b613ab1565b61280a675bae4ce2a89b31bd60c01b613ab1565b604051806040016040528086868080601f0160208091040260200160405190810160405280939291908181526020018383808284375f81840152601f19601f8201169050808301925050505050505081526020013373ffffffffffffffffffffffffffffffffffffffff1681525060075f8881526020019081526020015f205f60085f8a81526020019081526020015f205481526020019081526020015f205f820151815f0190816128bc9190614b80565b506020820151816001015f6101000a81548173ffffffffffffffffffffffffffffffffffffffff021916908373ffffffffffffffffffffffffffffffffffffffff16021790555090505061291a6737642f3319b6275560c01b613ab1565b60085f8781526020019081526020015f205f815461293790614c4f565b91905081905550612952673f860a40858c2eaa60c01b613ab1565b42600b5f3373ffffffffffffffffffffffffffffffffffffffff1673ffffffffffffffffffffffffffffffffffffffff1681526020019081526020015f20819055506129a8677d1184ce5113ef8760c01b613ab1565b6129bc676ce697a65ed87c7560c01b613ab1565b7f3021694d1ef819d2b9bc13c595d4f75437b6bbbb2dd33e9f2a9df24534f6b559866040516129eb9190613d67565b60405180910390a1505050505050565b612a0f675054f70cd4b13fe360c01b613ab1565b82612a24671ba29d8eed77b1e060c01b613ab1565b612a3867b11f4080883007ba60c01b613ab1565b612a4c67e80104790e0e51c060c01b613ab1565b612a60671a6fff257a44d79660c01b613ab1565b6004805490508110612aa7576040517f08c379a0000000000000000000000000000000000000000000000000000000008152600401612a9e90614658565b60405180910390fd5b612abb6731b9f9a63a68e10a60c01b613ab1565b612acf67c5a4257b9cd48c5860c01b613ab1565b612ae367e1ca050d711e063560c01b613ab1565b612af76709abbc435546602860c01b613ab1565b82828080601f0160208091040260200160405190810160405280939291908181526020018383808284375f81840152601f19601f82011690508083019250505050505050612b4f67534646307bdf4a8160c01b613ab1565b612b6367cac778f577a97c1260c01b613ab1565b612b7767f1d88e229385115d60c01b613ab1565b612b8b6786026ed335a0a6a560c01b613ab1565b5f815111612bce576040517f08c379a0000000000000000000000000000000000000000000000000000000008152600401612bc5906148fd565b60405180910390fd5b612be267bc821ac6ffc9e29760c01b613ab1565b612bf66716e1665dbd85d4a960c01b613ab1565b612c0a67ddd1d1f1344624ca60c01b613ab1565b612c1e67afe9573400ef5ae860c01b613ab1565b33612c3367b5656abd29e474ca60c01b613ab1565b612c476741a323ef344d4cc260c01b613ab1565b612c5b67ddbc0eb3a56a9fb860c01b613ab1565b612c6f670929ae5df5d5d6a860c01b613ab1565b600242612c7c919061491b565b600b5f3373ffffffffffffffffffffffffffffffffffffffff1673ffffffffffffffffffffffffffffffffffffffff1681526020019081526020015f205410612cfa576040517f08c379a0000000000000000000000000000000000000000000000000000000008152600401612cf190614998565b60405180910390fd5b612d0e6715b3bb904d3e19bd60c01b613ab1565b612d2267436fce33529549db60c01b613ab1565b612d36674f4ae9eae6261ab760c01b613ab1565b612d4a672fe132506cc0a6a960c01b613ab1565b612d5e67ec6de968745e66be60c01b613ab1565b612d7267fcec784388dafd2b60c01b613ab1565b60095f8781526020019081526020015f205f3373ffffffffffffffffffffffffffffffffffffffff1673ffffffffffffffffffffffffffffffffffffffff1681526020019081526020015f20604051806040016040528087878080601f0160208091040260200160405190810160405280939291908181526020018383808284375f81840152601f19601f8201169050808301925050505050505081526020013373ffffffffffffffffffffffffffffffffffffffff16815250908060018154018082558091505060019003905f5260205f2090600202015f909190919091505f820151815f019081612e659190614b80565b506020820151816001015f6101000a81548173ffffffffffffffffffffffffffffffffffffffff021916908373ffffffffffffffffffffffffffffffffffffffff1602179055505050612ec2676a6dfab48d04974760c01b613ab1565b42600b5f3373ffffffffffffffffffffffffffffffffffffffff1673ffffffffffffffffffffffffffffffffffffffff1681526020019081526020015f2081905550612f1867405b52bec2fa3ce860c01b613ab1565b612f2c677f207324d5a225f860c01b613ab1565b600160095f8881526020019081526020015f205f3373ffffffffffffffffffffffffffffffffffffffff1673ffffffffffffffffffffffffffffffffffffffff1681526020019081526020015f20805490500361303357612f9767b0a28e2338b0c79a60c01b613ab1565b612fab67a433f95be653046960c01b613ab1565b612fbf6727e46b860771e6ab60c01b613ab1565b600a5f8781526020019081526020015f2033908060018154018082558091505060019003905f5260205f20015f9091909190916101000a81548173ffffffffffffffffffffffffffffffffffffffff021916908373ffffffffffffffffffffffffffffffffffffffff160217905550613048565b61304767167da6f0fa915c3160c01b613ab1565b5b505050505050565b613058613ab4565b5f73ffffffffffffffffffffffffffffffffffffffff168173ffffffffffffffffffffffffffffffffffffffff16036130c6576040517f08c379a00000000000000000000000000000000000000000000000000000000081526004016130bd90614d06565b60405180910390fd5b6130cf81613b32565b50565b6002602052805f5260405f205f915054906101000a900473ffffffffffffffffffffffffffffffffffffffff1681565b606061311867bfdcf73043f6d74260c01b613ab1565b61312c67c50ed91854f8deec60c01b613ab1565b61314067684490f89acb985160c01b613ab1565b60035f3373ffffffffffffffffffffffffffffffffffffffff1673ffffffffffffffffffffffffffffffffffffffff1681526020019081526020015f208054806020026020016040519081016040528092919081815260200182805480156131c557602002820191905f5260205f20905b8154815260200190600101908083116131b1575b5050505050905090565b6131e3676166d923bb8f2dc360c01b613ab1565b6131f7678b556308549c917660c01b613ab1565b61320b6735550cfcc723e96e60c01b613ab1565b61321f67050dbb595625c39260c01b613ab1565b61323367a9fc9a1aa2fe3b4c60c01b613ab1565b60015f3373ffffffffffffffffffffffffffffffffffffffff1673ffffffffffffffffffffffffffffffffffffffff1681526020019081526020015f205f9054906101000a900460ff166132bc576040517f08c379a00000000000000000000000000000000000000000000000000000000081526004016132b390614d6e565b60405180910390fd5b6132d06792cfb29ad869f4d660c01b613ab1565b6132e4677ba2005878455edf60c01b613ab1565b6132f867f94f0456e369d63d60c01b613ab1565b61330c67c98230354c0f01c260c01b613ab1565b84848080601f0160208091040260200160405190810160405280939291908181526020018383808284375f81840152601f19601f8201169050808301925050505050505061336467534646307bdf4a8160c01b613ab1565b61337867cac778f577a97c1260c01b613ab1565b61338c67f1d88e229385115d60c01b613ab1565b6133a06786026ed335a0a6a560c01b613ab1565b5f8151116133e3576040517f08c379a00000000000000000000000000000000000000000000000000000000081526004016133da906148fd565b60405180910390fd5b6133f767bc821ac6ffc9e29760c01b613ab1565b61340b6716e1665dbd85d4a960c01b613ab1565b61341f67764cb665d8f91c9d60c01b613ab1565b613433674c932a98db8769d760c01b613ab1565b61344767992550c663104b1160c01b613ab1565b61345b67d7d5e35e96b2af7060c01b613ab1565b61346f679c3ec0d89db42fcf60c01b613ab1565b4284116134b1576040517f08c379a00000000000000000000000000000000000000000000000000000000081526004016134a890614dd6565b60405180910390fd5b6134c567285e0f8f02f98fe960c01b613ab1565b6134d9675ebaa6fbd236d72f60c01b613ab1565b6134ed679e0f407d67bae71260c01b613ab1565b61350167c264aa29afa4007860c01b613ab1565b5f8260ff1611801561352157505f60028361351c9190614e21565b60ff16145b613560576040517f08c379a000000000000000000000000000000000000000000000000000000000815260040161355790614e9b565b60405180910390fd5b6135746775c933371c2ae7cf60c01b613ab1565b61358867e822dd1ac0fdbf6760c01b613ab1565b61359c67919ca10884fb879160c01b613ab1565b6135b067022af9a369c1302160c01b613ab1565b6005808111156135c3576135c2613f47565b5b8360ff161115613608576040517f08c379a00000000000000000000000000000000000000000000000000000000081526004016135ff90614f03565b60405180910390fd5b61361c67eee5e586ec85419c60c01b613ab1565b61363067c193eb482248e4ea60c01b613ab1565b613644674df230151f34e51a60c01b613ab1565b5f60048054905090506136616760a0782ae40c726360c01b613ab1565b613675674d4645adc300b90960c01b613ab1565b60046040518060e0016040528083815260200189898080601f0160208091040260200160405190810160405280939291908181526020018383808284375f81840152601f19601f8201169050808301925050505050505081526020018781526020018660ff1660058111156136ed576136ec613f47565b5b60058111156136ff576136fe613f47565b5b81526020018560ff1681526020015f73ffffffffffffffffffffffffffffffffffffffff1681526020015f73ffffffffffffffffffffffffffffffffffffffff16815250908060018154018082558091505060019003905f5260205f2090600502015f909190919091505f820151815f015560208201518160010190816137869190614b80565b50604082015181600201556060820151816003015f6101000a81548160ff021916908360058111156137bb576137ba613f47565b5b021790555060808201518160030160016101000a81548160ff021916908360ff16021790555060a08201518160030160026101000a81548173ffffffffffffffffffffffffffffffffffffffff021916908373ffffffffffffffffffffffffffffffffffffffff16021790555060c0820151816004015f6101000a81548173ffffffffffffffffffffffffffffffffffffffff021916908373ffffffffffffffffffffffffffffffffffffffff160217905550505061388467770119844f62f0b560c01b613ab1565b3360025f8381526020019081526020015f205f6101000a81548173ffffffffffffffffffffffffffffffffffffffff021916908373ffffffffffffffffffffffffffffffffffffffff1602179055506138e7671fd15717e27ac43e60c01b613ab1565b6138fb67537282f20804809260c01b613ab1565b60035f3373ffffffffffffffffffffffffffffffffffffffff1673ffffffffffffffffffffffffffffffffffffffff1681526020019081526020015f2081908060018154018082558091505060019003905f5260205f20015f909190919091505561397067e1832cd68681621860c01b613ab1565b613984670e48f19cac9af8aa60c01b613ab1565b7f113d32d0b7aec15a8c7f50af4cb42f4695e5b95524ed69519ac88d6c1f1f40f6816040516139b39190613d67565b60405180910390a150505050505050565b6007602052815f5260405f20602052805f5260405f205f9150915050805f0180546139ee906146ca565b80601f0160208091040260200160405190810160405280929190818152602001828054613a1a906146ca565b8015613a655780601f10613a3c57610100808354040283529160200191613a65565b820191905f5260205f20905b815481529060010190602001808311613a4857829003601f168201915b505050505090806001015f9054906101000a900473ffffffffffffffffffffffffffffffffffffffff16905082565b6001602052805f5260405f205f915054906101000a900460ff1681565b50565b613abc613bf3565b73ffffffffffffffffffffffffffffffffffffffff16613ada611cf2565b73ffffffffffffffffffffffffffffffffffffffff1614613b30576040517f08c379a0000000000000000000000000000000000000000000000000000000008152600401613b2790614f6b565b60405180910390fd5b565b5f805f9054906101000a900473ffffffffffffffffffffffffffffffffffffffff169050815f806101000a81548173ffffffffffffffffffffffffffffffffffffffff021916908373ffffffffffffffffffffffffffffffffffffffff1602179055508173ffffffffffffffffffffffffffffffffffffffff168173ffffffffffffffffffffffffffffffffffffffff167f8be0079c531659141344cd1fd0a4f28419497f9722a3daafe3b4186f6b6457e060405160405180910390a35050565b5f33905090565b5f80fd5b5f80fd5b5f73ffffffffffffffffffffffffffffffffffffffff82169050919050565b5f613c2b82613c02565b9050919050565b613c3b81613c21565b8114613c45575f80fd5b50565b5f81359050613c5681613c32565b92915050565b5f60208284031215613c7157613c70613bfa565b5b5f613c7e84828501613c48565b91505092915050565b5f819050919050565b613c9981613c87565b8114613ca3575f80fd5b50565b5f81359050613cb481613c90565b92915050565b5f8115159050919050565b613cce81613cba565b8114613cd8575f80fd5b50565b5f81359050613ce981613cc5565b92915050565b5f8060408385031215613d0557613d04613bfa565b5b5f613d1285828601613ca6565b9250506020613d2385828601613cdb565b9150509250929050565b5f60208284031215613d4257613d41613bfa565b5b5f613d4f84828501613ca6565b91505092915050565b613d6181613c87565b82525050565b5f602082019050613d7a5f830184613d58565b92915050565b5f8060408385031215613d9657613d95613bfa565b5b5f613da385828601613ca6565b9250506020613db485828601613c48565b9150509250929050565b613dc781613cba565b82525050565b5f602082019050613de05f830184613dbe565b92915050565b5f81519050919050565b5f82825260208201905092915050565b5f819050602082019050919050565b613e1881613c21565b82525050565b5f613e298383613e0f565b60208301905092915050565b5f602082019050919050565b5f613e4b82613de6565b613e558185613df0565b9350613e6083613e00565b805f5b83811015613e90578151613e778882613e1e565b9750613e8283613e35565b925050600181019050613e63565b5085935050505092915050565b5f6020820190508181035f830152613eb58184613e41565b905092915050565b5f81519050919050565b5f82825260208201905092915050565b5f5b83811015613ef4578082015181840152602081019050613ed9565b5f8484015250505050565b5f601f19601f8301169050919050565b5f613f1982613ebd565b613f238185613ec7565b9350613f33818560208601613ed7565b613f3c81613eff565b840191505092915050565b7f4e487b71000000000000000000000000000000000000000000000000000000005f52602160045260245ffd5b60068110613f8557613f84613f47565b5b50565b5f819050613f9582613f74565b919050565b5f613fa482613f88565b9050919050565b613fb481613f9a565b82525050565b5f60ff82169050919050565b613fcf81613fba565b82525050565b613fde81613c21565b82525050565b5f60e082019050613ff75f83018a613d58565b81810360208301526140098189613f0f565b90506140186040830188613d58565b6140256060830187613fab565b6140326080830186613fc6565b61403f60a0830185613fd5565b61404c60c0830184613fd5565b98975050505050505050565b5f81519050919050565b5f82825260208201905092915050565b5f819050602082019050919050565b5f82825260208201905092915050565b5f61409b82613ebd565b6140a58185614081565b93506140b5818560208601613ed7565b6140be81613eff565b840191505092915050565b5f604083015f8301518482035f8601526140e38282614091565b91505060208301516140f86020860182613e0f565b508091505092915050565b5f61410e83836140c9565b905092915050565b5f602082019050919050565b5f61412c82614058565b6141368185614062565b93508360208202850161414885614072565b805f5b8581101561418357848403895281516141648582614103565b945061416f83614116565b925060208a0199505060018101905061414b565b50829750879550505050505092915050565b5f6020820190508181035f8301526141ad8184614122565b905092915050565b5f805f606084860312156141cc576141cb613bfa565b5b5f6141d986828701613ca6565b93505060206141ea86828701613c48565b92505060406141fb86828701613c48565b9150509250925092565b5f6020820190506142185f830184613fd5565b92915050565b5f80fd5b5f80fd5b5f80fd5b5f8083601f84011261423f5761423e61421e565b5b8235905067ffffffffffffffff81111561425c5761425b614222565b5b60208301915083600182028301111561427857614277614226565b5b9250929050565b5f805f806060858703121561429757614296613bfa565b5b5f6142a487828801613ca6565b94505060206142b587828801613c48565b935050604085013567ffffffffffffffff8111156142d6576142d5613bfe565b5b6142e28782880161422a565b925092505092959194509250565b5f805f6040848603121561430757614306613bfa565b5b5f61431486828701613ca6565b935050602084013567ffffffffffffffff81111561433557614334613bfe565b5b6143418682870161422a565b92509250509250925092565b5f81519050919050565b5f82825260208201905092915050565b5f819050602082019050919050565b61437f81613c87565b82525050565b5f6143908383614376565b60208301905092915050565b5f602082019050919050565b5f6143b28261434d565b6143bc8185614357565b93506143c783614367565b805f5b838110156143f75781516143de8882614385565b97506143e98361439c565b9250506001810190506143ca565b5085935050505092915050565b5f6020820190508181035f83015261441c81846143a8565b905092915050565b61442d81613fba565b8114614437575f80fd5b50565b5f8135905061444881614424565b92915050565b5f805f805f6080868803121561446757614466613bfa565b5b5f86013567ffffffffffffffff81111561448457614483613bfe565b5b6144908882890161422a565b955095505060206144a388828901613ca6565b93505060406144b48882890161443a565b92505060606144c58882890161443a565b9150509295509295909350565b5f80604083850312156144e8576144e7613bfa565b5b5f6144f585828601613ca6565b925050602061450685828601613ca6565b9150509250929050565b5f6040820190508181035f8301526145288185613f0f565b90506145376020830184613fd5565b9392505050565b7f43616e6e6f7420626520746865207a65726f20616464726573730000000000005f82015250565b5f614572601a83613ec7565b915061457d8261453e565b602082019050919050565b5f6020820190508181035f83015261459f81614566565b9050919050565b7f416c7265616479207265676973746572656400000000000000000000000000005f82015250565b5f6145da601283613ec7565b91506145e5826145a6565b602082019050919050565b5f6020820190508181035f830152614607816145ce565b9050919050565b7f57726f6e672069642073656e74000000000000000000000000000000000000005f82015250565b5f614642600d83613ec7565b915061464d8261460e565b602082019050919050565b5f6020820190508181035f83015261466f81614636565b9050919050565b5f6040820190506146895f830185613d58565b6146966020830184613fd5565b9392505050565b7f4e487b71000000000000000000000000000000000000000000000000000000005f52602260045260245ffd5b5f60028204905060018216806146e157607f821691505b6020821081036146f4576146f361469d565b5b50919050565b7f4e487b71000000000000000000000000000000000000000000000000000000005f52603260045260245ffd5b7f4e487b71000000000000000000000000000000000000000000000000000000005f52601160045260245ffd5b5f61475e82613fba565b91505f82036147705761476f614727565b5b600182039050919050565b7f4e6f7420746865206d616e6167657200000000000000000000000000000000005f82015250565b5f6147af600f83613ec7565b91506147ba8261477b565b602082019050919050565b5f6020820190508181035f8301526147dc816147a3565b9050919050565b7f53616d65206164647265737300000000000000000000000000000000000000005f82015250565b5f614817600c83613ec7565b9150614822826147e3565b602082019050919050565b5f6020820190508181035f8301526148448161480b565b9050919050565b7f4e6f7420726567697374657265640000000000000000000000000000000000005f82015250565b5f61487f600e83613ec7565b915061488a8261484b565b602082019050919050565b5f6020820190508181035f8301526148ac81614873565b9050919050565b7f43616e6e6f7420626520656d70747900000000000000000000000000000000005f82015250565b5f6148e7600f83613ec7565b91506148f2826148b3565b602082019050919050565b5f6020820190508181035f830152614914816148db565b9050919050565b5f61492582613c87565b915061493083613c87565b925082820390508181111561494857614947614727565b5b92915050565b7f57616974203273000000000000000000000000000000000000000000000000005f82015250565b5f614982600783613ec7565b915061498d8261494e565b602082019050919050565b5f6020820190508181035f8301526149af81614976565b9050919050565b7f4e487b71000000000000000000000000000000000000000000000000000000005f52604160045260245ffd5b5f819050815f5260205f209050919050565b5f6020601f8301049050919050565b5f82821b905092915050565b5f60088302614a3f7fffffffffffffffffffffffffffffffffffffffffffffffffffffffffffffffff82614a04565b614a498683614a04565b95508019841693508086168417925050509392505050565b5f819050919050565b5f614a84614a7f614a7a84613c87565b614a61565b613c87565b9050919050565b5f819050919050565b614a9d83614a6a565b614ab1614aa982614a8b565b848454614a10565b825550505050565b5f90565b614ac5614ab9565b614ad0818484614a94565b505050565b5b81811015614af357614ae85f82614abd565b600181019050614ad6565b5050565b601f821115614b3857614b09816149e3565b614b12846149f5565b81016020851015614b21578190505b614b35614b2d856149f5565b830182614ad5565b50505b505050565b5f82821c905092915050565b5f614b585f1984600802614b3d565b1980831691505092915050565b5f614b708383614b49565b9150826002028217905092915050565b614b8982613ebd565b67ffffffffffffffff811115614ba257614ba16149b6565b5b614bac82546146ca565b614bb7828285614af7565b5f60209050601f831160018114614be8575f8415614bd6578287015190505b614be08582614b65565b865550614c47565b601f198416614bf6866149e3565b5f5b82811015614c1d57848901518255600182019150602085019450602081019050614bf8565b86831015614c3a5784890151614c36601f891682614b49565b8355505b6001600288020188555050505b505050505050565b5f614c5982613c87565b91507fffffffffffffffffffffffffffffffffffffffffffffffffffffffffffffffff8203614c8b57614c8a614727565b5b600182019050919050565b7f4f776e61626c653a206e6577206f776e657220697320746865207a65726f20615f8201527f6464726573730000000000000000000000000000000000000000000000000000602082015250565b5f614cf0602683613ec7565b9150614cfb82614c96565b604082019050919050565b5f6020820190508181035f830152614d1d81614ce4565b9050919050565b7f466f7262696464656e00000000000000000000000000000000000000000000005f82015250565b5f614d58600983613ec7565b9150614d6382614d24565b602082019050919050565b5f6020820190508181035f830152614d8581614d4c565b9050919050565b7f496e636f727265637420646174650000000000000000000000000000000000005f82015250565b5f614dc0600e83613ec7565b9150614dcb82614d8c565b602082019050919050565b5f6020820190508181035f830152614ded81614db4565b9050919050565b7f4e487b71000000000000000000000000000000000000000000000000000000005f52601260045260245ffd5b5f614e2b82613fba565b9150614e3683613fba565b925082614e4657614e45614df4565b5b828206905092915050565b7f506c6179656420627920320000000000000000000000000000000000000000005f82015250565b5f614e85600b83613ec7565b9150614e9082614e51565b602082019050919050565b5f6020820190508181035f830152614eb281614e79565b9050919050565b7f496e636f727265637420646966666963756c74790000000000000000000000005f82015250565b5f614eed601483613ec7565b9150614ef882614eb9565b602082019050919050565b5f6020820190508181035f830152614f1a81614ee1565b9050919050565b7f4f776e61626c653a2063616c6c6572206973206e6f7420746865206f776e65725f82015250565b5f614f55602083613ec7565b9150614f6082614f21565b602082019050919050565b5f6020820190508181035f830152614f8281614f49565b905091905056fea26469706673582212200508d2a1b0949a4c77d482fa856a00b6e3272779fa8f291d4896ab26c0ae797964736f6c63430008140033","opcodes":"PUSH1 0x80 PUSH1 0x40 MSTORE CALLVALUE DUP1 ISZERO PUSH3 0x10 JUMPI PUSH0 DUP1 REVERT JUMPDEST POP PUSH3 0x31 PUSH3 0x25 PUSH3 0x37 PUSH1 0x20 SHL PUSH1 0x20 SHR JUMP JUMPDEST PUSH3 0x3E PUSH1 0x20 SHL PUSH1 0x20 SHR JUMP JUMPDEST PUSH3 0xFF JUMP JUMPDEST PUSH0 CALLER SWAP1 POP SWAP1 JUMP JUMPDEST PUSH0 DUP1 PUSH0 SWAP1 SLOAD SWAP1 PUSH2 0x100 EXP SWAP1 DIV PUSH20 0xFFFFFFFFFFFFFFFFFFFFFFFFFFFFFFFFFFFFFFFF AND SWAP1 POP DUP2 PUSH0 DUP1 PUSH2 0x100 EXP DUP2 SLOAD DUP2 PUSH20 0xFFFFFFFFFFFFFFFFFFFFFFFFFFFFFFFFFFFFFFFF MUL NOT AND SWAP1 DUP4 PUSH20 0xFFFFFFFFFFFFFFFFFFFFFFFFFFFFFFFFFFFFFFFF AND MUL OR SWAP1 SSTORE POP DUP2 PUSH20 0xFFFFFFFFFFFFFFFFFFFFFFFFFFFFFFFFFFFFFFFF AND DUP2 PUSH20 0xFFFFFFFFFFFFFFFFFFFFFFFFFFFFFFFFFFFFFFFF AND PUSH32 0x8BE0079C531659141344CD1FD0A4F28419497F9722A3DAAFE3B4186F6B6457E0 PUSH1 0x40 MLOAD PUSH1 0x40 MLOAD DUP1 SWAP2 SUB SWAP1 LOG3 POP POP JUMP JUMPDEST PUSH2 0x4FBF DUP1 PUSH3 0x10D PUSH0 CODECOPY PUSH0 RETURN INVALID PUSH1 0x80 PUSH1 0x40 MSTORE CALLVALUE DUP1 ISZERO PUSH2 0xF JUMPI PUSH0 DUP1 REVERT JUMPDEST POP PUSH1 0x4 CALLDATASIZE LT PUSH2 0x135 JUMPI PUSH0 CALLDATALOAD PUSH1 0xE0 SHR DUP1 PUSH4 0x8DA5CB5B GT PUSH2 0xB6 JUMPI DUP1 PUSH4 0xF2FDE38B GT PUSH2 0x7A JUMPI DUP1 PUSH4 0xF2FDE38B EQ PUSH2 0x34B JUMPI DUP1 PUSH4 0xF52EC1CB EQ PUSH2 0x367 JUMPI DUP1 PUSH4 0xF7F20CB3 EQ PUSH2 0x397 JUMPI DUP1 PUSH4 0xF891E08B EQ PUSH2 0x3B5 JUMPI DUP1 PUSH4 0xFC6C776F EQ PUSH2 0x3D1 JUMPI DUP1 PUSH4 0xFDFF9B4D EQ PUSH2 0x402 JUMPI PUSH2 0x135 JUMP JUMPDEST DUP1 PUSH4 0x8DA5CB5B EQ PUSH2 0x2A9 JUMPI DUP1 PUSH4 0x998AC197 EQ PUSH2 0x2C7 JUMPI DUP1 PUSH4 0x9B535EAD EQ PUSH2 0x2E3 JUMPI DUP1 PUSH4 0xAA7E5683 EQ PUSH2 0x313 JUMPI DUP1 PUSH4 0xD566A382 EQ PUSH2 0x32F JUMPI PUSH2 0x135 JUMP JUMPDEST DUP1 PUSH4 0x715018A6 GT PUSH2 0xFD JUMPI DUP1 PUSH4 0x715018A6 EQ PUSH2 0x201 JUMPI DUP1 PUSH4 0x7503E1B7 EQ PUSH2 0x20B JUMPI DUP1 PUSH4 0x75843ABA EQ PUSH2 0x241 JUMPI DUP1 PUSH4 0x821644E6 EQ PUSH2 0x271 JUMPI DUP1 PUSH4 0x8A8DA1F7 EQ PUSH2 0x28D JUMPI PUSH2 0x135 JUMP JUMPDEST DUP1 PUSH4 0x2D06177A EQ PUSH2 0x139 JUMPI DUP1 PUSH4 0x32E9F509 EQ PUSH2 0x155 JUMPI DUP1 PUSH4 0x3682FD03 EQ PUSH2 0x171 JUMPI DUP1 PUSH4 0x3AE48EB8 EQ PUSH2 0x1A1 JUMPI DUP1 PUSH4 0x3B26F59C EQ PUSH2 0x1D1 JUMPI JUMPDEST PUSH0 DUP1 REVERT JUMPDEST PUSH2 0x153 PUSH1 0x4 DUP1 CALLDATASIZE SUB DUP2 ADD SWAP1 PUSH2 0x14E SWAP2 SWAP1 PUSH2 0x3C5C JUMP JUMPDEST PUSH2 0x432 JUMP JUMPDEST STOP JUMPDEST PUSH2 0x16F PUSH1 0x4 DUP1 CALLDATASIZE SUB DUP2 ADD SWAP1 PUSH2 0x16A SWAP2 SWAP1 PUSH2 0x3CEF JUMP JUMPDEST PUSH2 0x72A JUMP JUMPDEST STOP JUMPDEST PUSH2 0x18B PUSH1 0x4 DUP1 CALLDATASIZE SUB DUP2 ADD SWAP1 PUSH2 0x186 SWAP2 SWAP1 PUSH2 0x3D2D JUMP JUMPDEST PUSH2 0x95F JUMP JUMPDEST PUSH1 0x40 MLOAD PUSH2 0x198 SWAP2 SWAP1 PUSH2 0x3D67 JUMP JUMPDEST PUSH1 0x40 MLOAD DUP1 SWAP2 SUB SWAP1 RETURN JUMPDEST PUSH2 0x1BB PUSH1 0x4 DUP1 CALLDATASIZE SUB DUP2 ADD SWAP1 PUSH2 0x1B6 SWAP2 SWAP1 PUSH2 0x3D80 JUMP JUMPDEST PUSH2 0x974 JUMP JUMPDEST PUSH1 0x40 MLOAD PUSH2 0x1C8 SWAP2 SWAP1 PUSH2 0x3DCD JUMP JUMPDEST PUSH1 0x40 MLOAD DUP1 SWAP2 SUB SWAP1 RETURN JUMPDEST PUSH2 0x1EB PUSH1 0x4 DUP1 CALLDATASIZE SUB DUP2 ADD SWAP1 PUSH2 0x1E6 SWAP2 SWAP1 PUSH2 0x3D2D JUMP JUMPDEST PUSH2 0x99E JUMP JUMPDEST PUSH1 0x40 MLOAD PUSH2 0x1F8 SWAP2 SWAP1 PUSH2 0x3E9D JUMP JUMPDEST PUSH1 0x40 MLOAD DUP1 SWAP2 SUB SWAP1 RETURN JUMPDEST PUSH2 0x209 PUSH2 0xA76 JUMP JUMPDEST STOP JUMPDEST PUSH2 0x225 PUSH1 0x4 DUP1 CALLDATASIZE SUB DUP2 ADD SWAP1 PUSH2 0x220 SWAP2 SWAP1 PUSH2 0x3D2D JUMP JUMPDEST PUSH2 0xA89 JUMP JUMPDEST PUSH1 0x40 MLOAD PUSH2 0x238 SWAP8 SWAP7 SWAP6 SWAP5 SWAP4 SWAP3 SWAP2 SWAP1 PUSH2 0x3FE4 JUMP JUMPDEST PUSH1 0x40 MLOAD DUP1 SWAP2 SUB SWAP1 RETURN JUMPDEST PUSH2 0x25B PUSH1 0x4 DUP1 CALLDATASIZE SUB DUP2 ADD SWAP1 PUSH2 0x256 SWAP2 SWAP1 PUSH2 0x3D80 JUMP JUMPDEST PUSH2 0xBB4 JUMP JUMPDEST PUSH1 0x40 MLOAD PUSH2 0x268 SWAP2 SWAP1 PUSH2 0x4195 JUMP JUMPDEST PUSH1 0x40 MLOAD DUP1 SWAP2 SUB SWAP1 RETURN JUMPDEST PUSH2 0x28B PUSH1 0x4 DUP1 CALLDATASIZE SUB DUP2 ADD SWAP1 PUSH2 0x286 SWAP2 SWAP1 PUSH2 0x3D2D JUMP JUMPDEST PUSH2 0xF76 JUMP JUMPDEST STOP JUMPDEST PUSH2 0x2A7 PUSH1 0x4 DUP1 CALLDATASIZE SUB DUP2 ADD SWAP1 PUSH2 0x2A2 SWAP2 SWAP1 PUSH2 0x41B5 JUMP JUMPDEST PUSH2 0x159C JUMP JUMPDEST STOP JUMPDEST PUSH2 0x2B1 PUSH2 0x1CF2 JUMP JUMPDEST PUSH1 0x40 MLOAD PUSH2 0x2BE SWAP2 SWAP1 PUSH2 0x4205 JUMP JUMPDEST PUSH1 0x40 MLOAD DUP1 SWAP2 SUB SWAP1 RETURN JUMPDEST PUSH2 0x2E1 PUSH1 0x4 DUP1 CALLDATASIZE SUB DUP2 ADD SWAP1 PUSH2 0x2DC SWAP2 SWAP1 PUSH2 0x427F JUMP JUMPDEST PUSH2 0x1D19 JUMP JUMPDEST STOP JUMPDEST PUSH2 0x2FD PUSH1 0x4 DUP1 CALLDATASIZE SUB DUP2 ADD SWAP1 PUSH2 0x2F8 SWAP2 SWAP1 PUSH2 0x3D80 JUMP JUMPDEST PUSH2 0x247D JUMP JUMPDEST PUSH1 0x40 MLOAD PUSH2 0x30A SWAP2 SWAP1 PUSH2 0x3DCD JUMP JUMPDEST PUSH1 0x40 MLOAD DUP1 SWAP2 SUB SWAP1 RETURN JUMPDEST PUSH2 0x32D PUSH1 0x4 DUP1 CALLDATASIZE SUB DUP2 ADD SWAP1 PUSH2 0x328 SWAP2 SWAP1 PUSH2 0x42F0 JUMP JUMPDEST PUSH2 0x24A7 JUMP JUMPDEST STOP JUMPDEST PUSH2 0x349 PUSH1 0x4 DUP1 CALLDATASIZE SUB DUP2 ADD SWAP1 PUSH2 0x344 SWAP2 SWAP1 PUSH2 0x42F0 JUMP JUMPDEST PUSH2 0x29FB JUMP JUMPDEST STOP JUMPDEST PUSH2 0x365 PUSH1 0x4 DUP1 CALLDATASIZE SUB DUP2 ADD SWAP1 PUSH2 0x360 SWAP2 SWAP1 PUSH2 0x3C5C JUMP JUMPDEST PUSH2 0x3050 JUMP JUMPDEST STOP JUMPDEST PUSH2 0x381 PUSH1 0x4 DUP1 CALLDATASIZE SUB DUP2 ADD SWAP1 PUSH2 0x37C SWAP2 SWAP1 PUSH2 0x3D2D JUMP JUMPDEST PUSH2 0x30D2 JUMP JUMPDEST PUSH1 0x40 MLOAD PUSH2 0x38E SWAP2 SWAP1 PUSH2 0x4205 JUMP JUMPDEST PUSH1 0x40 MLOAD DUP1 SWAP2 SUB SWAP1 RETURN JUMPDEST PUSH2 0x39F PUSH2 0x3102 JUMP JUMPDEST PUSH1 0x40 MLOAD PUSH2 0x3AC SWAP2 SWAP1 PUSH2 0x4404 JUMP JUMPDEST PUSH1 0x40 MLOAD DUP1 SWAP2 SUB SWAP1 RETURN JUMPDEST PUSH2 0x3CF PUSH1 0x4 DUP1 CALLDATASIZE SUB DUP2 ADD SWAP1 PUSH2 0x3CA SWAP2 SWAP1 PUSH2 0x444E JUMP JUMPDEST PUSH2 0x31CF JUMP JUMPDEST STOP JUMPDEST PUSH2 0x3EB PUSH1 0x4 DUP1 CALLDATASIZE SUB DUP2 ADD SWAP1 PUSH2 0x3E6 SWAP2 SWAP1 PUSH2 0x44D2 JUMP JUMPDEST PUSH2 0x39C4 JUMP JUMPDEST PUSH1 0x40 MLOAD PUSH2 0x3F9 SWAP3 SWAP2 SWAP1 PUSH2 0x4510 JUMP JUMPDEST PUSH1 0x40 MLOAD DUP1 SWAP2 SUB SWAP1 RETURN JUMPDEST PUSH2 0x41C PUSH1 0x4 DUP1 CALLDATASIZE SUB DUP2 ADD SWAP1 PUSH2 0x417 SWAP2 SWAP1 PUSH2 0x3C5C JUMP JUMPDEST PUSH2 0x3A94 JUMP JUMPDEST PUSH1 0x40 MLOAD PUSH2 0x429 SWAP2 SWAP1 PUSH2 0x3DCD JUMP JUMPDEST PUSH1 0x40 MLOAD DUP1 SWAP2 SUB SWAP1 RETURN JUMPDEST PUSH2 0x446 PUSH8 0x689F4CDE209A4973 PUSH1 0xC0 SHL PUSH2 0x3AB1 JUMP JUMPDEST PUSH2 0x44E PUSH2 0x3AB4 JUMP JUMPDEST PUSH2 0x462 PUSH8 0xAB10C85F25C98F2E PUSH1 0xC0 SHL PUSH2 0x3AB1 JUMP JUMPDEST PUSH2 0x476 PUSH8 0xB4A811B2AC759C42 PUSH1 0xC0 SHL PUSH2 0x3AB1 JUMP JUMPDEST DUP1 PUSH2 0x48B PUSH8 0xB2E3ACB21715BBE PUSH1 0xC0 SHL PUSH2 0x3AB1 JUMP JUMPDEST PUSH2 0x49F PUSH8 0xEA7D12F063FB7226 PUSH1 0xC0 SHL PUSH2 0x3AB1 JUMP JUMPDEST PUSH2 0x4B3 PUSH8 0xE83F89C4F6E16EE5 PUSH1 0xC0 SHL PUSH2 0x3AB1 JUMP JUMPDEST PUSH2 0x4C7 PUSH8 0x24F5AAE4FE51B23 PUSH1 0xC0 SHL PUSH2 0x3AB1 JUMP JUMPDEST PUSH0 PUSH20 0xFFFFFFFFFFFFFFFFFFFFFFFFFFFFFFFFFFFFFFFF AND DUP2 PUSH20 0xFFFFFFFFFFFFFFFFFFFFFFFFFFFFFFFFFFFFFFFF AND SUB PUSH2 0x535 JUMPI PUSH1 0x40 MLOAD PUSH32 0x8C379A000000000000000000000000000000000000000000000000000000000 DUP2 MSTORE PUSH1 0x4 ADD PUSH2 0x52C SWAP1 PUSH2 0x4588 JUMP JUMPDEST PUSH1 0x40 MLOAD DUP1 SWAP2 SUB SWAP1 REVERT JUMPDEST PUSH2 0x549 PUSH8 0x169DDC1D15D0261B PUSH1 0xC0 SHL PUSH2 0x3AB1 JUMP JUMPDEST PUSH2 0x55D PUSH8 0x2E372E7BC3FA8BCA PUSH1 0xC0 SHL PUSH2 0x3AB1 JUMP JUMPDEST PUSH2 0x571 PUSH8 0xD0E9744DA12F2024 PUSH1 0xC0 SHL PUSH2 0x3AB1 JUMP JUMPDEST PUSH2 0x585 PUSH8 0xF0AE531D7A803385 PUSH1 0xC0 SHL PUSH2 0x3AB1 JUMP JUMPDEST PUSH2 0x599 PUSH8 0xF1661627E25EE400 PUSH1 0xC0 SHL PUSH2 0x3AB1 JUMP JUMPDEST PUSH2 0x5AD PUSH8 0x78614AAA5A034D91 PUSH1 0xC0 SHL PUSH2 0x3AB1 JUMP JUMPDEST PUSH2 0x5C1 PUSH8 0x11E58451028586E PUSH1 0xC0 SHL PUSH2 0x3AB1 JUMP JUMPDEST PUSH1 0x1 PUSH0 DUP4 PUSH20 0xFFFFFFFFFFFFFFFFFFFFFFFFFFFFFFFFFFFFFFFF AND PUSH20 0xFFFFFFFFFFFFFFFFFFFFFFFFFFFFFFFFFFFFFFFF AND DUP2 MSTORE PUSH1 0x20 ADD SWAP1 DUP2 MSTORE PUSH1 0x20 ADD PUSH0 KECCAK256 PUSH0 SWAP1 SLOAD SWAP1 PUSH2 0x100 EXP SWAP1 DIV PUSH1 0xFF AND ISZERO PUSH2 0x64B JUMPI PUSH1 0x40 MLOAD PUSH32 0x8C379A000000000000000000000000000000000000000000000000000000000 DUP2 MSTORE PUSH1 0x4 ADD PUSH2 0x642 SWAP1 PUSH2 0x45F0 JUMP JUMPDEST PUSH1 0x40 MLOAD DUP1 SWAP2 SUB SWAP1 REVERT JUMPDEST PUSH2 0x65F PUSH8 0x34FF631CAE1E86E0 PUSH1 0xC0 SHL PUSH2 0x3AB1 JUMP JUMPDEST PUSH2 0x673 PUSH8 0xC044A50B253DA389 PUSH1 0xC0 SHL PUSH2 0x3AB1 JUMP JUMPDEST PUSH1 0x1 DUP1 PUSH0 DUP5 PUSH20 0xFFFFFFFFFFFFFFFFFFFFFFFFFFFFFFFFFFFFFFFF AND PUSH20 0xFFFFFFFFFFFFFFFFFFFFFFFFFFFFFFFFFFFFFFFF AND DUP2 MSTORE PUSH1 0x20 ADD SWAP1 DUP2 MSTORE PUSH1 0x20 ADD PUSH0 KECCAK256 PUSH0 PUSH2 0x100 EXP DUP2 SLOAD DUP2 PUSH1 0xFF MUL NOT AND SWAP1 DUP4 ISZERO ISZERO MUL OR SWAP1 SSTORE POP PUSH2 0x6DB PUSH8 0x4BE5B7353A1A4EF5 PUSH1 0xC0 SHL PUSH2 0x3AB1 JUMP JUMPDEST PUSH2 0x6EF PUSH8 0x5AFA78E913041C85 PUSH1 0xC0 SHL PUSH2 0x3AB1 JUMP JUMPDEST PUSH32 0x3B4A40CCCF2058C593542587329DD385BE4F0B588DB5471FBD9598E56DD7093A DUP3 PUSH1 0x40 MLOAD PUSH2 0x71E SWAP2 SWAP1 PUSH2 0x4205 JUMP JUMPDEST PUSH1 0x40 MLOAD DUP1 SWAP2 SUB SWAP1 LOG1 POP POP JUMP JUMPDEST PUSH2 0x73E PUSH8 0x8E1D5FB0982BD7A9 PUSH1 0xC0 SHL PUSH2 0x3AB1 JUMP JUMPDEST DUP2 PUSH2 0x753 PUSH8 0x1BA29D8EED77B1E0 PUSH1 0xC0 SHL PUSH2 0x3AB1 JUMP JUMPDEST PUSH2 0x767 PUSH8 0xB11F4080883007BA PUSH1 0xC0 SHL PUSH2 0x3AB1 JUMP JUMPDEST PUSH2 0x77B PUSH8 0xE80104790E0E51C0 PUSH1 0xC0 SHL PUSH2 0x3AB1 JUMP JUMPDEST PUSH2 0x78F PUSH8 0x1A6FFF257A44D796 PUSH1 0xC0 SHL PUSH2 0x3AB1 JUMP JUMPDEST PUSH1 0x4 DUP1 SLOAD SWAP1 POP DUP2 LT PUSH2 0x7D6 JUMPI PUSH1 0x40 MLOAD PUSH32 0x8C379A000000000000000000000000000000000000000000000000000000000 DUP2 MSTORE PUSH1 0x4 ADD PUSH2 0x7CD SWAP1 PUSH2 0x4658 JUMP JUMPDEST PUSH1 0x40 MLOAD DUP1 SWAP2 SUB SWAP1 REVERT JUMPDEST PUSH2 0x7EA PUSH8 0x31B9F9A63A68E10A PUSH1 0xC0 SHL PUSH2 0x3AB1 JUMP JUMPDEST PUSH2 0x7FE PUSH8 0xC5A4257B9CD48C58 PUSH1 0xC0 SHL PUSH2 0x3AB1 JUMP JUMPDEST PUSH2 0x812 PUSH8 0x218294EC5025B41C PUSH1 0xC0 SHL PUSH2 0x3AB1 JUMP JUMPDEST PUSH2 0x826 PUSH8 0x608D8E65591115C5 PUSH1 0xC0 SHL PUSH2 0x3AB1 JUMP JUMPDEST PUSH2 0x83A PUSH8 0xE27F408880CAA561 PUSH1 0xC0 SHL PUSH2 0x3AB1 JUMP JUMPDEST DUP2 PUSH1 0x6 PUSH0 DUP6 DUP2 MSTORE PUSH1 0x20 ADD SWAP1 DUP2 MSTORE PUSH1 0x20 ADD PUSH0 KECCAK256 PUSH0 CALLER PUSH20 0xFFFFFFFFFFFFFFFFFFFFFFFFFFFFFFFFFFFFFFFF AND PUSH20 0xFFFFFFFFFFFFFFFFFFFFFFFFFFFFFFFFFFFFFFFF AND DUP2 MSTORE PUSH1 0x20 ADD SWAP1 DUP2 MSTORE PUSH1 0x20 ADD PUSH0 KECCAK256 PUSH0 PUSH2 0x100 EXP DUP2 SLOAD DUP2 PUSH1 0xFF MUL NOT AND SWAP1 DUP4 ISZERO ISZERO MUL OR SWAP1 SSTORE POP PUSH2 0x8B1 PUSH8 0xFFD6CD46F0AB22EF PUSH1 0xC0 SHL PUSH2 0x3AB1 JUMP JUMPDEST PUSH2 0x8C5 PUSH8 0x41C34DC9A2F76B46 PUSH1 0xC0 SHL PUSH2 0x3AB1 JUMP JUMPDEST DUP2 ISZERO PUSH2 0x945 JUMPI PUSH2 0x8DF PUSH8 0xD6A32E78560E1349 PUSH1 0xC0 SHL PUSH2 0x3AB1 JUMP JUMPDEST PUSH2 0x8F3 PUSH8 0xA95C04F421FD6B29 PUSH1 0xC0 SHL PUSH2 0x3AB1 JUMP JUMPDEST PUSH2 0x907 PUSH8 0xE5B89A134A07FF2D PUSH1 0xC0 SHL PUSH2 0x3AB1 JUMP JUMPDEST PUSH32 0xCEBE1F0A5FDE2BF224E75CDA66447253A2B8003182E6074F2A65EC2B26008062 DUP4 CALLER PUSH1 0x40 MLOAD PUSH2 0x938 SWAP3 SWAP2 SWAP1 PUSH2 0x4676 JUMP JUMPDEST PUSH1 0x40 MLOAD DUP1 SWAP2 SUB SWAP1 LOG1 PUSH2 0x95A JUMP JUMPDEST PUSH2 0x959 PUSH8 0x80E3BF37AFF299D1 PUSH1 0xC0 SHL PUSH2 0x3AB1 JUMP JUMPDEST JUMPDEST POP POP POP JUMP JUMPDEST PUSH1 0x8 PUSH1 0x20 MSTORE DUP1 PUSH0 MSTORE PUSH1 0x40 PUSH0 KECCAK256 PUSH0 SWAP2 POP SWAP1 POP SLOAD DUP2 JUMP JUMPDEST PUSH1 0x6 PUSH1 0x20 MSTORE DUP2 PUSH0 MSTORE PUSH1 0x40 PUSH0 KECCAK256 PUSH1 0x20 MSTORE DUP1 PUSH0 MSTORE PUSH1 0x40 PUSH0 KECCAK256 PUSH0 SWAP2 POP SWAP2 POP SWAP1 SLOAD SWAP1 PUSH2 0x100 EXP SWAP1 DIV PUSH1 0xFF AND DUP2 JUMP JUMPDEST PUSH1 0x60 PUSH2 0x9B4 PUSH8 0xD7C1CA29E763E73E PUSH1 0xC0 SHL PUSH2 0x3AB1 JUMP JUMPDEST PUSH2 0x9C8 PUSH8 0x38528E343103E64 PUSH1 0xC0 SHL PUSH2 0x3AB1 JUMP JUMPDEST PUSH2 0x9DC PUSH8 0x31C02EAC39CA4BD PUSH1 0xC0 SHL PUSH2 0x3AB1 JUMP JUMPDEST PUSH1 0xA PUSH0 DUP4 DUP2 MSTORE PUSH1 0x20 ADD SWAP1 DUP2 MSTORE PUSH1 0x20 ADD PUSH0 KECCAK256 DUP1 SLOAD DUP1 PUSH1 0x20 MUL PUSH1 0x20 ADD PUSH1 0x40 MLOAD SWAP1 DUP2 ADD PUSH1 0x40 MSTORE DUP1 SWAP3 SWAP2 SWAP1 DUP2 DUP2 MSTORE PUSH1 0x20 ADD DUP3 DUP1 SLOAD DUP1 ISZERO PUSH2 0xA6A JUMPI PUSH1 0x20 MUL DUP3 ADD SWAP2 SWAP1 PUSH0 MSTORE PUSH1 0x20 PUSH0 KECCAK256 SWAP1 JUMPDEST DUP2 PUSH0 SWAP1 SLOAD SWAP1 PUSH2 0x100 EXP SWAP1 DIV PUSH20 0xFFFFFFFFFFFFFFFFFFFFFFFFFFFFFFFFFFFFFFFF AND PUSH20 0xFFFFFFFFFFFFFFFFFFFFFFFFFFFFFFFFFFFFFFFF AND DUP2 MSTORE PUSH1 0x20 ADD SWAP1 PUSH1 0x1 ADD SWAP1 DUP1 DUP4 GT PUSH2 0xA21 JUMPI JUMPDEST POP POP POP POP POP SWAP1 POP SWAP2 SWAP1 POP JUMP JUMPDEST PUSH2 0xA7E PUSH2 0x3AB4 JUMP JUMPDEST PUSH2 0xA87 PUSH0 PUSH2 0x3B32 JUMP JUMPDEST JUMP JUMPDEST PUSH1 0x4 DUP2 DUP2 SLOAD DUP2 LT PUSH2 0xA98 JUMPI PUSH0 DUP1 REVERT JUMPDEST SWAP1 PUSH0 MSTORE PUSH1 0x20 PUSH0 KECCAK256 SWAP1 PUSH1 0x5 MUL ADD PUSH0 SWAP2 POP SWAP1 POP DUP1 PUSH0 ADD SLOAD SWAP1 DUP1 PUSH1 0x1 ADD DUP1 SLOAD PUSH2 0xABD SWAP1 PUSH2 0x46CA JUMP JUMPDEST DUP1 PUSH1 0x1F ADD PUSH1 0x20 DUP1 SWAP2 DIV MUL PUSH1 0x20 ADD PUSH1 0x40 MLOAD SWAP1 DUP2 ADD PUSH1 0x40 MSTORE DUP1 SWAP3 SWAP2 SWAP1 DUP2 DUP2 MSTORE PUSH1 0x20 ADD DUP3 DUP1 SLOAD PUSH2 0xAE9 SWAP1 PUSH2 0x46CA JUMP JUMPDEST DUP1 ISZERO PUSH2 0xB34 JUMPI DUP1 PUSH1 0x1F LT PUSH2 0xB0B JUMPI PUSH2 0x100 DUP1 DUP4 SLOAD DIV MUL DUP4 MSTORE SWAP2 PUSH1 0x20 ADD SWAP2 PUSH2 0xB34 JUMP JUMPDEST DUP3 ADD SWAP2 SWAP1 PUSH0 MSTORE PUSH1 0x20 PUSH0 KECCAK256 SWAP1 JUMPDEST DUP2 SLOAD DUP2 MSTORE SWAP1 PUSH1 0x1 ADD SWAP1 PUSH1 0x20 ADD DUP1 DUP4 GT PUSH2 0xB17 JUMPI DUP3 SWAP1 SUB PUSH1 0x1F AND DUP3 ADD SWAP2 JUMPDEST POP POP POP POP POP SWAP1 DUP1 PUSH1 0x2 ADD SLOAD SWAP1 DUP1 PUSH1 0x3 ADD PUSH0 SWAP1 SLOAD SWAP1 PUSH2 0x100 EXP SWAP1 DIV PUSH1 0xFF AND SWAP1 DUP1 PUSH1 0x3 ADD PUSH1 0x1 SWAP1 SLOAD SWAP1 PUSH2 0x100 EXP SWAP1 DIV PUSH1 0xFF AND SWAP1 DUP1 PUSH1 0x3 ADD PUSH1 0x2 SWAP1 SLOAD SWAP1 PUSH2 0x100 EXP SWAP1 DIV PUSH20 0xFFFFFFFFFFFFFFFFFFFFFFFFFFFFFFFFFFFFFFFF AND SWAP1 DUP1 PUSH1 0x4 ADD PUSH0 SWAP1 SLOAD SWAP1 PUSH2 0x100 EXP SWAP1 DIV PUSH20 0xFFFFFFFFFFFFFFFFFFFFFFFFFFFFFFFFFFFFFFFF AND SWAP1 POP DUP8 JUMP JUMPDEST PUSH1 0x60 PUSH2 0xBCA PUSH8 0xFCEF2BD38135B5C0 PUSH1 0xC0 SHL PUSH2 0x3AB1 JUMP JUMPDEST DUP3 PUSH2 0xBDF PUSH8 0x1BA29D8EED77B1E0 PUSH1 0xC0 SHL PUSH2 0x3AB1 JUMP JUMPDEST PUSH2 0xBF3 PUSH8 0xB11F4080883007BA PUSH1 0xC0 SHL PUSH2 0x3AB1 JUMP JUMPDEST PUSH2 0xC07 PUSH8 0xE80104790E0E51C0 PUSH1 0xC0 SHL PUSH2 0x3AB1 JUMP JUMPDEST PUSH2 0xC1B PUSH8 0x1A6FFF257A44D796 PUSH1 0xC0 SHL PUSH2 0x3AB1 JUMP JUMPDEST PUSH1 0x4 DUP1 SLOAD SWAP1 POP DUP2 LT PUSH2 0xC62 JUMPI PUSH1 0x40 MLOAD PUSH32 0x8C379A000000000000000000000000000000000000000000000000000000000 DUP2 MSTORE PUSH1 0x4 ADD PUSH2 0xC59 SWAP1 PUSH2 0x4658 JUMP JUMPDEST PUSH1 0x40 MLOAD DUP1 SWAP2 SUB SWAP1 REVERT JUMPDEST PUSH2 0xC76 PUSH8 0x31B9F9A63A68E10A PUSH1 0xC0 SHL PUSH2 0x3AB1 JUMP JUMPDEST PUSH2 0xC8A PUSH8 0xC5A4257B9CD48C58 PUSH1 0xC0 SHL PUSH2 0x3AB1 JUMP JUMPDEST PUSH2 0xC9E PUSH8 0x1C09088C100C5BB8 PUSH1 0xC0 SHL PUSH2 0x3AB1 JUMP JUMPDEST PUSH2 0xCB2 PUSH8 0xD8F5C777E50D17E8 PUSH1 0xC0 SHL PUSH2 0x3AB1 JUMP JUMPDEST DUP3 PUSH2 0xCC7 PUSH8 0xB2E3ACB21715BBE PUSH1 0xC0 SHL PUSH2 0x3AB1 JUMP JUMPDEST PUSH2 0xCDB PUSH8 0xEA7D12F063FB7226 PUSH1 0xC0 SHL PUSH2 0x3AB1 JUMP JUMPDEST PUSH2 0xCEF PUSH8 0xE83F89C4F6E16EE5 PUSH1 0xC0 SHL PUSH2 0x3AB1 JUMP JUMPDEST PUSH2 0xD03 PUSH8 0x24F5AAE4FE51B23 PUSH1 0xC0 SHL PUSH2 0x3AB1 JUMP JUMPDEST PUSH0 PUSH20 0xFFFFFFFFFFFFFFFFFFFFFFFFFFFFFFFFFFFFFFFF AND DUP2 PUSH20 0xFFFFFFFFFFFFFFFFFFFFFFFFFFFFFFFFFFFFFFFF AND SUB PUSH2 0xD71 JUMPI PUSH1 0x40 MLOAD PUSH32 0x8C379A000000000000000000000000000000000000000000000000000000000 DUP2 MSTORE PUSH1 0x4 ADD PUSH2 0xD68 SWAP1 PUSH2 0x4588 JUMP JUMPDEST PUSH1 0x40 MLOAD DUP1 SWAP2 SUB SWAP1 REVERT JUMPDEST PUSH2 0xD85 PUSH8 0x169DDC1D15D0261B PUSH1 0xC0 SHL PUSH2 0x3AB1 JUMP JUMPDEST PUSH2 0xD99 PUSH8 0x2E372E7BC3FA8BCA PUSH1 0xC0 SHL PUSH2 0x3AB1 JUMP JUMPDEST PUSH2 0xDAD PUSH8 0x3CC55AAE5D4E7760 PUSH1 0xC0 SHL PUSH2 0x3AB1 JUMP JUMPDEST PUSH2 0xDC1 PUSH8 0xCD0528FC23831CB0 PUSH1 0xC0 SHL PUSH2 0x3AB1 JUMP JUMPDEST PUSH2 0xDD5 PUSH8 0xF84D0D6C2BFBE041 PUSH1 0xC0 SHL PUSH2 0x3AB1 JUMP JUMPDEST PUSH2 0xDE9 PUSH8 0x5AFC53BC5793EDD7 PUSH1 0xC0 SHL PUSH2 0x3AB1 JUMP JUMPDEST PUSH1 0x9 PUSH0 DUP7 DUP2 MSTORE PUSH1 0x20 ADD SWAP1 DUP2 MSTORE PUSH1 0x20 ADD PUSH0 KECCAK256 PUSH0 DUP6 PUSH20 0xFFFFFFFFFFFFFFFFFFFFFFFFFFFFFFFFFFFFFFFF AND PUSH20 0xFFFFFFFFFFFFFFFFFFFFFFFFFFFFFFFFFFFFFFFF AND DUP2 MSTORE PUSH1 0x20 ADD SWAP1 DUP2 MSTORE PUSH1 0x20 ADD PUSH0 KECCAK256 DUP1 SLOAD DUP1 PUSH1 0x20 MUL PUSH1 0x20 ADD PUSH1 0x40 MLOAD SWAP1 DUP2 ADD PUSH1 0x40 MSTORE DUP1 SWAP3 SWAP2 SWAP1 DUP2 DUP2 MSTORE PUSH1 0x20 ADD PUSH0 SWAP1 JUMPDEST DUP3 DUP3 LT ISZERO PUSH2 0xF68 JUMPI DUP4 DUP3 SWAP1 PUSH0 MSTORE PUSH1 0x20 PUSH0 KECCAK256 SWAP1 PUSH1 0x2 MUL ADD PUSH1 0x40 MLOAD DUP1 PUSH1 0x40 ADD PUSH1 0x40 MSTORE SWAP1 DUP2 PUSH0 DUP3 ADD DUP1 SLOAD PUSH2 0xE84 SWAP1 PUSH2 0x46CA JUMP JUMPDEST DUP1 PUSH1 0x1F ADD PUSH1 0x20 DUP1 SWAP2 DIV MUL PUSH1 0x20 ADD PUSH1 0x40 MLOAD SWAP1 DUP2 ADD PUSH1 0x40 MSTORE DUP1 SWAP3 SWAP2 SWAP1 DUP2 DUP2 MSTORE PUSH1 0x20 ADD DUP3 DUP1 SLOAD PUSH2 0xEB0 SWAP1 PUSH2 0x46CA JUMP JUMPDEST DUP1 ISZERO PUSH2 0xEFB JUMPI DUP1 PUSH1 0x1F LT PUSH2 0xED2 JUMPI PUSH2 0x100 DUP1 DUP4 SLOAD DIV MUL DUP4 MSTORE SWAP2 PUSH1 0x20 ADD SWAP2 PUSH2 0xEFB JUMP JUMPDEST DUP3 ADD SWAP2 SWAP1 PUSH0 MSTORE PUSH1 0x20 PUSH0 KECCAK256 SWAP1 JUMPDEST DUP2 SLOAD DUP2 MSTORE SWAP1 PUSH1 0x1 ADD SWAP1 PUSH1 0x20 ADD DUP1 DUP4 GT PUSH2 0xEDE JUMPI DUP3 SWAP1 SUB PUSH1 0x1F AND DUP3 ADD SWAP2 JUMPDEST POP POP POP POP POP DUP2 MSTORE PUSH1 0x20 ADD PUSH1 0x1 DUP3 ADD PUSH0 SWAP1 SLOAD SWAP1 PUSH2 0x100 EXP SWAP1 DIV PUSH20 0xFFFFFFFFFFFFFFFFFFFFFFFFFFFFFFFFFFFFFFFF AND PUSH20 0xFFFFFFFFFFFFFFFFFFFFFFFFFFFFFFFFFFFFFFFF AND PUSH20 0xFFFFFFFFFFFFFFFFFFFFFFFFFFFFFFFFFFFFFFFF AND DUP2 MSTORE POP POP DUP2 MSTORE PUSH1 0x20 ADD SWAP1 PUSH1 0x1 ADD SWAP1 PUSH2 0xE54 JUMP JUMPDEST POP POP POP POP SWAP3 POP POP POP SWAP3 SWAP2 POP POP JUMP JUMPDEST PUSH2 0xF8A PUSH8 0xCAD2398320DFFC2B PUSH1 0xC0 SHL PUSH2 0x3AB1 JUMP JUMPDEST DUP1 PUSH2 0xF9F PUSH8 0x1BA29D8EED77B1E0 PUSH1 0xC0 SHL PUSH2 0x3AB1 JUMP JUMPDEST PUSH2 0xFB3 PUSH8 0xB11F4080883007BA PUSH1 0xC0 SHL PUSH2 0x3AB1 JUMP JUMPDEST PUSH2 0xFC7 PUSH8 0xE80104790E0E51C0 PUSH1 0xC0 SHL PUSH2 0x3AB1 JUMP JUMPDEST PUSH2 0xFDB PUSH8 0x1A6FFF257A44D796 PUSH1 0xC0 SHL PUSH2 0x3AB1 JUMP JUMPDEST PUSH1 0x4 DUP1 SLOAD SWAP1 POP DUP2 LT PUSH2 0x1022 JUMPI PUSH1 0x40 MLOAD PUSH32 0x8C379A000000000000000000000000000000000000000000000000000000000 DUP2 MSTORE PUSH1 0x4 ADD PUSH2 0x1019 SWAP1 PUSH2 0x4658 JUMP JUMPDEST PUSH1 0x40 MLOAD DUP1 SWAP2 SUB SWAP1 REVERT JUMPDEST PUSH2 0x1036 PUSH8 0x31B9F9A63A68E10A PUSH1 0xC0 SHL PUSH2 0x3AB1 JUMP JUMPDEST PUSH2 0x104A PUSH8 0xC5A4257B9CD48C58 PUSH1 0xC0 SHL PUSH2 0x3AB1 JUMP JUMPDEST PUSH2 0x105E PUSH8 0xDA3F443C535732BF PUSH1 0xC0 SHL PUSH2 0x3AB1 JUMP JUMPDEST PUSH2 0x1072 PUSH8 0xF6DD22801D5F4ECD PUSH1 0xC0 SHL PUSH2 0x3AB1 JUMP JUMPDEST PUSH2 0x1086 PUSH8 0x447B4200E47A1A91 PUSH1 0xC0 SHL PUSH2 0x3AB1 JUMP JUMPDEST PUSH2 0x109A PUSH8 0x2D61D169BCAFE39C PUSH1 0xC0 SHL PUSH2 0x3AB1 JUMP JUMPDEST PUSH2 0x10AE PUSH8 0x85BC71CFD31B46C9 PUSH1 0xC0 SHL PUSH2 0x3AB1 JUMP JUMPDEST PUSH1 0x5 PUSH0 DUP4 DUP2 MSTORE PUSH1 0x20 ADD SWAP1 DUP2 MSTORE PUSH1 0x20 ADD PUSH0 KECCAK256 PUSH0 CALLER PUSH20 0xFFFFFFFFFFFFFFFFFFFFFFFFFFFFFFFFFFFFFFFF AND PUSH20 0xFFFFFFFFFFFFFFFFFFFFFFFFFFFFFFFFFFFFFFFF AND DUP2 MSTORE PUSH1 0x20 ADD SWAP1 DUP2 MSTORE PUSH1 0x20 ADD PUSH0 KECCAK256 PUSH0 SWAP1 SLOAD SWAP1 PUSH2 0x100 EXP SWAP1 DIV PUSH1 0xFF AND ISZERO PUSH2 0x1147 JUMPI PUSH1 0x40 MLOAD PUSH32 0x8C379A000000000000000000000000000000000000000000000000000000000 DUP2 MSTORE PUSH1 0x4 ADD PUSH2 0x113E SWAP1 PUSH2 0x45F0 JUMP JUMPDEST PUSH1 0x40 MLOAD DUP1 SWAP2 SUB SWAP1 REVERT JUMPDEST PUSH2 0x115B PUSH8 0x486345D3023E19F PUSH1 0xC0 SHL PUSH2 0x3AB1 JUMP JUMPDEST PUSH2 0x116F PUSH8 0xAC3CC86E68102955 PUSH1 0xC0 SHL PUSH2 0x3AB1 JUMP JUMPDEST PUSH2 0x1183 PUSH8 0x4AA7E7CC66EB3FEB PUSH1 0xC0 SHL PUSH2 0x3AB1 JUMP JUMPDEST PUSH0 PUSH1 0x4 DUP4 DUP2 SLOAD DUP2 LT PUSH2 0x1198 JUMPI PUSH2 0x1197 PUSH2 0x46FA JUMP JUMPDEST JUMPDEST SWAP1 PUSH0 MSTORE PUSH1 0x20 PUSH0 KECCAK256 SWAP1 PUSH1 0x5 MUL ADD PUSH1 0x40 MLOAD DUP1 PUSH1 0xE0 ADD PUSH1 0x40 MSTORE SWAP1 DUP2 PUSH0 DUP3 ADD SLOAD DUP2 MSTORE PUSH1 0x20 ADD PUSH1 0x1 DUP3 ADD DUP1 SLOAD PUSH2 0x11C8 SWAP1 PUSH2 0x46CA JUMP JUMPDEST DUP1 PUSH1 0x1F ADD PUSH1 0x20 DUP1 SWAP2 DIV MUL PUSH1 0x20 ADD PUSH1 0x40 MLOAD SWAP1 DUP2 ADD PUSH1 0x40 MSTORE DUP1 SWAP3 SWAP2 SWAP1 DUP2 DUP2 MSTORE PUSH1 0x20 ADD DUP3 DUP1 SLOAD PUSH2 0x11F4 SWAP1 PUSH2 0x46CA JUMP JUMPDEST DUP1 ISZERO PUSH2 0x123F JUMPI DUP1 PUSH1 0x1F LT PUSH2 0x1216 JUMPI PUSH2 0x100 DUP1 DUP4 SLOAD DIV MUL DUP4 MSTORE SWAP2 PUSH1 0x20 ADD SWAP2 PUSH2 0x123F JUMP JUMPDEST DUP3 ADD SWAP2 SWAP1 PUSH0 MSTORE PUSH1 0x20 PUSH0 KECCAK256 SWAP1 JUMPDEST DUP2 SLOAD DUP2 MSTORE SWAP1 PUSH1 0x1 ADD SWAP1 PUSH1 0x20 ADD DUP1 DUP4 GT PUSH2 0x1222 JUMPI DUP3 SWAP1 SUB PUSH1 0x1F AND DUP3 ADD SWAP2 JUMPDEST POP POP POP POP POP DUP2 MSTORE PUSH1 0x20 ADD PUSH1 0x2 DUP3 ADD SLOAD DUP2 MSTORE PUSH1 0x20 ADD PUSH1 0x3 DUP3 ADD PUSH0 SWAP1 SLOAD SWAP1 PUSH2 0x100 EXP SWAP1 DIV PUSH1 0xFF AND PUSH1 0x5 DUP2 GT ISZERO PUSH2 0x1276 JUMPI PUSH2 0x1275 PUSH2 0x3F47 JUMP JUMPDEST JUMPDEST PUSH1 0x5 DUP2 GT ISZERO PUSH2 0x1288 JUMPI PUSH2 0x1287 PUSH2 0x3F47 JUMP JUMPDEST JUMPDEST DUP2 MSTORE PUSH1 0x20 ADD PUSH1 0x3 DUP3 ADD PUSH1 0x1 SWAP1 SLOAD SWAP1 PUSH2 0x100 EXP SWAP1 DIV PUSH1 0xFF AND PUSH1 0xFF AND PUSH1 0xFF AND DUP2 MSTORE PUSH1 0x20 ADD PUSH1 0x3 DUP3 ADD PUSH1 0x2 SWAP1 SLOAD SWAP1 PUSH2 0x100 EXP SWAP1 DIV PUSH20 0xFFFFFFFFFFFFFFFFFFFFFFFFFFFFFFFFFFFFFFFF AND PUSH20 0xFFFFFFFFFFFFFFFFFFFFFFFFFFFFFFFFFFFFFFFF AND PUSH20 0xFFFFFFFFFFFFFFFFFFFFFFFFFFFFFFFFFFFFFFFF AND DUP2 MSTORE PUSH1 0x20 ADD PUSH1 0x4 DUP3 ADD PUSH0 SWAP1 SLOAD SWAP1 PUSH2 0x100 EXP SWAP1 DIV PUSH20 0xFFFFFFFFFFFFFFFFFFFFFFFFFFFFFFFFFFFFFFFF AND PUSH20 0xFFFFFFFFFFFFFFFFFFFFFFFFFFFFFFFFFFFFFFFF AND PUSH20 0xFFFFFFFFFFFFFFFFFFFFFFFFFFFFFFFFFFFFFFFF AND DUP2 MSTORE POP POP SWAP1 POP PUSH2 0x136A PUSH8 0xF0355A9F768F4E8C PUSH1 0xC0 SHL PUSH2 0x3AB1 JUMP JUMPDEST PUSH2 0x137E PUSH8 0xE833409F02600349 PUSH1 0xC0 SHL PUSH2 0x3AB1 JUMP JUMPDEST TIMESTAMP DUP2 PUSH1 0x40 ADD MLOAD LT ISZERO PUSH2 0x13E4 JUMPI PUSH2 0x139E PUSH8 0x1523B4BCEE435C6A PUSH1 0xC0 SHL PUSH2 0x3AB1 JUMP JUMPDEST PUSH2 0x13B2 PUSH8 0x12C546456EB484EA PUSH1 0xC0 SHL PUSH2 0x3AB1 JUMP JUMPDEST PUSH1 0x40 MLOAD PUSH32 0x2EE88F5000000000000000000000000000000000000000000000000000000000 DUP2 MSTORE PUSH1 0x4 ADD PUSH1 0x40 MLOAD DUP1 SWAP2 SUB SWAP1 REVERT JUMPDEST PUSH2 0x13F8 PUSH8 0x3F42C0500B59EEE3 PUSH1 0xC0 SHL PUSH2 0x3AB1 JUMP JUMPDEST PUSH2 0x140C PUSH8 0x1DD53C71F6F53ACA PUSH1 0xC0 SHL PUSH2 0x3AB1 JUMP JUMPDEST PUSH2 0x1420 PUSH8 0xAD4978357A54ADD1 PUSH1 0xC0 SHL PUSH2 0x3AB1 JUMP JUMPDEST PUSH0 DUP2 PUSH1 0x80 ADD MLOAD PUSH1 0xFF AND SUB PUSH2 0x1488 JUMPI PUSH2 0x1442 PUSH8 0x4A20E84793B99DED PUSH1 0xC0 SHL PUSH2 0x3AB1 JUMP JUMPDEST PUSH2 0x1456 PUSH8 0x63CDB287D0605EDA PUSH1 0xC0 SHL PUSH2 0x3AB1 JUMP JUMPDEST PUSH1 0x40 MLOAD PUSH32 0x106E2AFE00000000000000000000000000000000000000000000000000000000 DUP2 MSTORE PUSH1 0x4 ADD PUSH1 0x40 MLOAD DUP1 SWAP2 SUB SWAP1 REVERT JUMPDEST PUSH2 0x149C PUSH8 0xE1AA6B2DAAEBD6AD PUSH1 0xC0 SHL PUSH2 0x3AB1 JUMP JUMPDEST PUSH2 0x14B0 PUSH8 0xB46C7B4D7CA9D50C PUSH1 0xC0 SHL PUSH2 0x3AB1 JUMP JUMPDEST PUSH1 0x1 PUSH1 0x5 PUSH0 DUP6 DUP2 MSTORE PUSH1 0x20 ADD SWAP1 DUP2 MSTORE PUSH1 0x20 ADD PUSH0 KECCAK256 PUSH0 CALLER PUSH20 0xFFFFFFFFFFFFFFFFFFFFFFFFFFFFFFFFFFFFFFFF AND PUSH20 0xFFFFFFFFFFFFFFFFFFFFFFFFFFFFFFFFFFFFFFFF AND DUP2 MSTORE PUSH1 0x20 ADD SWAP1 DUP2 MSTORE PUSH1 0x20 ADD PUSH0 KECCAK256 PUSH0 PUSH2 0x100 EXP DUP2 SLOAD DUP2 PUSH1 0xFF MUL NOT AND SWAP1 DUP4 ISZERO ISZERO MUL OR SWAP1 SSTORE POP PUSH2 0x1528 PUSH8 0xC56DECD4D191DD7E PUSH1 0xC0 SHL PUSH2 0x3AB1 JUMP JUMPDEST DUP1 PUSH1 0x80 ADD DUP1 MLOAD PUSH2 0x1537 SWAP1 PUSH2 0x4754 JUMP JUMPDEST PUSH1 0xFF AND SWAP1 DUP2 PUSH1 0xFF AND DUP2 MSTORE POP POP PUSH2 0x1557 PUSH8 0xE9B7D6260DD978C8 PUSH1 0xC0 SHL PUSH2 0x3AB1 JUMP JUMPDEST DUP1 PUSH1 0x80 ADD MLOAD PUSH1 0x4 DUP5 DUP2 SLOAD DUP2 LT PUSH2 0x1570 JUMPI PUSH2 0x156F PUSH2 0x46FA JUMP JUMPDEST JUMPDEST SWAP1 PUSH0 MSTORE PUSH1 0x20 PUSH0 KECCAK256 SWAP1 PUSH1 0x5 MUL ADD PUSH1 0x3 ADD PUSH1 0x1 PUSH2 0x100 EXP DUP2 SLOAD DUP2 PUSH1 0xFF MUL NOT AND SWAP1 DUP4 PUSH1 0xFF AND MUL OR SWAP1 SSTORE POP POP POP POP JUMP JUMPDEST PUSH2 0x15B0 PUSH8 0xAE4F5163B6DC4042 PUSH1 0xC0 SHL PUSH2 0x3AB1 JUMP JUMPDEST DUP3 PUSH2 0x15C5 PUSH8 0x1BA29D8EED77B1E0 PUSH1 0xC0 SHL PUSH2 0x3AB1 JUMP JUMPDEST PUSH2 0x15D9 PUSH8 0xB11F4080883007BA PUSH1 0xC0 SHL PUSH2 0x3AB1 JUMP JUMPDEST PUSH2 0x15ED PUSH8 0xE80104790E0E51C0 PUSH1 0xC0 SHL PUSH2 0x3AB1 JUMP JUMPDEST PUSH2 0x1601 PUSH8 0x1A6FFF257A44D796 PUSH1 0xC0 SHL PUSH2 0x3AB1 JUMP JUMPDEST PUSH1 0x4 DUP1 SLOAD SWAP1 POP DUP2 LT PUSH2 0x1648 JUMPI PUSH1 0x40 MLOAD PUSH32 0x8C379A000000000000000000000000000000000000000000000000000000000 DUP2 MSTORE PUSH1 0x4 ADD PUSH2 0x163F SWAP1 PUSH2 0x4658 JUMP JUMPDEST PUSH1 0x40 MLOAD DUP1 SWAP2 SUB SWAP1 REVERT JUMPDEST PUSH2 0x165C PUSH8 0x31B9F9A63A68E10A PUSH1 0xC0 SHL PUSH2 0x3AB1 JUMP JUMPDEST PUSH2 0x1670 PUSH8 0xC5A4257B9CD48C58 PUSH1 0xC0 SHL PUSH2 0x3AB1 JUMP JUMPDEST PUSH2 0x1684 PUSH8 0xC402ED7A1F89539E PUSH1 0xC0 SHL PUSH2 0x3AB1 JUMP JUMPDEST PUSH2 0x1698 PUSH8 0x3DA10A4DEABEDE07 PUSH1 0xC0 SHL PUSH2 0x3AB1 JUMP JUMPDEST DUP4 CALLER PUSH2 0x16AE PUSH8 0x80EE4D136C13E15A PUSH1 0xC0 SHL PUSH2 0x3AB1 JUMP JUMPDEST PUSH2 0x16C2 PUSH8 0x79E20414899381EA PUSH1 0xC0 SHL PUSH2 0x3AB1 JUMP JUMPDEST PUSH2 0x16D6 PUSH8 0xF7D3AA3DB6073963 PUSH1 0xC0 SHL PUSH2 0x3AB1 JUMP JUMPDEST PUSH2 0x16EA PUSH8 0xAD44291B7EE41AFC PUSH1 0xC0 SHL PUSH2 0x3AB1 JUMP JUMPDEST DUP1 PUSH20 0xFFFFFFFFFFFFFFFFFFFFFFFFFFFFFFFFFFFFFFFF AND PUSH1 0x2 PUSH0 DUP5 DUP2 MSTORE PUSH1 0x20 ADD SWAP1 DUP2 MSTORE PUSH1 0x20 ADD PUSH0 KECCAK256 PUSH0 SWAP1 SLOAD SWAP1 PUSH2 0x100 EXP SWAP1 DIV PUSH20 0xFFFFFFFFFFFFFFFFFFFFFFFFFFFFFFFFFFFFFFFF AND PUSH20 0xFFFFFFFFFFFFFFFFFFFFFFFFFFFFFFFFFFFFFFFF AND EQ PUSH2 0x1788 JUMPI PUSH1 0x40 MLOAD PUSH32 0x8C379A000000000000000000000000000000000000000000000000000000000 DUP2 MSTORE PUSH1 0x4 ADD PUSH2 0x177F SWAP1 PUSH2 0x47C5 JUMP JUMPDEST PUSH1 0x40 MLOAD DUP1 SWAP2 SUB SWAP1 REVERT JUMPDEST PUSH2 0x179C PUSH8 0x939045F94A99D343 PUSH1 0xC0 SHL PUSH2 0x3AB1 JUMP JUMPDEST PUSH2 0x17B0 PUSH8 0x4E0E7E368A911A7E PUSH1 0xC0 SHL PUSH2 0x3AB1 JUMP JUMPDEST PUSH2 0x17C4 PUSH8 0xE16584FA309253D0 PUSH1 0xC0 SHL PUSH2 0x3AB1 JUMP JUMPDEST PUSH2 0x17D8 PUSH8 0x8F02E6DC19FC2EB4 PUSH1 0xC0 SHL PUSH2 0x3AB1 JUMP JUMPDEST DUP5 PUSH2 0x17ED PUSH8 0xB2E3ACB21715BBE PUSH1 0xC0 SHL PUSH2 0x3AB1 JUMP JUMPDEST PUSH2 0x1801 PUSH8 0xEA7D12F063FB7226 PUSH1 0xC0 SHL PUSH2 0x3AB1 JUMP JUMPDEST PUSH2 0x1815 PUSH8 0xE83F89C4F6E16EE5 PUSH1 0xC0 SHL PUSH2 0x3AB1 JUMP JUMPDEST PUSH2 0x1829 PUSH8 0x24F5AAE4FE51B23 PUSH1 0xC0 SHL PUSH2 0x3AB1 JUMP JUMPDEST PUSH0 PUSH20 0xFFFFFFFFFFFFFFFFFFFFFFFFFFFFFFFFFFFFFFFF AND DUP2 PUSH20 0xFFFFFFFFFFFFFFFFFFFFFFFFFFFFFFFFFFFFFFFF AND SUB PUSH2 0x1897 JUMPI PUSH1 0x40 MLOAD PUSH32 0x8C379A000000000000000000000000000000000000000000000000000000000 DUP2 MSTORE PUSH1 0x4 ADD PUSH2 0x188E SWAP1 PUSH2 0x4588 JUMP JUMPDEST PUSH1 0x40 MLOAD DUP1 SWAP2 SUB SWAP1 REVERT JUMPDEST PUSH2 0x18AB PUSH8 0x169DDC1D15D0261B PUSH1 0xC0 SHL PUSH2 0x3AB1 JUMP JUMPDEST PUSH2 0x18BF PUSH8 0x2E372E7BC3FA8BCA PUSH1 0xC0 SHL PUSH2 0x3AB1 JUMP JUMPDEST PUSH2 0x18D3 PUSH8 0xB3BA48BE81D3F233 PUSH1 0xC0 SHL PUSH2 0x3AB1 JUMP JUMPDEST PUSH2 0x18E7 PUSH8 0x139A444A72CE342 PUSH1 0xC0 SHL PUSH2 0x3AB1 JUMP JUMPDEST DUP5 PUSH2 0x18FC PUSH8 0xB2E3ACB21715BBE PUSH1 0xC0 SHL PUSH2 0x3AB1 JUMP JUMPDEST PUSH2 0x1910 PUSH8 0xEA7D12F063FB7226 PUSH1 0xC0 SHL PUSH2 0x3AB1 JUMP JUMPDEST PUSH2 0x1924 PUSH8 0xE83F89C4F6E16EE5 PUSH1 0xC0 SHL PUSH2 0x3AB1 JUMP JUMPDEST PUSH2 0x1938 PUSH8 0x24F5AAE4FE51B23 PUSH1 0xC0 SHL PUSH2 0x3AB1 JUMP JUMPDEST PUSH0 PUSH20 0xFFFFFFFFFFFFFFFFFFFFFFFFFFFFFFFFFFFFFFFF AND DUP2 PUSH20 0xFFFFFFFFFFFFFFFFFFFFFFFFFFFFFFFFFFFFFFFF AND SUB PUSH2 0x19A6 JUMPI PUSH1 0x40 MLOAD PUSH32 0x8C379A000000000000000000000000000000000000000000000000000000000 DUP2 MSTORE PUSH1 0x4 ADD PUSH2 0x199D SWAP1 PUSH2 0x4588 JUMP JUMPDEST PUSH1 0x40 MLOAD DUP1 SWAP2 SUB SWAP1 REVERT JUMPDEST PUSH2 0x19BA PUSH8 0x169DDC1D15D0261B PUSH1 0xC0 SHL PUSH2 0x3AB1 JUMP JUMPDEST PUSH2 0x19CE PUSH8 0x2E372E7BC3FA8BCA PUSH1 0xC0 SHL PUSH2 0x3AB1 JUMP JUMPDEST PUSH2 0x19E2 PUSH8 0x4974CA0C608BCC87 PUSH1 0xC0 SHL PUSH2 0x3AB1 JUMP JUMPDEST PUSH2 0x19F6 PUSH8 0xE0CE92BBC1EB5AA9 PUSH1 0xC0 SHL PUSH2 0x3AB1 JUMP JUMPDEST PUSH2 0x1A0A PUSH8 0xFB45952B07F83174 PUSH1 0xC0 SHL PUSH2 0x3AB1 JUMP JUMPDEST PUSH2 0x1A1E PUSH8 0xDD13A8F4DDA0165F PUSH1 0xC0 SHL PUSH2 0x3AB1 JUMP JUMPDEST PUSH2 0x1A32 PUSH8 0x6DED64F561183145 PUSH1 0xC0 SHL PUSH2 0x3AB1 JUMP JUMPDEST DUP6 PUSH20 0xFFFFFFFFFFFFFFFFFFFFFFFFFFFFFFFFFFFFFFFF AND DUP8 PUSH20 0xFFFFFFFFFFFFFFFFFFFFFFFFFFFFFFFFFFFFFFFF AND SUB PUSH2 0x1AA0 JUMPI PUSH1 0x40 MLOAD PUSH32 0x8C379A000000000000000000000000000000000000000000000000000000000 DUP2 MSTORE PUSH1 0x4 ADD PUSH2 0x1A97 SWAP1 PUSH2 0x482D JUMP JUMPDEST PUSH1 0x40 MLOAD DUP1 SWAP2 SUB SWAP1 REVERT JUMPDEST PUSH2 0x1AB4 PUSH8 0xCE8D6D047F6C4995 PUSH1 0xC0 SHL PUSH2 0x3AB1 JUMP JUMPDEST PUSH2 0x1AC8 PUSH8 0x80337767F3A8C51 PUSH1 0xC0 SHL PUSH2 0x3AB1 JUMP JUMPDEST PUSH2 0x1ADC PUSH8 0xE5513536F79C6003 PUSH1 0xC0 SHL PUSH2 0x3AB1 JUMP JUMPDEST PUSH2 0x1AF0 PUSH8 0x23B7F49C13D15536 PUSH1 0xC0 SHL PUSH2 0x3AB1 JUMP JUMPDEST PUSH1 0x5 PUSH0 DUP10 DUP2 MSTORE PUSH1 0x20 ADD SWAP1 DUP2 MSTORE PUSH1 0x20 ADD PUSH0 KECCAK256 PUSH0 DUP9 PUSH20 0xFFFFFFFFFFFFFFFFFFFFFFFFFFFFFFFFFFFFFFFF AND PUSH20 0xFFFFFFFFFFFFFFFFFFFFFFFFFFFFFFFFFFFFFFFF AND DUP2 MSTORE PUSH1 0x20 ADD SWAP1 DUP2 MSTORE PUSH1 0x20 ADD PUSH0 KECCAK256 PUSH0 SWAP1 SLOAD SWAP1 PUSH2 0x100 EXP SWAP1 DIV PUSH1 0xFF AND DUP1 ISZERO PUSH2 0x1BAA JUMPI POP PUSH1 0x5 PUSH0 DUP10 DUP2 MSTORE PUSH1 0x20 ADD SWAP1 DUP2 MSTORE PUSH1 0x20 ADD PUSH0 KECCAK256 PUSH0 DUP8 PUSH20 0xFFFFFFFFFFFFFFFFFFFFFFFFFFFFFFFFFFFFFFFF AND PUSH20 0xFFFFFFFFFFFFFFFFFFFFFFFFFFFFFFFFFFFFFFFF AND DUP2 MSTORE PUSH1 0x20 ADD SWAP1 DUP2 MSTORE PUSH1 0x20 ADD PUSH0 KECCAK256 PUSH0 SWAP1 SLOAD SWAP1 PUSH2 0x100 EXP SWAP1 DIV PUSH1 0xFF AND JUMPDEST PUSH2 0x1BE9 JUMPI PUSH1 0x40 MLOAD PUSH32 0x8C379A000000000000000000000000000000000000000000000000000000000 DUP2 MSTORE PUSH1 0x4 ADD PUSH2 0x1BE0 SWAP1 PUSH2 0x4895 JUMP JUMPDEST PUSH1 0x40 MLOAD DUP1 SWAP2 SUB SWAP1 REVERT JUMPDEST PUSH2 0x1BFD PUSH8 0xF5009432778E762E PUSH1 0xC0 SHL PUSH2 0x3AB1 JUMP JUMPDEST PUSH2 0x1C11 PUSH8 0xDFCBC83D97CC07E6 PUSH1 0xC0 SHL PUSH2 0x3AB1 JUMP JUMPDEST DUP7 PUSH1 0x4 DUP10 DUP2 SLOAD DUP2 LT PUSH2 0x1C26 JUMPI PUSH2 0x1C25 PUSH2 0x46FA JUMP JUMPDEST JUMPDEST SWAP1 PUSH0 MSTORE PUSH1 0x20 PUSH0 KECCAK256 SWAP1 PUSH1 0x5 MUL ADD PUSH1 0x3 ADD PUSH1 0x2 PUSH2 0x100 EXP DUP2 SLOAD DUP2 PUSH20 0xFFFFFFFFFFFFFFFFFFFFFFFFFFFFFFFFFFFFFFFF MUL NOT AND SWAP1 DUP4 PUSH20 0xFFFFFFFFFFFFFFFFFFFFFFFFFFFFFFFFFFFFFFFF AND MUL OR SWAP1 SSTORE POP PUSH2 0x1C87 PUSH8 0xE162619D25464DDE PUSH1 0xC0 SHL PUSH2 0x3AB1 JUMP JUMPDEST DUP6 PUSH1 0x4 DUP10 DUP2 SLOAD DUP2 LT PUSH2 0x1C9C JUMPI PUSH2 0x1C9B PUSH2 0x46FA JUMP JUMPDEST JUMPDEST SWAP1 PUSH0 MSTORE PUSH1 0x20 PUSH0 KECCAK256 SWAP1 PUSH1 0x5 MUL ADD PUSH1 0x4 ADD PUSH0 PUSH2 0x100 EXP DUP2 SLOAD DUP2 PUSH20 0xFFFFFFFFFFFFFFFFFFFFFFFFFFFFFFFFFFFFFFFF MUL NOT AND SWAP1 DUP4 PUSH20 0xFFFFFFFFFFFFFFFFFFFFFFFFFFFFFFFFFFFFFFFF AND MUL OR SWAP1 SSTORE POP POP POP POP POP POP POP POP POP JUMP JUMPDEST PUSH0 DUP1 PUSH0 SWAP1 SLOAD SWAP1 PUSH2 0x100 EXP SWAP1 DIV PUSH20 0xFFFFFFFFFFFFFFFFFFFFFFFFFFFFFFFFFFFFFFFF AND SWAP1 POP SWAP1 JUMP JUMPDEST PUSH2 0x1D2D PUSH8 0x417B467AF684F5DE PUSH1 0xC0 SHL PUSH2 0x3AB1 JUMP JUMPDEST DUP4 PUSH2 0x1D42 PUSH8 0x1BA29D8EED77B1E0 PUSH1 0xC0 SHL PUSH2 0x3AB1 JUMP JUMPDEST PUSH2 0x1D56 PUSH8 0xB11F4080883007BA PUSH1 0xC0 SHL PUSH2 0x3AB1 JUMP JUMPDEST PUSH2 0x1D6A PUSH8 0xE80104790E0E51C0 PUSH1 0xC0 SHL PUSH2 0x3AB1 JUMP JUMPDEST PUSH2 0x1D7E PUSH8 0x1A6FFF257A44D796 PUSH1 0xC0 SHL PUSH2 0x3AB1 JUMP JUMPDEST PUSH1 0x4 DUP1 SLOAD SWAP1 POP DUP2 LT PUSH2 0x1DC5 JUMPI PUSH1 0x40 MLOAD PUSH32 0x8C379A000000000000000000000000000000000000000000000000000000000 DUP2 MSTORE PUSH1 0x4 ADD PUSH2 0x1DBC SWAP1 PUSH2 0x4658 JUMP JUMPDEST PUSH1 0x40 MLOAD DUP1 SWAP2 SUB SWAP1 REVERT JUMPDEST PUSH2 0x1DD9 PUSH8 0x31B9F9A63A68E10A PUSH1 0xC0 SHL PUSH2 0x3AB1 JUMP JUMPDEST PUSH2 0x1DED PUSH8 0xC5A4257B9CD48C58 PUSH1 0xC0 SHL PUSH2 0x3AB1 JUMP JUMPDEST PUSH2 0x1E01 PUSH8 0xB86177C809998353 PUSH1 0xC0 SHL PUSH2 0x3AB1 JUMP JUMPDEST PUSH2 0x1E15 PUSH8 0xDD9B42DD88836B72 PUSH1 0xC0 SHL PUSH2 0x3AB1 JUMP JUMPDEST DUP5 CALLER PUSH2 0x1E2B PUSH8 0x80EE4D136C13E15A PUSH1 0xC0 SHL PUSH2 0x3AB1 JUMP JUMPDEST PUSH2 0x1E3F PUSH8 0x79E20414899381EA PUSH1 0xC0 SHL PUSH2 0x3AB1 JUMP JUMPDEST PUSH2 0x1E53 PUSH8 0xF7D3AA3DB6073963 PUSH1 0xC0 SHL PUSH2 0x3AB1 JUMP JUMPDEST PUSH2 0x1E67 PUSH8 0xAD44291B7EE41AFC PUSH1 0xC0 SHL PUSH2 0x3AB1 JUMP JUMPDEST DUP1 PUSH20 0xFFFFFFFFFFFFFFFFFFFFFFFFFFFFFFFFFFFFFFFF AND PUSH1 0x2 PUSH0 DUP5 DUP2 MSTORE PUSH1 0x20 ADD SWAP1 DUP2 MSTORE PUSH1 0x20 ADD PUSH0 KECCAK256 PUSH0 SWAP1 SLOAD SWAP1 PUSH2 0x100 EXP SWAP1 DIV PUSH20 0xFFFFFFFFFFFFFFFFFFFFFFFFFFFFFFFFFFFFFFFF AND PUSH20 0xFFFFFFFFFFFFFFFFFFFFFFFFFFFFFFFFFFFFFFFF AND EQ PUSH2 0x1F05 JUMPI PUSH1 0x40 MLOAD PUSH32 0x8C379A000000000000000000000000000000000000000000000000000000000 DUP2 MSTORE PUSH1 0x4 ADD PUSH2 0x1EFC SWAP1 PUSH2 0x47C5 JUMP JUMPDEST PUSH1 0x40 MLOAD DUP1 SWAP2 SUB SWAP1 REVERT JUMPDEST PUSH2 0x1F19 PUSH8 0x939045F94A99D343 PUSH1 0xC0 SHL PUSH2 0x3AB1 JUMP JUMPDEST PUSH2 0x1F2D PUSH8 0x4E0E7E368A911A7E PUSH1 0xC0 SHL PUSH2 0x3AB1 JUMP JUMPDEST PUSH2 0x1F41 PUSH8 0xDB53CDD1CAB509BE PUSH1 0xC0 SHL PUSH2 0x3AB1 JUMP JUMPDEST PUSH2 0x1F55 PUSH8 0x4AFD5506273D90D5 PUSH1 0xC0 SHL PUSH2 0x3AB1 JUMP JUMPDEST DUP6 PUSH2 0x1F6A PUSH8 0xB2E3ACB21715BBE PUSH1 0xC0 SHL PUSH2 0x3AB1 JUMP JUMPDEST PUSH2 0x1F7E PUSH8 0xEA7D12F063FB7226 PUSH1 0xC0 SHL PUSH2 0x3AB1 JUMP JUMPDEST PUSH2 0x1F92 PUSH8 0xE83F89C4F6E16EE5 PUSH1 0xC0 SHL PUSH2 0x3AB1 JUMP JUMPDEST PUSH2 0x1FA6 PUSH8 0x24F5AAE4FE51B23 PUSH1 0xC0 SHL PUSH2 0x3AB1 JUMP JUMPDEST PUSH0 PUSH20 0xFFFFFFFFFFFFFFFFFFFFFFFFFFFFFFFFFFFFFFFF AND DUP2 PUSH20 0xFFFFFFFFFFFFFFFFFFFFFFFFFFFFFFFFFFFFFFFF AND SUB PUSH2 0x2014 JUMPI PUSH1 0x40 MLOAD PUSH32 0x8C379A000000000000000000000000000000000000000000000000000000000 DUP2 MSTORE PUSH1 0x4 ADD PUSH2 0x200B SWAP1 PUSH2 0x4588 JUMP JUMPDEST PUSH1 0x40 MLOAD DUP1 SWAP2 SUB SWAP1 REVERT JUMPDEST PUSH2 0x2028 PUSH8 0x169DDC1D15D0261B PUSH1 0xC0 SHL PUSH2 0x3AB1 JUMP JUMPDEST PUSH2 0x203C PUSH8 0x2E372E7BC3FA8BCA PUSH1 0xC0 SHL PUSH2 0x3AB1 JUMP JUMPDEST PUSH2 0x2050 PUSH8 0x29DD5AEC82638D26 PUSH1 0xC0 SHL PUSH2 0x3AB1 JUMP JUMPDEST PUSH2 0x2064 PUSH8 0xE4FC23367D430DA7 PUSH1 0xC0 SHL PUSH2 0x3AB1 JUMP JUMPDEST DUP6 DUP6 DUP1 DUP1 PUSH1 0x1F ADD PUSH1 0x20 DUP1 SWAP2 DIV MUL PUSH1 0x20 ADD PUSH1 0x40 MLOAD SWAP1 DUP2 ADD PUSH1 0x40 MSTORE DUP1 SWAP4 SWAP3 SWAP2 SWAP1 DUP2 DUP2 MSTORE PUSH1 0x20 ADD DUP4 DUP4 DUP1 DUP3 DUP5 CALLDATACOPY PUSH0 DUP2 DUP5 ADD MSTORE PUSH1 0x1F NOT PUSH1 0x1F DUP3 ADD AND SWAP1 POP DUP1 DUP4 ADD SWAP3 POP POP POP POP POP POP POP PUSH2 0x20BC PUSH8 0x534646307BDF4A81 PUSH1 0xC0 SHL PUSH2 0x3AB1 JUMP JUMPDEST PUSH2 0x20D0 PUSH8 0xCAC778F577A97C12 PUSH1 0xC0 SHL PUSH2 0x3AB1 JUMP JUMPDEST PUSH2 0x20E4 PUSH8 0xF1D88E229385115D PUSH1 0xC0 SHL PUSH2 0x3AB1 JUMP JUMPDEST PUSH2 0x20F8 PUSH8 0x86026ED335A0A6A5 PUSH1 0xC0 SHL PUSH2 0x3AB1 JUMP JUMPDEST PUSH0 DUP2 MLOAD GT PUSH2 0x213B JUMPI PUSH1 0x40 MLOAD PUSH32 0x8C379A000000000000000000000000000000000000000000000000000000000 DUP2 MSTORE PUSH1 0x4 ADD PUSH2 0x2132 SWAP1 PUSH2 0x48FD JUMP JUMPDEST PUSH1 0x40 MLOAD DUP1 SWAP2 SUB SWAP1 REVERT JUMPDEST PUSH2 0x214F PUSH8 0xBC821AC6FFC9E297 PUSH1 0xC0 SHL PUSH2 0x3AB1 JUMP JUMPDEST PUSH2 0x2163 PUSH8 0x16E1665DBD85D4A9 PUSH1 0xC0 SHL PUSH2 0x3AB1 JUMP JUMPDEST PUSH2 0x2177 PUSH8 0xFC361372DAA7A7F7 PUSH1 0xC0 SHL PUSH2 0x3AB1 JUMP JUMPDEST PUSH2 0x218B PUSH8 0x8737D875F26EB514 PUSH1 0xC0 SHL PUSH2 0x3AB1 JUMP JUMPDEST CALLER PUSH2 0x21A0 PUSH8 0xB5656ABD29E474CA PUSH1 0xC0 SHL PUSH2 0x3AB1 JUMP JUMPDEST PUSH2 0x21B4 PUSH8 0x41A323EF344D4CC2 PUSH1 0xC0 SHL PUSH2 0x3AB1 JUMP JUMPDEST PUSH2 0x21C8 PUSH8 0xDDBC0EB3A56A9FB8 PUSH1 0xC0 SHL PUSH2 0x3AB1 JUMP JUMPDEST PUSH2 0x21DC PUSH8 0x929AE5DF5D5D6A8 PUSH1 0xC0 SHL PUSH2 0x3AB1 JUMP JUMPDEST PUSH1 0x2 TIMESTAMP PUSH2 0x21E9 SWAP2 SWAP1 PUSH2 0x491B JUMP JUMPDEST PUSH1 0xB PUSH0 CALLER PUSH20 0xFFFFFFFFFFFFFFFFFFFFFFFFFFFFFFFFFFFFFFFF AND PUSH20 0xFFFFFFFFFFFFFFFFFFFFFFFFFFFFFFFFFFFFFFFF AND DUP2 MSTORE PUSH1 0x20 ADD SWAP1 DUP2 MSTORE PUSH1 0x20 ADD PUSH0 KECCAK256 SLOAD LT PUSH2 0x2267 JUMPI PUSH1 0x40 MLOAD PUSH32 0x8C379A000000000000000000000000000000000000000000000000000000000 DUP2 MSTORE PUSH1 0x4 ADD PUSH2 0x225E SWAP1 PUSH2 0x4998 JUMP JUMPDEST PUSH1 0x40 MLOAD DUP1 SWAP2 SUB SWAP1 REVERT JUMPDEST PUSH2 0x227B PUSH8 0x15B3BB904D3E19BD PUSH1 0xC0 SHL PUSH2 0x3AB1 JUMP JUMPDEST PUSH2 0x228F PUSH8 0x436FCE33529549DB PUSH1 0xC0 SHL PUSH2 0x3AB1 JUMP JUMPDEST PUSH2 0x22A3 PUSH8 0xB90F5AA95537BB9C PUSH1 0xC0 SHL PUSH2 0x3AB1 JUMP JUMPDEST PUSH2 0x22B7 PUSH8 0x8B35A3A7449E0140 PUSH1 0xC0 SHL PUSH2 0x3AB1 JUMP JUMPDEST PUSH2 0x22CB PUSH8 0x3C227404B28C8C33 PUSH1 0xC0 SHL PUSH2 0x3AB1 JUMP JUMPDEST PUSH2 0x22DF PUSH8 0x37FA2199C6AEAC7B PUSH1 0xC0 SHL PUSH2 0x3AB1 JUMP JUMPDEST PUSH1 0x9 PUSH0 DUP12 DUP2 MSTORE PUSH1 0x20 ADD SWAP1 DUP2 MSTORE PUSH1 0x20 ADD PUSH0 KECCAK256 PUSH0 DUP11 PUSH20 0xFFFFFFFFFFFFFFFFFFFFFFFFFFFFFFFFFFFFFFFF AND PUSH20 0xFFFFFFFFFFFFFFFFFFFFFFFFFFFFFFFFFFFFFFFF AND DUP2 MSTORE PUSH1 0x20 ADD SWAP1 DUP2 MSTORE PUSH1 0x20 ADD PUSH0 KECCAK256 PUSH1 0x40 MLOAD DUP1 PUSH1 0x40 ADD PUSH1 0x40 MSTORE DUP1 DUP11 DUP11 DUP1 DUP1 PUSH1 0x1F ADD PUSH1 0x20 DUP1 SWAP2 DIV MUL PUSH1 0x20 ADD PUSH1 0x40 MLOAD SWAP1 DUP2 ADD PUSH1 0x40 MSTORE DUP1 SWAP4 SWAP3 SWAP2 SWAP1 DUP2 DUP2 MSTORE PUSH1 0x20 ADD DUP4 DUP4 DUP1 DUP3 DUP5 CALLDATACOPY PUSH0 DUP2 DUP5 ADD MSTORE PUSH1 0x1F NOT PUSH1 0x1F DUP3 ADD AND SWAP1 POP DUP1 DUP4 ADD SWAP3 POP POP POP POP POP POP POP DUP2 MSTORE PUSH1 0x20 ADD CALLER PUSH20 0xFFFFFFFFFFFFFFFFFFFFFFFFFFFFFFFFFFFFFFFF AND DUP2 MSTORE POP SWAP1 DUP1 PUSH1 0x1 DUP2 SLOAD ADD DUP1 DUP3 SSTORE DUP1 SWAP2 POP POP PUSH1 0x1 SWAP1 SUB SWAP1 PUSH0 MSTORE PUSH1 0x20 PUSH0 KECCAK256 SWAP1 PUSH1 0x2 MUL ADD PUSH0 SWAP1 SWAP2 SWAP1 SWAP2 SWAP1 SWAP2 POP PUSH0 DUP3 ADD MLOAD DUP2 PUSH0 ADD SWAP1 DUP2 PUSH2 0x23D2 SWAP2 SWAP1 PUSH2 0x4B80 JUMP JUMPDEST POP PUSH1 0x20 DUP3 ADD MLOAD DUP2 PUSH1 0x1 ADD PUSH0 PUSH2 0x100 EXP DUP2 SLOAD DUP2 PUSH20 0xFFFFFFFFFFFFFFFFFFFFFFFFFFFFFFFFFFFFFFFF MUL NOT AND SWAP1 DUP4 PUSH20 0xFFFFFFFFFFFFFFFFFFFFFFFFFFFFFFFFFFFFFFFF AND MUL OR SWAP1 SSTORE POP POP POP PUSH2 0x242F PUSH8 0x7FD927CD700B4874 PUSH1 0xC0 SHL PUSH2 0x3AB1 JUMP JUMPDEST TIMESTAMP PUSH1 0xB PUSH0 CALLER PUSH20 0xFFFFFFFFFFFFFFFFFFFFFFFFFFFFFFFFFFFFFFFF AND PUSH20 0xFFFFFFFFFFFFFFFFFFFFFFFFFFFFFFFFFFFFFFFF AND DUP2 MSTORE PUSH1 0x20 ADD SWAP1 DUP2 MSTORE PUSH1 0x20 ADD PUSH0 KECCAK256 DUP2 SWAP1 SSTORE POP POP POP POP POP POP POP POP POP POP POP JUMP JUMPDEST PUSH1 0x5 PUSH1 0x20 MSTORE DUP2 PUSH0 MSTORE PUSH1 0x40 PUSH0 KECCAK256 PUSH1 0x20 MSTORE DUP1 PUSH0 MSTORE PUSH1 0x40 PUSH0 KECCAK256 PUSH0 SWAP2 POP SWAP2 POP SWAP1 SLOAD SWAP1 PUSH2 0x100 EXP SWAP1 DIV PUSH1 0xFF AND DUP2 JUMP JUMPDEST PUSH2 0x24BB PUSH8 0x348B96D5473B77DF PUSH1 0xC0 SHL PUSH2 0x3AB1 JUMP JUMPDEST DUP3 PUSH2 0x24D0 PUSH8 0x1BA29D8EED77B1E0 PUSH1 0xC0 SHL PUSH2 0x3AB1 JUMP JUMPDEST PUSH2 0x24E4 PUSH8 0xB11F4080883007BA PUSH1 0xC0 SHL PUSH2 0x3AB1 JUMP JUMPDEST PUSH2 0x24F8 PUSH8 0xE80104790E0E51C0 PUSH1 0xC0 SHL PUSH2 0x3AB1 JUMP JUMPDEST PUSH2 0x250C PUSH8 0x1A6FFF257A44D796 PUSH1 0xC0 SHL PUSH2 0x3AB1 JUMP JUMPDEST PUSH1 0x4 DUP1 SLOAD SWAP1 POP DUP2 LT PUSH2 0x2553 JUMPI PUSH1 0x40 MLOAD PUSH32 0x8C379A000000000000000000000000000000000000000000000000000000000 DUP2 MSTORE PUSH1 0x4 ADD PUSH2 0x254A SWAP1 PUSH2 0x4658 JUMP JUMPDEST PUSH1 0x40 MLOAD DUP1 SWAP2 SUB SWAP1 REVERT JUMPDEST PUSH2 0x2567 PUSH8 0x31B9F9A63A68E10A PUSH1 0xC0 SHL PUSH2 0x3AB1 JUMP JUMPDEST PUSH2 0x257B PUSH8 0xC5A4257B9CD48C58 PUSH1 0xC0 SHL PUSH2 0x3AB1 JUMP JUMPDEST PUSH2 0x258F PUSH8 0x5176C636220A4115 PUSH1 0xC0 SHL PUSH2 0x3AB1 JUMP JUMPDEST PUSH2 0x25A3 PUSH8 0xCBE4A78DE443B922 PUSH1 0xC0 SHL PUSH2 0x3AB1 JUMP JUMPDEST DUP3 DUP3 DUP1 DUP1 PUSH1 0x1F ADD PUSH1 0x20 DUP1 SWAP2 DIV MUL PUSH1 0x20 ADD PUSH1 0x40 MLOAD SWAP1 DUP2 ADD PUSH1 0x40 MSTORE DUP1 SWAP4 SWAP3 SWAP2 SWAP1 DUP2 DUP2 MSTORE PUSH1 0x20 ADD DUP4 DUP4 DUP1 DUP3 DUP5 CALLDATACOPY PUSH0 DUP2 DUP5 ADD MSTORE PUSH1 0x1F NOT PUSH1 0x1F DUP3 ADD AND SWAP1 POP DUP1 DUP4 ADD SWAP3 POP POP POP POP POP POP POP PUSH2 0x25FB PUSH8 0x534646307BDF4A81 PUSH1 0xC0 SHL PUSH2 0x3AB1 JUMP JUMPDEST PUSH2 0x260F PUSH8 0xCAC778F577A97C12 PUSH1 0xC0 SHL PUSH2 0x3AB1 JUMP JUMPDEST PUSH2 0x2623 PUSH8 0xF1D88E229385115D PUSH1 0xC0 SHL PUSH2 0x3AB1 JUMP JUMPDEST PUSH2 0x2637 PUSH8 0x86026ED335A0A6A5 PUSH1 0xC0 SHL PUSH2 0x3AB1 JUMP JUMPDEST PUSH0 DUP2 MLOAD GT PUSH2 0x267A JUMPI PUSH1 0x40 MLOAD PUSH32 0x8C379A000000000000000000000000000000000000000000000000000000000 DUP2 MSTORE PUSH1 0x4 ADD PUSH2 0x2671 SWAP1 PUSH2 0x48FD JUMP JUMPDEST PUSH1 0x40 MLOAD DUP1 SWAP2 SUB SWAP1 REVERT JUMPDEST PUSH2 0x268E PUSH8 0xBC821AC6FFC9E297 PUSH1 0xC0 SHL PUSH2 0x3AB1 JUMP JUMPDEST PUSH2 0x26A2 PUSH8 0x16E1665DBD85D4A9 PUSH1 0xC0 SHL PUSH2 0x3AB1 JUMP JUMPDEST PUSH2 0x26B6 PUSH8 0x39C3B2106424A8B5 PUSH1 0xC0 SHL PUSH2 0x3AB1 JUMP JUMPDEST PUSH2 0x26CA PUSH8 0x483E2202178E5DB9 PUSH1 0xC0 SHL PUSH2 0x3AB1 JUMP JUMPDEST CALLER PUSH2 0x26DF PUSH8 0xB5656ABD29E474CA PUSH1 0xC0 SHL PUSH2 0x3AB1 JUMP JUMPDEST PUSH2 0x26F3 PUSH8 0x41A323EF344D4CC2 PUSH1 0xC0 SHL PUSH2 0x3AB1 JUMP JUMPDEST PUSH2 0x2707 PUSH8 0xDDBC0EB3A56A9FB8 PUSH1 0xC0 SHL PUSH2 0x3AB1 JUMP JUMPDEST PUSH2 0x271B PUSH8 0x929AE5DF5D5D6A8 PUSH1 0xC0 SHL PUSH2 0x3AB1 JUMP JUMPDEST PUSH1 0x2 TIMESTAMP PUSH2 0x2728 SWAP2 SWAP1 PUSH2 0x491B JUMP JUMPDEST PUSH1 0xB PUSH0 CALLER PUSH20 0xFFFFFFFFFFFFFFFFFFFFFFFFFFFFFFFFFFFFFFFF AND PUSH20 0xFFFFFFFFFFFFFFFFFFFFFFFFFFFFFFFFFFFFFFFF AND DUP2 MSTORE PUSH1 0x20 ADD SWAP1 DUP2 MSTORE PUSH1 0x20 ADD PUSH0 KECCAK256 SLOAD LT PUSH2 0x27A6 JUMPI PUSH1 0x40 MLOAD PUSH32 0x8C379A000000000000000000000000000000000000000000000000000000000 DUP2 MSTORE PUSH1 0x4 ADD PUSH2 0x279D SWAP1 PUSH2 0x4998 JUMP JUMPDEST PUSH1 0x40 MLOAD DUP1 SWAP2 SUB SWAP1 REVERT JUMPDEST PUSH2 0x27BA PUSH8 0x15B3BB904D3E19BD PUSH1 0xC0 SHL PUSH2 0x3AB1 JUMP JUMPDEST PUSH2 0x27CE PUSH8 0x436FCE33529549DB PUSH1 0xC0 SHL PUSH2 0x3AB1 JUMP JUMPDEST PUSH2 0x27E2 PUSH8 0xEDC281167AFEAD0C PUSH1 0xC0 SHL PUSH2 0x3AB1 JUMP JUMPDEST PUSH2 0x27F6 PUSH8 0x4527E2FD8B904533 PUSH1 0xC0 SHL PUSH2 0x3AB1 JUMP JUMPDEST PUSH2 0x280A PUSH8 0x5BAE4CE2A89B31BD PUSH1 0xC0 SHL PUSH2 0x3AB1 JUMP JUMPDEST PUSH1 0x40 MLOAD DUP1 PUSH1 0x40 ADD PUSH1 0x40 MSTORE DUP1 DUP7 DUP7 DUP1 DUP1 PUSH1 0x1F ADD PUSH1 0x20 DUP1 SWAP2 DIV MUL PUSH1 0x20 ADD PUSH1 0x40 MLOAD SWAP1 DUP2 ADD PUSH1 0x40 MSTORE DUP1 SWAP4 SWAP3 SWAP2 SWAP1 DUP2 DUP2 MSTORE PUSH1 0x20 ADD DUP4 DUP4 DUP1 DUP3 DUP5 CALLDATACOPY PUSH0 DUP2 DUP5 ADD MSTORE PUSH1 0x1F NOT PUSH1 0x1F DUP3 ADD AND SWAP1 POP DUP1 DUP4 ADD SWAP3 POP POP POP POP POP POP POP DUP2 MSTORE PUSH1 0x20 ADD CALLER PUSH20 0xFFFFFFFFFFFFFFFFFFFFFFFFFFFFFFFFFFFFFFFF AND DUP2 MSTORE POP PUSH1 0x7 PUSH0 DUP9 DUP2 MSTORE PUSH1 0x20 ADD SWAP1 DUP2 MSTORE PUSH1 0x20 ADD PUSH0 KECCAK256 PUSH0 PUSH1 0x8 PUSH0 DUP11 DUP2 MSTORE PUSH1 0x20 ADD SWAP1 DUP2 MSTORE PUSH1 0x20 ADD PUSH0 KECCAK256 SLOAD DUP2 MSTORE PUSH1 0x20 ADD SWAP1 DUP2 MSTORE PUSH1 0x20 ADD PUSH0 KECCAK256 PUSH0 DUP3 ADD MLOAD DUP2 PUSH0 ADD SWAP1 DUP2 PUSH2 0x28BC SWAP2 SWAP1 PUSH2 0x4B80 JUMP JUMPDEST POP PUSH1 0x20 DUP3 ADD MLOAD DUP2 PUSH1 0x1 ADD PUSH0 PUSH2 0x100 EXP DUP2 SLOAD DUP2 PUSH20 0xFFFFFFFFFFFFFFFFFFFFFFFFFFFFFFFFFFFFFFFF MUL NOT AND SWAP1 DUP4 PUSH20 0xFFFFFFFFFFFFFFFFFFFFFFFFFFFFFFFFFFFFFFFF AND MUL OR SWAP1 SSTORE POP SWAP1 POP POP PUSH2 0x291A PUSH8 0x37642F3319B62755 PUSH1 0xC0 SHL PUSH2 0x3AB1 JUMP JUMPDEST PUSH1 0x8 PUSH0 DUP8 DUP2 MSTORE PUSH1 0x20 ADD SWAP1 DUP2 MSTORE PUSH1 0x20 ADD PUSH0 KECCAK256 PUSH0 DUP2 SLOAD PUSH2 0x2937 SWAP1 PUSH2 0x4C4F JUMP JUMPDEST SWAP2 SWAP1 POP DUP2 SWAP1 SSTORE POP PUSH2 0x2952 PUSH8 0x3F860A40858C2EAA PUSH1 0xC0 SHL PUSH2 0x3AB1 JUMP JUMPDEST TIMESTAMP PUSH1 0xB PUSH0 CALLER PUSH20 0xFFFFFFFFFFFFFFFFFFFFFFFFFFFFFFFFFFFFFFFF AND PUSH20 0xFFFFFFFFFFFFFFFFFFFFFFFFFFFFFFFFFFFFFFFF AND DUP2 MSTORE PUSH1 0x20 ADD SWAP1 DUP2 MSTORE PUSH1 0x20 ADD PUSH0 KECCAK256 DUP2 SWAP1 SSTORE POP PUSH2 0x29A8 PUSH8 0x7D1184CE5113EF87 PUSH1 0xC0 SHL PUSH2 0x3AB1 JUMP JUMPDEST PUSH2 0x29BC PUSH8 0x6CE697A65ED87C75 PUSH1 0xC0 SHL PUSH2 0x3AB1 JUMP JUMPDEST PUSH32 0x3021694D1EF819D2B9BC13C595D4F75437B6BBBB2DD33E9F2A9DF24534F6B559 DUP7 PUSH1 0x40 MLOAD PUSH2 0x29EB SWAP2 SWAP1 PUSH2 0x3D67 JUMP JUMPDEST PUSH1 0x40 MLOAD DUP1 SWAP2 SUB SWAP1 LOG1 POP POP POP POP POP POP JUMP JUMPDEST PUSH2 0x2A0F PUSH8 0x5054F70CD4B13FE3 PUSH1 0xC0 SHL PUSH2 0x3AB1 JUMP JUMPDEST DUP3 PUSH2 0x2A24 PUSH8 0x1BA29D8EED77B1E0 PUSH1 0xC0 SHL PUSH2 0x3AB1 JUMP JUMPDEST PUSH2 0x2A38 PUSH8 0xB11F4080883007BA PUSH1 0xC0 SHL PUSH2 0x3AB1 JUMP JUMPDEST PUSH2 0x2A4C PUSH8 0xE80104790E0E51C0 PUSH1 0xC0 SHL PUSH2 0x3AB1 JUMP JUMPDEST PUSH2 0x2A60 PUSH8 0x1A6FFF257A44D796 PUSH1 0xC0 SHL PUSH2 0x3AB1 JUMP JUMPDEST PUSH1 0x4 DUP1 SLOAD SWAP1 POP DUP2 LT PUSH2 0x2AA7 JUMPI PUSH1 0x40 MLOAD PUSH32 0x8C379A000000000000000000000000000000000000000000000000000000000 DUP2 MSTORE PUSH1 0x4 ADD PUSH2 0x2A9E SWAP1 PUSH2 0x4658 JUMP JUMPDEST PUSH1 0x40 MLOAD DUP1 SWAP2 SUB SWAP1 REVERT JUMPDEST PUSH2 0x2ABB PUSH8 0x31B9F9A63A68E10A PUSH1 0xC0 SHL PUSH2 0x3AB1 JUMP JUMPDEST PUSH2 0x2ACF PUSH8 0xC5A4257B9CD48C58 PUSH1 0xC0 SHL PUSH2 0x3AB1 JUMP JUMPDEST PUSH2 0x2AE3 PUSH8 0xE1CA050D711E0635 PUSH1 0xC0 SHL PUSH2 0x3AB1 JUMP JUMPDEST PUSH2 0x2AF7 PUSH8 0x9ABBC4355466028 PUSH1 0xC0 SHL PUSH2 0x3AB1 JUMP JUMPDEST DUP3 DUP3 DUP1 DUP1 PUSH1 0x1F ADD PUSH1 0x20 DUP1 SWAP2 DIV MUL PUSH1 0x20 ADD PUSH1 0x40 MLOAD SWAP1 DUP2 ADD PUSH1 0x40 MSTORE DUP1 SWAP4 SWAP3 SWAP2 SWAP1 DUP2 DUP2 MSTORE PUSH1 0x20 ADD DUP4 DUP4 DUP1 DUP3 DUP5 CALLDATACOPY PUSH0 DUP2 DUP5 ADD MSTORE PUSH1 0x1F NOT PUSH1 0x1F DUP3 ADD AND SWAP1 POP DUP1 DUP4 ADD SWAP3 POP POP POP POP POP POP POP PUSH2 0x2B4F PUSH8 0x534646307BDF4A81 PUSH1 0xC0 SHL PUSH2 0x3AB1 JUMP JUMPDEST PUSH2 0x2B63 PUSH8 0xCAC778F577A97C12 PUSH1 0xC0 SHL PUSH2 0x3AB1 JUMP JUMPDEST PUSH2 0x2B77 PUSH8 0xF1D88E229385115D PUSH1 0xC0 SHL PUSH2 0x3AB1 JUMP JUMPDEST PUSH2 0x2B8B PUSH8 0x86026ED335A0A6A5 PUSH1 0xC0 SHL PUSH2 0x3AB1 JUMP JUMPDEST PUSH0 DUP2 MLOAD GT PUSH2 0x2BCE JUMPI PUSH1 0x40 MLOAD PUSH32 0x8C379A000000000000000000000000000000000000000000000000000000000 DUP2 MSTORE PUSH1 0x4 ADD PUSH2 0x2BC5 SWAP1 PUSH2 0x48FD JUMP JUMPDEST PUSH1 0x40 MLOAD DUP1 SWAP2 SUB SWAP1 REVERT JUMPDEST PUSH2 0x2BE2 PUSH8 0xBC821AC6FFC9E297 PUSH1 0xC0 SHL PUSH2 0x3AB1 JUMP JUMPDEST PUSH2 0x2BF6 PUSH8 0x16E1665DBD85D4A9 PUSH1 0xC0 SHL PUSH2 0x3AB1 JUMP JUMPDEST PUSH2 0x2C0A PUSH8 0xDDD1D1F1344624CA PUSH1 0xC0 SHL PUSH2 0x3AB1 JUMP JUMPDEST PUSH2 0x2C1E PUSH8 0xAFE9573400EF5AE8 PUSH1 0xC0 SHL PUSH2 0x3AB1 JUMP JUMPDEST CALLER PUSH2 0x2C33 PUSH8 0xB5656ABD29E474CA PUSH1 0xC0 SHL PUSH2 0x3AB1 JUMP JUMPDEST PUSH2 0x2C47 PUSH8 0x41A323EF344D4CC2 PUSH1 0xC0 SHL PUSH2 0x3AB1 JUMP JUMPDEST PUSH2 0x2C5B PUSH8 0xDDBC0EB3A56A9FB8 PUSH1 0xC0 SHL PUSH2 0x3AB1 JUMP JUMPDEST PUSH2 0x2C6F PUSH8 0x929AE5DF5D5D6A8 PUSH1 0xC0 SHL PUSH2 0x3AB1 JUMP JUMPDEST PUSH1 0x2 TIMESTAMP PUSH2 0x2C7C SWAP2 SWAP1 PUSH2 0x491B JUMP JUMPDEST PUSH1 0xB PUSH0 CALLER PUSH20 0xFFFFFFFFFFFFFFFFFFFFFFFFFFFFFFFFFFFFFFFF AND PUSH20 0xFFFFFFFFFFFFFFFFFFFFFFFFFFFFFFFFFFFFFFFF AND DUP2 MSTORE PUSH1 0x20 ADD SWAP1 DUP2 MSTORE PUSH1 0x20 ADD PUSH0 KECCAK256 SLOAD LT PUSH2 0x2CFA JUMPI PUSH1 0x40 MLOAD PUSH32 0x8C379A000000000000000000000000000000000000000000000000000000000 DUP2 MSTORE PUSH1 0x4 ADD PUSH2 0x2CF1 SWAP1 PUSH2 0x4998 JUMP JUMPDEST PUSH1 0x40 MLOAD DUP1 SWAP2 SUB SWAP1 REVERT JUMPDEST PUSH2 0x2D0E PUSH8 0x15B3BB904D3E19BD PUSH1 0xC0 SHL PUSH2 0x3AB1 JUMP JUMPDEST PUSH2 0x2D22 PUSH8 0x436FCE33529549DB PUSH1 0xC0 SHL PUSH2 0x3AB1 JUMP JUMPDEST PUSH2 0x2D36 PUSH8 0x4F4AE9EAE6261AB7 PUSH1 0xC0 SHL PUSH2 0x3AB1 JUMP JUMPDEST PUSH2 0x2D4A PUSH8 0x2FE132506CC0A6A9 PUSH1 0xC0 SHL PUSH2 0x3AB1 JUMP JUMPDEST PUSH2 0x2D5E PUSH8 0xEC6DE968745E66BE PUSH1 0xC0 SHL PUSH2 0x3AB1 JUMP JUMPDEST PUSH2 0x2D72 PUSH8 0xFCEC784388DAFD2B PUSH1 0xC0 SHL PUSH2 0x3AB1 JUMP JUMPDEST PUSH1 0x9 PUSH0 DUP8 DUP2 MSTORE PUSH1 0x20 ADD SWAP1 DUP2 MSTORE PUSH1 0x20 ADD PUSH0 KECCAK256 PUSH0 CALLER PUSH20 0xFFFFFFFFFFFFFFFFFFFFFFFFFFFFFFFFFFFFFFFF AND PUSH20 0xFFFFFFFFFFFFFFFFFFFFFFFFFFFFFFFFFFFFFFFF AND DUP2 MSTORE PUSH1 0x20 ADD SWAP1 DUP2 MSTORE PUSH1 0x20 ADD PUSH0 KECCAK256 PUSH1 0x40 MLOAD DUP1 PUSH1 0x40 ADD PUSH1 0x40 MSTORE DUP1 DUP8 DUP8 DUP1 DUP1 PUSH1 0x1F ADD PUSH1 0x20 DUP1 SWAP2 DIV MUL PUSH1 0x20 ADD PUSH1 0x40 MLOAD SWAP1 DUP2 ADD PUSH1 0x40 MSTORE DUP1 SWAP4 SWAP3 SWAP2 SWAP1 DUP2 DUP2 MSTORE PUSH1 0x20 ADD DUP4 DUP4 DUP1 DUP3 DUP5 CALLDATACOPY PUSH0 DUP2 DUP5 ADD MSTORE PUSH1 0x1F NOT PUSH1 0x1F DUP3 ADD AND SWAP1 POP DUP1 DUP4 ADD SWAP3 POP POP POP POP POP POP POP DUP2 MSTORE PUSH1 0x20 ADD CALLER PUSH20 0xFFFFFFFFFFFFFFFFFFFFFFFFFFFFFFFFFFFFFFFF AND DUP2 MSTORE POP SWAP1 DUP1 PUSH1 0x1 DUP2 SLOAD ADD DUP1 DUP3 SSTORE DUP1 SWAP2 POP POP PUSH1 0x1 SWAP1 SUB SWAP1 PUSH0 MSTORE PUSH1 0x20 PUSH0 KECCAK256 SWAP1 PUSH1 0x2 MUL ADD PUSH0 SWAP1 SWAP2 SWAP1 SWAP2 SWAP1 SWAP2 POP PUSH0 DUP3 ADD MLOAD DUP2 PUSH0 ADD SWAP1 DUP2 PUSH2 0x2E65 SWAP2 SWAP1 PUSH2 0x4B80 JUMP JUMPDEST POP PUSH1 0x20 DUP3 ADD MLOAD DUP2 PUSH1 0x1 ADD PUSH0 PUSH2 0x100 EXP DUP2 SLOAD DUP2 PUSH20 0xFFFFFFFFFFFFFFFFFFFFFFFFFFFFFFFFFFFFFFFF MUL NOT AND SWAP1 DUP4 PUSH20 0xFFFFFFFFFFFFFFFFFFFFFFFFFFFFFFFFFFFFFFFF AND MUL OR SWAP1 SSTORE POP POP POP PUSH2 0x2EC2 PUSH8 0x6A6DFAB48D049747 PUSH1 0xC0 SHL PUSH2 0x3AB1 JUMP JUMPDEST TIMESTAMP PUSH1 0xB PUSH0 CALLER PUSH20 0xFFFFFFFFFFFFFFFFFFFFFFFFFFFFFFFFFFFFFFFF AND PUSH20 0xFFFFFFFFFFFFFFFFFFFFFFFFFFFFFFFFFFFFFFFF AND DUP2 MSTORE PUSH1 0x20 ADD SWAP1 DUP2 MSTORE PUSH1 0x20 ADD PUSH0 KECCAK256 DUP2 SWAP1 SSTORE POP PUSH2 0x2F18 PUSH8 0x405B52BEC2FA3CE8 PUSH1 0xC0 SHL PUSH2 0x3AB1 JUMP JUMPDEST PUSH2 0x2F2C PUSH8 0x7F207324D5A225F8 PUSH1 0xC0 SHL PUSH2 0x3AB1 JUMP JUMPDEST PUSH1 0x1 PUSH1 0x9 PUSH0 DUP9 DUP2 MSTORE PUSH1 0x20 ADD SWAP1 DUP2 MSTORE PUSH1 0x20 ADD PUSH0 KECCAK256 PUSH0 CALLER PUSH20 0xFFFFFFFFFFFFFFFFFFFFFFFFFFFFFFFFFFFFFFFF AND PUSH20 0xFFFFFFFFFFFFFFFFFFFFFFFFFFFFFFFFFFFFFFFF AND DUP2 MSTORE PUSH1 0x20 ADD SWAP1 DUP2 MSTORE PUSH1 0x20 ADD PUSH0 KECCAK256 DUP1 SLOAD SWAP1 POP SUB PUSH2 0x3033 JUMPI PUSH2 0x2F97 PUSH8 0xB0A28E2338B0C79A PUSH1 0xC0 SHL PUSH2 0x3AB1 JUMP JUMPDEST PUSH2 0x2FAB PUSH8 0xA433F95BE6530469 PUSH1 0xC0 SHL PUSH2 0x3AB1 JUMP JUMPDEST PUSH2 0x2FBF PUSH8 0x27E46B860771E6AB PUSH1 0xC0 SHL PUSH2 0x3AB1 JUMP JUMPDEST PUSH1 0xA PUSH0 DUP8 DUP2 MSTORE PUSH1 0x20 ADD SWAP1 DUP2 MSTORE PUSH1 0x20 ADD PUSH0 KECCAK256 CALLER SWAP1 DUP1 PUSH1 0x1 DUP2 SLOAD ADD DUP1 DUP3 SSTORE DUP1 SWAP2 POP POP PUSH1 0x1 SWAP1 SUB SWAP1 PUSH0 MSTORE PUSH1 0x20 PUSH0 KECCAK256 ADD PUSH0 SWAP1 SWAP2 SWAP1 SWAP2 SWAP1 SWAP2 PUSH2 0x100 EXP DUP2 SLOAD DUP2 PUSH20 0xFFFFFFFFFFFFFFFFFFFFFFFFFFFFFFFFFFFFFFFF MUL NOT AND SWAP1 DUP4 PUSH20 0xFFFFFFFFFFFFFFFFFFFFFFFFFFFFFFFFFFFFFFFF AND MUL OR SWAP1 SSTORE POP PUSH2 0x3048 JUMP JUMPDEST PUSH2 0x3047 PUSH8 0x167DA6F0FA915C31 PUSH1 0xC0 SHL PUSH2 0x3AB1 JUMP JUMPDEST JUMPDEST POP POP POP POP POP POP JUMP JUMPDEST PUSH2 0x3058 PUSH2 0x3AB4 JUMP JUMPDEST PUSH0 PUSH20 0xFFFFFFFFFFFFFFFFFFFFFFFFFFFFFFFFFFFFFFFF AND DUP2 PUSH20 0xFFFFFFFFFFFFFFFFFFFFFFFFFFFFFFFFFFFFFFFF AND SUB PUSH2 0x30C6 JUMPI PUSH1 0x40 MLOAD PUSH32 0x8C379A000000000000000000000000000000000000000000000000000000000 DUP2 MSTORE PUSH1 0x4 ADD PUSH2 0x30BD SWAP1 PUSH2 0x4D06 JUMP JUMPDEST PUSH1 0x40 MLOAD DUP1 SWAP2 SUB SWAP1 REVERT JUMPDEST PUSH2 0x30CF DUP2 PUSH2 0x3B32 JUMP JUMPDEST POP JUMP JUMPDEST PUSH1 0x2 PUSH1 0x20 MSTORE DUP1 PUSH0 MSTORE PUSH1 0x40 PUSH0 KECCAK256 PUSH0 SWAP2 POP SLOAD SWAP1 PUSH2 0x100 EXP SWAP1 DIV PUSH20 0xFFFFFFFFFFFFFFFFFFFFFFFFFFFFFFFFFFFFFFFF AND DUP2 JUMP JUMPDEST PUSH1 0x60 PUSH2 0x3118 PUSH8 0xBFDCF73043F6D742 PUSH1 0xC0 SHL PUSH2 0x3AB1 JUMP JUMPDEST PUSH2 0x312C PUSH8 0xC50ED91854F8DEEC PUSH1 0xC0 SHL PUSH2 0x3AB1 JUMP JUMPDEST PUSH2 0x3140 PUSH8 0x684490F89ACB9851 PUSH1 0xC0 SHL PUSH2 0x3AB1 JUMP JUMPDEST PUSH1 0x3 PUSH0 CALLER PUSH20 0xFFFFFFFFFFFFFFFFFFFFFFFFFFFFFFFFFFFFFFFF AND PUSH20 0xFFFFFFFFFFFFFFFFFFFFFFFFFFFFFFFFFFFFFFFF AND DUP2 MSTORE PUSH1 0x20 ADD SWAP1 DUP2 MSTORE PUSH1 0x20 ADD PUSH0 KECCAK256 DUP1 SLOAD DUP1 PUSH1 0x20 MUL PUSH1 0x20 ADD PUSH1 0x40 MLOAD SWAP1 DUP2 ADD PUSH1 0x40 MSTORE DUP1 SWAP3 SWAP2 SWAP1 DUP2 DUP2 MSTORE PUSH1 0x20 ADD DUP3 DUP1 SLOAD DUP1 ISZERO PUSH2 0x31C5 JUMPI PUSH1 0x20 MUL DUP3 ADD SWAP2 SWAP1 PUSH0 MSTORE PUSH1 0x20 PUSH0 KECCAK256 SWAP1 JUMPDEST DUP2 SLOAD DUP2 MSTORE PUSH1 0x20 ADD SWAP1 PUSH1 0x1 ADD SWAP1 DUP1 DUP4 GT PUSH2 0x31B1 JUMPI JUMPDEST POP POP POP POP POP SWAP1 POP SWAP1 JUMP JUMPDEST PUSH2 0x31E3 PUSH8 0x6166D923BB8F2DC3 PUSH1 0xC0 SHL PUSH2 0x3AB1 JUMP JUMPDEST PUSH2 0x31F7 PUSH8 0x8B556308549C9176 PUSH1 0xC0 SHL PUSH2 0x3AB1 JUMP JUMPDEST PUSH2 0x320B PUSH8 0x35550CFCC723E96E PUSH1 0xC0 SHL PUSH2 0x3AB1 JUMP JUMPDEST PUSH2 0x321F PUSH8 0x50DBB595625C392 PUSH1 0xC0 SHL PUSH2 0x3AB1 JUMP JUMPDEST PUSH2 0x3233 PUSH8 0xA9FC9A1AA2FE3B4C PUSH1 0xC0 SHL PUSH2 0x3AB1 JUMP JUMPDEST PUSH1 0x1 PUSH0 CALLER PUSH20 0xFFFFFFFFFFFFFFFFFFFFFFFFFFFFFFFFFFFFFFFF AND PUSH20 0xFFFFFFFFFFFFFFFFFFFFFFFFFFFFFFFFFFFFFFFF AND DUP2 MSTORE PUSH1 0x20 ADD SWAP1 DUP2 MSTORE PUSH1 0x20 ADD PUSH0 KECCAK256 PUSH0 SWAP1 SLOAD SWAP1 PUSH2 0x100 EXP SWAP1 DIV PUSH1 0xFF AND PUSH2 0x32BC JUMPI PUSH1 0x40 MLOAD PUSH32 0x8C379A000000000000000000000000000000000000000000000000000000000 DUP2 MSTORE PUSH1 0x4 ADD PUSH2 0x32B3 SWAP1 PUSH2 0x4D6E JUMP JUMPDEST PUSH1 0x40 MLOAD DUP1 SWAP2 SUB SWAP1 REVERT JUMPDEST PUSH2 0x32D0 PUSH8 0x92CFB29AD869F4D6 PUSH1 0xC0 SHL PUSH2 0x3AB1 JUMP JUMPDEST PUSH2 0x32E4 PUSH8 0x7BA2005878455EDF PUSH1 0xC0 SHL PUSH2 0x3AB1 JUMP JUMPDEST PUSH2 0x32F8 PUSH8 0xF94F0456E369D63D PUSH1 0xC0 SHL PUSH2 0x3AB1 JUMP JUMPDEST PUSH2 0x330C PUSH8 0xC98230354C0F01C2 PUSH1 0xC0 SHL PUSH2 0x3AB1 JUMP JUMPDEST DUP5 DUP5 DUP1 DUP1 PUSH1 0x1F ADD PUSH1 0x20 DUP1 SWAP2 DIV MUL PUSH1 0x20 ADD PUSH1 0x40 MLOAD SWAP1 DUP2 ADD PUSH1 0x40 MSTORE DUP1 SWAP4 SWAP3 SWAP2 SWAP1 DUP2 DUP2 MSTORE PUSH1 0x20 ADD DUP4 DUP4 DUP1 DUP3 DUP5 CALLDATACOPY PUSH0 DUP2 DUP5 ADD MSTORE PUSH1 0x1F NOT PUSH1 0x1F DUP3 ADD AND SWAP1 POP DUP1 DUP4 ADD SWAP3 POP POP POP POP POP POP POP PUSH2 0x3364 PUSH8 0x534646307BDF4A81 PUSH1 0xC0 SHL PUSH2 0x3AB1 JUMP JUMPDEST PUSH2 0x3378 PUSH8 0xCAC778F577A97C12 PUSH1 0xC0 SHL PUSH2 0x3AB1 JUMP JUMPDEST PUSH2 0x338C PUSH8 0xF1D88E229385115D PUSH1 0xC0 SHL PUSH2 0x3AB1 JUMP JUMPDEST PUSH2 0x33A0 PUSH8 0x86026ED335A0A6A5 PUSH1 0xC0 SHL PUSH2 0x3AB1 JUMP JUMPDEST PUSH0 DUP2 MLOAD GT PUSH2 0x33E3 JUMPI PUSH1 0x40 MLOAD PUSH32 0x8C379A000000000000000000000000000000000000000000000000000000000 DUP2 MSTORE PUSH1 0x4 ADD PUSH2 0x33DA SWAP1 PUSH2 0x48FD JUMP JUMPDEST PUSH1 0x40 MLOAD DUP1 SWAP2 SUB SWAP1 REVERT JUMPDEST PUSH2 0x33F7 PUSH8 0xBC821AC6FFC9E297 PUSH1 0xC0 SHL PUSH2 0x3AB1 JUMP JUMPDEST PUSH2 0x340B PUSH8 0x16E1665DBD85D4A9 PUSH1 0xC0 SHL PUSH2 0x3AB1 JUMP JUMPDEST PUSH2 0x341F PUSH8 0x764CB665D8F91C9D PUSH1 0xC0 SHL PUSH2 0x3AB1 JUMP JUMPDEST PUSH2 0x3433 PUSH8 0x4C932A98DB8769D7 PUSH1 0xC0 SHL PUSH2 0x3AB1 JUMP JUMPDEST PUSH2 0x3447 PUSH8 0x992550C663104B11 PUSH1 0xC0 SHL PUSH2 0x3AB1 JUMP JUMPDEST PUSH2 0x345B PUSH8 0xD7D5E35E96B2AF70 PUSH1 0xC0 SHL PUSH2 0x3AB1 JUMP JUMPDEST PUSH2 0x346F PUSH8 0x9C3EC0D89DB42FCF PUSH1 0xC0 SHL PUSH2 0x3AB1 JUMP JUMPDEST TIMESTAMP DUP5 GT PUSH2 0x34B1 JUMPI PUSH1 0x40 MLOAD PUSH32 0x8C379A000000000000000000000000000000000000000000000000000000000 DUP2 MSTORE PUSH1 0x4 ADD PUSH2 0x34A8 SWAP1 PUSH2 0x4DD6 JUMP JUMPDEST PUSH1 0x40 MLOAD DUP1 SWAP2 SUB SWAP1 REVERT JUMPDEST PUSH2 0x34C5 PUSH8 0x285E0F8F02F98FE9 PUSH1 0xC0 SHL PUSH2 0x3AB1 JUMP JUMPDEST PUSH2 0x34D9 PUSH8 0x5EBAA6FBD236D72F PUSH1 0xC0 SHL PUSH2 0x3AB1 JUMP JUMPDEST PUSH2 0x34ED PUSH8 0x9E0F407D67BAE712 PUSH1 0xC0 SHL PUSH2 0x3AB1 JUMP JUMPDEST PUSH2 0x3501 PUSH8 0xC264AA29AFA40078 PUSH1 0xC0 SHL PUSH2 0x3AB1 JUMP JUMPDEST PUSH0 DUP3 PUSH1 0xFF AND GT DUP1 ISZERO PUSH2 0x3521 JUMPI POP PUSH0 PUSH1 0x2 DUP4 PUSH2 0x351C SWAP2 SWAP1 PUSH2 0x4E21 JUMP JUMPDEST PUSH1 0xFF AND EQ JUMPDEST PUSH2 0x3560 JUMPI PUSH1 0x40 MLOAD PUSH32 0x8C379A000000000000000000000000000000000000000000000000000000000 DUP2 MSTORE PUSH1 0x4 ADD PUSH2 0x3557 SWAP1 PUSH2 0x4E9B JUMP JUMPDEST PUSH1 0x40 MLOAD DUP1 SWAP2 SUB SWAP1 REVERT JUMPDEST PUSH2 0x3574 PUSH8 0x75C933371C2AE7CF PUSH1 0xC0 SHL PUSH2 0x3AB1 JUMP JUMPDEST PUSH2 0x3588 PUSH8 0xE822DD1AC0FDBF67 PUSH1 0xC0 SHL PUSH2 0x3AB1 JUMP JUMPDEST PUSH2 0x359C PUSH8 0x919CA10884FB8791 PUSH1 0xC0 SHL PUSH2 0x3AB1 JUMP JUMPDEST PUSH2 0x35B0 PUSH8 0x22AF9A369C13021 PUSH1 0xC0 SHL PUSH2 0x3AB1 JUMP JUMPDEST PUSH1 0x5 DUP1 DUP2 GT ISZERO PUSH2 0x35C3 JUMPI PUSH2 0x35C2 PUSH2 0x3F47 JUMP JUMPDEST JUMPDEST DUP4 PUSH1 0xFF AND GT ISZERO PUSH2 0x3608 JUMPI PUSH1 0x40 MLOAD PUSH32 0x8C379A000000000000000000000000000000000000000000000000000000000 DUP2 MSTORE PUSH1 0x4 ADD PUSH2 0x35FF SWAP1 PUSH2 0x4F03 JUMP JUMPDEST PUSH1 0x40 MLOAD DUP1 SWAP2 SUB SWAP1 REVERT JUMPDEST PUSH2 0x361C PUSH8 0xEEE5E586EC85419C PUSH1 0xC0 SHL PUSH2 0x3AB1 JUMP JUMPDEST PUSH2 0x3630 PUSH8 0xC193EB482248E4EA PUSH1 0xC0 SHL PUSH2 0x3AB1 JUMP JUMPDEST PUSH2 0x3644 PUSH8 0x4DF230151F34E51A PUSH1 0xC0 SHL PUSH2 0x3AB1 JUMP JUMPDEST PUSH0 PUSH1 0x4 DUP1 SLOAD SWAP1 POP SWAP1 POP PUSH2 0x3661 PUSH8 0x60A0782AE40C7263 PUSH1 0xC0 SHL PUSH2 0x3AB1 JUMP JUMPDEST PUSH2 0x3675 PUSH8 0x4D4645ADC300B909 PUSH1 0xC0 SHL PUSH2 0x3AB1 JUMP JUMPDEST PUSH1 0x4 PUSH1 0x40 MLOAD DUP1 PUSH1 0xE0 ADD PUSH1 0x40 MSTORE DUP1 DUP4 DUP2 MSTORE PUSH1 0x20 ADD DUP10 DUP10 DUP1 DUP1 PUSH1 0x1F ADD PUSH1 0x20 DUP1 SWAP2 DIV MUL PUSH1 0x20 ADD PUSH1 0x40 MLOAD SWAP1 DUP2 ADD PUSH1 0x40 MSTORE DUP1 SWAP4 SWAP3 SWAP2 SWAP1 DUP2 DUP2 MSTORE PUSH1 0x20 ADD DUP4 DUP4 DUP1 DUP3 DUP5 CALLDATACOPY PUSH0 DUP2 DUP5 ADD MSTORE PUSH1 0x1F NOT PUSH1 0x1F DUP3 ADD AND SWAP1 POP DUP1 DUP4 ADD SWAP3 POP POP POP POP POP POP POP DUP2 MSTORE PUSH1 0x20 ADD DUP8 DUP2 MSTORE PUSH1 0x20 ADD DUP7 PUSH1 0xFF AND PUSH1 0x5 DUP2 GT ISZERO PUSH2 0x36ED JUMPI PUSH2 0x36EC PUSH2 0x3F47 JUMP JUMPDEST JUMPDEST PUSH1 0x5 DUP2 GT ISZERO PUSH2 0x36FF JUMPI PUSH2 0x36FE PUSH2 0x3F47 JUMP JUMPDEST JUMPDEST DUP2 MSTORE PUSH1 0x20 ADD DUP6 PUSH1 0xFF AND DUP2 MSTORE PUSH1 0x20 ADD PUSH0 PUSH20 0xFFFFFFFFFFFFFFFFFFFFFFFFFFFFFFFFFFFFFFFF AND DUP2 MSTORE PUSH1 0x20 ADD PUSH0 PUSH20 0xFFFFFFFFFFFFFFFFFFFFFFFFFFFFFFFFFFFFFFFF AND DUP2 MSTORE POP SWAP1 DUP1 PUSH1 0x1 DUP2 SLOAD ADD DUP1 DUP3 SSTORE DUP1 SWAP2 POP POP PUSH1 0x1 SWAP1 SUB SWAP1 PUSH0 MSTORE PUSH1 0x20 PUSH0 KECCAK256 SWAP1 PUSH1 0x5 MUL ADD PUSH0 SWAP1 SWAP2 SWAP1 SWAP2 SWAP1 SWAP2 POP PUSH0 DUP3 ADD MLOAD DUP2 PUSH0 ADD SSTORE PUSH1 0x20 DUP3 ADD MLOAD DUP2 PUSH1 0x1 ADD SWAP1 DUP2 PUSH2 0x3786 SWAP2 SWAP1 PUSH2 0x4B80 JUMP JUMPDEST POP PUSH1 0x40 DUP3 ADD MLOAD DUP2 PUSH1 0x2 ADD SSTORE PUSH1 0x60 DUP3 ADD MLOAD DUP2 PUSH1 0x3 ADD PUSH0 PUSH2 0x100 EXP DUP2 SLOAD DUP2 PUSH1 0xFF MUL NOT AND SWAP1 DUP4 PUSH1 0x5 DUP2 GT ISZERO PUSH2 0x37BB JUMPI PUSH2 0x37BA PUSH2 0x3F47 JUMP JUMPDEST JUMPDEST MUL OR SWAP1 SSTORE POP PUSH1 0x80 DUP3 ADD MLOAD DUP2 PUSH1 0x3 ADD PUSH1 0x1 PUSH2 0x100 EXP DUP2 SLOAD DUP2 PUSH1 0xFF MUL NOT AND SWAP1 DUP4 PUSH1 0xFF AND MUL OR SWAP1 SSTORE POP PUSH1 0xA0 DUP3 ADD MLOAD DUP2 PUSH1 0x3 ADD PUSH1 0x2 PUSH2 0x100 EXP DUP2 SLOAD DUP2 PUSH20 0xFFFFFFFFFFFFFFFFFFFFFFFFFFFFFFFFFFFFFFFF MUL NOT AND SWAP1 DUP4 PUSH20 0xFFFFFFFFFFFFFFFFFFFFFFFFFFFFFFFFFFFFFFFF AND MUL OR SWAP1 SSTORE POP PUSH1 0xC0 DUP3 ADD MLOAD DUP2 PUSH1 0x4 ADD PUSH0 PUSH2 0x100 EXP DUP2 SLOAD DUP2 PUSH20 0xFFFFFFFFFFFFFFFFFFFFFFFFFFFFFFFFFFFFFFFF MUL NOT AND SWAP1 DUP4 PUSH20 0xFFFFFFFFFFFFFFFFFFFFFFFFFFFFFFFFFFFFFFFF AND MUL OR SWAP1 SSTORE POP POP POP PUSH2 0x3884 PUSH8 0x770119844F62F0B5 PUSH1 0xC0 SHL PUSH2 0x3AB1 JUMP JUMPDEST CALLER PUSH1 0x2 PUSH0 DUP4 DUP2 MSTORE PUSH1 0x20 ADD SWAP1 DUP2 MSTORE PUSH1 0x20 ADD PUSH0 KECCAK256 PUSH0 PUSH2 0x100 EXP DUP2 SLOAD DUP2 PUSH20 0xFFFFFFFFFFFFFFFFFFFFFFFFFFFFFFFFFFFFFFFF MUL NOT AND SWAP1 DUP4 PUSH20 0xFFFFFFFFFFFFFFFFFFFFFFFFFFFFFFFFFFFFFFFF AND MUL OR SWAP1 SSTORE POP PUSH2 0x38E7 PUSH8 0x1FD15717E27AC43E PUSH1 0xC0 SHL PUSH2 0x3AB1 JUMP JUMPDEST PUSH2 0x38FB PUSH8 0x537282F208048092 PUSH1 0xC0 SHL PUSH2 0x3AB1 JUMP JUMPDEST PUSH1 0x3 PUSH0 CALLER PUSH20 0xFFFFFFFFFFFFFFFFFFFFFFFFFFFFFFFFFFFFFFFF AND PUSH20 0xFFFFFFFFFFFFFFFFFFFFFFFFFFFFFFFFFFFFFFFF AND DUP2 MSTORE PUSH1 0x20 ADD SWAP1 DUP2 MSTORE PUSH1 0x20 ADD PUSH0 KECCAK256 DUP2 SWAP1 DUP1 PUSH1 0x1 DUP2 SLOAD ADD DUP1 DUP3 SSTORE DUP1 SWAP2 POP POP PUSH1 0x1 SWAP1 SUB SWAP1 PUSH0 MSTORE PUSH1 0x20 PUSH0 KECCAK256 ADD PUSH0 SWAP1 SWAP2 SWAP1 SWAP2 SWAP1 SWAP2 POP SSTORE PUSH2 0x3970 PUSH8 0xE1832CD686816218 PUSH1 0xC0 SHL PUSH2 0x3AB1 JUMP JUMPDEST PUSH2 0x3984 PUSH8 0xE48F19CAC9AF8AA PUSH1 0xC0 SHL PUSH2 0x3AB1 JUMP JUMPDEST PUSH32 0x113D32D0B7AEC15A8C7F50AF4CB42F4695E5B95524ED69519AC88D6C1F1F40F6 DUP2 PUSH1 0x40 MLOAD PUSH2 0x39B3 SWAP2 SWAP1 PUSH2 0x3D67 JUMP JUMPDEST PUSH1 0x40 MLOAD DUP1 SWAP2 SUB SWAP1 LOG1 POP POP POP POP POP POP POP JUMP JUMPDEST PUSH1 0x7 PUSH1 0x20 MSTORE DUP2 PUSH0 MSTORE PUSH1 0x40 PUSH0 KECCAK256 PUSH1 0x20 MSTORE DUP1 PUSH0 MSTORE PUSH1 0x40 PUSH0 KECCAK256 PUSH0 SWAP2 POP SWAP2 POP POP DUP1 PUSH0 ADD DUP1 SLOAD PUSH2 0x39EE SWAP1 PUSH2 0x46CA JUMP JUMPDEST DUP1 PUSH1 0x1F ADD PUSH1 0x20 DUP1 SWAP2 DIV MUL PUSH1 0x20 ADD PUSH1 0x40 MLOAD SWAP1 DUP2 ADD PUSH1 0x40 MSTORE DUP1 SWAP3 SWAP2 SWAP1 DUP2 DUP2 MSTORE PUSH1 0x20 ADD DUP3 DUP1 SLOAD PUSH2 0x3A1A SWAP1 PUSH2 0x46CA JUMP JUMPDEST DUP1 ISZERO PUSH2 0x3A65 JUMPI DUP1 PUSH1 0x1F LT PUSH2 0x3A3C JUMPI PUSH2 0x100 DUP1 DUP4 SLOAD DIV MUL DUP4 MSTORE SWAP2 PUSH1 0x20 ADD SWAP2 PUSH2 0x3A65 JUMP JUMPDEST DUP3 ADD SWAP2 SWAP1 PUSH0 MSTORE PUSH1 0x20 PUSH0 KECCAK256 SWAP1 JUMPDEST DUP2 SLOAD DUP2 MSTORE SWAP1 PUSH1 0x1 ADD SWAP1 PUSH1 0x20 ADD DUP1 DUP4 GT PUSH2 0x3A48 JUMPI DUP3 SWAP1 SUB PUSH1 0x1F AND DUP3 ADD SWAP2 JUMPDEST POP POP POP POP POP SWAP1 DUP1 PUSH1 0x1 ADD PUSH0 SWAP1 SLOAD SWAP1 PUSH2 0x100 EXP SWAP1 DIV PUSH20 0xFFFFFFFFFFFFFFFFFFFFFFFFFFFFFFFFFFFFFFFF AND SWAP1 POP DUP3 JUMP JUMPDEST PUSH1 0x1 PUSH1 0x20 MSTORE DUP1 PUSH0 MSTORE PUSH1 0x40 PUSH0 KECCAK256 PUSH0 SWAP2 POP SLOAD SWAP1 PUSH2 0x100 EXP SWAP1 DIV PUSH1 0xFF AND DUP2 JUMP JUMPDEST POP JUMP JUMPDEST PUSH2 0x3ABC PUSH2 0x3BF3 JUMP JUMPDEST PUSH20 0xFFFFFFFFFFFFFFFFFFFFFFFFFFFFFFFFFFFFFFFF AND PUSH2 0x3ADA PUSH2 0x1CF2 JUMP JUMPDEST PUSH20 0xFFFFFFFFFFFFFFFFFFFFFFFFFFFFFFFFFFFFFFFF AND EQ PUSH2 0x3B30 JUMPI PUSH1 0x40 MLOAD PUSH32 0x8C379A000000000000000000000000000000000000000000000000000000000 DUP2 MSTORE PUSH1 0x4 ADD PUSH2 0x3B27 SWAP1 PUSH2 0x4F6B JUMP JUMPDEST PUSH1 0x40 MLOAD DUP1 SWAP2 SUB SWAP1 REVERT JUMPDEST JUMP JUMPDEST PUSH0 DUP1 PUSH0 SWAP1 SLOAD SWAP1 PUSH2 0x100 EXP SWAP1 DIV PUSH20 0xFFFFFFFFFFFFFFFFFFFFFFFFFFFFFFFFFFFFFFFF AND SWAP1 POP DUP2 PUSH0 DUP1 PUSH2 0x100 EXP DUP2 SLOAD DUP2 PUSH20 0xFFFFFFFFFFFFFFFFFFFFFFFFFFFFFFFFFFFFFFFF MUL NOT AND SWAP1 DUP4 PUSH20 0xFFFFFFFFFFFFFFFFFFFFFFFFFFFFFFFFFFFFFFFF AND MUL OR SWAP1 SSTORE POP DUP2 PUSH20 0xFFFFFFFFFFFFFFFFFFFFFFFFFFFFFFFFFFFFFFFF AND DUP2 PUSH20 0xFFFFFFFFFFFFFFFFFFFFFFFFFFFFFFFFFFFFFFFF AND PUSH32 0x8BE0079C531659141344CD1FD0A4F28419497F9722A3DAAFE3B4186F6B6457E0 PUSH1 0x40 MLOAD PUSH1 0x40 MLOAD DUP1 SWAP2 SUB SWAP1 LOG3 POP POP JUMP JUMPDEST PUSH0 CALLER SWAP1 POP SWAP1 JUMP JUMPDEST PUSH0 DUP1 REVERT JUMPDEST PUSH0 DUP1 REVERT JUMPDEST PUSH0 PUSH20 0xFFFFFFFFFFFFFFFFFFFFFFFFFFFFFFFFFFFFFFFF DUP3 AND SWAP1 POP SWAP2 SWAP1 POP JUMP JUMPDEST PUSH0 PUSH2 0x3C2B DUP3 PUSH2 0x3C02 JUMP JUMPDEST SWAP1 POP SWAP2 SWAP1 POP JUMP JUMPDEST PUSH2 0x3C3B DUP2 PUSH2 0x3C21 JUMP JUMPDEST DUP2 EQ PUSH2 0x3C45 JUMPI PUSH0 DUP1 REVERT JUMPDEST POP JUMP JUMPDEST PUSH0 DUP2 CALLDATALOAD SWAP1 POP PUSH2 0x3C56 DUP2 PUSH2 0x3C32 JUMP JUMPDEST SWAP3 SWAP2 POP POP JUMP JUMPDEST PUSH0 PUSH1 0x20 DUP3 DUP5 SUB SLT ISZERO PUSH2 0x3C71 JUMPI PUSH2 0x3C70 PUSH2 0x3BFA JUMP JUMPDEST JUMPDEST PUSH0 PUSH2 0x3C7E DUP5 DUP3 DUP6 ADD PUSH2 0x3C48 JUMP JUMPDEST SWAP2 POP POP SWAP3 SWAP2 POP POP JUMP JUMPDEST PUSH0 DUP2 SWAP1 POP SWAP2 SWAP1 POP JUMP JUMPDEST PUSH2 0x3C99 DUP2 PUSH2 0x3C87 JUMP JUMPDEST DUP2 EQ PUSH2 0x3CA3 JUMPI PUSH0 DUP1 REVERT JUMPDEST POP JUMP JUMPDEST PUSH0 DUP2 CALLDATALOAD SWAP1 POP PUSH2 0x3CB4 DUP2 PUSH2 0x3C90 JUMP JUMPDEST SWAP3 SWAP2 POP POP JUMP JUMPDEST PUSH0 DUP2 ISZERO ISZERO SWAP1 POP SWAP2 SWAP1 POP JUMP JUMPDEST PUSH2 0x3CCE DUP2 PUSH2 0x3CBA JUMP JUMPDEST DUP2 EQ PUSH2 0x3CD8 JUMPI PUSH0 DUP1 REVERT JUMPDEST POP JUMP JUMPDEST PUSH0 DUP2 CALLDATALOAD SWAP1 POP PUSH2 0x3CE9 DUP2 PUSH2 0x3CC5 JUMP JUMPDEST SWAP3 SWAP2 POP POP JUMP JUMPDEST PUSH0 DUP1 PUSH1 0x40 DUP4 DUP6 SUB SLT ISZERO PUSH2 0x3D05 JUMPI PUSH2 0x3D04 PUSH2 0x3BFA JUMP JUMPDEST JUMPDEST PUSH0 PUSH2 0x3D12 DUP6 DUP3 DUP7 ADD PUSH2 0x3CA6 JUMP JUMPDEST SWAP3 POP POP PUSH1 0x20 PUSH2 0x3D23 DUP6 DUP3 DUP7 ADD PUSH2 0x3CDB JUMP JUMPDEST SWAP2 POP POP SWAP3 POP SWAP3 SWAP1 POP JUMP JUMPDEST PUSH0 PUSH1 0x20 DUP3 DUP5 SUB SLT ISZERO PUSH2 0x3D42 JUMPI PUSH2 0x3D41 PUSH2 0x3BFA JUMP JUMPDEST JUMPDEST PUSH0 PUSH2 0x3D4F DUP5 DUP3 DUP6 ADD PUSH2 0x3CA6 JUMP JUMPDEST SWAP2 POP POP SWAP3 SWAP2 POP POP JUMP JUMPDEST PUSH2 0x3D61 DUP2 PUSH2 0x3C87 JUMP JUMPDEST DUP3 MSTORE POP POP JUMP JUMPDEST PUSH0 PUSH1 0x20 DUP3 ADD SWAP1 POP PUSH2 0x3D7A PUSH0 DUP4 ADD DUP5 PUSH2 0x3D58 JUMP JUMPDEST SWAP3 SWAP2 POP POP JUMP JUMPDEST PUSH0 DUP1 PUSH1 0x40 DUP4 DUP6 SUB SLT ISZERO PUSH2 0x3D96 JUMPI PUSH2 0x3D95 PUSH2 0x3BFA JUMP JUMPDEST JUMPDEST PUSH0 PUSH2 0x3DA3 DUP6 DUP3 DUP7 ADD PUSH2 0x3CA6 JUMP JUMPDEST SWAP3 POP POP PUSH1 0x20 PUSH2 0x3DB4 DUP6 DUP3 DUP7 ADD PUSH2 0x3C48 JUMP JUMPDEST SWAP2 POP POP SWAP3 POP SWAP3 SWAP1 POP JUMP JUMPDEST PUSH2 0x3DC7 DUP2 PUSH2 0x3CBA JUMP JUMPDEST DUP3 MSTORE POP POP JUMP JUMPDEST PUSH0 PUSH1 0x20 DUP3 ADD SWAP1 POP PUSH2 0x3DE0 PUSH0 DUP4 ADD DUP5 PUSH2 0x3DBE JUMP JUMPDEST SWAP3 SWAP2 POP POP JUMP JUMPDEST PUSH0 DUP2 MLOAD SWAP1 POP SWAP2 SWAP1 POP JUMP JUMPDEST PUSH0 DUP3 DUP3 MSTORE PUSH1 0x20 DUP3 ADD SWAP1 POP SWAP3 SWAP2 POP POP JUMP JUMPDEST PUSH0 DUP2 SWAP1 POP PUSH1 0x20 DUP3 ADD SWAP1 POP SWAP2 SWAP1 POP JUMP JUMPDEST PUSH2 0x3E18 DUP2 PUSH2 0x3C21 JUMP JUMPDEST DUP3 MSTORE POP POP JUMP JUMPDEST PUSH0 PUSH2 0x3E29 DUP4 DUP4 PUSH2 0x3E0F JUMP JUMPDEST PUSH1 0x20 DUP4 ADD SWAP1 POP SWAP3 SWAP2 POP POP JUMP JUMPDEST PUSH0 PUSH1 0x20 DUP3 ADD SWAP1 POP SWAP2 SWAP1 POP JUMP JUMPDEST PUSH0 PUSH2 0x3E4B DUP3 PUSH2 0x3DE6 JUMP JUMPDEST PUSH2 0x3E55 DUP2 DUP6 PUSH2 0x3DF0 JUMP JUMPDEST SWAP4 POP PUSH2 0x3E60 DUP4 PUSH2 0x3E00 JUMP JUMPDEST DUP1 PUSH0 JUMPDEST DUP4 DUP2 LT ISZERO PUSH2 0x3E90 JUMPI DUP2 MLOAD PUSH2 0x3E77 DUP9 DUP3 PUSH2 0x3E1E JUMP JUMPDEST SWAP8 POP PUSH2 0x3E82 DUP4 PUSH2 0x3E35 JUMP JUMPDEST SWAP3 POP POP PUSH1 0x1 DUP2 ADD SWAP1 POP PUSH2 0x3E63 JUMP JUMPDEST POP DUP6 SWAP4 POP POP POP POP SWAP3 SWAP2 POP POP JUMP JUMPDEST PUSH0 PUSH1 0x20 DUP3 ADD SWAP1 POP DUP2 DUP2 SUB PUSH0 DUP4 ADD MSTORE PUSH2 0x3EB5 DUP2 DUP5 PUSH2 0x3E41 JUMP JUMPDEST SWAP1 POP SWAP3 SWAP2 POP POP JUMP JUMPDEST PUSH0 DUP2 MLOAD SWAP1 POP SWAP2 SWAP1 POP JUMP JUMPDEST PUSH0 DUP3 DUP3 MSTORE PUSH1 0x20 DUP3 ADD SWAP1 POP SWAP3 SWAP2 POP POP JUMP JUMPDEST PUSH0 JUMPDEST DUP4 DUP2 LT ISZERO PUSH2 0x3EF4 JUMPI DUP1 DUP3 ADD MLOAD DUP2 DUP5 ADD MSTORE PUSH1 0x20 DUP2 ADD SWAP1 POP PUSH2 0x3ED9 JUMP JUMPDEST PUSH0 DUP5 DUP5 ADD MSTORE POP POP POP POP JUMP JUMPDEST PUSH0 PUSH1 0x1F NOT PUSH1 0x1F DUP4 ADD AND SWAP1 POP SWAP2 SWAP1 POP JUMP JUMPDEST PUSH0 PUSH2 0x3F19 DUP3 PUSH2 0x3EBD JUMP JUMPDEST PUSH2 0x3F23 DUP2 DUP6 PUSH2 0x3EC7 JUMP JUMPDEST SWAP4 POP PUSH2 0x3F33 DUP2 DUP6 PUSH1 0x20 DUP7 ADD PUSH2 0x3ED7 JUMP JUMPDEST PUSH2 0x3F3C DUP2 PUSH2 0x3EFF JUMP JUMPDEST DUP5 ADD SWAP2 POP POP SWAP3 SWAP2 POP POP JUMP JUMPDEST PUSH32 0x4E487B7100000000000000000000000000000000000000000000000000000000 PUSH0 MSTORE PUSH1 0x21 PUSH1 0x4 MSTORE PUSH1 0x24 PUSH0 REVERT JUMPDEST PUSH1 0x6 DUP2 LT PUSH2 0x3F85 JUMPI PUSH2 0x3F84 PUSH2 0x3F47 JUMP JUMPDEST JUMPDEST POP JUMP JUMPDEST PUSH0 DUP2 SWAP1 POP PUSH2 0x3F95 DUP3 PUSH2 0x3F74 JUMP JUMPDEST SWAP2 SWAP1 POP JUMP JUMPDEST PUSH0 PUSH2 0x3FA4 DUP3 PUSH2 0x3F88 JUMP JUMPDEST SWAP1 POP SWAP2 SWAP1 POP JUMP JUMPDEST PUSH2 0x3FB4 DUP2 PUSH2 0x3F9A JUMP JUMPDEST DUP3 MSTORE POP POP JUMP JUMPDEST PUSH0 PUSH1 0xFF DUP3 AND SWAP1 POP SWAP2 SWAP1 POP JUMP JUMPDEST PUSH2 0x3FCF DUP2 PUSH2 0x3FBA JUMP JUMPDEST DUP3 MSTORE POP POP JUMP JUMPDEST PUSH2 0x3FDE DUP2 PUSH2 0x3C21 JUMP JUMPDEST DUP3 MSTORE POP POP JUMP JUMPDEST PUSH0 PUSH1 0xE0 DUP3 ADD SWAP1 POP PUSH2 0x3FF7 PUSH0 DUP4 ADD DUP11 PUSH2 0x3D58 JUMP JUMPDEST DUP2 DUP2 SUB PUSH1 0x20 DUP4 ADD MSTORE PUSH2 0x4009 DUP2 DUP10 PUSH2 0x3F0F JUMP JUMPDEST SWAP1 POP PUSH2 0x4018 PUSH1 0x40 DUP4 ADD DUP9 PUSH2 0x3D58 JUMP JUMPDEST PUSH2 0x4025 PUSH1 0x60 DUP4 ADD DUP8 PUSH2 0x3FAB JUMP JUMPDEST PUSH2 0x4032 PUSH1 0x80 DUP4 ADD DUP7 PUSH2 0x3FC6 JUMP JUMPDEST PUSH2 0x403F PUSH1 0xA0 DUP4 ADD DUP6 PUSH2 0x3FD5 JUMP JUMPDEST PUSH2 0x404C PUSH1 0xC0 DUP4 ADD DUP5 PUSH2 0x3FD5 JUMP JUMPDEST SWAP9 SWAP8 POP POP POP POP POP POP POP POP JUMP JUMPDEST PUSH0 DUP2 MLOAD SWAP1 POP SWAP2 SWAP1 POP JUMP JUMPDEST PUSH0 DUP3 DUP3 MSTORE PUSH1 0x20 DUP3 ADD SWAP1 POP SWAP3 SWAP2 POP POP JUMP JUMPDEST PUSH0 DUP2 SWAP1 POP PUSH1 0x20 DUP3 ADD SWAP1 POP SWAP2 SWAP1 POP JUMP JUMPDEST PUSH0 DUP3 DUP3 MSTORE PUSH1 0x20 DUP3 ADD SWAP1 POP SWAP3 SWAP2 POP POP JUMP JUMPDEST PUSH0 PUSH2 0x409B DUP3 PUSH2 0x3EBD JUMP JUMPDEST PUSH2 0x40A5 DUP2 DUP6 PUSH2 0x4081 JUMP JUMPDEST SWAP4 POP PUSH2 0x40B5 DUP2 DUP6 PUSH1 0x20 DUP7 ADD PUSH2 0x3ED7 JUMP JUMPDEST PUSH2 0x40BE DUP2 PUSH2 0x3EFF JUMP JUMPDEST DUP5 ADD SWAP2 POP POP SWAP3 SWAP2 POP POP JUMP JUMPDEST PUSH0 PUSH1 0x40 DUP4 ADD PUSH0 DUP4 ADD MLOAD DUP5 DUP3 SUB PUSH0 DUP7 ADD MSTORE PUSH2 0x40E3 DUP3 DUP3 PUSH2 0x4091 JUMP JUMPDEST SWAP2 POP POP PUSH1 0x20 DUP4 ADD MLOAD PUSH2 0x40F8 PUSH1 0x20 DUP7 ADD DUP3 PUSH2 0x3E0F JUMP JUMPDEST POP DUP1 SWAP2 POP POP SWAP3 SWAP2 POP POP JUMP JUMPDEST PUSH0 PUSH2 0x410E DUP4 DUP4 PUSH2 0x40C9 JUMP JUMPDEST SWAP1 POP SWAP3 SWAP2 POP POP JUMP JUMPDEST PUSH0 PUSH1 0x20 DUP3 ADD SWAP1 POP SWAP2 SWAP1 POP JUMP JUMPDEST PUSH0 PUSH2 0x412C DUP3 PUSH2 0x4058 JUMP JUMPDEST PUSH2 0x4136 DUP2 DUP6 PUSH2 0x4062 JUMP JUMPDEST SWAP4 POP DUP4 PUSH1 0x20 DUP3 MUL DUP6 ADD PUSH2 0x4148 DUP6 PUSH2 0x4072 JUMP JUMPDEST DUP1 PUSH0 JUMPDEST DUP6 DUP2 LT ISZERO PUSH2 0x4183 JUMPI DUP5 DUP5 SUB DUP10 MSTORE DUP2 MLOAD PUSH2 0x4164 DUP6 DUP3 PUSH2 0x4103 JUMP JUMPDEST SWAP5 POP PUSH2 0x416F DUP4 PUSH2 0x4116 JUMP JUMPDEST SWAP3 POP PUSH1 0x20 DUP11 ADD SWAP10 POP POP PUSH1 0x1 DUP2 ADD SWAP1 POP PUSH2 0x414B JUMP JUMPDEST POP DUP3 SWAP8 POP DUP8 SWAP6 POP POP POP POP POP POP SWAP3 SWAP2 POP POP JUMP JUMPDEST PUSH0 PUSH1 0x20 DUP3 ADD SWAP1 POP DUP2 DUP2 SUB PUSH0 DUP4 ADD MSTORE PUSH2 0x41AD DUP2 DUP5 PUSH2 0x4122 JUMP JUMPDEST SWAP1 POP SWAP3 SWAP2 POP POP JUMP JUMPDEST PUSH0 DUP1 PUSH0 PUSH1 0x60 DUP5 DUP7 SUB SLT ISZERO PUSH2 0x41CC JUMPI PUSH2 0x41CB PUSH2 0x3BFA JUMP JUMPDEST JUMPDEST PUSH0 PUSH2 0x41D9 DUP7 DUP3 DUP8 ADD PUSH2 0x3CA6 JUMP JUMPDEST SWAP4 POP POP PUSH1 0x20 PUSH2 0x41EA DUP7 DUP3 DUP8 ADD PUSH2 0x3C48 JUMP JUMPDEST SWAP3 POP POP PUSH1 0x40 PUSH2 0x41FB DUP7 DUP3 DUP8 ADD PUSH2 0x3C48 JUMP JUMPDEST SWAP2 POP POP SWAP3 POP SWAP3 POP SWAP3 JUMP JUMPDEST PUSH0 PUSH1 0x20 DUP3 ADD SWAP1 POP PUSH2 0x4218 PUSH0 DUP4 ADD DUP5 PUSH2 0x3FD5 JUMP JUMPDEST SWAP3 SWAP2 POP POP JUMP JUMPDEST PUSH0 DUP1 REVERT JUMPDEST PUSH0 DUP1 REVERT JUMPDEST PUSH0 DUP1 REVERT JUMPDEST PUSH0 DUP1 DUP4 PUSH1 0x1F DUP5 ADD SLT PUSH2 0x423F JUMPI PUSH2 0x423E PUSH2 0x421E JUMP JUMPDEST JUMPDEST DUP3 CALLDATALOAD SWAP1 POP PUSH8 0xFFFFFFFFFFFFFFFF DUP2 GT ISZERO PUSH2 0x425C JUMPI PUSH2 0x425B PUSH2 0x4222 JUMP JUMPDEST JUMPDEST PUSH1 0x20 DUP4 ADD SWAP2 POP DUP4 PUSH1 0x1 DUP3 MUL DUP4 ADD GT ISZERO PUSH2 0x4278 JUMPI PUSH2 0x4277 PUSH2 0x4226 JUMP JUMPDEST JUMPDEST SWAP3 POP SWAP3 SWAP1 POP JUMP JUMPDEST PUSH0 DUP1 PUSH0 DUP1 PUSH1 0x60 DUP6 DUP8 SUB SLT ISZERO PUSH2 0x4297 JUMPI PUSH2 0x4296 PUSH2 0x3BFA JUMP JUMPDEST JUMPDEST PUSH0 PUSH2 0x42A4 DUP8 DUP3 DUP9 ADD PUSH2 0x3CA6 JUMP JUMPDEST SWAP5 POP POP PUSH1 0x20 PUSH2 0x42B5 DUP8 DUP3 DUP9 ADD PUSH2 0x3C48 JUMP JUMPDEST SWAP4 POP POP PUSH1 0x40 DUP6 ADD CALLDATALOAD PUSH8 0xFFFFFFFFFFFFFFFF DUP2 GT ISZERO PUSH2 0x42D6 JUMPI PUSH2 0x42D5 PUSH2 0x3BFE JUMP JUMPDEST JUMPDEST PUSH2 0x42E2 DUP8 DUP3 DUP9 ADD PUSH2 0x422A JUMP JUMPDEST SWAP3 POP SWAP3 POP POP SWAP3 SWAP6 SWAP2 SWAP5 POP SWAP3 POP JUMP JUMPDEST PUSH0 DUP1 PUSH0 PUSH1 0x40 DUP5 DUP7 SUB SLT ISZERO PUSH2 0x4307 JUMPI PUSH2 0x4306 PUSH2 0x3BFA JUMP JUMPDEST JUMPDEST PUSH0 PUSH2 0x4314 DUP7 DUP3 DUP8 ADD PUSH2 0x3CA6 JUMP JUMPDEST SWAP4 POP POP PUSH1 0x20 DUP5 ADD CALLDATALOAD PUSH8 0xFFFFFFFFFFFFFFFF DUP2 GT ISZERO PUSH2 0x4335 JUMPI PUSH2 0x4334 PUSH2 0x3BFE JUMP JUMPDEST JUMPDEST PUSH2 0x4341 DUP7 DUP3 DUP8 ADD PUSH2 0x422A JUMP JUMPDEST SWAP3 POP SWAP3 POP POP SWAP3 POP SWAP3 POP SWAP3 JUMP JUMPDEST PUSH0 DUP2 MLOAD SWAP1 POP SWAP2 SWAP1 POP JUMP JUMPDEST PUSH0 DUP3 DUP3 MSTORE PUSH1 0x20 DUP3 ADD SWAP1 POP SWAP3 SWAP2 POP POP JUMP JUMPDEST PUSH0 DUP2 SWAP1 POP PUSH1 0x20 DUP3 ADD SWAP1 POP SWAP2 SWAP1 POP JUMP JUMPDEST PUSH2 0x437F DUP2 PUSH2 0x3C87 JUMP JUMPDEST DUP3 MSTORE POP POP JUMP JUMPDEST PUSH0 PUSH2 0x4390 DUP4 DUP4 PUSH2 0x4376 JUMP JUMPDEST PUSH1 0x20 DUP4 ADD SWAP1 POP SWAP3 SWAP2 POP POP JUMP JUMPDEST PUSH0 PUSH1 0x20 DUP3 ADD SWAP1 POP SWAP2 SWAP1 POP JUMP JUMPDEST PUSH0 PUSH2 0x43B2 DUP3 PUSH2 0x434D JUMP JUMPDEST PUSH2 0x43BC DUP2 DUP6 PUSH2 0x4357 JUMP JUMPDEST SWAP4 POP PUSH2 0x43C7 DUP4 PUSH2 0x4367 JUMP JUMPDEST DUP1 PUSH0 JUMPDEST DUP4 DUP2 LT ISZERO PUSH2 0x43F7 JUMPI DUP2 MLOAD PUSH2 0x43DE DUP9 DUP3 PUSH2 0x4385 JUMP JUMPDEST SWAP8 POP PUSH2 0x43E9 DUP4 PUSH2 0x439C JUMP JUMPDEST SWAP3 POP POP PUSH1 0x1 DUP2 ADD SWAP1 POP PUSH2 0x43CA JUMP JUMPDEST POP DUP6 SWAP4 POP POP POP POP SWAP3 SWAP2 POP POP JUMP JUMPDEST PUSH0 PUSH1 0x20 DUP3 ADD SWAP1 POP DUP2 DUP2 SUB PUSH0 DUP4 ADD MSTORE PUSH2 0x441C DUP2 DUP5 PUSH2 0x43A8 JUMP JUMPDEST SWAP1 POP SWAP3 SWAP2 POP POP JUMP JUMPDEST PUSH2 0x442D DUP2 PUSH2 0x3FBA JUMP JUMPDEST DUP2 EQ PUSH2 0x4437 JUMPI PUSH0 DUP1 REVERT JUMPDEST POP JUMP JUMPDEST PUSH0 DUP2 CALLDATALOAD SWAP1 POP PUSH2 0x4448 DUP2 PUSH2 0x4424 JUMP JUMPDEST SWAP3 SWAP2 POP POP JUMP JUMPDEST PUSH0 DUP1 PUSH0 DUP1 PUSH0 PUSH1 0x80 DUP7 DUP9 SUB SLT ISZERO PUSH2 0x4467 JUMPI PUSH2 0x4466 PUSH2 0x3BFA JUMP JUMPDEST JUMPDEST PUSH0 DUP7 ADD CALLDATALOAD PUSH8 0xFFFFFFFFFFFFFFFF DUP2 GT ISZERO PUSH2 0x4484 JUMPI PUSH2 0x4483 PUSH2 0x3BFE JUMP JUMPDEST JUMPDEST PUSH2 0x4490 DUP9 DUP3 DUP10 ADD PUSH2 0x422A JUMP JUMPDEST SWAP6 POP SWAP6 POP POP PUSH1 0x20 PUSH2 0x44A3 DUP9 DUP3 DUP10 ADD PUSH2 0x3CA6 JUMP JUMPDEST SWAP4 POP POP PUSH1 0x40 PUSH2 0x44B4 DUP9 DUP3 DUP10 ADD PUSH2 0x443A JUMP JUMPDEST SWAP3 POP POP PUSH1 0x60 PUSH2 0x44C5 DUP9 DUP3 DUP10 ADD PUSH2 0x443A JUMP JUMPDEST SWAP2 POP POP SWAP3 SWAP6 POP SWAP3 SWAP6 SWAP1 SWAP4 POP JUMP JUMPDEST PUSH0 DUP1 PUSH1 0x40 DUP4 DUP6 SUB SLT ISZERO PUSH2 0x44E8 JUMPI PUSH2 0x44E7 PUSH2 0x3BFA JUMP JUMPDEST JUMPDEST PUSH0 PUSH2 0x44F5 DUP6 DUP3 DUP7 ADD PUSH2 0x3CA6 JUMP JUMPDEST SWAP3 POP POP PUSH1 0x20 PUSH2 0x4506 DUP6 DUP3 DUP7 ADD PUSH2 0x3CA6 JUMP JUMPDEST SWAP2 POP POP SWAP3 POP SWAP3 SWAP1 POP JUMP JUMPDEST PUSH0 PUSH1 0x40 DUP3 ADD SWAP1 POP DUP2 DUP2 SUB PUSH0 DUP4 ADD MSTORE PUSH2 0x4528 DUP2 DUP6 PUSH2 0x3F0F JUMP JUMPDEST SWAP1 POP PUSH2 0x4537 PUSH1 0x20 DUP4 ADD DUP5 PUSH2 0x3FD5 JUMP JUMPDEST SWAP4 SWAP3 POP POP POP JUMP JUMPDEST PUSH32 0x43616E6E6F7420626520746865207A65726F2061646472657373000000000000 PUSH0 DUP3 ADD MSTORE POP JUMP JUMPDEST PUSH0 PUSH2 0x4572 PUSH1 0x1A DUP4 PUSH2 0x3EC7 JUMP JUMPDEST SWAP2 POP PUSH2 0x457D DUP3 PUSH2 0x453E JUMP JUMPDEST PUSH1 0x20 DUP3 ADD SWAP1 POP SWAP2 SWAP1 POP JUMP JUMPDEST PUSH0 PUSH1 0x20 DUP3 ADD SWAP1 POP DUP2 DUP2 SUB PUSH0 DUP4 ADD MSTORE PUSH2 0x459F DUP2 PUSH2 0x4566 JUMP JUMPDEST SWAP1 POP SWAP2 SWAP1 POP JUMP JUMPDEST PUSH32 0x416C726561647920726567697374657265640000000000000000000000000000 PUSH0 DUP3 ADD MSTORE POP JUMP JUMPDEST PUSH0 PUSH2 0x45DA PUSH1 0x12 DUP4 PUSH2 0x3EC7 JUMP JUMPDEST SWAP2 POP PUSH2 0x45E5 DUP3 PUSH2 0x45A6 JUMP JUMPDEST PUSH1 0x20 DUP3 ADD SWAP1 POP SWAP2 SWAP1 POP JUMP JUMPDEST PUSH0 PUSH1 0x20 DUP3 ADD SWAP1 POP DUP2 DUP2 SUB PUSH0 DUP4 ADD MSTORE PUSH2 0x4607 DUP2 PUSH2 0x45CE JUMP JUMPDEST SWAP1 POP SWAP2 SWAP1 POP JUMP JUMPDEST PUSH32 0x57726F6E672069642073656E7400000000000000000000000000000000000000 PUSH0 DUP3 ADD MSTORE POP JUMP JUMPDEST PUSH0 PUSH2 0x4642 PUSH1 0xD DUP4 PUSH2 0x3EC7 JUMP JUMPDEST SWAP2 POP PUSH2 0x464D DUP3 PUSH2 0x460E JUMP JUMPDEST PUSH1 0x20 DUP3 ADD SWAP1 POP SWAP2 SWAP1 POP JUMP JUMPDEST PUSH0 PUSH1 0x20 DUP3 ADD SWAP1 POP DUP2 DUP2 SUB PUSH0 DUP4 ADD MSTORE PUSH2 0x466F DUP2 PUSH2 0x4636 JUMP JUMPDEST SWAP1 POP SWAP2 SWAP1 POP JUMP JUMPDEST PUSH0 PUSH1 0x40 DUP3 ADD SWAP1 POP PUSH2 0x4689 PUSH0 DUP4 ADD DUP6 PUSH2 0x3D58 JUMP JUMPDEST PUSH2 0x4696 PUSH1 0x20 DUP4 ADD DUP5 PUSH2 0x3FD5 JUMP JUMPDEST SWAP4 SWAP3 POP POP POP JUMP JUMPDEST PUSH32 0x4E487B7100000000000000000000000000000000000000000000000000000000 PUSH0 MSTORE PUSH1 0x22 PUSH1 0x4 MSTORE PUSH1 0x24 PUSH0 REVERT JUMPDEST PUSH0 PUSH1 0x2 DUP3 DIV SWAP1 POP PUSH1 0x1 DUP3 AND DUP1 PUSH2 0x46E1 JUMPI PUSH1 0x7F DUP3 AND SWAP2 POP JUMPDEST PUSH1 0x20 DUP3 LT DUP2 SUB PUSH2 0x46F4 JUMPI PUSH2 0x46F3 PUSH2 0x469D JUMP JUMPDEST JUMPDEST POP SWAP2 SWAP1 POP JUMP JUMPDEST PUSH32 0x4E487B7100000000000000000000000000000000000000000000000000000000 PUSH0 MSTORE PUSH1 0x32 PUSH1 0x4 MSTORE PUSH1 0x24 PUSH0 REVERT JUMPDEST PUSH32 0x4E487B7100000000000000000000000000000000000000000000000000000000 PUSH0 MSTORE PUSH1 0x11 PUSH1 0x4 MSTORE PUSH1 0x24 PUSH0 REVERT JUMPDEST PUSH0 PUSH2 0x475E DUP3 PUSH2 0x3FBA JUMP JUMPDEST SWAP2 POP PUSH0 DUP3 SUB PUSH2 0x4770 JUMPI PUSH2 0x476F PUSH2 0x4727 JUMP JUMPDEST JUMPDEST PUSH1 0x1 DUP3 SUB SWAP1 POP SWAP2 SWAP1 POP JUMP JUMPDEST PUSH32 0x4E6F7420746865206D616E616765720000000000000000000000000000000000 PUSH0 DUP3 ADD MSTORE POP JUMP JUMPDEST PUSH0 PUSH2 0x47AF PUSH1 0xF DUP4 PUSH2 0x3EC7 JUMP JUMPDEST SWAP2 POP PUSH2 0x47BA DUP3 PUSH2 0x477B JUMP JUMPDEST PUSH1 0x20 DUP3 ADD SWAP1 POP SWAP2 SWAP1 POP JUMP JUMPDEST PUSH0 PUSH1 0x20 DUP3 ADD SWAP1 POP DUP2 DUP2 SUB PUSH0 DUP4 ADD MSTORE PUSH2 0x47DC DUP2 PUSH2 0x47A3 JUMP JUMPDEST SWAP1 POP SWAP2 SWAP1 POP JUMP JUMPDEST PUSH32 0x53616D6520616464726573730000000000000000000000000000000000000000 PUSH0 DUP3 ADD MSTORE POP JUMP JUMPDEST PUSH0 PUSH2 0x4817 PUSH1 0xC DUP4 PUSH2 0x3EC7 JUMP JUMPDEST SWAP2 POP PUSH2 0x4822 DUP3 PUSH2 0x47E3 JUMP JUMPDEST PUSH1 0x20 DUP3 ADD SWAP1 POP SWAP2 SWAP1 POP JUMP JUMPDEST PUSH0 PUSH1 0x20 DUP3 ADD SWAP1 POP DUP2 DUP2 SUB PUSH0 DUP4 ADD MSTORE PUSH2 0x4844 DUP2 PUSH2 0x480B JUMP JUMPDEST SWAP1 POP SWAP2 SWAP1 POP JUMP JUMPDEST PUSH32 0x4E6F742072656769737465726564000000000000000000000000000000000000 PUSH0 DUP3 ADD MSTORE POP JUMP JUMPDEST PUSH0 PUSH2 0x487F PUSH1 0xE DUP4 PUSH2 0x3EC7 JUMP JUMPDEST SWAP2 POP PUSH2 0x488A DUP3 PUSH2 0x484B JUMP JUMPDEST PUSH1 0x20 DUP3 ADD SWAP1 POP SWAP2 SWAP1 POP JUMP JUMPDEST PUSH0 PUSH1 0x20 DUP3 ADD SWAP1 POP DUP2 DUP2 SUB PUSH0 DUP4 ADD MSTORE PUSH2 0x48AC DUP2 PUSH2 0x4873 JUMP JUMPDEST SWAP1 POP SWAP2 SWAP1 POP JUMP JUMPDEST PUSH32 0x43616E6E6F7420626520656D7074790000000000000000000000000000000000 PUSH0 DUP3 ADD MSTORE POP JUMP JUMPDEST PUSH0 PUSH2 0x48E7 PUSH1 0xF DUP4 PUSH2 0x3EC7 JUMP JUMPDEST SWAP2 POP PUSH2 0x48F2 DUP3 PUSH2 0x48B3 JUMP JUMPDEST PUSH1 0x20 DUP3 ADD SWAP1 POP SWAP2 SWAP1 POP JUMP JUMPDEST PUSH0 PUSH1 0x20 DUP3 ADD SWAP1 POP DUP2 DUP2 SUB PUSH0 DUP4 ADD MSTORE PUSH2 0x4914 DUP2 PUSH2 0x48DB JUMP JUMPDEST SWAP1 POP SWAP2 SWAP1 POP JUMP JUMPDEST PUSH0 PUSH2 0x4925 DUP3 PUSH2 0x3C87 JUMP JUMPDEST SWAP2 POP PUSH2 0x4930 DUP4 PUSH2 0x3C87 JUMP JUMPDEST SWAP3 POP DUP3 DUP3 SUB SWAP1 POP DUP2 DUP2 GT ISZERO PUSH2 0x4948 JUMPI PUSH2 0x4947 PUSH2 0x4727 JUMP JUMPDEST JUMPDEST SWAP3 SWAP2 POP POP JUMP JUMPDEST PUSH32 0x5761697420327300000000000000000000000000000000000000000000000000 PUSH0 DUP3 ADD MSTORE POP JUMP JUMPDEST PUSH0 PUSH2 0x4982 PUSH1 0x7 DUP4 PUSH2 0x3EC7 JUMP JUMPDEST SWAP2 POP PUSH2 0x498D DUP3 PUSH2 0x494E JUMP JUMPDEST PUSH1 0x20 DUP3 ADD SWAP1 POP SWAP2 SWAP1 POP JUMP JUMPDEST PUSH0 PUSH1 0x20 DUP3 ADD SWAP1 POP DUP2 DUP2 SUB PUSH0 DUP4 ADD MSTORE PUSH2 0x49AF DUP2 PUSH2 0x4976 JUMP JUMPDEST SWAP1 POP SWAP2 SWAP1 POP JUMP JUMPDEST PUSH32 0x4E487B7100000000000000000000000000000000000000000000000000000000 PUSH0 MSTORE PUSH1 0x41 PUSH1 0x4 MSTORE PUSH1 0x24 PUSH0 REVERT JUMPDEST PUSH0 DUP2 SWAP1 POP DUP2 PUSH0 MSTORE PUSH1 0x20 PUSH0 KECCAK256 SWAP1 POP SWAP2 SWAP1 POP JUMP JUMPDEST PUSH0 PUSH1 0x20 PUSH1 0x1F DUP4 ADD DIV SWAP1 POP SWAP2 SWAP1 POP JUMP JUMPDEST PUSH0 DUP3 DUP3 SHL SWAP1 POP SWAP3 SWAP2 POP POP JUMP JUMPDEST PUSH0 PUSH1 0x8 DUP4 MUL PUSH2 0x4A3F PUSH32 0xFFFFFFFFFFFFFFFFFFFFFFFFFFFFFFFFFFFFFFFFFFFFFFFFFFFFFFFFFFFFFFFF DUP3 PUSH2 0x4A04 JUMP JUMPDEST PUSH2 0x4A49 DUP7 DUP4 PUSH2 0x4A04 JUMP JUMPDEST SWAP6 POP DUP1 NOT DUP5 AND SWAP4 POP DUP1 DUP7 AND DUP5 OR SWAP3 POP POP POP SWAP4 SWAP3 POP POP POP JUMP JUMPDEST PUSH0 DUP2 SWAP1 POP SWAP2 SWAP1 POP JUMP JUMPDEST PUSH0 PUSH2 0x4A84 PUSH2 0x4A7F PUSH2 0x4A7A DUP5 PUSH2 0x3C87 JUMP JUMPDEST PUSH2 0x4A61 JUMP JUMPDEST PUSH2 0x3C87 JUMP JUMPDEST SWAP1 POP SWAP2 SWAP1 POP JUMP JUMPDEST PUSH0 DUP2 SWAP1 POP SWAP2 SWAP1 POP JUMP JUMPDEST PUSH2 0x4A9D DUP4 PUSH2 0x4A6A JUMP JUMPDEST PUSH2 0x4AB1 PUSH2 0x4AA9 DUP3 PUSH2 0x4A8B JUMP JUMPDEST DUP5 DUP5 SLOAD PUSH2 0x4A10 JUMP JUMPDEST DUP3 SSTORE POP POP POP POP JUMP JUMPDEST PUSH0 SWAP1 JUMP JUMPDEST PUSH2 0x4AC5 PUSH2 0x4AB9 JUMP JUMPDEST PUSH2 0x4AD0 DUP2 DUP5 DUP5 PUSH2 0x4A94 JUMP JUMPDEST POP POP POP JUMP JUMPDEST JUMPDEST DUP2 DUP2 LT ISZERO PUSH2 0x4AF3 JUMPI PUSH2 0x4AE8 PUSH0 DUP3 PUSH2 0x4ABD JUMP JUMPDEST PUSH1 0x1 DUP2 ADD SWAP1 POP PUSH2 0x4AD6 JUMP JUMPDEST POP POP JUMP JUMPDEST PUSH1 0x1F DUP3 GT ISZERO PUSH2 0x4B38 JUMPI PUSH2 0x4B09 DUP2 PUSH2 0x49E3 JUMP JUMPDEST PUSH2 0x4B12 DUP5 PUSH2 0x49F5 JUMP JUMPDEST DUP2 ADD PUSH1 0x20 DUP6 LT ISZERO PUSH2 0x4B21 JUMPI DUP2 SWAP1 POP JUMPDEST PUSH2 0x4B35 PUSH2 0x4B2D DUP6 PUSH2 0x49F5 JUMP JUMPDEST DUP4 ADD DUP3 PUSH2 0x4AD5 JUMP JUMPDEST POP POP JUMPDEST POP POP POP JUMP JUMPDEST PUSH0 DUP3 DUP3 SHR SWAP1 POP SWAP3 SWAP2 POP POP JUMP JUMPDEST PUSH0 PUSH2 0x4B58 PUSH0 NOT DUP5 PUSH1 0x8 MUL PUSH2 0x4B3D JUMP JUMPDEST NOT DUP1 DUP4 AND SWAP2 POP POP SWAP3 SWAP2 POP POP JUMP JUMPDEST PUSH0 PUSH2 0x4B70 DUP4 DUP4 PUSH2 0x4B49 JUMP JUMPDEST SWAP2 POP DUP3 PUSH1 0x2 MUL DUP3 OR SWAP1 POP SWAP3 SWAP2 POP POP JUMP JUMPDEST PUSH2 0x4B89 DUP3 PUSH2 0x3EBD JUMP JUMPDEST PUSH8 0xFFFFFFFFFFFFFFFF DUP2 GT ISZERO PUSH2 0x4BA2 JUMPI PUSH2 0x4BA1 PUSH2 0x49B6 JUMP JUMPDEST JUMPDEST PUSH2 0x4BAC DUP3 SLOAD PUSH2 0x46CA JUMP JUMPDEST PUSH2 0x4BB7 DUP3 DUP3 DUP6 PUSH2 0x4AF7 JUMP JUMPDEST PUSH0 PUSH1 0x20 SWAP1 POP PUSH1 0x1F DUP4 GT PUSH1 0x1 DUP2 EQ PUSH2 0x4BE8 JUMPI PUSH0 DUP5 ISZERO PUSH2 0x4BD6 JUMPI DUP3 DUP8 ADD MLOAD SWAP1 POP JUMPDEST PUSH2 0x4BE0 DUP6 DUP3 PUSH2 0x4B65 JUMP JUMPDEST DUP7 SSTORE POP PUSH2 0x4C47 JUMP JUMPDEST PUSH1 0x1F NOT DUP5 AND PUSH2 0x4BF6 DUP7 PUSH2 0x49E3 JUMP JUMPDEST PUSH0 JUMPDEST DUP3 DUP2 LT ISZERO PUSH2 0x4C1D JUMPI DUP5 DUP10 ADD MLOAD DUP3 SSTORE PUSH1 0x1 DUP3 ADD SWAP2 POP PUSH1 0x20 DUP6 ADD SWAP5 POP PUSH1 0x20 DUP2 ADD SWAP1 POP PUSH2 0x4BF8 JUMP JUMPDEST DUP7 DUP4 LT ISZERO PUSH2 0x4C3A JUMPI DUP5 DUP10 ADD MLOAD PUSH2 0x4C36 PUSH1 0x1F DUP10 AND DUP3 PUSH2 0x4B49 JUMP JUMPDEST DUP4 SSTORE POP JUMPDEST PUSH1 0x1 PUSH1 0x2 DUP9 MUL ADD DUP9 SSTORE POP POP POP JUMPDEST POP POP POP POP POP POP JUMP JUMPDEST PUSH0 PUSH2 0x4C59 DUP3 PUSH2 0x3C87 JUMP JUMPDEST SWAP2 POP PUSH32 0xFFFFFFFFFFFFFFFFFFFFFFFFFFFFFFFFFFFFFFFFFFFFFFFFFFFFFFFFFFFFFFFF DUP3 SUB PUSH2 0x4C8B JUMPI PUSH2 0x4C8A PUSH2 0x4727 JUMP JUMPDEST JUMPDEST PUSH1 0x1 DUP3 ADD SWAP1 POP SWAP2 SWAP1 POP JUMP JUMPDEST PUSH32 0x4F776E61626C653A206E6577206F776E657220697320746865207A65726F2061 PUSH0 DUP3 ADD MSTORE PUSH32 0x6464726573730000000000000000000000000000000000000000000000000000 PUSH1 0x20 DUP3 ADD MSTORE POP JUMP JUMPDEST PUSH0 PUSH2 0x4CF0 PUSH1 0x26 DUP4 PUSH2 0x3EC7 JUMP JUMPDEST SWAP2 POP PUSH2 0x4CFB DUP3 PUSH2 0x4C96 JUMP JUMPDEST PUSH1 0x40 DUP3 ADD SWAP1 POP SWAP2 SWAP1 POP JUMP JUMPDEST PUSH0 PUSH1 0x20 DUP3 ADD SWAP1 POP DUP2 DUP2 SUB PUSH0 DUP4 ADD MSTORE PUSH2 0x4D1D DUP2 PUSH2 0x4CE4 JUMP JUMPDEST SWAP1 POP SWAP2 SWAP1 POP JUMP JUMPDEST PUSH32 0x466F7262696464656E0000000000000000000000000000000000000000000000 PUSH0 DUP3 ADD MSTORE POP JUMP JUMPDEST PUSH0 PUSH2 0x4D58 PUSH1 0x9 DUP4 PUSH2 0x3EC7 JUMP JUMPDEST SWAP2 POP PUSH2 0x4D63 DUP3 PUSH2 0x4D24 JUMP JUMPDEST PUSH1 0x20 DUP3 ADD SWAP1 POP SWAP2 SWAP1 POP JUMP JUMPDEST PUSH0 PUSH1 0x20 DUP3 ADD SWAP1 POP DUP2 DUP2 SUB PUSH0 DUP4 ADD MSTORE PUSH2 0x4D85 DUP2 PUSH2 0x4D4C JUMP JUMPDEST SWAP1 POP SWAP2 SWAP1 POP JUMP JUMPDEST PUSH32 0x496E636F72726563742064617465000000000000000000000000000000000000 PUSH0 DUP3 ADD MSTORE POP JUMP JUMPDEST PUSH0 PUSH2 0x4DC0 PUSH1 0xE DUP4 PUSH2 0x3EC7 JUMP JUMPDEST SWAP2 POP PUSH2 0x4DCB DUP3 PUSH2 0x4D8C JUMP JUMPDEST PUSH1 0x20 DUP3 ADD SWAP1 POP SWAP2 SWAP1 POP JUMP JUMPDEST PUSH0 PUSH1 0x20 DUP3 ADD SWAP1 POP DUP2 DUP2 SUB PUSH0 DUP4 ADD MSTORE PUSH2 0x4DED DUP2 PUSH2 0x4DB4 JUMP JUMPDEST SWAP1 POP SWAP2 SWAP1 POP JUMP JUMPDEST PUSH32 0x4E487B7100000000000000000000000000000000000000000000000000000000 PUSH0 MSTORE PUSH1 0x12 PUSH1 0x4 MSTORE PUSH1 0x24 PUSH0 REVERT JUMPDEST PUSH0 PUSH2 0x4E2B DUP3 PUSH2 0x3FBA JUMP JUMPDEST SWAP2 POP PUSH2 0x4E36 DUP4 PUSH2 0x3FBA JUMP JUMPDEST SWAP3 POP DUP3 PUSH2 0x4E46 JUMPI PUSH2 0x4E45 PUSH2 0x4DF4 JUMP JUMPDEST JUMPDEST DUP3 DUP3 MOD SWAP1 POP SWAP3 SWAP2 POP POP JUMP JUMPDEST PUSH32 0x506C617965642062792032000000000000000000000000000000000000000000 PUSH0 DUP3 ADD MSTORE POP JUMP JUMPDEST PUSH0 PUSH2 0x4E85 PUSH1 0xB DUP4 PUSH2 0x3EC7 JUMP JUMPDEST SWAP2 POP PUSH2 0x4E90 DUP3 PUSH2 0x4E51 JUMP JUMPDEST PUSH1 0x20 DUP3 ADD SWAP1 POP SWAP2 SWAP1 POP JUMP JUMPDEST PUSH0 PUSH1 0x20 DUP3 ADD SWAP1 POP DUP2 DUP2 SUB PUSH0 DUP4 ADD MSTORE PUSH2 0x4EB2 DUP2 PUSH2 0x4E79 JUMP JUMPDEST SWAP1 POP SWAP2 SWAP1 POP JUMP JUMPDEST PUSH32 0x496E636F727265637420646966666963756C7479000000000000000000000000 PUSH0 DUP3 ADD MSTORE POP JUMP JUMPDEST PUSH0 PUSH2 0x4EED PUSH1 0x14 DUP4 PUSH2 0x3EC7 JUMP JUMPDEST SWAP2 POP PUSH2 0x4EF8 DUP3 PUSH2 0x4EB9 JUMP JUMPDEST PUSH1 0x20 DUP3 ADD SWAP1 POP SWAP2 SWAP1 POP JUMP JUMPDEST PUSH0 PUSH1 0x20 DUP3 ADD SWAP1 POP DUP2 DUP2 SUB PUSH0 DUP4 ADD MSTORE PUSH2 0x4F1A DUP2 PUSH2 0x4EE1 JUMP JUMPDEST SWAP1 POP SWAP2 SWAP1 POP JUMP JUMPDEST PUSH32 0x4F776E61626C653A2063616C6C6572206973206E6F7420746865206F776E6572 PUSH0 DUP3 ADD MSTORE POP JUMP JUMPDEST PUSH0 PUSH2 0x4F55 PUSH1 0x20 DUP4 PUSH2 0x3EC7 JUMP JUMPDEST SWAP2 POP PUSH2 0x4F60 DUP3 PUSH2 0x4F21 JUMP JUMPDEST PUSH1 0x20 DUP3 ADD SWAP1 POP SWAP2 SWAP1 POP JUMP JUMPDEST PUSH0 PUSH1 0x20 DUP3 ADD SWAP1 POP DUP2 DUP2 SUB PUSH0 DUP4 ADD MSTORE PUSH2 0x4F82 DUP2 PUSH2 0x4F49 JUMP JUMPDEST SWAP1 POP SWAP2 SWAP1 POP JUMP INVALID LOG2 PUSH5 0x6970667358 0x22 SLT KECCAK256 SDIV ADDMOD 0xD2 LOG1 0xB0 SWAP5 SWAP11 0x4C PUSH24 0xD482FA856A00B6E3272779FA8F291D4896AB26C0AE797964 PUSH20 0x6F6C634300081400330000000000000000000000 "},"methodIdentifiers":{"addComment(uint256,string)":"aa7e5683","addManager(address)":"2d06177a","addMessageToManager(uint256,string)":"d566a382","addResponseToPlayer(uint256,address,string)":"998ac197","addTournament(string,uint256,uint8,uint8)":"f891e08b","addWinners(uint256,address,address)":"8a8da1f7","comments(uint256,uint256)":"fc6c776f","followTournament(uint256,bool)":"32e9f509","followedTournaments(uint256,address)":"3ae48eb8","getExchanges(uint256)":"3b26f59c","getMessagesManagerPlayer(uint256,address)":"75843aba","getTournaments()":"f7f20cb3","idComments(uint256)":"3682fd03","linkManagerTournament(uint256)":"f52ec1cb","managers(address)":"fdff9b4d","owner()":"8da5cb5b","playersRegistered(uint256,address)":"9b535ead","registerPlayer(uint256)":"821644e6","renounceOwnership()":"715018a6","tournaments(uint256)":"7503e1b7","transferOwnership(address)":"f2fde38b"}}}}}