{"contracts/PadelConnect.sol":{"PadelConnect":{"abi":[{"inputs":[],"name":"CompleteTournament","type":"error"},{"inputs":[],"name":"ErrorDuringPayment","type":"error"},{"inputs":[],"name":"RegistrationEnded","type":"error"},{"anonymous":false,"inputs":[{"indexed":false,"internalType":"address","name":"_address","type":"address"}],"name":"ManagerAdded","type":"event"},{"anonymous":false,"inputs":[{"indexed":true,"internalType":"address","name":"previousOwner","type":"address"},{"indexed":true,"internalType":"address","name":"newOwner","type":"address"}],"name":"OwnershipTransferred","type":"event"},{"anonymous":false,"inputs":[{"indexed":false,"internalType":"uint256","name":"tournamentId","type":"uint256"}],"name":"TournamentCommentAdded","type":"event"},{"anonymous":false,"inputs":[{"indexed":false,"internalType":"uint256","name":"id","type":"uint256"}],"name":"TournamentCreated","type":"event"},{"anonymous":false,"inputs":[{"indexed":false,"internalType":"uint256","name":"tournamentId","type":"uint256"},{"indexed":false,"internalType":"address","name":"player","type":"address"}],"name":"TournamentFollowed","type":"event"},{"inputs":[{"internalType":"uint256","name":"_id","type":"uint256"},{"internalType":"string","name":"_message","type":"string"}],"name":"addComment","outputs":[],"stateMutability":"nonpayable","type":"function"},{"inputs":[{"internalType":"address","name":"_address","type":"address"}],"name":"addManager","outputs":[],"stateMutability":"nonpayable","type":"function"},{"inputs":[{"internalType":"uint256","name":"_id","type":"uint256"},{"internalType":"string","name":"_message","type":"string"}],"name":"addMessageToManager","outputs":[],"stateMutability":"nonpayable","type":"function"},{"inputs":[{"internalType":"uint256","name":"_id","type":"uint256"},{"internalType":"address","name":"_player","type":"address"},{"internalType":"string","name":"_message","type":"string"}],"name":"addResponseToPlayer","outputs":[],"stateMutability":"nonpayable","type":"function"},{"inputs":[{"internalType":"string","name":"_city","type":"string"},{"internalType":"uint256","name":"_date","type":"uint256"},{"internalType":"uint8","name":"_diff","type":"uint8"},{"internalType":"uint8","name":"_maxPlayers","type":"uint8"}],"name":"addTournament","outputs":[],"stateMutability":"nonpayable","type":"function"},{"inputs":[{"internalType":"uint256","name":"_id","type":"uint256"},{"internalType":"address","name":"_winner1","type":"address"},{"internalType":"address","name":"_winner2","type":"address"}],"name":"addWinners","outputs":[],"stateMutability":"nonpayable","type":"function"},{"inputs":[{"internalType":"uint256","name":"","type":"uint256"},{"internalType":"uint256","name":"","type":"uint256"}],"name":"comments","outputs":[{"internalType":"string","name":"message","type":"string"},{"internalType":"address","name":"author","type":"address"}],"stateMutability":"view","type":"function"},{"inputs":[{"internalType":"uint256","name":"_id","type":"uint256"},{"internalType":"bool","name":"_follow","type":"bool"}],"name":"followTournament","outputs":[],"stateMutability":"nonpayable","type":"function"},{"inputs":[{"internalType":"uint256","name":"","type":"uint256"},{"internalType":"address","name":"","type":"address"}],"name":"followedTournaments","outputs":[{"internalType":"bool","name":"","type":"bool"}],"stateMutability":"view","type":"function"},{"inputs":[{"internalType":"uint256","name":"_id","type":"uint256"}],"name":"getExchanges","outputs":[{"internalType":"address[]","name":"","type":"address[]"}],"stateMutability":"view","type":"function"},{"inputs":[{"internalType":"uint256","name":"_id","type":"uint256"},{"internalType":"address","name":"_player","type":"address"}],"name":"getMessagesManagerPlayer","outputs":[{"components":[{"internalType":"string","name":"message","type":"string"},{"internalType":"address","name":"author","type":"address"}],"internalType":"struct IPadelConnect.Comment[]","name":"","type":"tuple[]"}],"stateMutability":"view","type":"function"},{"inputs":[],"name":"getTournaments","outputs":[{"internalType":"uint256[]","name":"","type":"uint256[]"}],"stateMutability":"view","type":"function"},{"inputs":[],"name":"getTournamentsByPlayer","outputs":[{"internalType":"uint256[]","name":"","type":"uint256[]"}],"stateMutability":"view","type":"function"},{"inputs":[{"internalType":"uint256","name":"","type":"uint256"}],"name":"idComments","outputs":[{"internalType":"uint256","name":"","type":"uint256"}],"stateMutability":"view","type":"function"},{"inputs":[{"internalType":"uint256","name":"","type":"uint256"}],"name":"linkManagerTournament","outputs":[{"internalType":"address","name":"","type":"address"}],"stateMutability":"view","type":"function"},{"inputs":[{"internalType":"address","name":"","type":"address"}],"name":"managers","outputs":[{"internalType":"bool","name":"","type":"bool"}],"stateMutability":"view","type":"function"},{"inputs":[],"name":"owner","outputs":[{"internalType":"address","name":"","type":"address"}],"stateMutability":"view","type":"function"},{"inputs":[{"internalType":"uint256","name":"","type":"uint256"},{"internalType":"address","name":"","type":"address"}],"name":"playersRegistered","outputs":[{"internalType":"bool","name":"","type":"bool"}],"stateMutability":"view","type":"function"},{"inputs":[{"internalType":"uint256","name":"_id","type":"uint256"}],"name":"registerPlayer","outputs":[],"stateMutability":"nonpayable","type":"function"},{"inputs":[],"name":"renounceOwnership","outputs":[],"stateMutability":"nonpayable","type":"function"},{"inputs":[{"internalType":"uint256","name":"","type":"uint256"}],"name":"tournaments","outputs":[{"internalType":"uint256","name":"id","type":"uint256"},{"internalType":"string","name":"city","type":"string"},{"internalType":"uint256","name":"date","type":"uint256"},{"internalType":"enum IPadelConnect.Difficulty","name":"difficulty","type":"uint8"},{"internalType":"uint8","name":"registrationsAvailable","type":"uint8"},{"internalType":"address","name":"winner1","type":"address"},{"internalType":"address","name":"winner2","type":"address"}],"stateMutability":"view","type":"function"},{"inputs":[{"internalType":"address","name":"","type":"address"},{"internalType":"uint256","name":"","type":"uint256"}],"name":"tournamentsByPlayer","outputs":[{"internalType":"uint256","name":"","type":"uint256"}],"stateMutability":"view","type":"function"},{"inputs":[{"internalType":"address","name":"newOwner","type":"address"}],"name":"transferOwnership","outputs":[],"stateMutability":"nonpayable","type":"function"}],"evm":{"bytecode":{"linkReferences":{},"object":"608060405234801562000010575f80fd5b5062000031620000256200003760201b60201c565b6200003e60201b60201c565b620000ff565b5f33905090565b5f805f9054906101000a900473ffffffffffffffffffffffffffffffffffffffff169050815f806101000a81548173ffffffffffffffffffffffffffffffffffffffff021916908373ffffffffffffffffffffffffffffffffffffffff1602179055508173ffffffffffffffffffffffffffffffffffffffff168173ffffffffffffffffffffffffffffffffffffffff167f8be0079c531659141344cd1fd0a4f28419497f9722a3daafe3b4186f6b6457e060405160405180910390a35050565b6151e2806200010d5f395ff3fe608060405234801561000f575f80fd5b506004361061014b575f3560e01c80638da5cb5b116100c1578063f2fde38b1161007a578063f2fde38b146103af578063f52ec1cb146103cb578063f7f20cb3146103fb578063f891e08b14610419578063fc6c776f14610435578063fdff9b4d146104665761014b565b80638da5cb5b146102ef578063998ac1971461030d5780639b535ead14610329578063aa7e568314610359578063bd83f6e314610375578063d566a382146103935761014b565b806343c0edc11161011357806343c0edc114610217578063715018a6146102475780637503e1b71461025157806375843aba14610287578063821644e6146102b75780638a8da1f7146102d35761014b565b80632d06177a1461014f57806332e9f5091461016b5780633682fd03146101875780633ae48eb8146101b75780633b26f59c146101e7575b5f80fd5b61016960048036038101906101649190613e41565b610496565b005b61018560048036038101906101809190613ed4565b61078e565b005b6101a1600480360381019061019c9190613f12565b6109c3565b6040516101ae9190613f4c565b60405180910390f35b6101d160048036038101906101cc9190613f65565b6109d8565b6040516101de9190613fb2565b60405180910390f35b61020160048036038101906101fc9190613f12565b610a02565b60405161020e9190614082565b60405180910390f35b610231600480360381019061022c91906140a2565b610ada565b60405161023e9190613f4c565b60405180910390f35b61024f610b05565b005b61026b60048036038101906102669190613f12565b610b18565b60405161027e9796959493929190614207565b60405180910390f35b6102a1600480360381019061029c9190613f65565b610c43565b6040516102ae91906143b8565b60405180910390f35b6102d160048036038101906102cc9190613f12565b611005565b005b6102ed60048036038101906102e891906143d8565b6116b4565b005b6102f7611e0a565b6040516103049190614428565b60405180910390f35b610327600480360381019061032291906144a2565b611e31565b005b610343600480360381019061033e9190613f65565b612595565b6040516103509190613fb2565b60405180910390f35b610373600480360381019061036e9190614513565b6125bf565b005b61037d612b13565b60405161038a9190614627565b60405180910390f35b6103ad60048036038101906103a89190614513565b612be0565b005b6103c960048036038101906103c49190613e41565b613235565b005b6103e560048036038101906103e09190613f12565b6132b7565b6040516103f29190614428565b60405180910390f35b6104036132e7565b6040516104109190614627565b60405180910390f35b610433600480360381019061042e9190614671565b6133b4565b005b61044f600480360381019061044a91906146f5565b613ba9565b60405161045d929190614733565b60405180910390f35b610480600480360381019061047b9190613e41565b613c79565b60405161048d9190613fb2565b60405180910390f35b6104aa67dc10f580b49fcd1c60c01b613c96565b6104b2613c99565b6104c6670a5a48c441efae5260c01b613c96565b6104da67c622b70d9a47c4fb60c01b613c96565b806104ef67b11f4080883007ba60c01b613c96565b61050367e80104790e0e51c060c01b613c96565b610517671a6fff257a44d79660c01b613c96565b61052b6731b9f9a63a68e10a60c01b613c96565b5f73ffffffffffffffffffffffffffffffffffffffff168173ffffffffffffffffffffffffffffffffffffffff1603610599576040517f08c379a0000000000000000000000000000000000000000000000000000000008152600401610590906147ab565b60405180910390fd5b6105ad67c5a4257b9cd48c5860c01b613c96565b6105c1670b2e3acb21715bbe60c01b613c96565b6105d567ab3f88e1066dd24c60c01b613c96565b6105e967436fce33529549db60c01b613c96565b6105fd673745e35eabb5cc3f60c01b613c96565b61061167f378f882744a0de160c01b613c96565b61062567a09f10cc5f6666af60c01b613c96565b60015f8373ffffffffffffffffffffffffffffffffffffffff1673ffffffffffffffffffffffffffffffffffffffff1681526020019081526020015f205f9054906101000a900460ff16156106af576040517f08c379a00000000000000000000000000000000000000000000000000000000081526004016106a690614813565b60405180910390fd5b6106c367a489048b33a9210860c01b613c96565b6106d767f0ae531d7a80338560c01b613c96565b6001805f8473ffffffffffffffffffffffffffffffffffffffff1673ffffffffffffffffffffffffffffffffffffffff1681526020019081526020015f205f6101000a81548160ff02191690831515021790555061073f67f1661627e25ee40060c01b613c96565b6107536778614aaa5a034d9160c01b613c96565b7f3b4a40cccf2058c593542587329dd385be4f0b588db5471fbd9598e56dd7093a826040516107829190614428565b60405180910390a15050565b6107a26771a530fa4bddaf3660c01b613c96565b816107b76779e20414899381ea60c01b613c96565b6107cb67f7d3aa3db607396360c01b613c96565b6107df67ad44291b7ee41afc60c01b613c96565b6107f367939045f94a99d34360c01b613c96565b600480549050811061083a576040517f08c379a00000000000000000000000000000000000000000000000000000000081526004016108319061487b565b60405180910390fd5b61084e674e0e7e368a911a7e60c01b613c96565b610862671ba29d8eed77b1e060c01b613c96565b61087667dbffd84282a02ce460c01b613c96565b61088a67608d8e65591115c560c01b613c96565b61089e67e27f408880caa56160c01b613c96565b8160075f8581526020019081526020015f205f3373ffffffffffffffffffffffffffffffffffffffff1673ffffffffffffffffffffffffffffffffffffffff1681526020019081526020015f205f6101000a81548160ff02191690831515021790555061091567ffd6cd46f0ab22ef60c01b613c96565b6109296741c34dc9a2f76b4660c01b613c96565b81156109a95761094367d6a32e78560e134960c01b613c96565b61095767a95c04f421fd6b2960c01b613c96565b61096b67e5b89a134a07ff2d60c01b613c96565b7fcebe1f0a5fde2bf224e75cda66447253a2b8003182e6074f2a65ec2b26008062833360405161099c929190614899565b60405180910390a16109be565b6109bd6780e3bf37aff299d160c01b613c96565b5b505050565b6009602052805f5260405f205f915090505481565b6007602052815f5260405f20602052805f5260405f205f915091509054906101000a900460ff1681565b6060610a1867d7c1ca29e763e73e60c01b613c96565b610a2c67038528e343103e6460c01b613c96565b610a4067031c02eac39ca4bd60c01b613c96565b600b5f8381526020019081526020015f20805480602002602001604051908101604052809291908181526020018280548015610ace57602002820191905f5260205f20905b815f9054906101000a900473ffffffffffffffffffffffffffffffffffffffff1673ffffffffffffffffffffffffffffffffffffffff1681526020019060010190808311610a85575b50505050509050919050565b6006602052815f5260405f208181548110610af3575f80fd5b905f5260205f20015f91509150505481565b610b0d613c99565b610b165f613d17565b565b60048181548110610b27575f80fd5b905f5260205f2090600502015f91509050805f015490806001018054610b4c906148ed565b80601f0160208091040260200160405190810160405280929190818152602001828054610b78906148ed565b8015610bc35780601f10610b9a57610100808354040283529160200191610bc3565b820191905f5260205f20905b815481529060010190602001808311610ba657829003601f168201915b505050505090806002015490806003015f9054906101000a900460ff16908060030160019054906101000a900460ff16908060030160029054906101000a900473ffffffffffffffffffffffffffffffffffffffff1690806004015f9054906101000a900473ffffffffffffffffffffffffffffffffffffffff16905087565b6060610c5967079318c7f9e8f23660c01b613c96565b82610c6e6779e20414899381ea60c01b613c96565b610c8267f7d3aa3db607396360c01b613c96565b610c9667ad44291b7ee41afc60c01b613c96565b610caa67939045f94a99d34360c01b613c96565b6004805490508110610cf1576040517f08c379a0000000000000000000000000000000000000000000000000000000008152600401610ce89061487b565b60405180910390fd5b610d05674e0e7e368a911a7e60c01b613c96565b610d19671ba29d8eed77b1e060c01b613c96565b610d2d67d4bbf55e514283e260c01b613c96565b610d416724de8af4b2e79f3160c01b613c96565b82610d5667b11f4080883007ba60c01b613c96565b610d6a67e80104790e0e51c060c01b613c96565b610d7e671a6fff257a44d79660c01b613c96565b610d926731b9f9a63a68e10a60c01b613c96565b5f73ffffffffffffffffffffffffffffffffffffffff168173ffffffffffffffffffffffffffffffffffffffff1603610e00576040517f08c379a0000000000000000000000000000000000000000000000000000000008152600401610df7906147ab565b60405180910390fd5b610e1467c5a4257b9cd48c5860c01b613c96565b610e28670b2e3acb21715bbe60c01b613c96565b610e3c67b4c9614c715a7fc660c01b613c96565b610e5067cd0528fc23831cb060c01b613c96565b610e6467f84d0d6c2bfbe04160c01b613c96565b610e78675afc53bc5793edd760c01b613c96565b600a5f8681526020019081526020015f205f8573ffffffffffffffffffffffffffffffffffffffff1673ffffffffffffffffffffffffffffffffffffffff1681526020019081526020015f20805480602002602001604051908101604052809291908181526020015f905b82821015610ff7578382905f5260205f2090600202016040518060400160405290815f82018054610f13906148ed565b80601f0160208091040260200160405190810160405280929190818152602001828054610f3f906148ed565b8015610f8a5780601f10610f6157610100808354040283529160200191610f8a565b820191905f5260205f20905b815481529060010190602001808311610f6d57829003601f168201915b50505050508152602001600182015f9054906101000a900473ffffffffffffffffffffffffffffffffffffffff1673ffffffffffffffffffffffffffffffffffffffff1673ffffffffffffffffffffffffffffffffffffffff168152505081526020019060010190610ee3565b505050509250505092915050565b61101967a3165b9b1138a63f60c01b613c96565b8061102e6779e20414899381ea60c01b613c96565b61104267f7d3aa3db607396360c01b613c96565b61105667ad44291b7ee41afc60c01b613c96565b61106a67939045f94a99d34360c01b613c96565b60048054905081106110b1576040517f08c379a00000000000000000000000000000000000000000000000000000000081526004016110a89061487b565b60405180910390fd5b6110c5674e0e7e368a911a7e60c01b613c96565b6110d9671ba29d8eed77b1e060c01b613c96565b6110ed67aac32e4eb96fc66160c01b613c96565b61110167bfdcf73043f6d74260c01b613c96565b61111567c50ed91854f8deec60c01b613c96565b61112967684490f89acb985160c01b613c96565b61113d6751ba4ec3d4b1f7dd60c01b613c96565b60055f8381526020019081526020015f205f3373ffffffffffffffffffffffffffffffffffffffff1673ffffffffffffffffffffffffffffffffffffffff1681526020019081526020015f205f9054906101000a900460ff16156111d6576040517f08c379a00000000000000000000000000000000000000000000000000000000081526004016111cd90614813565b60405180910390fd5b6111ea677a1217ef1db4f1e160c01b613c96565b6111fe67f6dd22801d5f4ecd60c01b613c96565b61121267447b4200e47a1a9160c01b613c96565b5f600483815481106112275761122661491d565b5b905f5260205f2090600502016040518060e00160405290815f8201548152602001600182018054611257906148ed565b80601f0160208091040260200160405190810160405280929190818152602001828054611283906148ed565b80156112ce5780601f106112a5576101008083540402835291602001916112ce565b820191905f5260205f20905b8154815290600101906020018083116112b157829003601f168201915b5050505050815260200160028201548152602001600382015f9054906101000a900460ff1660058111156113055761130461416a565b5b60058111156113175761131661416a565b5b81526020016003820160019054906101000a900460ff1660ff1660ff1681526020016003820160029054906101000a900473ffffffffffffffffffffffffffffffffffffffff1673ffffffffffffffffffffffffffffffffffffffff1673ffffffffffffffffffffffffffffffffffffffff168152602001600482015f9054906101000a900473ffffffffffffffffffffffffffffffffffffffff1673ffffffffffffffffffffffffffffffffffffffff1673ffffffffffffffffffffffffffffffffffffffff168152505090506113f9672d61d169bcafe39c60c01b613c96565b61140d6785bc71cfd31b46c960c01b613c96565b42816040015110156114735761142d670486345d3023e19f60c01b613c96565b61144167ac3cc86e6810295560c01b613c96565b6040517f2ee88f5000000000000000000000000000000000000000000000000000000000815260040160405180910390fd5b611487674aa7e7cc66eb3feb60c01b613c96565b61149b67f0355a9f768f4e8c60c01b613c96565b6114af67e833409f0260034960c01b613c96565b5f816080015160ff1603611517576114d1671523b4bcee435c6a60c01b613c96565b6114e56712c546456eb484ea60c01b613c96565b6040517f106e2afe00000000000000000000000000000000000000000000000000000000815260040160405180910390fd5b61152b673f42c0500b59eee360c01b613c96565b61153f671dd53c71f6f53aca60c01b613c96565b600160055f8581526020019081526020015f205f3373ffffffffffffffffffffffffffffffffffffffff1673ffffffffffffffffffffffffffffffffffffffff1681526020019081526020015f205f6101000a81548160ff0219169083151502179055506115b767ad4978357a54add160c01b613c96565b6115cb674a20e84793b99ded60c01b613c96565b60065f3373ffffffffffffffffffffffffffffffffffffffff1673ffffffffffffffffffffffffffffffffffffffff1681526020019081526020015f2083908060018154018082558091505060019003905f5260205f20015f90919091909150556116406763cdb287d0605eda60c01b613c96565b80608001805161164f90614977565b60ff16908160ff168152505061166f67e1aa6b2daaebd6ad60c01b613c96565b8060800151600484815481106116885761168761491d565b5b905f5260205f20906005020160030160016101000a81548160ff021916908360ff160217905550505050565b6116c867918ecf25f8150c2160c01b613c96565b826116dd6779e20414899381ea60c01b613c96565b6116f167f7d3aa3db607396360c01b613c96565b61170567ad44291b7ee41afc60c01b613c96565b61171967939045f94a99d34360c01b613c96565b6004805490508110611760576040517f08c379a00000000000000000000000000000000000000000000000000000000081526004016117579061487b565b60405180910390fd5b611774674e0e7e368a911a7e60c01b613c96565b611788671ba29d8eed77b1e060c01b613c96565b61179c67ae14e28b0a0872bf60c01b613c96565b6117b0676e986c4f5457b9e760c01b613c96565b83336117c66735550cfcc723e96e60c01b613c96565b6117da67050dbb595625c39260c01b613c96565b6117ee67a9fc9a1aa2fe3b4c60c01b613c96565b6118026792cfb29ad869f4d660c01b613c96565b8073ffffffffffffffffffffffffffffffffffffffff1660025f8481526020019081526020015f205f9054906101000a900473ffffffffffffffffffffffffffffffffffffffff1673ffffffffffffffffffffffffffffffffffffffff16146118a0576040517f08c379a0000000000000000000000000000000000000000000000000000000008152600401611897906149e8565b60405180910390fd5b6118b4677ba2005878455edf60c01b613c96565b6118c86780ee4d136c13e15a60c01b613c96565b6118dc67cc400b1da246936e60c01b613c96565b6118f0676c3fbc887a8d00f160c01b613c96565b8461190567b11f4080883007ba60c01b613c96565b61191967e80104790e0e51c060c01b613c96565b61192d671a6fff257a44d79660c01b613c96565b6119416731b9f9a63a68e10a60c01b613c96565b5f73ffffffffffffffffffffffffffffffffffffffff168173ffffffffffffffffffffffffffffffffffffffff16036119af576040517f08c379a00000000000000000000000000000000000000000000000000000000081526004016119a6906147ab565b60405180910390fd5b6119c367c5a4257b9cd48c5860c01b613c96565b6119d7670b2e3acb21715bbe60c01b613c96565b6119eb671de38ae14bc978b960c01b613c96565b6119ff675c00cb50db176b5960c01b613c96565b84611a1467b11f4080883007ba60c01b613c96565b611a2867e80104790e0e51c060c01b613c96565b611a3c671a6fff257a44d79660c01b613c96565b611a506731b9f9a63a68e10a60c01b613c96565b5f73ffffffffffffffffffffffffffffffffffffffff168173ffffffffffffffffffffffffffffffffffffffff1603611abe576040517f08c379a0000000000000000000000000000000000000000000000000000000008152600401611ab5906147ab565b60405180910390fd5b611ad267c5a4257b9cd48c5860c01b613c96565b611ae6670b2e3acb21715bbe60c01b613c96565b611afa67430c000bc6b7ad3c60c01b613c96565b611b0e67e0ce92bbc1eb5aa960c01b613c96565b611b2267fb45952b07f8317460c01b613c96565b611b3667dd13a8f4dda0165f60c01b613c96565b611b4a676ded64f56118314560c01b613c96565b8573ffffffffffffffffffffffffffffffffffffffff168773ffffffffffffffffffffffffffffffffffffffff1603611bb8576040517f08c379a0000000000000000000000000000000000000000000000000000000008152600401611baf90614a50565b60405180910390fd5b611bcc67ce8d6d047f6c499560c01b613c96565b611be067080337767f3a8c5160c01b613c96565b611bf467e5513536f79c600360c01b613c96565b611c086723b7f49c13d1553660c01b613c96565b60055f8981526020019081526020015f205f8873ffffffffffffffffffffffffffffffffffffffff1673ffffffffffffffffffffffffffffffffffffffff1681526020019081526020015f205f9054906101000a900460ff168015611cc2575060055f8981526020019081526020015f205f8773ffffffffffffffffffffffffffffffffffffffff1673ffffffffffffffffffffffffffffffffffffffff1681526020019081526020015f205f9054906101000a900460ff165b611d01576040517f08c379a0000000000000000000000000000000000000000000000000000000008152600401611cf890614ab8565b60405180910390fd5b611d1567f5009432778e762e60c01b613c96565b611d2967dfcbc83d97cc07e660c01b613c96565b8660048981548110611d3e57611d3d61491d565b5b905f5260205f20906005020160030160026101000a81548173ffffffffffffffffffffffffffffffffffffffff021916908373ffffffffffffffffffffffffffffffffffffffff160217905550611d9f67e162619d25464dde60c01b613c96565b8560048981548110611db457611db361491d565b5b905f5260205f2090600502016004015f6101000a81548173ffffffffffffffffffffffffffffffffffffffff021916908373ffffffffffffffffffffffffffffffffffffffff1602179055505050505050505050565b5f805f9054906101000a900473ffffffffffffffffffffffffffffffffffffffff16905090565b611e456751c8ffa22636eeba60c01b613c96565b83611e5a6779e20414899381ea60c01b613c96565b611e6e67f7d3aa3db607396360c01b613c96565b611e8267ad44291b7ee41afc60c01b613c96565b611e9667939045f94a99d34360c01b613c96565b6004805490508110611edd576040517f08c379a0000000000000000000000000000000000000000000000000000000008152600401611ed49061487b565b60405180910390fd5b611ef1674e0e7e368a911a7e60c01b613c96565b611f05671ba29d8eed77b1e060c01b613c96565b611f196769fb2c39afe1a83760c01b613c96565b611f2d671690ac6932bf679f60c01b613c96565b8433611f436735550cfcc723e96e60c01b613c96565b611f5767050dbb595625c39260c01b613c96565b611f6b67a9fc9a1aa2fe3b4c60c01b613c96565b611f7f6792cfb29ad869f4d660c01b613c96565b8073ffffffffffffffffffffffffffffffffffffffff1660025f8481526020019081526020015f205f9054906101000a900473ffffffffffffffffffffffffffffffffffffffff1673ffffffffffffffffffffffffffffffffffffffff161461201d576040517f08c379a0000000000000000000000000000000000000000000000000000000008152600401612014906149e8565b60405180910390fd5b612031677ba2005878455edf60c01b613c96565b6120456780ee4d136c13e15a60c01b613c96565b612059679af29b37871d07d060c01b613c96565b61206d67634e6623ea6e22c560c01b613c96565b8561208267b11f4080883007ba60c01b613c96565b61209667e80104790e0e51c060c01b613c96565b6120aa671a6fff257a44d79660c01b613c96565b6120be6731b9f9a63a68e10a60c01b613c96565b5f73ffffffffffffffffffffffffffffffffffffffff168173ffffffffffffffffffffffffffffffffffffffff160361212c576040517f08c379a0000000000000000000000000000000000000000000000000000000008152600401612123906147ab565b60405180910390fd5b61214067c5a4257b9cd48c5860c01b613c96565b612154670b2e3acb21715bbe60c01b613c96565b612168677bd421ad28d8924660c01b613c96565b61217c67852f2a71660da32760c01b613c96565b85858080601f0160208091040260200160405190810160405280939291908181526020018383808284375f81840152601f19601f820116905080830192505050505050506121d467ea7d12f063fb722660c01b613c96565b6121e867e83f89c4f6e16ee560c01b613c96565b6121fc67024f5aae4fe51b2360c01b613c96565b61221067169ddc1d15d0261b60c01b613c96565b5f815111612253576040517f08c379a000000000000000000000000000000000000000000000000000000000815260040161224a90614b20565b60405180910390fd5b612267672e372e7bc3fa8bca60c01b613c96565b61227b67534646307bdf4a8160c01b613c96565b61228f67d0ca7a64edba9e9360c01b613c96565b6122a367be0ae2a9e00adf7c60c01b613c96565b336122b867cac778f577a97c1260c01b613c96565b6122cc67f1d88e229385115d60c01b613c96565b6122e06786026ed335a0a6a560c01b613c96565b6122f467bc821ac6ffc9e29760c01b613c96565b6002426123019190614b3e565b600c5f3373ffffffffffffffffffffffffffffffffffffffff1673ffffffffffffffffffffffffffffffffffffffff1681526020019081526020015f20541061237f576040517f08c379a000000000000000000000000000000000000000000000000000000000815260040161237690614bbb565b60405180910390fd5b6123936716e1665dbd85d4a960c01b613c96565b6123a767b5656abd29e474ca60c01b613c96565b6123bb67739a8e551f292ef260c01b613c96565b6123cf678b35a3a7449e014060c01b613c96565b6123e3673c227404b28c8c3360c01b613c96565b6123f76737fa2199c6aeac7b60c01b613c96565b600a5f8b81526020019081526020015f205f8a73ffffffffffffffffffffffffffffffffffffffff1673ffffffffffffffffffffffffffffffffffffffff1681526020019081526020015f2060405180604001604052808a8a8080601f0160208091040260200160405190810160405280939291908181526020018383808284375f81840152601f19601f8201169050808301925050505050505081526020013373ffffffffffffffffffffffffffffffffffffffff16815250908060018154018082558091505060019003905f5260205f2090600202015f909190919091505f820151815f0190816124ea9190614da3565b506020820151816001015f6101000a81548173ffffffffffffffffffffffffffffffffffffffff021916908373ffffffffffffffffffffffffffffffffffffffff1602179055505050612547677fd927cd700b487460c01b613c96565b42600c5f3373ffffffffffffffffffffffffffffffffffffffff1673ffffffffffffffffffffffffffffffffffffffff1681526020019081526020015f208190555050505050505050505050565b6005602052815f5260405f20602052805f5260405f205f915091509054906101000a900460ff1681565b6125d367d021d6a639a30f2160c01b613c96565b826125e86779e20414899381ea60c01b613c96565b6125fc67f7d3aa3db607396360c01b613c96565b61261067ad44291b7ee41afc60c01b613c96565b61262467939045f94a99d34360c01b613c96565b600480549050811061266b576040517f08c379a00000000000000000000000000000000000000000000000000000000081526004016126629061487b565b60405180910390fd5b61267f674e0e7e368a911a7e60c01b613c96565b612693671ba29d8eed77b1e060c01b613c96565b6126a767eafaa9263d8f413160c01b613c96565b6126bb676d7ca9e2a71fdbbc60c01b613c96565b82828080601f0160208091040260200160405190810160405280939291908181526020018383808284375f81840152601f19601f8201169050808301925050505050505061271367ea7d12f063fb722660c01b613c96565b61272767e83f89c4f6e16ee560c01b613c96565b61273b67024f5aae4fe51b2360c01b613c96565b61274f67169ddc1d15d0261b60c01b613c96565b5f815111612792576040517f08c379a000000000000000000000000000000000000000000000000000000000815260040161278990614b20565b60405180910390fd5b6127a6672e372e7bc3fa8bca60c01b613c96565b6127ba67534646307bdf4a8160c01b613c96565b6127ce67e1b9047dc9e665e260c01b613c96565b6127e2679e43ab48d087a67460c01b613c96565b336127f767cac778f577a97c1260c01b613c96565b61280b67f1d88e229385115d60c01b613c96565b61281f6786026ed335a0a6a560c01b613c96565b61283367bc821ac6ffc9e29760c01b613c96565b6002426128409190614b3e565b600c5f3373ffffffffffffffffffffffffffffffffffffffff1673ffffffffffffffffffffffffffffffffffffffff1681526020019081526020015f2054106128be576040517f08c379a00000000000000000000000000000000000000000000000000000000081526004016128b590614bbb565b60405180910390fd5b6128d26716e1665dbd85d4a960c01b613c96565b6128e667b5656abd29e474ca60c01b613c96565b6128fa671eff5bf3f732e1e860c01b613c96565b61290e674527e2fd8b90453360c01b613c96565b612922675bae4ce2a89b31bd60c01b613c96565b604051806040016040528086868080601f0160208091040260200160405190810160405280939291908181526020018383808284375f81840152601f19601f8201169050808301925050505050505081526020013373ffffffffffffffffffffffffffffffffffffffff1681525060085f8881526020019081526020015f205f60095f8a81526020019081526020015f205481526020019081526020015f205f820151815f0190816129d49190614da3565b506020820151816001015f6101000a81548173ffffffffffffffffffffffffffffffffffffffff021916908373ffffffffffffffffffffffffffffffffffffffff160217905550905050612a326737642f3319b6275560c01b613c96565b60095f8781526020019081526020015f205f8154612a4f90614e72565b91905081905550612a6a673f860a40858c2eaa60c01b613c96565b42600c5f3373ffffffffffffffffffffffffffffffffffffffff1673ffffffffffffffffffffffffffffffffffffffff1681526020019081526020015f2081905550612ac0677d1184ce5113ef8760c01b613c96565b612ad4676ce697a65ed87c7560c01b613c96565b7f3021694d1ef819d2b9bc13c595d4f75437b6bbbb2dd33e9f2a9df24534f6b55986604051612b039190613f4c565b60405180910390a1505050505050565b6060612b2967b46c7b4d7ca9d50c60c01b613c96565b612b3d67c56decd4d191dd7e60c01b613c96565b612b5167e9b7d6260dd978c860c01b613c96565b60065f3373ffffffffffffffffffffffffffffffffffffffff1673ffffffffffffffffffffffffffffffffffffffff1681526020019081526020015f20805480602002602001604051908101604052809291908181526020018280548015612bd657602002820191905f5260205f20905b815481526020019060010190808311612bc2575b5050505050905090565b612bf4675d5c4a04dd291b6e60c01b613c96565b82612c096779e20414899381ea60c01b613c96565b612c1d67f7d3aa3db607396360c01b613c96565b612c3167ad44291b7ee41afc60c01b613c96565b612c4567939045f94a99d34360c01b613c96565b6004805490508110612c8c576040517f08c379a0000000000000000000000000000000000000000000000000000000008152600401612c839061487b565b60405180910390fd5b612ca0674e0e7e368a911a7e60c01b613c96565b612cb4671ba29d8eed77b1e060c01b613c96565b612cc86767626470e4eb63eb60c01b613c96565b612cdc6705c094b8376026fc60c01b613c96565b82828080601f0160208091040260200160405190810160405280939291908181526020018383808284375f81840152601f19601f82011690508083019250505050505050612d3467ea7d12f063fb722660c01b613c96565b612d4867e83f89c4f6e16ee560c01b613c96565b612d5c67024f5aae4fe51b2360c01b613c96565b612d7067169ddc1d15d0261b60c01b613c96565b5f815111612db3576040517f08c379a0000000000000000000000000000000000000000000000000000000008152600401612daa90614b20565b60405180910390fd5b612dc7672e372e7bc3fa8bca60c01b613c96565b612ddb67534646307bdf4a8160c01b613c96565b612def67cd04fd57da00a18d60c01b613c96565b612e03674e9b5625c2df4e4560c01b613c96565b33612e1867cac778f577a97c1260c01b613c96565b612e2c67f1d88e229385115d60c01b613c96565b612e406786026ed335a0a6a560c01b613c96565b612e5467bc821ac6ffc9e29760c01b613c96565b600242612e619190614b3e565b600c5f3373ffffffffffffffffffffffffffffffffffffffff1673ffffffffffffffffffffffffffffffffffffffff1681526020019081526020015f205410612edf576040517f08c379a0000000000000000000000000000000000000000000000000000000008152600401612ed690614bbb565b60405180910390fd5b612ef36716e1665dbd85d4a960c01b613c96565b612f0767b5656abd29e474ca60c01b613c96565b612f1b67765f1d3fb1627b9960c01b613c96565b612f2f672fe132506cc0a6a960c01b613c96565b612f4367ec6de968745e66be60c01b613c96565b612f5767fcec784388dafd2b60c01b613c96565b600a5f8781526020019081526020015f205f3373ffffffffffffffffffffffffffffffffffffffff1673ffffffffffffffffffffffffffffffffffffffff1681526020019081526020015f20604051806040016040528087878080601f0160208091040260200160405190810160405280939291908181526020018383808284375f81840152601f19601f8201169050808301925050505050505081526020013373ffffffffffffffffffffffffffffffffffffffff16815250908060018154018082558091505060019003905f5260205f2090600202015f909190919091505f820151815f01908161304a9190614da3565b506020820151816001015f6101000a81548173ffffffffffffffffffffffffffffffffffffffff021916908373ffffffffffffffffffffffffffffffffffffffff16021790555050506130a7676a6dfab48d04974760c01b613c96565b42600c5f3373ffffffffffffffffffffffffffffffffffffffff1673ffffffffffffffffffffffffffffffffffffffff1681526020019081526020015f20819055506130fd67405b52bec2fa3ce860c01b613c96565b613111677f207324d5a225f860c01b613c96565b6001600a5f8881526020019081526020015f205f3373ffffffffffffffffffffffffffffffffffffffff1673ffffffffffffffffffffffffffffffffffffffff1681526020019081526020015f2080549050036132185761317c67b0a28e2338b0c79a60c01b613c96565b61319067a433f95be653046960c01b613c96565b6131a46727e46b860771e6ab60c01b613c96565b600b5f8781526020019081526020015f2033908060018154018082558091505060019003905f5260205f20015f9091909190916101000a81548173ffffffffffffffffffffffffffffffffffffffff021916908373ffffffffffffffffffffffffffffffffffffffff16021790555061322d565b61322c67167da6f0fa915c3160c01b613c96565b5b505050505050565b61323d613c99565b5f73ffffffffffffffffffffffffffffffffffffffff168173ffffffffffffffffffffffffffffffffffffffff16036132ab576040517f08c379a00000000000000000000000000000000000000000000000000000000081526004016132a290614f29565b60405180910390fd5b6132b481613d17565b50565b6002602052805f5260405f205f915054906101000a900473ffffffffffffffffffffffffffffffffffffffff1681565b60606132fd67770119844f62f0b560c01b613c96565b613311671fd15717e27ac43e60c01b613c96565b61332567537282f20804809260c01b613c96565b60035f3373ffffffffffffffffffffffffffffffffffffffff1673ffffffffffffffffffffffffffffffffffffffff1681526020019081526020015f208054806020026020016040519081016040528092919081815260200182805480156133aa57602002820191905f5260205f20905b815481526020019060010190808311613396575b5050505050905090565b6133c86712b3bc1e762b4ada60c01b613c96565b6133dc67b31802986ce3d8bf60c01b613c96565b6133f0675a3aac5f6336af5460c01b613c96565b6134046760983474f3ed42c560c01b613c96565b613418678c7ca8853caf6d7d60c01b613c96565b60015f3373ffffffffffffffffffffffffffffffffffffffff1673ffffffffffffffffffffffffffffffffffffffff1681526020019081526020015f205f9054906101000a900460ff166134a1576040517f08c379a000000000000000000000000000000000000000000000000000000000815260040161349890614f91565b60405180910390fd5b6134b5677a12bffa2779179e60c01b613c96565b6134c9678b556308549c917660c01b613c96565b6134dd678f7f85d524da76b260c01b613c96565b6134f1676b2e4ec87b9780ee60c01b613c96565b84848080601f0160208091040260200160405190810160405280939291908181526020018383808284375f81840152601f19601f8201169050808301925050505050505061354967ea7d12f063fb722660c01b613c96565b61355d67e83f89c4f6e16ee560c01b613c96565b61357167024f5aae4fe51b2360c01b613c96565b61358567169ddc1d15d0261b60c01b613c96565b5f8151116135c8576040517f08c379a00000000000000000000000000000000000000000000000000000000081526004016135bf90614b20565b60405180910390fd5b6135dc672e372e7bc3fa8bca60c01b613c96565b6135f067534646307bdf4a8160c01b613c96565b61360467208dddd6b4e4de7360c01b613c96565b613618675afa78e913041c8560c01b613c96565b61362c679caa2ae9494902c460c01b613c96565b6136406797feab883f094fa360c01b613c96565b61365467db9015f62ee1575c60c01b613c96565b428411613696576040517f08c379a000000000000000000000000000000000000000000000000000000000815260040161368d90614ff9565b60405180910390fd5b6136aa67f9b166f53092420060c01b613c96565b6136be674c932a98db8769d760c01b613c96565b6136d267992550c663104b1160c01b613c96565b6136e667d7d5e35e96b2af7060c01b613c96565b5f8260ff1611801561370657505f6002836137019190615044565b60ff16145b613745576040517f08c379a000000000000000000000000000000000000000000000000000000000815260040161373c906150be565b60405180910390fd5b613759679c3ec0d89db42fcf60c01b613c96565b61376d67285e0f8f02f98fe960c01b613c96565b613781675ebaa6fbd236d72f60c01b613c96565b613795679e0f407d67bae71260c01b613c96565b6005808111156137a8576137a761416a565b5b8360ff1611156137ed576040517f08c379a00000000000000000000000000000000000000000000000000000000081526004016137e490615126565b60405180910390fd5b61380167c264aa29afa4007860c01b613c96565b6138156775c933371c2ae7cf60c01b613c96565b61382967e822dd1ac0fdbf6760c01b613c96565b5f600480549050905061384667919ca10884fb879160c01b613c96565b61385a67022af9a369c1302160c01b613c96565b60046040518060e0016040528083815260200189898080601f0160208091040260200160405190810160405280939291908181526020018383808284375f81840152601f19601f8201169050808301925050505050505081526020018781526020018660ff1660058111156138d2576138d161416a565b5b60058111156138e4576138e361416a565b5b81526020018560ff1681526020015f73ffffffffffffffffffffffffffffffffffffffff1681526020015f73ffffffffffffffffffffffffffffffffffffffff16815250908060018154018082558091505060019003905f5260205f2090600502015f909190919091505f820151815f0155602082015181600101908161396b9190614da3565b50604082015181600201556060820151816003015f6101000a81548160ff021916908360058111156139a05761399f61416a565b5b021790555060808201518160030160016101000a81548160ff021916908360ff16021790555060a08201518160030160026101000a81548173ffffffffffffffffffffffffffffffffffffffff021916908373ffffffffffffffffffffffffffffffffffffffff16021790555060c0820151816004015f6101000a81548173ffffffffffffffffffffffffffffffffffffffff021916908373ffffffffffffffffffffffffffffffffffffffff1602179055505050613a6967eee5e586ec85419c60c01b613c96565b3360025f8381526020019081526020015f205f6101000a81548173ffffffffffffffffffffffffffffffffffffffff021916908373ffffffffffffffffffffffffffffffffffffffff160217905550613acc67c193eb482248e4ea60c01b613c96565b613ae0674df230151f34e51a60c01b613c96565b60035f3373ffffffffffffffffffffffffffffffffffffffff1673ffffffffffffffffffffffffffffffffffffffff1681526020019081526020015f2081908060018154018082558091505060019003905f5260205f20015f9091909190915055613b556760a0782ae40c726360c01b613c96565b613b69674d4645adc300b90960c01b613c96565b7f113d32d0b7aec15a8c7f50af4cb42f4695e5b95524ed69519ac88d6c1f1f40f681604051613b989190613f4c565b60405180910390a150505050505050565b6008602052815f5260405f20602052805f5260405f205f9150915050805f018054613bd3906148ed565b80601f0160208091040260200160405190810160405280929190818152602001828054613bff906148ed565b8015613c4a5780601f10613c2157610100808354040283529160200191613c4a565b820191905f5260205f20905b815481529060010190602001808311613c2d57829003601f168201915b505050505090806001015f9054906101000a900473ffffffffffffffffffffffffffffffffffffffff16905082565b6001602052805f5260405f205f915054906101000a900460ff1681565b50565b613ca1613dd8565b73ffffffffffffffffffffffffffffffffffffffff16613cbf611e0a565b73ffffffffffffffffffffffffffffffffffffffff1614613d15576040517f08c379a0000000000000000000000000000000000000000000000000000000008152600401613d0c9061518e565b60405180910390fd5b565b5f805f9054906101000a900473ffffffffffffffffffffffffffffffffffffffff169050815f806101000a81548173ffffffffffffffffffffffffffffffffffffffff021916908373ffffffffffffffffffffffffffffffffffffffff1602179055508173ffffffffffffffffffffffffffffffffffffffff168173ffffffffffffffffffffffffffffffffffffffff167f8be0079c531659141344cd1fd0a4f28419497f9722a3daafe3b4186f6b6457e060405160405180910390a35050565b5f33905090565b5f80fd5b5f80fd5b5f73ffffffffffffffffffffffffffffffffffffffff82169050919050565b5f613e1082613de7565b9050919050565b613e2081613e06565b8114613e2a575f80fd5b50565b5f81359050613e3b81613e17565b92915050565b5f60208284031215613e5657613e55613ddf565b5b5f613e6384828501613e2d565b91505092915050565b5f819050919050565b613e7e81613e6c565b8114613e88575f80fd5b50565b5f81359050613e9981613e75565b92915050565b5f8115159050919050565b613eb381613e9f565b8114613ebd575f80fd5b50565b5f81359050613ece81613eaa565b92915050565b5f8060408385031215613eea57613ee9613ddf565b5b5f613ef785828601613e8b565b9250506020613f0885828601613ec0565b9150509250929050565b5f60208284031215613f2757613f26613ddf565b5b5f613f3484828501613e8b565b91505092915050565b613f4681613e6c565b82525050565b5f602082019050613f5f5f830184613f3d565b92915050565b5f8060408385031215613f7b57613f7a613ddf565b5b5f613f8885828601613e8b565b9250506020613f9985828601613e2d565b9150509250929050565b613fac81613e9f565b82525050565b5f602082019050613fc55f830184613fa3565b92915050565b5f81519050919050565b5f82825260208201905092915050565b5f819050602082019050919050565b613ffd81613e06565b82525050565b5f61400e8383613ff4565b60208301905092915050565b5f602082019050919050565b5f61403082613fcb565b61403a8185613fd5565b935061404583613fe5565b805f5b8381101561407557815161405c8882614003565b97506140678361401a565b925050600181019050614048565b5085935050505092915050565b5f6020820190508181035f83015261409a8184614026565b905092915050565b5f80604083850312156140b8576140b7613ddf565b5b5f6140c585828601613e2d565b92505060206140d685828601613e8b565b9150509250929050565b5f81519050919050565b5f82825260208201905092915050565b5f5b838110156141175780820151818401526020810190506140fc565b5f8484015250505050565b5f601f19601f8301169050919050565b5f61413c826140e0565b61414681856140ea565b93506141568185602086016140fa565b61415f81614122565b840191505092915050565b7f4e487b71000000000000000000000000000000000000000000000000000000005f52602160045260245ffd5b600681106141a8576141a761416a565b5b50565b5f8190506141b882614197565b919050565b5f6141c7826141ab565b9050919050565b6141d7816141bd565b82525050565b5f60ff82169050919050565b6141f2816141dd565b82525050565b61420181613e06565b82525050565b5f60e08201905061421a5f83018a613f3d565b818103602083015261422c8189614132565b905061423b6040830188613f3d565b61424860608301876141ce565b61425560808301866141e9565b61426260a08301856141f8565b61426f60c08301846141f8565b98975050505050505050565b5f81519050919050565b5f82825260208201905092915050565b5f819050602082019050919050565b5f82825260208201905092915050565b5f6142be826140e0565b6142c881856142a4565b93506142d88185602086016140fa565b6142e181614122565b840191505092915050565b5f604083015f8301518482035f86015261430682826142b4565b915050602083015161431b6020860182613ff4565b508091505092915050565b5f61433183836142ec565b905092915050565b5f602082019050919050565b5f61434f8261427b565b6143598185614285565b93508360208202850161436b85614295565b805f5b858110156143a657848403895281516143878582614326565b945061439283614339565b925060208a0199505060018101905061436e565b50829750879550505050505092915050565b5f6020820190508181035f8301526143d08184614345565b905092915050565b5f805f606084860312156143ef576143ee613ddf565b5b5f6143fc86828701613e8b565b935050602061440d86828701613e2d565b925050604061441e86828701613e2d565b9150509250925092565b5f60208201905061443b5f8301846141f8565b92915050565b5f80fd5b5f80fd5b5f80fd5b5f8083601f84011261446257614461614441565b5b8235905067ffffffffffffffff81111561447f5761447e614445565b5b60208301915083600182028301111561449b5761449a614449565b5b9250929050565b5f805f80606085870312156144ba576144b9613ddf565b5b5f6144c787828801613e8b565b94505060206144d887828801613e2d565b935050604085013567ffffffffffffffff8111156144f9576144f8613de3565b5b6145058782880161444d565b925092505092959194509250565b5f805f6040848603121561452a57614529613ddf565b5b5f61453786828701613e8b565b935050602084013567ffffffffffffffff81111561455857614557613de3565b5b6145648682870161444d565b92509250509250925092565b5f81519050919050565b5f82825260208201905092915050565b5f819050602082019050919050565b6145a281613e6c565b82525050565b5f6145b38383614599565b60208301905092915050565b5f602082019050919050565b5f6145d582614570565b6145df818561457a565b93506145ea8361458a565b805f5b8381101561461a57815161460188826145a8565b975061460c836145bf565b9250506001810190506145ed565b5085935050505092915050565b5f6020820190508181035f83015261463f81846145cb565b905092915050565b614650816141dd565b811461465a575f80fd5b50565b5f8135905061466b81614647565b92915050565b5f805f805f6080868803121561468a57614689613ddf565b5b5f86013567ffffffffffffffff8111156146a7576146a6613de3565b5b6146b38882890161444d565b955095505060206146c688828901613e8b565b93505060406146d78882890161465d565b92505060606146e88882890161465d565b9150509295509295909350565b5f806040838503121561470b5761470a613ddf565b5b5f61471885828601613e8b565b925050602061472985828601613e8b565b9150509250929050565b5f6040820190508181035f83015261474b8185614132565b905061475a60208301846141f8565b9392505050565b7f43616e6e6f7420626520746865207a65726f20616464726573730000000000005f82015250565b5f614795601a836140ea565b91506147a082614761565b602082019050919050565b5f6020820190508181035f8301526147c281614789565b9050919050565b7f416c7265616479207265676973746572656400000000000000000000000000005f82015250565b5f6147fd6012836140ea565b9150614808826147c9565b602082019050919050565b5f6020820190508181035f83015261482a816147f1565b9050919050565b7f57726f6e672069642073656e74000000000000000000000000000000000000005f82015250565b5f614865600d836140ea565b915061487082614831565b602082019050919050565b5f6020820190508181035f83015261489281614859565b9050919050565b5f6040820190506148ac5f830185613f3d565b6148b960208301846141f8565b9392505050565b7f4e487b71000000000000000000000000000000000000000000000000000000005f52602260045260245ffd5b5f600282049050600182168061490457607f821691505b602082108103614917576149166148c0565b5b50919050565b7f4e487b71000000000000000000000000000000000000000000000000000000005f52603260045260245ffd5b7f4e487b71000000000000000000000000000000000000000000000000000000005f52601160045260245ffd5b5f614981826141dd565b91505f82036149935761499261494a565b5b600182039050919050565b7f4e6f7420746865206d616e6167657200000000000000000000000000000000005f82015250565b5f6149d2600f836140ea565b91506149dd8261499e565b602082019050919050565b5f6020820190508181035f8301526149ff816149c6565b9050919050565b7f53616d65206164647265737300000000000000000000000000000000000000005f82015250565b5f614a3a600c836140ea565b9150614a4582614a06565b602082019050919050565b5f6020820190508181035f830152614a6781614a2e565b9050919050565b7f4e6f7420726567697374657265640000000000000000000000000000000000005f82015250565b5f614aa2600e836140ea565b9150614aad82614a6e565b602082019050919050565b5f6020820190508181035f830152614acf81614a96565b9050919050565b7f43616e6e6f7420626520656d70747900000000000000000000000000000000005f82015250565b5f614b0a600f836140ea565b9150614b1582614ad6565b602082019050919050565b5f6020820190508181035f830152614b3781614afe565b9050919050565b5f614b4882613e6c565b9150614b5383613e6c565b9250828203905081811115614b6b57614b6a61494a565b5b92915050565b7f57616974203273000000000000000000000000000000000000000000000000005f82015250565b5f614ba56007836140ea565b9150614bb082614b71565b602082019050919050565b5f6020820190508181035f830152614bd281614b99565b9050919050565b7f4e487b71000000000000000000000000000000000000000000000000000000005f52604160045260245ffd5b5f819050815f5260205f209050919050565b5f6020601f8301049050919050565b5f82821b905092915050565b5f60088302614c627fffffffffffffffffffffffffffffffffffffffffffffffffffffffffffffffff82614c27565b614c6c8683614c27565b95508019841693508086168417925050509392505050565b5f819050919050565b5f614ca7614ca2614c9d84613e6c565b614c84565b613e6c565b9050919050565b5f819050919050565b614cc083614c8d565b614cd4614ccc82614cae565b848454614c33565b825550505050565b5f90565b614ce8614cdc565b614cf3818484614cb7565b505050565b5b81811015614d1657614d0b5f82614ce0565b600181019050614cf9565b5050565b601f821115614d5b57614d2c81614c06565b614d3584614c18565b81016020851015614d44578190505b614d58614d5085614c18565b830182614cf8565b50505b505050565b5f82821c905092915050565b5f614d7b5f1984600802614d60565b1980831691505092915050565b5f614d938383614d6c565b9150826002028217905092915050565b614dac826140e0565b67ffffffffffffffff811115614dc557614dc4614bd9565b5b614dcf82546148ed565b614dda828285614d1a565b5f60209050601f831160018114614e0b575f8415614df9578287015190505b614e038582614d88565b865550614e6a565b601f198416614e1986614c06565b5f5b82811015614e4057848901518255600182019150602085019450602081019050614e1b565b86831015614e5d5784890151614e59601f891682614d6c565b8355505b6001600288020188555050505b505050505050565b5f614e7c82613e6c565b91507fffffffffffffffffffffffffffffffffffffffffffffffffffffffffffffffff8203614eae57614ead61494a565b5b600182019050919050565b7f4f776e61626c653a206e6577206f776e657220697320746865207a65726f20615f8201527f6464726573730000000000000000000000000000000000000000000000000000602082015250565b5f614f136026836140ea565b9150614f1e82614eb9565b604082019050919050565b5f6020820190508181035f830152614f4081614f07565b9050919050565b7f466f7262696464656e00000000000000000000000000000000000000000000005f82015250565b5f614f7b6009836140ea565b9150614f8682614f47565b602082019050919050565b5f6020820190508181035f830152614fa881614f6f565b9050919050565b7f496e636f727265637420646174650000000000000000000000000000000000005f82015250565b5f614fe3600e836140ea565b9150614fee82614faf565b602082019050919050565b5f6020820190508181035f83015261501081614fd7565b9050919050565b7f4e487b71000000000000000000000000000000000000000000000000000000005f52601260045260245ffd5b5f61504e826141dd565b9150615059836141dd565b92508261506957615068615017565b5b828206905092915050565b7f506c6179656420627920320000000000000000000000000000000000000000005f82015250565b5f6150a8600b836140ea565b91506150b382615074565b602082019050919050565b5f6020820190508181035f8301526150d58161509c565b9050919050565b7f496e636f727265637420646966666963756c74790000000000000000000000005f82015250565b5f6151106014836140ea565b915061511b826150dc565b602082019050919050565b5f6020820190508181035f83015261513d81615104565b9050919050565b7f4f776e61626c653a2063616c6c6572206973206e6f7420746865206f776e65725f82015250565b5f6151786020836140ea565b915061518382615144565b602082019050919050565b5f6020820190508181035f8301526151a58161516c565b905091905056fea2646970667358221220a142ea42929d2fd85ec046c7b86f220b0fae76b3df63398e52a6771f62df7d3a64736f6c63430008140033","opcodes":"PUSH1 0x80 PUSH1 0x40 MSTORE CALLVALUE DUP1 ISZERO PUSH3 0x10 JUMPI PUSH0 DUP1 REVERT JUMPDEST POP PUSH3 0x31 PUSH3 0x25 PUSH3 0x37 PUSH1 0x20 SHL PUSH1 0x20 SHR JUMP JUMPDEST PUSH3 0x3E PUSH1 0x20 SHL PUSH1 0x20 SHR JUMP JUMPDEST PUSH3 0xFF JUMP JUMPDEST PUSH0 CALLER SWAP1 POP SWAP1 JUMP JUMPDEST PUSH0 DUP1 PUSH0 SWAP1 SLOAD SWAP1 PUSH2 0x100 EXP SWAP1 DIV PUSH20 0xFFFFFFFFFFFFFFFFFFFFFFFFFFFFFFFFFFFFFFFF AND SWAP1 POP DUP2 PUSH0 DUP1 PUSH2 0x100 EXP DUP2 SLOAD DUP2 PUSH20 0xFFFFFFFFFFFFFFFFFFFFFFFFFFFFFFFFFFFFFFFF MUL NOT AND SWAP1 DUP4 PUSH20 0xFFFFFFFFFFFFFFFFFFFFFFFFFFFFFFFFFFFFFFFF AND MUL OR SWAP1 SSTORE POP DUP2 PUSH20 0xFFFFFFFFFFFFFFFFFFFFFFFFFFFFFFFFFFFFFFFF AND DUP2 PUSH20 0xFFFFFFFFFFFFFFFFFFFFFFFFFFFFFFFFFFFFFFFF AND PUSH32 0x8BE0079C531659141344CD1FD0A4F28419497F9722A3DAAFE3B4186F6B6457E0 PUSH1 0x40 MLOAD PUSH1 0x40 MLOAD DUP1 SWAP2 SUB SWAP1 LOG3 POP POP JUMP JUMPDEST PUSH2 0x51E2 DUP1 PUSH3 0x10D PUSH0 CODECOPY PUSH0 RETURN INVALID PUSH1 0x80 PUSH1 0x40 MSTORE CALLVALUE DUP1 ISZERO PUSH2 0xF JUMPI PUSH0 DUP1 REVERT JUMPDEST POP PUSH1 0x4 CALLDATASIZE LT PUSH2 0x14B JUMPI PUSH0 CALLDATALOAD PUSH1 0xE0 SHR DUP1 PUSH4 0x8DA5CB5B GT PUSH2 0xC1 JUMPI DUP1 PUSH4 0xF2FDE38B GT PUSH2 0x7A JUMPI DUP1 PUSH4 0xF2FDE38B EQ PUSH2 0x3AF JUMPI DUP1 PUSH4 0xF52EC1CB EQ PUSH2 0x3CB JUMPI DUP1 PUSH4 0xF7F20CB3 EQ PUSH2 0x3FB JUMPI DUP1 PUSH4 0xF891E08B EQ PUSH2 0x419 JUMPI DUP1 PUSH4 0xFC6C776F EQ PUSH2 0x435 JUMPI DUP1 PUSH4 0xFDFF9B4D EQ PUSH2 0x466 JUMPI PUSH2 0x14B JUMP JUMPDEST DUP1 PUSH4 0x8DA5CB5B EQ PUSH2 0x2EF JUMPI DUP1 PUSH4 0x998AC197 EQ PUSH2 0x30D JUMPI DUP1 PUSH4 0x9B535EAD EQ PUSH2 0x329 JUMPI DUP1 PUSH4 0xAA7E5683 EQ PUSH2 0x359 JUMPI DUP1 PUSH4 0xBD83F6E3 EQ PUSH2 0x375 JUMPI DUP1 PUSH4 0xD566A382 EQ PUSH2 0x393 JUMPI PUSH2 0x14B JUMP JUMPDEST DUP1 PUSH4 0x43C0EDC1 GT PUSH2 0x113 JUMPI DUP1 PUSH4 0x43C0EDC1 EQ PUSH2 0x217 JUMPI DUP1 PUSH4 0x715018A6 EQ PUSH2 0x247 JUMPI DUP1 PUSH4 0x7503E1B7 EQ PUSH2 0x251 JUMPI DUP1 PUSH4 0x75843ABA EQ PUSH2 0x287 JUMPI DUP1 PUSH4 0x821644E6 EQ PUSH2 0x2B7 JUMPI DUP1 PUSH4 0x8A8DA1F7 EQ PUSH2 0x2D3 JUMPI PUSH2 0x14B JUMP JUMPDEST DUP1 PUSH4 0x2D06177A EQ PUSH2 0x14F JUMPI DUP1 PUSH4 0x32E9F509 EQ PUSH2 0x16B JUMPI DUP1 PUSH4 0x3682FD03 EQ PUSH2 0x187 JUMPI DUP1 PUSH4 0x3AE48EB8 EQ PUSH2 0x1B7 JUMPI DUP1 PUSH4 0x3B26F59C EQ PUSH2 0x1E7 JUMPI JUMPDEST PUSH0 DUP1 REVERT JUMPDEST PUSH2 0x169 PUSH1 0x4 DUP1 CALLDATASIZE SUB DUP2 ADD SWAP1 PUSH2 0x164 SWAP2 SWAP1 PUSH2 0x3E41 JUMP JUMPDEST PUSH2 0x496 JUMP JUMPDEST STOP JUMPDEST PUSH2 0x185 PUSH1 0x4 DUP1 CALLDATASIZE SUB DUP2 ADD SWAP1 PUSH2 0x180 SWAP2 SWAP1 PUSH2 0x3ED4 JUMP JUMPDEST PUSH2 0x78E JUMP JUMPDEST STOP JUMPDEST PUSH2 0x1A1 PUSH1 0x4 DUP1 CALLDATASIZE SUB DUP2 ADD SWAP1 PUSH2 0x19C SWAP2 SWAP1 PUSH2 0x3F12 JUMP JUMPDEST PUSH2 0x9C3 JUMP JUMPDEST PUSH1 0x40 MLOAD PUSH2 0x1AE SWAP2 SWAP1 PUSH2 0x3F4C JUMP JUMPDEST PUSH1 0x40 MLOAD DUP1 SWAP2 SUB SWAP1 RETURN JUMPDEST PUSH2 0x1D1 PUSH1 0x4 DUP1 CALLDATASIZE SUB DUP2 ADD SWAP1 PUSH2 0x1CC SWAP2 SWAP1 PUSH2 0x3F65 JUMP JUMPDEST PUSH2 0x9D8 JUMP JUMPDEST PUSH1 0x40 MLOAD PUSH2 0x1DE SWAP2 SWAP1 PUSH2 0x3FB2 JUMP JUMPDEST PUSH1 0x40 MLOAD DUP1 SWAP2 SUB SWAP1 RETURN JUMPDEST PUSH2 0x201 PUSH1 0x4 DUP1 CALLDATASIZE SUB DUP2 ADD SWAP1 PUSH2 0x1FC SWAP2 SWAP1 PUSH2 0x3F12 JUMP JUMPDEST PUSH2 0xA02 JUMP JUMPDEST PUSH1 0x40 MLOAD PUSH2 0x20E SWAP2 SWAP1 PUSH2 0x4082 JUMP JUMPDEST PUSH1 0x40 MLOAD DUP1 SWAP2 SUB SWAP1 RETURN JUMPDEST PUSH2 0x231 PUSH1 0x4 DUP1 CALLDATASIZE SUB DUP2 ADD SWAP1 PUSH2 0x22C SWAP2 SWAP1 PUSH2 0x40A2 JUMP JUMPDEST PUSH2 0xADA JUMP JUMPDEST PUSH1 0x40 MLOAD PUSH2 0x23E SWAP2 SWAP1 PUSH2 0x3F4C JUMP JUMPDEST PUSH1 0x40 MLOAD DUP1 SWAP2 SUB SWAP1 RETURN JUMPDEST PUSH2 0x24F PUSH2 0xB05 JUMP JUMPDEST STOP JUMPDEST PUSH2 0x26B PUSH1 0x4 DUP1 CALLDATASIZE SUB DUP2 ADD SWAP1 PUSH2 0x266 SWAP2 SWAP1 PUSH2 0x3F12 JUMP JUMPDEST PUSH2 0xB18 JUMP JUMPDEST PUSH1 0x40 MLOAD PUSH2 0x27E SWAP8 SWAP7 SWAP6 SWAP5 SWAP4 SWAP3 SWAP2 SWAP1 PUSH2 0x4207 JUMP JUMPDEST PUSH1 0x40 MLOAD DUP1 SWAP2 SUB SWAP1 RETURN JUMPDEST PUSH2 0x2A1 PUSH1 0x4 DUP1 CALLDATASIZE SUB DUP2 ADD SWAP1 PUSH2 0x29C SWAP2 SWAP1 PUSH2 0x3F65 JUMP JUMPDEST PUSH2 0xC43 JUMP JUMPDEST PUSH1 0x40 MLOAD PUSH2 0x2AE SWAP2 SWAP1 PUSH2 0x43B8 JUMP JUMPDEST PUSH1 0x40 MLOAD DUP1 SWAP2 SUB SWAP1 RETURN JUMPDEST PUSH2 0x2D1 PUSH1 0x4 DUP1 CALLDATASIZE SUB DUP2 ADD SWAP1 PUSH2 0x2CC SWAP2 SWAP1 PUSH2 0x3F12 JUMP JUMPDEST PUSH2 0x1005 JUMP JUMPDEST STOP JUMPDEST PUSH2 0x2ED PUSH1 0x4 DUP1 CALLDATASIZE SUB DUP2 ADD SWAP1 PUSH2 0x2E8 SWAP2 SWAP1 PUSH2 0x43D8 JUMP JUMPDEST PUSH2 0x16B4 JUMP JUMPDEST STOP JUMPDEST PUSH2 0x2F7 PUSH2 0x1E0A JUMP JUMPDEST PUSH1 0x40 MLOAD PUSH2 0x304 SWAP2 SWAP1 PUSH2 0x4428 JUMP JUMPDEST PUSH1 0x40 MLOAD DUP1 SWAP2 SUB SWAP1 RETURN JUMPDEST PUSH2 0x327 PUSH1 0x4 DUP1 CALLDATASIZE SUB DUP2 ADD SWAP1 PUSH2 0x322 SWAP2 SWAP1 PUSH2 0x44A2 JUMP JUMPDEST PUSH2 0x1E31 JUMP JUMPDEST STOP JUMPDEST PUSH2 0x343 PUSH1 0x4 DUP1 CALLDATASIZE SUB DUP2 ADD SWAP1 PUSH2 0x33E SWAP2 SWAP1 PUSH2 0x3F65 JUMP JUMPDEST PUSH2 0x2595 JUMP JUMPDEST PUSH1 0x40 MLOAD PUSH2 0x350 SWAP2 SWAP1 PUSH2 0x3FB2 JUMP JUMPDEST PUSH1 0x40 MLOAD DUP1 SWAP2 SUB SWAP1 RETURN JUMPDEST PUSH2 0x373 PUSH1 0x4 DUP1 CALLDATASIZE SUB DUP2 ADD SWAP1 PUSH2 0x36E SWAP2 SWAP1 PUSH2 0x4513 JUMP JUMPDEST PUSH2 0x25BF JUMP JUMPDEST STOP JUMPDEST PUSH2 0x37D PUSH2 0x2B13 JUMP JUMPDEST PUSH1 0x40 MLOAD PUSH2 0x38A SWAP2 SWAP1 PUSH2 0x4627 JUMP JUMPDEST PUSH1 0x40 MLOAD DUP1 SWAP2 SUB SWAP1 RETURN JUMPDEST PUSH2 0x3AD PUSH1 0x4 DUP1 CALLDATASIZE SUB DUP2 ADD SWAP1 PUSH2 0x3A8 SWAP2 SWAP1 PUSH2 0x4513 JUMP JUMPDEST PUSH2 0x2BE0 JUMP JUMPDEST STOP JUMPDEST PUSH2 0x3C9 PUSH1 0x4 DUP1 CALLDATASIZE SUB DUP2 ADD SWAP1 PUSH2 0x3C4 SWAP2 SWAP1 PUSH2 0x3E41 JUMP JUMPDEST PUSH2 0x3235 JUMP JUMPDEST STOP JUMPDEST PUSH2 0x3E5 PUSH1 0x4 DUP1 CALLDATASIZE SUB DUP2 ADD SWAP1 PUSH2 0x3E0 SWAP2 SWAP1 PUSH2 0x3F12 JUMP JUMPDEST PUSH2 0x32B7 JUMP JUMPDEST PUSH1 0x40 MLOAD PUSH2 0x3F2 SWAP2 SWAP1 PUSH2 0x4428 JUMP JUMPDEST PUSH1 0x40 MLOAD DUP1 SWAP2 SUB SWAP1 RETURN JUMPDEST PUSH2 0x403 PUSH2 0x32E7 JUMP JUMPDEST PUSH1 0x40 MLOAD PUSH2 0x410 SWAP2 SWAP1 PUSH2 0x4627 JUMP JUMPDEST PUSH1 0x40 MLOAD DUP1 SWAP2 SUB SWAP1 RETURN JUMPDEST PUSH2 0x433 PUSH1 0x4 DUP1 CALLDATASIZE SUB DUP2 ADD SWAP1 PUSH2 0x42E SWAP2 SWAP1 PUSH2 0x4671 JUMP JUMPDEST PUSH2 0x33B4 JUMP JUMPDEST STOP JUMPDEST PUSH2 0x44F PUSH1 0x4 DUP1 CALLDATASIZE SUB DUP2 ADD SWAP1 PUSH2 0x44A SWAP2 SWAP1 PUSH2 0x46F5 JUMP JUMPDEST PUSH2 0x3BA9 JUMP JUMPDEST PUSH1 0x40 MLOAD PUSH2 0x45D SWAP3 SWAP2 SWAP1 PUSH2 0x4733 JUMP JUMPDEST PUSH1 0x40 MLOAD DUP1 SWAP2 SUB SWAP1 RETURN JUMPDEST PUSH2 0x480 PUSH1 0x4 DUP1 CALLDATASIZE SUB DUP2 ADD SWAP1 PUSH2 0x47B SWAP2 SWAP1 PUSH2 0x3E41 JUMP JUMPDEST PUSH2 0x3C79 JUMP JUMPDEST PUSH1 0x40 MLOAD PUSH2 0x48D SWAP2 SWAP1 PUSH2 0x3FB2 JUMP JUMPDEST PUSH1 0x40 MLOAD DUP1 SWAP2 SUB SWAP1 RETURN JUMPDEST PUSH2 0x4AA PUSH8 0xDC10F580B49FCD1C PUSH1 0xC0 SHL PUSH2 0x3C96 JUMP JUMPDEST PUSH2 0x4B2 PUSH2 0x3C99 JUMP JUMPDEST PUSH2 0x4C6 PUSH8 0xA5A48C441EFAE52 PUSH1 0xC0 SHL PUSH2 0x3C96 JUMP JUMPDEST PUSH2 0x4DA PUSH8 0xC622B70D9A47C4FB PUSH1 0xC0 SHL PUSH2 0x3C96 JUMP JUMPDEST DUP1 PUSH2 0x4EF PUSH8 0xB11F4080883007BA PUSH1 0xC0 SHL PUSH2 0x3C96 JUMP JUMPDEST PUSH2 0x503 PUSH8 0xE80104790E0E51C0 PUSH1 0xC0 SHL PUSH2 0x3C96 JUMP JUMPDEST PUSH2 0x517 PUSH8 0x1A6FFF257A44D796 PUSH1 0xC0 SHL PUSH2 0x3C96 JUMP JUMPDEST PUSH2 0x52B PUSH8 0x31B9F9A63A68E10A PUSH1 0xC0 SHL PUSH2 0x3C96 JUMP JUMPDEST PUSH0 PUSH20 0xFFFFFFFFFFFFFFFFFFFFFFFFFFFFFFFFFFFFFFFF AND DUP2 PUSH20 0xFFFFFFFFFFFFFFFFFFFFFFFFFFFFFFFFFFFFFFFF AND SUB PUSH2 0x599 JUMPI PUSH1 0x40 MLOAD PUSH32 0x8C379A000000000000000000000000000000000000000000000000000000000 DUP2 MSTORE PUSH1 0x4 ADD PUSH2 0x590 SWAP1 PUSH2 0x47AB JUMP JUMPDEST PUSH1 0x40 MLOAD DUP1 SWAP2 SUB SWAP1 REVERT JUMPDEST PUSH2 0x5AD PUSH8 0xC5A4257B9CD48C58 PUSH1 0xC0 SHL PUSH2 0x3C96 JUMP JUMPDEST PUSH2 0x5C1 PUSH8 0xB2E3ACB21715BBE PUSH1 0xC0 SHL PUSH2 0x3C96 JUMP JUMPDEST PUSH2 0x5D5 PUSH8 0xAB3F88E1066DD24C PUSH1 0xC0 SHL PUSH2 0x3C96 JUMP JUMPDEST PUSH2 0x5E9 PUSH8 0x436FCE33529549DB PUSH1 0xC0 SHL PUSH2 0x3C96 JUMP JUMPDEST PUSH2 0x5FD PUSH8 0x3745E35EABB5CC3F PUSH1 0xC0 SHL PUSH2 0x3C96 JUMP JUMPDEST PUSH2 0x611 PUSH8 0xF378F882744A0DE1 PUSH1 0xC0 SHL PUSH2 0x3C96 JUMP JUMPDEST PUSH2 0x625 PUSH8 0xA09F10CC5F6666AF PUSH1 0xC0 SHL PUSH2 0x3C96 JUMP JUMPDEST PUSH1 0x1 PUSH0 DUP4 PUSH20 0xFFFFFFFFFFFFFFFFFFFFFFFFFFFFFFFFFFFFFFFF AND PUSH20 0xFFFFFFFFFFFFFFFFFFFFFFFFFFFFFFFFFFFFFFFF AND DUP2 MSTORE PUSH1 0x20 ADD SWAP1 DUP2 MSTORE PUSH1 0x20 ADD PUSH0 KECCAK256 PUSH0 SWAP1 SLOAD SWAP1 PUSH2 0x100 EXP SWAP1 DIV PUSH1 0xFF AND ISZERO PUSH2 0x6AF JUMPI PUSH1 0x40 MLOAD PUSH32 0x8C379A000000000000000000000000000000000000000000000000000000000 DUP2 MSTORE PUSH1 0x4 ADD PUSH2 0x6A6 SWAP1 PUSH2 0x4813 JUMP JUMPDEST PUSH1 0x40 MLOAD DUP1 SWAP2 SUB SWAP1 REVERT JUMPDEST PUSH2 0x6C3 PUSH8 0xA489048B33A92108 PUSH1 0xC0 SHL PUSH2 0x3C96 JUMP JUMPDEST PUSH2 0x6D7 PUSH8 0xF0AE531D7A803385 PUSH1 0xC0 SHL PUSH2 0x3C96 JUMP JUMPDEST PUSH1 0x1 DUP1 PUSH0 DUP5 PUSH20 0xFFFFFFFFFFFFFFFFFFFFFFFFFFFFFFFFFFFFFFFF AND PUSH20 0xFFFFFFFFFFFFFFFFFFFFFFFFFFFFFFFFFFFFFFFF AND DUP2 MSTORE PUSH1 0x20 ADD SWAP1 DUP2 MSTORE PUSH1 0x20 ADD PUSH0 KECCAK256 PUSH0 PUSH2 0x100 EXP DUP2 SLOAD DUP2 PUSH1 0xFF MUL NOT AND SWAP1 DUP4 ISZERO ISZERO MUL OR SWAP1 SSTORE POP PUSH2 0x73F PUSH8 0xF1661627E25EE400 PUSH1 0xC0 SHL PUSH2 0x3C96 JUMP JUMPDEST PUSH2 0x753 PUSH8 0x78614AAA5A034D91 PUSH1 0xC0 SHL PUSH2 0x3C96 JUMP JUMPDEST PUSH32 0x3B4A40CCCF2058C593542587329DD385BE4F0B588DB5471FBD9598E56DD7093A DUP3 PUSH1 0x40 MLOAD PUSH2 0x782 SWAP2 SWAP1 PUSH2 0x4428 JUMP JUMPDEST PUSH1 0x40 MLOAD DUP1 SWAP2 SUB SWAP1 LOG1 POP POP JUMP JUMPDEST PUSH2 0x7A2 PUSH8 0x71A530FA4BDDAF36 PUSH1 0xC0 SHL PUSH2 0x3C96 JUMP JUMPDEST DUP2 PUSH2 0x7B7 PUSH8 0x79E20414899381EA PUSH1 0xC0 SHL PUSH2 0x3C96 JUMP JUMPDEST PUSH2 0x7CB PUSH8 0xF7D3AA3DB6073963 PUSH1 0xC0 SHL PUSH2 0x3C96 JUMP JUMPDEST PUSH2 0x7DF PUSH8 0xAD44291B7EE41AFC PUSH1 0xC0 SHL PUSH2 0x3C96 JUMP JUMPDEST PUSH2 0x7F3 PUSH8 0x939045F94A99D343 PUSH1 0xC0 SHL PUSH2 0x3C96 JUMP JUMPDEST PUSH1 0x4 DUP1 SLOAD SWAP1 POP DUP2 LT PUSH2 0x83A JUMPI PUSH1 0x40 MLOAD PUSH32 0x8C379A000000000000000000000000000000000000000000000000000000000 DUP2 MSTORE PUSH1 0x4 ADD PUSH2 0x831 SWAP1 PUSH2 0x487B JUMP JUMPDEST PUSH1 0x40 MLOAD DUP1 SWAP2 SUB SWAP1 REVERT JUMPDEST PUSH2 0x84E PUSH8 0x4E0E7E368A911A7E PUSH1 0xC0 SHL PUSH2 0x3C96 JUMP JUMPDEST PUSH2 0x862 PUSH8 0x1BA29D8EED77B1E0 PUSH1 0xC0 SHL PUSH2 0x3C96 JUMP JUMPDEST PUSH2 0x876 PUSH8 0xDBFFD84282A02CE4 PUSH1 0xC0 SHL PUSH2 0x3C96 JUMP JUMPDEST PUSH2 0x88A PUSH8 0x608D8E65591115C5 PUSH1 0xC0 SHL PUSH2 0x3C96 JUMP JUMPDEST PUSH2 0x89E PUSH8 0xE27F408880CAA561 PUSH1 0xC0 SHL PUSH2 0x3C96 JUMP JUMPDEST DUP2 PUSH1 0x7 PUSH0 DUP6 DUP2 MSTORE PUSH1 0x20 ADD SWAP1 DUP2 MSTORE PUSH1 0x20 ADD PUSH0 KECCAK256 PUSH0 CALLER PUSH20 0xFFFFFFFFFFFFFFFFFFFFFFFFFFFFFFFFFFFFFFFF AND PUSH20 0xFFFFFFFFFFFFFFFFFFFFFFFFFFFFFFFFFFFFFFFF AND DUP2 MSTORE PUSH1 0x20 ADD SWAP1 DUP2 MSTORE PUSH1 0x20 ADD PUSH0 KECCAK256 PUSH0 PUSH2 0x100 EXP DUP2 SLOAD DUP2 PUSH1 0xFF MUL NOT AND SWAP1 DUP4 ISZERO ISZERO MUL OR SWAP1 SSTORE POP PUSH2 0x915 PUSH8 0xFFD6CD46F0AB22EF PUSH1 0xC0 SHL PUSH2 0x3C96 JUMP JUMPDEST PUSH2 0x929 PUSH8 0x41C34DC9A2F76B46 PUSH1 0xC0 SHL PUSH2 0x3C96 JUMP JUMPDEST DUP2 ISZERO PUSH2 0x9A9 JUMPI PUSH2 0x943 PUSH8 0xD6A32E78560E1349 PUSH1 0xC0 SHL PUSH2 0x3C96 JUMP JUMPDEST PUSH2 0x957 PUSH8 0xA95C04F421FD6B29 PUSH1 0xC0 SHL PUSH2 0x3C96 JUMP JUMPDEST PUSH2 0x96B PUSH8 0xE5B89A134A07FF2D PUSH1 0xC0 SHL PUSH2 0x3C96 JUMP JUMPDEST PUSH32 0xCEBE1F0A5FDE2BF224E75CDA66447253A2B8003182E6074F2A65EC2B26008062 DUP4 CALLER PUSH1 0x40 MLOAD PUSH2 0x99C SWAP3 SWAP2 SWAP1 PUSH2 0x4899 JUMP JUMPDEST PUSH1 0x40 MLOAD DUP1 SWAP2 SUB SWAP1 LOG1 PUSH2 0x9BE JUMP JUMPDEST PUSH2 0x9BD PUSH8 0x80E3BF37AFF299D1 PUSH1 0xC0 SHL PUSH2 0x3C96 JUMP JUMPDEST JUMPDEST POP POP POP JUMP JUMPDEST PUSH1 0x9 PUSH1 0x20 MSTORE DUP1 PUSH0 MSTORE PUSH1 0x40 PUSH0 KECCAK256 PUSH0 SWAP2 POP SWAP1 POP SLOAD DUP2 JUMP JUMPDEST PUSH1 0x7 PUSH1 0x20 MSTORE DUP2 PUSH0 MSTORE PUSH1 0x40 PUSH0 KECCAK256 PUSH1 0x20 MSTORE DUP1 PUSH0 MSTORE PUSH1 0x40 PUSH0 KECCAK256 PUSH0 SWAP2 POP SWAP2 POP SWAP1 SLOAD SWAP1 PUSH2 0x100 EXP SWAP1 DIV PUSH1 0xFF AND DUP2 JUMP JUMPDEST PUSH1 0x60 PUSH2 0xA18 PUSH8 0xD7C1CA29E763E73E PUSH1 0xC0 SHL PUSH2 0x3C96 JUMP JUMPDEST PUSH2 0xA2C PUSH8 0x38528E343103E64 PUSH1 0xC0 SHL PUSH2 0x3C96 JUMP JUMPDEST PUSH2 0xA40 PUSH8 0x31C02EAC39CA4BD PUSH1 0xC0 SHL PUSH2 0x3C96 JUMP JUMPDEST PUSH1 0xB PUSH0 DUP4 DUP2 MSTORE PUSH1 0x20 ADD SWAP1 DUP2 MSTORE PUSH1 0x20 ADD PUSH0 KECCAK256 DUP1 SLOAD DUP1 PUSH1 0x20 MUL PUSH1 0x20 ADD PUSH1 0x40 MLOAD SWAP1 DUP2 ADD PUSH1 0x40 MSTORE DUP1 SWAP3 SWAP2 SWAP1 DUP2 DUP2 MSTORE PUSH1 0x20 ADD DUP3 DUP1 SLOAD DUP1 ISZERO PUSH2 0xACE JUMPI PUSH1 0x20 MUL DUP3 ADD SWAP2 SWAP1 PUSH0 MSTORE PUSH1 0x20 PUSH0 KECCAK256 SWAP1 JUMPDEST DUP2 PUSH0 SWAP1 SLOAD SWAP1 PUSH2 0x100 EXP SWAP1 DIV PUSH20 0xFFFFFFFFFFFFFFFFFFFFFFFFFFFFFFFFFFFFFFFF AND PUSH20 0xFFFFFFFFFFFFFFFFFFFFFFFFFFFFFFFFFFFFFFFF AND DUP2 MSTORE PUSH1 0x20 ADD SWAP1 PUSH1 0x1 ADD SWAP1 DUP1 DUP4 GT PUSH2 0xA85 JUMPI JUMPDEST POP POP POP POP POP SWAP1 POP SWAP2 SWAP1 POP JUMP JUMPDEST PUSH1 0x6 PUSH1 0x20 MSTORE DUP2 PUSH0 MSTORE PUSH1 0x40 PUSH0 KECCAK256 DUP2 DUP2 SLOAD DUP2 LT PUSH2 0xAF3 JUMPI PUSH0 DUP1 REVERT JUMPDEST SWAP1 PUSH0 MSTORE PUSH1 0x20 PUSH0 KECCAK256 ADD PUSH0 SWAP2 POP SWAP2 POP POP SLOAD DUP2 JUMP JUMPDEST PUSH2 0xB0D PUSH2 0x3C99 JUMP JUMPDEST PUSH2 0xB16 PUSH0 PUSH2 0x3D17 JUMP JUMPDEST JUMP JUMPDEST PUSH1 0x4 DUP2 DUP2 SLOAD DUP2 LT PUSH2 0xB27 JUMPI PUSH0 DUP1 REVERT JUMPDEST SWAP1 PUSH0 MSTORE PUSH1 0x20 PUSH0 KECCAK256 SWAP1 PUSH1 0x5 MUL ADD PUSH0 SWAP2 POP SWAP1 POP DUP1 PUSH0 ADD SLOAD SWAP1 DUP1 PUSH1 0x1 ADD DUP1 SLOAD PUSH2 0xB4C SWAP1 PUSH2 0x48ED JUMP JUMPDEST DUP1 PUSH1 0x1F ADD PUSH1 0x20 DUP1 SWAP2 DIV MUL PUSH1 0x20 ADD PUSH1 0x40 MLOAD SWAP1 DUP2 ADD PUSH1 0x40 MSTORE DUP1 SWAP3 SWAP2 SWAP1 DUP2 DUP2 MSTORE PUSH1 0x20 ADD DUP3 DUP1 SLOAD PUSH2 0xB78 SWAP1 PUSH2 0x48ED JUMP JUMPDEST DUP1 ISZERO PUSH2 0xBC3 JUMPI DUP1 PUSH1 0x1F LT PUSH2 0xB9A JUMPI PUSH2 0x100 DUP1 DUP4 SLOAD DIV MUL DUP4 MSTORE SWAP2 PUSH1 0x20 ADD SWAP2 PUSH2 0xBC3 JUMP JUMPDEST DUP3 ADD SWAP2 SWAP1 PUSH0 MSTORE PUSH1 0x20 PUSH0 KECCAK256 SWAP1 JUMPDEST DUP2 SLOAD DUP2 MSTORE SWAP1 PUSH1 0x1 ADD SWAP1 PUSH1 0x20 ADD DUP1 DUP4 GT PUSH2 0xBA6 JUMPI DUP3 SWAP1 SUB PUSH1 0x1F AND DUP3 ADD SWAP2 JUMPDEST POP POP POP POP POP SWAP1 DUP1 PUSH1 0x2 ADD SLOAD SWAP1 DUP1 PUSH1 0x3 ADD PUSH0 SWAP1 SLOAD SWAP1 PUSH2 0x100 EXP SWAP1 DIV PUSH1 0xFF AND SWAP1 DUP1 PUSH1 0x3 ADD PUSH1 0x1 SWAP1 SLOAD SWAP1 PUSH2 0x100 EXP SWAP1 DIV PUSH1 0xFF AND SWAP1 DUP1 PUSH1 0x3 ADD PUSH1 0x2 SWAP1 SLOAD SWAP1 PUSH2 0x100 EXP SWAP1 DIV PUSH20 0xFFFFFFFFFFFFFFFFFFFFFFFFFFFFFFFFFFFFFFFF AND SWAP1 DUP1 PUSH1 0x4 ADD PUSH0 SWAP1 SLOAD SWAP1 PUSH2 0x100 EXP SWAP1 DIV PUSH20 0xFFFFFFFFFFFFFFFFFFFFFFFFFFFFFFFFFFFFFFFF AND SWAP1 POP DUP8 JUMP JUMPDEST PUSH1 0x60 PUSH2 0xC59 PUSH8 0x79318C7F9E8F236 PUSH1 0xC0 SHL PUSH2 0x3C96 JUMP JUMPDEST DUP3 PUSH2 0xC6E PUSH8 0x79E20414899381EA PUSH1 0xC0 SHL PUSH2 0x3C96 JUMP JUMPDEST PUSH2 0xC82 PUSH8 0xF7D3AA3DB6073963 PUSH1 0xC0 SHL PUSH2 0x3C96 JUMP JUMPDEST PUSH2 0xC96 PUSH8 0xAD44291B7EE41AFC PUSH1 0xC0 SHL PUSH2 0x3C96 JUMP JUMPDEST PUSH2 0xCAA PUSH8 0x939045F94A99D343 PUSH1 0xC0 SHL PUSH2 0x3C96 JUMP JUMPDEST PUSH1 0x4 DUP1 SLOAD SWAP1 POP DUP2 LT PUSH2 0xCF1 JUMPI PUSH1 0x40 MLOAD PUSH32 0x8C379A000000000000000000000000000000000000000000000000000000000 DUP2 MSTORE PUSH1 0x4 ADD PUSH2 0xCE8 SWAP1 PUSH2 0x487B JUMP JUMPDEST PUSH1 0x40 MLOAD DUP1 SWAP2 SUB SWAP1 REVERT JUMPDEST PUSH2 0xD05 PUSH8 0x4E0E7E368A911A7E PUSH1 0xC0 SHL PUSH2 0x3C96 JUMP JUMPDEST PUSH2 0xD19 PUSH8 0x1BA29D8EED77B1E0 PUSH1 0xC0 SHL PUSH2 0x3C96 JUMP JUMPDEST PUSH2 0xD2D PUSH8 0xD4BBF55E514283E2 PUSH1 0xC0 SHL PUSH2 0x3C96 JUMP JUMPDEST PUSH2 0xD41 PUSH8 0x24DE8AF4B2E79F31 PUSH1 0xC0 SHL PUSH2 0x3C96 JUMP JUMPDEST DUP3 PUSH2 0xD56 PUSH8 0xB11F4080883007BA PUSH1 0xC0 SHL PUSH2 0x3C96 JUMP JUMPDEST PUSH2 0xD6A PUSH8 0xE80104790E0E51C0 PUSH1 0xC0 SHL PUSH2 0x3C96 JUMP JUMPDEST PUSH2 0xD7E PUSH8 0x1A6FFF257A44D796 PUSH1 0xC0 SHL PUSH2 0x3C96 JUMP JUMPDEST PUSH2 0xD92 PUSH8 0x31B9F9A63A68E10A PUSH1 0xC0 SHL PUSH2 0x3C96 JUMP JUMPDEST PUSH0 PUSH20 0xFFFFFFFFFFFFFFFFFFFFFFFFFFFFFFFFFFFFFFFF AND DUP2 PUSH20 0xFFFFFFFFFFFFFFFFFFFFFFFFFFFFFFFFFFFFFFFF AND SUB PUSH2 0xE00 JUMPI PUSH1 0x40 MLOAD PUSH32 0x8C379A000000000000000000000000000000000000000000000000000000000 DUP2 MSTORE PUSH1 0x4 ADD PUSH2 0xDF7 SWAP1 PUSH2 0x47AB JUMP JUMPDEST PUSH1 0x40 MLOAD DUP1 SWAP2 SUB SWAP1 REVERT JUMPDEST PUSH2 0xE14 PUSH8 0xC5A4257B9CD48C58 PUSH1 0xC0 SHL PUSH2 0x3C96 JUMP JUMPDEST PUSH2 0xE28 PUSH8 0xB2E3ACB21715BBE PUSH1 0xC0 SHL PUSH2 0x3C96 JUMP JUMPDEST PUSH2 0xE3C PUSH8 0xB4C9614C715A7FC6 PUSH1 0xC0 SHL PUSH2 0x3C96 JUMP JUMPDEST PUSH2 0xE50 PUSH8 0xCD0528FC23831CB0 PUSH1 0xC0 SHL PUSH2 0x3C96 JUMP JUMPDEST PUSH2 0xE64 PUSH8 0xF84D0D6C2BFBE041 PUSH1 0xC0 SHL PUSH2 0x3C96 JUMP JUMPDEST PUSH2 0xE78 PUSH8 0x5AFC53BC5793EDD7 PUSH1 0xC0 SHL PUSH2 0x3C96 JUMP JUMPDEST PUSH1 0xA PUSH0 DUP7 DUP2 MSTORE PUSH1 0x20 ADD SWAP1 DUP2 MSTORE PUSH1 0x20 ADD PUSH0 KECCAK256 PUSH0 DUP6 PUSH20 0xFFFFFFFFFFFFFFFFFFFFFFFFFFFFFFFFFFFFFFFF AND PUSH20 0xFFFFFFFFFFFFFFFFFFFFFFFFFFFFFFFFFFFFFFFF AND DUP2 MSTORE PUSH1 0x20 ADD SWAP1 DUP2 MSTORE PUSH1 0x20 ADD PUSH0 KECCAK256 DUP1 SLOAD DUP1 PUSH1 0x20 MUL PUSH1 0x20 ADD PUSH1 0x40 MLOAD SWAP1 DUP2 ADD PUSH1 0x40 MSTORE DUP1 SWAP3 SWAP2 SWAP1 DUP2 DUP2 MSTORE PUSH1 0x20 ADD PUSH0 SWAP1 JUMPDEST DUP3 DUP3 LT ISZERO PUSH2 0xFF7 JUMPI DUP4 DUP3 SWAP1 PUSH0 MSTORE PUSH1 0x20 PUSH0 KECCAK256 SWAP1 PUSH1 0x2 MUL ADD PUSH1 0x40 MLOAD DUP1 PUSH1 0x40 ADD PUSH1 0x40 MSTORE SWAP1 DUP2 PUSH0 DUP3 ADD DUP1 SLOAD PUSH2 0xF13 SWAP1 PUSH2 0x48ED JUMP JUMPDEST DUP1 PUSH1 0x1F ADD PUSH1 0x20 DUP1 SWAP2 DIV MUL PUSH1 0x20 ADD PUSH1 0x40 MLOAD SWAP1 DUP2 ADD PUSH1 0x40 MSTORE DUP1 SWAP3 SWAP2 SWAP1 DUP2 DUP2 MSTORE PUSH1 0x20 ADD DUP3 DUP1 SLOAD PUSH2 0xF3F SWAP1 PUSH2 0x48ED JUMP JUMPDEST DUP1 ISZERO PUSH2 0xF8A JUMPI DUP1 PUSH1 0x1F LT PUSH2 0xF61 JUMPI PUSH2 0x100 DUP1 DUP4 SLOAD DIV MUL DUP4 MSTORE SWAP2 PUSH1 0x20 ADD SWAP2 PUSH2 0xF8A JUMP JUMPDEST DUP3 ADD SWAP2 SWAP1 PUSH0 MSTORE PUSH1 0x20 PUSH0 KECCAK256 SWAP1 JUMPDEST DUP2 SLOAD DUP2 MSTORE SWAP1 PUSH1 0x1 ADD SWAP1 PUSH1 0x20 ADD DUP1 DUP4 GT PUSH2 0xF6D JUMPI DUP3 SWAP1 SUB PUSH1 0x1F AND DUP3 ADD SWAP2 JUMPDEST POP POP POP POP POP DUP2 MSTORE PUSH1 0x20 ADD PUSH1 0x1 DUP3 ADD PUSH0 SWAP1 SLOAD SWAP1 PUSH2 0x100 EXP SWAP1 DIV PUSH20 0xFFFFFFFFFFFFFFFFFFFFFFFFFFFFFFFFFFFFFFFF AND PUSH20 0xFFFFFFFFFFFFFFFFFFFFFFFFFFFFFFFFFFFFFFFF AND PUSH20 0xFFFFFFFFFFFFFFFFFFFFFFFFFFFFFFFFFFFFFFFF AND DUP2 MSTORE POP POP DUP2 MSTORE PUSH1 0x20 ADD SWAP1 PUSH1 0x1 ADD SWAP1 PUSH2 0xEE3 JUMP JUMPDEST POP POP POP POP SWAP3 POP POP POP SWAP3 SWAP2 POP POP JUMP JUMPDEST PUSH2 0x1019 PUSH8 0xA3165B9B1138A63F PUSH1 0xC0 SHL PUSH2 0x3C96 JUMP JUMPDEST DUP1 PUSH2 0x102E PUSH8 0x79E20414899381EA PUSH1 0xC0 SHL PUSH2 0x3C96 JUMP JUMPDEST PUSH2 0x1042 PUSH8 0xF7D3AA3DB6073963 PUSH1 0xC0 SHL PUSH2 0x3C96 JUMP JUMPDEST PUSH2 0x1056 PUSH8 0xAD44291B7EE41AFC PUSH1 0xC0 SHL PUSH2 0x3C96 JUMP JUMPDEST PUSH2 0x106A PUSH8 0x939045F94A99D343 PUSH1 0xC0 SHL PUSH2 0x3C96 JUMP JUMPDEST PUSH1 0x4 DUP1 SLOAD SWAP1 POP DUP2 LT PUSH2 0x10B1 JUMPI PUSH1 0x40 MLOAD PUSH32 0x8C379A000000000000000000000000000000000000000000000000000000000 DUP2 MSTORE PUSH1 0x4 ADD PUSH2 0x10A8 SWAP1 PUSH2 0x487B JUMP JUMPDEST PUSH1 0x40 MLOAD DUP1 SWAP2 SUB SWAP1 REVERT JUMPDEST PUSH2 0x10C5 PUSH8 0x4E0E7E368A911A7E PUSH1 0xC0 SHL PUSH2 0x3C96 JUMP JUMPDEST PUSH2 0x10D9 PUSH8 0x1BA29D8EED77B1E0 PUSH1 0xC0 SHL PUSH2 0x3C96 JUMP JUMPDEST PUSH2 0x10ED PUSH8 0xAAC32E4EB96FC661 PUSH1 0xC0 SHL PUSH2 0x3C96 JUMP JUMPDEST PUSH2 0x1101 PUSH8 0xBFDCF73043F6D742 PUSH1 0xC0 SHL PUSH2 0x3C96 JUMP JUMPDEST PUSH2 0x1115 PUSH8 0xC50ED91854F8DEEC PUSH1 0xC0 SHL PUSH2 0x3C96 JUMP JUMPDEST PUSH2 0x1129 PUSH8 0x684490F89ACB9851 PUSH1 0xC0 SHL PUSH2 0x3C96 JUMP JUMPDEST PUSH2 0x113D PUSH8 0x51BA4EC3D4B1F7DD PUSH1 0xC0 SHL PUSH2 0x3C96 JUMP JUMPDEST PUSH1 0x5 PUSH0 DUP4 DUP2 MSTORE PUSH1 0x20 ADD SWAP1 DUP2 MSTORE PUSH1 0x20 ADD PUSH0 KECCAK256 PUSH0 CALLER PUSH20 0xFFFFFFFFFFFFFFFFFFFFFFFFFFFFFFFFFFFFFFFF AND PUSH20 0xFFFFFFFFFFFFFFFFFFFFFFFFFFFFFFFFFFFFFFFF AND DUP2 MSTORE PUSH1 0x20 ADD SWAP1 DUP2 MSTORE PUSH1 0x20 ADD PUSH0 KECCAK256 PUSH0 SWAP1 SLOAD SWAP1 PUSH2 0x100 EXP SWAP1 DIV PUSH1 0xFF AND ISZERO PUSH2 0x11D6 JUMPI PUSH1 0x40 MLOAD PUSH32 0x8C379A000000000000000000000000000000000000000000000000000000000 DUP2 MSTORE PUSH1 0x4 ADD PUSH2 0x11CD SWAP1 PUSH2 0x4813 JUMP JUMPDEST PUSH1 0x40 MLOAD DUP1 SWAP2 SUB SWAP1 REVERT JUMPDEST PUSH2 0x11EA PUSH8 0x7A1217EF1DB4F1E1 PUSH1 0xC0 SHL PUSH2 0x3C96 JUMP JUMPDEST PUSH2 0x11FE PUSH8 0xF6DD22801D5F4ECD PUSH1 0xC0 SHL PUSH2 0x3C96 JUMP JUMPDEST PUSH2 0x1212 PUSH8 0x447B4200E47A1A91 PUSH1 0xC0 SHL PUSH2 0x3C96 JUMP JUMPDEST PUSH0 PUSH1 0x4 DUP4 DUP2 SLOAD DUP2 LT PUSH2 0x1227 JUMPI PUSH2 0x1226 PUSH2 0x491D JUMP JUMPDEST JUMPDEST SWAP1 PUSH0 MSTORE PUSH1 0x20 PUSH0 KECCAK256 SWAP1 PUSH1 0x5 MUL ADD PUSH1 0x40 MLOAD DUP1 PUSH1 0xE0 ADD PUSH1 0x40 MSTORE SWAP1 DUP2 PUSH0 DUP3 ADD SLOAD DUP2 MSTORE PUSH1 0x20 ADD PUSH1 0x1 DUP3 ADD DUP1 SLOAD PUSH2 0x1257 SWAP1 PUSH2 0x48ED JUMP JUMPDEST DUP1 PUSH1 0x1F ADD PUSH1 0x20 DUP1 SWAP2 DIV MUL PUSH1 0x20 ADD PUSH1 0x40 MLOAD SWAP1 DUP2 ADD PUSH1 0x40 MSTORE DUP1 SWAP3 SWAP2 SWAP1 DUP2 DUP2 MSTORE PUSH1 0x20 ADD DUP3 DUP1 SLOAD PUSH2 0x1283 SWAP1 PUSH2 0x48ED JUMP JUMPDEST DUP1 ISZERO PUSH2 0x12CE JUMPI DUP1 PUSH1 0x1F LT PUSH2 0x12A5 JUMPI PUSH2 0x100 DUP1 DUP4 SLOAD DIV MUL DUP4 MSTORE SWAP2 PUSH1 0x20 ADD SWAP2 PUSH2 0x12CE JUMP JUMPDEST DUP3 ADD SWAP2 SWAP1 PUSH0 MSTORE PUSH1 0x20 PUSH0 KECCAK256 SWAP1 JUMPDEST DUP2 SLOAD DUP2 MSTORE SWAP1 PUSH1 0x1 ADD SWAP1 PUSH1 0x20 ADD DUP1 DUP4 GT PUSH2 0x12B1 JUMPI DUP3 SWAP1 SUB PUSH1 0x1F AND DUP3 ADD SWAP2 JUMPDEST POP POP POP POP POP DUP2 MSTORE PUSH1 0x20 ADD PUSH1 0x2 DUP3 ADD SLOAD DUP2 MSTORE PUSH1 0x20 ADD PUSH1 0x3 DUP3 ADD PUSH0 SWAP1 SLOAD SWAP1 PUSH2 0x100 EXP SWAP1 DIV PUSH1 0xFF AND PUSH1 0x5 DUP2 GT ISZERO PUSH2 0x1305 JUMPI PUSH2 0x1304 PUSH2 0x416A JUMP JUMPDEST JUMPDEST PUSH1 0x5 DUP2 GT ISZERO PUSH2 0x1317 JUMPI PUSH2 0x1316 PUSH2 0x416A JUMP JUMPDEST JUMPDEST DUP2 MSTORE PUSH1 0x20 ADD PUSH1 0x3 DUP3 ADD PUSH1 0x1 SWAP1 SLOAD SWAP1 PUSH2 0x100 EXP SWAP1 DIV PUSH1 0xFF AND PUSH1 0xFF AND PUSH1 0xFF AND DUP2 MSTORE PUSH1 0x20 ADD PUSH1 0x3 DUP3 ADD PUSH1 0x2 SWAP1 SLOAD SWAP1 PUSH2 0x100 EXP SWAP1 DIV PUSH20 0xFFFFFFFFFFFFFFFFFFFFFFFFFFFFFFFFFFFFFFFF AND PUSH20 0xFFFFFFFFFFFFFFFFFFFFFFFFFFFFFFFFFFFFFFFF AND PUSH20 0xFFFFFFFFFFFFFFFFFFFFFFFFFFFFFFFFFFFFFFFF AND DUP2 MSTORE PUSH1 0x20 ADD PUSH1 0x4 DUP3 ADD PUSH0 SWAP1 SLOAD SWAP1 PUSH2 0x100 EXP SWAP1 DIV PUSH20 0xFFFFFFFFFFFFFFFFFFFFFFFFFFFFFFFFFFFFFFFF AND PUSH20 0xFFFFFFFFFFFFFFFFFFFFFFFFFFFFFFFFFFFFFFFF AND PUSH20 0xFFFFFFFFFFFFFFFFFFFFFFFFFFFFFFFFFFFFFFFF AND DUP2 MSTORE POP POP SWAP1 POP PUSH2 0x13F9 PUSH8 0x2D61D169BCAFE39C PUSH1 0xC0 SHL PUSH2 0x3C96 JUMP JUMPDEST PUSH2 0x140D PUSH8 0x85BC71CFD31B46C9 PUSH1 0xC0 SHL PUSH2 0x3C96 JUMP JUMPDEST TIMESTAMP DUP2 PUSH1 0x40 ADD MLOAD LT ISZERO PUSH2 0x1473 JUMPI PUSH2 0x142D PUSH8 0x486345D3023E19F PUSH1 0xC0 SHL PUSH2 0x3C96 JUMP JUMPDEST PUSH2 0x1441 PUSH8 0xAC3CC86E68102955 PUSH1 0xC0 SHL PUSH2 0x3C96 JUMP JUMPDEST PUSH1 0x40 MLOAD PUSH32 0x2EE88F5000000000000000000000000000000000000000000000000000000000 DUP2 MSTORE PUSH1 0x4 ADD PUSH1 0x40 MLOAD DUP1 SWAP2 SUB SWAP1 REVERT JUMPDEST PUSH2 0x1487 PUSH8 0x4AA7E7CC66EB3FEB PUSH1 0xC0 SHL PUSH2 0x3C96 JUMP JUMPDEST PUSH2 0x149B PUSH8 0xF0355A9F768F4E8C PUSH1 0xC0 SHL PUSH2 0x3C96 JUMP JUMPDEST PUSH2 0x14AF PUSH8 0xE833409F02600349 PUSH1 0xC0 SHL PUSH2 0x3C96 JUMP JUMPDEST PUSH0 DUP2 PUSH1 0x80 ADD MLOAD PUSH1 0xFF AND SUB PUSH2 0x1517 JUMPI PUSH2 0x14D1 PUSH8 0x1523B4BCEE435C6A PUSH1 0xC0 SHL PUSH2 0x3C96 JUMP JUMPDEST PUSH2 0x14E5 PUSH8 0x12C546456EB484EA PUSH1 0xC0 SHL PUSH2 0x3C96 JUMP JUMPDEST PUSH1 0x40 MLOAD PUSH32 0x106E2AFE00000000000000000000000000000000000000000000000000000000 DUP2 MSTORE PUSH1 0x4 ADD PUSH1 0x40 MLOAD DUP1 SWAP2 SUB SWAP1 REVERT JUMPDEST PUSH2 0x152B PUSH8 0x3F42C0500B59EEE3 PUSH1 0xC0 SHL PUSH2 0x3C96 JUMP JUMPDEST PUSH2 0x153F PUSH8 0x1DD53C71F6F53ACA PUSH1 0xC0 SHL PUSH2 0x3C96 JUMP JUMPDEST PUSH1 0x1 PUSH1 0x5 PUSH0 DUP6 DUP2 MSTORE PUSH1 0x20 ADD SWAP1 DUP2 MSTORE PUSH1 0x20 ADD PUSH0 KECCAK256 PUSH0 CALLER PUSH20 0xFFFFFFFFFFFFFFFFFFFFFFFFFFFFFFFFFFFFFFFF AND PUSH20 0xFFFFFFFFFFFFFFFFFFFFFFFFFFFFFFFFFFFFFFFF AND DUP2 MSTORE PUSH1 0x20 ADD SWAP1 DUP2 MSTORE PUSH1 0x20 ADD PUSH0 KECCAK256 PUSH0 PUSH2 0x100 EXP DUP2 SLOAD DUP2 PUSH1 0xFF MUL NOT AND SWAP1 DUP4 ISZERO ISZERO MUL OR SWAP1 SSTORE POP PUSH2 0x15B7 PUSH8 0xAD4978357A54ADD1 PUSH1 0xC0 SHL PUSH2 0x3C96 JUMP JUMPDEST PUSH2 0x15CB PUSH8 0x4A20E84793B99DED PUSH1 0xC0 SHL PUSH2 0x3C96 JUMP JUMPDEST PUSH1 0x6 PUSH0 CALLER PUSH20 0xFFFFFFFFFFFFFFFFFFFFFFFFFFFFFFFFFFFFFFFF AND PUSH20 0xFFFFFFFFFFFFFFFFFFFFFFFFFFFFFFFFFFFFFFFF AND DUP2 MSTORE PUSH1 0x20 ADD SWAP1 DUP2 MSTORE PUSH1 0x20 ADD PUSH0 KECCAK256 DUP4 SWAP1 DUP1 PUSH1 0x1 DUP2 SLOAD ADD DUP1 DUP3 SSTORE DUP1 SWAP2 POP POP PUSH1 0x1 SWAP1 SUB SWAP1 PUSH0 MSTORE PUSH1 0x20 PUSH0 KECCAK256 ADD PUSH0 SWAP1 SWAP2 SWAP1 SWAP2 SWAP1 SWAP2 POP SSTORE PUSH2 0x1640 PUSH8 0x63CDB287D0605EDA PUSH1 0xC0 SHL PUSH2 0x3C96 JUMP JUMPDEST DUP1 PUSH1 0x80 ADD DUP1 MLOAD PUSH2 0x164F SWAP1 PUSH2 0x4977 JUMP JUMPDEST PUSH1 0xFF AND SWAP1 DUP2 PUSH1 0xFF AND DUP2 MSTORE POP POP PUSH2 0x166F PUSH8 0xE1AA6B2DAAEBD6AD PUSH1 0xC0 SHL PUSH2 0x3C96 JUMP JUMPDEST DUP1 PUSH1 0x80 ADD MLOAD PUSH1 0x4 DUP5 DUP2 SLOAD DUP2 LT PUSH2 0x1688 JUMPI PUSH2 0x1687 PUSH2 0x491D JUMP JUMPDEST JUMPDEST SWAP1 PUSH0 MSTORE PUSH1 0x20 PUSH0 KECCAK256 SWAP1 PUSH1 0x5 MUL ADD PUSH1 0x3 ADD PUSH1 0x1 PUSH2 0x100 EXP DUP2 SLOAD DUP2 PUSH1 0xFF MUL NOT AND SWAP1 DUP4 PUSH1 0xFF AND MUL OR SWAP1 SSTORE POP POP POP POP JUMP JUMPDEST PUSH2 0x16C8 PUSH8 0x918ECF25F8150C21 PUSH1 0xC0 SHL PUSH2 0x3C96 JUMP JUMPDEST DUP3 PUSH2 0x16DD PUSH8 0x79E20414899381EA PUSH1 0xC0 SHL PUSH2 0x3C96 JUMP JUMPDEST PUSH2 0x16F1 PUSH8 0xF7D3AA3DB6073963 PUSH1 0xC0 SHL PUSH2 0x3C96 JUMP JUMPDEST PUSH2 0x1705 PUSH8 0xAD44291B7EE41AFC PUSH1 0xC0 SHL PUSH2 0x3C96 JUMP JUMPDEST PUSH2 0x1719 PUSH8 0x939045F94A99D343 PUSH1 0xC0 SHL PUSH2 0x3C96 JUMP JUMPDEST PUSH1 0x4 DUP1 SLOAD SWAP1 POP DUP2 LT PUSH2 0x1760 JUMPI PUSH1 0x40 MLOAD PUSH32 0x8C379A000000000000000000000000000000000000000000000000000000000 DUP2 MSTORE PUSH1 0x4 ADD PUSH2 0x1757 SWAP1 PUSH2 0x487B JUMP JUMPDEST PUSH1 0x40 MLOAD DUP1 SWAP2 SUB SWAP1 REVERT JUMPDEST PUSH2 0x1774 PUSH8 0x4E0E7E368A911A7E PUSH1 0xC0 SHL PUSH2 0x3C96 JUMP JUMPDEST PUSH2 0x1788 PUSH8 0x1BA29D8EED77B1E0 PUSH1 0xC0 SHL PUSH2 0x3C96 JUMP JUMPDEST PUSH2 0x179C PUSH8 0xAE14E28B0A0872BF PUSH1 0xC0 SHL PUSH2 0x3C96 JUMP JUMPDEST PUSH2 0x17B0 PUSH8 0x6E986C4F5457B9E7 PUSH1 0xC0 SHL PUSH2 0x3C96 JUMP JUMPDEST DUP4 CALLER PUSH2 0x17C6 PUSH8 0x35550CFCC723E96E PUSH1 0xC0 SHL PUSH2 0x3C96 JUMP JUMPDEST PUSH2 0x17DA PUSH8 0x50DBB595625C392 PUSH1 0xC0 SHL PUSH2 0x3C96 JUMP JUMPDEST PUSH2 0x17EE PUSH8 0xA9FC9A1AA2FE3B4C PUSH1 0xC0 SHL PUSH2 0x3C96 JUMP JUMPDEST PUSH2 0x1802 PUSH8 0x92CFB29AD869F4D6 PUSH1 0xC0 SHL PUSH2 0x3C96 JUMP JUMPDEST DUP1 PUSH20 0xFFFFFFFFFFFFFFFFFFFFFFFFFFFFFFFFFFFFFFFF AND PUSH1 0x2 PUSH0 DUP5 DUP2 MSTORE PUSH1 0x20 ADD SWAP1 DUP2 MSTORE PUSH1 0x20 ADD PUSH0 KECCAK256 PUSH0 SWAP1 SLOAD SWAP1 PUSH2 0x100 EXP SWAP1 DIV PUSH20 0xFFFFFFFFFFFFFFFFFFFFFFFFFFFFFFFFFFFFFFFF AND PUSH20 0xFFFFFFFFFFFFFFFFFFFFFFFFFFFFFFFFFFFFFFFF AND EQ PUSH2 0x18A0 JUMPI PUSH1 0x40 MLOAD PUSH32 0x8C379A000000000000000000000000000000000000000000000000000000000 DUP2 MSTORE PUSH1 0x4 ADD PUSH2 0x1897 SWAP1 PUSH2 0x49E8 JUMP JUMPDEST PUSH1 0x40 MLOAD DUP1 SWAP2 SUB SWAP1 REVERT JUMPDEST PUSH2 0x18B4 PUSH8 0x7BA2005878455EDF PUSH1 0xC0 SHL PUSH2 0x3C96 JUMP JUMPDEST PUSH2 0x18C8 PUSH8 0x80EE4D136C13E15A PUSH1 0xC0 SHL PUSH2 0x3C96 JUMP JUMPDEST PUSH2 0x18DC PUSH8 0xCC400B1DA246936E PUSH1 0xC0 SHL PUSH2 0x3C96 JUMP JUMPDEST PUSH2 0x18F0 PUSH8 0x6C3FBC887A8D00F1 PUSH1 0xC0 SHL PUSH2 0x3C96 JUMP JUMPDEST DUP5 PUSH2 0x1905 PUSH8 0xB11F4080883007BA PUSH1 0xC0 SHL PUSH2 0x3C96 JUMP JUMPDEST PUSH2 0x1919 PUSH8 0xE80104790E0E51C0 PUSH1 0xC0 SHL PUSH2 0x3C96 JUMP JUMPDEST PUSH2 0x192D PUSH8 0x1A6FFF257A44D796 PUSH1 0xC0 SHL PUSH2 0x3C96 JUMP JUMPDEST PUSH2 0x1941 PUSH8 0x31B9F9A63A68E10A PUSH1 0xC0 SHL PUSH2 0x3C96 JUMP JUMPDEST PUSH0 PUSH20 0xFFFFFFFFFFFFFFFFFFFFFFFFFFFFFFFFFFFFFFFF AND DUP2 PUSH20 0xFFFFFFFFFFFFFFFFFFFFFFFFFFFFFFFFFFFFFFFF AND SUB PUSH2 0x19AF JUMPI PUSH1 0x40 MLOAD PUSH32 0x8C379A000000000000000000000000000000000000000000000000000000000 DUP2 MSTORE PUSH1 0x4 ADD PUSH2 0x19A6 SWAP1 PUSH2 0x47AB JUMP JUMPDEST PUSH1 0x40 MLOAD DUP1 SWAP2 SUB SWAP1 REVERT JUMPDEST PUSH2 0x19C3 PUSH8 0xC5A4257B9CD48C58 PUSH1 0xC0 SHL PUSH2 0x3C96 JUMP JUMPDEST PUSH2 0x19D7 PUSH8 0xB2E3ACB21715BBE PUSH1 0xC0 SHL PUSH2 0x3C96 JUMP JUMPDEST PUSH2 0x19EB PUSH8 0x1DE38AE14BC978B9 PUSH1 0xC0 SHL PUSH2 0x3C96 JUMP JUMPDEST PUSH2 0x19FF PUSH8 0x5C00CB50DB176B59 PUSH1 0xC0 SHL PUSH2 0x3C96 JUMP JUMPDEST DUP5 PUSH2 0x1A14 PUSH8 0xB11F4080883007BA PUSH1 0xC0 SHL PUSH2 0x3C96 JUMP JUMPDEST PUSH2 0x1A28 PUSH8 0xE80104790E0E51C0 PUSH1 0xC0 SHL PUSH2 0x3C96 JUMP JUMPDEST PUSH2 0x1A3C PUSH8 0x1A6FFF257A44D796 PUSH1 0xC0 SHL PUSH2 0x3C96 JUMP JUMPDEST PUSH2 0x1A50 PUSH8 0x31B9F9A63A68E10A PUSH1 0xC0 SHL PUSH2 0x3C96 JUMP JUMPDEST PUSH0 PUSH20 0xFFFFFFFFFFFFFFFFFFFFFFFFFFFFFFFFFFFFFFFF AND DUP2 PUSH20 0xFFFFFFFFFFFFFFFFFFFFFFFFFFFFFFFFFFFFFFFF AND SUB PUSH2 0x1ABE JUMPI PUSH1 0x40 MLOAD PUSH32 0x8C379A000000000000000000000000000000000000000000000000000000000 DUP2 MSTORE PUSH1 0x4 ADD PUSH2 0x1AB5 SWAP1 PUSH2 0x47AB JUMP JUMPDEST PUSH1 0x40 MLOAD DUP1 SWAP2 SUB SWAP1 REVERT JUMPDEST PUSH2 0x1AD2 PUSH8 0xC5A4257B9CD48C58 PUSH1 0xC0 SHL PUSH2 0x3C96 JUMP JUMPDEST PUSH2 0x1AE6 PUSH8 0xB2E3ACB21715BBE PUSH1 0xC0 SHL PUSH2 0x3C96 JUMP JUMPDEST PUSH2 0x1AFA PUSH8 0x430C000BC6B7AD3C PUSH1 0xC0 SHL PUSH2 0x3C96 JUMP JUMPDEST PUSH2 0x1B0E PUSH8 0xE0CE92BBC1EB5AA9 PUSH1 0xC0 SHL PUSH2 0x3C96 JUMP JUMPDEST PUSH2 0x1B22 PUSH8 0xFB45952B07F83174 PUSH1 0xC0 SHL PUSH2 0x3C96 JUMP JUMPDEST PUSH2 0x1B36 PUSH8 0xDD13A8F4DDA0165F PUSH1 0xC0 SHL PUSH2 0x3C96 JUMP JUMPDEST PUSH2 0x1B4A PUSH8 0x6DED64F561183145 PUSH1 0xC0 SHL PUSH2 0x3C96 JUMP JUMPDEST DUP6 PUSH20 0xFFFFFFFFFFFFFFFFFFFFFFFFFFFFFFFFFFFFFFFF AND DUP8 PUSH20 0xFFFFFFFFFFFFFFFFFFFFFFFFFFFFFFFFFFFFFFFF AND SUB PUSH2 0x1BB8 JUMPI PUSH1 0x40 MLOAD PUSH32 0x8C379A000000000000000000000000000000000000000000000000000000000 DUP2 MSTORE PUSH1 0x4 ADD PUSH2 0x1BAF SWAP1 PUSH2 0x4A50 JUMP JUMPDEST PUSH1 0x40 MLOAD DUP1 SWAP2 SUB SWAP1 REVERT JUMPDEST PUSH2 0x1BCC PUSH8 0xCE8D6D047F6C4995 PUSH1 0xC0 SHL PUSH2 0x3C96 JUMP JUMPDEST PUSH2 0x1BE0 PUSH8 0x80337767F3A8C51 PUSH1 0xC0 SHL PUSH2 0x3C96 JUMP JUMPDEST PUSH2 0x1BF4 PUSH8 0xE5513536F79C6003 PUSH1 0xC0 SHL PUSH2 0x3C96 JUMP JUMPDEST PUSH2 0x1C08 PUSH8 0x23B7F49C13D15536 PUSH1 0xC0 SHL PUSH2 0x3C96 JUMP JUMPDEST PUSH1 0x5 PUSH0 DUP10 DUP2 MSTORE PUSH1 0x20 ADD SWAP1 DUP2 MSTORE PUSH1 0x20 ADD PUSH0 KECCAK256 PUSH0 DUP9 PUSH20 0xFFFFFFFFFFFFFFFFFFFFFFFFFFFFFFFFFFFFFFFF AND PUSH20 0xFFFFFFFFFFFFFFFFFFFFFFFFFFFFFFFFFFFFFFFF AND DUP2 MSTORE PUSH1 0x20 ADD SWAP1 DUP2 MSTORE PUSH1 0x20 ADD PUSH0 KECCAK256 PUSH0 SWAP1 SLOAD SWAP1 PUSH2 0x100 EXP SWAP1 DIV PUSH1 0xFF AND DUP1 ISZERO PUSH2 0x1CC2 JUMPI POP PUSH1 0x5 PUSH0 DUP10 DUP2 MSTORE PUSH1 0x20 ADD SWAP1 DUP2 MSTORE PUSH1 0x20 ADD PUSH0 KECCAK256 PUSH0 DUP8 PUSH20 0xFFFFFFFFFFFFFFFFFFFFFFFFFFFFFFFFFFFFFFFF AND PUSH20 0xFFFFFFFFFFFFFFFFFFFFFFFFFFFFFFFFFFFFFFFF AND DUP2 MSTORE PUSH1 0x20 ADD SWAP1 DUP2 MSTORE PUSH1 0x20 ADD PUSH0 KECCAK256 PUSH0 SWAP1 SLOAD SWAP1 PUSH2 0x100 EXP SWAP1 DIV PUSH1 0xFF AND JUMPDEST PUSH2 0x1D01 JUMPI PUSH1 0x40 MLOAD PUSH32 0x8C379A000000000000000000000000000000000000000000000000000000000 DUP2 MSTORE PUSH1 0x4 ADD PUSH2 0x1CF8 SWAP1 PUSH2 0x4AB8 JUMP JUMPDEST PUSH1 0x40 MLOAD DUP1 SWAP2 SUB SWAP1 REVERT JUMPDEST PUSH2 0x1D15 PUSH8 0xF5009432778E762E PUSH1 0xC0 SHL PUSH2 0x3C96 JUMP JUMPDEST PUSH2 0x1D29 PUSH8 0xDFCBC83D97CC07E6 PUSH1 0xC0 SHL PUSH2 0x3C96 JUMP JUMPDEST DUP7 PUSH1 0x4 DUP10 DUP2 SLOAD DUP2 LT PUSH2 0x1D3E JUMPI PUSH2 0x1D3D PUSH2 0x491D JUMP JUMPDEST JUMPDEST SWAP1 PUSH0 MSTORE PUSH1 0x20 PUSH0 KECCAK256 SWAP1 PUSH1 0x5 MUL ADD PUSH1 0x3 ADD PUSH1 0x2 PUSH2 0x100 EXP DUP2 SLOAD DUP2 PUSH20 0xFFFFFFFFFFFFFFFFFFFFFFFFFFFFFFFFFFFFFFFF MUL NOT AND SWAP1 DUP4 PUSH20 0xFFFFFFFFFFFFFFFFFFFFFFFFFFFFFFFFFFFFFFFF AND MUL OR SWAP1 SSTORE POP PUSH2 0x1D9F PUSH8 0xE162619D25464DDE PUSH1 0xC0 SHL PUSH2 0x3C96 JUMP JUMPDEST DUP6 PUSH1 0x4 DUP10 DUP2 SLOAD DUP2 LT PUSH2 0x1DB4 JUMPI PUSH2 0x1DB3 PUSH2 0x491D JUMP JUMPDEST JUMPDEST SWAP1 PUSH0 MSTORE PUSH1 0x20 PUSH0 KECCAK256 SWAP1 PUSH1 0x5 MUL ADD PUSH1 0x4 ADD PUSH0 PUSH2 0x100 EXP DUP2 SLOAD DUP2 PUSH20 0xFFFFFFFFFFFFFFFFFFFFFFFFFFFFFFFFFFFFFFFF MUL NOT AND SWAP1 DUP4 PUSH20 0xFFFFFFFFFFFFFFFFFFFFFFFFFFFFFFFFFFFFFFFF AND MUL OR SWAP1 SSTORE POP POP POP POP POP POP POP POP POP JUMP JUMPDEST PUSH0 DUP1 PUSH0 SWAP1 SLOAD SWAP1 PUSH2 0x100 EXP SWAP1 DIV PUSH20 0xFFFFFFFFFFFFFFFFFFFFFFFFFFFFFFFFFFFFFFFF AND SWAP1 POP SWAP1 JUMP JUMPDEST PUSH2 0x1E45 PUSH8 0x51C8FFA22636EEBA PUSH1 0xC0 SHL PUSH2 0x3C96 JUMP JUMPDEST DUP4 PUSH2 0x1E5A PUSH8 0x79E20414899381EA PUSH1 0xC0 SHL PUSH2 0x3C96 JUMP JUMPDEST PUSH2 0x1E6E PUSH8 0xF7D3AA3DB6073963 PUSH1 0xC0 SHL PUSH2 0x3C96 JUMP JUMPDEST PUSH2 0x1E82 PUSH8 0xAD44291B7EE41AFC PUSH1 0xC0 SHL PUSH2 0x3C96 JUMP JUMPDEST PUSH2 0x1E96 PUSH8 0x939045F94A99D343 PUSH1 0xC0 SHL PUSH2 0x3C96 JUMP JUMPDEST PUSH1 0x4 DUP1 SLOAD SWAP1 POP DUP2 LT PUSH2 0x1EDD JUMPI PUSH1 0x40 MLOAD PUSH32 0x8C379A000000000000000000000000000000000000000000000000000000000 DUP2 MSTORE PUSH1 0x4 ADD PUSH2 0x1ED4 SWAP1 PUSH2 0x487B JUMP JUMPDEST PUSH1 0x40 MLOAD DUP1 SWAP2 SUB SWAP1 REVERT JUMPDEST PUSH2 0x1EF1 PUSH8 0x4E0E7E368A911A7E PUSH1 0xC0 SHL PUSH2 0x3C96 JUMP JUMPDEST PUSH2 0x1F05 PUSH8 0x1BA29D8EED77B1E0 PUSH1 0xC0 SHL PUSH2 0x3C96 JUMP JUMPDEST PUSH2 0x1F19 PUSH8 0x69FB2C39AFE1A837 PUSH1 0xC0 SHL PUSH2 0x3C96 JUMP JUMPDEST PUSH2 0x1F2D PUSH8 0x1690AC6932BF679F PUSH1 0xC0 SHL PUSH2 0x3C96 JUMP JUMPDEST DUP5 CALLER PUSH2 0x1F43 PUSH8 0x35550CFCC723E96E PUSH1 0xC0 SHL PUSH2 0x3C96 JUMP JUMPDEST PUSH2 0x1F57 PUSH8 0x50DBB595625C392 PUSH1 0xC0 SHL PUSH2 0x3C96 JUMP JUMPDEST PUSH2 0x1F6B PUSH8 0xA9FC9A1AA2FE3B4C PUSH1 0xC0 SHL PUSH2 0x3C96 JUMP JUMPDEST PUSH2 0x1F7F PUSH8 0x92CFB29AD869F4D6 PUSH1 0xC0 SHL PUSH2 0x3C96 JUMP JUMPDEST DUP1 PUSH20 0xFFFFFFFFFFFFFFFFFFFFFFFFFFFFFFFFFFFFFFFF AND PUSH1 0x2 PUSH0 DUP5 DUP2 MSTORE PUSH1 0x20 ADD SWAP1 DUP2 MSTORE PUSH1 0x20 ADD PUSH0 KECCAK256 PUSH0 SWAP1 SLOAD SWAP1 PUSH2 0x100 EXP SWAP1 DIV PUSH20 0xFFFFFFFFFFFFFFFFFFFFFFFFFFFFFFFFFFFFFFFF AND PUSH20 0xFFFFFFFFFFFFFFFFFFFFFFFFFFFFFFFFFFFFFFFF AND EQ PUSH2 0x201D JUMPI PUSH1 0x40 MLOAD PUSH32 0x8C379A000000000000000000000000000000000000000000000000000000000 DUP2 MSTORE PUSH1 0x4 ADD PUSH2 0x2014 SWAP1 PUSH2 0x49E8 JUMP JUMPDEST PUSH1 0x40 MLOAD DUP1 SWAP2 SUB SWAP1 REVERT JUMPDEST PUSH2 0x2031 PUSH8 0x7BA2005878455EDF PUSH1 0xC0 SHL PUSH2 0x3C96 JUMP JUMPDEST PUSH2 0x2045 PUSH8 0x80EE4D136C13E15A PUSH1 0xC0 SHL PUSH2 0x3C96 JUMP JUMPDEST PUSH2 0x2059 PUSH8 0x9AF29B37871D07D0 PUSH1 0xC0 SHL PUSH2 0x3C96 JUMP JUMPDEST PUSH2 0x206D PUSH8 0x634E6623EA6E22C5 PUSH1 0xC0 SHL PUSH2 0x3C96 JUMP JUMPDEST DUP6 PUSH2 0x2082 PUSH8 0xB11F4080883007BA PUSH1 0xC0 SHL PUSH2 0x3C96 JUMP JUMPDEST PUSH2 0x2096 PUSH8 0xE80104790E0E51C0 PUSH1 0xC0 SHL PUSH2 0x3C96 JUMP JUMPDEST PUSH2 0x20AA PUSH8 0x1A6FFF257A44D796 PUSH1 0xC0 SHL PUSH2 0x3C96 JUMP JUMPDEST PUSH2 0x20BE PUSH8 0x31B9F9A63A68E10A PUSH1 0xC0 SHL PUSH2 0x3C96 JUMP JUMPDEST PUSH0 PUSH20 0xFFFFFFFFFFFFFFFFFFFFFFFFFFFFFFFFFFFFFFFF AND DUP2 PUSH20 0xFFFFFFFFFFFFFFFFFFFFFFFFFFFFFFFFFFFFFFFF AND SUB PUSH2 0x212C JUMPI PUSH1 0x40 MLOAD PUSH32 0x8C379A000000000000000000000000000000000000000000000000000000000 DUP2 MSTORE PUSH1 0x4 ADD PUSH2 0x2123 SWAP1 PUSH2 0x47AB JUMP JUMPDEST PUSH1 0x40 MLOAD DUP1 SWAP2 SUB SWAP1 REVERT JUMPDEST PUSH2 0x2140 PUSH8 0xC5A4257B9CD48C58 PUSH1 0xC0 SHL PUSH2 0x3C96 JUMP JUMPDEST PUSH2 0x2154 PUSH8 0xB2E3ACB21715BBE PUSH1 0xC0 SHL PUSH2 0x3C96 JUMP JUMPDEST PUSH2 0x2168 PUSH8 0x7BD421AD28D89246 PUSH1 0xC0 SHL PUSH2 0x3C96 JUMP JUMPDEST PUSH2 0x217C PUSH8 0x852F2A71660DA327 PUSH1 0xC0 SHL PUSH2 0x3C96 JUMP JUMPDEST DUP6 DUP6 DUP1 DUP1 PUSH1 0x1F ADD PUSH1 0x20 DUP1 SWAP2 DIV MUL PUSH1 0x20 ADD PUSH1 0x40 MLOAD SWAP1 DUP2 ADD PUSH1 0x40 MSTORE DUP1 SWAP4 SWAP3 SWAP2 SWAP1 DUP2 DUP2 MSTORE PUSH1 0x20 ADD DUP4 DUP4 DUP1 DUP3 DUP5 CALLDATACOPY PUSH0 DUP2 DUP5 ADD MSTORE PUSH1 0x1F NOT PUSH1 0x1F DUP3 ADD AND SWAP1 POP DUP1 DUP4 ADD SWAP3 POP POP POP POP POP POP POP PUSH2 0x21D4 PUSH8 0xEA7D12F063FB7226 PUSH1 0xC0 SHL PUSH2 0x3C96 JUMP JUMPDEST PUSH2 0x21E8 PUSH8 0xE83F89C4F6E16EE5 PUSH1 0xC0 SHL PUSH2 0x3C96 JUMP JUMPDEST PUSH2 0x21FC PUSH8 0x24F5AAE4FE51B23 PUSH1 0xC0 SHL PUSH2 0x3C96 JUMP JUMPDEST PUSH2 0x2210 PUSH8 0x169DDC1D15D0261B PUSH1 0xC0 SHL PUSH2 0x3C96 JUMP JUMPDEST PUSH0 DUP2 MLOAD GT PUSH2 0x2253 JUMPI PUSH1 0x40 MLOAD PUSH32 0x8C379A000000000000000000000000000000000000000000000000000000000 DUP2 MSTORE PUSH1 0x4 ADD PUSH2 0x224A SWAP1 PUSH2 0x4B20 JUMP JUMPDEST PUSH1 0x40 MLOAD DUP1 SWAP2 SUB SWAP1 REVERT JUMPDEST PUSH2 0x2267 PUSH8 0x2E372E7BC3FA8BCA PUSH1 0xC0 SHL PUSH2 0x3C96 JUMP JUMPDEST PUSH2 0x227B PUSH8 0x534646307BDF4A81 PUSH1 0xC0 SHL PUSH2 0x3C96 JUMP JUMPDEST PUSH2 0x228F PUSH8 0xD0CA7A64EDBA9E93 PUSH1 0xC0 SHL PUSH2 0x3C96 JUMP JUMPDEST PUSH2 0x22A3 PUSH8 0xBE0AE2A9E00ADF7C PUSH1 0xC0 SHL PUSH2 0x3C96 JUMP JUMPDEST CALLER PUSH2 0x22B8 PUSH8 0xCAC778F577A97C12 PUSH1 0xC0 SHL PUSH2 0x3C96 JUMP JUMPDEST PUSH2 0x22CC PUSH8 0xF1D88E229385115D PUSH1 0xC0 SHL PUSH2 0x3C96 JUMP JUMPDEST PUSH2 0x22E0 PUSH8 0x86026ED335A0A6A5 PUSH1 0xC0 SHL PUSH2 0x3C96 JUMP JUMPDEST PUSH2 0x22F4 PUSH8 0xBC821AC6FFC9E297 PUSH1 0xC0 SHL PUSH2 0x3C96 JUMP JUMPDEST PUSH1 0x2 TIMESTAMP PUSH2 0x2301 SWAP2 SWAP1 PUSH2 0x4B3E JUMP JUMPDEST PUSH1 0xC PUSH0 CALLER PUSH20 0xFFFFFFFFFFFFFFFFFFFFFFFFFFFFFFFFFFFFFFFF AND PUSH20 0xFFFFFFFFFFFFFFFFFFFFFFFFFFFFFFFFFFFFFFFF AND DUP2 MSTORE PUSH1 0x20 ADD SWAP1 DUP2 MSTORE PUSH1 0x20 ADD PUSH0 KECCAK256 SLOAD LT PUSH2 0x237F JUMPI PUSH1 0x40 MLOAD PUSH32 0x8C379A000000000000000000000000000000000000000000000000000000000 DUP2 MSTORE PUSH1 0x4 ADD PUSH2 0x2376 SWAP1 PUSH2 0x4BBB JUMP JUMPDEST PUSH1 0x40 MLOAD DUP1 SWAP2 SUB SWAP1 REVERT JUMPDEST PUSH2 0x2393 PUSH8 0x16E1665DBD85D4A9 PUSH1 0xC0 SHL PUSH2 0x3C96 JUMP JUMPDEST PUSH2 0x23A7 PUSH8 0xB5656ABD29E474CA PUSH1 0xC0 SHL PUSH2 0x3C96 JUMP JUMPDEST PUSH2 0x23BB PUSH8 0x739A8E551F292EF2 PUSH1 0xC0 SHL PUSH2 0x3C96 JUMP JUMPDEST PUSH2 0x23CF PUSH8 0x8B35A3A7449E0140 PUSH1 0xC0 SHL PUSH2 0x3C96 JUMP JUMPDEST PUSH2 0x23E3 PUSH8 0x3C227404B28C8C33 PUSH1 0xC0 SHL PUSH2 0x3C96 JUMP JUMPDEST PUSH2 0x23F7 PUSH8 0x37FA2199C6AEAC7B PUSH1 0xC0 SHL PUSH2 0x3C96 JUMP JUMPDEST PUSH1 0xA PUSH0 DUP12 DUP2 MSTORE PUSH1 0x20 ADD SWAP1 DUP2 MSTORE PUSH1 0x20 ADD PUSH0 KECCAK256 PUSH0 DUP11 PUSH20 0xFFFFFFFFFFFFFFFFFFFFFFFFFFFFFFFFFFFFFFFF AND PUSH20 0xFFFFFFFFFFFFFFFFFFFFFFFFFFFFFFFFFFFFFFFF AND DUP2 MSTORE PUSH1 0x20 ADD SWAP1 DUP2 MSTORE PUSH1 0x20 ADD PUSH0 KECCAK256 PUSH1 0x40 MLOAD DUP1 PUSH1 0x40 ADD PUSH1 0x40 MSTORE DUP1 DUP11 DUP11 DUP1 DUP1 PUSH1 0x1F ADD PUSH1 0x20 DUP1 SWAP2 DIV MUL PUSH1 0x20 ADD PUSH1 0x40 MLOAD SWAP1 DUP2 ADD PUSH1 0x40 MSTORE DUP1 SWAP4 SWAP3 SWAP2 SWAP1 DUP2 DUP2 MSTORE PUSH1 0x20 ADD DUP4 DUP4 DUP1 DUP3 DUP5 CALLDATACOPY PUSH0 DUP2 DUP5 ADD MSTORE PUSH1 0x1F NOT PUSH1 0x1F DUP3 ADD AND SWAP1 POP DUP1 DUP4 ADD SWAP3 POP POP POP POP POP POP POP DUP2 MSTORE PUSH1 0x20 ADD CALLER PUSH20 0xFFFFFFFFFFFFFFFFFFFFFFFFFFFFFFFFFFFFFFFF AND DUP2 MSTORE POP SWAP1 DUP1 PUSH1 0x1 DUP2 SLOAD ADD DUP1 DUP3 SSTORE DUP1 SWAP2 POP POP PUSH1 0x1 SWAP1 SUB SWAP1 PUSH0 MSTORE PUSH1 0x20 PUSH0 KECCAK256 SWAP1 PUSH1 0x2 MUL ADD PUSH0 SWAP1 SWAP2 SWAP1 SWAP2 SWAP1 SWAP2 POP PUSH0 DUP3 ADD MLOAD DUP2 PUSH0 ADD SWAP1 DUP2 PUSH2 0x24EA SWAP2 SWAP1 PUSH2 0x4DA3 JUMP JUMPDEST POP PUSH1 0x20 DUP3 ADD MLOAD DUP2 PUSH1 0x1 ADD PUSH0 PUSH2 0x100 EXP DUP2 SLOAD DUP2 PUSH20 0xFFFFFFFFFFFFFFFFFFFFFFFFFFFFFFFFFFFFFFFF MUL NOT AND SWAP1 DUP4 PUSH20 0xFFFFFFFFFFFFFFFFFFFFFFFFFFFFFFFFFFFFFFFF AND MUL OR SWAP1 SSTORE POP POP POP PUSH2 0x2547 PUSH8 0x7FD927CD700B4874 PUSH1 0xC0 SHL PUSH2 0x3C96 JUMP JUMPDEST TIMESTAMP PUSH1 0xC PUSH0 CALLER PUSH20 0xFFFFFFFFFFFFFFFFFFFFFFFFFFFFFFFFFFFFFFFF AND PUSH20 0xFFFFFFFFFFFFFFFFFFFFFFFFFFFFFFFFFFFFFFFF AND DUP2 MSTORE PUSH1 0x20 ADD SWAP1 DUP2 MSTORE PUSH1 0x20 ADD PUSH0 KECCAK256 DUP2 SWAP1 SSTORE POP POP POP POP POP POP POP POP POP POP POP JUMP JUMPDEST PUSH1 0x5 PUSH1 0x20 MSTORE DUP2 PUSH0 MSTORE PUSH1 0x40 PUSH0 KECCAK256 PUSH1 0x20 MSTORE DUP1 PUSH0 MSTORE PUSH1 0x40 PUSH0 KECCAK256 PUSH0 SWAP2 POP SWAP2 POP SWAP1 SLOAD SWAP1 PUSH2 0x100 EXP SWAP1 DIV PUSH1 0xFF AND DUP2 JUMP JUMPDEST PUSH2 0x25D3 PUSH8 0xD021D6A639A30F21 PUSH1 0xC0 SHL PUSH2 0x3C96 JUMP JUMPDEST DUP3 PUSH2 0x25E8 PUSH8 0x79E20414899381EA PUSH1 0xC0 SHL PUSH2 0x3C96 JUMP JUMPDEST PUSH2 0x25FC PUSH8 0xF7D3AA3DB6073963 PUSH1 0xC0 SHL PUSH2 0x3C96 JUMP JUMPDEST PUSH2 0x2610 PUSH8 0xAD44291B7EE41AFC PUSH1 0xC0 SHL PUSH2 0x3C96 JUMP JUMPDEST PUSH2 0x2624 PUSH8 0x939045F94A99D343 PUSH1 0xC0 SHL PUSH2 0x3C96 JUMP JUMPDEST PUSH1 0x4 DUP1 SLOAD SWAP1 POP DUP2 LT PUSH2 0x266B JUMPI PUSH1 0x40 MLOAD PUSH32 0x8C379A000000000000000000000000000000000000000000000000000000000 DUP2 MSTORE PUSH1 0x4 ADD PUSH2 0x2662 SWAP1 PUSH2 0x487B JUMP JUMPDEST PUSH1 0x40 MLOAD DUP1 SWAP2 SUB SWAP1 REVERT JUMPDEST PUSH2 0x267F PUSH8 0x4E0E7E368A911A7E PUSH1 0xC0 SHL PUSH2 0x3C96 JUMP JUMPDEST PUSH2 0x2693 PUSH8 0x1BA29D8EED77B1E0 PUSH1 0xC0 SHL PUSH2 0x3C96 JUMP JUMPDEST PUSH2 0x26A7 PUSH8 0xEAFAA9263D8F4131 PUSH1 0xC0 SHL PUSH2 0x3C96 JUMP JUMPDEST PUSH2 0x26BB PUSH8 0x6D7CA9E2A71FDBBC PUSH1 0xC0 SHL PUSH2 0x3C96 JUMP JUMPDEST DUP3 DUP3 DUP1 DUP1 PUSH1 0x1F ADD PUSH1 0x20 DUP1 SWAP2 DIV MUL PUSH1 0x20 ADD PUSH1 0x40 MLOAD SWAP1 DUP2 ADD PUSH1 0x40 MSTORE DUP1 SWAP4 SWAP3 SWAP2 SWAP1 DUP2 DUP2 MSTORE PUSH1 0x20 ADD DUP4 DUP4 DUP1 DUP3 DUP5 CALLDATACOPY PUSH0 DUP2 DUP5 ADD MSTORE PUSH1 0x1F NOT PUSH1 0x1F DUP3 ADD AND SWAP1 POP DUP1 DUP4 ADD SWAP3 POP POP POP POP POP POP POP PUSH2 0x2713 PUSH8 0xEA7D12F063FB7226 PUSH1 0xC0 SHL PUSH2 0x3C96 JUMP JUMPDEST PUSH2 0x2727 PUSH8 0xE83F89C4F6E16EE5 PUSH1 0xC0 SHL PUSH2 0x3C96 JUMP JUMPDEST PUSH2 0x273B PUSH8 0x24F5AAE4FE51B23 PUSH1 0xC0 SHL PUSH2 0x3C96 JUMP JUMPDEST PUSH2 0x274F PUSH8 0x169DDC1D15D0261B PUSH1 0xC0 SHL PUSH2 0x3C96 JUMP JUMPDEST PUSH0 DUP2 MLOAD GT PUSH2 0x2792 JUMPI PUSH1 0x40 MLOAD PUSH32 0x8C379A000000000000000000000000000000000000000000000000000000000 DUP2 MSTORE PUSH1 0x4 ADD PUSH2 0x2789 SWAP1 PUSH2 0x4B20 JUMP JUMPDEST PUSH1 0x40 MLOAD DUP1 SWAP2 SUB SWAP1 REVERT JUMPDEST PUSH2 0x27A6 PUSH8 0x2E372E7BC3FA8BCA PUSH1 0xC0 SHL PUSH2 0x3C96 JUMP JUMPDEST PUSH2 0x27BA PUSH8 0x534646307BDF4A81 PUSH1 0xC0 SHL PUSH2 0x3C96 JUMP JUMPDEST PUSH2 0x27CE PUSH8 0xE1B9047DC9E665E2 PUSH1 0xC0 SHL PUSH2 0x3C96 JUMP JUMPDEST PUSH2 0x27E2 PUSH8 0x9E43AB48D087A674 PUSH1 0xC0 SHL PUSH2 0x3C96 JUMP JUMPDEST CALLER PUSH2 0x27F7 PUSH8 0xCAC778F577A97C12 PUSH1 0xC0 SHL PUSH2 0x3C96 JUMP JUMPDEST PUSH2 0x280B PUSH8 0xF1D88E229385115D PUSH1 0xC0 SHL PUSH2 0x3C96 JUMP JUMPDEST PUSH2 0x281F PUSH8 0x86026ED335A0A6A5 PUSH1 0xC0 SHL PUSH2 0x3C96 JUMP JUMPDEST PUSH2 0x2833 PUSH8 0xBC821AC6FFC9E297 PUSH1 0xC0 SHL PUSH2 0x3C96 JUMP JUMPDEST PUSH1 0x2 TIMESTAMP PUSH2 0x2840 SWAP2 SWAP1 PUSH2 0x4B3E JUMP JUMPDEST PUSH1 0xC PUSH0 CALLER PUSH20 0xFFFFFFFFFFFFFFFFFFFFFFFFFFFFFFFFFFFFFFFF AND PUSH20 0xFFFFFFFFFFFFFFFFFFFFFFFFFFFFFFFFFFFFFFFF AND DUP2 MSTORE PUSH1 0x20 ADD SWAP1 DUP2 MSTORE PUSH1 0x20 ADD PUSH0 KECCAK256 SLOAD LT PUSH2 0x28BE JUMPI PUSH1 0x40 MLOAD PUSH32 0x8C379A000000000000000000000000000000000000000000000000000000000 DUP2 MSTORE PUSH1 0x4 ADD PUSH2 0x28B5 SWAP1 PUSH2 0x4BBB JUMP JUMPDEST PUSH1 0x40 MLOAD DUP1 SWAP2 SUB SWAP1 REVERT JUMPDEST PUSH2 0x28D2 PUSH8 0x16E1665DBD85D4A9 PUSH1 0xC0 SHL PUSH2 0x3C96 JUMP JUMPDEST PUSH2 0x28E6 PUSH8 0xB5656ABD29E474CA PUSH1 0xC0 SHL PUSH2 0x3C96 JUMP JUMPDEST PUSH2 0x28FA PUSH8 0x1EFF5BF3F732E1E8 PUSH1 0xC0 SHL PUSH2 0x3C96 JUMP JUMPDEST PUSH2 0x290E PUSH8 0x4527E2FD8B904533 PUSH1 0xC0 SHL PUSH2 0x3C96 JUMP JUMPDEST PUSH2 0x2922 PUSH8 0x5BAE4CE2A89B31BD PUSH1 0xC0 SHL PUSH2 0x3C96 JUMP JUMPDEST PUSH1 0x40 MLOAD DUP1 PUSH1 0x40 ADD PUSH1 0x40 MSTORE DUP1 DUP7 DUP7 DUP1 DUP1 PUSH1 0x1F ADD PUSH1 0x20 DUP1 SWAP2 DIV MUL PUSH1 0x20 ADD PUSH1 0x40 MLOAD SWAP1 DUP2 ADD PUSH1 0x40 MSTORE DUP1 SWAP4 SWAP3 SWAP2 SWAP1 DUP2 DUP2 MSTORE PUSH1 0x20 ADD DUP4 DUP4 DUP1 DUP3 DUP5 CALLDATACOPY PUSH0 DUP2 DUP5 ADD MSTORE PUSH1 0x1F NOT PUSH1 0x1F DUP3 ADD AND SWAP1 POP DUP1 DUP4 ADD SWAP3 POP POP POP POP POP POP POP DUP2 MSTORE PUSH1 0x20 ADD CALLER PUSH20 0xFFFFFFFFFFFFFFFFFFFFFFFFFFFFFFFFFFFFFFFF AND DUP2 MSTORE POP PUSH1 0x8 PUSH0 DUP9 DUP2 MSTORE PUSH1 0x20 ADD SWAP1 DUP2 MSTORE PUSH1 0x20 ADD PUSH0 KECCAK256 PUSH0 PUSH1 0x9 PUSH0 DUP11 DUP2 MSTORE PUSH1 0x20 ADD SWAP1 DUP2 MSTORE PUSH1 0x20 ADD PUSH0 KECCAK256 SLOAD DUP2 MSTORE PUSH1 0x20 ADD SWAP1 DUP2 MSTORE PUSH1 0x20 ADD PUSH0 KECCAK256 PUSH0 DUP3 ADD MLOAD DUP2 PUSH0 ADD SWAP1 DUP2 PUSH2 0x29D4 SWAP2 SWAP1 PUSH2 0x4DA3 JUMP JUMPDEST POP PUSH1 0x20 DUP3 ADD MLOAD DUP2 PUSH1 0x1 ADD PUSH0 PUSH2 0x100 EXP DUP2 SLOAD DUP2 PUSH20 0xFFFFFFFFFFFFFFFFFFFFFFFFFFFFFFFFFFFFFFFF MUL NOT AND SWAP1 DUP4 PUSH20 0xFFFFFFFFFFFFFFFFFFFFFFFFFFFFFFFFFFFFFFFF AND MUL OR SWAP1 SSTORE POP SWAP1 POP POP PUSH2 0x2A32 PUSH8 0x37642F3319B62755 PUSH1 0xC0 SHL PUSH2 0x3C96 JUMP JUMPDEST PUSH1 0x9 PUSH0 DUP8 DUP2 MSTORE PUSH1 0x20 ADD SWAP1 DUP2 MSTORE PUSH1 0x20 ADD PUSH0 KECCAK256 PUSH0 DUP2 SLOAD PUSH2 0x2A4F SWAP1 PUSH2 0x4E72 JUMP JUMPDEST SWAP2 SWAP1 POP DUP2 SWAP1 SSTORE POP PUSH2 0x2A6A PUSH8 0x3F860A40858C2EAA PUSH1 0xC0 SHL PUSH2 0x3C96 JUMP JUMPDEST TIMESTAMP PUSH1 0xC PUSH0 CALLER PUSH20 0xFFFFFFFFFFFFFFFFFFFFFFFFFFFFFFFFFFFFFFFF AND PUSH20 0xFFFFFFFFFFFFFFFFFFFFFFFFFFFFFFFFFFFFFFFF AND DUP2 MSTORE PUSH1 0x20 ADD SWAP1 DUP2 MSTORE PUSH1 0x20 ADD PUSH0 KECCAK256 DUP2 SWAP1 SSTORE POP PUSH2 0x2AC0 PUSH8 0x7D1184CE5113EF87 PUSH1 0xC0 SHL PUSH2 0x3C96 JUMP JUMPDEST PUSH2 0x2AD4 PUSH8 0x6CE697A65ED87C75 PUSH1 0xC0 SHL PUSH2 0x3C96 JUMP JUMPDEST PUSH32 0x3021694D1EF819D2B9BC13C595D4F75437B6BBBB2DD33E9F2A9DF24534F6B559 DUP7 PUSH1 0x40 MLOAD PUSH2 0x2B03 SWAP2 SWAP1 PUSH2 0x3F4C JUMP JUMPDEST PUSH1 0x40 MLOAD DUP1 SWAP2 SUB SWAP1 LOG1 POP POP POP POP POP POP JUMP JUMPDEST PUSH1 0x60 PUSH2 0x2B29 PUSH8 0xB46C7B4D7CA9D50C PUSH1 0xC0 SHL PUSH2 0x3C96 JUMP JUMPDEST PUSH2 0x2B3D PUSH8 0xC56DECD4D191DD7E PUSH1 0xC0 SHL PUSH2 0x3C96 JUMP JUMPDEST PUSH2 0x2B51 PUSH8 0xE9B7D6260DD978C8 PUSH1 0xC0 SHL PUSH2 0x3C96 JUMP JUMPDEST PUSH1 0x6 PUSH0 CALLER PUSH20 0xFFFFFFFFFFFFFFFFFFFFFFFFFFFFFFFFFFFFFFFF AND PUSH20 0xFFFFFFFFFFFFFFFFFFFFFFFFFFFFFFFFFFFFFFFF AND DUP2 MSTORE PUSH1 0x20 ADD SWAP1 DUP2 MSTORE PUSH1 0x20 ADD PUSH0 KECCAK256 DUP1 SLOAD DUP1 PUSH1 0x20 MUL PUSH1 0x20 ADD PUSH1 0x40 MLOAD SWAP1 DUP2 ADD PUSH1 0x40 MSTORE DUP1 SWAP3 SWAP2 SWAP1 DUP2 DUP2 MSTORE PUSH1 0x20 ADD DUP3 DUP1 SLOAD DUP1 ISZERO PUSH2 0x2BD6 JUMPI PUSH1 0x20 MUL DUP3 ADD SWAP2 SWAP1 PUSH0 MSTORE PUSH1 0x20 PUSH0 KECCAK256 SWAP1 JUMPDEST DUP2 SLOAD DUP2 MSTORE PUSH1 0x20 ADD SWAP1 PUSH1 0x1 ADD SWAP1 DUP1 DUP4 GT PUSH2 0x2BC2 JUMPI JUMPDEST POP POP POP POP POP SWAP1 POP SWAP1 JUMP JUMPDEST PUSH2 0x2BF4 PUSH8 0x5D5C4A04DD291B6E PUSH1 0xC0 SHL PUSH2 0x3C96 JUMP JUMPDEST DUP3 PUSH2 0x2C09 PUSH8 0x79E20414899381EA PUSH1 0xC0 SHL PUSH2 0x3C96 JUMP JUMPDEST PUSH2 0x2C1D PUSH8 0xF7D3AA3DB6073963 PUSH1 0xC0 SHL PUSH2 0x3C96 JUMP JUMPDEST PUSH2 0x2C31 PUSH8 0xAD44291B7EE41AFC PUSH1 0xC0 SHL PUSH2 0x3C96 JUMP JUMPDEST PUSH2 0x2C45 PUSH8 0x939045F94A99D343 PUSH1 0xC0 SHL PUSH2 0x3C96 JUMP JUMPDEST PUSH1 0x4 DUP1 SLOAD SWAP1 POP DUP2 LT PUSH2 0x2C8C JUMPI PUSH1 0x40 MLOAD PUSH32 0x8C379A000000000000000000000000000000000000000000000000000000000 DUP2 MSTORE PUSH1 0x4 ADD PUSH2 0x2C83 SWAP1 PUSH2 0x487B JUMP JUMPDEST PUSH1 0x40 MLOAD DUP1 SWAP2 SUB SWAP1 REVERT JUMPDEST PUSH2 0x2CA0 PUSH8 0x4E0E7E368A911A7E PUSH1 0xC0 SHL PUSH2 0x3C96 JUMP JUMPDEST PUSH2 0x2CB4 PUSH8 0x1BA29D8EED77B1E0 PUSH1 0xC0 SHL PUSH2 0x3C96 JUMP JUMPDEST PUSH2 0x2CC8 PUSH8 0x67626470E4EB63EB PUSH1 0xC0 SHL PUSH2 0x3C96 JUMP JUMPDEST PUSH2 0x2CDC PUSH8 0x5C094B8376026FC PUSH1 0xC0 SHL PUSH2 0x3C96 JUMP JUMPDEST DUP3 DUP3 DUP1 DUP1 PUSH1 0x1F ADD PUSH1 0x20 DUP1 SWAP2 DIV MUL PUSH1 0x20 ADD PUSH1 0x40 MLOAD SWAP1 DUP2 ADD PUSH1 0x40 MSTORE DUP1 SWAP4 SWAP3 SWAP2 SWAP1 DUP2 DUP2 MSTORE PUSH1 0x20 ADD DUP4 DUP4 DUP1 DUP3 DUP5 CALLDATACOPY PUSH0 DUP2 DUP5 ADD MSTORE PUSH1 0x1F NOT PUSH1 0x1F DUP3 ADD AND SWAP1 POP DUP1 DUP4 ADD SWAP3 POP POP POP POP POP POP POP PUSH2 0x2D34 PUSH8 0xEA7D12F063FB7226 PUSH1 0xC0 SHL PUSH2 0x3C96 JUMP JUMPDEST PUSH2 0x2D48 PUSH8 0xE83F89C4F6E16EE5 PUSH1 0xC0 SHL PUSH2 0x3C96 JUMP JUMPDEST PUSH2 0x2D5C PUSH8 0x24F5AAE4FE51B23 PUSH1 0xC0 SHL PUSH2 0x3C96 JUMP JUMPDEST PUSH2 0x2D70 PUSH8 0x169DDC1D15D0261B PUSH1 0xC0 SHL PUSH2 0x3C96 JUMP JUMPDEST PUSH0 DUP2 MLOAD GT PUSH2 0x2DB3 JUMPI PUSH1 0x40 MLOAD PUSH32 0x8C379A000000000000000000000000000000000000000000000000000000000 DUP2 MSTORE PUSH1 0x4 ADD PUSH2 0x2DAA SWAP1 PUSH2 0x4B20 JUMP JUMPDEST PUSH1 0x40 MLOAD DUP1 SWAP2 SUB SWAP1 REVERT JUMPDEST PUSH2 0x2DC7 PUSH8 0x2E372E7BC3FA8BCA PUSH1 0xC0 SHL PUSH2 0x3C96 JUMP JUMPDEST PUSH2 0x2DDB PUSH8 0x534646307BDF4A81 PUSH1 0xC0 SHL PUSH2 0x3C96 JUMP JUMPDEST PUSH2 0x2DEF PUSH8 0xCD04FD57DA00A18D PUSH1 0xC0 SHL PUSH2 0x3C96 JUMP JUMPDEST PUSH2 0x2E03 PUSH8 0x4E9B5625C2DF4E45 PUSH1 0xC0 SHL PUSH2 0x3C96 JUMP JUMPDEST CALLER PUSH2 0x2E18 PUSH8 0xCAC778F577A97C12 PUSH1 0xC0 SHL PUSH2 0x3C96 JUMP JUMPDEST PUSH2 0x2E2C PUSH8 0xF1D88E229385115D PUSH1 0xC0 SHL PUSH2 0x3C96 JUMP JUMPDEST PUSH2 0x2E40 PUSH8 0x86026ED335A0A6A5 PUSH1 0xC0 SHL PUSH2 0x3C96 JUMP JUMPDEST PUSH2 0x2E54 PUSH8 0xBC821AC6FFC9E297 PUSH1 0xC0 SHL PUSH2 0x3C96 JUMP JUMPDEST PUSH1 0x2 TIMESTAMP PUSH2 0x2E61 SWAP2 SWAP1 PUSH2 0x4B3E JUMP JUMPDEST PUSH1 0xC PUSH0 CALLER PUSH20 0xFFFFFFFFFFFFFFFFFFFFFFFFFFFFFFFFFFFFFFFF AND PUSH20 0xFFFFFFFFFFFFFFFFFFFFFFFFFFFFFFFFFFFFFFFF AND DUP2 MSTORE PUSH1 0x20 ADD SWAP1 DUP2 MSTORE PUSH1 0x20 ADD PUSH0 KECCAK256 SLOAD LT PUSH2 0x2EDF JUMPI PUSH1 0x40 MLOAD PUSH32 0x8C379A000000000000000000000000000000000000000000000000000000000 DUP2 MSTORE PUSH1 0x4 ADD PUSH2 0x2ED6 SWAP1 PUSH2 0x4BBB JUMP JUMPDEST PUSH1 0x40 MLOAD DUP1 SWAP2 SUB SWAP1 REVERT JUMPDEST PUSH2 0x2EF3 PUSH8 0x16E1665DBD85D4A9 PUSH1 0xC0 SHL PUSH2 0x3C96 JUMP JUMPDEST PUSH2 0x2F07 PUSH8 0xB5656ABD29E474CA PUSH1 0xC0 SHL PUSH2 0x3C96 JUMP JUMPDEST PUSH2 0x2F1B PUSH8 0x765F1D3FB1627B99 PUSH1 0xC0 SHL PUSH2 0x3C96 JUMP JUMPDEST PUSH2 0x2F2F PUSH8 0x2FE132506CC0A6A9 PUSH1 0xC0 SHL PUSH2 0x3C96 JUMP JUMPDEST PUSH2 0x2F43 PUSH8 0xEC6DE968745E66BE PUSH1 0xC0 SHL PUSH2 0x3C96 JUMP JUMPDEST PUSH2 0x2F57 PUSH8 0xFCEC784388DAFD2B PUSH1 0xC0 SHL PUSH2 0x3C96 JUMP JUMPDEST PUSH1 0xA PUSH0 DUP8 DUP2 MSTORE PUSH1 0x20 ADD SWAP1 DUP2 MSTORE PUSH1 0x20 ADD PUSH0 KECCAK256 PUSH0 CALLER PUSH20 0xFFFFFFFFFFFFFFFFFFFFFFFFFFFFFFFFFFFFFFFF AND PUSH20 0xFFFFFFFFFFFFFFFFFFFFFFFFFFFFFFFFFFFFFFFF AND DUP2 MSTORE PUSH1 0x20 ADD SWAP1 DUP2 MSTORE PUSH1 0x20 ADD PUSH0 KECCAK256 PUSH1 0x40 MLOAD DUP1 PUSH1 0x40 ADD PUSH1 0x40 MSTORE DUP1 DUP8 DUP8 DUP1 DUP1 PUSH1 0x1F ADD PUSH1 0x20 DUP1 SWAP2 DIV MUL PUSH1 0x20 ADD PUSH1 0x40 MLOAD SWAP1 DUP2 ADD PUSH1 0x40 MSTORE DUP1 SWAP4 SWAP3 SWAP2 SWAP1 DUP2 DUP2 MSTORE PUSH1 0x20 ADD DUP4 DUP4 DUP1 DUP3 DUP5 CALLDATACOPY PUSH0 DUP2 DUP5 ADD MSTORE PUSH1 0x1F NOT PUSH1 0x1F DUP3 ADD AND SWAP1 POP DUP1 DUP4 ADD SWAP3 POP POP POP POP POP POP POP DUP2 MSTORE PUSH1 0x20 ADD CALLER PUSH20 0xFFFFFFFFFFFFFFFFFFFFFFFFFFFFFFFFFFFFFFFF AND DUP2 MSTORE POP SWAP1 DUP1 PUSH1 0x1 DUP2 SLOAD ADD DUP1 DUP3 SSTORE DUP1 SWAP2 POP POP PUSH1 0x1 SWAP1 SUB SWAP1 PUSH0 MSTORE PUSH1 0x20 PUSH0 KECCAK256 SWAP1 PUSH1 0x2 MUL ADD PUSH0 SWAP1 SWAP2 SWAP1 SWAP2 SWAP1 SWAP2 POP PUSH0 DUP3 ADD MLOAD DUP2 PUSH0 ADD SWAP1 DUP2 PUSH2 0x304A SWAP2 SWAP1 PUSH2 0x4DA3 JUMP JUMPDEST POP PUSH1 0x20 DUP3 ADD MLOAD DUP2 PUSH1 0x1 ADD PUSH0 PUSH2 0x100 EXP DUP2 SLOAD DUP2 PUSH20 0xFFFFFFFFFFFFFFFFFFFFFFFFFFFFFFFFFFFFFFFF MUL NOT AND SWAP1 DUP4 PUSH20 0xFFFFFFFFFFFFFFFFFFFFFFFFFFFFFFFFFFFFFFFF AND MUL OR SWAP1 SSTORE POP POP POP PUSH2 0x30A7 PUSH8 0x6A6DFAB48D049747 PUSH1 0xC0 SHL PUSH2 0x3C96 JUMP JUMPDEST TIMESTAMP PUSH1 0xC PUSH0 CALLER PUSH20 0xFFFFFFFFFFFFFFFFFFFFFFFFFFFFFFFFFFFFFFFF AND PUSH20 0xFFFFFFFFFFFFFFFFFFFFFFFFFFFFFFFFFFFFFFFF AND DUP2 MSTORE PUSH1 0x20 ADD SWAP1 DUP2 MSTORE PUSH1 0x20 ADD PUSH0 KECCAK256 DUP2 SWAP1 SSTORE POP PUSH2 0x30FD PUSH8 0x405B52BEC2FA3CE8 PUSH1 0xC0 SHL PUSH2 0x3C96 JUMP JUMPDEST PUSH2 0x3111 PUSH8 0x7F207324D5A225F8 PUSH1 0xC0 SHL PUSH2 0x3C96 JUMP JUMPDEST PUSH1 0x1 PUSH1 0xA PUSH0 DUP9 DUP2 MSTORE PUSH1 0x20 ADD SWAP1 DUP2 MSTORE PUSH1 0x20 ADD PUSH0 KECCAK256 PUSH0 CALLER PUSH20 0xFFFFFFFFFFFFFFFFFFFFFFFFFFFFFFFFFFFFFFFF AND PUSH20 0xFFFFFFFFFFFFFFFFFFFFFFFFFFFFFFFFFFFFFFFF AND DUP2 MSTORE PUSH1 0x20 ADD SWAP1 DUP2 MSTORE PUSH1 0x20 ADD PUSH0 KECCAK256 DUP1 SLOAD SWAP1 POP SUB PUSH2 0x3218 JUMPI PUSH2 0x317C PUSH8 0xB0A28E2338B0C79A PUSH1 0xC0 SHL PUSH2 0x3C96 JUMP JUMPDEST PUSH2 0x3190 PUSH8 0xA433F95BE6530469 PUSH1 0xC0 SHL PUSH2 0x3C96 JUMP JUMPDEST PUSH2 0x31A4 PUSH8 0x27E46B860771E6AB PUSH1 0xC0 SHL PUSH2 0x3C96 JUMP JUMPDEST PUSH1 0xB PUSH0 DUP8 DUP2 MSTORE PUSH1 0x20 ADD SWAP1 DUP2 MSTORE PUSH1 0x20 ADD PUSH0 KECCAK256 CALLER SWAP1 DUP1 PUSH1 0x1 DUP2 SLOAD ADD DUP1 DUP3 SSTORE DUP1 SWAP2 POP POP PUSH1 0x1 SWAP1 SUB SWAP1 PUSH0 MSTORE PUSH1 0x20 PUSH0 KECCAK256 ADD PUSH0 SWAP1 SWAP2 SWAP1 SWAP2 SWAP1 SWAP2 PUSH2 0x100 EXP DUP2 SLOAD DUP2 PUSH20 0xFFFFFFFFFFFFFFFFFFFFFFFFFFFFFFFFFFFFFFFF MUL NOT AND SWAP1 DUP4 PUSH20 0xFFFFFFFFFFFFFFFFFFFFFFFFFFFFFFFFFFFFFFFF AND MUL OR SWAP1 SSTORE POP PUSH2 0x322D JUMP JUMPDEST PUSH2 0x322C PUSH8 0x167DA6F0FA915C31 PUSH1 0xC0 SHL PUSH2 0x3C96 JUMP JUMPDEST JUMPDEST POP POP POP POP POP POP JUMP JUMPDEST PUSH2 0x323D PUSH2 0x3C99 JUMP JUMPDEST PUSH0 PUSH20 0xFFFFFFFFFFFFFFFFFFFFFFFFFFFFFFFFFFFFFFFF AND DUP2 PUSH20 0xFFFFFFFFFFFFFFFFFFFFFFFFFFFFFFFFFFFFFFFF AND SUB PUSH2 0x32AB JUMPI PUSH1 0x40 MLOAD PUSH32 0x8C379A000000000000000000000000000000000000000000000000000000000 DUP2 MSTORE PUSH1 0x4 ADD PUSH2 0x32A2 SWAP1 PUSH2 0x4F29 JUMP JUMPDEST PUSH1 0x40 MLOAD DUP1 SWAP2 SUB SWAP1 REVERT JUMPDEST PUSH2 0x32B4 DUP2 PUSH2 0x3D17 JUMP JUMPDEST POP JUMP JUMPDEST PUSH1 0x2 PUSH1 0x20 MSTORE DUP1 PUSH0 MSTORE PUSH1 0x40 PUSH0 KECCAK256 PUSH0 SWAP2 POP SLOAD SWAP1 PUSH2 0x100 EXP SWAP1 DIV PUSH20 0xFFFFFFFFFFFFFFFFFFFFFFFFFFFFFFFFFFFFFFFF AND DUP2 JUMP JUMPDEST PUSH1 0x60 PUSH2 0x32FD PUSH8 0x770119844F62F0B5 PUSH1 0xC0 SHL PUSH2 0x3C96 JUMP JUMPDEST PUSH2 0x3311 PUSH8 0x1FD15717E27AC43E PUSH1 0xC0 SHL PUSH2 0x3C96 JUMP JUMPDEST PUSH2 0x3325 PUSH8 0x537282F208048092 PUSH1 0xC0 SHL PUSH2 0x3C96 JUMP JUMPDEST PUSH1 0x3 PUSH0 CALLER PUSH20 0xFFFFFFFFFFFFFFFFFFFFFFFFFFFFFFFFFFFFFFFF AND PUSH20 0xFFFFFFFFFFFFFFFFFFFFFFFFFFFFFFFFFFFFFFFF AND DUP2 MSTORE PUSH1 0x20 ADD SWAP1 DUP2 MSTORE PUSH1 0x20 ADD PUSH0 KECCAK256 DUP1 SLOAD DUP1 PUSH1 0x20 MUL PUSH1 0x20 ADD PUSH1 0x40 MLOAD SWAP1 DUP2 ADD PUSH1 0x40 MSTORE DUP1 SWAP3 SWAP2 SWAP1 DUP2 DUP2 MSTORE PUSH1 0x20 ADD DUP3 DUP1 SLOAD DUP1 ISZERO PUSH2 0x33AA JUMPI PUSH1 0x20 MUL DUP3 ADD SWAP2 SWAP1 PUSH0 MSTORE PUSH1 0x20 PUSH0 KECCAK256 SWAP1 JUMPDEST DUP2 SLOAD DUP2 MSTORE PUSH1 0x20 ADD SWAP1 PUSH1 0x1 ADD SWAP1 DUP1 DUP4 GT PUSH2 0x3396 JUMPI JUMPDEST POP POP POP POP POP SWAP1 POP SWAP1 JUMP JUMPDEST PUSH2 0x33C8 PUSH8 0x12B3BC1E762B4ADA PUSH1 0xC0 SHL PUSH2 0x3C96 JUMP JUMPDEST PUSH2 0x33DC PUSH8 0xB31802986CE3D8BF PUSH1 0xC0 SHL PUSH2 0x3C96 JUMP JUMPDEST PUSH2 0x33F0 PUSH8 0x5A3AAC5F6336AF54 PUSH1 0xC0 SHL PUSH2 0x3C96 JUMP JUMPDEST PUSH2 0x3404 PUSH8 0x60983474F3ED42C5 PUSH1 0xC0 SHL PUSH2 0x3C96 JUMP JUMPDEST PUSH2 0x3418 PUSH8 0x8C7CA8853CAF6D7D PUSH1 0xC0 SHL PUSH2 0x3C96 JUMP JUMPDEST PUSH1 0x1 PUSH0 CALLER PUSH20 0xFFFFFFFFFFFFFFFFFFFFFFFFFFFFFFFFFFFFFFFF AND PUSH20 0xFFFFFFFFFFFFFFFFFFFFFFFFFFFFFFFFFFFFFFFF AND DUP2 MSTORE PUSH1 0x20 ADD SWAP1 DUP2 MSTORE PUSH1 0x20 ADD PUSH0 KECCAK256 PUSH0 SWAP1 SLOAD SWAP1 PUSH2 0x100 EXP SWAP1 DIV PUSH1 0xFF AND PUSH2 0x34A1 JUMPI PUSH1 0x40 MLOAD PUSH32 0x8C379A000000000000000000000000000000000000000000000000000000000 DUP2 MSTORE PUSH1 0x4 ADD PUSH2 0x3498 SWAP1 PUSH2 0x4F91 JUMP JUMPDEST PUSH1 0x40 MLOAD DUP1 SWAP2 SUB SWAP1 REVERT JUMPDEST PUSH2 0x34B5 PUSH8 0x7A12BFFA2779179E PUSH1 0xC0 SHL PUSH2 0x3C96 JUMP JUMPDEST PUSH2 0x34C9 PUSH8 0x8B556308549C9176 PUSH1 0xC0 SHL PUSH2 0x3C96 JUMP JUMPDEST PUSH2 0x34DD PUSH8 0x8F7F85D524DA76B2 PUSH1 0xC0 SHL PUSH2 0x3C96 JUMP JUMPDEST PUSH2 0x34F1 PUSH8 0x6B2E4EC87B9780EE PUSH1 0xC0 SHL PUSH2 0x3C96 JUMP JUMPDEST DUP5 DUP5 DUP1 DUP1 PUSH1 0x1F ADD PUSH1 0x20 DUP1 SWAP2 DIV MUL PUSH1 0x20 ADD PUSH1 0x40 MLOAD SWAP1 DUP2 ADD PUSH1 0x40 MSTORE DUP1 SWAP4 SWAP3 SWAP2 SWAP1 DUP2 DUP2 MSTORE PUSH1 0x20 ADD DUP4 DUP4 DUP1 DUP3 DUP5 CALLDATACOPY PUSH0 DUP2 DUP5 ADD MSTORE PUSH1 0x1F NOT PUSH1 0x1F DUP3 ADD AND SWAP1 POP DUP1 DUP4 ADD SWAP3 POP POP POP POP POP POP POP PUSH2 0x3549 PUSH8 0xEA7D12F063FB7226 PUSH1 0xC0 SHL PUSH2 0x3C96 JUMP JUMPDEST PUSH2 0x355D PUSH8 0xE83F89C4F6E16EE5 PUSH1 0xC0 SHL PUSH2 0x3C96 JUMP JUMPDEST PUSH2 0x3571 PUSH8 0x24F5AAE4FE51B23 PUSH1 0xC0 SHL PUSH2 0x3C96 JUMP JUMPDEST PUSH2 0x3585 PUSH8 0x169DDC1D15D0261B PUSH1 0xC0 SHL PUSH2 0x3C96 JUMP JUMPDEST PUSH0 DUP2 MLOAD GT PUSH2 0x35C8 JUMPI PUSH1 0x40 MLOAD PUSH32 0x8C379A000000000000000000000000000000000000000000000000000000000 DUP2 MSTORE PUSH1 0x4 ADD PUSH2 0x35BF SWAP1 PUSH2 0x4B20 JUMP JUMPDEST PUSH1 0x40 MLOAD DUP1 SWAP2 SUB SWAP1 REVERT JUMPDEST PUSH2 0x35DC PUSH8 0x2E372E7BC3FA8BCA PUSH1 0xC0 SHL PUSH2 0x3C96 JUMP JUMPDEST PUSH2 0x35F0 PUSH8 0x534646307BDF4A81 PUSH1 0xC0 SHL PUSH2 0x3C96 JUMP JUMPDEST PUSH2 0x3604 PUSH8 0x208DDDD6B4E4DE73 PUSH1 0xC0 SHL PUSH2 0x3C96 JUMP JUMPDEST PUSH2 0x3618 PUSH8 0x5AFA78E913041C85 PUSH1 0xC0 SHL PUSH2 0x3C96 JUMP JUMPDEST PUSH2 0x362C PUSH8 0x9CAA2AE9494902C4 PUSH1 0xC0 SHL PUSH2 0x3C96 JUMP JUMPDEST PUSH2 0x3640 PUSH8 0x97FEAB883F094FA3 PUSH1 0xC0 SHL PUSH2 0x3C96 JUMP JUMPDEST PUSH2 0x3654 PUSH8 0xDB9015F62EE1575C PUSH1 0xC0 SHL PUSH2 0x3C96 JUMP JUMPDEST TIMESTAMP DUP5 GT PUSH2 0x3696 JUMPI PUSH1 0x40 MLOAD PUSH32 0x8C379A000000000000000000000000000000000000000000000000000000000 DUP2 MSTORE PUSH1 0x4 ADD PUSH2 0x368D SWAP1 PUSH2 0x4FF9 JUMP JUMPDEST PUSH1 0x40 MLOAD DUP1 SWAP2 SUB SWAP1 REVERT JUMPDEST PUSH2 0x36AA PUSH8 0xF9B166F530924200 PUSH1 0xC0 SHL PUSH2 0x3C96 JUMP JUMPDEST PUSH2 0x36BE PUSH8 0x4C932A98DB8769D7 PUSH1 0xC0 SHL PUSH2 0x3C96 JUMP JUMPDEST PUSH2 0x36D2 PUSH8 0x992550C663104B11 PUSH1 0xC0 SHL PUSH2 0x3C96 JUMP JUMPDEST PUSH2 0x36E6 PUSH8 0xD7D5E35E96B2AF70 PUSH1 0xC0 SHL PUSH2 0x3C96 JUMP JUMPDEST PUSH0 DUP3 PUSH1 0xFF AND GT DUP1 ISZERO PUSH2 0x3706 JUMPI POP PUSH0 PUSH1 0x2 DUP4 PUSH2 0x3701 SWAP2 SWAP1 PUSH2 0x5044 JUMP JUMPDEST PUSH1 0xFF AND EQ JUMPDEST PUSH2 0x3745 JUMPI PUSH1 0x40 MLOAD PUSH32 0x8C379A000000000000000000000000000000000000000000000000000000000 DUP2 MSTORE PUSH1 0x4 ADD PUSH2 0x373C SWAP1 PUSH2 0x50BE JUMP JUMPDEST PUSH1 0x40 MLOAD DUP1 SWAP2 SUB SWAP1 REVERT JUMPDEST PUSH2 0x3759 PUSH8 0x9C3EC0D89DB42FCF PUSH1 0xC0 SHL PUSH2 0x3C96 JUMP JUMPDEST PUSH2 0x376D PUSH8 0x285E0F8F02F98FE9 PUSH1 0xC0 SHL PUSH2 0x3C96 JUMP JUMPDEST PUSH2 0x3781 PUSH8 0x5EBAA6FBD236D72F PUSH1 0xC0 SHL PUSH2 0x3C96 JUMP JUMPDEST PUSH2 0x3795 PUSH8 0x9E0F407D67BAE712 PUSH1 0xC0 SHL PUSH2 0x3C96 JUMP JUMPDEST PUSH1 0x5 DUP1 DUP2 GT ISZERO PUSH2 0x37A8 JUMPI PUSH2 0x37A7 PUSH2 0x416A JUMP JUMPDEST JUMPDEST DUP4 PUSH1 0xFF AND GT ISZERO PUSH2 0x37ED JUMPI PUSH1 0x40 MLOAD PUSH32 0x8C379A000000000000000000000000000000000000000000000000000000000 DUP2 MSTORE PUSH1 0x4 ADD PUSH2 0x37E4 SWAP1 PUSH2 0x5126 JUMP JUMPDEST PUSH1 0x40 MLOAD DUP1 SWAP2 SUB SWAP1 REVERT JUMPDEST PUSH2 0x3801 PUSH8 0xC264AA29AFA40078 PUSH1 0xC0 SHL PUSH2 0x3C96 JUMP JUMPDEST PUSH2 0x3815 PUSH8 0x75C933371C2AE7CF PUSH1 0xC0 SHL PUSH2 0x3C96 JUMP JUMPDEST PUSH2 0x3829 PUSH8 0xE822DD1AC0FDBF67 PUSH1 0xC0 SHL PUSH2 0x3C96 JUMP JUMPDEST PUSH0 PUSH1 0x4 DUP1 SLOAD SWAP1 POP SWAP1 POP PUSH2 0x3846 PUSH8 0x919CA10884FB8791 PUSH1 0xC0 SHL PUSH2 0x3C96 JUMP JUMPDEST PUSH2 0x385A PUSH8 0x22AF9A369C13021 PUSH1 0xC0 SHL PUSH2 0x3C96 JUMP JUMPDEST PUSH1 0x4 PUSH1 0x40 MLOAD DUP1 PUSH1 0xE0 ADD PUSH1 0x40 MSTORE DUP1 DUP4 DUP2 MSTORE PUSH1 0x20 ADD DUP10 DUP10 DUP1 DUP1 PUSH1 0x1F ADD PUSH1 0x20 DUP1 SWAP2 DIV MUL PUSH1 0x20 ADD PUSH1 0x40 MLOAD SWAP1 DUP2 ADD PUSH1 0x40 MSTORE DUP1 SWAP4 SWAP3 SWAP2 SWAP1 DUP2 DUP2 MSTORE PUSH1 0x20 ADD DUP4 DUP4 DUP1 DUP3 DUP5 CALLDATACOPY PUSH0 DUP2 DUP5 ADD MSTORE PUSH1 0x1F NOT PUSH1 0x1F DUP3 ADD AND SWAP1 POP DUP1 DUP4 ADD SWAP3 POP POP POP POP POP POP POP DUP2 MSTORE PUSH1 0x20 ADD DUP8 DUP2 MSTORE PUSH1 0x20 ADD DUP7 PUSH1 0xFF AND PUSH1 0x5 DUP2 GT ISZERO PUSH2 0x38D2 JUMPI PUSH2 0x38D1 PUSH2 0x416A JUMP JUMPDEST JUMPDEST PUSH1 0x5 DUP2 GT ISZERO PUSH2 0x38E4 JUMPI PUSH2 0x38E3 PUSH2 0x416A JUMP JUMPDEST JUMPDEST DUP2 MSTORE PUSH1 0x20 ADD DUP6 PUSH1 0xFF AND DUP2 MSTORE PUSH1 0x20 ADD PUSH0 PUSH20 0xFFFFFFFFFFFFFFFFFFFFFFFFFFFFFFFFFFFFFFFF AND DUP2 MSTORE PUSH1 0x20 ADD PUSH0 PUSH20 0xFFFFFFFFFFFFFFFFFFFFFFFFFFFFFFFFFFFFFFFF AND DUP2 MSTORE POP SWAP1 DUP1 PUSH1 0x1 DUP2 SLOAD ADD DUP1 DUP3 SSTORE DUP1 SWAP2 POP POP PUSH1 0x1 SWAP1 SUB SWAP1 PUSH0 MSTORE PUSH1 0x20 PUSH0 KECCAK256 SWAP1 PUSH1 0x5 MUL ADD PUSH0 SWAP1 SWAP2 SWAP1 SWAP2 SWAP1 SWAP2 POP PUSH0 DUP3 ADD MLOAD DUP2 PUSH0 ADD SSTORE PUSH1 0x20 DUP3 ADD MLOAD DUP2 PUSH1 0x1 ADD SWAP1 DUP2 PUSH2 0x396B SWAP2 SWAP1 PUSH2 0x4DA3 JUMP JUMPDEST POP PUSH1 0x40 DUP3 ADD MLOAD DUP2 PUSH1 0x2 ADD SSTORE PUSH1 0x60 DUP3 ADD MLOAD DUP2 PUSH1 0x3 ADD PUSH0 PUSH2 0x100 EXP DUP2 SLOAD DUP2 PUSH1 0xFF MUL NOT AND SWAP1 DUP4 PUSH1 0x5 DUP2 GT ISZERO PUSH2 0x39A0 JUMPI PUSH2 0x399F PUSH2 0x416A JUMP JUMPDEST JUMPDEST MUL OR SWAP1 SSTORE POP PUSH1 0x80 DUP3 ADD MLOAD DUP2 PUSH1 0x3 ADD PUSH1 0x1 PUSH2 0x100 EXP DUP2 SLOAD DUP2 PUSH1 0xFF MUL NOT AND SWAP1 DUP4 PUSH1 0xFF AND MUL OR SWAP1 SSTORE POP PUSH1 0xA0 DUP3 ADD MLOAD DUP2 PUSH1 0x3 ADD PUSH1 0x2 PUSH2 0x100 EXP DUP2 SLOAD DUP2 PUSH20 0xFFFFFFFFFFFFFFFFFFFFFFFFFFFFFFFFFFFFFFFF MUL NOT AND SWAP1 DUP4 PUSH20 0xFFFFFFFFFFFFFFFFFFFFFFFFFFFFFFFFFFFFFFFF AND MUL OR SWAP1 SSTORE POP PUSH1 0xC0 DUP3 ADD MLOAD DUP2 PUSH1 0x4 ADD PUSH0 PUSH2 0x100 EXP DUP2 SLOAD DUP2 PUSH20 0xFFFFFFFFFFFFFFFFFFFFFFFFFFFFFFFFFFFFFFFF MUL NOT AND SWAP1 DUP4 PUSH20 0xFFFFFFFFFFFFFFFFFFFFFFFFFFFFFFFFFFFFFFFF AND MUL OR SWAP1 SSTORE POP POP POP PUSH2 0x3A69 PUSH8 0xEEE5E586EC85419C PUSH1 0xC0 SHL PUSH2 0x3C96 JUMP JUMPDEST CALLER PUSH1 0x2 PUSH0 DUP4 DUP2 MSTORE PUSH1 0x20 ADD SWAP1 DUP2 MSTORE PUSH1 0x20 ADD PUSH0 KECCAK256 PUSH0 PUSH2 0x100 EXP DUP2 SLOAD DUP2 PUSH20 0xFFFFFFFFFFFFFFFFFFFFFFFFFFFFFFFFFFFFFFFF MUL NOT AND SWAP1 DUP4 PUSH20 0xFFFFFFFFFFFFFFFFFFFFFFFFFFFFFFFFFFFFFFFF AND MUL OR SWAP1 SSTORE POP PUSH2 0x3ACC PUSH8 0xC193EB482248E4EA PUSH1 0xC0 SHL PUSH2 0x3C96 JUMP JUMPDEST PUSH2 0x3AE0 PUSH8 0x4DF230151F34E51A PUSH1 0xC0 SHL PUSH2 0x3C96 JUMP JUMPDEST PUSH1 0x3 PUSH0 CALLER PUSH20 0xFFFFFFFFFFFFFFFFFFFFFFFFFFFFFFFFFFFFFFFF AND PUSH20 0xFFFFFFFFFFFFFFFFFFFFFFFFFFFFFFFFFFFFFFFF AND DUP2 MSTORE PUSH1 0x20 ADD SWAP1 DUP2 MSTORE PUSH1 0x20 ADD PUSH0 KECCAK256 DUP2 SWAP1 DUP1 PUSH1 0x1 DUP2 SLOAD ADD DUP1 DUP3 SSTORE DUP1 SWAP2 POP POP PUSH1 0x1 SWAP1 SUB SWAP1 PUSH0 MSTORE PUSH1 0x20 PUSH0 KECCAK256 ADD PUSH0 SWAP1 SWAP2 SWAP1 SWAP2 SWAP1 SWAP2 POP SSTORE PUSH2 0x3B55 PUSH8 0x60A0782AE40C7263 PUSH1 0xC0 SHL PUSH2 0x3C96 JUMP JUMPDEST PUSH2 0x3B69 PUSH8 0x4D4645ADC300B909 PUSH1 0xC0 SHL PUSH2 0x3C96 JUMP JUMPDEST PUSH32 0x113D32D0B7AEC15A8C7F50AF4CB42F4695E5B95524ED69519AC88D6C1F1F40F6 DUP2 PUSH1 0x40 MLOAD PUSH2 0x3B98 SWAP2 SWAP1 PUSH2 0x3F4C JUMP JUMPDEST PUSH1 0x40 MLOAD DUP1 SWAP2 SUB SWAP1 LOG1 POP POP POP POP POP POP POP JUMP JUMPDEST PUSH1 0x8 PUSH1 0x20 MSTORE DUP2 PUSH0 MSTORE PUSH1 0x40 PUSH0 KECCAK256 PUSH1 0x20 MSTORE DUP1 PUSH0 MSTORE PUSH1 0x40 PUSH0 KECCAK256 PUSH0 SWAP2 POP SWAP2 POP POP DUP1 PUSH0 ADD DUP1 SLOAD PUSH2 0x3BD3 SWAP1 PUSH2 0x48ED JUMP JUMPDEST DUP1 PUSH1 0x1F ADD PUSH1 0x20 DUP1 SWAP2 DIV MUL PUSH1 0x20 ADD PUSH1 0x40 MLOAD SWAP1 DUP2 ADD PUSH1 0x40 MSTORE DUP1 SWAP3 SWAP2 SWAP1 DUP2 DUP2 MSTORE PUSH1 0x20 ADD DUP3 DUP1 SLOAD PUSH2 0x3BFF SWAP1 PUSH2 0x48ED JUMP JUMPDEST DUP1 ISZERO PUSH2 0x3C4A JUMPI DUP1 PUSH1 0x1F LT PUSH2 0x3C21 JUMPI PUSH2 0x100 DUP1 DUP4 SLOAD DIV MUL DUP4 MSTORE SWAP2 PUSH1 0x20 ADD SWAP2 PUSH2 0x3C4A JUMP JUMPDEST DUP3 ADD SWAP2 SWAP1 PUSH0 MSTORE PUSH1 0x20 PUSH0 KECCAK256 SWAP1 JUMPDEST DUP2 SLOAD DUP2 MSTORE SWAP1 PUSH1 0x1 ADD SWAP1 PUSH1 0x20 ADD DUP1 DUP4 GT PUSH2 0x3C2D JUMPI DUP3 SWAP1 SUB PUSH1 0x1F AND DUP3 ADD SWAP2 JUMPDEST POP POP POP POP POP SWAP1 DUP1 PUSH1 0x1 ADD PUSH0 SWAP1 SLOAD SWAP1 PUSH2 0x100 EXP SWAP1 DIV PUSH20 0xFFFFFFFFFFFFFFFFFFFFFFFFFFFFFFFFFFFFFFFF AND SWAP1 POP DUP3 JUMP JUMPDEST PUSH1 0x1 PUSH1 0x20 MSTORE DUP1 PUSH0 MSTORE PUSH1 0x40 PUSH0 KECCAK256 PUSH0 SWAP2 POP SLOAD SWAP1 PUSH2 0x100 EXP SWAP1 DIV PUSH1 0xFF AND DUP2 JUMP JUMPDEST POP JUMP JUMPDEST PUSH2 0x3CA1 PUSH2 0x3DD8 JUMP JUMPDEST PUSH20 0xFFFFFFFFFFFFFFFFFFFFFFFFFFFFFFFFFFFFFFFF AND PUSH2 0x3CBF PUSH2 0x1E0A JUMP JUMPDEST PUSH20 0xFFFFFFFFFFFFFFFFFFFFFFFFFFFFFFFFFFFFFFFF AND EQ PUSH2 0x3D15 JUMPI PUSH1 0x40 MLOAD PUSH32 0x8C379A000000000000000000000000000000000000000000000000000000000 DUP2 MSTORE PUSH1 0x4 ADD PUSH2 0x3D0C SWAP1 PUSH2 0x518E JUMP JUMPDEST PUSH1 0x40 MLOAD DUP1 SWAP2 SUB SWAP1 REVERT JUMPDEST JUMP JUMPDEST PUSH0 DUP1 PUSH0 SWAP1 SLOAD SWAP1 PUSH2 0x100 EXP SWAP1 DIV PUSH20 0xFFFFFFFFFFFFFFFFFFFFFFFFFFFFFFFFFFFFFFFF AND SWAP1 POP DUP2 PUSH0 DUP1 PUSH2 0x100 EXP DUP2 SLOAD DUP2 PUSH20 0xFFFFFFFFFFFFFFFFFFFFFFFFFFFFFFFFFFFFFFFF MUL NOT AND SWAP1 DUP4 PUSH20 0xFFFFFFFFFFFFFFFFFFFFFFFFFFFFFFFFFFFFFFFF AND MUL OR SWAP1 SSTORE POP DUP2 PUSH20 0xFFFFFFFFFFFFFFFFFFFFFFFFFFFFFFFFFFFFFFFF AND DUP2 PUSH20 0xFFFFFFFFFFFFFFFFFFFFFFFFFFFFFFFFFFFFFFFF AND PUSH32 0x8BE0079C531659141344CD1FD0A4F28419497F9722A3DAAFE3B4186F6B6457E0 PUSH1 0x40 MLOAD PUSH1 0x40 MLOAD DUP1 SWAP2 SUB SWAP1 LOG3 POP POP JUMP JUMPDEST PUSH0 CALLER SWAP1 POP SWAP1 JUMP JUMPDEST PUSH0 DUP1 REVERT JUMPDEST PUSH0 DUP1 REVERT JUMPDEST PUSH0 PUSH20 0xFFFFFFFFFFFFFFFFFFFFFFFFFFFFFFFFFFFFFFFF DUP3 AND SWAP1 POP SWAP2 SWAP1 POP JUMP JUMPDEST PUSH0 PUSH2 0x3E10 DUP3 PUSH2 0x3DE7 JUMP JUMPDEST SWAP1 POP SWAP2 SWAP1 POP JUMP JUMPDEST PUSH2 0x3E20 DUP2 PUSH2 0x3E06 JUMP JUMPDEST DUP2 EQ PUSH2 0x3E2A JUMPI PUSH0 DUP1 REVERT JUMPDEST POP JUMP JUMPDEST PUSH0 DUP2 CALLDATALOAD SWAP1 POP PUSH2 0x3E3B DUP2 PUSH2 0x3E17 JUMP JUMPDEST SWAP3 SWAP2 POP POP JUMP JUMPDEST PUSH0 PUSH1 0x20 DUP3 DUP5 SUB SLT ISZERO PUSH2 0x3E56 JUMPI PUSH2 0x3E55 PUSH2 0x3DDF JUMP JUMPDEST JUMPDEST PUSH0 PUSH2 0x3E63 DUP5 DUP3 DUP6 ADD PUSH2 0x3E2D JUMP JUMPDEST SWAP2 POP POP SWAP3 SWAP2 POP POP JUMP JUMPDEST PUSH0 DUP2 SWAP1 POP SWAP2 SWAP1 POP JUMP JUMPDEST PUSH2 0x3E7E DUP2 PUSH2 0x3E6C JUMP JUMPDEST DUP2 EQ PUSH2 0x3E88 JUMPI PUSH0 DUP1 REVERT JUMPDEST POP JUMP JUMPDEST PUSH0 DUP2 CALLDATALOAD SWAP1 POP PUSH2 0x3E99 DUP2 PUSH2 0x3E75 JUMP JUMPDEST SWAP3 SWAP2 POP POP JUMP JUMPDEST PUSH0 DUP2 ISZERO ISZERO SWAP1 POP SWAP2 SWAP1 POP JUMP JUMPDEST PUSH2 0x3EB3 DUP2 PUSH2 0x3E9F JUMP JUMPDEST DUP2 EQ PUSH2 0x3EBD JUMPI PUSH0 DUP1 REVERT JUMPDEST POP JUMP JUMPDEST PUSH0 DUP2 CALLDATALOAD SWAP1 POP PUSH2 0x3ECE DUP2 PUSH2 0x3EAA JUMP JUMPDEST SWAP3 SWAP2 POP POP JUMP JUMPDEST PUSH0 DUP1 PUSH1 0x40 DUP4 DUP6 SUB SLT ISZERO PUSH2 0x3EEA JUMPI PUSH2 0x3EE9 PUSH2 0x3DDF JUMP JUMPDEST JUMPDEST PUSH0 PUSH2 0x3EF7 DUP6 DUP3 DUP7 ADD PUSH2 0x3E8B JUMP JUMPDEST SWAP3 POP POP PUSH1 0x20 PUSH2 0x3F08 DUP6 DUP3 DUP7 ADD PUSH2 0x3EC0 JUMP JUMPDEST SWAP2 POP POP SWAP3 POP SWAP3 SWAP1 POP JUMP JUMPDEST PUSH0 PUSH1 0x20 DUP3 DUP5 SUB SLT ISZERO PUSH2 0x3F27 JUMPI PUSH2 0x3F26 PUSH2 0x3DDF JUMP JUMPDEST JUMPDEST PUSH0 PUSH2 0x3F34 DUP5 DUP3 DUP6 ADD PUSH2 0x3E8B JUMP JUMPDEST SWAP2 POP POP SWAP3 SWAP2 POP POP JUMP JUMPDEST PUSH2 0x3F46 DUP2 PUSH2 0x3E6C JUMP JUMPDEST DUP3 MSTORE POP POP JUMP JUMPDEST PUSH0 PUSH1 0x20 DUP3 ADD SWAP1 POP PUSH2 0x3F5F PUSH0 DUP4 ADD DUP5 PUSH2 0x3F3D JUMP JUMPDEST SWAP3 SWAP2 POP POP JUMP JUMPDEST PUSH0 DUP1 PUSH1 0x40 DUP4 DUP6 SUB SLT ISZERO PUSH2 0x3F7B JUMPI PUSH2 0x3F7A PUSH2 0x3DDF JUMP JUMPDEST JUMPDEST PUSH0 PUSH2 0x3F88 DUP6 DUP3 DUP7 ADD PUSH2 0x3E8B JUMP JUMPDEST SWAP3 POP POP PUSH1 0x20 PUSH2 0x3F99 DUP6 DUP3 DUP7 ADD PUSH2 0x3E2D JUMP JUMPDEST SWAP2 POP POP SWAP3 POP SWAP3 SWAP1 POP JUMP JUMPDEST PUSH2 0x3FAC DUP2 PUSH2 0x3E9F JUMP JUMPDEST DUP3 MSTORE POP POP JUMP JUMPDEST PUSH0 PUSH1 0x20 DUP3 ADD SWAP1 POP PUSH2 0x3FC5 PUSH0 DUP4 ADD DUP5 PUSH2 0x3FA3 JUMP JUMPDEST SWAP3 SWAP2 POP POP JUMP JUMPDEST PUSH0 DUP2 MLOAD SWAP1 POP SWAP2 SWAP1 POP JUMP JUMPDEST PUSH0 DUP3 DUP3 MSTORE PUSH1 0x20 DUP3 ADD SWAP1 POP SWAP3 SWAP2 POP POP JUMP JUMPDEST PUSH0 DUP2 SWAP1 POP PUSH1 0x20 DUP3 ADD SWAP1 POP SWAP2 SWAP1 POP JUMP JUMPDEST PUSH2 0x3FFD DUP2 PUSH2 0x3E06 JUMP JUMPDEST DUP3 MSTORE POP POP JUMP JUMPDEST PUSH0 PUSH2 0x400E DUP4 DUP4 PUSH2 0x3FF4 JUMP JUMPDEST PUSH1 0x20 DUP4 ADD SWAP1 POP SWAP3 SWAP2 POP POP JUMP JUMPDEST PUSH0 PUSH1 0x20 DUP3 ADD SWAP1 POP SWAP2 SWAP1 POP JUMP JUMPDEST PUSH0 PUSH2 0x4030 DUP3 PUSH2 0x3FCB JUMP JUMPDEST PUSH2 0x403A DUP2 DUP6 PUSH2 0x3FD5 JUMP JUMPDEST SWAP4 POP PUSH2 0x4045 DUP4 PUSH2 0x3FE5 JUMP JUMPDEST DUP1 PUSH0 JUMPDEST DUP4 DUP2 LT ISZERO PUSH2 0x4075 JUMPI DUP2 MLOAD PUSH2 0x405C DUP9 DUP3 PUSH2 0x4003 JUMP JUMPDEST SWAP8 POP PUSH2 0x4067 DUP4 PUSH2 0x401A JUMP JUMPDEST SWAP3 POP POP PUSH1 0x1 DUP2 ADD SWAP1 POP PUSH2 0x4048 JUMP JUMPDEST POP DUP6 SWAP4 POP POP POP POP SWAP3 SWAP2 POP POP JUMP JUMPDEST PUSH0 PUSH1 0x20 DUP3 ADD SWAP1 POP DUP2 DUP2 SUB PUSH0 DUP4 ADD MSTORE PUSH2 0x409A DUP2 DUP5 PUSH2 0x4026 JUMP JUMPDEST SWAP1 POP SWAP3 SWAP2 POP POP JUMP JUMPDEST PUSH0 DUP1 PUSH1 0x40 DUP4 DUP6 SUB SLT ISZERO PUSH2 0x40B8 JUMPI PUSH2 0x40B7 PUSH2 0x3DDF JUMP JUMPDEST JUMPDEST PUSH0 PUSH2 0x40C5 DUP6 DUP3 DUP7 ADD PUSH2 0x3E2D JUMP JUMPDEST SWAP3 POP POP PUSH1 0x20 PUSH2 0x40D6 DUP6 DUP3 DUP7 ADD PUSH2 0x3E8B JUMP JUMPDEST SWAP2 POP POP SWAP3 POP SWAP3 SWAP1 POP JUMP JUMPDEST PUSH0 DUP2 MLOAD SWAP1 POP SWAP2 SWAP1 POP JUMP JUMPDEST PUSH0 DUP3 DUP3 MSTORE PUSH1 0x20 DUP3 ADD SWAP1 POP SWAP3 SWAP2 POP POP JUMP JUMPDEST PUSH0 JUMPDEST DUP4 DUP2 LT ISZERO PUSH2 0x4117 JUMPI DUP1 DUP3 ADD MLOAD DUP2 DUP5 ADD MSTORE PUSH1 0x20 DUP2 ADD SWAP1 POP PUSH2 0x40FC JUMP JUMPDEST PUSH0 DUP5 DUP5 ADD MSTORE POP POP POP POP JUMP JUMPDEST PUSH0 PUSH1 0x1F NOT PUSH1 0x1F DUP4 ADD AND SWAP1 POP SWAP2 SWAP1 POP JUMP JUMPDEST PUSH0 PUSH2 0x413C DUP3 PUSH2 0x40E0 JUMP JUMPDEST PUSH2 0x4146 DUP2 DUP6 PUSH2 0x40EA JUMP JUMPDEST SWAP4 POP PUSH2 0x4156 DUP2 DUP6 PUSH1 0x20 DUP7 ADD PUSH2 0x40FA JUMP JUMPDEST PUSH2 0x415F DUP2 PUSH2 0x4122 JUMP JUMPDEST DUP5 ADD SWAP2 POP POP SWAP3 SWAP2 POP POP JUMP JUMPDEST PUSH32 0x4E487B7100000000000000000000000000000000000000000000000000000000 PUSH0 MSTORE PUSH1 0x21 PUSH1 0x4 MSTORE PUSH1 0x24 PUSH0 REVERT JUMPDEST PUSH1 0x6 DUP2 LT PUSH2 0x41A8 JUMPI PUSH2 0x41A7 PUSH2 0x416A JUMP JUMPDEST JUMPDEST POP JUMP JUMPDEST PUSH0 DUP2 SWAP1 POP PUSH2 0x41B8 DUP3 PUSH2 0x4197 JUMP JUMPDEST SWAP2 SWAP1 POP JUMP JUMPDEST PUSH0 PUSH2 0x41C7 DUP3 PUSH2 0x41AB JUMP JUMPDEST SWAP1 POP SWAP2 SWAP1 POP JUMP JUMPDEST PUSH2 0x41D7 DUP2 PUSH2 0x41BD JUMP JUMPDEST DUP3 MSTORE POP POP JUMP JUMPDEST PUSH0 PUSH1 0xFF DUP3 AND SWAP1 POP SWAP2 SWAP1 POP JUMP JUMPDEST PUSH2 0x41F2 DUP2 PUSH2 0x41DD JUMP JUMPDEST DUP3 MSTORE POP POP JUMP JUMPDEST PUSH2 0x4201 DUP2 PUSH2 0x3E06 JUMP JUMPDEST DUP3 MSTORE POP POP JUMP JUMPDEST PUSH0 PUSH1 0xE0 DUP3 ADD SWAP1 POP PUSH2 0x421A PUSH0 DUP4 ADD DUP11 PUSH2 0x3F3D JUMP JUMPDEST DUP2 DUP2 SUB PUSH1 0x20 DUP4 ADD MSTORE PUSH2 0x422C DUP2 DUP10 PUSH2 0x4132 JUMP JUMPDEST SWAP1 POP PUSH2 0x423B PUSH1 0x40 DUP4 ADD DUP9 PUSH2 0x3F3D JUMP JUMPDEST PUSH2 0x4248 PUSH1 0x60 DUP4 ADD DUP8 PUSH2 0x41CE JUMP JUMPDEST PUSH2 0x4255 PUSH1 0x80 DUP4 ADD DUP7 PUSH2 0x41E9 JUMP JUMPDEST PUSH2 0x4262 PUSH1 0xA0 DUP4 ADD DUP6 PUSH2 0x41F8 JUMP JUMPDEST PUSH2 0x426F PUSH1 0xC0 DUP4 ADD DUP5 PUSH2 0x41F8 JUMP JUMPDEST SWAP9 SWAP8 POP POP POP POP POP POP POP POP JUMP JUMPDEST PUSH0 DUP2 MLOAD SWAP1 POP SWAP2 SWAP1 POP JUMP JUMPDEST PUSH0 DUP3 DUP3 MSTORE PUSH1 0x20 DUP3 ADD SWAP1 POP SWAP3 SWAP2 POP POP JUMP JUMPDEST PUSH0 DUP2 SWAP1 POP PUSH1 0x20 DUP3 ADD SWAP1 POP SWAP2 SWAP1 POP JUMP JUMPDEST PUSH0 DUP3 DUP3 MSTORE PUSH1 0x20 DUP3 ADD SWAP1 POP SWAP3 SWAP2 POP POP JUMP JUMPDEST PUSH0 PUSH2 0x42BE DUP3 PUSH2 0x40E0 JUMP JUMPDEST PUSH2 0x42C8 DUP2 DUP6 PUSH2 0x42A4 JUMP JUMPDEST SWAP4 POP PUSH2 0x42D8 DUP2 DUP6 PUSH1 0x20 DUP7 ADD PUSH2 0x40FA JUMP JUMPDEST PUSH2 0x42E1 DUP2 PUSH2 0x4122 JUMP JUMPDEST DUP5 ADD SWAP2 POP POP SWAP3 SWAP2 POP POP JUMP JUMPDEST PUSH0 PUSH1 0x40 DUP4 ADD PUSH0 DUP4 ADD MLOAD DUP5 DUP3 SUB PUSH0 DUP7 ADD MSTORE PUSH2 0x4306 DUP3 DUP3 PUSH2 0x42B4 JUMP JUMPDEST SWAP2 POP POP PUSH1 0x20 DUP4 ADD MLOAD PUSH2 0x431B PUSH1 0x20 DUP7 ADD DUP3 PUSH2 0x3FF4 JUMP JUMPDEST POP DUP1 SWAP2 POP POP SWAP3 SWAP2 POP POP JUMP JUMPDEST PUSH0 PUSH2 0x4331 DUP4 DUP4 PUSH2 0x42EC JUMP JUMPDEST SWAP1 POP SWAP3 SWAP2 POP POP JUMP JUMPDEST PUSH0 PUSH1 0x20 DUP3 ADD SWAP1 POP SWAP2 SWAP1 POP JUMP JUMPDEST PUSH0 PUSH2 0x434F DUP3 PUSH2 0x427B JUMP JUMPDEST PUSH2 0x4359 DUP2 DUP6 PUSH2 0x4285 JUMP JUMPDEST SWAP4 POP DUP4 PUSH1 0x20 DUP3 MUL DUP6 ADD PUSH2 0x436B DUP6 PUSH2 0x4295 JUMP JUMPDEST DUP1 PUSH0 JUMPDEST DUP6 DUP2 LT ISZERO PUSH2 0x43A6 JUMPI DUP5 DUP5 SUB DUP10 MSTORE DUP2 MLOAD PUSH2 0x4387 DUP6 DUP3 PUSH2 0x4326 JUMP JUMPDEST SWAP5 POP PUSH2 0x4392 DUP4 PUSH2 0x4339 JUMP JUMPDEST SWAP3 POP PUSH1 0x20 DUP11 ADD SWAP10 POP POP PUSH1 0x1 DUP2 ADD SWAP1 POP PUSH2 0x436E JUMP JUMPDEST POP DUP3 SWAP8 POP DUP8 SWAP6 POP POP POP POP POP POP SWAP3 SWAP2 POP POP JUMP JUMPDEST PUSH0 PUSH1 0x20 DUP3 ADD SWAP1 POP DUP2 DUP2 SUB PUSH0 DUP4 ADD MSTORE PUSH2 0x43D0 DUP2 DUP5 PUSH2 0x4345 JUMP JUMPDEST SWAP1 POP SWAP3 SWAP2 POP POP JUMP JUMPDEST PUSH0 DUP1 PUSH0 PUSH1 0x60 DUP5 DUP7 SUB SLT ISZERO PUSH2 0x43EF JUMPI PUSH2 0x43EE PUSH2 0x3DDF JUMP JUMPDEST JUMPDEST PUSH0 PUSH2 0x43FC DUP7 DUP3 DUP8 ADD PUSH2 0x3E8B JUMP JUMPDEST SWAP4 POP POP PUSH1 0x20 PUSH2 0x440D DUP7 DUP3 DUP8 ADD PUSH2 0x3E2D JUMP JUMPDEST SWAP3 POP POP PUSH1 0x40 PUSH2 0x441E DUP7 DUP3 DUP8 ADD PUSH2 0x3E2D JUMP JUMPDEST SWAP2 POP POP SWAP3 POP SWAP3 POP SWAP3 JUMP JUMPDEST PUSH0 PUSH1 0x20 DUP3 ADD SWAP1 POP PUSH2 0x443B PUSH0 DUP4 ADD DUP5 PUSH2 0x41F8 JUMP JUMPDEST SWAP3 SWAP2 POP POP JUMP JUMPDEST PUSH0 DUP1 REVERT JUMPDEST PUSH0 DUP1 REVERT JUMPDEST PUSH0 DUP1 REVERT JUMPDEST PUSH0 DUP1 DUP4 PUSH1 0x1F DUP5 ADD SLT PUSH2 0x4462 JUMPI PUSH2 0x4461 PUSH2 0x4441 JUMP JUMPDEST JUMPDEST DUP3 CALLDATALOAD SWAP1 POP PUSH8 0xFFFFFFFFFFFFFFFF DUP2 GT ISZERO PUSH2 0x447F JUMPI PUSH2 0x447E PUSH2 0x4445 JUMP JUMPDEST JUMPDEST PUSH1 0x20 DUP4 ADD SWAP2 POP DUP4 PUSH1 0x1 DUP3 MUL DUP4 ADD GT ISZERO PUSH2 0x449B JUMPI PUSH2 0x449A PUSH2 0x4449 JUMP JUMPDEST JUMPDEST SWAP3 POP SWAP3 SWAP1 POP JUMP JUMPDEST PUSH0 DUP1 PUSH0 DUP1 PUSH1 0x60 DUP6 DUP8 SUB SLT ISZERO PUSH2 0x44BA JUMPI PUSH2 0x44B9 PUSH2 0x3DDF JUMP JUMPDEST JUMPDEST PUSH0 PUSH2 0x44C7 DUP8 DUP3 DUP9 ADD PUSH2 0x3E8B JUMP JUMPDEST SWAP5 POP POP PUSH1 0x20 PUSH2 0x44D8 DUP8 DUP3 DUP9 ADD PUSH2 0x3E2D JUMP JUMPDEST SWAP4 POP POP PUSH1 0x40 DUP6 ADD CALLDATALOAD PUSH8 0xFFFFFFFFFFFFFFFF DUP2 GT ISZERO PUSH2 0x44F9 JUMPI PUSH2 0x44F8 PUSH2 0x3DE3 JUMP JUMPDEST JUMPDEST PUSH2 0x4505 DUP8 DUP3 DUP9 ADD PUSH2 0x444D JUMP JUMPDEST SWAP3 POP SWAP3 POP POP SWAP3 SWAP6 SWAP2 SWAP5 POP SWAP3 POP JUMP JUMPDEST PUSH0 DUP1 PUSH0 PUSH1 0x40 DUP5 DUP7 SUB SLT ISZERO PUSH2 0x452A JUMPI PUSH2 0x4529 PUSH2 0x3DDF JUMP JUMPDEST JUMPDEST PUSH0 PUSH2 0x4537 DUP7 DUP3 DUP8 ADD PUSH2 0x3E8B JUMP JUMPDEST SWAP4 POP POP PUSH1 0x20 DUP5 ADD CALLDATALOAD PUSH8 0xFFFFFFFFFFFFFFFF DUP2 GT ISZERO PUSH2 0x4558 JUMPI PUSH2 0x4557 PUSH2 0x3DE3 JUMP JUMPDEST JUMPDEST PUSH2 0x4564 DUP7 DUP3 DUP8 ADD PUSH2 0x444D JUMP JUMPDEST SWAP3 POP SWAP3 POP POP SWAP3 POP SWAP3 POP SWAP3 JUMP JUMPDEST PUSH0 DUP2 MLOAD SWAP1 POP SWAP2 SWAP1 POP JUMP JUMPDEST PUSH0 DUP3 DUP3 MSTORE PUSH1 0x20 DUP3 ADD SWAP1 POP SWAP3 SWAP2 POP POP JUMP JUMPDEST PUSH0 DUP2 SWAP1 POP PUSH1 0x20 DUP3 ADD SWAP1 POP SWAP2 SWAP1 POP JUMP JUMPDEST PUSH2 0x45A2 DUP2 PUSH2 0x3E6C JUMP JUMPDEST DUP3 MSTORE POP POP JUMP JUMPDEST PUSH0 PUSH2 0x45B3 DUP4 DUP4 PUSH2 0x4599 JUMP JUMPDEST PUSH1 0x20 DUP4 ADD SWAP1 POP SWAP3 SWAP2 POP POP JUMP JUMPDEST PUSH0 PUSH1 0x20 DUP3 ADD SWAP1 POP SWAP2 SWAP1 POP JUMP JUMPDEST PUSH0 PUSH2 0x45D5 DUP3 PUSH2 0x4570 JUMP JUMPDEST PUSH2 0x45DF DUP2 DUP6 PUSH2 0x457A JUMP JUMPDEST SWAP4 POP PUSH2 0x45EA DUP4 PUSH2 0x458A JUMP JUMPDEST DUP1 PUSH0 JUMPDEST DUP4 DUP2 LT ISZERO PUSH2 0x461A JUMPI DUP2 MLOAD PUSH2 0x4601 DUP9 DUP3 PUSH2 0x45A8 JUMP JUMPDEST SWAP8 POP PUSH2 0x460C DUP4 PUSH2 0x45BF JUMP JUMPDEST SWAP3 POP POP PUSH1 0x1 DUP2 ADD SWAP1 POP PUSH2 0x45ED JUMP JUMPDEST POP DUP6 SWAP4 POP POP POP POP SWAP3 SWAP2 POP POP JUMP JUMPDEST PUSH0 PUSH1 0x20 DUP3 ADD SWAP1 POP DUP2 DUP2 SUB PUSH0 DUP4 ADD MSTORE PUSH2 0x463F DUP2 DUP5 PUSH2 0x45CB JUMP JUMPDEST SWAP1 POP SWAP3 SWAP2 POP POP JUMP JUMPDEST PUSH2 0x4650 DUP2 PUSH2 0x41DD JUMP JUMPDEST DUP2 EQ PUSH2 0x465A JUMPI PUSH0 DUP1 REVERT JUMPDEST POP JUMP JUMPDEST PUSH0 DUP2 CALLDATALOAD SWAP1 POP PUSH2 0x466B DUP2 PUSH2 0x4647 JUMP JUMPDEST SWAP3 SWAP2 POP POP JUMP JUMPDEST PUSH0 DUP1 PUSH0 DUP1 PUSH0 PUSH1 0x80 DUP7 DUP9 SUB SLT ISZERO PUSH2 0x468A JUMPI PUSH2 0x4689 PUSH2 0x3DDF JUMP JUMPDEST JUMPDEST PUSH0 DUP7 ADD CALLDATALOAD PUSH8 0xFFFFFFFFFFFFFFFF DUP2 GT ISZERO PUSH2 0x46A7 JUMPI PUSH2 0x46A6 PUSH2 0x3DE3 JUMP JUMPDEST JUMPDEST PUSH2 0x46B3 DUP9 DUP3 DUP10 ADD PUSH2 0x444D JUMP JUMPDEST SWAP6 POP SWAP6 POP POP PUSH1 0x20 PUSH2 0x46C6 DUP9 DUP3 DUP10 ADD PUSH2 0x3E8B JUMP JUMPDEST SWAP4 POP POP PUSH1 0x40 PUSH2 0x46D7 DUP9 DUP3 DUP10 ADD PUSH2 0x465D JUMP JUMPDEST SWAP3 POP POP PUSH1 0x60 PUSH2 0x46E8 DUP9 DUP3 DUP10 ADD PUSH2 0x465D JUMP JUMPDEST SWAP2 POP POP SWAP3 SWAP6 POP SWAP3 SWAP6 SWAP1 SWAP4 POP JUMP JUMPDEST PUSH0 DUP1 PUSH1 0x40 DUP4 DUP6 SUB SLT ISZERO PUSH2 0x470B JUMPI PUSH2 0x470A PUSH2 0x3DDF JUMP JUMPDEST JUMPDEST PUSH0 PUSH2 0x4718 DUP6 DUP3 DUP7 ADD PUSH2 0x3E8B JUMP JUMPDEST SWAP3 POP POP PUSH1 0x20 PUSH2 0x4729 DUP6 DUP3 DUP7 ADD PUSH2 0x3E8B JUMP JUMPDEST SWAP2 POP POP SWAP3 POP SWAP3 SWAP1 POP JUMP JUMPDEST PUSH0 PUSH1 0x40 DUP3 ADD SWAP1 POP DUP2 DUP2 SUB PUSH0 DUP4 ADD MSTORE PUSH2 0x474B DUP2 DUP6 PUSH2 0x4132 JUMP JUMPDEST SWAP1 POP PUSH2 0x475A PUSH1 0x20 DUP4 ADD DUP5 PUSH2 0x41F8 JUMP JUMPDEST SWAP4 SWAP3 POP POP POP JUMP JUMPDEST PUSH32 0x43616E6E6F7420626520746865207A65726F2061646472657373000000000000 PUSH0 DUP3 ADD MSTORE POP JUMP JUMPDEST PUSH0 PUSH2 0x4795 PUSH1 0x1A DUP4 PUSH2 0x40EA JUMP JUMPDEST SWAP2 POP PUSH2 0x47A0 DUP3 PUSH2 0x4761 JUMP JUMPDEST PUSH1 0x20 DUP3 ADD SWAP1 POP SWAP2 SWAP1 POP JUMP JUMPDEST PUSH0 PUSH1 0x20 DUP3 ADD SWAP1 POP DUP2 DUP2 SUB PUSH0 DUP4 ADD MSTORE PUSH2 0x47C2 DUP2 PUSH2 0x4789 JUMP JUMPDEST SWAP1 POP SWAP2 SWAP1 POP JUMP JUMPDEST PUSH32 0x416C726561647920726567697374657265640000000000000000000000000000 PUSH0 DUP3 ADD MSTORE POP JUMP JUMPDEST PUSH0 PUSH2 0x47FD PUSH1 0x12 DUP4 PUSH2 0x40EA JUMP JUMPDEST SWAP2 POP PUSH2 0x4808 DUP3 PUSH2 0x47C9 JUMP JUMPDEST PUSH1 0x20 DUP3 ADD SWAP1 POP SWAP2 SWAP1 POP JUMP JUMPDEST PUSH0 PUSH1 0x20 DUP3 ADD SWAP1 POP DUP2 DUP2 SUB PUSH0 DUP4 ADD MSTORE PUSH2 0x482A DUP2 PUSH2 0x47F1 JUMP JUMPDEST SWAP1 POP SWAP2 SWAP1 POP JUMP JUMPDEST PUSH32 0x57726F6E672069642073656E7400000000000000000000000000000000000000 PUSH0 DUP3 ADD MSTORE POP JUMP JUMPDEST PUSH0 PUSH2 0x4865 PUSH1 0xD DUP4 PUSH2 0x40EA JUMP JUMPDEST SWAP2 POP PUSH2 0x4870 DUP3 PUSH2 0x4831 JUMP JUMPDEST PUSH1 0x20 DUP3 ADD SWAP1 POP SWAP2 SWAP1 POP JUMP JUMPDEST PUSH0 PUSH1 0x20 DUP3 ADD SWAP1 POP DUP2 DUP2 SUB PUSH0 DUP4 ADD MSTORE PUSH2 0x4892 DUP2 PUSH2 0x4859 JUMP JUMPDEST SWAP1 POP SWAP2 SWAP1 POP JUMP JUMPDEST PUSH0 PUSH1 0x40 DUP3 ADD SWAP1 POP PUSH2 0x48AC PUSH0 DUP4 ADD DUP6 PUSH2 0x3F3D JUMP JUMPDEST PUSH2 0x48B9 PUSH1 0x20 DUP4 ADD DUP5 PUSH2 0x41F8 JUMP JUMPDEST SWAP4 SWAP3 POP POP POP JUMP JUMPDEST PUSH32 0x4E487B7100000000000000000000000000000000000000000000000000000000 PUSH0 MSTORE PUSH1 0x22 PUSH1 0x4 MSTORE PUSH1 0x24 PUSH0 REVERT JUMPDEST PUSH0 PUSH1 0x2 DUP3 DIV SWAP1 POP PUSH1 0x1 DUP3 AND DUP1 PUSH2 0x4904 JUMPI PUSH1 0x7F DUP3 AND SWAP2 POP JUMPDEST PUSH1 0x20 DUP3 LT DUP2 SUB PUSH2 0x4917 JUMPI PUSH2 0x4916 PUSH2 0x48C0 JUMP JUMPDEST JUMPDEST POP SWAP2 SWAP1 POP JUMP JUMPDEST PUSH32 0x4E487B7100000000000000000000000000000000000000000000000000000000 PUSH0 MSTORE PUSH1 0x32 PUSH1 0x4 MSTORE PUSH1 0x24 PUSH0 REVERT JUMPDEST PUSH32 0x4E487B7100000000000000000000000000000000000000000000000000000000 PUSH0 MSTORE PUSH1 0x11 PUSH1 0x4 MSTORE PUSH1 0x24 PUSH0 REVERT JUMPDEST PUSH0 PUSH2 0x4981 DUP3 PUSH2 0x41DD JUMP JUMPDEST SWAP2 POP PUSH0 DUP3 SUB PUSH2 0x4993 JUMPI PUSH2 0x4992 PUSH2 0x494A JUMP JUMPDEST JUMPDEST PUSH1 0x1 DUP3 SUB SWAP1 POP SWAP2 SWAP1 POP JUMP JUMPDEST PUSH32 0x4E6F7420746865206D616E616765720000000000000000000000000000000000 PUSH0 DUP3 ADD MSTORE POP JUMP JUMPDEST PUSH0 PUSH2 0x49D2 PUSH1 0xF DUP4 PUSH2 0x40EA JUMP JUMPDEST SWAP2 POP PUSH2 0x49DD DUP3 PUSH2 0x499E JUMP JUMPDEST PUSH1 0x20 DUP3 ADD SWAP1 POP SWAP2 SWAP1 POP JUMP JUMPDEST PUSH0 PUSH1 0x20 DUP3 ADD SWAP1 POP DUP2 DUP2 SUB PUSH0 DUP4 ADD MSTORE PUSH2 0x49FF DUP2 PUSH2 0x49C6 JUMP JUMPDEST SWAP1 POP SWAP2 SWAP1 POP JUMP JUMPDEST PUSH32 0x53616D6520616464726573730000000000000000000000000000000000000000 PUSH0 DUP3 ADD MSTORE POP JUMP JUMPDEST PUSH0 PUSH2 0x4A3A PUSH1 0xC DUP4 PUSH2 0x40EA JUMP JUMPDEST SWAP2 POP PUSH2 0x4A45 DUP3 PUSH2 0x4A06 JUMP JUMPDEST PUSH1 0x20 DUP3 ADD SWAP1 POP SWAP2 SWAP1 POP JUMP JUMPDEST PUSH0 PUSH1 0x20 DUP3 ADD SWAP1 POP DUP2 DUP2 SUB PUSH0 DUP4 ADD MSTORE PUSH2 0x4A67 DUP2 PUSH2 0x4A2E JUMP JUMPDEST SWAP1 POP SWAP2 SWAP1 POP JUMP JUMPDEST PUSH32 0x4E6F742072656769737465726564000000000000000000000000000000000000 PUSH0 DUP3 ADD MSTORE POP JUMP JUMPDEST PUSH0 PUSH2 0x4AA2 PUSH1 0xE DUP4 PUSH2 0x40EA JUMP JUMPDEST SWAP2 POP PUSH2 0x4AAD DUP3 PUSH2 0x4A6E JUMP JUMPDEST PUSH1 0x20 DUP3 ADD SWAP1 POP SWAP2 SWAP1 POP JUMP JUMPDEST PUSH0 PUSH1 0x20 DUP3 ADD SWAP1 POP DUP2 DUP2 SUB PUSH0 DUP4 ADD MSTORE PUSH2 0x4ACF DUP2 PUSH2 0x4A96 JUMP JUMPDEST SWAP1 POP SWAP2 SWAP1 POP JUMP JUMPDEST PUSH32 0x43616E6E6F7420626520656D7074790000000000000000000000000000000000 PUSH0 DUP3 ADD MSTORE POP JUMP JUMPDEST PUSH0 PUSH2 0x4B0A PUSH1 0xF DUP4 PUSH2 0x40EA JUMP JUMPDEST SWAP2 POP PUSH2 0x4B15 DUP3 PUSH2 0x4AD6 JUMP JUMPDEST PUSH1 0x20 DUP3 ADD SWAP1 POP SWAP2 SWAP1 POP JUMP JUMPDEST PUSH0 PUSH1 0x20 DUP3 ADD SWAP1 POP DUP2 DUP2 SUB PUSH0 DUP4 ADD MSTORE PUSH2 0x4B37 DUP2 PUSH2 0x4AFE JUMP JUMPDEST SWAP1 POP SWAP2 SWAP1 POP JUMP JUMPDEST PUSH0 PUSH2 0x4B48 DUP3 PUSH2 0x3E6C JUMP JUMPDEST SWAP2 POP PUSH2 0x4B53 DUP4 PUSH2 0x3E6C JUMP JUMPDEST SWAP3 POP DUP3 DUP3 SUB SWAP1 POP DUP2 DUP2 GT ISZERO PUSH2 0x4B6B JUMPI PUSH2 0x4B6A PUSH2 0x494A JUMP JUMPDEST JUMPDEST SWAP3 SWAP2 POP POP JUMP JUMPDEST PUSH32 0x5761697420327300000000000000000000000000000000000000000000000000 PUSH0 DUP3 ADD MSTORE POP JUMP JUMPDEST PUSH0 PUSH2 0x4BA5 PUSH1 0x7 DUP4 PUSH2 0x40EA JUMP JUMPDEST SWAP2 POP PUSH2 0x4BB0 DUP3 PUSH2 0x4B71 JUMP JUMPDEST PUSH1 0x20 DUP3 ADD SWAP1 POP SWAP2 SWAP1 POP JUMP JUMPDEST PUSH0 PUSH1 0x20 DUP3 ADD SWAP1 POP DUP2 DUP2 SUB PUSH0 DUP4 ADD MSTORE PUSH2 0x4BD2 DUP2 PUSH2 0x4B99 JUMP JUMPDEST SWAP1 POP SWAP2 SWAP1 POP JUMP JUMPDEST PUSH32 0x4E487B7100000000000000000000000000000000000000000000000000000000 PUSH0 MSTORE PUSH1 0x41 PUSH1 0x4 MSTORE PUSH1 0x24 PUSH0 REVERT JUMPDEST PUSH0 DUP2 SWAP1 POP DUP2 PUSH0 MSTORE PUSH1 0x20 PUSH0 KECCAK256 SWAP1 POP SWAP2 SWAP1 POP JUMP JUMPDEST PUSH0 PUSH1 0x20 PUSH1 0x1F DUP4 ADD DIV SWAP1 POP SWAP2 SWAP1 POP JUMP JUMPDEST PUSH0 DUP3 DUP3 SHL SWAP1 POP SWAP3 SWAP2 POP POP JUMP JUMPDEST PUSH0 PUSH1 0x8 DUP4 MUL PUSH2 0x4C62 PUSH32 0xFFFFFFFFFFFFFFFFFFFFFFFFFFFFFFFFFFFFFFFFFFFFFFFFFFFFFFFFFFFFFFFF DUP3 PUSH2 0x4C27 JUMP JUMPDEST PUSH2 0x4C6C DUP7 DUP4 PUSH2 0x4C27 JUMP JUMPDEST SWAP6 POP DUP1 NOT DUP5 AND SWAP4 POP DUP1 DUP7 AND DUP5 OR SWAP3 POP POP POP SWAP4 SWAP3 POP POP POP JUMP JUMPDEST PUSH0 DUP2 SWAP1 POP SWAP2 SWAP1 POP JUMP JUMPDEST PUSH0 PUSH2 0x4CA7 PUSH2 0x4CA2 PUSH2 0x4C9D DUP5 PUSH2 0x3E6C JUMP JUMPDEST PUSH2 0x4C84 JUMP JUMPDEST PUSH2 0x3E6C JUMP JUMPDEST SWAP1 POP SWAP2 SWAP1 POP JUMP JUMPDEST PUSH0 DUP2 SWAP1 POP SWAP2 SWAP1 POP JUMP JUMPDEST PUSH2 0x4CC0 DUP4 PUSH2 0x4C8D JUMP JUMPDEST PUSH2 0x4CD4 PUSH2 0x4CCC DUP3 PUSH2 0x4CAE JUMP JUMPDEST DUP5 DUP5 SLOAD PUSH2 0x4C33 JUMP JUMPDEST DUP3 SSTORE POP POP POP POP JUMP JUMPDEST PUSH0 SWAP1 JUMP JUMPDEST PUSH2 0x4CE8 PUSH2 0x4CDC JUMP JUMPDEST PUSH2 0x4CF3 DUP2 DUP5 DUP5 PUSH2 0x4CB7 JUMP JUMPDEST POP POP POP JUMP JUMPDEST JUMPDEST DUP2 DUP2 LT ISZERO PUSH2 0x4D16 JUMPI PUSH2 0x4D0B PUSH0 DUP3 PUSH2 0x4CE0 JUMP JUMPDEST PUSH1 0x1 DUP2 ADD SWAP1 POP PUSH2 0x4CF9 JUMP JUMPDEST POP POP JUMP JUMPDEST PUSH1 0x1F DUP3 GT ISZERO PUSH2 0x4D5B JUMPI PUSH2 0x4D2C DUP2 PUSH2 0x4C06 JUMP JUMPDEST PUSH2 0x4D35 DUP5 PUSH2 0x4C18 JUMP JUMPDEST DUP2 ADD PUSH1 0x20 DUP6 LT ISZERO PUSH2 0x4D44 JUMPI DUP2 SWAP1 POP JUMPDEST PUSH2 0x4D58 PUSH2 0x4D50 DUP6 PUSH2 0x4C18 JUMP JUMPDEST DUP4 ADD DUP3 PUSH2 0x4CF8 JUMP JUMPDEST POP POP JUMPDEST POP POP POP JUMP JUMPDEST PUSH0 DUP3 DUP3 SHR SWAP1 POP SWAP3 SWAP2 POP POP JUMP JUMPDEST PUSH0 PUSH2 0x4D7B PUSH0 NOT DUP5 PUSH1 0x8 MUL PUSH2 0x4D60 JUMP JUMPDEST NOT DUP1 DUP4 AND SWAP2 POP POP SWAP3 SWAP2 POP POP JUMP JUMPDEST PUSH0 PUSH2 0x4D93 DUP4 DUP4 PUSH2 0x4D6C JUMP JUMPDEST SWAP2 POP DUP3 PUSH1 0x2 MUL DUP3 OR SWAP1 POP SWAP3 SWAP2 POP POP JUMP JUMPDEST PUSH2 0x4DAC DUP3 PUSH2 0x40E0 JUMP JUMPDEST PUSH8 0xFFFFFFFFFFFFFFFF DUP2 GT ISZERO PUSH2 0x4DC5 JUMPI PUSH2 0x4DC4 PUSH2 0x4BD9 JUMP JUMPDEST JUMPDEST PUSH2 0x4DCF DUP3 SLOAD PUSH2 0x48ED JUMP JUMPDEST PUSH2 0x4DDA DUP3 DUP3 DUP6 PUSH2 0x4D1A JUMP JUMPDEST PUSH0 PUSH1 0x20 SWAP1 POP PUSH1 0x1F DUP4 GT PUSH1 0x1 DUP2 EQ PUSH2 0x4E0B JUMPI PUSH0 DUP5 ISZERO PUSH2 0x4DF9 JUMPI DUP3 DUP8 ADD MLOAD SWAP1 POP JUMPDEST PUSH2 0x4E03 DUP6 DUP3 PUSH2 0x4D88 JUMP JUMPDEST DUP7 SSTORE POP PUSH2 0x4E6A JUMP JUMPDEST PUSH1 0x1F NOT DUP5 AND PUSH2 0x4E19 DUP7 PUSH2 0x4C06 JUMP JUMPDEST PUSH0 JUMPDEST DUP3 DUP2 LT ISZERO PUSH2 0x4E40 JUMPI DUP5 DUP10 ADD MLOAD DUP3 SSTORE PUSH1 0x1 DUP3 ADD SWAP2 POP PUSH1 0x20 DUP6 ADD SWAP5 POP PUSH1 0x20 DUP2 ADD SWAP1 POP PUSH2 0x4E1B JUMP JUMPDEST DUP7 DUP4 LT ISZERO PUSH2 0x4E5D JUMPI DUP5 DUP10 ADD MLOAD PUSH2 0x4E59 PUSH1 0x1F DUP10 AND DUP3 PUSH2 0x4D6C JUMP JUMPDEST DUP4 SSTORE POP JUMPDEST PUSH1 0x1 PUSH1 0x2 DUP9 MUL ADD DUP9 SSTORE POP POP POP JUMPDEST POP POP POP POP POP POP JUMP JUMPDEST PUSH0 PUSH2 0x4E7C DUP3 PUSH2 0x3E6C JUMP JUMPDEST SWAP2 POP PUSH32 0xFFFFFFFFFFFFFFFFFFFFFFFFFFFFFFFFFFFFFFFFFFFFFFFFFFFFFFFFFFFFFFFF DUP3 SUB PUSH2 0x4EAE JUMPI PUSH2 0x4EAD PUSH2 0x494A JUMP JUMPDEST JUMPDEST PUSH1 0x1 DUP3 ADD SWAP1 POP SWAP2 SWAP1 POP JUMP JUMPDEST PUSH32 0x4F776E61626C653A206E6577206F776E657220697320746865207A65726F2061 PUSH0 DUP3 ADD MSTORE PUSH32 0x6464726573730000000000000000000000000000000000000000000000000000 PUSH1 0x20 DUP3 ADD MSTORE POP JUMP JUMPDEST PUSH0 PUSH2 0x4F13 PUSH1 0x26 DUP4 PUSH2 0x40EA JUMP JUMPDEST SWAP2 POP PUSH2 0x4F1E DUP3 PUSH2 0x4EB9 JUMP JUMPDEST PUSH1 0x40 DUP3 ADD SWAP1 POP SWAP2 SWAP1 POP JUMP JUMPDEST PUSH0 PUSH1 0x20 DUP3 ADD SWAP1 POP DUP2 DUP2 SUB PUSH0 DUP4 ADD MSTORE PUSH2 0x4F40 DUP2 PUSH2 0x4F07 JUMP JUMPDEST SWAP1 POP SWAP2 SWAP1 POP JUMP JUMPDEST PUSH32 0x466F7262696464656E0000000000000000000000000000000000000000000000 PUSH0 DUP3 ADD MSTORE POP JUMP JUMPDEST PUSH0 PUSH2 0x4F7B PUSH1 0x9 DUP4 PUSH2 0x40EA JUMP JUMPDEST SWAP2 POP PUSH2 0x4F86 DUP3 PUSH2 0x4F47 JUMP JUMPDEST PUSH1 0x20 DUP3 ADD SWAP1 POP SWAP2 SWAP1 POP JUMP JUMPDEST PUSH0 PUSH1 0x20 DUP3 ADD SWAP1 POP DUP2 DUP2 SUB PUSH0 DUP4 ADD MSTORE PUSH2 0x4FA8 DUP2 PUSH2 0x4F6F JUMP JUMPDEST SWAP1 POP SWAP2 SWAP1 POP JUMP JUMPDEST PUSH32 0x496E636F72726563742064617465000000000000000000000000000000000000 PUSH0 DUP3 ADD MSTORE POP JUMP JUMPDEST PUSH0 PUSH2 0x4FE3 PUSH1 0xE DUP4 PUSH2 0x40EA JUMP JUMPDEST SWAP2 POP PUSH2 0x4FEE DUP3 PUSH2 0x4FAF JUMP JUMPDEST PUSH1 0x20 DUP3 ADD SWAP1 POP SWAP2 SWAP1 POP JUMP JUMPDEST PUSH0 PUSH1 0x20 DUP3 ADD SWAP1 POP DUP2 DUP2 SUB PUSH0 DUP4 ADD MSTORE PUSH2 0x5010 DUP2 PUSH2 0x4FD7 JUMP JUMPDEST SWAP1 POP SWAP2 SWAP1 POP JUMP JUMPDEST PUSH32 0x4E487B7100000000000000000000000000000000000000000000000000000000 PUSH0 MSTORE PUSH1 0x12 PUSH1 0x4 MSTORE PUSH1 0x24 PUSH0 REVERT JUMPDEST PUSH0 PUSH2 0x504E DUP3 PUSH2 0x41DD JUMP JUMPDEST SWAP2 POP PUSH2 0x5059 DUP4 PUSH2 0x41DD JUMP JUMPDEST SWAP3 POP DUP3 PUSH2 0x5069 JUMPI PUSH2 0x5068 PUSH2 0x5017 JUMP JUMPDEST JUMPDEST DUP3 DUP3 MOD SWAP1 POP SWAP3 SWAP2 POP POP JUMP JUMPDEST PUSH32 0x506C617965642062792032000000000000000000000000000000000000000000 PUSH0 DUP3 ADD MSTORE POP JUMP JUMPDEST PUSH0 PUSH2 0x50A8 PUSH1 0xB DUP4 PUSH2 0x40EA JUMP JUMPDEST SWAP2 POP PUSH2 0x50B3 DUP3 PUSH2 0x5074 JUMP JUMPDEST PUSH1 0x20 DUP3 ADD SWAP1 POP SWAP2 SWAP1 POP JUMP JUMPDEST PUSH0 PUSH1 0x20 DUP3 ADD SWAP1 POP DUP2 DUP2 SUB PUSH0 DUP4 ADD MSTORE PUSH2 0x50D5 DUP2 PUSH2 0x509C JUMP JUMPDEST SWAP1 POP SWAP2 SWAP1 POP JUMP JUMPDEST PUSH32 0x496E636F727265637420646966666963756C7479000000000000000000000000 PUSH0 DUP3 ADD MSTORE POP JUMP JUMPDEST PUSH0 PUSH2 0x5110 PUSH1 0x14 DUP4 PUSH2 0x40EA JUMP JUMPDEST SWAP2 POP PUSH2 0x511B DUP3 PUSH2 0x50DC JUMP JUMPDEST PUSH1 0x20 DUP3 ADD SWAP1 POP SWAP2 SWAP1 POP JUMP JUMPDEST PUSH0 PUSH1 0x20 DUP3 ADD SWAP1 POP DUP2 DUP2 SUB PUSH0 DUP4 ADD MSTORE PUSH2 0x513D DUP2 PUSH2 0x5104 JUMP JUMPDEST SWAP1 POP SWAP2 SWAP1 POP JUMP JUMPDEST PUSH32 0x4F776E61626C653A2063616C6C6572206973206E6F7420746865206F776E6572 PUSH0 DUP3 ADD MSTORE POP JUMP JUMPDEST PUSH0 PUSH2 0x5178 PUSH1 0x20 DUP4 PUSH2 0x40EA JUMP JUMPDEST SWAP2 POP PUSH2 0x5183 DUP3 PUSH2 0x5144 JUMP JUMPDEST PUSH1 0x20 DUP3 ADD SWAP1 POP SWAP2 SWAP1 POP JUMP JUMPDEST PUSH0 PUSH1 0x20 DUP3 ADD SWAP1 POP DUP2 DUP2 SUB PUSH0 DUP4 ADD MSTORE PUSH2 0x51A5 DUP2 PUSH2 0x516C JUMP JUMPDEST SWAP1 POP SWAP2 SWAP1 POP JUMP INVALID LOG2 PUSH5 0x6970667358 0x22 SLT KECCAK256 LOG1 TIMESTAMP 0xEA TIMESTAMP SWAP3 SWAP14 0x2F 0xD8 0x5E 0xC0 CHAINID 0xC7 0xB8 PUSH16 0x220B0FAE76B3DF63398E52A6771F62DF PUSH30 0x3A64736F6C63430008140033000000000000000000000000000000000000 "},"methodIdentifiers":{"addComment(uint256,string)":"aa7e5683","addManager(address)":"2d06177a","addMessageToManager(uint256,string)":"d566a382","addResponseToPlayer(uint256,address,string)":"998ac197","addTournament(string,uint256,uint8,uint8)":"f891e08b","addWinners(uint256,address,address)":"8a8da1f7","comments(uint256,uint256)":"fc6c776f","followTournament(uint256,bool)":"32e9f509","followedTournaments(uint256,address)":"3ae48eb8","getExchanges(uint256)":"3b26f59c","getMessagesManagerPlayer(uint256,address)":"75843aba","getTournaments()":"f7f20cb3","getTournamentsByPlayer()":"bd83f6e3","idComments(uint256)":"3682fd03","linkManagerTournament(uint256)":"f52ec1cb","managers(address)":"fdff9b4d","owner()":"8da5cb5b","playersRegistered(uint256,address)":"9b535ead","registerPlayer(uint256)":"821644e6","renounceOwnership()":"715018a6","tournaments(uint256)":"7503e1b7","tournamentsByPlayer(address,uint256)":"43c0edc1","transferOwnership(address)":"f2fde38b"}}}}}